{"abi":[{"type":"function","name":"addAdmin","inputs":[{"name":"account_","type":"address","internalType":"address"}],"outputs":[{"name":"assigned_","type":"bool","internalType":"bool"}],"stateMutability":"nonpayable"},{"type":"function","name":"beacon","inputs":[],"outputs":[{"name":"","type":"address","internalType":"contract UpgradeableBeacon"}],"stateMutability":"view"},{"type":"function","name":"createBorderlessCompany","inputs":[{"name":"companyID_","type":"bytes","internalType":"bytes"},{"name":"establishmentDate_","type":"bytes","internalType":"bytes"},{"name":"confirmed_","type":"bool","internalType":"bool"}],"outputs":[{"name":"started_","type":"bool","internalType":"bool"},{"name":"companyAddress_","type":"address","internalType":"address"}],"stateMutability":"nonpayable"},{"type":"function","name":"createProxy","inputs":[{"name":"_proxyId","type":"uint256","internalType":"uint256"},{"name":"_data","type":"bytes","internalType":"bytes"}],"outputs":[{"name":"","type":"address","internalType":"address"}],"stateMutability":"nonpayable"},{"type":"function","name":"getBeacon","inputs":[],"outputs":[{"name":"","type":"address","internalType":"address"}],"stateMutability":"view"},{"type":"function","name":"getImplementation","inputs":[],"outputs":[{"name":"","type":"address","internalType":"address"}],"stateMutability":"view"},{"type":"function","name":"getProxyAddress","inputs":[{"name":"_proxyId","type":"uint256","internalType":"uint256"}],"outputs":[{"name":"","type":"address","internalType":"address"}],"stateMutability":"view"},{"type":"function","name":"initialize","inputs":[{"name":"implementation_","type":"address","internalType":"address"},{"name":"reserve_","type":"address","internalType":"address"}],"outputs":[],"stateMutability":"nonpayable"},{"type":"function","name":"isAdmin","inputs":[{"name":"account_","type":"address","internalType":"address"}],"outputs":[{"name":"assigned_","type":"bool","internalType":"bool"}],"stateMutability":"view"},{"type":"function","name":"owner","inputs":[],"outputs":[{"name":"","type":"address","internalType":"address"}],"stateMutability":"view"},{"type":"function","name":"removeAdmin","inputs":[{"name":"account_","type":"address","internalType":"address"}],"outputs":[{"name":"assigned_","type":"bool","internalType":"bool"}],"stateMutability":"nonpayable"},{"type":"function","name":"renounceOwnership","inputs":[],"outputs":[],"stateMutability":"nonpayable"},{"type":"function","name":"setFactoryPool","inputs":[{"name":"factoryPool_","type":"address","internalType":"address"}],"outputs":[],"stateMutability":"nonpayable"},{"type":"function","name":"transferOwnership","inputs":[{"name":"newOwner","type":"address","internalType":"address"}],"outputs":[],"stateMutability":"nonpayable"},{"type":"event","name":"Initialized","inputs":[{"name":"version","type":"uint64","indexed":false,"internalType":"uint64"}],"anonymous":false},{"type":"event","name":"NewAdmin","inputs":[{"name":"account_","type":"address","indexed":true,"internalType":"address"},{"name":"count_","type":"uint256","indexed":true,"internalType":"uint256"}],"anonymous":false},{"type":"event","name":"NewBorderlessCompany","inputs":[{"name":"founder_","type":"address","indexed":true,"internalType":"address"},{"name":"company_","type":"address","indexed":true,"internalType":"address"},{"name":"companyIndex_","type":"uint256","indexed":true,"internalType":"uint256"}],"anonymous":false},{"type":"event","name":"OwnershipTransferred","inputs":[{"name":"previousOwner","type":"address","indexed":true,"internalType":"address"},{"name":"newOwner","type":"address","indexed":true,"internalType":"address"}],"anonymous":false},{"type":"event","name":"ProxyCreated","inputs":[{"name":"instanceId","type":"uint256","indexed":true,"internalType":"uint256"},{"name":"proxyAddress","type":"address","indexed":true,"internalType":"address"}],"anonymous":false},{"type":"event","name":"RemoveAdmin","inputs":[{"name":"account_","type":"address","indexed":true,"internalType":"address"},{"name":"count_","type":"uint256","indexed":true,"internalType":"uint256"}],"anonymous":false},{"type":"event","name":"SetFactoryPool","inputs":[{"name":"account_","type":"address","indexed":true,"internalType":"address"},{"name":"pool_","type":"address","indexed":true,"internalType":"address"}],"anonymous":false},{"type":"error","name":"AlreadyAdmin","inputs":[{"name":"account_","type":"address","internalType":"address"}]},{"type":"error","name":"DoNotAddAdmin","inputs":[{"name":"account_","type":"address","internalType":"address"}]},{"type":"error","name":"DoNotCreateBorderlessCompany","inputs":[{"name":"account_","type":"address","internalType":"address"}]},{"type":"error","name":"DoNotRemoveAdmin","inputs":[{"name":"account_","type":"address","internalType":"address"}]},{"type":"error","name":"InvalidAddress","inputs":[{"name":"account_","type":"address","internalType":"address"}]},{"type":"error","name":"InvalidCompanyInfo","inputs":[{"name":"account_","type":"address","internalType":"address"}]},{"type":"error","name":"InvalidInitialization","inputs":[]},{"type":"error","name":"InvalidParam","inputs":[{"name":"account_","type":"address","internalType":"address"}]},{"type":"error","name":"LastAdmin","inputs":[{"name":"account_","type":"address","internalType":"address"}]},{"type":"error","name":"NotAdmin","inputs":[{"name":"account_","type":"address","internalType":"address"}]},{"type":"error","name":"NotInitializing","inputs":[]},{"type":"error","name":"OwnableInvalidOwner","inputs":[{"name":"owner","type":"address","internalType":"address"}]},{"type":"error","name":"OwnableUnauthorizedAccount","inputs":[{"name":"account","type":"address","internalType":"address"}]}],"bytecode":{"object":"0x6080604052348015600f57600080fd5b506016601a565b60ca565b7ff0c57e16840df040f15088dc2f81fe391c3923bec73e23a9662efc9c229c6a00805468010000000000000000900460ff161560695760405163f92ee8a960e01b815260040160405180910390fd5b80546001600160401b039081161460c75780546001600160401b0319166001600160401b0390811782556040519081527fc7f505b2f371ae2175ee4913f4499e1f2633a7b5936321eed1cdaeb6115181d29060200160405180910390a15b50565b6120b6806100d96000396000f3fe608060405234801561001057600080fd5b50600436106100ea5760003560e01c8063715018a61161008c5780638da5cb5b116100665780638da5cb5b146102005780639f80d15414610230578063aaf10f4214610243578063f2fde38b1461024b57600080fd5b8063715018a6146101b3578063781e7278146101bb578063827cf27f146101ed57600080fd5b8063384ba7f2116100c8578063384ba7f21461014f578063485cc9551461017857806359659e901461018d57806370480275146101a057600080fd5b80631785f53c146100ef57806324d7806c146101175780632d6b3a6b1461012a575b600080fd5b6101026100fd366004611141565b61025e565b60405190151581526020015b60405180910390f35b610102610125366004611141565b61032e565b6000546001600160a01b03165b6040516001600160a01b03909116815260200161010e565b61013761015d366004611165565b6000908152600160205260409020546001600160a01b031690565b61018b61018636600461117e565b61035e565b005b600054610137906001600160a01b031681565b6101026101ae366004611141565b610494565b61018b610528565b6101ce6101c936600461120e565b61053c565b6040805192151583526001600160a01b0390911660208301520161010e565b6101376101fb3660046112ad565b61072c565b7f9016d09d72d40fdae2fd8ceac6b6234c7706214fd39c1cd1e609a0528c199300546001600160a01b0316610137565b61018b61023e366004611141565b6107d9565b61013761087c565b61018b610259366004611141565b6108f9565b600061026933610937565b61028e5760405162461bcd60e51b815260040161028590611370565b60405180910390fd5b6001600160a01b0382166102c057604051634726455360e11b81526001600160a01b0383166004820152602401610285565b6102c982610937565b6102f157604051630bd4212160e11b81526001600160a01b0383166004820152602401610285565b60016005541161031f576040516356aae60b60e01b81526001600160a01b0383166004820152602401610285565b61032882610955565b92915050565b600061033933610937565b6103555760405162461bcd60e51b815260040161028590611370565b61032882610937565b7ff0c57e16840df040f15088dc2f81fe391c3923bec73e23a9662efc9c229c6a008054600160401b810460ff16159067ffffffffffffffff166000811580156103a45750825b905060008267ffffffffffffffff1660011480156103c15750303b155b9050811580156103cf575080155b156103ed5760405163f92ee8a960e01b815260040160405180910390fd5b845467ffffffffffffffff19166001178555831561041757845460ff60401b1916600160401b1785555b610420876109fe565b61042933610b67565b50600280546001600160a01b0319166001600160a01b038816179055831561048b57845460ff60401b19168555604051600181527fc7f505b2f371ae2175ee4913f4499e1f2633a7b5936321eed1cdaeb6115181d29060200160405180910390a15b50505050505050565b600061049f33610937565b6104bb5760405162461bcd60e51b815260040161028590611370565b6001600160a01b0382166104ed57604051634726455360e11b81526001600160a01b0383166004820152602401610285565b6104f682610937565b1561051f5760405163089a8b0f60e41b81526001600160a01b0383166004820152602401610285565b61032882610b67565b610530610c11565b61053a6000610c6c565b565b600254604051633af32abf60e01b815233600482015260009182916001600160a01b0390911690633af32abf906024016020604051808303816000875af115801561058b573d6000803e3d6000fd5b505050506040513d601f19601f820116820180604052508101906105af91906113a7565b6105fb5760405162461bcd60e51b815260206004820152601c60248201527f4572726f723a2052656769737465722f4f6e6c792d466f756e646572000000006044820152606401610285565b61064f6040518060e0016040528060006001600160a01b0316815260200160006001600160a01b03168152602001606081526020016060815260200160001515815260200160008152602001600081525090565b86158061065a575084155b80610663575083155b15610683576040516307aed42160e41b8152336004820152602401610285565b3360208083019190915260408051601f8a0183900483028101830190915288815290899089908190840183828082843760009201919091525050505060408083019190915280516020601f8801819004810282018101909252868152908790879081908401838280828437600092019190915250505050606082015283151560808201524260a0820181905260c082015261071d81610cdd565b90999098509650505050505050565b6000610736610c11565b600080546040516001600160a01b0390911690849061075490611112565b61075f9291906113c4565b604051809103906000f08015801561077b573d6000803e3d6000fd5b5060008581526001602052604080822080546001600160a01b0319166001600160a01b03851690811790915590519293509186917ffec3a900452bdfaabaf717e8b9340eb6b9e79ed608718e66bd0f74ebf684e3c091a39392505050565b6107e233610937565b6107fe5760405162461bcd60e51b815260040161028590611370565b6001600160a01b038116610830576040516305677d4960e51b81526001600160a01b0382166004820152602401610285565b600380546001600160a01b0319166001600160a01b03831690811790915560405133907f9c3a85cb9f7340b916bee5f5e6f2598f42bd89978743f4f6aba2d7d02749e8c490600090a350565b60008060009054906101000a90046001600160a01b03166001600160a01b0316635c60da1b6040518163ffffffff1660e01b8152600401602060405180830381865afa1580156108d0573d6000803e3d6000fd5b505050506040513d601f19601f820116820180604052508101906108f49190611421565b905090565b610901610c11565b6001600160a01b03811661092b57604051631e4fbdf760e01b815260006004820152602401610285565b61093481610c6c565b50565b6001600160a01b031660009081526004602052604090205460ff1690565b6001600160a01b0381166000908152600460205260408120805460ff191690558061097f83610937565b905080156109ab57604051634f8f39bd60e11b81526001600160a01b0384166004820152602401610285565b600580549060006109bb83611454565b90915550506005546040516001600160a01b038516907f7b0884b4b6bb4e0c1385ad42168fa556c14d4d799c1bf22f081aff3efff6ea0c90600090a31592915050565b7ff0c57e16840df040f15088dc2f81fe391c3923bec73e23a9662efc9c229c6a008054600160401b810460ff16159067ffffffffffffffff16600081158015610a445750825b905060008267ffffffffffffffff166001148015610a615750303b155b905081158015610a6f575080155b15610a8d5760405163f92ee8a960e01b815260040160405180910390fd5b845467ffffffffffffffff191660011785558315610ab757845460ff60401b1916600160401b1785555b8533604051610ac59061111f565b6001600160a01b03928316815291166020820152604001604051809103906000f080158015610af8573d6000803e3d6000fd5b50600080546001600160a01b0319166001600160a01b03929092169190911790558315610b5f57845460ff60401b19168555604051600181527fc7f505b2f371ae2175ee4913f4499e1f2633a7b5936321eed1cdaeb6115181d29060200160405180910390a15b505050505050565b6001600160a01b0381166000908152600460205260408120805460ff1916600117905580610b9483610937565b905080610bbf57604051635fe9228760e01b81526001600160a01b0384166004820152602401610285565b60058054906000610bcf8361146b565b90915550506005546040516001600160a01b038516907fb9fc27e783df6c8991936fe26ee2fa8498d30034068a61ee9c9d623e077cad0590600090a392915050565b33610c437f9016d09d72d40fdae2fd8ceac6b6234c7706214fd39c1cd1e609a0528c199300546001600160a01b031690565b6001600160a01b03161461053a5760405163118cdaa760e01b8152336004820152602401610285565b7f9016d09d72d40fdae2fd8ceac6b6234c7706214fd39c1cd1e609a0528c19930080546001600160a01b031981166001600160a01b03848116918217845560405192169182907f8be0079c531659141344cd1fd0a4f28419497f9722a3daafe3b4186f6b6457e090600090a3505050565b602081810151604080516001600160a01b03928316602482015230604480830191909152825180830390910181526064909101825292830180516001600160e01b031663485cc95560e01b1790526000805491519093849384938493849392849216908390610d4b90611112565b610d569291906113c4565b604051809103906000f080158015610d72573d6000803e3d6000fd5b509050806001600160a01b03811615610d9357610d8d610ec3565b90965093505b85610db35760405163773ab5bb60e11b8152336004820152602401610285565b6001600160a01b038082168a526000858152600660209081526040918290208c5181549085166001600160a01b0319918216178255918d0151600182018054919095169216919091179092558a01518a91906002820190610e14908261150d565b5060608201516003820190610e29908261150d565b50608082015160048201805460ff191691151591909117905560a0820151600582015560c09091015160069091015560208901518951610e699190610f14565b94508415610eb257885160208a015160405186926001600160a01b039081169216907f3c31cb90d6e063d24e398d0c43ea29c7a50d06cb02beff675623484b9cafead690600090a45b505095519196919550909350505050565b6000806000610ed160075490565b600780549192506000610ee38361146b565b91905055506000610ef360075490565b905080610f018360016115cc565b03610f0e57600193509150815b50509091565b6040805160038082526080820190925260009182918291908290826020820160608036833701905050905060015b8260ff1681116110975760035460405163ef0e239b60e01b8152600481018390526001600160a01b039091169063ef0e239b9060240160408051808303816000875af1158015610f96573d6000803e3d6000fd5b505050506040513d601f19601f82011682018060405250810190610fba91906115df565b909550935083156110855760405163494f683f60e01b81526001600160a01b0389811660048301528881166024830152604482018390526000919087169063494f683f906064016020604051808303816000875af1158015611020573d6000803e3d6000fd5b505050506040513d601f19601f820116820180604052508101906110449190611421565b9050808361105360018561160e565b8151811061106357611063611621565b60200260200101906001600160a01b031690816001600160a01b031681525050505b8061108f8161146b565b915050610f42565b50604051631967843960e21b81526001600160a01b0387169063659e10e4906110c4908490600401611637565b6020604051808303816000875af11580156110e3573d6000803e3d6000fd5b505050506040513d601f19601f8201168201806040525081019061110791906113a7565b979650505050505050565b6105c58061168483390190565b61043880611c4983390190565b6001600160a01b038116811461093457600080fd5b60006020828403121561115357600080fd5b813561115e8161112c565b9392505050565b60006020828403121561117757600080fd5b5035919050565b6000806040838503121561119157600080fd5b823561119c8161112c565b915060208301356111ac8161112c565b809150509250929050565b60008083601f8401126111c957600080fd5b50813567ffffffffffffffff8111156111e157600080fd5b6020830191508360208285010111156111f957600080fd5b9250929050565b801515811461093457600080fd5b60008060008060006060868803121561122657600080fd5b853567ffffffffffffffff81111561123d57600080fd5b611249888289016111b7565b909650945050602086013567ffffffffffffffff81111561126957600080fd5b611275888289016111b7565b909450925050604086013561128981611200565b809150509295509295909350565b634e487b7160e01b600052604160045260246000fd5b600080604083850312156112c057600080fd5b82359150602083013567ffffffffffffffff8111156112de57600080fd5b8301601f810185136112ef57600080fd5b803567ffffffffffffffff81111561130957611309611297565b604051601f8201601f19908116603f0116810167ffffffffffffffff8111828210171561133857611338611297565b60405281815282820160200187101561135057600080fd5b816020840160208301376000602083830101528093505050509250929050565b6020808252601a908201527f4572726f723a2052656769737465722f4f6e6c792d41646d696e000000000000604082015260600190565b6000602082840312156113b957600080fd5b815161115e81611200565b60018060a01b0383168152604060208201526000825180604084015260005b8181101561140057602081860181015160608684010152016113e3565b506000606082850101526060601f19601f8301168401019150509392505050565b60006020828403121561143357600080fd5b815161115e8161112c565b634e487b7160e01b600052601160045260246000fd5b6000816114635761146361143e565b506000190190565b60006001820161147d5761147d61143e565b5060010190565b600181811c9082168061149857607f821691505b6020821081036114b857634e487b7160e01b600052602260045260246000fd5b50919050565b601f82111561150857806000526020600020601f840160051c810160208510156114e55750805b601f840160051c820191505b8181101561150557600081556001016114f1565b50505b505050565b815167ffffffffffffffff81111561152757611527611297565b61153b816115358454611484565b846114be565b6020601f82116001811461156f57600083156115575750848201515b600019600385901b1c1916600184901b178455611505565b600084815260208120601f198516915b8281101561159f578785015182556020948501946001909201910161157f565b50848210156115bd5786840151600019600387901b60f8161c191681555b50505050600190811b01905550565b808201808211156103285761032861143e565b600080604083850312156115f257600080fd5b82516115fd8161112c565b60208401519092506111ac81611200565b818103818111156103285761032861143e565b634e487b7160e01b600052603260045260246000fd5b602080825282518282018190526000918401906040840190835b818110156116785783516001600160a01b0316835260209384019390920191600101611651565b50909594505050505056fe60a06040526040516105c53803806105c583398101604081905261002291610387565b61002c828261003e565b506001600160a01b0316608052610484565b610047826100fe565b6040516001600160a01b038316907f1cf3b03a6cf19fa2baba4df148e9dcabedea7f8a5c07840e207e5c089be95d3e90600090a28051156100f2576100ed826001600160a01b0316635c60da1b6040518163ffffffff1660e01b8152600401602060405180830381865afa1580156100c3573d6000803e3d6000fd5b505050506040513d601f19601f820116820180604052508101906100e7919061044d565b82610211565b505050565b6100fa610288565b5050565b806001600160a01b03163b60000361013957604051631933b43b60e21b81526001600160a01b03821660048201526024015b60405180910390fd5b807fa3f0ad74e5423aebfd80d3ef4346578335a9a72aeaee59ff6cb3582b35133d5080546001600160a01b0319166001600160a01b0392831617905560408051635c60da1b60e01b81529051600092841691635c60da1b9160048083019260209291908290030181865afa1580156101b5573d6000803e3d6000fd5b505050506040513d601f19601f820116820180604052508101906101d9919061044d565b9050806001600160a01b03163b6000036100fa57604051634c9c8ce360e01b81526001600160a01b0382166004820152602401610130565b6060600080846001600160a01b03168460405161022e9190610468565b600060405180830381855af49150503d8060008114610269576040519150601f19603f3d011682016040523d82523d6000602084013e61026e565b606091505b50909250905061027f8583836102a9565b95945050505050565b34156102a75760405163b398979f60e01b815260040160405180910390fd5b565b6060826102be576102b982610308565b610301565b81511580156102d557506001600160a01b0384163b155b156102fe57604051639996b31560e01b81526001600160a01b0385166004820152602401610130565b50805b9392505050565b8051156103185780518082602001fd5b60405163d6bda27560e01b815260040160405180910390fd5b80516001600160a01b038116811461034857600080fd5b919050565b634e487b7160e01b600052604160045260246000fd5b60005b8381101561037e578181015183820152602001610366565b50506000910152565b6000806040838503121561039a57600080fd5b6103a383610331565b60208401519092506001600160401b038111156103bf57600080fd5b8301601f810185136103d057600080fd5b80516001600160401b038111156103e9576103e961034d565b604051601f8201601f19908116603f011681016001600160401b03811182821017156104175761041761034d565b60405281815282820160200187101561042f57600080fd5b610440826020830160208601610363565b8093505050509250929050565b60006020828403121561045f57600080fd5b61030182610331565b6000825161047a818460208701610363565b9190910192915050565b60805161012761049e6000396000601e01526101276000f3fe6080604052600a600c565b005b60186014601a565b60a0565b565b60007f00000000000000000000000000000000000000000000000000000000000000006001600160a01b0316635c60da1b6040518163ffffffff1660e01b8152600401602060405180830381865afa1580156079573d6000803e3d6000fd5b505050506040513d601f19601f82011682018060405250810190609b919060c3565b905090565b3660008037600080366000845af43d6000803e80801560be573d6000f35b3d6000fd5b60006020828403121560d457600080fd5b81516001600160a01b038116811460ea57600080fd5b939250505056fea26469706673582212200c24b3d42b010336a9ab011d6a199e2c5cc186c11b02c7de926afdf0b5f30aa664736f6c634300081b0033608060405234801561001057600080fd5b5060405161043838038061043883398101604081905261002f91610165565b806001600160a01b03811661005f57604051631e4fbdf760e01b8152600060048201526024015b60405180910390fd5b61006881610079565b50610072826100c9565b5050610198565b600080546001600160a01b038381166001600160a01b0319831681178455604051919092169283917f8be0079c531659141344cd1fd0a4f28419497f9722a3daafe3b4186f6b6457e09190a35050565b806001600160a01b03163b6000036100ff5760405163211eb15960e21b81526001600160a01b0382166004820152602401610056565b600180546001600160a01b0319166001600160a01b0383169081179091556040517fbc7cd75a20ee27fd9adebab32041f755214dbc6bffa90cc0225b39da2e5c2d3b90600090a250565b80516001600160a01b038116811461016057600080fd5b919050565b6000806040838503121561017857600080fd5b61018183610149565b915061018f60208401610149565b90509250929050565b610291806101a76000396000f3fe608060405234801561001057600080fd5b50600436106100575760003560e01c80633659cfe61461005c5780635c60da1b14610071578063715018a61461009a5780638da5cb5b146100a2578063f2fde38b146100b3575b600080fd5b61006f61006a36600461022b565b6100c6565b005b6001546001600160a01b03165b6040516001600160a01b03909116815260200160405180910390f35b61006f6100da565b6000546001600160a01b031661007e565b61006f6100c136600461022b565b6100ee565b6100ce61012e565b6100d78161015b565b50565b6100e261012e565b6100ec60006101db565b565b6100f661012e565b6001600160a01b03811661012557604051631e4fbdf760e01b8152600060048201526024015b60405180910390fd5b6100d7816101db565b6000546001600160a01b031633146100ec5760405163118cdaa760e01b815233600482015260240161011c565b806001600160a01b03163b6000036101915760405163211eb15960e21b81526001600160a01b038216600482015260240161011c565b600180546001600160a01b0319166001600160a01b0383169081179091556040517fbc7cd75a20ee27fd9adebab32041f755214dbc6bffa90cc0225b39da2e5c2d3b90600090a250565b600080546001600160a01b038381166001600160a01b0319831681178455604051919092169283917f8be0079c531659141344cd1fd0a4f28419497f9722a3daafe3b4186f6b6457e09190a35050565b60006020828403121561023d57600080fd5b81356001600160a01b038116811461025457600080fd5b939250505056fea264697066735822122022a0bee35cf4e4aa481d1e5a9015de955b23dbc541ff67102ab53884f81696fa64736f6c634300081b0033a264697066735822122022eefd40b48c33d5f740606ae44d49765ddc66c6cb6ebca5f7092a10b635170c64736f6c634300081b0033","linkReferences":{}},"methodIdentifiers":{"addAdmin(address)":"70480275","beacon()":"59659e90","createBorderlessCompany(bytes,bytes,bool)":"781e7278","createProxy(uint256,bytes)":"827cf27f","getBeacon()":"2d6b3a6b","getImplementation()":"aaf10f42","getProxyAddress(uint256)":"384ba7f2","initialize(address,address)":"485cc955","isAdmin(address)":"24d7806c","owner()":"8da5cb5b","removeAdmin(address)":"1785f53c","renounceOwnership()":"715018a6","setFactoryPool(address)":"9f80d154","transferOwnership(address)":"f2fde38b"},"storageLayout":{"storage":[{"astId":4774,"contract":"contracts/Register/RegisterBorderlessCompany.sol:RegisterBorderlessCompany","label":"beacon","offset":0,"slot":"0","type":"t_contract(UpgradeableBeacon)47433"},{"astId":4778,"contract":"contracts/Register/RegisterBorderlessCompany.sol:RegisterBorderlessCompany","label":"proxies","offset":0,"slot":"1","type":"t_mapping(t_uint256,t_address)"},{"astId":1881,"contract":"contracts/Register/RegisterBorderlessCompany.sol:RegisterBorderlessCompany","label":"_reserve","offset":0,"slot":"2","type":"t_contract(IReserve)3436"},{"astId":1884,"contract":"contracts/Register/RegisterBorderlessCompany.sol:RegisterBorderlessCompany","label":"_facotryPool","offset":0,"slot":"3","type":"t_contract(IFactoryPool)1710"},{"astId":1888,"contract":"contracts/Register/RegisterBorderlessCompany.sol:RegisterBorderlessCompany","label":"_admins","offset":0,"slot":"4","type":"t_mapping(t_address,t_bool)"},{"astId":1890,"contract":"contracts/Register/RegisterBorderlessCompany.sol:RegisterBorderlessCompany","label":"_adminCount","offset":0,"slot":"5","type":"t_uint256"},{"astId":1895,"contract":"contracts/Register/RegisterBorderlessCompany.sol:RegisterBorderlessCompany","label":"_companies","offset":0,"slot":"6","type":"t_mapping(t_uint256,t_struct(CompanyInfo)2613_storage)"},{"astId":1897,"contract":"contracts/Register/RegisterBorderlessCompany.sol:RegisterBorderlessCompany","label":"_lastIndex","offset":0,"slot":"7","type":"t_uint256"}],"types":{"t_address":{"encoding":"inplace","label":"address","numberOfBytes":"20"},"t_bool":{"encoding":"inplace","label":"bool","numberOfBytes":"1"},"t_bytes_storage":{"encoding":"bytes","label":"bytes","numberOfBytes":"32"},"t_contract(IFactoryPool)1710":{"encoding":"inplace","label":"contract IFactoryPool","numberOfBytes":"20"},"t_contract(IReserve)3436":{"encoding":"inplace","label":"contract IReserve","numberOfBytes":"20"},"t_contract(UpgradeableBeacon)47433":{"encoding":"inplace","label":"contract UpgradeableBeacon","numberOfBytes":"20"},"t_mapping(t_address,t_bool)":{"encoding":"mapping","key":"t_address","label":"mapping(address => bool)","numberOfBytes":"32","value":"t_bool"},"t_mapping(t_uint256,t_address)":{"encoding":"mapping","key":"t_uint256","label":"mapping(uint256 => address)","numberOfBytes":"32","value":"t_address"},"t_mapping(t_uint256,t_struct(CompanyInfo)2613_storage)":{"encoding":"mapping","key":"t_uint256","label":"mapping(uint256 => struct IRegisterBorderlessCompany.CompanyInfo)","numberOfBytes":"32","value":"t_struct(CompanyInfo)2613_storage"},"t_struct(CompanyInfo)2613_storage":{"encoding":"inplace","label":"struct IRegisterBorderlessCompany.CompanyInfo","numberOfBytes":"224","members":[{"astId":2600,"contract":"contracts/Register/RegisterBorderlessCompany.sol:RegisterBorderlessCompany","label":"companyAddress","offset":0,"slot":"0","type":"t_address"},{"astId":2602,"contract":"contracts/Register/RegisterBorderlessCompany.sol:RegisterBorderlessCompany","label":"founder","offset":0,"slot":"1","type":"t_address"},{"astId":2604,"contract":"contracts/Register/RegisterBorderlessCompany.sol:RegisterBorderlessCompany","label":"companyID","offset":0,"slot":"2","type":"t_bytes_storage"},{"astId":2606,"contract":"contracts/Register/RegisterBorderlessCompany.sol:RegisterBorderlessCompany","label":"establishmentDate","offset":0,"slot":"3","type":"t_bytes_storage"},{"astId":2608,"contract":"contracts/Register/RegisterBorderlessCompany.sol:RegisterBorderlessCompany","label":"confirmed","offset":0,"slot":"4","type":"t_bool"},{"astId":2610,"contract":"contracts/Register/RegisterBorderlessCompany.sol:RegisterBorderlessCompany","label":"createAt","offset":0,"slot":"5","type":"t_uint256"},{"astId":2612,"contract":"contracts/Register/RegisterBorderlessCompany.sol:RegisterBorderlessCompany","label":"updateAt","offset":0,"slot":"6","type":"t_uint256"}]},"t_uint256":{"encoding":"inplace","label":"uint256","numberOfBytes":"32"}}},"id":14}