{"abi":[{"type":"constructor","inputs":[{"name":"admin_","type":"address","internalType":"address"},{"name":"company_","type":"address","internalType":"address"}],"stateMutability":"nonpayable"},{"type":"function","name":"callAdmin","inputs":[],"outputs":[{"name":"called_","type":"bool","internalType":"bool"}],"stateMutability":"view"}],"bytecode":{"object":"0x6080604052348015600f57600080fd5b506040516101c93803806101c9833981016040819052602c916077565b600080546001600160a01b039384166001600160a01b0319918216179091556001805492909316911617905560a5565b80516001600160a01b0381168114607257600080fd5b919050565b60008060408385031215608957600080fd5b609083605c565b9150609c60208401605c565b90509250929050565b610115806100b46000396000f3fe6080604052348015600f57600080fd5b506004361060285760003560e01c80636b642e4314602d575b600080fd5b60336047565b604051901515815260200160405180910390f35b6000604f60b0565b60aa5760405162461bcd60e51b815260206004820152602360248201527f4572726f723a2053616d706c65536572766963652f496e76616c69642d43616c6044820152623632b960e91b606482015260840160405180910390fd5b50600190565b600080546001600160a01b03163314801560d457506001546001600160a01b031633145b1560dc575060015b9056fea2646970667358221220dbcb29b6ac95b5a850503af8f0cb31760ffd67220b85dfff63172eca00b28d1d64736f6c634300081b0033","linkReferences":{}},"methodIdentifiers":{"callAdmin()":"6b642e43"},"storageLayout":{"storage":[{"astId":1788,"contract":"contracts/Mock/SampleService.sol:SampleService","label":"_admin","offset":0,"slot":"0","type":"t_address"},{"astId":1790,"contract":"contracts/Mock/SampleService.sol:SampleService","label":"_company","offset":0,"slot":"1","type":"t_address"}],"types":{"t_address":{"encoding":"inplace","label":"address","numberOfBytes":"20"}}},"id":13}