{"abi":[{"type":"constructor","inputs":[],"stateMutability":"nonpayable"},{"type":"function","name":"activateStandard721Token","inputs":[{"name":"name_","type":"string","internalType":"string"},{"name":"symbol_","type":"string","internalType":"string"},{"name":"baseURI_","type":"string","internalType":"string"},{"name":"sbt_","type":"bool","internalType":"bool"}],"outputs":[{"name":"success_","type":"bool","internalType":"bool"}],"stateMutability":"nonpayable"},{"type":"function","name":"getInfoStandard721token","inputs":[{"name":"index_","type":"uint256","internalType":"uint256"}],"outputs":[{"name":"token_","type":"address","internalType":"address"},{"name":"name_","type":"string","internalType":"string"},{"name":"symbol_","type":"string","internalType":"string"},{"name":"sbt_","type":"bool","internalType":"bool"}],"stateMutability":"view"},{"type":"function","name":"getLastIndexStandard721Token","inputs":[],"outputs":[{"name":"index_","type":"uint256","internalType":"uint256"}],"stateMutability":"view"},{"type":"function","name":"initialize","inputs":[{"name":"admin_","type":"address","internalType":"address"},{"name":"company_","type":"address","internalType":"address"}],"outputs":[],"stateMutability":"nonpayable"},{"type":"event","name":"Initialized","inputs":[{"name":"version","type":"uint64","indexed":false,"internalType":"uint64"}],"anonymous":false},{"type":"event","name":"NewNonFungibleToken721","inputs":[{"name":"token_","type":"address","indexed":true,"internalType":"address"},{"name":"symbol_","type":"string","indexed":true,"internalType":"string"},{"name":"name_","type":"string","indexed":true,"internalType":"string"},{"name":"sbt_","type":"bool","indexed":false,"internalType":"bool"}],"anonymous":false},{"type":"error","name":"InvalidIndex","inputs":[{"name":"index_","type":"uint256","internalType":"uint256"}]},{"type":"error","name":"InvalidInitialization","inputs":[]},{"type":"error","name":"InvalidParam","inputs":[{"name":"account","type":"address","internalType":"address"},{"name":"name_","type":"string","internalType":"string"},{"name":"symbol_","type":"string","internalType":"string"},{"name":"baseURI_","type":"string","internalType":"string"}]},{"type":"error","name":"NotInitializing","inputs":[]}],"bytecode":{"object":"0x6080604052348015600f57600080fd5b506016601a565b60ca565b7ff0c57e16840df040f15088dc2f81fe391c3923bec73e23a9662efc9c229c6a00805468010000000000000000900460ff161560695760405163f92ee8a960e01b815260040160405180910390fd5b80546001600160401b039081161460c75780546001600160401b0319166001600160401b0390811782556040519081527fc7f505b2f371ae2175ee4913f4499e1f2633a7b5936321eed1cdaeb6115181d29060200160405180910390a15b50565b612ab3806100d96000396000f3fe608060405234801561001057600080fd5b506004361061004c5760003560e01c806307d2a255146100515780633e0747d41461007d578063485cc955146100a05780636377b771146100b5575b600080fd5b61006461005f366004610686565b6100c6565b60405161007494939291906106ef565b60405180910390f35b61009061008b3660046107de565b6102cc565b6040519015158152602001610074565b6100b36100ae3660046108a6565b61036f565b005b600254604051908152602001610074565b6000606080600061010a6040518060a0016040528060006001600160a01b031681526020016060815260200160608152602001600081526020016000151581525090565b851580610118575060025486115b1561013e5760405163042a2e7160e11b8152600481018790526024015b60405180910390fd5b600086815260036020908152604091829020825160a0810190935280546001600160a01b03168352600181018054919284019161017a906108d9565b80601f01602080910402602001604051908101604052809291908181526020018280546101a6906108d9565b80156101f35780601f106101c8576101008083540402835291602001916101f3565b820191906000526020600020905b8154815290600101906020018083116101d657829003601f168201915b5050505050815260200160028201805461020c906108d9565b80601f0160208091040260200160405190810160405280929190818152602001828054610238906108d9565b80156102855780601f1061025a57610100808354040283529160200191610285565b820191906000526020600020905b81548152906001019060200180831161026857829003601f168201915b5050509183525050600382015460208083019190915260049092015460ff161515604091820152825191830151908301516080909301519199909850919650945092505050565b600080546001600160a01b031633146103275760405162461bcd60e51b815260206004820152601e60248201527f4572726f723a20546f6b656e536572766963652f4f6e6c792d4f776e657200006044820152606401610135565b8451158061033457508351155b1561035a5733858585604051631fa85e4560e11b81526004016101359493929190610913565b610366858585856104a7565b95945050505050565b7ff0c57e16840df040f15088dc2f81fe391c3923bec73e23a9662efc9c229c6a008054600160401b810460ff16159067ffffffffffffffff166000811580156103b55750825b905060008267ffffffffffffffff1660011480156103d25750303b155b9050811580156103e0575080155b156103fe5760405163f92ee8a960e01b815260040160405180910390fd5b845467ffffffffffffffff19166001178555831561042857845460ff60401b1916600160401b1785555b600080546001600160a01b03808a166001600160a01b0319928316179092556001805492891692909116919091179055831561049e57845460ff60401b19168555604051600181527fc7f505b2f371ae2175ee4913f4499e1f2633a7b5936321eed1cdaeb6115181d29060200160405180910390a15b50505050505050565b6000806040516104b690610679565b604051809103906000f0801580156104d2573d6000803e3d6000fd5b50600054604051639ae2869560e01b81529192506001600160a01b0380841692639ae286959261050e9216908a908a908a908a90600401610968565b600060405180830381600087803b15801561052857600080fd5b505af115801561053c573d6000803e3d6000fd5b505050508560405161054e91906109c7565b60405180910390208560405161056491906109c7565b6040518091039020826001600160a01b03167f516337d1ba8a825e92e6143a4c56e9f7f2318924cdef2f695a5fe2b2a6ab3b86866040516105a9911515815260200190565b60405180910390a4600280549060006105c1836109e3565b90915550506040805160a0810182526001600160a01b03838116825260208083018a81528385018a9052426060850152871515608085015260025460009081526003909252939020825181546001600160a01b0319169216919091178155915190919060018201906106339082610a59565b50604082015160028201906106489082610a59565b50606082015160038201556080909101516004909101805460ff191691151591909117905550600195945050505050565b611f6580610b1983390190565b60006020828403121561069857600080fd5b5035919050565b60005b838110156106ba5781810151838201526020016106a2565b50506000910152565b600081518084526106db81602086016020860161069f565b601f01601f19169290920160200192915050565b6001600160a01b0385168152608060208201819052600090610713908301866106c3565b828103604084015261072581866106c3565b915050821515606083015295945050505050565b634e487b7160e01b600052604160045260246000fd5b600082601f83011261076057600080fd5b813567ffffffffffffffff81111561077a5761077a610739565b604051601f8201601f19908116603f0116810167ffffffffffffffff811182821017156107a9576107a9610739565b6040528181528382016020018510156107c157600080fd5b816020850160208301376000918101602001919091529392505050565b600080600080608085870312156107f457600080fd5b843567ffffffffffffffff81111561080b57600080fd5b6108178782880161074f565b945050602085013567ffffffffffffffff81111561083457600080fd5b6108408782880161074f565b935050604085013567ffffffffffffffff81111561085d57600080fd5b6108698782880161074f565b9250506060850135801515811461087f57600080fd5b939692955090935050565b80356001600160a01b03811681146108a157600080fd5b919050565b600080604083850312156108b957600080fd5b6108c28361088a565b91506108d06020840161088a565b90509250929050565b600181811c908216806108ed57607f821691505b60208210810361090d57634e487b7160e01b600052602260045260246000fd5b50919050565b6001600160a01b0385168152608060208201819052600090610937908301866106c3565b828103604084015261094981866106c3565b9050828103606084015261095d81856106c3565b979650505050505050565b6001600160a01b038616815260a06020820181905260009061098c908301876106c3565b828103604084015261099e81876106c3565b905082810360608401526109b281866106c3565b91505082151560808301529695505050505050565b600082516109d981846020870161069f565b9190910192915050565b600060018201610a0357634e487b7160e01b600052601160045260246000fd5b5060010190565b601f821115610a5457806000526020600020601f840160051c81016020851015610a315750805b601f840160051c820191505b81811015610a515760008155600101610a3d565b50505b505050565b815167ffffffffffffffff811115610a7357610a73610739565b610a8781610a8184546108d9565b84610a0a565b6020601f821160018114610abb5760008315610aa35750848201515b600019600385901b1c1916600184901b178455610a51565b600084815260208120601f198516915b82811015610aeb5787850151825560209485019460019092019101610acb565b5084821015610b095786840151600019600387901b60f8161c191681555b50505050600190811b0190555056fe60c06040526005608090815264173539b7b760d91b60a05260049061002490826100d6565b5034801561003157600080fd5b50610194565b634e487b7160e01b600052604160045260246000fd5b600181811c9082168061006157607f821691505b60208210810361008157634e487b7160e01b600052602260045260246000fd5b50919050565b601f8211156100d157806000526020600020601f840160051c810160208510156100ae5750805b601f840160051c820191505b818110156100ce57600081556001016100ba565b50505b505050565b81516001600160401b038111156100ef576100ef610037565b610103816100fd845461004d565b84610087565b6020601f821160018114610137576000831561011f5750848201515b600019600385901b1c1916600184901b1784556100ce565b600084815260208120601f198516915b828110156101675787850151825560209485019460019092019101610147565b50848210156101855786840151600019600387901b60f8161c191681555b50505050600190811b01905550565b611dc2806101a36000396000f3fe608060405234801561001057600080fd5b50600436106101215760003560e01c80636a627842116100ad578063a22cb46511610071578063a22cb46514610243578063b88d4fde14610256578063bc406fc214610269578063c87b56dd1461027c578063e985e9c51461028f57600080fd5b80636a627842146101ec57806370a08231146101ff5780638388ed4b1461022057806395d89b41146102285780639ae286951461023057600080fd5b80631249c58b116100f45780631249c58b146101a357806323b872dd146101ab57806339a6f5a9146101be57806342842e0e146101c65780636352211e146101d957600080fd5b806301ffc9a71461012657806306fdde031461014e578063081812fc14610163578063095ea7b31461018e575b600080fd5b610139610134366004611691565b6102a2565b60405190151581526020015b60405180910390f35b6101566102f4565b60405161014591906116fe565b610176610171366004611711565b610398565b6040516001600160a01b039091168152602001610145565b6101a161019c366004611746565b6103ad565b005b6101a16103ef565b6101a16101b9366004611770565b610510565b6101396105b0565b6101a16101d4366004611770565b6106a9565b6101766101e7366004611711565b6106c9565b6101a16101fa3660046117ad565b6106d4565b61021261020d3660046117ad565b610779565b604051908152602001610145565b6101396107d5565b6101566108ca565b6101a161023e366004611888565b610909565b6101a161025136600461193e565b610a62565b6101a1610264366004611971565b610a9b565b6101a16102773660046119ed565b610ab9565b61015661028a366004611711565b610b71565b61013961029d366004611a0f565b610c19565b60006001600160e01b031982166380ac58cd60e01b14806102d357506001600160e01b03198216635b5e139f60e01b145b806102ee57506301ffc9a760e01b6001600160e01b03198316145b92915050565b600080516020611d6d833981519152805460609190819061031490611a39565b80601f016020809104026020016040519081016040528092919081815260200182805461034090611a39565b801561038d5780601f106103625761010080835404028352916020019161038d565b820191906000526020600020905b81548152906001019060200180831161037057829003601f168201915b505050505091505090565b60006103a382610c66565b506102ee82610c9e565b60055460ff16156103e1576005546040516387592af760e01b815260ff909116151560048201526024015b60405180910390fd5b6103eb8282610cd8565b5050565b6103f7610ce3565b6104595760405162461bcd60e51b815260206004820152602d60248201527f4572726f723a204e6f6e46756e6769626c65546f6b656e545950453732312f4960448201526c373b30b634b216a1b0b63632b960991b60648201526084016103d8565b3360009081526002602052604090205460ff161561049e573361047a6102f4565b6104826108ca565b6040516302bac1af60e11b81526004016103d893929190611a73565b6000806104b26104ad60015490565b610d0c565b91509150816104e857336104c46102f4565b6104cc6108ca565b60405163a1c916ab60e01b81526004016103d893929190611a73565b6104f23382610d53565b5050336000908152600260205260409020805460ff19166001179055565b60055460ff161561053f576005546040516387592af760e01b815260ff909116151560048201526024016103d8565b6001600160a01b03821660009081526002602052604090205460ff1615610569578161047a6102f4565b610574838383610db8565b506001600160a01b03918216600090815260026020526040808220805460ff199081169091559290931681529190912080549091166001179055565b600080546001600160a01b031633146105db5760405162461bcd60e51b81526004016103d890611ab3565b600554610100900460ff161561061357600554604051637cca123160e01b815261010090910460ff16151560048201526024016103d8565b6005805461ff00191661010017905561062a6108ca565b6040516106379190611afc565b60405180910390206106476102f4565b6040516106549190611afc565b604051908190038120600554610100900460ff1615158252907f2a47188b321cd86fc32137fa82bd6ca370347b9cce7bfa6d4ef4ed0928c6d0589060200160405180910390a350600554610100900460ff1690565b6106c483838360405180602001604052806000815250610a9b565b505050565b60006102ee82610c66565b6000546001600160a01b031633146106fe5760405162461bcd60e51b81526004016103d890611ab3565b6001600160a01b03811660009081526002602052604090205460ff1615610728578061047a6102f4565b6000806107376104ad60015490565b915091508161074957826104c46102f4565b6107538382610d53565b50506001600160a01b03166000908152600260205260409020805460ff19166001179055565b6000600080516020611d6d8339815191526001600160a01b0383166107b4576040516322718ad960e21b8152600060048201526024016103d8565b6001600160a01b039092166000908152600390920160205250604090205490565b600080546001600160a01b031633146108005760405162461bcd60e51b81526004016103d890611ab3565b600554610100900460ff1661083757600554604051630b38ee0b60e01b815261010090910460ff16151560048201526024016103d8565b6005805461ff001916905561084a6108ca565b6040516108579190611afc565b60405180910390206108676102f4565b6040516108749190611afc565b604051908190038120600554610100900460ff1615158252907f36dfcd98f105d9183043c69191703b2786aa145390594d9a90610be31cb3fcfb9060200160405180910390a350600554610100900460ff161590565b7f80bb2b638cc20bc4d0a60d66940f3ab4a00c1d7b313497ca82fb0b4ab00793018054606091600080516020611d6d8339815191529161031490611a39565b7ff0c57e16840df040f15088dc2f81fe391c3923bec73e23a9662efc9c229c6a008054600160401b810460ff16159067ffffffffffffffff1660008115801561094f5750825b905060008267ffffffffffffffff16600114801561096c5750303b155b90508115801561097a575080155b156109985760405163f92ee8a960e01b815260040160405180910390fd5b845467ffffffffffffffff1916600117855583156109c257845460ff60401b1916600160401b1785555b6109cc8989610e3d565b85156109e0576005805460ff191660011790555b8651156109f55760036109f38882611b5f565b505b600080546001600160a01b0319166001600160a01b038c161790558315610a5657845460ff60401b19168555604051600181527fc7f505b2f371ae2175ee4913f4499e1f2633a7b5936321eed1cdaeb6115181d29060200160405180910390a15b50505050505050505050565b60055460ff1615610a91576005546040516387592af760e01b815260ff909116151560048201526024016103d8565b6103eb8282610e4f565b610aa6848484610510565b610ab33385858585610e5a565b50505050565b6000546001600160a01b03163314610ae35760405162461bcd60e51b81526004016103d890611ab3565b42811015610b0e576040516321ccfeb760e01b815260048101839052602481018290526044016103d8565b80821115610b39576040516321ccfeb760e01b815260048101839052602481018290526044016103d8565b604051819083907fa4c7b1d3f5be7215e99df7649b301e88de995e8af28c29daab5c6c227d8ce8e290600090a3600691909155600755565b606033610b7d836106c9565b6001600160a01b031614610be75760405162461bcd60e51b815260206004820152602b60248201527f4572726f723a204e6f6e46756e6769626c65546f6b656e3732312f4f6e6c792d60448201526a2a37b5b2b72437b63232b960a91b60648201526084016103d8565b610bf082610f85565b6004604051602001610c03929190611c1e565b6040516020818303038152906040529050919050565b6001600160a01b0391821660009081527f80bb2b638cc20bc4d0a60d66940f3ab4a00c1d7b313497ca82fb0b4ab00793056020908152604080832093909416825291909152205460ff1690565b600080610c7283610fed565b90506001600160a01b0381166102ee57604051637e27328960e01b8152600481018490526024016103d8565b60009081527f80bb2b638cc20bc4d0a60d66940f3ab4a00c1d7b313497ca82fb0b4ab007930460205260409020546001600160a01b031690565b6103eb828233611027565b600080546001600160a01b0316331480610d005750610d00611034565b15610d09575060015b90565b600180546000918291849183610d2183611cc1565b91905055506000610d3160015490565b905080610d3f836001611cda565b03610d4c57600193509150815b5050915091565b6001600160a01b038216610d7d57604051633250574960e11b8152600060048201526024016103d8565b6000610d8b83836000611064565b90506001600160a01b038116156106c4576040516339e3563760e11b8152600060048201526024016103d8565b6001600160a01b038216610de257604051633250574960e11b8152600060048201526024016103d8565b6000610def838333611064565b9050836001600160a01b0316816001600160a01b031614610ab3576040516364283d7b60e01b81526001600160a01b03808616600483015260248201849052821660448201526064016103d8565b610e4561116e565b6103eb82826111b9565b6103eb3383836111ea565b6001600160a01b0383163b15610f7e57604051630a85bd0160e11b81526001600160a01b0384169063150b7a0290610e9c908890889087908790600401611ced565b6020604051808303816000875af1925050508015610ed7575060408051601f3d908101601f19168201909252610ed491810190611d20565b60015b610f40573d808015610f05576040519150601f19603f3d011682016040523d82523d6000602084013e610f0a565b606091505b508051600003610f3857604051633250574960e11b81526001600160a01b03851660048201526024016103d8565b805181602001fd5b6001600160e01b03198116630a85bd0160e11b14610f7c57604051633250574960e11b81526001600160a01b03851660048201526024016103d8565b505b5050505050565b6060610f9082610c66565b506000610f9b61129b565b90506000815111610fbb5760405180602001604052806000815250610fe6565b80610fc58461132d565b604051602001610fd6929190611d3d565b6040516020818303038152906040525b9392505050565b60009081527f80bb2b638cc20bc4d0a60d66940f3ab4a00c1d7b313497ca82fb0b4ab007930260205260409020546001600160a01b031690565b6106c483838360016113c0565b600554600090610100900460ff1680610d0057504260065411158015610d0057504260075410610d095750600190565b6000600080516020611d6d8339815191528161107f85610fed565b90506001600160a01b0384161561109b5761109b8185876114d6565b6001600160a01b038116156110db576110b86000866000806113c0565b6001600160a01b0381166000908152600383016020526040902080546000190190555b6001600160a01b0386161561110c576001600160a01b03861660009081526003830160205260409020805460010190555b600085815260028301602052604080822080546001600160a01b0319166001600160a01b038a811691821790925591518893918516917fddf252ad1be2c89b69c2b068fc378daa952ba7f163c4a11628f55a4df523b3ef91a495945050505050565b7ff0c57e16840df040f15088dc2f81fe391c3923bec73e23a9662efc9c229c6a0054600160401b900460ff166111b757604051631afcd79f60e31b815260040160405180910390fd5b565b6111c161116e565b600080516020611d6d833981519152806111db8482611b5f565b5060018101610ab38382611b5f565b600080516020611d6d8339815191526001600160a01b03831661122b57604051630b61174360e31b81526001600160a01b03841660048201526024016103d8565b6001600160a01b038481166000818152600584016020908152604080832094881680845294825291829020805460ff191687151590811790915591519182527f17307eab39ab6107e8899845ad3d59bd9653f200f220920489ca2b5937696c31910160405180910390a350505050565b6060600380546112aa90611a39565b80601f01602080910402602001604051908101604052809291908181526020018280546112d690611a39565b80156113235780601f106112f857610100808354040283529160200191611323565b820191906000526020600020905b81548152906001019060200180831161130657829003601f168201915b5050505050905090565b6060600061133a8361153a565b600101905060008167ffffffffffffffff81111561135a5761135a6117c8565b6040519080825280601f01601f191660200182016040528015611384576020820181803683370190505b5090508181016020015b600019016f181899199a1a9b1b9c1cb0b131b232b360811b600a86061a8153600a850494508461138e57509392505050565b600080516020611d6d83398151915281806113e357506001600160a01b03831615155b156114a55760006113f385610c66565b90506001600160a01b0384161580159061141f5750836001600160a01b0316816001600160a01b031614155b801561143257506114308185610c19565b155b1561145b5760405163a9fbf51f60e01b81526001600160a01b03851660048201526024016103d8565b82156114a35784866001600160a01b0316826001600160a01b03167f8c5be1e5ebec7d5bd14f71427d1e84f3dd0314c0f7b2291e5b200ac8c7c3b92560405160405180910390a45b505b600093845260040160205250506040902080546001600160a01b0319166001600160a01b0392909216919091179055565b6114e1838383611612565b6106c4576001600160a01b03831661150f57604051637e27328960e01b8152600481018290526024016103d8565b60405163177e802f60e01b81526001600160a01b0383166004820152602481018290526044016103d8565b60008072184f03e93ff9f4daa797ed6e38ed64bf6a1f0160401b83106115795772184f03e93ff9f4daa797ed6e38ed64bf6a1f0160401b830492506040015b6d04ee2d6d415b85acef810000000083106115a5576d04ee2d6d415b85acef8100000000830492506020015b662386f26fc1000083106115c357662386f26fc10000830492506010015b6305f5e10083106115db576305f5e100830492506008015b61271083106115ef57612710830492506004015b60648310611601576064830492506002015b600a83106102ee5760010192915050565b60006001600160a01b038316158015906116705750826001600160a01b0316846001600160a01b0316148061164c575061164c8484610c19565b806116705750826001600160a01b031661166583610c9e565b6001600160a01b0316145b949350505050565b6001600160e01b03198116811461168e57600080fd5b50565b6000602082840312156116a357600080fd5b8135610fe681611678565b60005b838110156116c95781810151838201526020016116b1565b50506000910152565b600081518084526116ea8160208601602086016116ae565b601f01601f19169290920160200192915050565b602081526000610fe660208301846116d2565b60006020828403121561172357600080fd5b5035919050565b80356001600160a01b038116811461174157600080fd5b919050565b6000806040838503121561175957600080fd5b6117628361172a565b946020939093013593505050565b60008060006060848603121561178557600080fd5b61178e8461172a565b925061179c6020850161172a565b929592945050506040919091013590565b6000602082840312156117bf57600080fd5b610fe68261172a565b634e487b7160e01b600052604160045260246000fd5b60008067ffffffffffffffff8411156117f9576117f96117c8565b50604051601f19601f85018116603f0116810181811067ffffffffffffffff82111715611828576118286117c8565b60405283815290508082840185101561184057600080fd5b83836020830137600060208583010152509392505050565b600082601f83011261186957600080fd5b610fe6838335602085016117de565b8035801515811461174157600080fd5b600080600080600060a086880312156118a057600080fd5b6118a98661172a565b9450602086013567ffffffffffffffff8111156118c557600080fd5b6118d188828901611858565b945050604086013567ffffffffffffffff8111156118ee57600080fd5b6118fa88828901611858565b935050606086013567ffffffffffffffff81111561191757600080fd5b61192388828901611858565b92505061193260808701611878565b90509295509295909350565b6000806040838503121561195157600080fd5b61195a8361172a565b915061196860208401611878565b90509250929050565b6000806000806080858703121561198757600080fd5b6119908561172a565b935061199e6020860161172a565b925060408501359150606085013567ffffffffffffffff8111156119c157600080fd5b8501601f810187136119d257600080fd5b6119e1878235602084016117de565b91505092959194509250565b60008060408385031215611a0057600080fd5b50508035926020909101359150565b60008060408385031215611a2257600080fd5b611a2b8361172a565b91506119686020840161172a565b600181811c90821680611a4d57607f821691505b602082108103611a6d57634e487b7160e01b600052602260045260246000fd5b50919050565b6001600160a01b0384168152606060208201819052600090611a97908301856116d2565b8281036040840152611aa981856116d2565b9695505050505050565b60208082526029908201527f4572726f723a204e6f6e46756e6769626c65546f6b656e545950453732312f4f60408201526837363c96a0b236b4b760b91b606082015260800190565b60008251611b0e8184602087016116ae565b9190910192915050565b601f8211156106c457806000526020600020601f840160051c81016020851015611b3f5750805b601f840160051c820191505b81811015610f7e5760008155600101611b4b565b815167ffffffffffffffff811115611b7957611b796117c8565b611b8d81611b878454611a39565b84611b18565b6020601f821160018114611bc15760008315611ba95750848201515b600019600385901b1c1916600184901b178455610f7e565b600084815260208120601f198516915b82811015611bf15787850151825560209485019460019092019101611bd1565b5084821015611c0f5786840151600019600387901b60f8161c191681555b50505050600190811b01905550565b60008351611c308184602088016116ae565b808301905060008454611c4281611a39565b600182168015611c595760018114611c6e57611c9e565b60ff1983168552811515820285019350611c9e565b87600052602060002060005b83811015611c9657815487820152600190910190602001611c7a565b505081850193505b5091979650505050505050565b634e487b7160e01b600052601160045260246000fd5b600060018201611cd357611cd3611cab565b5060010190565b808201808211156102ee576102ee611cab565b6001600160a01b0385811682528416602082015260408101839052608060608201819052600090611aa9908301846116d2565b600060208284031215611d3257600080fd5b8151610fe681611678565b60008351611d4f8184602088016116ae565b835190830190611d638183602088016116ae565b0194935050505056fe80bb2b638cc20bc4d0a60d66940f3ab4a00c1d7b313497ca82fb0b4ab0079300a26469706673582212206ed2a65f4ff5acd4aef2848be00a9fe2b56eb47ebd77c19a53cfe5b7eba0f95764736f6c634300081b0033a26469706673582212207ec1af264671084b7d9aed1be94261788ecda3c0df1bed80bc425d79919cf8fe64736f6c634300081b0033","linkReferences":{}},"methodIdentifiers":{"activateStandard721Token(string,string,string,bool)":"3e0747d4","getInfoStandard721token(uint256)":"07d2a255","getLastIndexStandard721Token()":"6377b771","initialize(address,address)":"485cc955"},"storageLayout":{"storage":[{"astId":3555,"contract":"contracts/Services/TokenService.sol:TokenService","label":"_admin","offset":0,"slot":"0","type":"t_address"},{"astId":3557,"contract":"contracts/Services/TokenService.sol:TokenService","label":"_company","offset":0,"slot":"1","type":"t_address"},{"astId":3559,"contract":"contracts/Services/TokenService.sol:TokenService","label":"_lastIndex721","offset":0,"slot":"2","type":"t_uint256"},{"astId":3564,"contract":"contracts/Services/TokenService.sol:TokenService","label":"_standard721tokens","offset":0,"slot":"3","type":"t_mapping(t_uint256,t_struct(TokenInfo)4524_storage)"}],"types":{"t_address":{"encoding":"inplace","label":"address","numberOfBytes":"20"},"t_bool":{"encoding":"inplace","label":"bool","numberOfBytes":"1"},"t_mapping(t_uint256,t_struct(TokenInfo)4524_storage)":{"encoding":"mapping","key":"t_uint256","label":"mapping(uint256 => struct ITokenService.TokenInfo)","numberOfBytes":"32","value":"t_struct(TokenInfo)4524_storage"},"t_string_storage":{"encoding":"bytes","label":"string","numberOfBytes":"32"},"t_struct(TokenInfo)4524_storage":{"encoding":"inplace","label":"struct ITokenService.TokenInfo","numberOfBytes":"160","members":[{"astId":4515,"contract":"contracts/Services/TokenService.sol:TokenService","label":"token_","offset":0,"slot":"0","type":"t_address"},{"astId":4517,"contract":"contracts/Services/TokenService.sol:TokenService","label":"name_","offset":0,"slot":"1","type":"t_string_storage"},{"astId":4519,"contract":"contracts/Services/TokenService.sol:TokenService","label":"symbol_","offset":0,"slot":"2","type":"t_string_storage"},{"astId":4521,"contract":"contracts/Services/TokenService.sol:TokenService","label":"createAt","offset":0,"slot":"3","type":"t_uint256"},{"astId":4523,"contract":"contracts/Services/TokenService.sol:TokenService","label":"sbt_","offset":0,"slot":"4","type":"t_bool"}]},"t_uint256":{"encoding":"inplace","label":"uint256","numberOfBytes":"32"}}},"id":23}