{"abi":[{"type":"function","name":"arithmeticError","inputs":[],"outputs":[{"name":"","type":"bytes","internalType":"bytes"}],"stateMutability":"view"},{"type":"function","name":"assertionError","inputs":[],"outputs":[{"name":"","type":"bytes","internalType":"bytes"}],"stateMutability":"view"},{"type":"function","name":"divisionError","inputs":[],"outputs":[{"name":"","type":"bytes","internalType":"bytes"}],"stateMutability":"view"},{"type":"function","name":"encodeStorageError","inputs":[],"outputs":[{"name":"","type":"bytes","internalType":"bytes"}],"stateMutability":"view"},{"type":"function","name":"enumConversionError","inputs":[],"outputs":[{"name":"","type":"bytes","internalType":"bytes"}],"stateMutability":"view"},{"type":"function","name":"indexOOBError","inputs":[],"outputs":[{"name":"","type":"bytes","internalType":"bytes"}],"stateMutability":"view"},{"type":"function","name":"memOverflowError","inputs":[],"outputs":[{"name":"","type":"bytes","internalType":"bytes"}],"stateMutability":"view"},{"type":"function","name":"popError","inputs":[],"outputs":[{"name":"","type":"bytes","internalType":"bytes"}],"stateMutability":"view"},{"type":"function","name":"zeroVarError","inputs":[],"outputs":[{"name":"","type":"bytes","internalType":"bytes"}],"stateMutability":"view"}],"bytecode":{"object":"0x61024f610039600b82828239805160001a607314602c57634e487b7160e01b600052600060045260246000fd5b30600052607381538281f3fe730000000000000000000000000000000000000000301460806040526004361061009d5760003560e01c8063986c5f6811610070578063986c5f68146100d8578063b22dc54d146100e0578063b67689da146100e8578063d160e4de146100f0578063fa784a44146100f857600080fd5b806305ee8612146100a257806310332977146100c05780631de45560146100c85780638995290f146100d0575b600080fd5b6100aa610100565b6040516100b791906101cb565b60405180910390f35b6100aa61013b565b6100aa61014d565b6100aa61015f565b6100aa610171565b6100aa610183565b6100aa610195565b6100aa6101a7565b6100aa6101b9565b604051603260248201526044015b60408051601f198184030181529190526020810180516001600160e01b0316634e487b7160e01b17905281565b6040516001602482015260440161010e565b6040516021602482015260440161010e565b6040516011602482015260440161010e565b6040516041602482015260440161010e565b6040516031602482015260440161010e565b6040516051602482015260440161010e565b6040516022602482015260440161010e565b6040516012602482015260440161010e565b602081526000825180602084015260005b818110156101f957602081860181015160408684010152016101dc565b506000604082850101526040601f19601f8301168401019150509291505056fea2646970667358221220d502a20c8c3719c8d812aa7b928f4919e1caeb75757ff679923e93a1fffbd1f964736f6c634300081b0033","linkReferences":{}},"methodIdentifiers":{"arithmeticError()":"8995290f","assertionError()":"10332977","divisionError()":"fa784a44","encodeStorageError()":"d160e4de","enumConversionError()":"1de45560","indexOOBError()":"05ee8612","memOverflowError()":"986c5f68","popError()":"b22dc54d","zeroVarError()":"b67689da"},"storageLayout":{"storage":[],"types":{}},"id":41}