{
  "_format": "hh-sol-artifact-1",
  "contractName": "SCRProxy",
  "sourceName": "contracts/core/Proxy/mock/SCRProxy.sol",
  "abi": [
    {
      "inputs": [
        {
          "internalType": "address",
          "name": "dictionary",
          "type": "address"
        },
        {
          "internalType": "bytes",
          "name": "_data",
          "type": "bytes"
        }
      ],
      "stateMutability": "nonpayable",
      "type": "constructor"
    },
    {
      "inputs": [],
      "name": "DEFAULT_ADMIN_ROLE",
      "outputs": [
        {
          "internalType": "bytes32",
          "name": "",
          "type": "bytes32"
        }
      ],
      "stateMutability": "view",
      "type": "function"
    },
    {
      "inputs": [],
      "name": "FOUNDER_ROLE",
      "outputs": [
        {
          "internalType": "bytes32",
          "name": "",
          "type": "bytes32"
        }
      ],
      "stateMutability": "view",
      "type": "function"
    },
    {
      "inputs": [
        {
          "internalType": "string",
          "name": "legalEntityCode",
          "type": "string"
        },
        {
          "internalType": "string",
          "name": "field",
          "type": "string"
        }
      ],
      "name": "addCompanyInfoFields",
      "outputs": [],
      "stateMutability": "nonpayable",
      "type": "function"
    },
    {
      "inputs": [
        {
          "internalType": "bytes4[]",
          "name": "selectors",
          "type": "bytes4[]"
        },
        {
          "internalType": "address",
          "name": "implementation",
          "type": "address"
        }
      ],
      "name": "bulkSetImplementation",
      "outputs": [],
      "stateMutability": "nonpayable",
      "type": "function"
    },
    {
      "inputs": [
        {
          "internalType": "address",
          "name": "beacon",
          "type": "address"
        },
        {
          "internalType": "bool",
          "name": "isOnline",
          "type": "bool"
        }
      ],
      "name": "changeSCRBeaconOnline",
      "outputs": [],
      "stateMutability": "nonpayable",
      "type": "function"
    },
    {
      "inputs": [
        {
          "internalType": "address",
          "name": "beacon",
          "type": "address"
        },
        {
          "internalType": "bool",
          "name": "isOnline",
          "type": "bool"
        }
      ],
      "name": "changeServiceFactoryBeaconOnline",
      "outputs": [],
      "stateMutability": "nonpayable",
      "type": "function"
    },
    {
      "inputs": [
        {
          "internalType": "string",
          "name": "scid",
          "type": "string"
        },
        {
          "internalType": "address",
          "name": "beacon",
          "type": "address"
        },
        {
          "internalType": "string",
          "name": "legalEntityCode",
          "type": "string"
        },
        {
          "internalType": "string",
          "name": "companyName",
          "type": "string"
        },
        {
          "internalType": "string",
          "name": "establishmentDate",
          "type": "string"
        },
        {
          "internalType": "string",
          "name": "jurisdiction",
          "type": "string"
        },
        {
          "internalType": "string",
          "name": "entityType",
          "type": "string"
        },
        {
          "internalType": "bytes",
          "name": "scDeployParam",
          "type": "bytes"
        },
        {
          "internalType": "string[]",
          "name": "companyInfo",
          "type": "string[]"
        },
        {
          "internalType": "address[]",
          "name": "scsBeaconProxy",
          "type": "address[]"
        },
        {
          "internalType": "bytes[]",
          "name": "scsDeployParams",
          "type": "bytes[]"
        }
      ],
      "name": "createSmartCompany",
      "outputs": [
        {
          "internalType": "address",
          "name": "company",
          "type": "address"
        },
        {
          "internalType": "address[]",
          "name": "services",
          "type": "address[]"
        },
        {
          "internalType": "enum ServiceType[]",
          "name": "serviceTypes",
          "type": "uint8[]"
        }
      ],
      "stateMutability": "nonpayable",
      "type": "function"
    },
    {
      "inputs": [
        {
          "internalType": "string",
          "name": "legalEntityCode",
          "type": "string"
        },
        {
          "internalType": "uint256",
          "name": "fieldIndex",
          "type": "uint256"
        }
      ],
      "name": "deleteCompanyInfoFields",
      "outputs": [],
      "stateMutability": "nonpayable",
      "type": "function"
    },
    {
      "inputs": [
        {
          "internalType": "string",
          "name": "scid",
          "type": "string"
        },
        {
          "internalType": "string",
          "name": "companyInfoField",
          "type": "string"
        }
      ],
      "name": "getCompanyField",
      "outputs": [
        {
          "internalType": "string",
          "name": "",
          "type": "string"
        }
      ],
      "stateMutability": "view",
      "type": "function"
    },
    {
      "inputs": [
        {
          "internalType": "string",
          "name": "scid",
          "type": "string"
        }
      ],
      "name": "getCompanyInfo",
      "outputs": [
        {
          "components": [
            {
              "internalType": "string",
              "name": "companyName",
              "type": "string"
            },
            {
              "internalType": "address",
              "name": "companyAddress",
              "type": "address"
            },
            {
              "internalType": "address",
              "name": "founder",
              "type": "address"
            },
            {
              "internalType": "string",
              "name": "establishmentDate",
              "type": "string"
            },
            {
              "internalType": "string",
              "name": "jurisdiction",
              "type": "string"
            },
            {
              "internalType": "string",
              "name": "entityType",
              "type": "string"
            },
            {
              "internalType": "uint256",
              "name": "createAt",
              "type": "uint256"
            },
            {
              "internalType": "uint256",
              "name": "updateAt",
              "type": "uint256"
            }
          ],
          "internalType": "struct ICompanyInfoStructs.CompanyInfo",
          "name": "",
          "type": "tuple"
        }
      ],
      "stateMutability": "view",
      "type": "function"
    },
    {
      "inputs": [
        {
          "internalType": "string",
          "name": "legalEntityCode",
          "type": "string"
        }
      ],
      "name": "getCompanyInfoFields",
      "outputs": [
        {
          "internalType": "string[]",
          "name": "",
          "type": "string[]"
        }
      ],
      "stateMutability": "view",
      "type": "function"
    },
    {
      "inputs": [],
      "name": "getFacade",
      "outputs": [
        {
          "internalType": "address",
          "name": "",
          "type": "address"
        }
      ],
      "stateMutability": "view",
      "type": "function"
    },
    {
      "inputs": [
        {
          "internalType": "address",
          "name": "founder",
          "type": "address"
        },
        {
          "internalType": "enum ServiceType",
          "name": "serviceType",
          "type": "uint8"
        }
      ],
      "name": "getFounderService",
      "outputs": [
        {
          "internalType": "address",
          "name": "",
          "type": "address"
        }
      ],
      "stateMutability": "view",
      "type": "function"
    },
    {
      "inputs": [
        {
          "internalType": "bytes4",
          "name": "selector",
          "type": "bytes4"
        }
      ],
      "name": "getImplementation",
      "outputs": [
        {
          "internalType": "address",
          "name": "",
          "type": "address"
        }
      ],
      "stateMutability": "view",
      "type": "function"
    },
    {
      "inputs": [
        {
          "internalType": "bytes32",
          "name": "role",
          "type": "bytes32"
        }
      ],
      "name": "getRoleAdmin",
      "outputs": [
        {
          "internalType": "bytes32",
          "name": "",
          "type": "bytes32"
        }
      ],
      "stateMutability": "view",
      "type": "function"
    },
    {
      "inputs": [
        {
          "internalType": "address",
          "name": "beacon",
          "type": "address"
        }
      ],
      "name": "getSCRBeacon",
      "outputs": [
        {
          "components": [
            {
              "internalType": "string",
              "name": "name",
              "type": "string"
            },
            {
              "internalType": "address",
              "name": "implementation",
              "type": "address"
            },
            {
              "internalType": "bool",
              "name": "isOnline",
              "type": "bool"
            },
            {
              "internalType": "uint256",
              "name": "proxyCount",
              "type": "uint256"
            }
          ],
          "internalType": "struct IBeaconUpgradeableBaseStructs.Beacon",
          "name": "",
          "type": "tuple"
        }
      ],
      "stateMutability": "view",
      "type": "function"
    },
    {
      "inputs": [
        {
          "internalType": "address",
          "name": "proxy",
          "type": "address"
        }
      ],
      "name": "getSCRProxy",
      "outputs": [
        {
          "components": [
            {
              "internalType": "string",
              "name": "name",
              "type": "string"
            },
            {
              "internalType": "address",
              "name": "beacon",
              "type": "address"
            }
          ],
          "internalType": "struct IBeaconUpgradeableBaseStructs.Proxy",
          "name": "",
          "type": "tuple"
        }
      ],
      "stateMutability": "view",
      "type": "function"
    },
    {
      "inputs": [
        {
          "internalType": "address",
          "name": "beacon",
          "type": "address"
        }
      ],
      "name": "getServiceFactoryBeacon",
      "outputs": [
        {
          "components": [
            {
              "internalType": "string",
              "name": "name",
              "type": "string"
            },
            {
              "internalType": "address",
              "name": "implementation",
              "type": "address"
            },
            {
              "internalType": "bool",
              "name": "isOnline",
              "type": "bool"
            },
            {
              "internalType": "uint256",
              "name": "proxyCount",
              "type": "uint256"
            }
          ],
          "internalType": "struct IBeaconUpgradeableBaseStructs.Beacon",
          "name": "",
          "type": "tuple"
        }
      ],
      "stateMutability": "view",
      "type": "function"
    },
    {
      "inputs": [
        {
          "internalType": "address",
          "name": "proxy",
          "type": "address"
        }
      ],
      "name": "getServiceFactoryProxy",
      "outputs": [
        {
          "components": [
            {
              "internalType": "string",
              "name": "name",
              "type": "string"
            },
            {
              "internalType": "address",
              "name": "beacon",
              "type": "address"
            }
          ],
          "internalType": "struct IBeaconUpgradeableBaseStructs.Proxy",
          "name": "",
          "type": "tuple"
        }
      ],
      "stateMutability": "view",
      "type": "function"
    },
    {
      "inputs": [
        {
          "internalType": "address",
          "name": "beacon",
          "type": "address"
        }
      ],
      "name": "getServiceType",
      "outputs": [
        {
          "internalType": "enum ServiceType",
          "name": "",
          "type": "uint8"
        }
      ],
      "stateMutability": "view",
      "type": "function"
    },
    {
      "inputs": [
        {
          "internalType": "address",
          "name": "founder",
          "type": "address"
        }
      ],
      "name": "getSmartCompany",
      "outputs": [
        {
          "internalType": "string",
          "name": "",
          "type": "string"
        }
      ],
      "stateMutability": "view",
      "type": "function"
    },
    {
      "inputs": [
        {
          "internalType": "bytes32",
          "name": "role",
          "type": "bytes32"
        },
        {
          "internalType": "address",
          "name": "account",
          "type": "address"
        }
      ],
      "name": "grantRole",
      "outputs": [],
      "stateMutability": "nonpayable",
      "type": "function"
    },
    {
      "inputs": [
        {
          "internalType": "bytes32",
          "name": "role",
          "type": "bytes32"
        },
        {
          "internalType": "address",
          "name": "account",
          "type": "address"
        }
      ],
      "name": "hasRole",
      "outputs": [
        {
          "internalType": "bool",
          "name": "",
          "type": "bool"
        }
      ],
      "stateMutability": "view",
      "type": "function"
    },
    {
      "inputs": [
        {
          "internalType": "address",
          "name": "dictionary",
          "type": "address"
        }
      ],
      "name": "initialize",
      "outputs": [],
      "stateMutability": "nonpayable",
      "type": "function"
    },
    {
      "inputs": [],
      "name": "owner",
      "outputs": [
        {
          "internalType": "address",
          "name": "",
          "type": "address"
        }
      ],
      "stateMutability": "view",
      "type": "function"
    },
    {
      "inputs": [],
      "name": "renounceOwnership",
      "outputs": [],
      "stateMutability": "nonpayable",
      "type": "function"
    },
    {
      "inputs": [
        {
          "internalType": "bytes32",
          "name": "role",
          "type": "bytes32"
        },
        {
          "internalType": "address",
          "name": "callerConfirmation",
          "type": "address"
        }
      ],
      "name": "renounceRole",
      "outputs": [],
      "stateMutability": "nonpayable",
      "type": "function"
    },
    {
      "inputs": [
        {
          "internalType": "bytes32",
          "name": "role",
          "type": "bytes32"
        },
        {
          "internalType": "address",
          "name": "account",
          "type": "address"
        }
      ],
      "name": "revokeRole",
      "outputs": [],
      "stateMutability": "nonpayable",
      "type": "function"
    },
    {
      "inputs": [
        {
          "internalType": "string",
          "name": "scid",
          "type": "string"
        },
        {
          "internalType": "string",
          "name": "companyInfoField",
          "type": "string"
        },
        {
          "internalType": "string",
          "name": "value",
          "type": "string"
        }
      ],
      "name": "setCompanyInfo",
      "outputs": [],
      "stateMutability": "nonpayable",
      "type": "function"
    },
    {
      "inputs": [
        {
          "internalType": "bytes4",
          "name": "selector",
          "type": "bytes4"
        },
        {
          "internalType": "address",
          "name": "implementation",
          "type": "address"
        }
      ],
      "name": "setImplementation",
      "outputs": [],
      "stateMutability": "nonpayable",
      "type": "function"
    },
    {
      "inputs": [
        {
          "internalType": "address",
          "name": "letsBeacon",
          "type": "address"
        },
        {
          "internalType": "address",
          "name": "letsSaleBeacon",
          "type": "address"
        }
      ],
      "name": "setLetsSaleBeacon",
      "outputs": [],
      "stateMutability": "nonpayable",
      "type": "function"
    },
    {
      "inputs": [
        {
          "internalType": "address",
          "name": "account",
          "type": "address"
        },
        {
          "internalType": "address",
          "name": "implementation",
          "type": "address"
        }
      ],
      "name": "setOnceInitialized",
      "outputs": [],
      "stateMutability": "nonpayable",
      "type": "function"
    },
    {
      "inputs": [
        {
          "internalType": "address",
          "name": "scImplementation",
          "type": "address"
        },
        {
          "internalType": "string",
          "name": "scName",
          "type": "string"
        }
      ],
      "name": "setSCContract",
      "outputs": [
        {
          "internalType": "address",
          "name": "",
          "type": "address"
        }
      ],
      "stateMutability": "nonpayable",
      "type": "function"
    },
    {
      "inputs": [
        {
          "internalType": "address",
          "name": "implementation",
          "type": "address"
        },
        {
          "internalType": "string",
          "name": "name",
          "type": "string"
        },
        {
          "internalType": "enum ServiceType",
          "name": "serviceType",
          "type": "uint8"
        }
      ],
      "name": "setService",
      "outputs": [
        {
          "internalType": "address",
          "name": "",
          "type": "address"
        }
      ],
      "stateMutability": "nonpayable",
      "type": "function"
    },
    {
      "inputs": [
        {
          "internalType": "bytes4",
          "name": "interfaceId",
          "type": "bytes4"
        }
      ],
      "name": "supportsInterface",
      "outputs": [
        {
          "internalType": "bool",
          "name": "",
          "type": "bool"
        }
      ],
      "stateMutability": "view",
      "type": "function"
    },
    {
      "inputs": [
        {
          "internalType": "address",
          "name": "newOwner",
          "type": "address"
        }
      ],
      "name": "transferOwnership",
      "outputs": [],
      "stateMutability": "nonpayable",
      "type": "function"
    },
    {
      "inputs": [
        {
          "internalType": "string",
          "name": "legalEntityCode",
          "type": "string"
        },
        {
          "internalType": "uint256",
          "name": "fieldIndex",
          "type": "uint256"
        },
        {
          "internalType": "string",
          "name": "field",
          "type": "string"
        }
      ],
      "name": "updateCompanyInfoFields",
      "outputs": [],
      "stateMutability": "nonpayable",
      "type": "function"
    },
    {
      "inputs": [
        {
          "internalType": "address",
          "name": "scBeacon",
          "type": "address"
        },
        {
          "internalType": "address",
          "name": "newSCImplementation",
          "type": "address"
        }
      ],
      "name": "updateSCContract",
      "outputs": [],
      "stateMutability": "nonpayable",
      "type": "function"
    },
    {
      "inputs": [
        {
          "internalType": "address",
          "name": "beacon",
          "type": "address"
        },
        {
          "internalType": "string",
          "name": "name",
          "type": "string"
        }
      ],
      "name": "updateSCRBeaconName",
      "outputs": [
        {
          "components": [
            {
              "internalType": "string",
              "name": "name",
              "type": "string"
            },
            {
              "internalType": "address",
              "name": "implementation",
              "type": "address"
            },
            {
              "internalType": "bool",
              "name": "isOnline",
              "type": "bool"
            },
            {
              "internalType": "uint256",
              "name": "proxyCount",
              "type": "uint256"
            }
          ],
          "internalType": "struct IBeaconUpgradeableBaseStructs.Beacon",
          "name": "",
          "type": "tuple"
        }
      ],
      "stateMutability": "nonpayable",
      "type": "function"
    },
    {
      "inputs": [
        {
          "internalType": "address",
          "name": "beacon",
          "type": "address"
        },
        {
          "internalType": "string",
          "name": "name",
          "type": "string"
        }
      ],
      "name": "updateServiceFactoryBeaconName",
      "outputs": [
        {
          "components": [
            {
              "internalType": "string",
              "name": "name",
              "type": "string"
            },
            {
              "internalType": "address",
              "name": "implementation",
              "type": "address"
            },
            {
              "internalType": "bool",
              "name": "isOnline",
              "type": "bool"
            },
            {
              "internalType": "uint256",
              "name": "proxyCount",
              "type": "uint256"
            }
          ],
          "internalType": "struct IBeaconUpgradeableBaseStructs.Beacon",
          "name": "",
          "type": "tuple"
        }
      ],
      "stateMutability": "nonpayable",
      "type": "function"
    },
    {
      "inputs": [
        {
          "internalType": "address",
          "name": "newFacade",
          "type": "address"
        }
      ],
      "name": "upgradeFacade",
      "outputs": [],
      "stateMutability": "nonpayable",
      "type": "function"
    }
  ],
  "bytecode": "0x6080604052346100c557610df180380380610019816100e0565b9283398101906040818303126100c55780516001600160a01b038116036100c5576020810151906001600160401b0382116100c557019080601f830112156100c5578151906001600160401b0382116100ca5761007f601f8301601f19166020016100e0565b90828252602083850101116100c55760005b8281106100b057600060208484010152604051610ceb90816101068239f35b80602080928601015182828501015201610091565b600080fd5b634e487b7160e01b600052604160045260246000fd5b6040519190601f01601f191682016001600160401b038111838210176100ca5760405256fe608080604052600436101561001357600080fd5b60003560e01c90816301ffc9a714610924575080630815f6fd146109025780630863633c146107df5780630e8ac815146107af5780630fb955331461031e57806323333f1b1461032357806323c45f67146106e6578063248a9ca3146106ca5780632f2ff15d1461031957806336568abe146103195780633879257a146104105780633a5b89f0146106795780633a60f2b214610466578063518fd6c114610415578063620ffe261461041057806363840149146103c857806363c26fdd146103e0578063651dc03d146101e7578063715018a6146103cd5780637621b79f1461032857806378af8785146103c857806385a59bef146103ac5780638da5cb5b1461031e57806391d1485414610393578063958962801461036d5780639d123f6b146101e25780639eb3e6fd1461033b578063a05aa4891461032d578063a0d208fc14610328578063a217fddf1461031e578063acc7a588146101e2578063b20ad26014610323578063c1e6f3041461031e578063c4d66de8146101e7578063d547741f14610319578063db0cf0ea14610300578063dc9cc645146102db578063e150812c14610288578063e54d64f9146101ec578063f2fde38b146101e75763f6d81789146101e257600080fd5b610c67565b610bc8565b34610283576020366003190112610283576004356001600160401b0381116102835761021c90369060040161098a565b50506040518060208101602082526060518091526040820160408260051b840101916080916000905b82821061025457505050500390f35b919360019193955060206102738192603f198a820301865288516109fd565b9601920192018594939192610245565b600080fd5b34610283576060366003190112610283576004356001600160401b038111610283576102b890369060040161098a565b50506044356001600160401b038111610283576102d990369060040161098a565b005b34610283576020366003190112610283576102f4610947565b50602060405160008152f35b34610283576020366003190112610283576102f4610974565b610aa9565b610a16565b610a32565b610be1565b34610283576102d936610c1b565b3461028357602036600319011261028357610354610974565b506040516020815280610369602082016109da565b0390f35b346102835761037b36610c1b565b505050506040516020815280610369602082016109da565b34610283576040366003190112610283576102f461095e565b34610283576103ba36610ac2565b505050602060405160008152f35b610ba3565b3461028357600036600319011261028357005b34610283576040366003190112610283576004356001600160401b038111610283576102d990369060040161098a565b610b4b565b34610283576060366003190112610283576004356001600160401b0381116102835761044590369060040161098a565b50506024356001600160401b038111610283576102b890369060040161098a565b3461028357610160366003190112610283576004356001600160401b0381116102835761049790369060040161098a565b50506104a161095e565b506044356001600160401b038111610283576104c190369060040161098a565b50506064356001600160401b038111610283576104e290369060040161098a565b50506084356001600160401b0381116102835761050390369060040161098a565b505060a4356001600160401b0381116102835761052490369060040161098a565b505060c4356001600160401b0381116102835761054590369060040161098a565b505060e4356001600160401b0381116102835761056690369060040161098a565b5050610104356001600160401b03811161028357610588903690600401610b73565b5050610124356001600160401b038111610283576105aa903690600401610b73565b5050610144356001600160401b038111610283576105cc903690600401610b73565b505060405160608101906000815260606020820152606051809252608081019160809060005b81811061065a5750505080820360408201526020606051928381520160806000935b8085106106215783830384f35b909182519060078210156106445760208160019382935201930194019390610614565b634e487b7160e01b600052602160045260246000fd5b82516001600160a01b03168552602094850194909201916001016105f2565b3461028357606036600319011261028357610692610974565b506024356001600160401b038111610283576106b290369060040161098a565b50506007604435101561028357602060405160008152f35b3461028357602036600319011261028357602060405160008152f35b34610283576040366003190112610283576004356001600160401b0381116102835736602382011215610283578060040135906001600160401b038211610799578160051b91604051601f19603f8501168101908082106001600160401b0383111761079957602492602092604052815201928201019036821161028357602401915b818310610778576102d961095e565b82356001600160e01b03198116810361028357815260209283019201610769565b634e487b7160e01b600052604160045260246000fd5b34610283576040366003190112610283576107c8610974565b506007602435101561028357602060405160008152f35b34610283576020366003190112610283576004356001600160401b0381116102835761080f90369060040161098a565b505060405161010081018181106001600160401b0382111761079957610100916020916040526060815281810190600082526108f06040820192600084526108dd6060840191606083526108ca60808601916060835260a08701946060865260c088019860008a5261089e60e08a019960008b526040519d8d8f9e928f938452519201526101208d01906109fd565b92516001600160a01b0390811660408d015290511660608b015251898203601f190160808b01526109fd565b9051878203601f190160a08901526109fd565b9051858203601f190160c08701526109fd565b915160e0840152516101008301520390f35b346102835760403660031901126102835761091b610947565b506102d961095e565b3461028357602036600319011261028357602090610940610947565b5060008152f35b600435906001600160e01b03198216820361028357565b602435906001600160a01b038216820361028357565b600435906001600160a01b038216820361028357565b9181601f84011215610283578235916001600160401b038311610283576020838186019501011161028357565b60005b8381106109ca5750506000910152565b81810151838201526020016109ba565b6020906060518082526109f18184840160806109b7565b601f01601f1916010190565b906020916109f1815180928185528580860191016109b7565b3461028357600036600319011261028357602060405160008152f35b3461028357602036600319011261028357610a4b610974565b5060405160408101908082106001600160401b0383111761079957610a959160405260608152602081016000815260405192839260208452516040602085015260608401906109fd565b90516001600160a01b031660408301520390f35b34610283576040366003190112610283576102d961095e565b906040600319830112610283576004356001600160a01b03811681036102835791602435906001600160401b03821161028357610b019160040161098a565b9091565b6020815260806060610b22845183602086015260a08501906109fd565b60208501516001600160a01b031660408581019190915285015115158285015293015191015290565b3461028357610b5936610ac2565b505050610369610b67610c80565b60405191829182610b05565b9181601f84011215610283578235916001600160401b038311610283576020808501948460051b01011161028357565b3461028357602036600319011261028357610bbc610974565b50610369610b67610c80565b34610283576020366003190112610283576102d9610974565b346102835760006040366003190112610c1857600435906001600160a01b0382168203610c18575050602435801515810361028357005b80fd5b6040600319820112610283576004356001600160401b0381116102835781610c459160040161098a565b92909291602435906001600160401b03821161028357610b019160040161098a565b346102835760403660031901126102835761091b610974565b60405190608082018281106001600160401b03821117610799576040526000606083818152826020820152826040820152015256fea26469706673582212202dc69ca31da46f9c568856eebbdae6ca3847f29ec1051646495a88e679cdcc5c64736f6c634300081c0033",
  "linkReferences": {},
  "deployedLinkReferences": {}
}