{
  "_format": "hh-sol-artifact-1",
  "contractName": "LETS_JP_LLC_SALE",
  "sourceName": "contracts/sc/Services/LETS/functions/extentions/LETS_JP_LLC/LETS_JP_LLC_SALE.sol",
  "abi": [
    {
      "inputs": [],
      "name": "AlreadyInitialized",
      "type": "error"
    },
    {
      "inputs": [
        {
          "internalType": "address",
          "name": "caller",
          "type": "address"
        }
      ],
      "name": "AlreadyPurchased",
      "type": "error"
    },
    {
      "inputs": [
        {
          "internalType": "address",
          "name": "operator",
          "type": "address"
        },
        {
          "internalType": "uint256",
          "name": "tokenId",
          "type": "uint256"
        }
      ],
      "name": "ERC721InsufficientApproval",
      "type": "error"
    },
    {
      "inputs": [
        {
          "internalType": "address",
          "name": "approver",
          "type": "address"
        }
      ],
      "name": "ERC721InvalidApprover",
      "type": "error"
    },
    {
      "inputs": [
        {
          "internalType": "address",
          "name": "owner",
          "type": "address"
        }
      ],
      "name": "ERC721InvalidOwner",
      "type": "error"
    },
    {
      "inputs": [
        {
          "internalType": "address",
          "name": "receiver",
          "type": "address"
        }
      ],
      "name": "ERC721InvalidReceiver",
      "type": "error"
    },
    {
      "inputs": [
        {
          "internalType": "address",
          "name": "sender",
          "type": "address"
        }
      ],
      "name": "ERC721InvalidSender",
      "type": "error"
    },
    {
      "inputs": [
        {
          "internalType": "uint256",
          "name": "tokenId",
          "type": "uint256"
        }
      ],
      "name": "ERC721NonexistentToken",
      "type": "error"
    },
    {
      "inputs": [
        {
          "internalType": "uint256",
          "name": "minPrice",
          "type": "uint256"
        },
        {
          "internalType": "uint256",
          "name": "maxPrice",
          "type": "uint256"
        },
        {
          "internalType": "uint256",
          "name": "sendValue",
          "type": "uint256"
        }
      ],
      "name": "InsufficientFunds",
      "type": "error"
    },
    {
      "inputs": [],
      "name": "InvalidPrice",
      "type": "error"
    },
    {
      "inputs": [],
      "name": "InvalidSalePeriod",
      "type": "error"
    },
    {
      "inputs": [
        {
          "internalType": "address",
          "name": "sender",
          "type": "address"
        }
      ],
      "name": "NotFounder",
      "type": "error"
    },
    {
      "inputs": [
        {
          "internalType": "address",
          "name": "caller",
          "type": "address"
        }
      ],
      "name": "NotLetsSaleDeployer",
      "type": "error"
    },
    {
      "inputs": [
        {
          "internalType": "uint256",
          "name": "saleStart",
          "type": "uint256"
        },
        {
          "internalType": "uint256",
          "name": "saleEnd",
          "type": "uint256"
        }
      ],
      "name": "NotSaleActive",
      "type": "error"
    },
    {
      "inputs": [
        {
          "internalType": "address",
          "name": "sender",
          "type": "address"
        }
      ],
      "name": "NotTreasuryRole",
      "type": "error"
    },
    {
      "inputs": [],
      "name": "SaleNotActive",
      "type": "error"
    },
    {
      "anonymous": false,
      "inputs": [
        {
          "indexed": true,
          "internalType": "address",
          "name": "owner",
          "type": "address"
        },
        {
          "indexed": true,
          "internalType": "address",
          "name": "approved",
          "type": "address"
        },
        {
          "indexed": true,
          "internalType": "uint256",
          "name": "tokenId",
          "type": "uint256"
        }
      ],
      "name": "Approval",
      "type": "event"
    },
    {
      "anonymous": false,
      "inputs": [
        {
          "indexed": true,
          "internalType": "address",
          "name": "initializer",
          "type": "address"
        }
      ],
      "name": "LETSSaleBaseInitialized",
      "type": "event"
    },
    {
      "anonymous": false,
      "inputs": [
        {
          "indexed": false,
          "internalType": "uint256",
          "name": "tokenId",
          "type": "uint256"
        },
        {
          "indexed": false,
          "internalType": "address",
          "name": "to",
          "type": "address"
        },
        {
          "indexed": false,
          "internalType": "uint256",
          "name": "price",
          "type": "uint256"
        }
      ],
      "name": "TokenPurchased",
      "type": "event"
    },
    {
      "anonymous": false,
      "inputs": [
        {
          "indexed": true,
          "internalType": "address",
          "name": "from",
          "type": "address"
        },
        {
          "indexed": true,
          "internalType": "address",
          "name": "to",
          "type": "address"
        },
        {
          "indexed": true,
          "internalType": "uint256",
          "name": "tokenId",
          "type": "uint256"
        }
      ],
      "name": "Transfer",
      "type": "event"
    },
    {
      "inputs": [
        {
          "internalType": "address",
          "name": "dictionary",
          "type": "address"
        }
      ],
      "name": "initialize",
      "outputs": [],
      "stateMutability": "nonpayable",
      "type": "function"
    },
    {
      "inputs": [
        {
          "internalType": "address",
          "name": "to",
          "type": "address"
        }
      ],
      "name": "offerToken",
      "outputs": [],
      "stateMutability": "payable",
      "type": "function"
    },
    {
      "inputs": [
        {
          "internalType": "uint256",
          "name": "saleStart",
          "type": "uint256"
        },
        {
          "internalType": "uint256",
          "name": "saleEnd",
          "type": "uint256"
        },
        {
          "internalType": "uint256",
          "name": "fixedPrice",
          "type": "uint256"
        },
        {
          "internalType": "uint256",
          "name": "minPrice",
          "type": "uint256"
        },
        {
          "internalType": "uint256",
          "name": "maxPrice",
          "type": "uint256"
        }
      ],
      "name": "setSaleInfo",
      "outputs": [],
      "stateMutability": "nonpayable",
      "type": "function"
    },
    {
      "inputs": [
        {
          "internalType": "uint256",
          "name": "fixedPrice",
          "type": "uint256"
        },
        {
          "internalType": "uint256",
          "name": "minPrice",
          "type": "uint256"
        },
        {
          "internalType": "uint256",
          "name": "maxPrice",
          "type": "uint256"
        }
      ],
      "name": "updatePrice",
      "outputs": [],
      "stateMutability": "nonpayable",
      "type": "function"
    },
    {
      "inputs": [
        {
          "internalType": "uint256",
          "name": "saleStart",
          "type": "uint256"
        },
        {
          "internalType": "uint256",
          "name": "saleEnd",
          "type": "uint256"
        }
      ],
      "name": "updateSalePeriod",
      "outputs": [],
      "stateMutability": "nonpayable",
      "type": "function"
    },
    {
      "inputs": [],
      "name": "withdraw",
      "outputs": [],
      "stateMutability": "nonpayable",
      "type": "function"
    }
  ],
  "bytecode": "0x60808060405234601557610dd6908161001b8239f35b600080fdfe608080604052600436101561001357600080fd5b60003560e01c9081630f43612914610a9f575080633ccfd60b146109f05780637bef1c35146103f3578063abd3c6e91461031a578063c4d66de8146101045763fc7da9a91461006157600080fd5b346100ff5760403660031901126100ff5760405160208101600080516020610d81833981519152815260208252610099604083610c14565b60ff1991519020167fe1dcbdb91df27212a29bc27177c840cf2f819ecf2187432e1fac86c2dd5dfca9600052602052604060002060018060a01b0333166000526020526100ef604060002060ff33915416610b3b565b6100fd602435600435610cc2565b005b600080fd5b346100ff5760203660031901126100ff576004356001600160a01b038116908190036100ff5760ff604051602081017ff158cb8b47a14bda3b2c4affcc0d960e9ed23f5a516e4779510b08a6e823c025815260208252610165604083610c14565b82199151902016541661030a576040516101006101828183610c14565b600782526020820190601f19013682378151156102f45763abd3c6e960e01b90528051600110156102f457637bef1c3560e01b60408201528051600210156102f457633ccfd60b60e01b60608201528051600310156102f45763fc7da9a960e01b60808201528051600410156102f45763f797ca4360e01b60a08201528051600510156102f457630f43612960e01b60c08201528051600610156102f4576305fa50c160e11b60e082015260005b81518110156102cc57600082518210156102b85750600581901b8201602001516001600160e01b03191690833b156100ff5760405191630815f6fd60e01b8352600483015230602483015260008260448183885af19182156102ac5760019261029b575b5001610230565b60006102a691610c14565b84610294565b6040513d6000823e3d90fd5b634e487b7160e01b81526032600452602490fd5b337fe001193f99c23bcf1352f0922ecb0692a3aa86a64d1a51b6922361820821ddd9600080a2005b634e487b7160e01b600052603260045260246000fd5b62dc149f60e41b60005260046000fd5b346100ff5760a03660031901126100ff5760405160208101600080516020610d81833981519152815260208252610352604083610c14565b60ff19915190201660008052602052604060002060018060a01b03331660005260205260ff60406000205416156103de57600661038d610c36565b60018101541515806103d1575b6103be575b6103b0608435606435604435610b88565b01805460ff19166001179055005b6103cc602435600435610cc2565b61039f565b506002810154151561039a565b639c2f8ac360e01b6000523360045260246000fd5b60203660031901126100ff576004356001600160a01b0381168082036100ff5761041b610c36565b6001810154801515806109e3575b6109a9575b505060ff600661043c610c36565b015416156109985761045561044f610c36565b92610c7a565b6109845750600481015480151580610977575b1561095e57908161048992341015908161094f575b60053493015491610b64565b610491610c36565b8054600019811461093957600101809155602090604051906104b38383610c14565b60008252331561092357600060026104c9610d0e565b83835201845260409020546001600160a01b0316918215801590816108ca575b60036104f3610d0e565b3360009081529101875260409020805460010190556002610512610d0e565b018460005286526040600020336bffffffffffffffffffffffff60a01b8254161790558333867fddf252ad1be2c89b69c2b068fc378daa952ba7f163c4a11628f55a4df523b3ef600080a41561081a57600261056c610d47565b01546003610578610d47565b01846000528652604060002055600261058f610d47565b01805490680100000000000000008210156108045760018201815560009080548310156107f0578152869020018390555b6000933303610791575b61077d57333b610610575b5060607f1cb6dd09e77cf64c9d88c8e0cf8555ebff062045f2068f22efcbc60905730e7191846040519182523390820152346040820152a180f35b836040518092630a85bd0160e11b82523360048301528560248301528460448301526080606483015280519081608484015283875b8381106107655750505081818760a4809484010152601f8019910116810103018186335af1839181610721575b506106ea5750503d156106e3573d67ffffffffffffffff81116106cf57604051906106a6601f8201601f1916850183610c14565b81523d828483013e5b805192836106ca57633250574960e11b835233600452602483fd5b019050fd5b634e487b7160e01b82526041600452602482fd5b60606106af565b919290916001600160e01b03191663757a42ff60e11b0161070e57919060606105d5565b633250574960e11b835233600452602483fd5b9091508481813d831161075e575b6107398183610c14565b8101031261075a57516001600160e01b03198116810361075a579085610672565b8380fd5b503d61072f565b82810182015187820160a40152869450859101610645565b6339e3563760e11b83526004839052602483fd5b61079a33610c7a565b60001981019081116107dc576107ae610d47565b338652865260408086208287528752852084905560016107cc610d47565b01848652865260408520556105ca565b634e487b7160e01b85526011600452602485fd5b634e487b7160e01b82526032600452602482fd5b634e487b7160e01b600052604160045260246000fd5b3384146105c05761082a84610c7a565b6001610834610d47565b0184600052865260406000205490604061084c610d47565b6001600160a01b03881660009081529089522091818103610892575b506001610873610d47565b01856000528752600060408120556000528552600060408120556105c0565b81600052828852604060002054816000528389528060406000205560016108b7610d47565b0190600052885260406000205587610868565b60046108d4610d0e565b0184600052865260406000206bffffffffffffffffffffffff60a01b815416905560036108ff610d0e565b6001600160a01b0387166000908152910187526040902080546000190190556104e9565b633250574960e11b600052600060045260246000fd5b634e487b7160e01b600052601160045260246000fd5b6005830154341115915061047d565b506003610972910154349080803414610b64565b610489565b5060058201541515610468565b6367e667af60e11b60005260045260246000fd5b63b7b2409760e01b60005260046000fd5b8042101591826109d4575b600201549161042e576306e70a4760e51b60005260045260245260446000fd5b600281015442111592506109b4565b5060028201541515610429565b346100ff5760003660031901126100ff5760405160208101600080516020610d81833981519152815260208252610a28604083610c14565b60ff1991519020167fe1dcbdb91df27212a29bc27177c840cf2f819ecf2187432e1fac86c2dd5dfca9600052602052604060002060018060a01b033316600052602052610a7e604060002060ff33915416610b3b565b600080808047818115610a96575b3390f1156102ac57005b506108fc610a8c565b346100ff5760603660031901126100ff5760208101600080516020610d81833981519152815260208252610ad4604083610c14565b60ff1991519020167fe1dcbdb91df27212a29bc27177c840cf2f819ecf2187432e1fac86c2dd5dfca9600052602052604060002060018060a01b033316600052602052610b2a604060002060ff33915416610b3b565b6100fd604435602435600435610b88565b15610b435750565b638289154b60e01b60009081526001600160a01b0391909116600452602490fd5b15610b6e57505050565b637ab11db960e11b60005260045260245260445260646000fd5b90610b91610c36565b908215801580918192610c0b575b81610c02575b8115610bdc575b5015610bcc5715610bbf57506003015550565b6005925060048201550155565b62bfc92160e01b60005260046000fd5b905080610bf9575b80610bf0575b38610bac565b50841515610bea565b50811515610be4565b86159150610ba5565b83159150610b9f565b90601f8019910116810190811067ffffffffffffffff82111761080457604052565b604051602081017f0cee7785c9739c2abcb4ce591dada6e864d6d906251746912d12a62bb828bf68815260208252610c6f604083610c14565b9051902060ff191690565b6001600160a01b03811615610cac576003610c93610d0e565b019060018060a01b031660005260205260406000205490565b6322718ad960e21b600052600060045260246000fd5b610cca610c36565b81151580610d05575b15610cf45742821115610cf45782821015610cf45760029160018201550155565b631d18ab0b60e11b60005260046000fd5b50821515610cd3565b604051602081017fb7b8777dfce3c027b9b4ab96baa886d0c5d5e8c8632429d2b4be0ba869cd905f815260208252610c6f604083610c14565b604051602081017f2070bae6b675801f0932481e70ab724699e22000dcf2efe36a44b6070d9ee8f1815260208252610c6f604083610c1456fecf377bf0da9cb35454543c63ad54bf2c5a0466b629ac7517e61f8857cae0fa25a26469706673582212205479cb11039d89be239747b2f0dfa6deaee50305e30147bc319c16034f203c4864736f6c634300081c0033",
  "linkReferences": {},
  "deployedLinkReferences": {}
}