{
  "_format": "hh-sol-artifact-1",
  "contractName": "LETS_JP_LLC_EXE",
  "sourceName": "contracts/Services/LETS/extentions/LETS_JP_LLC/LETS_JP_LLC_EXE.sol",
  "abi": [
    {
      "inputs": [],
      "stateMutability": "nonpayable",
      "type": "constructor"
    },
    {
      "inputs": [],
      "name": "ERC721EnumerableForbiddenBatchMint",
      "type": "error"
    },
    {
      "inputs": [
        {
          "internalType": "address",
          "name": "sender",
          "type": "address"
        },
        {
          "internalType": "uint256",
          "name": "tokenId",
          "type": "uint256"
        },
        {
          "internalType": "address",
          "name": "owner",
          "type": "address"
        }
      ],
      "name": "ERC721IncorrectOwner",
      "type": "error"
    },
    {
      "inputs": [
        {
          "internalType": "address",
          "name": "operator",
          "type": "address"
        },
        {
          "internalType": "uint256",
          "name": "tokenId",
          "type": "uint256"
        }
      ],
      "name": "ERC721InsufficientApproval",
      "type": "error"
    },
    {
      "inputs": [
        {
          "internalType": "address",
          "name": "approver",
          "type": "address"
        }
      ],
      "name": "ERC721InvalidApprover",
      "type": "error"
    },
    {
      "inputs": [
        {
          "internalType": "address",
          "name": "operator",
          "type": "address"
        }
      ],
      "name": "ERC721InvalidOperator",
      "type": "error"
    },
    {
      "inputs": [
        {
          "internalType": "address",
          "name": "owner",
          "type": "address"
        }
      ],
      "name": "ERC721InvalidOwner",
      "type": "error"
    },
    {
      "inputs": [
        {
          "internalType": "address",
          "name": "receiver",
          "type": "address"
        }
      ],
      "name": "ERC721InvalidReceiver",
      "type": "error"
    },
    {
      "inputs": [
        {
          "internalType": "address",
          "name": "sender",
          "type": "address"
        }
      ],
      "name": "ERC721InvalidSender",
      "type": "error"
    },
    {
      "inputs": [
        {
          "internalType": "uint256",
          "name": "tokenId",
          "type": "uint256"
        }
      ],
      "name": "ERC721NonexistentToken",
      "type": "error"
    },
    {
      "inputs": [
        {
          "internalType": "address",
          "name": "owner",
          "type": "address"
        },
        {
          "internalType": "uint256",
          "name": "index",
          "type": "uint256"
        }
      ],
      "name": "ERC721OutOfBoundsIndex",
      "type": "error"
    },
    {
      "inputs": [],
      "name": "InitialMintExecuteMemberCompleted",
      "type": "error"
    },
    {
      "inputs": [],
      "name": "InvalidInitialization",
      "type": "error"
    },
    {
      "inputs": [
        {
          "internalType": "bytes32",
          "name": "param",
          "type": "bytes32"
        }
      ],
      "name": "InvalidParam",
      "type": "error"
    },
    {
      "inputs": [
        {
          "internalType": "address",
          "name": "sender",
          "type": "address"
        }
      ],
      "name": "NotFounder",
      "type": "error"
    },
    {
      "inputs": [
        {
          "internalType": "address",
          "name": "sender",
          "type": "address"
        }
      ],
      "name": "NotFounder",
      "type": "error"
    },
    {
      "inputs": [
        {
          "internalType": "address",
          "name": "caller",
          "type": "address"
        }
      ],
      "name": "NotGovernance",
      "type": "error"
    },
    {
      "inputs": [],
      "name": "NotInitializing",
      "type": "error"
    },
    {
      "inputs": [
        {
          "internalType": "address",
          "name": "caller",
          "type": "address"
        }
      ],
      "name": "NotLetsSale",
      "type": "error"
    },
    {
      "inputs": [],
      "name": "NotTransferable",
      "type": "error"
    },
    {
      "inputs": [
        {
          "internalType": "address",
          "name": "owner",
          "type": "address"
        }
      ],
      "name": "OwnableInvalidOwner",
      "type": "error"
    },
    {
      "inputs": [
        {
          "internalType": "address",
          "name": "account",
          "type": "address"
        }
      ],
      "name": "OwnableUnauthorizedAccount",
      "type": "error"
    },
    {
      "anonymous": false,
      "inputs": [
        {
          "indexed": true,
          "internalType": "address",
          "name": "owner",
          "type": "address"
        },
        {
          "indexed": true,
          "internalType": "address",
          "name": "approved",
          "type": "address"
        },
        {
          "indexed": true,
          "internalType": "uint256",
          "name": "tokenId",
          "type": "uint256"
        }
      ],
      "name": "Approval",
      "type": "event"
    },
    {
      "anonymous": false,
      "inputs": [
        {
          "indexed": true,
          "internalType": "address",
          "name": "owner",
          "type": "address"
        },
        {
          "indexed": true,
          "internalType": "address",
          "name": "operator",
          "type": "address"
        },
        {
          "indexed": false,
          "internalType": "bool",
          "name": "approved",
          "type": "bool"
        }
      ],
      "name": "ApprovalForAll",
      "type": "event"
    },
    {
      "anonymous": false,
      "inputs": [
        {
          "indexed": false,
          "internalType": "uint256",
          "name": "_fromTokenId",
          "type": "uint256"
        },
        {
          "indexed": false,
          "internalType": "uint256",
          "name": "_toTokenId",
          "type": "uint256"
        }
      ],
      "name": "BatchMetadataUpdate",
      "type": "event"
    },
    {
      "anonymous": false,
      "inputs": [
        {
          "indexed": true,
          "internalType": "address",
          "name": "scr",
          "type": "address"
        },
        {
          "indexed": false,
          "internalType": "address[]",
          "name": "tos",
          "type": "address[]"
        }
      ],
      "name": "InitialMint",
      "type": "event"
    },
    {
      "anonymous": false,
      "inputs": [
        {
          "indexed": false,
          "internalType": "uint64",
          "name": "version",
          "type": "uint64"
        }
      ],
      "name": "Initialized",
      "type": "event"
    },
    {
      "anonymous": false,
      "inputs": [
        {
          "indexed": false,
          "internalType": "uint256",
          "name": "_tokenId",
          "type": "uint256"
        }
      ],
      "name": "MetadataUpdate",
      "type": "event"
    },
    {
      "anonymous": false,
      "inputs": [
        {
          "indexed": true,
          "internalType": "address",
          "name": "previousOwner",
          "type": "address"
        },
        {
          "indexed": true,
          "internalType": "address",
          "name": "newOwner",
          "type": "address"
        }
      ],
      "name": "OwnershipTransferred",
      "type": "event"
    },
    {
      "anonymous": false,
      "inputs": [
        {
          "indexed": false,
          "internalType": "uint256",
          "name": "tokenId",
          "type": "uint256"
        }
      ],
      "name": "TokenFrozen",
      "type": "event"
    },
    {
      "anonymous": false,
      "inputs": [
        {
          "indexed": false,
          "internalType": "uint256",
          "name": "tokenId",
          "type": "uint256"
        }
      ],
      "name": "TokenUnfrozen",
      "type": "event"
    },
    {
      "anonymous": false,
      "inputs": [
        {
          "indexed": true,
          "internalType": "address",
          "name": "from",
          "type": "address"
        },
        {
          "indexed": true,
          "internalType": "address",
          "name": "to",
          "type": "address"
        },
        {
          "indexed": true,
          "internalType": "uint256",
          "name": "tokenId",
          "type": "uint256"
        }
      ],
      "name": "Transfer",
      "type": "event"
    },
    {
      "inputs": [
        {
          "internalType": "address",
          "name": "to",
          "type": "address"
        },
        {
          "internalType": "uint256",
          "name": "tokenId",
          "type": "uint256"
        }
      ],
      "name": "approve",
      "outputs": [],
      "stateMutability": "nonpayable",
      "type": "function"
    },
    {
      "inputs": [
        {
          "internalType": "address",
          "name": "owner",
          "type": "address"
        }
      ],
      "name": "balanceOf",
      "outputs": [
        {
          "internalType": "uint256",
          "name": "",
          "type": "uint256"
        }
      ],
      "stateMutability": "view",
      "type": "function"
    },
    {
      "inputs": [],
      "name": "baseURI",
      "outputs": [
        {
          "internalType": "string",
          "name": "",
          "type": "string"
        }
      ],
      "stateMutability": "view",
      "type": "function"
    },
    {
      "inputs": [],
      "name": "extension",
      "outputs": [
        {
          "internalType": "string",
          "name": "",
          "type": "string"
        }
      ],
      "stateMutability": "view",
      "type": "function"
    },
    {
      "inputs": [
        {
          "internalType": "uint256",
          "name": "tokenId",
          "type": "uint256"
        }
      ],
      "name": "freezeToken",
      "outputs": [],
      "stateMutability": "nonpayable",
      "type": "function"
    },
    {
      "inputs": [
        {
          "internalType": "uint256",
          "name": "tokenId",
          "type": "uint256"
        }
      ],
      "name": "getApproved",
      "outputs": [
        {
          "internalType": "address",
          "name": "",
          "type": "address"
        }
      ],
      "stateMutability": "view",
      "type": "function"
    },
    {
      "inputs": [],
      "name": "getInitialMintExecuteMemberCompleted",
      "outputs": [
        {
          "internalType": "bool",
          "name": "initialMintExecuteMemberCompleted",
          "type": "bool"
        }
      ],
      "stateMutability": "view",
      "type": "function"
    },
    {
      "inputs": [],
      "name": "getLetsSale",
      "outputs": [
        {
          "internalType": "address",
          "name": "",
          "type": "address"
        }
      ],
      "stateMutability": "view",
      "type": "function"
    },
    {
      "inputs": [],
      "name": "getSC",
      "outputs": [
        {
          "internalType": "address",
          "name": "",
          "type": "address"
        }
      ],
      "stateMutability": "view",
      "type": "function"
    },
    {
      "inputs": [
        {
          "internalType": "address",
          "name": "owner",
          "type": "address"
        }
      ],
      "name": "getTokensOfOwner",
      "outputs": [
        {
          "internalType": "uint256[]",
          "name": "",
          "type": "uint256[]"
        }
      ],
      "stateMutability": "view",
      "type": "function"
    },
    {
      "inputs": [
        {
          "internalType": "uint256",
          "name": "tokenId",
          "type": "uint256"
        }
      ],
      "name": "getUpdatedToken",
      "outputs": [
        {
          "internalType": "uint256",
          "name": "",
          "type": "uint256"
        }
      ],
      "stateMutability": "view",
      "type": "function"
    },
    {
      "inputs": [
        {
          "internalType": "address[]",
          "name": "tos",
          "type": "address[]"
        },
        {
          "internalType": "uint256",
          "name": "tokenId",
          "type": "uint256"
        }
      ],
      "name": "initialMint",
      "outputs": [],
      "stateMutability": "nonpayable",
      "type": "function"
    },
    {
      "inputs": [
        {
          "internalType": "address",
          "name": "owner",
          "type": "address"
        },
        {
          "internalType": "address",
          "name": "sc",
          "type": "address"
        },
        {
          "internalType": "bytes",
          "name": "params",
          "type": "bytes"
        }
      ],
      "name": "initialize",
      "outputs": [],
      "stateMutability": "nonpayable",
      "type": "function"
    },
    {
      "inputs": [
        {
          "internalType": "address",
          "name": "owner",
          "type": "address"
        },
        {
          "internalType": "address",
          "name": "operator",
          "type": "address"
        }
      ],
      "name": "isApprovedForAll",
      "outputs": [
        {
          "internalType": "bool",
          "name": "",
          "type": "bool"
        }
      ],
      "stateMutability": "view",
      "type": "function"
    },
    {
      "inputs": [
        {
          "internalType": "address",
          "name": "to",
          "type": "address"
        },
        {
          "internalType": "uint256",
          "name": "tokenId",
          "type": "uint256"
        }
      ],
      "name": "mint",
      "outputs": [],
      "stateMutability": "nonpayable",
      "type": "function"
    },
    {
      "inputs": [
        {
          "internalType": "address",
          "name": "to",
          "type": "address"
        }
      ],
      "name": "mint",
      "outputs": [
        {
          "internalType": "uint256",
          "name": "tokenId",
          "type": "uint256"
        }
      ],
      "stateMutability": "nonpayable",
      "type": "function"
    },
    {
      "inputs": [],
      "name": "name",
      "outputs": [
        {
          "internalType": "string",
          "name": "",
          "type": "string"
        }
      ],
      "stateMutability": "view",
      "type": "function"
    },
    {
      "inputs": [],
      "name": "owner",
      "outputs": [
        {
          "internalType": "address",
          "name": "",
          "type": "address"
        }
      ],
      "stateMutability": "view",
      "type": "function"
    },
    {
      "inputs": [
        {
          "internalType": "uint256",
          "name": "tokenId",
          "type": "uint256"
        }
      ],
      "name": "ownerOf",
      "outputs": [
        {
          "internalType": "address",
          "name": "",
          "type": "address"
        }
      ],
      "stateMutability": "view",
      "type": "function"
    },
    {
      "inputs": [],
      "name": "renounceOwnership",
      "outputs": [],
      "stateMutability": "nonpayable",
      "type": "function"
    },
    {
      "inputs": [
        {
          "internalType": "address",
          "name": "from",
          "type": "address"
        },
        {
          "internalType": "address",
          "name": "to",
          "type": "address"
        },
        {
          "internalType": "uint256",
          "name": "tokenId",
          "type": "uint256"
        }
      ],
      "name": "safeTransferFrom",
      "outputs": [],
      "stateMutability": "nonpayable",
      "type": "function"
    },
    {
      "inputs": [
        {
          "internalType": "address",
          "name": "from",
          "type": "address"
        },
        {
          "internalType": "address",
          "name": "to",
          "type": "address"
        },
        {
          "internalType": "uint256",
          "name": "tokenId",
          "type": "uint256"
        },
        {
          "internalType": "bytes",
          "name": "data",
          "type": "bytes"
        }
      ],
      "name": "safeTransferFrom",
      "outputs": [],
      "stateMutability": "nonpayable",
      "type": "function"
    },
    {
      "inputs": [
        {
          "internalType": "address",
          "name": "operator",
          "type": "address"
        },
        {
          "internalType": "bool",
          "name": "approved",
          "type": "bool"
        }
      ],
      "name": "setApprovalForAll",
      "outputs": [],
      "stateMutability": "nonpayable",
      "type": "function"
    },
    {
      "inputs": [
        {
          "internalType": "bytes4",
          "name": "interfaceId",
          "type": "bytes4"
        }
      ],
      "name": "supportsInterface",
      "outputs": [
        {
          "internalType": "bool",
          "name": "",
          "type": "bool"
        }
      ],
      "stateMutability": "view",
      "type": "function"
    },
    {
      "inputs": [],
      "name": "symbol",
      "outputs": [
        {
          "internalType": "string",
          "name": "",
          "type": "string"
        }
      ],
      "stateMutability": "view",
      "type": "function"
    },
    {
      "inputs": [
        {
          "internalType": "uint256",
          "name": "index",
          "type": "uint256"
        }
      ],
      "name": "tokenByIndex",
      "outputs": [
        {
          "internalType": "uint256",
          "name": "",
          "type": "uint256"
        }
      ],
      "stateMutability": "view",
      "type": "function"
    },
    {
      "inputs": [
        {
          "internalType": "address",
          "name": "owner",
          "type": "address"
        },
        {
          "internalType": "uint256",
          "name": "index",
          "type": "uint256"
        }
      ],
      "name": "tokenOfOwnerByIndex",
      "outputs": [
        {
          "internalType": "uint256",
          "name": "",
          "type": "uint256"
        }
      ],
      "stateMutability": "view",
      "type": "function"
    },
    {
      "inputs": [
        {
          "internalType": "uint256",
          "name": "tokenId",
          "type": "uint256"
        }
      ],
      "name": "tokenURI",
      "outputs": [
        {
          "internalType": "string",
          "name": "",
          "type": "string"
        }
      ],
      "stateMutability": "view",
      "type": "function"
    },
    {
      "inputs": [],
      "name": "totalSupply",
      "outputs": [
        {
          "internalType": "uint256",
          "name": "",
          "type": "uint256"
        }
      ],
      "stateMutability": "view",
      "type": "function"
    },
    {
      "inputs": [
        {
          "internalType": "address",
          "name": "from",
          "type": "address"
        },
        {
          "internalType": "address",
          "name": "to",
          "type": "address"
        },
        {
          "internalType": "uint256",
          "name": "tokenId",
          "type": "uint256"
        }
      ],
      "name": "transferFrom",
      "outputs": [],
      "stateMutability": "nonpayable",
      "type": "function"
    },
    {
      "inputs": [
        {
          "internalType": "address",
          "name": "newOwner",
          "type": "address"
        }
      ],
      "name": "transferOwnership",
      "outputs": [],
      "stateMutability": "nonpayable",
      "type": "function"
    },
    {
      "inputs": [
        {
          "internalType": "uint256",
          "name": "tokenId",
          "type": "uint256"
        }
      ],
      "name": "unfreezeToken",
      "outputs": [],
      "stateMutability": "nonpayable",
      "type": "function"
    }
  ],
  "bytecode": "0x608060405234602357600e6028565b60146028565b604051612f1190816100e58239f35b600080fd5b7ff0c57e16840df040f15088dc2f81fe391c3923bec73e23a9662efc9c229c6a005460ff8160401c1660d3576002600160401b03196001600160401b03821601606e5750565b6001600160401b0319166001600160401b039081177ff0c57e16840df040f15088dc2f81fe391c3923bec73e23a9662efc9c229c6a00556040519081527fc7f505b2f371ae2175ee4913f4499e1f2633a7b5936321eed1cdaeb6115181d290602090a1565b63f92ee8a960e01b60005260046000fdfe608080604052600436101561001357600080fd5b60003560e01c90816301ffc9a714611aa75750806306fdde03146119f7578063081812fc146119ac578063095ea7b3146118ba57806318160ddd1461188f57806323b872dd146118785780632d5537b0146117e25780632f745c59146117bb5780633a167dd41461154157806340c10f191461150357806342842e0e146114d35780634d787ea9146114675780634df61a431461143e5780634f6ccce7146113e05780635de6dc55146113015780636352211e146112d15780636a627842146112755780636c0360eb146111df57806370a08231146111b4578063715018a61461114a5780638da5cb5b1461111457806395d89b411461102d57806397294fea14611001578063a22cb46514610f65578063b6854f9614610ef6578063b88d4fde14610e9c578063c806aead14610e73578063c87b56dd14610e3c578063cf7a1d7714610220578063e12a8b7c146101fd578063e985e9c5146101af5763f2fde38b1461017f57600080fd5b346101aa5760203660031901126101aa576101a861019b611b8e565b6101a3612989565b61226c565b005b600080fd5b346101aa5760403660031901126101aa576101c8611b8e565b6101d96101d3611ba4565b9161209e565b9060018060a01b0316600052602052602060ff604060002054166040519015158152f35b346101aa5760003660031901126101aa57602060ff600854166040519015158152f35b346101aa5760603660031901126101aa57610239611b8e565b610241611ba4565b6044356001600160401b0381116101aa57610260903690600401611c6a565b91600080516020612e7c83398151915254906001600160401b0360ff8360401c1615921680159081610e34575b6001149081610e2a575b159081610e21575b50610dc357816102ad61223d565b610def575b600080516020612e7c833981519152546001600160401b0360ff8260401c1615911680159081610de7575b6001149081610ddd575b159081610dd4575b50610dc357806102fd61223d565b610d91575b60409361033985516103148782611c2e565b60138152724c4554534261736520696e697469616c697a6560681b6020820152612c66565b610341612d4d565b610349612d4d565b6103528361226c565b61035a612d4d565b60018060a01b03166001600160601b0360a01b6000541617600055845194602081019581019560c082602089019803126101aa5780516001600160401b0381116101aa578760206103ad92850101612bd3565b96868301516001600160401b0381116101aa578160206103cf92860101612bd3565b60608401516001600160401b0381116101aa578260206103f192870101612bd3565b916080850151906001600160401b0382116101aa57602061041492870101612bd3565b9861042160a08601612c18565b9461042e60c08201612c18565b8a516001600160a01b039788169790911695906104769061044f8d82611c2e565b601581527404c4554534261736520696e697469616c697a65203605c1b6020820152612c66565b61049d838c61048781519182611c2e565b60048152636e616d6560e01b6020820152612cb9565b6104c6848c6104ae81519182611c2e565b60068152651cde5b589bdb60d21b6020820152612cb9565b6104f0858c6104d781519182611c2e565b60078152666261736555524960c81b6020820152612cb9565b61051c8c8c61050181519182611c2e565b600981526832bc3a32b739b4b7b760b91b6020820152612cb9565b610547868c61052d81519182611c2e565b60088152676c65747353616c6560c01b6020820152612cfe565b610574878c61055881519182611c2e565b600a815269676f7665726e616e636560b01b6020820152612cfe565b825115159182610d86575b82610d7b575b82610d70575b82610d66575b82610d5c575b5190519060208110610d4a575b509015610d3657506105e289516105bb8b82611c2e565b60158152744c4554534261736520696e697469616c697a65203160581b6020820152612c66565b6105ea612d4d565b6105f2612d4d565b8051906001600160401b038211610a0357819061061d600080516020612ddc83398151915254611bf4565b601f8111610cb2575b50602090601f8311600114610c2457600092610c19575b50508160011b916000199060031b1c191617600080516020612ddc833981519152555b8051906001600160401b038211610a0357819061068b600080516020612e9c83398151915254611bf4565b601f8111610b9c575b50602090601f8311600114610b1a57600092610b0f575b50508160011b916000199060031b1c191617600080516020612e9c833981519152555b61070487516106dd8982611c2e565b60158152742622aa29a130b9b29034b734ba34b0b634bd32901960591b6020820152612c66565b8051906001600160401b038211610a03578190610722600454611bf4565b601f8111610a98575b50602090601f8311600114610a2457600092610a19575b50508160011b916000199060031b1c1916176004555b86516001600160401b038111610a0357610773600554611bf4565b601f8111610996575b506020601f821160011461091e578190610864979899600092610913575b50508160011b916000199060031b1c1916176005555b6001600160601b0360a01b60015416176001556001600160601b0360a01b600254161760025561080c85516107e58782611c2e565b60158152744c4554534261736520696e697469616c697a65203360581b6020820152612c66565b61084a855161081b8782611c2e565b601881527f4c4554534261736520696e697469616c697a6520646f6e6500000000000000006020820152612c66565b6108bd575b61085a6003546121e6565b9081600355612313565b61086a57005b60207fc7f505b2f371ae2175ee4913f4499e1f2633a7b5936321eed1cdaeb6115181d29160ff60401b19600080516020612e7c8339815191525416600080516020612e7c833981519152555160018152a1005b60ff60401b19600080516020612e7c8339815191525416600080516020612e7c833981519152557fc7f505b2f371ae2175ee4913f4499e1f2633a7b5936321eed1cdaeb6115181d26020855160018152a161084f565b01519050898061079a565b601f198216986005600052600080516020612d7c8339815191529960005b81811061097e57509161086498999a91846001959410610965575b505050811b016005556107b0565b015160001960f88460031b161c19169055898080610957565b838301518c556001909b019a6020938401930161093c565b6005600052601f820160051c600080516020612d7c8339815191520190602083106109ed575b601f0160051c600080516020612d7c83398151915201905b8181106109e1575061077c565b600081556001016109d4565b600080516020612d7c83398151915291506109bc565b634e487b7160e01b600052604160045260246000fd5b015190508980610742565b60046000908152600080516020612e3c8339815191529350601f198516905b818110610a805750908460019594939210610a67575b505050811b01600455610758565b015160001960f88460031b161c19169055898080610a59565b92936020600181928786015181550195019301610a43565b9091506004600052601f830160051c600080516020612e3c833981519152019060208410610af9575b90601f8493920160051c600080516020612e3c83398151915201905b818110610aea575061072b565b60008155849350600101610add565b600080516020612e3c8339815191529150610ac1565b015190508a806106ab565b600080516020612e9c83398151915260009081528281209350601f198516905b818110610b845750908460019594939210610b6b575b505050811b01600080516020612e9c833981519152556106ce565b015160001960f88460031b161c191690558a8080610b50565b92936020600181928786015181550195019301610b3a565b600080516020612e9c8339815191526000529091507ff4bad0a69248f59680a4f2b3000328cec71a413447c96781cfe5996daa8c456e601f840160051c81019160208510610c0f575b90601f859493920160051c01905b818110610c005750610694565b60008155849350600101610bf3565b9091508190610be5565b015190508b8061063d565b600080516020612ddc8339815191526000908152600080516020612ebc8339815191529350601f198516905b818110610c9a5750908460019594939210610c81575b505050811b01600080516020612ddc83398151915255610660565b015160001960f88460031b161c191690558b8080610c66565b92936020600181928786015181550195019301610c50565b909150600080516020612ddc833981519152600052601f830160051c600080516020612ebc833981519152019060208410610d20575b90601f8493920160051c600080516020612ebc83398151915201905b818110610d115750610626565b60008155849350600101610d04565b600080516020612ebc8339815191529150610ce8565b6308d49be960e31b60005260045260246000fd5b6000199060200360031b1b168c6105a4565b8715159250610597565b8615159250610591565b8c511515925061058b565b855115159250610585565b84511515925061057f565b600160401b60ff60401b19600080516020612e7c833981519152541617600080516020612e7c83398151915255610302565b63f92ee8a960e01b60005260046000fd5b905015866102ef565b303b1591506102e7565b8291506102dd565b600160401b60ff60401b19600080516020612e7c833981519152541617600080516020612e7c833981519152556102b2565b9050158561029f565b303b159150610297565b83915061028d565b346101aa5760203660031901126101aa57610e6f610e5b600435612ae8565b604051918291602083526020830190611b69565b0390f35b346101aa5760003660031901126101aa576000546040516001600160a01b039091168152602090f35b346101aa5760803660031901126101aa57610eb5611b8e565b610ebd611ba4565b90604435606435926001600160401b0384116101aa57610ee46101a8943690600401611c6a565b92610ef0838383611cb1565b336129bf565b346101aa5760203660031901126101aa577f74308730007d8ee5b3c18fad784efa3555f62695e36960f803f475eeb663d10e6020600435610f4460018060a01b036002541633903314612171565b80600052600682526040600020600160ff19825416179055604051908152a1005b346101aa5760403660031901126101aa57610f7e611b8e565b602435908115158092036101aa576001600160a01b0316908115610fec57610fa53361209e565b82600052602052604060002060ff1981541660ff83161790556040519081527f17307eab39ab6107e8899845ad3d59bd9653f200f220920489ca2b5937696c3160203392a3005b50630b61174360e31b60005260045260246000fd5b346101aa5760203660031901126101aa5760043560005260076020526020604060002054604051908152f35b346101aa5760003660031901126101aa576040516000600080516020612e9c8339815191525461105c81611bf4565b80845290600181169081156110f05750600114611084575b610e6f83610e5b81850382611c2e565b600080516020612e9c83398151915260009081527ff4bad0a69248f59680a4f2b3000328cec71a413447c96781cfe5996daa8c456e939250905b8082106110d657509091508101602001610e5b611074565b9192600181602092548385880101520191019092916110be565b60ff191660208086019190915291151560051b84019091019150610e5b9050611074565b346101aa5760003660031901126101aa57600080516020612dfc833981519152546040516001600160a01b039091168152602090f35b346101aa5760003660031901126101aa57611163612989565b600080516020612dfc83398151915280546001600160a01b031981169091556000906001600160a01b03167f8be0079c531659141344cd1fd0a4f28419497f9722a3daafe3b4186f6b6457e08280a3005b346101aa5760203660031901126101aa5760206111d76111d2611b8e565b61220b565b604051908152f35b346101aa5760003660031901126101aa57604051600060045461120181611bf4565b80845290600181169081156110f0575060011461122857610e6f83610e5b81850382611c2e565b60046000908152600080516020612e3c833981519152939250905b80821061125b57509091508101602001610e5b611074565b919260018160209254838588010152019101909291611243565b346101aa5760203660031901126101aa5761128e611b8e565b6001546001600160a01b031633036112bc576020906111d76112b16003546121e6565b809281600355612313565b63da76f27d60e01b6000523360045260246000fd5b346101aa5760203660031901126101aa5760206112ef6004356122e2565b6040516001600160a01b039091168152f35b346101aa5760203660031901126101aa5761131a611b8e565b6113238161220b565b9061132d826121cf565b9161133b6040519384611c2e565b808352611347816121cf565b602084019290601f190136843760005b8281106113a35783856040519182916020830190602084525180915260408301919060005b81811061138a575050500390f35b825184528594506020938401939092019160010161137c565b6113ad8183612110565b9085518110156113ca5760019160208260051b8801015201611357565b634e487b7160e01b600052603260045260246000fd5b346101aa5760203660031901126101aa57600435600080516020612e1c833981519152548110156114255761141660209161219a565b90549060031b1c604051908152f35b63295f44f760e21b600052600060045260245260446000fd5b346101aa5760003660031901126101aa576001546040516001600160a01b039091168152602090f35b346101aa5760203660031901126101aa577fdad54db74d8c1152c7cb496a900d181b8e9b69b70e55db2362bd100897a4f7a160206004356114b560018060a01b036002541633903314612171565b8060005260068252604060002060ff198154169055604051908152a1005b346101aa576101a86114e436611bba565b90604051926114f4602085611c2e565b60008452610ef0838383611cb1565b346101aa5760403660031901126101aa576101a861151f611b8e565b6002546115389033906001600160a01b03168114612171565b60243590612313565b346101aa5760403660031901126101aa576004356001600160401b0381116101aa57366023820112156101aa5780600401356001600160401b0381116101aa573660248260051b840101116101aa576024359160ff600854166117aa57600054604051631ba82e6360e31b815290602090829060049082906001600160a01b03165afa90811561175b57600091611767575b50604051632474521560e21b81527f7ed687a8f2955bd2ba7ca08227e1e364d132be747f42fb733165f923021b0225600482015233602482015290602090829060449082906001600160a01b03165afa90811561175b5760009161171c575b50156117075760005b8281101561167757600581901b82016024013560006001600160a01b038216820361167457509061166e85600193612313565b0161163b565b80fd5b5090600160ff19600854161760085560405190806020830160208452526024604083019301906000905b8082106116d157307f1a011b8e3ac2481c2b87e374ace0f8bb1128f6a80697d6b4fd0817d950d4837b85870386a2005b91939091908435906001600160a01b03821682036101aa576001600160a01b0390911681526020908101940191600101906116a1565b639c2f8ac360e01b6000523360045260246000fd5b6020813d602011611753575b8161173560209383611c2e565b8101031261174f5751908115158203611674575084611632565b5080fd5b3d9150611728565b6040513d6000823e3d90fd5b6020813d6020116117a2575b8161178060209383611c2e565b8101031261174f5751906001600160a01b0382168203611674575060206115d3565b3d9150611773565b630bfb041b60e21b60005260046000fd5b346101aa5760403660031901126101aa5760206111d76117d9611b8e565b60243590612110565b346101aa5760003660031901126101aa57604051600060055461180481611bf4565b80845290600181169081156110f0575060011461182b57610e6f83610e5b81850382611c2e565b60056000908152600080516020612d7c833981519152939250905b80821061185e57509091508101602001610e5b611074565b919260018160209254838588010152019101909291611846565b346101aa576101a861188936611bba565b91611cb1565b346101aa5760003660031901126101aa576020600080516020612e1c83398151915254604051908152f35b346101aa5760403660031901126101aa576118d3611b8e565b6024356118df816122e2565b33151580611999575b80611975575b6119605781906001600160a01b0384811691167f8c5be1e5ebec7d5bd14f71427d1e84f3dd0314c0f7b2291e5b200ac8c7c3b925600080a46000908152600080516020612e5c8339815191526020526040902080546001600160a01b0319166001600160a01b03909216919091179055005b63a9fbf51f60e01b6000523360045260246000fd5b5061197f8161209e565b336000908152602091909152604090205460ff16156118ee565b506001600160a01b0381163314156118e8565b346101aa5760203660031901126101aa5760206112ef6004356119ce816122e2565b506000908152600080516020612e5c83398151915260205260409020546001600160a01b031690565b346101aa5760003660031901126101aa576040516000600080516020612ddc83398151915254611a2681611bf4565b80845290600181169081156110f05750600114611a4d57610e6f83610e5b81850382611c2e565b600080516020612ddc8339815191526000908152600080516020612ebc833981519152939250905b808210611a8d57509091508101602001610e5b611074565b919260018160209254838588010152019101909291611a75565b346101aa5760203660031901126101aa576004359063ffffffff60e01b82168092036101aa5760209163780e9d6360e01b8114908115611ae9575b5015158152f35b632483248360e11b811491508115611b03575b5083611ae2565b6380ac58cd60e01b811491508115611b35575b8115611b24575b5083611afc565b6301ffc9a760e01b14905083611b1d565b635b5e139f60e01b81149150611b16565b60005b838110611b595750506000910152565b8181015183820152602001611b49565b90602091611b8281518092818552858086019101611b46565b601f01601f1916010190565b600435906001600160a01b03821682036101aa57565b602435906001600160a01b03821682036101aa57565b60609060031901126101aa576004356001600160a01b03811681036101aa57906024356001600160a01b03811681036101aa579060443590565b90600182811c92168015611c24575b6020831014611c0e57565b634e487b7160e01b600052602260045260246000fd5b91607f1691611c03565b90601f801991011681019081106001600160401b03821117610a0357604052565b6001600160401b038111610a0357601f01601f191660200190565b81601f820112156101aa57803590611c8182611c4f565b92611c8f6040519485611c2e565b828452602083830101116101aa57816000926020809301838601378301015290565b9091906001600160a01b0383168015612088576000906001600160a01b03611cd885612c2c565b16612067575b8382526007602052426040832055611cf584612c2c565b9133151580611fbb575b506001600160a01b0383169586158015611f7c575b611d1d826120d7565b805460010190558683527f80bb2b638cc20bc4d0a60d66940f3ab4a00c1d7b313497ca82fb0b4ab00793026020526040832080546001600160a01b031916851790558684897fddf252ad1be2c89b69c2b068fc378daa952ba7f163c4a11628f55a4df523b3ef8680a415611ecb57600080516020612e1c833981519152548683527f645e039705490088daad89bae25049a34f4a9072d398537b1ab2425f24cbed03602052806040842055600160401b811015611eb75786611df5826001611e0e9401600080516020612e1c8339815191525561219a565b90919082549060031b91821b91600019901b1916179055565b828703611e48575b5050505060018060a01b0316808303611e2e57505050565b6364283d7b60e01b60005260045260245260445260646000fd5b611e519061220b565b600019810192908311611ea357906040918152600080516020612dbc8339815191526020528181208382526020528582822055858152600080516020612d9c8339815191526020522055388080611e16565b634e487b7160e01b82526011600452602482fd5b634e487b7160e01b83526041600452602483fd5b868314611e0e57611edb8461220b565b868352600080516020612d9c833981519152602052604083205490888452600080516020612dbc8339815191526020526040842091818103611f44575b50878452600080516020612d9c8339815191526020528360408120558352602052816040812055611e0e565b818552826020526040852054818652836020528060408720558552600080516020612d9c833981519152602052604085205538611f18565b6000878152600080516020612e5c8339815191526020526040902080546001600160a01b0319169055611fae856120d7565b8054600019019055611d14565b80612004575b15611fcc5738611cff565b9250506001600160a01b0316611fee57602491637e27328960e01b8252600452fd5b60449163177e802f60e01b825233600452602452fd5b506001600160a01b0383163314801561204a575b80611fc157506000858152600080516020612e5c83398151915260205260409020546001600160a01b03163314611fc1565b506120548361209e565b338252602052604081205460ff16612018565b6002546001600160a01b03163314611cde5763dc8d8db760e01b8252600482fd5b633250574960e11b600052600060045260246000fd5b6001600160a01b031660009081527f80bb2b638cc20bc4d0a60d66940f3ab4a00c1d7b313497ca82fb0b4ab00793056020526040902090565b6001600160a01b031660009081527f80bb2b638cc20bc4d0a60d66940f3ab4a00c1d7b313497ca82fb0b4ab00793036020526040902090565b6121198161220b565b8210156121525760018060a01b0316600052600080516020612dbc83398151915260205260406000209060005260205260406000205490565b63295f44f760e21b60005260018060a01b031660045260245260446000fd5b156121795750565b63988d1f0360e01b60009081526001600160a01b0391909116600452602490fd5b600080516020612e1c833981519152548110156113ca57600080516020612e1c83398151915260005260206000200190600090565b6001600160401b038111610a035760051b60200190565b60001981146121f55760010190565b634e487b7160e01b600052601160045260246000fd5b6001600160a01b0381161561222757612223906120d7565b5490565b6322718ad960e21b600052600060045260246000fd5b60016001600160401b0319600080516020612e7c833981519152541617600080516020612e7c83398151915255565b6001600160a01b031680156122cc57600080516020612dfc83398151915280546001600160a01b0319811683179091556001600160a01b03167f8be0079c531659141344cd1fd0a4f28419497f9722a3daafe3b4186f6b6457e0600080a3565b631e4fbdf760e01b600052600060045260246000fd5b6122eb81612c2c565b906001600160a01b038216156122ff575090565b637e27328960e01b60005260045260246000fd5b90602090604051906123258383611c2e565b60008252604051608081019060a0810160405260008252600a83925b600019019260308282060184530491821561235e57600a90612341565b8092506080910361237f82820180601f198601526040519488860190611b46565b8201018160006005549261239284611bf4565b938860018216918260001461296c575050600114612922575b506123bf925003601f198101835282611c2e565b816000527f0542a41881ee128a365a727b282c86fa859579490b9bb45aab8503648c8e790084526040600020908051906001600160401b038211610a035781906124098454611bf4565b601f81116128d1575b508690601f831160011461286c57600092612861575b50508160011b916000199060031b1c19161790555b7ff8e1a15aba9398e019f0b49df1a4fde98ee17ae345cb5f6b5e2c27f5033e8ce783604051838152a16001600160a01b0384169384156120885760006001600160a01b0361248a84612c2c565b16612840575b828152600785524260408220556124a683612c2c565b6001600160a01b03811680158015939190899085612801575b6124c8876120d7565b805460010190558784527f80bb2b638cc20bc4d0a60d66940f3ab4a00c1d7b313497ca82fb0b4ab00793028a526040842080546001600160a01b031916831790558782847fddf252ad1be2c89b69c2b068fc378daa952ba7f163c4a11628f55a4df523b3ef8780a4156127565750600080516020612e1c833981519152548683527f645e039705490088daad89bae25049a34f4a9072d398537b1ab2425f24cbed038952806040842055600160401b811015611eb757906125a187611df58460018e9601600080516020612e1c8339815191525561219a565b036126ec575b50506126d6573b6125b9575b50505050565b916125f791819495936040519384928392630a85bd0160e11b8452336004850152600060248501526044840152608060648401526084830190611b69565b03816000885af18091600091612698575b509061265f5750503d15612658573d61262081611c4f565b9061262e6040519283611c2e565b81523d60008383013e5b805191826126555783633250574960e11b60005260045260246000fd5b01fd5b6060612638565b909291506001600160e01b03191663757a42ff60e11b016126845750388080806125b3565b633250574960e11b60005260045260246000fd5b8481813d83116126cf575b6126ad8183611c2e565b8101031261174f5751906001600160e01b031982168203611674575038612608565b503d6126a3565b6339e3563760e11b600052600060045260246000fd5b6126f58461220b565b60001981019190821161274257808960409252600080516020612dbc833981519152895281812083825289528682822055868152600080516020612d9c83398151915289522055386125a7565b634e487b7160e01b81526011600452602490fd5b908082146125a1576127678461220b565b878452600080516020612d9c8339815191528a52604084205490828552600080516020612dbc8339815191528b5260408520918181036127cc575b50888552600080516020612d9c8339815191528b52846040812055845289528260408120556125a1565b818652828c526040862054818752838d528060408820558652600080516020612d9c8339815191528c526040862055386127a2565b6000888152600080516020612e5c8339815191526020526040902080546001600160a01b0319169055612833856120d7565b80546000190190556124bf565b6002546001600160a01b031633146124905763dc8d8db760e01b8152600490fd5b015190503880612428565b60008581528881209350601f198516905b898282106128bb5750509084600195949392106128a2575b505050811b01905561243d565b015160001960f88460031b161c19169055388080612895565b600185968293968601518155019501930161287d565b9091508360005286600020601f840160051c810191888510612918575b90601f859493920160051c01905b8181106129095750612412565b600081558493506001016128fc565b90915081906128ee565b8791506005600052600080516020612d7c8339815191526000905b858210612953575050926123bf930101386123ab565b805483830185015286945089939091019060010161293d565b9093506123bf95915060ff191683830152801515020101386123ab565b600080516020612dfc833981519152546001600160a01b031633036129aa57565b63118cdaa760e01b6000523360045260246000fd5b823b6129cd575b5050505050565b604051630a85bd0160e11b81526001600160a01b039182166004820152918116602483015260448201939093526080606482015291169160209082908190612a19906084830190611b69565b03816000865af18091600091612aa5575b5090612a8357503d15612a7c573d612a4181611c4f565b90612a4f6040519283611c2e565b81523d6000602083013e5b80519081612a775782633250574960e11b60005260045260246000fd5b602001fd5b6060612a5a565b6001600160e01b03191663757a42ff60e11b01612684575038808080806129c6565b6020813d602011612ae0575b81612abe60209383611c2e565b8101031261174f5751906001600160e01b031982168203611674575038612a2a565b3d9150612ab1565b612af1816122e2565b506000527f0542a41881ee128a365a727b282c86fa859579490b9bb45aab8503648c8e7900602052604060002060405190816000825492612b3184611bf4565b8084529360018116908115612bb15750600114612b6a575b50612b5692500382611c2e565b6000604051612b66602082611c2e565b5290565b90506000929192526020600020906000915b818310612b95575050906020612b569282010138612b49565b6020919350806001915483858801015201910190918392612b7c565b905060209250612b5694915060ff191682840152151560051b82010138612b49565b81601f820112156101aa578051612be981611c4f565b92612bf76040519485611c2e565b818452602082840101116101aa57612c159160208085019101611b46565b90565b51906001600160a01b03821682036101aa57565b60009081527f80bb2b638cc20bc4d0a60d66940f3ab4a00c1d7b313497ca82fb0b4ab007930260205260409020546001600160a01b031690565b6000612c94612ca2829360405192839163104c13eb60e21b6020840152602060248401526044830190611b69565b03601f198101835282611c2e565b6020815191016a636f6e736f6c652e6c6f675afa50565b612cec612ca260009392612c948594604051948593634b5c427760e01b6020860152604060248601526064850190611b69565b83810360231901604485015290611b69565b612d2e612ca260009392849360405193849263319af33360e01b6020850152604060248501526064840190611b69565b6001600160a01b0391909116604483015203601f198101835282611c2e565b60ff600080516020612e7c8339815191525460401c1615612d6a57565b631afcd79f60e31b60005260046000fdfe036b6384b5eca791c62761152d0c79bb0604c104a5fb6f4eb0703f3154bb3db0645e039705490088daad89bae25049a34f4a9072d398537b1ab2425f24cbed01645e039705490088daad89bae25049a34f4a9072d398537b1ab2425f24cbed0080bb2b638cc20bc4d0a60d66940f3ab4a00c1d7b313497ca82fb0b4ab00793009016d09d72d40fdae2fd8ceac6b6234c7706214fd39c1cd1e609a0528c199300645e039705490088daad89bae25049a34f4a9072d398537b1ab2425f24cbed028a35acfbc15ff81a39ae7d344fd709f28e8600b4aa8c65c6b64bfe7fe36bd19b80bb2b638cc20bc4d0a60d66940f3ab4a00c1d7b313497ca82fb0b4ab0079304f0c57e16840df040f15088dc2f81fe391c3923bec73e23a9662efc9c229c6a0080bb2b638cc20bc4d0a60d66940f3ab4a00c1d7b313497ca82fb0b4ab007930137c58c799b6609234b945e882912ee9ad34948a1dfaa20a97485e1a7752bbf81a2646970667358221220a25e556e8116623bc783ea2071fb5567a0567cf3c646a50011c2005773324a4564736f6c634300081c0033",
  "linkReferences": {},
  "deployedLinkReferences": {}
}