{
  "_format": "hh-sol-artifact-1",
  "contractName": "SCRInitialize",
  "sourceName": "contracts/core/Initialize/functions/SCRInitialize.sol",
  "abi": [
    {
      "anonymous": false,
      "inputs": [
        {
          "indexed": true,
          "internalType": "address",
          "name": "defaultAdmin",
          "type": "address"
        }
      ],
      "name": "InitializeBorderless",
      "type": "event"
    },
    {
      "inputs": [
        {
          "internalType": "address",
          "name": "defaultAdmin",
          "type": "address"
        }
      ],
      "name": "initialize",
      "outputs": [],
      "stateMutability": "nonpayable",
      "type": "function"
    }
  ],
  "bytecode": "0x608080604052346015576101da908161001b8239f35b600080fdfe608080604052600436101561001357600080fd5b60003560e01c63c4d66de81461002857600080fd5b34610167576020366003190112610167576004356001600160a01b038116919082900361016757602081017ff158cb8b47a14bda3b2c4affcc0d960e9ed23f5a516e4779510b08a6e823c02581526020825261008560408361016c565b9051902060ff1916805460ff811661012c5760019060ff1916179055604051602081017fcf377bf0da9cb35454543c63ad54bf2c5a0466b629ac7517e61f8857cae0fa258152602082526100da60408361016c565b60ff199151902016600080526020526040600020816000526020526040600020600160ff198254161790557f36e9a2290af62c469d8613e574c5d2032ca1e5b32254ec5e33fb50dc821ed1fd600080a2005b60405162461bcd60e51b8152602060048201526013602482015272105b1c9958591e481a5b9a5d1a585b1a5e9959606a1b6044820152606490fd5b600080fd5b90601f8019910116810190811067ffffffffffffffff82111761018e57604052565b634e487b7160e01b600052604160045260246000fdfea26469706673582212209157683f6eb1fdb9b8472c2753f3f29e7ece5382694716abf332e2f8fa6e16ce64736f6c634300081c0033",
  "linkReferences": {},
  "deployedLinkReferences": {}
}