{
  "_format": "hh-sol-artifact-1",
  "contractName": "ServiceFactoryBeaconUpgradeable",
  "sourceName": "contracts/scr/BeaconUpgradeableBase/functions/ServiceFactoryBeaconUpgradeable.sol",
  "abi": [
    {
      "inputs": [
        {
          "internalType": "address",
          "name": "beacon",
          "type": "address"
        }
      ],
      "name": "BeaconAlreadyOnlineOrOffline",
      "type": "error"
    },
    {
      "inputs": [
        {
          "internalType": "string",
          "name": "str",
          "type": "string"
        }
      ],
      "name": "EmptyString",
      "type": "error"
    },
    {
      "inputs": [
        {
          "internalType": "address",
          "name": "beacon",
          "type": "address"
        }
      ],
      "name": "InvalidBeacon",
      "type": "error"
    },
    {
      "anonymous": false,
      "inputs": [
        {
          "indexed": true,
          "internalType": "address",
          "name": "beacon",
          "type": "address"
        },
        {
          "indexed": false,
          "internalType": "string",
          "name": "name",
          "type": "string"
        }
      ],
      "name": "BeaconNameUpdated",
      "type": "event"
    },
    {
      "anonymous": false,
      "inputs": [
        {
          "indexed": true,
          "internalType": "address",
          "name": "beacon",
          "type": "address"
        }
      ],
      "name": "BeaconOffline",
      "type": "event"
    },
    {
      "anonymous": false,
      "inputs": [
        {
          "indexed": true,
          "internalType": "address",
          "name": "beacon",
          "type": "address"
        }
      ],
      "name": "BeaconOnline",
      "type": "event"
    },
    {
      "inputs": [
        {
          "internalType": "address",
          "name": "beacon",
          "type": "address"
        },
        {
          "internalType": "bool",
          "name": "isOnline",
          "type": "bool"
        }
      ],
      "name": "changeServiceFactoryBeaconOnline",
      "outputs": [],
      "stateMutability": "nonpayable",
      "type": "function"
    },
    {
      "inputs": [
        {
          "internalType": "address",
          "name": "beacon",
          "type": "address"
        }
      ],
      "name": "getServiceFactoryBeacon",
      "outputs": [
        {
          "components": [
            {
              "internalType": "string",
              "name": "name",
              "type": "string"
            },
            {
              "internalType": "address",
              "name": "implementation",
              "type": "address"
            },
            {
              "internalType": "bool",
              "name": "isOnline",
              "type": "bool"
            },
            {
              "internalType": "uint256",
              "name": "proxyCount",
              "type": "uint256"
            }
          ],
          "internalType": "struct IBeaconUpgradeableBaseStructs.Beacon",
          "name": "",
          "type": "tuple"
        }
      ],
      "stateMutability": "view",
      "type": "function"
    },
    {
      "inputs": [
        {
          "internalType": "address",
          "name": "proxy",
          "type": "address"
        }
      ],
      "name": "getServiceFactoryProxy",
      "outputs": [
        {
          "components": [
            {
              "internalType": "string",
              "name": "name",
              "type": "string"
            },
            {
              "internalType": "address",
              "name": "beacon",
              "type": "address"
            }
          ],
          "internalType": "struct IBeaconUpgradeableBaseStructs.Proxy",
          "name": "",
          "type": "tuple"
        }
      ],
      "stateMutability": "view",
      "type": "function"
    },
    {
      "inputs": [
        {
          "internalType": "address",
          "name": "beacon",
          "type": "address"
        },
        {
          "internalType": "string",
          "name": "name",
          "type": "string"
        }
      ],
      "name": "updateServiceFactoryBeaconName",
      "outputs": [
        {
          "components": [
            {
              "internalType": "string",
              "name": "name",
              "type": "string"
            },
            {
              "internalType": "address",
              "name": "implementation",
              "type": "address"
            },
            {
              "internalType": "bool",
              "name": "isOnline",
              "type": "bool"
            },
            {
              "internalType": "uint256",
              "name": "proxyCount",
              "type": "uint256"
            }
          ],
          "internalType": "struct IBeaconUpgradeableBaseStructs.Beacon",
          "name": "beacon_",
          "type": "tuple"
        }
      ],
      "stateMutability": "nonpayable",
      "type": "function"
    }
  ],
  "bytecode": "0x60808060405234601557610754908161001b8239f35b600080fdfe608080604052600436101561001357600080fd5b60003560e01c90816323333f1b146103e6575080633879257a146101f857806378af8785146101675763a0d208fc1461004b57600080fd5b3461016257604036600319011261016257610064610491565b602435801515808203610162576100796106da565b60018060a01b0384166000526020528060ff60016040600020015460a01c16151514610143576100a76106da565b6001600160a01b038416600090815260209190915260409020600101805460ff60a01b191660a09290921b60ff60a01b1691909117905515610113576001600160a01b03167fc085499009b58c89a48a9136db5d685566f394e1463fdb6a68fb67bff7d51bbe600080a2005b6001600160a01b03167ffe2ff875f46191e3457a6fecc67d4614b610e6618e35bd6fbd0693ebc0c4800d600080a2005b6306a8b29360e11b60009081526001600160a01b038416600452602490fd5b600080fd5b34610162576020366003190112610162576101f46040610185610491565b61018d61066e565b506101966106da565b60009160018060a01b03168252602052206002604051916101b683610560565b6101bf8161059e565b835260ff600182015460018060a01b038116602086015260a01c161515604084015201546060820152604051918291826104e8565b0390f35b3461016257604036600319011261016257610211610491565b60243567ffffffffffffffff811161016257366023820112156101625780600401359167ffffffffffffffff831161016257602482019160248436920101116101625761025c61066e565b506102656106da565b6001600160a01b039091169081151590816103c0575b50156103ac5761028c368484610693565b602090600060405161029e848261057c565b528051828201207fc5d2460186f7233c927e7db2dcc703c0e500b653ca82273b7bfad8045d85a4701461038557508360407f88a60344e42b24d91cf44b213631613b7d33652bffd66e209d48838c9dc5508b92826101f497836102ff6106da565b6000908982528552209760028551996103178b610560565b6103208161059e565b8b5260018101546001600160a01b038116878d015260a01c60ff161515878c0152015460608a0152610353368383610693565b89528451958487958652850152848401376000828201840152601f01601f19168101030190a2604051918291826104e8565b906103a86040519283926318a996bb60e21b8452600484015260248301906104a7565b0390fd5b638ebc912f60e01b60005260045260246000fd5b600083815260209190915260409020600101546001600160a01b0316151590508461027b565b346101625760203660031901126101625760006020610403610491565b9261040d8161052e565b606081520152600161041d6106da565b019060018060a01b031660005260205261047d6040600020604051906104428261052e565b61044b8161059e565b8252600101546001600160a01b03166020808301918252604080518281529351918401529192839260608401906104a7565b90516001600160a01b031660408301520390f35b600435906001600160a01b038216820361016257565b919082519283825260005b8481106104d3575050826000602080949584010152601f8019910116010190565b806020809284010151828286010152016104b2565b6020815260806060610505845183602086015260a08501906104a7565b60208501516001600160a01b031660408581019190915285015115158285015293015191015290565b6040810190811067ffffffffffffffff82111761054a57604052565b634e487b7160e01b600052604160045260246000fd5b6080810190811067ffffffffffffffff82111761054a57604052565b90601f8019910116810190811067ffffffffffffffff82111761054a57604052565b906040519160008154918260011c92600181168015610664575b6020851081146106505784875286939291811561062e57506001146105e7575b506105e59250038361057c565b565b90506000929192526020600020906000915b8183106106125750509060206105e592820101386105d8565b60209193508060019154838589010152019101909184926105f9565b9050602092506105e594915060ff191682840152151560051b820101386105d8565b634e487b7160e01b84526022600452602484fd5b93607f16936105b8565b6040519061067b82610560565b60006060838181528260208201528260408201520152565b92919267ffffffffffffffff821161054a57604051916106bd601f8201601f19166020018461057c565b829481845281830111610162578281602093846000960137010152565b604051602081017f2810609b04caf5f85bb4aaecfb9d3c44224335fe412d57bd4016590897095aa481526020825261071360408361057c565b9051902060ff19169056fea2646970667358221220545730e378f74739fbc18f5671809414c4281bb137cb833aa8734e8135f49a0164736f6c634300081c0033",
  "linkReferences": {},
  "deployedLinkReferences": {}
}