{
  "_format": "hh-sol-artifact-1",
  "contractName": "SCRProxy",
  "sourceName": "contracts/core/Proxy/mock/SCRProxy.sol",
  "abi": [
    {
      "inputs": [
        {
          "internalType": "address",
          "name": "dictionary",
          "type": "address"
        },
        {
          "internalType": "bytes",
          "name": "_data",
          "type": "bytes"
        }
      ],
      "stateMutability": "nonpayable",
      "type": "constructor"
    },
    {
      "inputs": [],
      "name": "DEFAULT_ADMIN_ROLE",
      "outputs": [
        {
          "internalType": "bytes32",
          "name": "",
          "type": "bytes32"
        }
      ],
      "stateMutability": "view",
      "type": "function"
    },
    {
      "inputs": [],
      "name": "FOUNDER_ROLE",
      "outputs": [
        {
          "internalType": "bytes32",
          "name": "",
          "type": "bytes32"
        }
      ],
      "stateMutability": "view",
      "type": "function"
    },
    {
      "inputs": [
        {
          "internalType": "string",
          "name": "legalEntityCode",
          "type": "string"
        },
        {
          "internalType": "string",
          "name": "field",
          "type": "string"
        }
      ],
      "name": "addCompanyInfoFields",
      "outputs": [],
      "stateMutability": "nonpayable",
      "type": "function"
    },
    {
      "inputs": [
        {
          "internalType": "bytes4[]",
          "name": "selectors",
          "type": "bytes4[]"
        },
        {
          "internalType": "address[]",
          "name": "implementations",
          "type": "address[]"
        }
      ],
      "name": "bulkSetImplementation",
      "outputs": [],
      "stateMutability": "nonpayable",
      "type": "function"
    },
    {
      "inputs": [
        {
          "internalType": "address",
          "name": "beacon",
          "type": "address"
        },
        {
          "internalType": "bool",
          "name": "isOnline",
          "type": "bool"
        }
      ],
      "name": "changeSCRBeaconOnline",
      "outputs": [],
      "stateMutability": "nonpayable",
      "type": "function"
    },
    {
      "inputs": [
        {
          "internalType": "address",
          "name": "beacon",
          "type": "address"
        },
        {
          "internalType": "bool",
          "name": "isOnline",
          "type": "bool"
        }
      ],
      "name": "changeServiceFactoryBeaconOnline",
      "outputs": [],
      "stateMutability": "nonpayable",
      "type": "function"
    },
    {
      "inputs": [
        {
          "internalType": "string",
          "name": "scid",
          "type": "string"
        },
        {
          "internalType": "address",
          "name": "beacon",
          "type": "address"
        },
        {
          "internalType": "string",
          "name": "legalEntityCode",
          "type": "string"
        },
        {
          "internalType": "string",
          "name": "companyName",
          "type": "string"
        },
        {
          "internalType": "string",
          "name": "establishmentDate",
          "type": "string"
        },
        {
          "internalType": "string",
          "name": "jurisdiction",
          "type": "string"
        },
        {
          "internalType": "string",
          "name": "entityType",
          "type": "string"
        },
        {
          "internalType": "bytes",
          "name": "scDeployParam",
          "type": "bytes"
        },
        {
          "internalType": "string[]",
          "name": "companyInfo",
          "type": "string[]"
        },
        {
          "internalType": "address[]",
          "name": "scsBeaconProxy",
          "type": "address[]"
        },
        {
          "internalType": "bytes[]",
          "name": "scsDeployParams",
          "type": "bytes[]"
        }
      ],
      "name": "createSmartCompany",
      "outputs": [
        {
          "internalType": "address",
          "name": "company",
          "type": "address"
        },
        {
          "internalType": "address[]",
          "name": "services",
          "type": "address[]"
        },
        {
          "internalType": "enum ServiceType[]",
          "name": "serviceTypes",
          "type": "uint8[]"
        }
      ],
      "stateMutability": "nonpayable",
      "type": "function"
    },
    {
      "inputs": [
        {
          "internalType": "string",
          "name": "legalEntityCode",
          "type": "string"
        },
        {
          "internalType": "uint256",
          "name": "fieldIndex",
          "type": "uint256"
        }
      ],
      "name": "deleteCompanyInfoFields",
      "outputs": [],
      "stateMutability": "nonpayable",
      "type": "function"
    },
    {
      "inputs": [
        {
          "internalType": "string",
          "name": "scid",
          "type": "string"
        },
        {
          "internalType": "string",
          "name": "companyInfoField",
          "type": "string"
        }
      ],
      "name": "getCompanyField",
      "outputs": [
        {
          "internalType": "string",
          "name": "",
          "type": "string"
        }
      ],
      "stateMutability": "view",
      "type": "function"
    },
    {
      "inputs": [
        {
          "internalType": "string",
          "name": "scid",
          "type": "string"
        }
      ],
      "name": "getCompanyInfo",
      "outputs": [
        {
          "components": [
            {
              "internalType": "string",
              "name": "companyName",
              "type": "string"
            },
            {
              "internalType": "address",
              "name": "companyAddress",
              "type": "address"
            },
            {
              "internalType": "address",
              "name": "founder",
              "type": "address"
            },
            {
              "internalType": "string",
              "name": "establishmentDate",
              "type": "string"
            },
            {
              "internalType": "string",
              "name": "jurisdiction",
              "type": "string"
            },
            {
              "internalType": "string",
              "name": "entityType",
              "type": "string"
            },
            {
              "internalType": "uint256",
              "name": "createAt",
              "type": "uint256"
            },
            {
              "internalType": "uint256",
              "name": "updateAt",
              "type": "uint256"
            }
          ],
          "internalType": "struct ICompanyInfoStructs.CompanyInfo",
          "name": "",
          "type": "tuple"
        }
      ],
      "stateMutability": "view",
      "type": "function"
    },
    {
      "inputs": [
        {
          "internalType": "string",
          "name": "legalEntityCode",
          "type": "string"
        }
      ],
      "name": "getCompanyInfoFields",
      "outputs": [
        {
          "internalType": "string[]",
          "name": "",
          "type": "string[]"
        }
      ],
      "stateMutability": "view",
      "type": "function"
    },
    {
      "inputs": [],
      "name": "getFacade",
      "outputs": [
        {
          "internalType": "address",
          "name": "",
          "type": "address"
        }
      ],
      "stateMutability": "view",
      "type": "function"
    },
    {
      "inputs": [
        {
          "internalType": "address",
          "name": "founder",
          "type": "address"
        }
      ],
      "name": "getFounderCompanies",
      "outputs": [
        {
          "internalType": "string",
          "name": "",
          "type": "string"
        }
      ],
      "stateMutability": "view",
      "type": "function"
    },
    {
      "inputs": [
        {
          "internalType": "address",
          "name": "founder",
          "type": "address"
        },
        {
          "internalType": "enum ServiceType",
          "name": "serviceType",
          "type": "uint8"
        }
      ],
      "name": "getFounderService",
      "outputs": [
        {
          "internalType": "address",
          "name": "",
          "type": "address"
        }
      ],
      "stateMutability": "view",
      "type": "function"
    },
    {
      "inputs": [
        {
          "internalType": "bytes4",
          "name": "selector",
          "type": "bytes4"
        }
      ],
      "name": "getImplementation",
      "outputs": [
        {
          "internalType": "address",
          "name": "",
          "type": "address"
        }
      ],
      "stateMutability": "view",
      "type": "function"
    },
    {
      "inputs": [
        {
          "internalType": "bytes32",
          "name": "role",
          "type": "bytes32"
        }
      ],
      "name": "getRoleAdmin",
      "outputs": [
        {
          "internalType": "bytes32",
          "name": "",
          "type": "bytes32"
        }
      ],
      "stateMutability": "view",
      "type": "function"
    },
    {
      "inputs": [
        {
          "internalType": "address",
          "name": "beacon",
          "type": "address"
        }
      ],
      "name": "getSCRBeacon",
      "outputs": [
        {
          "components": [
            {
              "internalType": "string",
              "name": "name",
              "type": "string"
            },
            {
              "internalType": "address",
              "name": "implementation",
              "type": "address"
            },
            {
              "internalType": "bool",
              "name": "isOnline",
              "type": "bool"
            },
            {
              "internalType": "uint256",
              "name": "proxyCount",
              "type": "uint256"
            }
          ],
          "internalType": "struct IBeaconUpgradeableBaseStructs.Beacon",
          "name": "",
          "type": "tuple"
        }
      ],
      "stateMutability": "view",
      "type": "function"
    },
    {
      "inputs": [
        {
          "internalType": "address",
          "name": "proxy",
          "type": "address"
        }
      ],
      "name": "getSCRProxy",
      "outputs": [
        {
          "components": [
            {
              "internalType": "string",
              "name": "name",
              "type": "string"
            },
            {
              "internalType": "address",
              "name": "beacon",
              "type": "address"
            }
          ],
          "internalType": "struct IBeaconUpgradeableBaseStructs.Proxy",
          "name": "",
          "type": "tuple"
        }
      ],
      "stateMutability": "view",
      "type": "function"
    },
    {
      "inputs": [
        {
          "internalType": "address",
          "name": "beacon",
          "type": "address"
        }
      ],
      "name": "getServiceFactoryBeacon",
      "outputs": [
        {
          "components": [
            {
              "internalType": "string",
              "name": "name",
              "type": "string"
            },
            {
              "internalType": "address",
              "name": "implementation",
              "type": "address"
            },
            {
              "internalType": "bool",
              "name": "isOnline",
              "type": "bool"
            },
            {
              "internalType": "uint256",
              "name": "proxyCount",
              "type": "uint256"
            }
          ],
          "internalType": "struct IBeaconUpgradeableBaseStructs.Beacon",
          "name": "",
          "type": "tuple"
        }
      ],
      "stateMutability": "view",
      "type": "function"
    },
    {
      "inputs": [
        {
          "internalType": "address",
          "name": "proxy",
          "type": "address"
        }
      ],
      "name": "getServiceFactoryProxy",
      "outputs": [
        {
          "components": [
            {
              "internalType": "string",
              "name": "name",
              "type": "string"
            },
            {
              "internalType": "address",
              "name": "beacon",
              "type": "address"
            }
          ],
          "internalType": "struct IBeaconUpgradeableBaseStructs.Proxy",
          "name": "",
          "type": "tuple"
        }
      ],
      "stateMutability": "view",
      "type": "function"
    },
    {
      "inputs": [
        {
          "internalType": "address",
          "name": "beacon",
          "type": "address"
        }
      ],
      "name": "getServiceType",
      "outputs": [
        {
          "internalType": "enum ServiceType",
          "name": "",
          "type": "uint8"
        }
      ],
      "stateMutability": "view",
      "type": "function"
    },
    {
      "inputs": [
        {
          "internalType": "bytes32",
          "name": "role",
          "type": "bytes32"
        },
        {
          "internalType": "address",
          "name": "account",
          "type": "address"
        }
      ],
      "name": "grantRole",
      "outputs": [],
      "stateMutability": "nonpayable",
      "type": "function"
    },
    {
      "inputs": [
        {
          "internalType": "bytes32",
          "name": "role",
          "type": "bytes32"
        },
        {
          "internalType": "address",
          "name": "account",
          "type": "address"
        }
      ],
      "name": "hasRole",
      "outputs": [
        {
          "internalType": "bool",
          "name": "",
          "type": "bool"
        }
      ],
      "stateMutability": "view",
      "type": "function"
    },
    {
      "inputs": [
        {
          "internalType": "address",
          "name": "dictionary",
          "type": "address"
        }
      ],
      "name": "initialize",
      "outputs": [],
      "stateMutability": "nonpayable",
      "type": "function"
    },
    {
      "inputs": [],
      "name": "owner",
      "outputs": [
        {
          "internalType": "address",
          "name": "",
          "type": "address"
        }
      ],
      "stateMutability": "view",
      "type": "function"
    },
    {
      "inputs": [],
      "name": "renounceOwnership",
      "outputs": [],
      "stateMutability": "nonpayable",
      "type": "function"
    },
    {
      "inputs": [
        {
          "internalType": "bytes32",
          "name": "role",
          "type": "bytes32"
        },
        {
          "internalType": "address",
          "name": "callerConfirmation",
          "type": "address"
        }
      ],
      "name": "renounceRole",
      "outputs": [],
      "stateMutability": "nonpayable",
      "type": "function"
    },
    {
      "inputs": [
        {
          "internalType": "bytes32",
          "name": "role",
          "type": "bytes32"
        },
        {
          "internalType": "address",
          "name": "account",
          "type": "address"
        }
      ],
      "name": "revokeRole",
      "outputs": [],
      "stateMutability": "nonpayable",
      "type": "function"
    },
    {
      "inputs": [
        {
          "internalType": "string",
          "name": "scid",
          "type": "string"
        },
        {
          "internalType": "string",
          "name": "companyInfoField",
          "type": "string"
        },
        {
          "internalType": "string",
          "name": "value",
          "type": "string"
        }
      ],
      "name": "setCompanyInfo",
      "outputs": [],
      "stateMutability": "nonpayable",
      "type": "function"
    },
    {
      "inputs": [
        {
          "internalType": "bytes4",
          "name": "selector",
          "type": "bytes4"
        },
        {
          "internalType": "address",
          "name": "implementation",
          "type": "address"
        }
      ],
      "name": "setImplementation",
      "outputs": [],
      "stateMutability": "nonpayable",
      "type": "function"
    },
    {
      "inputs": [
        {
          "internalType": "address",
          "name": "letsBeacon",
          "type": "address"
        },
        {
          "internalType": "address",
          "name": "letsSaleBeacon",
          "type": "address"
        }
      ],
      "name": "setLetsSaleBeacon",
      "outputs": [],
      "stateMutability": "nonpayable",
      "type": "function"
    },
    {
      "inputs": [
        {
          "internalType": "address",
          "name": "account",
          "type": "address"
        },
        {
          "internalType": "address",
          "name": "implementation",
          "type": "address"
        }
      ],
      "name": "setOnceInitialized",
      "outputs": [],
      "stateMutability": "nonpayable",
      "type": "function"
    },
    {
      "inputs": [
        {
          "internalType": "address",
          "name": "scImplementation",
          "type": "address"
        },
        {
          "internalType": "string",
          "name": "scName",
          "type": "string"
        }
      ],
      "name": "setSCContract",
      "outputs": [
        {
          "internalType": "address",
          "name": "",
          "type": "address"
        }
      ],
      "stateMutability": "nonpayable",
      "type": "function"
    },
    {
      "inputs": [
        {
          "internalType": "address",
          "name": "implementation",
          "type": "address"
        },
        {
          "internalType": "string",
          "name": "name",
          "type": "string"
        },
        {
          "internalType": "enum ServiceType",
          "name": "serviceType",
          "type": "uint8"
        }
      ],
      "name": "setService",
      "outputs": [
        {
          "internalType": "address",
          "name": "",
          "type": "address"
        }
      ],
      "stateMutability": "nonpayable",
      "type": "function"
    },
    {
      "inputs": [
        {
          "internalType": "bytes4",
          "name": "interfaceId",
          "type": "bytes4"
        }
      ],
      "name": "supportsInterface",
      "outputs": [
        {
          "internalType": "bool",
          "name": "",
          "type": "bool"
        }
      ],
      "stateMutability": "view",
      "type": "function"
    },
    {
      "inputs": [
        {
          "internalType": "address",
          "name": "newOwner",
          "type": "address"
        }
      ],
      "name": "transferOwnership",
      "outputs": [],
      "stateMutability": "nonpayable",
      "type": "function"
    },
    {
      "inputs": [
        {
          "internalType": "string",
          "name": "legalEntityCode",
          "type": "string"
        },
        {
          "internalType": "uint256",
          "name": "fieldIndex",
          "type": "uint256"
        },
        {
          "internalType": "string",
          "name": "field",
          "type": "string"
        }
      ],
      "name": "updateCompanyInfoFields",
      "outputs": [],
      "stateMutability": "nonpayable",
      "type": "function"
    },
    {
      "inputs": [
        {
          "internalType": "address",
          "name": "scBeacon",
          "type": "address"
        },
        {
          "internalType": "address",
          "name": "newSCImplementation",
          "type": "address"
        }
      ],
      "name": "updateSCContract",
      "outputs": [],
      "stateMutability": "nonpayable",
      "type": "function"
    },
    {
      "inputs": [
        {
          "internalType": "address",
          "name": "beacon",
          "type": "address"
        },
        {
          "internalType": "string",
          "name": "name",
          "type": "string"
        }
      ],
      "name": "updateSCRBeaconName",
      "outputs": [
        {
          "components": [
            {
              "internalType": "string",
              "name": "name",
              "type": "string"
            },
            {
              "internalType": "address",
              "name": "implementation",
              "type": "address"
            },
            {
              "internalType": "bool",
              "name": "isOnline",
              "type": "bool"
            },
            {
              "internalType": "uint256",
              "name": "proxyCount",
              "type": "uint256"
            }
          ],
          "internalType": "struct IBeaconUpgradeableBaseStructs.Beacon",
          "name": "",
          "type": "tuple"
        }
      ],
      "stateMutability": "nonpayable",
      "type": "function"
    },
    {
      "inputs": [
        {
          "internalType": "address",
          "name": "beacon",
          "type": "address"
        },
        {
          "internalType": "string",
          "name": "name",
          "type": "string"
        }
      ],
      "name": "updateServiceFactoryBeaconName",
      "outputs": [
        {
          "components": [
            {
              "internalType": "string",
              "name": "name",
              "type": "string"
            },
            {
              "internalType": "address",
              "name": "implementation",
              "type": "address"
            },
            {
              "internalType": "bool",
              "name": "isOnline",
              "type": "bool"
            },
            {
              "internalType": "uint256",
              "name": "proxyCount",
              "type": "uint256"
            }
          ],
          "internalType": "struct IBeaconUpgradeableBaseStructs.Beacon",
          "name": "",
          "type": "tuple"
        }
      ],
      "stateMutability": "nonpayable",
      "type": "function"
    },
    {
      "inputs": [
        {
          "internalType": "address",
          "name": "newFacade",
          "type": "address"
        }
      ],
      "name": "upgradeFacade",
      "outputs": [],
      "stateMutability": "nonpayable",
      "type": "function"
    }
  ],
  "bytecode": "0x6080604052346100c557610e7580380380610019816100e0565b9283398101906040818303126100c55780516001600160a01b038116036100c5576020810151906001600160401b0382116100c557019080601f830112156100c5578151906001600160401b0382116100ca5761007f601f8301601f19166020016100e0565b90828252602083850101116100c55760005b8281106100b057600060208484010152604051610d6f90816101068239f35b80602080928601015182828501015201610091565b600080fd5b634e487b7160e01b600052604160045260246000fd5b6040519190601f01601f191682016001600160401b038111838210176100ca5760405256fe608080604052600436101561001357600080fd5b60003560e01c90816301ffc9a71461096c575080630815f6fd1461094a5780630863633c146108115780630e8ac815146107e15780630fb955331461031e57806323333f1b14610323578063248a9ca3146107c55780632f2ff15d1461031957806336568abe146103195780633879257a146104dd5780633a5b89f0146107745780633a60f2b2146105615780634e5f4d4014610533578063518fd6c1146104e2578063620ffe26146104dd578063638401491461049557806363c26fdd146104ad578063651dc03d146101e7578063715018a61461049a5780637621b79f1461032857806378af87851461049557806385a59bef1461047957806386ec366f1461037e5780638da5cb5b1461031e57806391d1485414610365578063958962801461033b5780639d123f6b146101e2578063a05aa4891461032d578063a0d208fc14610328578063a217fddf1461031e578063acc7a588146101e2578063b20ad26014610323578063c1e6f3041461031e578063c4d66de8146101e7578063d547741f14610319578063db0cf0ea14610300578063dc9cc645146102db578063e150812c14610288578063e54d64f9146101ec578063f2fde38b146101e75763f6d81789146101e257600080fd5b610ceb565b610c10565b34610283576020366003190112610283576004356001600160401b0381116102835761021c9036906004016109d2565b50506040518060208101602082526060518091526040820160408260051b840101916080916000905b82821061025457505050500390f35b919360019193955060206102738192603f198a82030186528851610a45565b9601920192018594939192610245565b600080fd5b34610283576060366003190112610283576004356001600160401b038111610283576102b89036906004016109d2565b50506044356001600160401b038111610283576102d99036906004016109d2565b005b34610283576020366003190112610283576102f461098f565b50602060405160008152f35b34610283576020366003190112610283576102f46109bc565b610af1565b610a5e565b610a7a565b610c29565b34610283576102d936610c9f565b346102835761034936610c9f565b50505050604051602081528061036160208201610a22565b0390f35b34610283576040366003190112610283576102f46109a6565b34610283576040366003190112610283576004356001600160401b038111610283573660238201121561028357806004013590602460206103c66103c185610c88565b610c63565b848152019260051b8201019036821161028357602401915b818310610458576024356001600160401b038111610283573660238201121561028357806004013590602460206104176103c185610c88565b848152019260051b8201019036821161028357602401915b81831061043857005b82356001600160a01b03811681036102835781526020928301920161042f565b82356001600160e01b031981168103610283578152602092830192016103de565b346102835761048736610b0a565b505050602060405160008152f35b610beb565b3461028357600036600319011261028357005b34610283576040366003190112610283576004356001600160401b038111610283576102d99036906004016109d2565b610b93565b34610283576060366003190112610283576004356001600160401b038111610283576105129036906004016109d2565b50506024356001600160401b038111610283576102b89036906004016109d2565b346102835760203660031901126102835761054c6109bc565b50604051602081528061036160208201610a22565b3461028357610160366003190112610283576004356001600160401b038111610283576105929036906004016109d2565b505061059c6109a6565b506044356001600160401b038111610283576105bc9036906004016109d2565b50506064356001600160401b038111610283576105dd9036906004016109d2565b50506084356001600160401b038111610283576105fe9036906004016109d2565b505060a4356001600160401b0381116102835761061f9036906004016109d2565b505060c4356001600160401b038111610283576106409036906004016109d2565b505060e4356001600160401b038111610283576106619036906004016109d2565b5050610104356001600160401b03811161028357610683903690600401610bbb565b5050610124356001600160401b038111610283576106a5903690600401610bbb565b5050610144356001600160401b038111610283576106c7903690600401610bbb565b505060405160608101906000815260606020820152606051809252608081019160809060005b8181106107555750505080820360408201526020606051928381520160806000935b80851061071c5783830384f35b9091825190600782101561073f576020816001938293520193019401939061070f565b634e487b7160e01b600052602160045260246000fd5b82516001600160a01b03168552602094850194909201916001016106ed565b346102835760603660031901126102835761078d6109bc565b506024356001600160401b038111610283576107ad9036906004016109d2565b50506007604435101561028357602060405160008152f35b3461028357602036600319011261028357602060405160008152f35b34610283576040366003190112610283576107fa6109bc565b506007602435101561028357602060405160008152f35b34610283576020366003190112610283576004356001600160401b038111610283576108419036906004016109d2565b505060405161010081018181106001600160401b03821117610934576101009160209160405260608152818101906000825261092260408201926000845261090f6060840191606083526108fc60808601916060835260a08701946060865260c088019860008a526108d060e08a019960008b526040519d8d8f9e928f938452519201526101208d0190610a45565b92516001600160a01b0390811660408d015290511660608b015251898203601f190160808b0152610a45565b9051878203601f190160a0890152610a45565b9051858203601f190160c0870152610a45565b915160e0840152516101008301520390f35b634e487b7160e01b600052604160045260246000fd5b346102835760403660031901126102835761096361098f565b506102d96109a6565b346102835760203660031901126102835760209061098861098f565b5060008152f35b600435906001600160e01b03198216820361028357565b602435906001600160a01b038216820361028357565b600435906001600160a01b038216820361028357565b9181601f84011215610283578235916001600160401b038311610283576020838186019501011161028357565b60005b838110610a125750506000910152565b8181015183820152602001610a02565b602090606051808252610a398184840160806109ff565b601f01601f1916010190565b90602091610a39815180928185528580860191016109ff565b3461028357600036600319011261028357602060405160008152f35b3461028357602036600319011261028357610a936109bc565b5060405160408101908082106001600160401b0383111761093457610add916040526060815260208101600081526040519283926020845251604060208501526060840190610a45565b90516001600160a01b031660408301520390f35b34610283576040366003190112610283576102d96109a6565b906040600319830112610283576004356001600160a01b03811681036102835791602435906001600160401b03821161028357610b49916004016109d2565b9091565b6020815260806060610b6a845183602086015260a0850190610a45565b60208501516001600160a01b031660408581019190915285015115158285015293015191015290565b3461028357610ba136610b0a565b505050610361610baf610d04565b60405191829182610b4d565b9181601f84011215610283578235916001600160401b038311610283576020808501948460051b01011161028357565b3461028357602036600319011261028357610c046109bc565b50610361610baf610d04565b34610283576020366003190112610283576102d96109bc565b346102835760006040366003190112610c6057600435906001600160a01b0382168203610c60575050602435801515810361028357005b80fd5b6040519190601f01601f191682016001600160401b0381118382101761093457604052565b6001600160401b0381116109345760051b60200190565b6040600319820112610283576004356001600160401b0381116102835781610cc9916004016109d2565b92909291602435906001600160401b03821161028357610b49916004016109d2565b34610283576040366003190112610283576109636109bc565b60405190608082018281106001600160401b03821117610934576040526000606083818152826020820152826040820152015256fea26469706673582212200c385785b185f6958f848378c9b413ac15eb62e2bbdbff41979c7e136fac0c9a64736f6c634300081c0033",
  "linkReferences": {},
  "deployedLinkReferences": {}
}