{
  "_format": "hh-sol-artifact-1",
  "contractName": "BorderlessAccessControl",
  "sourceName": "contracts/core/BorderlessAccessControl/functions/BorderlessAccessControl.sol",
  "abi": [
    {
      "inputs": [],
      "name": "AccessControlBadConfirmation",
      "type": "error"
    },
    {
      "inputs": [
        {
          "internalType": "address",
          "name": "account",
          "type": "address"
        },
        {
          "internalType": "bytes32",
          "name": "neededRole",
          "type": "bytes32"
        }
      ],
      "name": "AccessControlUnauthorizedAccount",
      "type": "error"
    },
    {
      "inputs": [],
      "name": "AlreadyInitialized",
      "type": "error"
    },
    {
      "anonymous": false,
      "inputs": [
        {
          "indexed": true,
          "internalType": "address",
          "name": "initializer",
          "type": "address"
        }
      ],
      "name": "BorderlessAccessControlInitialized",
      "type": "event"
    },
    {
      "anonymous": false,
      "inputs": [
        {
          "indexed": true,
          "internalType": "bytes32",
          "name": "role",
          "type": "bytes32"
        },
        {
          "indexed": true,
          "internalType": "bytes32",
          "name": "previousAdminRole",
          "type": "bytes32"
        },
        {
          "indexed": true,
          "internalType": "bytes32",
          "name": "newAdminRole",
          "type": "bytes32"
        }
      ],
      "name": "RoleAdminChanged",
      "type": "event"
    },
    {
      "anonymous": false,
      "inputs": [
        {
          "indexed": true,
          "internalType": "bytes32",
          "name": "role",
          "type": "bytes32"
        },
        {
          "indexed": true,
          "internalType": "address",
          "name": "account",
          "type": "address"
        },
        {
          "indexed": true,
          "internalType": "address",
          "name": "sender",
          "type": "address"
        }
      ],
      "name": "RoleGranted",
      "type": "event"
    },
    {
      "anonymous": false,
      "inputs": [
        {
          "indexed": true,
          "internalType": "bytes32",
          "name": "role",
          "type": "bytes32"
        },
        {
          "indexed": true,
          "internalType": "address",
          "name": "account",
          "type": "address"
        },
        {
          "indexed": true,
          "internalType": "address",
          "name": "sender",
          "type": "address"
        }
      ],
      "name": "RoleRevoked",
      "type": "event"
    },
    {
      "inputs": [],
      "name": "DEFAULT_ADMIN_ROLE",
      "outputs": [
        {
          "internalType": "bytes32",
          "name": "",
          "type": "bytes32"
        }
      ],
      "stateMutability": "pure",
      "type": "function"
    },
    {
      "inputs": [
        {
          "internalType": "bytes32",
          "name": "role",
          "type": "bytes32"
        }
      ],
      "name": "getRoleAdmin",
      "outputs": [
        {
          "internalType": "bytes32",
          "name": "",
          "type": "bytes32"
        }
      ],
      "stateMutability": "view",
      "type": "function"
    },
    {
      "inputs": [
        {
          "internalType": "bytes32",
          "name": "role",
          "type": "bytes32"
        },
        {
          "internalType": "address",
          "name": "account",
          "type": "address"
        }
      ],
      "name": "grantRole",
      "outputs": [],
      "stateMutability": "nonpayable",
      "type": "function"
    },
    {
      "inputs": [
        {
          "internalType": "bytes32",
          "name": "role",
          "type": "bytes32"
        },
        {
          "internalType": "address",
          "name": "account",
          "type": "address"
        }
      ],
      "name": "hasRole",
      "outputs": [
        {
          "internalType": "bool",
          "name": "",
          "type": "bool"
        }
      ],
      "stateMutability": "view",
      "type": "function"
    },
    {
      "inputs": [
        {
          "internalType": "address",
          "name": "dictionary",
          "type": "address"
        }
      ],
      "name": "initialize",
      "outputs": [],
      "stateMutability": "nonpayable",
      "type": "function"
    },
    {
      "inputs": [
        {
          "internalType": "bytes32",
          "name": "role",
          "type": "bytes32"
        },
        {
          "internalType": "address",
          "name": "callerConfirmation",
          "type": "address"
        }
      ],
      "name": "renounceRole",
      "outputs": [],
      "stateMutability": "nonpayable",
      "type": "function"
    },
    {
      "inputs": [
        {
          "internalType": "bytes32",
          "name": "role",
          "type": "bytes32"
        },
        {
          "internalType": "address",
          "name": "account",
          "type": "address"
        }
      ],
      "name": "revokeRole",
      "outputs": [],
      "stateMutability": "nonpayable",
      "type": "function"
    },
    {
      "inputs": [
        {
          "internalType": "bytes4",
          "name": "interfaceId",
          "type": "bytes4"
        }
      ],
      "name": "supportsInterface",
      "outputs": [
        {
          "internalType": "bool",
          "name": "",
          "type": "bool"
        }
      ],
      "stateMutability": "view",
      "type": "function"
    }
  ],
  "bytecode": "0x6080806040523460155761067d908161001b8239f35b600080fdfe608080604052600436101561001357600080fd5b60003560e01c90816301ffc9a71461041a57508063248a9ca3146103f45780632f2ff15d1461039d57806336568abe1461035757806391d1485414610304578063a217fddf146102e8578063c4d66de8146100ee5763d547741f1461007757600080fd5b346100e95760403660031901126100e95760043561009361046d565b61009c82610483565b916100a5610603565b600084815260209182526040808220338352909252205460ff16156100d0576100ce9250610539565b005b8263e2517d3f60e01b6000523360045260245260446000fd5b600080fd5b346100e95760203660031901126100e9576004356001600160a01b038116908190036100e95760ff604051602081017ff158cb8b47a14bda3b2c4affcc0d960e9ed23f5a516e4779510b08a6e823c02581526020825261014f6040836105cb565b8219915190201654166102d85760405161016a60e0826105cb565b600681526020810160c03682378151156102c2576301ffc9a760e01b90528051600110156102c257632f2ff15d60e01b60408201528051600210156102c25763d547741f60e01b60608201528051600310156102c257631b2b455f60e11b60808201528051600410156102c25763248a9ca360e01b60a08201528051600510156102c257632474521560e21b60c082015260005b815181101561029a57600082518210156102865750600581901b8201602001516001600160e01b03191690833b156100e95760405191630815f6fd60e01b8352600483015230602483015260008260448183885af191821561027a57600192610269575b50016101fe565b6000610274916105cb565b84610262565b6040513d6000823e3d90fd5b634e487b7160e01b81526032600452602490fd5b337f766a6be0db21517b2b423a513c14e61451e05bf62e25a0fe2ed3e444d19d9aa9600080a2005b634e487b7160e01b600052603260045260246000fd5b62dc149f60e41b60005260046000fd5b346100e95760003660031901126100e957602060405160008152f35b346100e95760403660031901126100e95761031d61046d565b610325610603565b60043560005260205260406000209060018060a01b0316600052602052602060ff604060002054166040519015158152f35b346100e95760403660031901126100e95761037061046d565b336001600160a01b0382160361038c576100ce90600435610539565b63334bd91960e11b60005260046000fd5b346100e95760403660031901126100e9576004356103b961046d565b6103c282610483565b916103cb610603565b600084815260209182526040808220338352909252205460ff16156100d0576100ce925061049e565b346100e95760203660031901126100e9576020610412600435610483565b604051908152f35b346100e95760203660031901126100e9576004359063ffffffff60e01b82168092036100e957602091637965db0b60e01b811490811561045c575b5015158152f35b6301ffc9a760e01b14905083610455565b602435906001600160a01b03821682036100e957565b61048b610603565b9060005260205260016040600020015490565b6104a6610603565b6000828152602091825260408082206001600160a01b0386168352909252205460ff16610532576104d5610603565b6000828152602091825260408082206001600160a01b039590951680835294909252908120805460ff19166001179055339291907f2f8788117e7eff1d82e926ec794901d17c78024a50270940304540a733656f0d9080a4600190565b5050600090565b610541610603565b6000828152602091825260408082206001600160a01b0386168352909252205460ff161561053257610571610603565b6000828152602091825260408082206001600160a01b039590951680835294909252908120805460ff19169055339291907ff6391f5c32d9c69d2a47ea670b442974b53935d1edc7fd64eb21e047a839171b9080a4600190565b90601f8019910116810190811067ffffffffffffffff8211176105ed57604052565b634e487b7160e01b600052604160045260246000fd5b604051602081017fcf377bf0da9cb35454543c63ad54bf2c5a0466b629ac7517e61f8857cae0fa2581526020825261063c6040836105cb565b9051902060ff19169056fea264697066735822122030fb51b0e8b72c5bc56b027779a1a4a617ab987755f26d328435a7c3fbae57b964736f6c634300081c0033",
  "linkReferences": {},
  "deployedLinkReferences": {}
}