{
  "_format": "hh-sol-artifact-1",
  "contractName": "SCProxy",
  "sourceName": "contracts/core/Proxy/mock/SCProxy.sol",
  "abi": [
    {
      "inputs": [],
      "name": "DEFAULT_ADMIN_ROLE",
      "outputs": [
        {
          "internalType": "bytes32",
          "name": "",
          "type": "bytes32"
        }
      ],
      "stateMutability": "view",
      "type": "function"
    },
    {
      "inputs": [
        {
          "internalType": "address",
          "name": "to",
          "type": "address"
        },
        {
          "internalType": "uint256",
          "name": "tokenId",
          "type": "uint256"
        }
      ],
      "name": "approve",
      "outputs": [],
      "stateMutability": "nonpayable",
      "type": "function"
    },
    {
      "inputs": [
        {
          "internalType": "uint256",
          "name": "transactionId",
          "type": "uint256"
        }
      ],
      "name": "approveTransaction",
      "outputs": [],
      "stateMutability": "nonpayable",
      "type": "function"
    },
    {
      "inputs": [
        {
          "internalType": "address",
          "name": "owner",
          "type": "address"
        }
      ],
      "name": "balanceOf",
      "outputs": [
        {
          "internalType": "uint256",
          "name": "",
          "type": "uint256"
        }
      ],
      "stateMutability": "view",
      "type": "function"
    },
    {
      "inputs": [
        {
          "internalType": "bytes4[]",
          "name": "selectors",
          "type": "bytes4[]"
        },
        {
          "internalType": "address",
          "name": "implementation",
          "type": "address"
        }
      ],
      "name": "bulkSetImplementation",
      "outputs": [],
      "stateMutability": "nonpayable",
      "type": "function"
    },
    {
      "inputs": [
        {
          "internalType": "bytes4[]",
          "name": "selectors",
          "type": "bytes4[]"
        },
        {
          "internalType": "address[]",
          "name": "implementations",
          "type": "address[]"
        }
      ],
      "name": "bulkSetImplementation",
      "outputs": [],
      "stateMutability": "nonpayable",
      "type": "function"
    },
    {
      "inputs": [
        {
          "internalType": "uint256",
          "name": "transactionId",
          "type": "uint256"
        }
      ],
      "name": "cancelTransaction",
      "outputs": [],
      "stateMutability": "nonpayable",
      "type": "function"
    },
    {
      "inputs": [
        {
          "internalType": "uint256",
          "name": "transactionId",
          "type": "uint256"
        }
      ],
      "name": "execute",
      "outputs": [],
      "stateMutability": "nonpayable",
      "type": "function"
    },
    {
      "inputs": [
        {
          "internalType": "uint256",
          "name": "tokenId",
          "type": "uint256"
        }
      ],
      "name": "freezeToken",
      "outputs": [],
      "stateMutability": "nonpayable",
      "type": "function"
    },
    {
      "inputs": [
        {
          "internalType": "uint256",
          "name": "tokenId",
          "type": "uint256"
        }
      ],
      "name": "getApproved",
      "outputs": [
        {
          "internalType": "address",
          "name": "",
          "type": "address"
        }
      ],
      "stateMutability": "view",
      "type": "function"
    },
    {
      "inputs": [
        {
          "components": [
            {
              "internalType": "uint256",
              "name": "articleId",
              "type": "uint256"
            },
            {
              "internalType": "uint256",
              "name": "paragraphId",
              "type": "uint256"
            },
            {
              "internalType": "uint256",
              "name": "itemId",
              "type": "uint256"
            }
          ],
          "internalType": "struct IAOIStructs.ItemLocation",
          "name": "location",
          "type": "tuple"
        }
      ],
      "name": "getEncryptedItem",
      "outputs": [
        {
          "components": [
            {
              "internalType": "bytes",
              "name": "encryptedData",
              "type": "bytes"
            },
            {
              "internalType": "bytes32",
              "name": "plaintextHash",
              "type": "bytes32"
            },
            {
              "internalType": "bytes32",
              "name": "masterSaltHash",
              "type": "bytes32"
            }
          ],
          "internalType": "struct IAOIStructs.EncryptedItem",
          "name": "",
          "type": "tuple"
        }
      ],
      "stateMutability": "view",
      "type": "function"
    },
    {
      "inputs": [],
      "name": "getFacade",
      "outputs": [
        {
          "internalType": "address",
          "name": "",
          "type": "address"
        }
      ],
      "stateMutability": "view",
      "type": "function"
    },
    {
      "inputs": [
        {
          "internalType": "address",
          "name": "account",
          "type": "address"
        }
      ],
      "name": "getInvestmentAmount",
      "outputs": [
        {
          "internalType": "uint256",
          "name": "",
          "type": "uint256"
        }
      ],
      "stateMutability": "view",
      "type": "function"
    },
    {
      "inputs": [
        {
          "internalType": "bytes32",
          "name": "role",
          "type": "bytes32"
        }
      ],
      "name": "getRoleAdmin",
      "outputs": [
        {
          "internalType": "bytes32",
          "name": "",
          "type": "bytes32"
        }
      ],
      "stateMutability": "view",
      "type": "function"
    },
    {
      "inputs": [],
      "name": "getSCR",
      "outputs": [
        {
          "internalType": "address",
          "name": "",
          "type": "address"
        }
      ],
      "stateMutability": "view",
      "type": "function"
    },
    {
      "inputs": [
        {
          "internalType": "enum ServiceType",
          "name": "serviceType",
          "type": "uint8"
        }
      ],
      "name": "getService",
      "outputs": [
        {
          "internalType": "address",
          "name": "",
          "type": "address"
        }
      ],
      "stateMutability": "view",
      "type": "function"
    },
    {
      "inputs": [
        {
          "internalType": "address",
          "name": "owner",
          "type": "address"
        }
      ],
      "name": "getTokensOfOwner",
      "outputs": [
        {
          "internalType": "uint256[]",
          "name": "",
          "type": "uint256[]"
        }
      ],
      "stateMutability": "view",
      "type": "function"
    },
    {
      "inputs": [
        {
          "internalType": "uint256",
          "name": "tokenId",
          "type": "uint256"
        }
      ],
      "name": "getUpdatedToken",
      "outputs": [
        {
          "internalType": "uint256",
          "name": "",
          "type": "uint256"
        }
      ],
      "stateMutability": "view",
      "type": "function"
    },
    {
      "inputs": [
        {
          "internalType": "uint256",
          "name": "versionId",
          "type": "uint256"
        }
      ],
      "name": "getVersionRoot",
      "outputs": [
        {
          "internalType": "bytes32",
          "name": "",
          "type": "bytes32"
        }
      ],
      "stateMutability": "view",
      "type": "function"
    },
    {
      "inputs": [
        {
          "internalType": "bytes32",
          "name": "role",
          "type": "bytes32"
        },
        {
          "internalType": "address",
          "name": "account",
          "type": "address"
        }
      ],
      "name": "grantRole",
      "outputs": [],
      "stateMutability": "nonpayable",
      "type": "function"
    },
    {
      "inputs": [
        {
          "internalType": "bytes32",
          "name": "role",
          "type": "bytes32"
        },
        {
          "internalType": "address",
          "name": "account",
          "type": "address"
        }
      ],
      "name": "hasRole",
      "outputs": [
        {
          "internalType": "bool",
          "name": "",
          "type": "bool"
        }
      ],
      "stateMutability": "view",
      "type": "function"
    },
    {
      "inputs": [
        {
          "components": [
            {
              "components": [
                {
                  "internalType": "uint256",
                  "name": "articleId",
                  "type": "uint256"
                },
                {
                  "internalType": "uint256",
                  "name": "paragraphId",
                  "type": "uint256"
                },
                {
                  "internalType": "uint256",
                  "name": "itemId",
                  "type": "uint256"
                }
              ],
              "internalType": "struct IAOIStructs.ItemLocation",
              "name": "location",
              "type": "tuple"
            },
            {
              "internalType": "bytes",
              "name": "encryptedData",
              "type": "bytes"
            },
            {
              "internalType": "bytes32",
              "name": "plaintextHash",
              "type": "bytes32"
            },
            {
              "internalType": "bytes32",
              "name": "masterSaltHash",
              "type": "bytes32"
            }
          ],
          "internalType": "struct IAOIStructs.EncryptedItemInput[]",
          "name": "items",
          "type": "tuple[]"
        }
      ],
      "name": "initialSetChapter",
      "outputs": [],
      "stateMutability": "nonpayable",
      "type": "function"
    },
    {
      "inputs": [
        {
          "internalType": "address",
          "name": "founder",
          "type": "address"
        },
        {
          "internalType": "address",
          "name": "scr",
          "type": "address"
        }
      ],
      "name": "initialize",
      "outputs": [],
      "stateMutability": "nonpayable",
      "type": "function"
    },
    {
      "inputs": [
        {
          "internalType": "address",
          "name": "dictionary",
          "type": "address"
        }
      ],
      "name": "initialize",
      "outputs": [],
      "stateMutability": "nonpayable",
      "type": "function"
    },
    {
      "inputs": [
        {
          "internalType": "address",
          "name": "owner",
          "type": "address"
        },
        {
          "internalType": "address",
          "name": "operator",
          "type": "address"
        }
      ],
      "name": "isApprovedForAll",
      "outputs": [
        {
          "internalType": "bool",
          "name": "",
          "type": "bool"
        }
      ],
      "stateMutability": "view",
      "type": "function"
    },
    {
      "inputs": [
        {
          "internalType": "bytes32",
          "name": "ephemeralSalt",
          "type": "bytes32"
        }
      ],
      "name": "isEphemeralSaltUsed",
      "outputs": [
        {
          "internalType": "bool",
          "name": "",
          "type": "bool"
        }
      ],
      "stateMutability": "view",
      "type": "function"
    },
    {
      "inputs": [
        {
          "internalType": "address",
          "name": "to",
          "type": "address"
        }
      ],
      "name": "mint",
      "outputs": [
        {
          "internalType": "uint256",
          "name": "tokenId",
          "type": "uint256"
        }
      ],
      "stateMutability": "nonpayable",
      "type": "function"
    },
    {
      "inputs": [],
      "name": "name",
      "outputs": [
        {
          "internalType": "string",
          "name": "",
          "type": "string"
        }
      ],
      "stateMutability": "view",
      "type": "function"
    },
    {
      "inputs": [
        {
          "internalType": "address",
          "name": "to",
          "type": "address"
        }
      ],
      "name": "offerToken",
      "outputs": [],
      "stateMutability": "payable",
      "type": "function"
    },
    {
      "inputs": [],
      "name": "owner",
      "outputs": [
        {
          "internalType": "address",
          "name": "",
          "type": "address"
        }
      ],
      "stateMutability": "view",
      "type": "function"
    },
    {
      "inputs": [
        {
          "internalType": "uint256",
          "name": "tokenId",
          "type": "uint256"
        }
      ],
      "name": "ownerOf",
      "outputs": [
        {
          "internalType": "address",
          "name": "",
          "type": "address"
        }
      ],
      "stateMutability": "view",
      "type": "function"
    },
    {
      "inputs": [
        {
          "internalType": "enum ServiceType[]",
          "name": "serviceTypes",
          "type": "uint8[]"
        },
        {
          "internalType": "address[]",
          "name": "services",
          "type": "address[]"
        }
      ],
      "name": "registerService",
      "outputs": [
        {
          "internalType": "bool",
          "name": "",
          "type": "bool"
        }
      ],
      "stateMutability": "nonpayable",
      "type": "function"
    },
    {
      "inputs": [
        {
          "internalType": "uint256",
          "name": "value",
          "type": "uint256"
        },
        {
          "internalType": "bytes",
          "name": "data",
          "type": "bytes"
        },
        {
          "internalType": "address",
          "name": "to",
          "type": "address"
        },
        {
          "internalType": "address",
          "name": "executor",
          "type": "address"
        },
        {
          "internalType": "enum IGovernanceServiceStructs.ProposalLevel",
          "name": "proposalLevel",
          "type": "uint8"
        },
        {
          "internalType": "uint256",
          "name": "voteStart",
          "type": "uint256"
        },
        {
          "internalType": "uint256",
          "name": "voteEnd",
          "type": "uint256"
        },
        {
          "internalType": "address[]",
          "name": "proposalMemberContracts",
          "type": "address[]"
        }
      ],
      "name": "registerTransaction",
      "outputs": [],
      "stateMutability": "nonpayable",
      "type": "function"
    },
    {
      "inputs": [
        {
          "internalType": "uint256",
          "name": "value",
          "type": "uint256"
        },
        {
          "internalType": "bytes",
          "name": "data",
          "type": "bytes"
        },
        {
          "internalType": "address",
          "name": "to",
          "type": "address"
        },
        {
          "internalType": "address",
          "name": "executor",
          "type": "address"
        },
        {
          "internalType": "enum IGovernanceServiceStructs.ProposalLevel",
          "name": "proposalLevel",
          "type": "uint8"
        },
        {
          "internalType": "uint256",
          "name": "numerator",
          "type": "uint256"
        },
        {
          "internalType": "uint256",
          "name": "denominator",
          "type": "uint256"
        },
        {
          "internalType": "uint256",
          "name": "voteStart",
          "type": "uint256"
        },
        {
          "internalType": "uint256",
          "name": "voteEnd",
          "type": "uint256"
        },
        {
          "internalType": "address[]",
          "name": "proposalMemberContracts",
          "type": "address[]"
        }
      ],
      "name": "registerTransactionWithCustomThreshold",
      "outputs": [],
      "stateMutability": "nonpayable",
      "type": "function"
    },
    {
      "inputs": [],
      "name": "renounceOwnership",
      "outputs": [],
      "stateMutability": "nonpayable",
      "type": "function"
    },
    {
      "inputs": [
        {
          "internalType": "bytes32",
          "name": "role",
          "type": "bytes32"
        },
        {
          "internalType": "address",
          "name": "callerConfirmation",
          "type": "address"
        }
      ],
      "name": "renounceRole",
      "outputs": [],
      "stateMutability": "nonpayable",
      "type": "function"
    },
    {
      "inputs": [
        {
          "internalType": "bytes32",
          "name": "role",
          "type": "bytes32"
        },
        {
          "internalType": "address",
          "name": "account",
          "type": "address"
        }
      ],
      "name": "revokeRole",
      "outputs": [],
      "stateMutability": "nonpayable",
      "type": "function"
    },
    {
      "inputs": [
        {
          "internalType": "address",
          "name": "from",
          "type": "address"
        },
        {
          "internalType": "address",
          "name": "to",
          "type": "address"
        },
        {
          "internalType": "uint256",
          "name": "tokenId",
          "type": "uint256"
        }
      ],
      "name": "safeTransferFrom",
      "outputs": [],
      "stateMutability": "nonpayable",
      "type": "function"
    },
    {
      "inputs": [
        {
          "internalType": "address",
          "name": "from",
          "type": "address"
        },
        {
          "internalType": "address",
          "name": "to",
          "type": "address"
        },
        {
          "internalType": "uint256",
          "name": "tokenId",
          "type": "uint256"
        },
        {
          "internalType": "bytes",
          "name": "data",
          "type": "bytes"
        }
      ],
      "name": "safeTransferFrom",
      "outputs": [],
      "stateMutability": "nonpayable",
      "type": "function"
    },
    {
      "inputs": [
        {
          "internalType": "address",
          "name": "operator",
          "type": "address"
        },
        {
          "internalType": "bool",
          "name": "approved",
          "type": "bool"
        }
      ],
      "name": "setApprovalForAll",
      "outputs": [],
      "stateMutability": "nonpayable",
      "type": "function"
    },
    {
      "inputs": [
        {
          "internalType": "bytes32",
          "name": "ephemeralSalt",
          "type": "bytes32"
        }
      ],
      "name": "setEphemeralSalt",
      "outputs": [],
      "stateMutability": "nonpayable",
      "type": "function"
    },
    {
      "inputs": [
        {
          "internalType": "bytes4",
          "name": "selector",
          "type": "bytes4"
        },
        {
          "internalType": "address",
          "name": "implementation",
          "type": "address"
        }
      ],
      "name": "setImplementation",
      "outputs": [],
      "stateMutability": "nonpayable",
      "type": "function"
    },
    {
      "inputs": [
        {
          "internalType": "address",
          "name": "account",
          "type": "address"
        },
        {
          "internalType": "uint256",
          "name": "investmentAmount",
          "type": "uint256"
        }
      ],
      "name": "setInvestmentAmount",
      "outputs": [],
      "stateMutability": "nonpayable",
      "type": "function"
    },
    {
      "inputs": [
        {
          "internalType": "address",
          "name": "account",
          "type": "address"
        },
        {
          "internalType": "address",
          "name": "implementation",
          "type": "address"
        }
      ],
      "name": "setOnceInitialized",
      "outputs": [],
      "stateMutability": "nonpayable",
      "type": "function"
    },
    {
      "inputs": [
        {
          "internalType": "uint256",
          "name": "saleStart",
          "type": "uint256"
        },
        {
          "internalType": "uint256",
          "name": "saleEnd",
          "type": "uint256"
        },
        {
          "internalType": "uint256",
          "name": "fixedPrice",
          "type": "uint256"
        },
        {
          "internalType": "uint256",
          "name": "minPrice",
          "type": "uint256"
        },
        {
          "internalType": "uint256",
          "name": "maxPrice",
          "type": "uint256"
        }
      ],
      "name": "setSaleInfo",
      "outputs": [],
      "stateMutability": "nonpayable",
      "type": "function"
    },
    {
      "inputs": [
        {
          "internalType": "bytes4",
          "name": "interfaceId",
          "type": "bytes4"
        }
      ],
      "name": "supportsInterface",
      "outputs": [
        {
          "internalType": "bool",
          "name": "",
          "type": "bool"
        }
      ],
      "stateMutability": "view",
      "type": "function"
    },
    {
      "inputs": [],
      "name": "symbol",
      "outputs": [
        {
          "internalType": "string",
          "name": "",
          "type": "string"
        }
      ],
      "stateMutability": "view",
      "type": "function"
    },
    {
      "inputs": [
        {
          "internalType": "uint256",
          "name": "index",
          "type": "uint256"
        }
      ],
      "name": "tokenByIndex",
      "outputs": [
        {
          "internalType": "uint256",
          "name": "",
          "type": "uint256"
        }
      ],
      "stateMutability": "view",
      "type": "function"
    },
    {
      "inputs": [
        {
          "internalType": "address",
          "name": "owner",
          "type": "address"
        },
        {
          "internalType": "uint256",
          "name": "index",
          "type": "uint256"
        }
      ],
      "name": "tokenOfOwnerByIndex",
      "outputs": [
        {
          "internalType": "uint256",
          "name": "",
          "type": "uint256"
        }
      ],
      "stateMutability": "view",
      "type": "function"
    },
    {
      "inputs": [
        {
          "internalType": "uint256",
          "name": "tokenId",
          "type": "uint256"
        }
      ],
      "name": "tokenURI",
      "outputs": [
        {
          "internalType": "string",
          "name": "",
          "type": "string"
        }
      ],
      "stateMutability": "view",
      "type": "function"
    },
    {
      "inputs": [],
      "name": "totalSupply",
      "outputs": [
        {
          "internalType": "uint256",
          "name": "",
          "type": "uint256"
        }
      ],
      "stateMutability": "view",
      "type": "function"
    },
    {
      "inputs": [
        {
          "internalType": "address",
          "name": "from",
          "type": "address"
        },
        {
          "internalType": "address",
          "name": "to",
          "type": "address"
        },
        {
          "internalType": "uint256",
          "name": "tokenId",
          "type": "uint256"
        }
      ],
      "name": "transferFrom",
      "outputs": [],
      "stateMutability": "nonpayable",
      "type": "function"
    },
    {
      "inputs": [
        {
          "internalType": "address",
          "name": "newOwner",
          "type": "address"
        }
      ],
      "name": "transferOwnership",
      "outputs": [],
      "stateMutability": "nonpayable",
      "type": "function"
    },
    {
      "inputs": [
        {
          "internalType": "uint256",
          "name": "tokenId",
          "type": "uint256"
        }
      ],
      "name": "unfreezeToken",
      "outputs": [],
      "stateMutability": "nonpayable",
      "type": "function"
    },
    {
      "inputs": [
        {
          "internalType": "uint256",
          "name": "fixedPrice",
          "type": "uint256"
        },
        {
          "internalType": "uint256",
          "name": "minPrice",
          "type": "uint256"
        },
        {
          "internalType": "uint256",
          "name": "maxPrice",
          "type": "uint256"
        }
      ],
      "name": "updatePrice",
      "outputs": [],
      "stateMutability": "nonpayable",
      "type": "function"
    },
    {
      "inputs": [
        {
          "internalType": "uint256",
          "name": "saleStart",
          "type": "uint256"
        },
        {
          "internalType": "uint256",
          "name": "saleEnd",
          "type": "uint256"
        }
      ],
      "name": "updateSalePeriod",
      "outputs": [],
      "stateMutability": "nonpayable",
      "type": "function"
    },
    {
      "inputs": [
        {
          "internalType": "address",
          "name": "newFacade",
          "type": "address"
        }
      ],
      "name": "upgradeFacade",
      "outputs": [],
      "stateMutability": "nonpayable",
      "type": "function"
    },
    {
      "inputs": [
        {
          "components": [
            {
              "internalType": "uint256",
              "name": "articleId",
              "type": "uint256"
            },
            {
              "internalType": "uint256",
              "name": "paragraphId",
              "type": "uint256"
            },
            {
              "internalType": "uint256",
              "name": "itemId",
              "type": "uint256"
            }
          ],
          "internalType": "struct IAOIStructs.ItemLocation",
          "name": "location",
          "type": "tuple"
        },
        {
          "internalType": "bytes32",
          "name": "expectedHash",
          "type": "bytes32"
        }
      ],
      "name": "verifyDecryptionKeyHash",
      "outputs": [
        {
          "internalType": "bool",
          "name": "",
          "type": "bool"
        }
      ],
      "stateMutability": "view",
      "type": "function"
    },
    {
      "inputs": [
        {
          "components": [
            {
              "internalType": "uint256",
              "name": "articleId",
              "type": "uint256"
            },
            {
              "internalType": "uint256",
              "name": "paragraphId",
              "type": "uint256"
            },
            {
              "internalType": "uint256",
              "name": "itemId",
              "type": "uint256"
            }
          ],
          "internalType": "struct IAOIStructs.ItemLocation",
          "name": "location",
          "type": "tuple"
        },
        {
          "internalType": "bytes32",
          "name": "ephemeralSalt",
          "type": "bytes32"
        },
        {
          "internalType": "bytes32",
          "name": "masterSaltHash",
          "type": "bytes32"
        },
        {
          "internalType": "address",
          "name": "holder",
          "type": "address"
        }
      ],
      "name": "verifyDecryptionKeyHashWithSaltHash",
      "outputs": [
        {
          "internalType": "bool",
          "name": "",
          "type": "bool"
        }
      ],
      "stateMutability": "view",
      "type": "function"
    },
    {
      "inputs": [],
      "name": "withdraw",
      "outputs": [],
      "stateMutability": "nonpayable",
      "type": "function"
    }
  ],
  "bytecode": "0x60808060405234601557610bae908161001b8239f35b600080fdfe608080604052600436101561001357600080fd5b60003560e01c90816301ffc9a7146107f257508063051e3f6b146107df57806306fdde03146104bd5780630815f6fd146107c6578063081812fc146104b8578063095ea7b31461065e5780630f436129146107b35780630fb955331461032c57806318160ddd1461042e57806323b872dd1461065957806323c45f671461077a578063242232d1146102b3578063248a9ca31461052b57806325389b4b146106da5780632d6fa4b2146105cf5780632f2ff15d146103315780632f745c59146106c15780633380c0d8146102b357806336568abe146103315780633ccfd60b146105ca5780633dbaac63146106635780634035c3721461065e57806342842e0e14610659578063485cc955146102d05780634d787ea9146102b35780634f6ccce7146104b85780635de6dc55146105fb5780636352211e146104b8578063651dc03d146102d55780636a627842146105cf5780636c4cd58e146105d45780636e4a923b1461052b57806370a08231146105cf578063715018a6146105ca57806374d8c2fe1461055b5780637bef1c35146105475780637e2cd33c1461052b57806386ec366f146104db5780638da5cb5b1461032c57806391d14854146104c257806395d89b41146104bd57806397294fea146104b85780639b0595b81461044a578063a217fddf1461042e578063a22cb46514610407578063a35edd04146103e6578063abd3c6e9146103d3578063b3e9074a146103a3578063b6854f96146102b3578063b88d4fde1461035f578063c4d66de8146102d5578063c87b56dd14610336578063d547741f14610331578063dd4173181461032c578063e8e56d2614610308578063e985e9c5146102da578063f2fde38b146102d5578063f6d81789146102d0578063fc7da9a9146102b85763fe0d94c1146102b357600080fd5b6107df565b346102cb5760403660031901126102cb57005b600080fd5b610a90565b610aa9565b346102cb5760403660031901126102cb576102f36108ad565b506102fc610897565b50602060405160008152f35b346102cb573660031901608081126102cb576060136102cb57602060405160008152f35b61042e565b610a34565b346102cb5760203660031901126102cb57604051602081528061035b6020820161084f565b0390f35b346102cb5760803660031901126102cb576103786108ad565b50610381610897565b506064356001600160401b0381116102cb576103a1903690600401610ac2565b005b346102cb5760203660031901126102cb576004356001600160401b0381116102cb576103a1903690600401610a60565b346102cb5760a03660031901126102cb57005b346102cb57366003190160c081126102cb576060136102cb576102fc6108ef565b346102cb5760403660031901126102cb576104206108ad565b50602435801515036102cb57005b346102cb5760003660031901126102cb57602060405160008152f35b346102cb576101003660031901126102cb576024356001600160401b0381116102cb5761047b903690600401610ac2565b506104846108c3565b5061048d6108d9565b50600360843510156102cb5760e4356001600160401b0381116102cb576103a1903690600401610b14565b61052b565b610872565b346102cb5760403660031901126102cb576102fc610897565b346102cb5760403660031901126102cb576004356001600160401b0381116102cb5761050b9036906004016109b1565b506024356001600160401b0381116102cb576103a1903690600401610b14565b346102cb5760203660031901126102cb57602060405160008152f35b60203660031901126102cb576103a16108ad565b346102cb576101403660031901126102cb576024356001600160401b0381116102cb5761058c903690600401610ac2565b506105956108c3565b5061059e6108d9565b50600360843510156102cb57610124356001600160401b0381116102cb576103a1903690600401610b14565b610a4d565b610a1b565b346102cb5760203660031901126102cb57600760043510156102cb57602060405160008152f35b346102cb5760203660031901126102cb576106146108ad565b50604051806020810160208252606051809152604082019060809060005b818110610640575050500390f35b8251845285945060209384019390920191600101610632565b61091e565b610905565b346102cb5760403660031901126102cb576004356001600160401b0381116102cb57610693903690600401610a60565b50506024356001600160401b0381116102cb576106b4903690600401610a60565b5050602060405160008152f35b346102cb5760403660031901126102cb576102fc6108ad565b346102cb5760603660031901126102cb576000604051606081018181106001600160401b0382111761076657906020916040526060815281810183815260408201848152608060405195869486865251906060878701525061074a8151809281858901528860a08901910161082c565b601f801991011684010191516040840152516060830152030190f35b634e487b7160e01b83526041600452602483fd5b346102cb5760403660031901126102cb576004356001600160401b0381116102cb576107aa9036906004016109b1565b506103a1610897565b346102cb5760603660031901126102cb57005b346102cb5760403660031901126102cb576107aa610815565b346102cb5760203660031901126102cb57005b346102cb5760203660031901126102cb5760209061080e610815565b5060008152f35b600435906001600160e01b0319821682036102cb57565b60005b83811061083f5750506000910152565b818101518382015260200161082f565b60209060605180825261086681848401608061082c565b601f01601f1916010190565b346102cb5760003660031901126102cb57604051602081528061035b6020820161084f565b602435906001600160a01b03821682036102cb57565b600435906001600160a01b03821682036102cb57565b604435906001600160a01b03821682036102cb57565b606435906001600160a01b03821682036102cb57565b60a435906001600160a01b03821682036102cb57565b346102cb5760403660031901126102cb576103a16108ad565b346102cb576000606036600319011261095c57600435906001600160a01b038216820361095c5750506024356001600160a01b03811681036102cb57005b80fd5b6040519190601f01601f191682016001600160401b0381118382101761098457604052565b634e487b7160e01b600052604160045260246000fd5b6001600160401b0381116109845760051b60200190565b9080601f830112156102cb578135906109d16109cc8361099a565b61095f565b9260208085858152019360051b8201019182116102cb57602001915b8183106109fa5750505090565b82356001600160e01b0319811681036102cb578152602092830192016109ed565b346102cb5760203660031901126102cb576102fc6108ad565b346102cb5760403660031901126102cb576103a1610897565b346102cb5760003660031901126102cb57005b9181601f840112156102cb578235916001600160401b0383116102cb576020808501948460051b0101116102cb57565b346102cb5760403660031901126102cb576107aa6108ad565b346102cb5760203660031901126102cb576103a16108ad565b81601f820112156102cb578035906001600160401b03821161098457610af1601f8301601f191660200161095f565b92828452602083830101116102cb57816000926020809301838601378301015290565b9080601f830112156102cb57813590610b2f6109cc8361099a565b9260208085858152019360051b8201019182116102cb57602001915b818310610b585750505090565b82356001600160a01b03811681036102cb57815260209283019201610b4b56fea2646970667358221220f304342d8a9e559eb4f7814abd3c14ac9cf3d4f60a7bfbcf364c8c89c5550e1e64736f6c634300081c0033",
  "linkReferences": {},
  "deployedLinkReferences": {}
}