{
  "_format": "hh-sol-artifact-1",
  "contractName": "LETS_JP_LLC_EXE",
  "sourceName": "contracts/sc/Services/LETS/functions/extentions/LETS_JP_LLC/LETS_JP_LLC_EXE.sol",
  "abi": [
    {
      "inputs": [],
      "name": "AlreadyInitialized",
      "type": "error"
    },
    {
      "inputs": [
        {
          "internalType": "address",
          "name": "sender",
          "type": "address"
        },
        {
          "internalType": "uint256",
          "name": "tokenId",
          "type": "uint256"
        },
        {
          "internalType": "address",
          "name": "owner",
          "type": "address"
        }
      ],
      "name": "ERC721IncorrectOwner",
      "type": "error"
    },
    {
      "inputs": [
        {
          "internalType": "address",
          "name": "operator",
          "type": "address"
        },
        {
          "internalType": "uint256",
          "name": "tokenId",
          "type": "uint256"
        }
      ],
      "name": "ERC721InsufficientApproval",
      "type": "error"
    },
    {
      "inputs": [
        {
          "internalType": "address",
          "name": "approver",
          "type": "address"
        }
      ],
      "name": "ERC721InvalidApprover",
      "type": "error"
    },
    {
      "inputs": [
        {
          "internalType": "address",
          "name": "operator",
          "type": "address"
        }
      ],
      "name": "ERC721InvalidOperator",
      "type": "error"
    },
    {
      "inputs": [
        {
          "internalType": "address",
          "name": "owner",
          "type": "address"
        }
      ],
      "name": "ERC721InvalidOwner",
      "type": "error"
    },
    {
      "inputs": [
        {
          "internalType": "address",
          "name": "receiver",
          "type": "address"
        }
      ],
      "name": "ERC721InvalidReceiver",
      "type": "error"
    },
    {
      "inputs": [
        {
          "internalType": "address",
          "name": "sender",
          "type": "address"
        }
      ],
      "name": "ERC721InvalidSender",
      "type": "error"
    },
    {
      "inputs": [
        {
          "internalType": "uint256",
          "name": "tokenId",
          "type": "uint256"
        }
      ],
      "name": "ERC721NonexistentToken",
      "type": "error"
    },
    {
      "inputs": [
        {
          "internalType": "address",
          "name": "owner",
          "type": "address"
        },
        {
          "internalType": "uint256",
          "name": "index",
          "type": "uint256"
        }
      ],
      "name": "ERC721OutOfBoundsIndex",
      "type": "error"
    },
    {
      "inputs": [
        {
          "internalType": "address",
          "name": "sender",
          "type": "address"
        }
      ],
      "name": "NotFounder",
      "type": "error"
    },
    {
      "inputs": [
        {
          "internalType": "address",
          "name": "caller",
          "type": "address"
        }
      ],
      "name": "NotGovernance",
      "type": "error"
    },
    {
      "inputs": [
        {
          "internalType": "address",
          "name": "caller",
          "type": "address"
        }
      ],
      "name": "NotLetsSale",
      "type": "error"
    },
    {
      "inputs": [],
      "name": "NotTransferable",
      "type": "error"
    },
    {
      "inputs": [
        {
          "internalType": "address",
          "name": "owner",
          "type": "address"
        }
      ],
      "name": "OwnableInvalidOwner",
      "type": "error"
    },
    {
      "inputs": [
        {
          "internalType": "address",
          "name": "account",
          "type": "address"
        }
      ],
      "name": "OwnableUnauthorizedAccount",
      "type": "error"
    },
    {
      "anonymous": false,
      "inputs": [
        {
          "indexed": true,
          "internalType": "address",
          "name": "owner",
          "type": "address"
        },
        {
          "indexed": true,
          "internalType": "address",
          "name": "approved",
          "type": "address"
        },
        {
          "indexed": true,
          "internalType": "uint256",
          "name": "tokenId",
          "type": "uint256"
        }
      ],
      "name": "Approval",
      "type": "event"
    },
    {
      "anonymous": false,
      "inputs": [
        {
          "indexed": true,
          "internalType": "address",
          "name": "owner",
          "type": "address"
        },
        {
          "indexed": true,
          "internalType": "address",
          "name": "operator",
          "type": "address"
        },
        {
          "indexed": false,
          "internalType": "bool",
          "name": "approved",
          "type": "bool"
        }
      ],
      "name": "ApprovalForAll",
      "type": "event"
    },
    {
      "anonymous": false,
      "inputs": [
        {
          "indexed": false,
          "internalType": "uint256",
          "name": "_fromTokenId",
          "type": "uint256"
        },
        {
          "indexed": false,
          "internalType": "uint256",
          "name": "_toTokenId",
          "type": "uint256"
        }
      ],
      "name": "BatchMetadataUpdate",
      "type": "event"
    },
    {
      "anonymous": false,
      "inputs": [
        {
          "indexed": true,
          "internalType": "address",
          "name": "scr",
          "type": "address"
        },
        {
          "indexed": false,
          "internalType": "address[]",
          "name": "tos",
          "type": "address[]"
        }
      ],
      "name": "InitialMint",
      "type": "event"
    },
    {
      "anonymous": false,
      "inputs": [
        {
          "indexed": true,
          "internalType": "address",
          "name": "initializer",
          "type": "address"
        }
      ],
      "name": "LETSBaseInitialized",
      "type": "event"
    },
    {
      "anonymous": false,
      "inputs": [
        {
          "indexed": true,
          "internalType": "address",
          "name": "initializer",
          "type": "address"
        }
      ],
      "name": "LETSSaleBaseInitialized",
      "type": "event"
    },
    {
      "anonymous": false,
      "inputs": [
        {
          "indexed": false,
          "internalType": "uint256",
          "name": "_tokenId",
          "type": "uint256"
        }
      ],
      "name": "MetadataUpdate",
      "type": "event"
    },
    {
      "anonymous": false,
      "inputs": [
        {
          "indexed": true,
          "internalType": "address",
          "name": "previousOwner",
          "type": "address"
        },
        {
          "indexed": true,
          "internalType": "address",
          "name": "newOwner",
          "type": "address"
        }
      ],
      "name": "OwnershipTransferred",
      "type": "event"
    },
    {
      "anonymous": false,
      "inputs": [
        {
          "indexed": false,
          "internalType": "uint256",
          "name": "tokenId",
          "type": "uint256"
        }
      ],
      "name": "TokenFrozen",
      "type": "event"
    },
    {
      "anonymous": false,
      "inputs": [
        {
          "indexed": false,
          "internalType": "uint256",
          "name": "tokenId",
          "type": "uint256"
        }
      ],
      "name": "TokenUnfrozen",
      "type": "event"
    },
    {
      "anonymous": false,
      "inputs": [
        {
          "indexed": true,
          "internalType": "address",
          "name": "from",
          "type": "address"
        },
        {
          "indexed": true,
          "internalType": "address",
          "name": "to",
          "type": "address"
        },
        {
          "indexed": true,
          "internalType": "uint256",
          "name": "tokenId",
          "type": "uint256"
        }
      ],
      "name": "Transfer",
      "type": "event"
    },
    {
      "inputs": [
        {
          "internalType": "address",
          "name": "to",
          "type": "address"
        },
        {
          "internalType": "uint256",
          "name": "tokenId",
          "type": "uint256"
        }
      ],
      "name": "approve",
      "outputs": [],
      "stateMutability": "nonpayable",
      "type": "function"
    },
    {
      "inputs": [
        {
          "internalType": "address",
          "name": "owner",
          "type": "address"
        }
      ],
      "name": "balanceOf",
      "outputs": [
        {
          "internalType": "uint256",
          "name": "",
          "type": "uint256"
        }
      ],
      "stateMutability": "view",
      "type": "function"
    },
    {
      "inputs": [
        {
          "internalType": "uint256",
          "name": "tokenId",
          "type": "uint256"
        }
      ],
      "name": "freezeToken",
      "outputs": [],
      "stateMutability": "nonpayable",
      "type": "function"
    },
    {
      "inputs": [
        {
          "internalType": "uint256",
          "name": "tokenId",
          "type": "uint256"
        }
      ],
      "name": "getApproved",
      "outputs": [
        {
          "internalType": "address",
          "name": "",
          "type": "address"
        }
      ],
      "stateMutability": "view",
      "type": "function"
    },
    {
      "inputs": [],
      "name": "getInitialMintExecuteMemberCompleted",
      "outputs": [
        {
          "internalType": "bool",
          "name": "initialMintExecuteMemberCompleted",
          "type": "bool"
        }
      ],
      "stateMutability": "view",
      "type": "function"
    },
    {
      "inputs": [
        {
          "internalType": "address",
          "name": "owner",
          "type": "address"
        }
      ],
      "name": "getTokensOfOwner",
      "outputs": [
        {
          "internalType": "uint256[]",
          "name": "",
          "type": "uint256[]"
        }
      ],
      "stateMutability": "view",
      "type": "function"
    },
    {
      "inputs": [
        {
          "internalType": "uint256",
          "name": "tokenId",
          "type": "uint256"
        }
      ],
      "name": "getUpdatedToken",
      "outputs": [
        {
          "internalType": "uint256",
          "name": "",
          "type": "uint256"
        }
      ],
      "stateMutability": "view",
      "type": "function"
    },
    {
      "inputs": [
        {
          "internalType": "address[]",
          "name": "tos",
          "type": "address[]"
        }
      ],
      "name": "initialMint",
      "outputs": [],
      "stateMutability": "nonpayable",
      "type": "function"
    },
    {
      "inputs": [
        {
          "internalType": "address",
          "name": "dictionary",
          "type": "address"
        }
      ],
      "name": "initialize",
      "outputs": [],
      "stateMutability": "nonpayable",
      "type": "function"
    },
    {
      "inputs": [
        {
          "internalType": "address",
          "name": "owner",
          "type": "address"
        },
        {
          "internalType": "address",
          "name": "operator",
          "type": "address"
        }
      ],
      "name": "isApprovedForAll",
      "outputs": [
        {
          "internalType": "bool",
          "name": "",
          "type": "bool"
        }
      ],
      "stateMutability": "view",
      "type": "function"
    },
    {
      "inputs": [],
      "name": "name",
      "outputs": [
        {
          "internalType": "string",
          "name": "",
          "type": "string"
        }
      ],
      "stateMutability": "view",
      "type": "function"
    },
    {
      "inputs": [],
      "name": "owner",
      "outputs": [
        {
          "internalType": "address",
          "name": "",
          "type": "address"
        }
      ],
      "stateMutability": "view",
      "type": "function"
    },
    {
      "inputs": [
        {
          "internalType": "uint256",
          "name": "tokenId",
          "type": "uint256"
        }
      ],
      "name": "ownerOf",
      "outputs": [
        {
          "internalType": "address",
          "name": "",
          "type": "address"
        }
      ],
      "stateMutability": "view",
      "type": "function"
    },
    {
      "inputs": [],
      "name": "renounceOwnership",
      "outputs": [],
      "stateMutability": "nonpayable",
      "type": "function"
    },
    {
      "inputs": [
        {
          "internalType": "address",
          "name": "from",
          "type": "address"
        },
        {
          "internalType": "address",
          "name": "to",
          "type": "address"
        },
        {
          "internalType": "uint256",
          "name": "tokenId",
          "type": "uint256"
        }
      ],
      "name": "safeTransferFrom",
      "outputs": [],
      "stateMutability": "nonpayable",
      "type": "function"
    },
    {
      "inputs": [
        {
          "internalType": "address",
          "name": "from",
          "type": "address"
        },
        {
          "internalType": "address",
          "name": "to",
          "type": "address"
        },
        {
          "internalType": "uint256",
          "name": "tokenId",
          "type": "uint256"
        },
        {
          "internalType": "bytes",
          "name": "data",
          "type": "bytes"
        }
      ],
      "name": "safeTransferFrom",
      "outputs": [],
      "stateMutability": "nonpayable",
      "type": "function"
    },
    {
      "inputs": [
        {
          "internalType": "address",
          "name": "operator",
          "type": "address"
        },
        {
          "internalType": "bool",
          "name": "approved",
          "type": "bool"
        }
      ],
      "name": "setApprovalForAll",
      "outputs": [],
      "stateMutability": "nonpayable",
      "type": "function"
    },
    {
      "inputs": [
        {
          "internalType": "bytes4",
          "name": "interfaceId",
          "type": "bytes4"
        }
      ],
      "name": "supportsInterface",
      "outputs": [
        {
          "internalType": "bool",
          "name": "",
          "type": "bool"
        }
      ],
      "stateMutability": "pure",
      "type": "function"
    },
    {
      "inputs": [],
      "name": "symbol",
      "outputs": [
        {
          "internalType": "string",
          "name": "",
          "type": "string"
        }
      ],
      "stateMutability": "view",
      "type": "function"
    },
    {
      "inputs": [
        {
          "internalType": "uint256",
          "name": "index",
          "type": "uint256"
        }
      ],
      "name": "tokenByIndex",
      "outputs": [
        {
          "internalType": "uint256",
          "name": "",
          "type": "uint256"
        }
      ],
      "stateMutability": "view",
      "type": "function"
    },
    {
      "inputs": [
        {
          "internalType": "address",
          "name": "owner",
          "type": "address"
        },
        {
          "internalType": "uint256",
          "name": "index",
          "type": "uint256"
        }
      ],
      "name": "tokenOfOwnerByIndex",
      "outputs": [
        {
          "internalType": "uint256",
          "name": "",
          "type": "uint256"
        }
      ],
      "stateMutability": "view",
      "type": "function"
    },
    {
      "inputs": [
        {
          "internalType": "uint256",
          "name": "tokenId",
          "type": "uint256"
        }
      ],
      "name": "tokenURI",
      "outputs": [
        {
          "internalType": "string",
          "name": "",
          "type": "string"
        }
      ],
      "stateMutability": "view",
      "type": "function"
    },
    {
      "inputs": [],
      "name": "totalSupply",
      "outputs": [
        {
          "internalType": "uint256",
          "name": "",
          "type": "uint256"
        }
      ],
      "stateMutability": "view",
      "type": "function"
    },
    {
      "inputs": [
        {
          "internalType": "address",
          "name": "from",
          "type": "address"
        },
        {
          "internalType": "address",
          "name": "to",
          "type": "address"
        },
        {
          "internalType": "uint256",
          "name": "tokenId",
          "type": "uint256"
        }
      ],
      "name": "transferFrom",
      "outputs": [],
      "stateMutability": "nonpayable",
      "type": "function"
    },
    {
      "inputs": [
        {
          "internalType": "address",
          "name": "newOwner",
          "type": "address"
        }
      ],
      "name": "transferOwnership",
      "outputs": [],
      "stateMutability": "nonpayable",
      "type": "function"
    },
    {
      "inputs": [
        {
          "internalType": "uint256",
          "name": "tokenId",
          "type": "uint256"
        }
      ],
      "name": "unfreezeToken",
      "outputs": [],
      "stateMutability": "nonpayable",
      "type": "function"
    }
  ],
  "bytecode": "0x60808060405234601557611c7f908161001b8239f35b600080fdfe608080604052600436101561001357600080fd5b60003560e01c90816301ffc9a7146112275750806306fdde0314611203578063081812fc146111db578063095ea7b31461110057806318160ddd146110d957806323b872dd146110c25780632f745c591461109b57806342842e0e146110715780634d787ea9146110135780634f6ccce714610fae5780635de6dc5514610eee5780636352211e14610ebe57806370a0823114610e93578063715018a614610e2a5780638da5cb5b14610dfd57806395d89b4114610dd657806397294fea14610da1578063a22cb46514610cef578063b6854f9614610c8e578063b88d4fde14610c03578063c3b0ce3b1461066f578063c4d66de814610269578063c87b56dd14610232578063e12a8b7c1461020f578063e985e9c5146101d95763f2fde38b1461013d57600080fd5b346101d45760203660031901126101d4576101566112e9565b61015e611a36565b6001600160a01b031680156101be576001600160a01b0361017d611a65565b5416610187611a65565b80546001600160a01b031916831790557f8be0079c531659141344cd1fd0a4f28419497f9722a3daafe3b4186f6b6457e0600080a3005b631e4fbdf760e01b600052600060045260246000fd5b600080fd5b346101d45760403660031901126101d45760206102056101f76112e9565b6101ff6112ff565b90611b11565b6040519015158152f35b346101d45760003660031901126101d457602060ff600054166040519015158152f35b346101d45760203660031901126101d457610265610251600435611a9e565b6040519182916020835260208301906112aa565b0390f35b346101d45760203660031901126101d4576102826112e9565b60ff61028c611c10565b541661064957604051906102c06102a3818461134f565b60158352601f1901366020840137634b94a7f560e11b6102c2836119bd565b5263c87b56dd60e01b6102d4836119ca565b52815160021015610659576318160ddd60e01b6060830152815160031015610659576301ffc9a760e01b6080830152815160041015610659576370a0823160e01b60a0830152815160051015610659576331a9108f60e11b60c08301528151600610156106595763095ea7b360e01b60e08301528151600710156106595763020604bf60e21b6101008301528151600810156106595763a22cb46560e01b6101208301528151600910156106595763e985e9c560e01b6101408301528151600a1015610659576323b872dd60e01b6101608301528151600b101561065957632142170760e11b6101808301528151600c101561065957635c46a7ef60e11b6101a08301528151600d1015610659576306fdde0360e01b6101c08301528151600e1015610659576395d89b4160e01b6101e08301528151600f101561065957634f6ccce760e01b61020083015281516010101561065957632f745c5960e01b61022083015281516011101561065957635de6dc5560e01b61024083015281516012101561065957635b42a7cb60e11b61026083015281516013101561065957634d787ea960e01b61028083015281516014101561065957634b94a7f560e11b6102a08301526001600160a01b03169060005b815181101561052d576001600160e01b03196104c182846119da565b511690833b156101d457604051630815f6fd60e01b81526001600160e01b031992909216600483015230602483015260008260448183885af191821561052157600192610510575b50016104a5565b600061051b9161134f565b84610509565b6040513d6000823e3d90fd5b82337f171a7dc80b6dc11005bc264b86aca451619865e5e8dad90855002dd8814b3362600080a260ff61055e611c10565b54166106495760405161057260608261134f565b60028152604036602083013763c3b0ce3b60e01b61058f826119bd565b5263384aa2df60e21b6105a1826119ca565b5260005b8151811015610621576001600160e01b03196105c182846119da565b511690833b156101d457604051630815f6fd60e01b81526001600160e01b031992909216600483015230602483015260008260448183885af191821561052157600192610610575b50016105a5565b600061061b9161134f565b84610609565b337fe001193f99c23bcf1352f0922ecb0692a3aa86a64d1a51b6922361820821ddd9600080a2005b62dc149f60e41b60005260046000fd5b634e487b7160e01b600052603260045260246000fd5b346101d45760203660031901126101d45760043567ffffffffffffffff81116101d457366023820112156101d457806004013567ffffffffffffffff81116101d4573660248260051b840101116101d457604051602081017fcf377bf0da9cb35454543c63ad54bf2c5a0466b629ac7517e61f8857cae0fa258152602082526106f960408361134f565b60ff1991519020167f7ed687a8f2955bd2ba7ca08227e1e364d132be747f42fb733165f923021b0225600052602052604060002060018060a01b03331660005260205260ff6040600020541615610bee579060209060005b83811015610b605760006024600583901b840101356001600160a01b03811690818103610b5c57610780611a65565b80546000198114610b48576001018091556040519161079f888461134f565b8483528315610b34576107b182611b4b565b6001600160a01b03811680158015929190879084610b0a575b60036107d46118f4565b01828b528d5260408a206001815401905560026107ef6118f4565b888c52018d5260408a2080546001600160a01b031916831790558682847fddf252ad1be2c89b69c2b068fc378daa952ba7f163c4a11628f55a4df523b3ef8d80a415610a6e57506002610840611b7c565b0154600361084c611b7c565b01868a528c5260408920556002610861611b7c565b01805490600160401b821015610a5a5786610887836108a09360018d979601815561198d565b90919082549060031b91821b91600019901b1916179055565b036109fb575b506109e7573b6108bd575b50505050600101610751565b956108fd91819895939694976040519384928392630a85bd0160e11b84523360048501528b602485015260448401526080606484015260848301906112aa565b038189895af18691816109a3575b5061096657505050503d60001461095f573d61092681611387565b90610934604051928361134f565b81523d838583013e5b8051938461095957633250574960e11b84526004839052602484fd5b84925001fd5b606061093d565b929594919390926001600160e01b03191663757a42ff60e11b0161099057505060018580806108b1565b633250574960e11b825260045260249150fd5b9091508781813d83116109e0575b6109bb818361134f565b810103126109dc57516001600160e01b0319811681036109dc57908861090b565b8680fd5b503d6109b1565b6339e3563760e11b85526004859052602485fd5b610a04836119ee565b6000198101908111610a4657610a18611b7c565b8789528b52604088208189528b528460408920556001610a36611b7c565b018589528b5260408820556108a6565b634e487b7160e01b88526011600452602488fd5b634e487b7160e01b8a52604160045260248afd5b908082146108a0578b610a80846119ee565b6001610a8a611b7c565b01888c52825260408b2054610a9d611b7c565b848d5283528b6040812093838303610ad8575b9150506001610abd611b7c565b0190898d52528a60408120558a528c528860408120556108a0565b83825284815260408220548383528582528060408420556001610af9611b7c565b0192525260408c20558f8b8f610ab0565b610b1387611b55565b6003610b1d6118f4565b848c52018d5260408a2080546000190190556107ca565b633250574960e11b85526004859052602485fd5b634e487b7160e01b85526011600452602485fd5b8280fd5b509091600160ff19600054161760005560405190808483018584525260246040830193019360005b828110610bb857307f1a011b8e3ac2481c2b87e374ace0f8bb1128f6a80697d6b4fd0817d950d4837b85870386a2005b91939091908535906001600160a01b03821682036101d4576001600160a01b039091168152948201948201939190600101610b88565b639c2f8ac360e01b6000523360045260246000fd5b346101d45760803660031901126101d457610c1c6112e9565b610c246112ff565b6064359167ffffffffffffffff83116101d457366023840112156101d457826004013591610c5183611387565b92610c5f604051948561134f565b80845236602482870101116101d4576020816000926024610c8c98018388013785010152604435916117a6565b005b346101d45760203660031901126101d4577f74308730007d8ee5b3c18fad784efa3555f62695e36960f803f475eeb663d10e60206004356003610ccf611a65565b018160005282526040600020600160ff19825416179055604051908152a1005b346101d45760403660031901126101d457610d086112e9565b602435908115158092036101d4576001600160a01b0316908115610d8c576005610d306118f4565b0160018060a01b033316600052602052604060002082600052602052604060002060ff1981541660ff83161790556040519081527f17307eab39ab6107e8899845ad3d59bd9653f200f220920489ca2b5937696c3160203392a3005b50630b61174360e31b60005260045260246000fd5b346101d45760203660031901126101d4576004610dbc611a65565b016004356000526020526020604060002054604051908152f35b346101d45760003660031901126101d4576102656102516001610df76118f4565b016113a3565b346101d45760003660031901126101d45760206001600160a01b03610e20611a65565b5416604051908152f35b346101d45760003660031901126101d457610e43611a36565b60006001600160a01b03610e55611a65565b5416610e5f611a65565b80546001600160a01b03191690557f8be0079c531659141344cd1fd0a4f28419497f9722a3daafe3b4186f6b6457e08280a3005b346101d45760203660031901126101d4576020610eb6610eb16112e9565b6119ee565b604051908152f35b346101d45760203660031901126101d4576020610edc600435611938565b6040516001600160a01b039091168152f35b346101d45760203660031901126101d457610f076112e9565b610f10816119ee565b90610f1a826119a5565b91610f28604051938461134f565b808352610f34816119a5565b602084019290601f190136843760005b828110610f905783856040519182916020830190602084525180915260408301919060005b818110610f77575050500390f35b8251845285945060209384019390920191600101610f69565b80610f9d60019284611bb5565b610fa782886119da565b5201610f44565b346101d45760203660031901126101d4576004356002610fcc611b7c565b0154811015610ffa57610feb6020916002610fe5611b7c565b0161198d565b90549060031b1c604051908152f35b63295f44f760e21b600052600060045260245260446000fd5b346101d45760203660031901126101d4577fdad54db74d8c1152c7cb496a900d181b8e9b69b70e55db2362bd100897a4f7a160206004356003611054611a65565b01816000528252604060002060ff198154169055604051908152a1005b346101d457610c8c61108236611315565b906040519261109260208561134f565b600084526117a6565b346101d45760403660031901126101d4576020610eb66110b96112e9565b60243590611bb5565b346101d457610c8c6110d336611315565b91611473565b346101d45760003660031901126101d457602060026110f6611b7c565b0154604051908152f35b346101d45760403660031901126101d4576111196112e9565b60243561112581611938565b331515806111c8575b806111b7575b6111a25781906001600160a01b0384811691167f8c5be1e5ebec7d5bd14f71427d1e84f3dd0314c0f7b2291e5b200ac8c7c3b925600080a460046111766118f4565b6000928352016020526040902080546001600160a01b0319166001600160a01b03909216919091179055005b63a9fbf51f60e01b6000523360045260246000fd5b506111c23382611b11565b15611134565b506001600160a01b03811633141561112e565b346101d45760203660031901126101d4576020610edc6004356111fd81611938565b50611969565b346101d45760003660031901126101d4576102656102516112226118f4565b6113a3565b346101d45760203660031901126101d4576004359063ffffffff60e01b82168092036101d4576020916380ac58cd60e01b8114908115611299575b8115611288575b8115611277575b5015158152f35b632483248360e11b14905083611270565b63780e9d6360e01b81149150611269565b635b5e139f60e01b81149150611262565b919082518082526020808301940160005b8281106112d9575050600081602094950152601f8019910116010190565b81810151868201526020016112bb565b600435906001600160a01b03821682036101d457565b602435906001600160a01b03821682036101d457565b60609060031901126101d4576004356001600160a01b03811681036101d457906024356001600160a01b03811681036101d4579060443590565b90601f8019910116810190811067ffffffffffffffff82111761137157604052565b634e487b7160e01b600052604160045260246000fd5b67ffffffffffffffff811161137157601f01601f191660200190565b906040519160008154918260011c92600181168015611469575b6020851081146114555784875286939291811561143357506001146113ec575b506113ea9250038361134f565b565b90506000929192526020600020906000915b8183106114175750509060206113ea92820101386113dd565b60209193508060019154838589010152019101909184926113fe565b9050602092506113ea94915060ff191682840152151560051b820101386113dd565b634e487b7160e01b84526022600452602484fd5b93607f16936113bd565b9091906001600160a01b0383168015611790576004611490611a65565b0183600052602052426040600020556000906114ab84611b4b565b9133151580611704575b506001600160a01b03831695861580156116d9575b60036114d46118f4565b01848452602052604083206001815401905560026114f06118f4565b888552016020526040832080546001600160a01b031916851790558684897fddf252ad1be2c89b69c2b068fc378daa952ba7f163c4a11628f55a4df523b3ef8680a41561163a576002611541611b7c565b0154600361154d611b7c565b0187845260205260408320556002611563611b7c565b01805490600160401b8210156116265761088782899260016115879501815561198d565b8287036115c1575b5050505060018060a01b03168083036115a757505050565b6364283d7b60e01b60005260045260245260445260646000fd5b6115ca906119ee565b60001981019290831161161257906040916115e3611b7c565b90825260205281812083825260205285828220556001611601611b7c565b01868252602052205538808061158f565b634e487b7160e01b82526011600452602482fd5b634e487b7160e01b84526041600452602484fd5b8683146115875761164a846119ee565b6001611654611b7c565b01878452602052604083205490611669611b7c565b89855260205260408420918181036116a4575b506001611687611b7c565b018885526020528360408120558352602052816040812055611587565b8185528260205260408520548186528360205280604087205560016116c7611b7c565b0190865260205260408520553861167c565b6116e287611b55565b60036116ec6118f4565b898552016020526040832080546000190190556114ca565b8061174d575b1561171557386114b5565b9250506001600160a01b031661173757602491637e27328960e01b8252600452fd5b60449163177e802f60e01b825233600452602452fd5b506001600160a01b03831633148015611780575b8061170a5750336001600160a01b0361177987611969565b161461170a565b5061178b3384611b11565b611761565b633250574960e11b600052600060045260246000fd5b92916117b3818386611473565b813b6117c0575b50505050565b604051630a85bd0160e11b81523360048201526001600160a01b039485166024820152604481019190915260806064820152921691906020908290819061180b9060848301906112aa565b03816000865af180916000916118aa575b509061187557503d1561186e573d61183381611387565b90611841604051928361134f565b81523d6000602083013e5b805190816118695782633250574960e11b60005260045260246000fd5b602001fd5b606061184c565b6001600160e01b03191663757a42ff60e11b016118965750388080806117ba565b633250574960e11b60005260045260246000fd5b6020813d6020116118ec575b816118c36020938361134f565b810103126118e85751906001600160e01b0319821682036118e557503861181c565b80fd5b5080fd5b3d91506118b6565b604051602081017fb7b8777dfce3c027b9b4ab96baa886d0c5d5e8c8632429d2b4be0ba869cd905f81526020825261192d60408361134f565b9051902060ff191690565b61194181611b4b565b906001600160a01b03821615611955575090565b637e27328960e01b60005260045260246000fd5b60046119736118f4565b60009283520160205260409020546001600160a01b031690565b80548210156106595760005260206000200190600090565b67ffffffffffffffff81116113715760051b60200190565b8051156106595760200190565b8051600110156106595760400190565b80518210156106595760209160051b010190565b6001600160a01b03811615611a20576003611a076118f4565b019060018060a01b031660005260205260406000205490565b6322718ad960e21b600052600060045260246000fd5b6001600160a01b03611a46611a65565b54163303611a5057565b63118cdaa760e01b6000523360045260246000fd5b604051602081017f0cee7785c9739c2abcb4ce591dada6e864d6d906251746912d12a62bb828bf6881526020825261192d60408361134f565b611aa781611938565b50604051602081017f83126a7e0b3d5a7bd433798795b790de3287f4b1cb3d1042e8a9e2a4e5391b40815260208252611ae160408361134f565b60ff19915190201690600052602052611afd60406000206113a3565b6000604051611b0d60208261134f565b5290565b6005611b1b6118f4565b019060018060a01b031660005260205260406000209060018060a01b031660005260205260ff6040600020541690565b60026119736118f4565b6004611b5f6118f4565b6000928352016020526040902080546001600160a01b0319169055565b604051602081017f2070bae6b675801f0932481e70ab724699e22000dcf2efe36a44b6070d9ee8f181526020825261192d60408361134f565b611bbe816119ee565b821015611bf157611bcd611b7c565b9060018060a01b031660005260205260406000209060005260205260406000205490565b63295f44f760e21b60005260018060a01b031660045260245260446000fd5b604051602081017ff158cb8b47a14bda3b2c4affcc0d960e9ed23f5a516e4779510b08a6e823c02581526020825261192d60408361134f56fea2646970667358221220ff328b2b4280b8982565fe52402ba56ae67c13ab1ec73a40afac63a1e460231664736f6c634300081c0033",
  "linkReferences": {},
  "deployedLinkReferences": {}
}