{
  "_format": "hh-sol-artifact-1",
  "contractName": "LETS_JP_LLC_NON_EXE",
  "sourceName": "contracts/sc/Services/LETS/functions/extentions/LETS_JP_LLC/LETS_JP_LLC_NON_EXE.sol",
  "abi": [
    {
      "inputs": [],
      "name": "AlreadyInitialized",
      "type": "error"
    },
    {
      "inputs": [
        {
          "internalType": "address",
          "name": "sender",
          "type": "address"
        },
        {
          "internalType": "uint256",
          "name": "tokenId",
          "type": "uint256"
        },
        {
          "internalType": "address",
          "name": "owner",
          "type": "address"
        }
      ],
      "name": "ERC721IncorrectOwner",
      "type": "error"
    },
    {
      "inputs": [
        {
          "internalType": "address",
          "name": "operator",
          "type": "address"
        },
        {
          "internalType": "uint256",
          "name": "tokenId",
          "type": "uint256"
        }
      ],
      "name": "ERC721InsufficientApproval",
      "type": "error"
    },
    {
      "inputs": [
        {
          "internalType": "address",
          "name": "approver",
          "type": "address"
        }
      ],
      "name": "ERC721InvalidApprover",
      "type": "error"
    },
    {
      "inputs": [
        {
          "internalType": "address",
          "name": "operator",
          "type": "address"
        }
      ],
      "name": "ERC721InvalidOperator",
      "type": "error"
    },
    {
      "inputs": [
        {
          "internalType": "address",
          "name": "owner",
          "type": "address"
        }
      ],
      "name": "ERC721InvalidOwner",
      "type": "error"
    },
    {
      "inputs": [
        {
          "internalType": "address",
          "name": "receiver",
          "type": "address"
        }
      ],
      "name": "ERC721InvalidReceiver",
      "type": "error"
    },
    {
      "inputs": [
        {
          "internalType": "address",
          "name": "sender",
          "type": "address"
        }
      ],
      "name": "ERC721InvalidSender",
      "type": "error"
    },
    {
      "inputs": [
        {
          "internalType": "uint256",
          "name": "tokenId",
          "type": "uint256"
        }
      ],
      "name": "ERC721NonexistentToken",
      "type": "error"
    },
    {
      "inputs": [
        {
          "internalType": "address",
          "name": "owner",
          "type": "address"
        },
        {
          "internalType": "uint256",
          "name": "index",
          "type": "uint256"
        }
      ],
      "name": "ERC721OutOfBoundsIndex",
      "type": "error"
    },
    {
      "inputs": [
        {
          "internalType": "address",
          "name": "caller",
          "type": "address"
        }
      ],
      "name": "NotGovernance",
      "type": "error"
    },
    {
      "inputs": [
        {
          "internalType": "address",
          "name": "caller",
          "type": "address"
        }
      ],
      "name": "NotLetsSale",
      "type": "error"
    },
    {
      "inputs": [],
      "name": "NotTransferable",
      "type": "error"
    },
    {
      "inputs": [
        {
          "internalType": "address",
          "name": "owner",
          "type": "address"
        }
      ],
      "name": "OwnableInvalidOwner",
      "type": "error"
    },
    {
      "inputs": [
        {
          "internalType": "address",
          "name": "account",
          "type": "address"
        }
      ],
      "name": "OwnableUnauthorizedAccount",
      "type": "error"
    },
    {
      "anonymous": false,
      "inputs": [
        {
          "indexed": true,
          "internalType": "address",
          "name": "owner",
          "type": "address"
        },
        {
          "indexed": true,
          "internalType": "address",
          "name": "approved",
          "type": "address"
        },
        {
          "indexed": true,
          "internalType": "uint256",
          "name": "tokenId",
          "type": "uint256"
        }
      ],
      "name": "Approval",
      "type": "event"
    },
    {
      "anonymous": false,
      "inputs": [
        {
          "indexed": true,
          "internalType": "address",
          "name": "owner",
          "type": "address"
        },
        {
          "indexed": true,
          "internalType": "address",
          "name": "operator",
          "type": "address"
        },
        {
          "indexed": false,
          "internalType": "bool",
          "name": "approved",
          "type": "bool"
        }
      ],
      "name": "ApprovalForAll",
      "type": "event"
    },
    {
      "anonymous": false,
      "inputs": [
        {
          "indexed": false,
          "internalType": "uint256",
          "name": "_fromTokenId",
          "type": "uint256"
        },
        {
          "indexed": false,
          "internalType": "uint256",
          "name": "_toTokenId",
          "type": "uint256"
        }
      ],
      "name": "BatchMetadataUpdate",
      "type": "event"
    },
    {
      "anonymous": false,
      "inputs": [
        {
          "indexed": true,
          "internalType": "address",
          "name": "initializer",
          "type": "address"
        }
      ],
      "name": "LETSBaseInitialized",
      "type": "event"
    },
    {
      "anonymous": false,
      "inputs": [
        {
          "indexed": false,
          "internalType": "uint256",
          "name": "_tokenId",
          "type": "uint256"
        }
      ],
      "name": "MetadataUpdate",
      "type": "event"
    },
    {
      "anonymous": false,
      "inputs": [
        {
          "indexed": true,
          "internalType": "address",
          "name": "previousOwner",
          "type": "address"
        },
        {
          "indexed": true,
          "internalType": "address",
          "name": "newOwner",
          "type": "address"
        }
      ],
      "name": "OwnershipTransferred",
      "type": "event"
    },
    {
      "anonymous": false,
      "inputs": [
        {
          "indexed": false,
          "internalType": "uint256",
          "name": "tokenId",
          "type": "uint256"
        }
      ],
      "name": "TokenFrozen",
      "type": "event"
    },
    {
      "anonymous": false,
      "inputs": [
        {
          "indexed": false,
          "internalType": "uint256",
          "name": "tokenId",
          "type": "uint256"
        }
      ],
      "name": "TokenUnfrozen",
      "type": "event"
    },
    {
      "anonymous": false,
      "inputs": [
        {
          "indexed": true,
          "internalType": "address",
          "name": "from",
          "type": "address"
        },
        {
          "indexed": true,
          "internalType": "address",
          "name": "to",
          "type": "address"
        },
        {
          "indexed": true,
          "internalType": "uint256",
          "name": "tokenId",
          "type": "uint256"
        }
      ],
      "name": "Transfer",
      "type": "event"
    },
    {
      "inputs": [
        {
          "internalType": "address",
          "name": "to",
          "type": "address"
        },
        {
          "internalType": "uint256",
          "name": "tokenId",
          "type": "uint256"
        }
      ],
      "name": "approve",
      "outputs": [],
      "stateMutability": "nonpayable",
      "type": "function"
    },
    {
      "inputs": [
        {
          "internalType": "address",
          "name": "owner",
          "type": "address"
        }
      ],
      "name": "balanceOf",
      "outputs": [
        {
          "internalType": "uint256",
          "name": "",
          "type": "uint256"
        }
      ],
      "stateMutability": "view",
      "type": "function"
    },
    {
      "inputs": [
        {
          "internalType": "uint256",
          "name": "tokenId",
          "type": "uint256"
        }
      ],
      "name": "freezeToken",
      "outputs": [],
      "stateMutability": "nonpayable",
      "type": "function"
    },
    {
      "inputs": [
        {
          "internalType": "uint256",
          "name": "tokenId",
          "type": "uint256"
        }
      ],
      "name": "getApproved",
      "outputs": [
        {
          "internalType": "address",
          "name": "",
          "type": "address"
        }
      ],
      "stateMutability": "view",
      "type": "function"
    },
    {
      "inputs": [
        {
          "internalType": "address",
          "name": "owner",
          "type": "address"
        }
      ],
      "name": "getTokensOfOwner",
      "outputs": [
        {
          "internalType": "uint256[]",
          "name": "",
          "type": "uint256[]"
        }
      ],
      "stateMutability": "view",
      "type": "function"
    },
    {
      "inputs": [
        {
          "internalType": "uint256",
          "name": "tokenId",
          "type": "uint256"
        }
      ],
      "name": "getUpdatedToken",
      "outputs": [
        {
          "internalType": "uint256",
          "name": "",
          "type": "uint256"
        }
      ],
      "stateMutability": "view",
      "type": "function"
    },
    {
      "inputs": [
        {
          "internalType": "address",
          "name": "dictionary",
          "type": "address"
        }
      ],
      "name": "initialize",
      "outputs": [],
      "stateMutability": "nonpayable",
      "type": "function"
    },
    {
      "inputs": [
        {
          "internalType": "address",
          "name": "owner",
          "type": "address"
        },
        {
          "internalType": "address",
          "name": "operator",
          "type": "address"
        }
      ],
      "name": "isApprovedForAll",
      "outputs": [
        {
          "internalType": "bool",
          "name": "",
          "type": "bool"
        }
      ],
      "stateMutability": "view",
      "type": "function"
    },
    {
      "inputs": [],
      "name": "name",
      "outputs": [
        {
          "internalType": "string",
          "name": "",
          "type": "string"
        }
      ],
      "stateMutability": "view",
      "type": "function"
    },
    {
      "inputs": [],
      "name": "owner",
      "outputs": [
        {
          "internalType": "address",
          "name": "",
          "type": "address"
        }
      ],
      "stateMutability": "view",
      "type": "function"
    },
    {
      "inputs": [
        {
          "internalType": "uint256",
          "name": "tokenId",
          "type": "uint256"
        }
      ],
      "name": "ownerOf",
      "outputs": [
        {
          "internalType": "address",
          "name": "",
          "type": "address"
        }
      ],
      "stateMutability": "view",
      "type": "function"
    },
    {
      "inputs": [],
      "name": "renounceOwnership",
      "outputs": [],
      "stateMutability": "nonpayable",
      "type": "function"
    },
    {
      "inputs": [
        {
          "internalType": "address",
          "name": "from",
          "type": "address"
        },
        {
          "internalType": "address",
          "name": "to",
          "type": "address"
        },
        {
          "internalType": "uint256",
          "name": "tokenId",
          "type": "uint256"
        }
      ],
      "name": "safeTransferFrom",
      "outputs": [],
      "stateMutability": "nonpayable",
      "type": "function"
    },
    {
      "inputs": [
        {
          "internalType": "address",
          "name": "from",
          "type": "address"
        },
        {
          "internalType": "address",
          "name": "to",
          "type": "address"
        },
        {
          "internalType": "uint256",
          "name": "tokenId",
          "type": "uint256"
        },
        {
          "internalType": "bytes",
          "name": "data",
          "type": "bytes"
        }
      ],
      "name": "safeTransferFrom",
      "outputs": [],
      "stateMutability": "nonpayable",
      "type": "function"
    },
    {
      "inputs": [
        {
          "internalType": "address",
          "name": "operator",
          "type": "address"
        },
        {
          "internalType": "bool",
          "name": "approved",
          "type": "bool"
        }
      ],
      "name": "setApprovalForAll",
      "outputs": [],
      "stateMutability": "nonpayable",
      "type": "function"
    },
    {
      "inputs": [
        {
          "internalType": "bytes4",
          "name": "interfaceId",
          "type": "bytes4"
        }
      ],
      "name": "supportsInterface",
      "outputs": [
        {
          "internalType": "bool",
          "name": "",
          "type": "bool"
        }
      ],
      "stateMutability": "pure",
      "type": "function"
    },
    {
      "inputs": [],
      "name": "symbol",
      "outputs": [
        {
          "internalType": "string",
          "name": "",
          "type": "string"
        }
      ],
      "stateMutability": "view",
      "type": "function"
    },
    {
      "inputs": [
        {
          "internalType": "uint256",
          "name": "index",
          "type": "uint256"
        }
      ],
      "name": "tokenByIndex",
      "outputs": [
        {
          "internalType": "uint256",
          "name": "",
          "type": "uint256"
        }
      ],
      "stateMutability": "view",
      "type": "function"
    },
    {
      "inputs": [
        {
          "internalType": "address",
          "name": "owner",
          "type": "address"
        },
        {
          "internalType": "uint256",
          "name": "index",
          "type": "uint256"
        }
      ],
      "name": "tokenOfOwnerByIndex",
      "outputs": [
        {
          "internalType": "uint256",
          "name": "",
          "type": "uint256"
        }
      ],
      "stateMutability": "view",
      "type": "function"
    },
    {
      "inputs": [
        {
          "internalType": "uint256",
          "name": "tokenId",
          "type": "uint256"
        }
      ],
      "name": "tokenURI",
      "outputs": [
        {
          "internalType": "string",
          "name": "",
          "type": "string"
        }
      ],
      "stateMutability": "view",
      "type": "function"
    },
    {
      "inputs": [],
      "name": "totalSupply",
      "outputs": [
        {
          "internalType": "uint256",
          "name": "",
          "type": "uint256"
        }
      ],
      "stateMutability": "view",
      "type": "function"
    },
    {
      "inputs": [
        {
          "internalType": "address",
          "name": "from",
          "type": "address"
        },
        {
          "internalType": "address",
          "name": "to",
          "type": "address"
        },
        {
          "internalType": "uint256",
          "name": "tokenId",
          "type": "uint256"
        }
      ],
      "name": "transferFrom",
      "outputs": [],
      "stateMutability": "nonpayable",
      "type": "function"
    },
    {
      "inputs": [
        {
          "internalType": "address",
          "name": "newOwner",
          "type": "address"
        }
      ],
      "name": "transferOwnership",
      "outputs": [],
      "stateMutability": "nonpayable",
      "type": "function"
    },
    {
      "inputs": [
        {
          "internalType": "uint256",
          "name": "tokenId",
          "type": "uint256"
        }
      ],
      "name": "unfreezeToken",
      "outputs": [],
      "stateMutability": "nonpayable",
      "type": "function"
    }
  ],
  "bytecode": "0x608080604052346015576115c0908161001b8239f35b600080fdfe608080604052600436101561001357600080fd5b60003560e01c90816301ffc9a714610b985750806306fdde0314610b74578063081812fc14610b4c578063095ea7b314610a7157806318160ddd14610a4a57806323b872dd14610a335780632f745c5914610a0c57806342842e0e146109e25780634d787ea9146109845780634f6ccce71461091f5780635de6dc551461085f5780636352211e1461082f57806370a0823114610804578063715018a61461079b5780638da5cb5b1461076e57806395d89b411461074757806397294fea14610712578063a22cb46514610660578063b6854f96146105ff578063b88d4fde14610574578063c4d66de814610230578063c87b56dd146101f9578063e985e9c5146101c35763f2fde38b1461012757600080fd5b346101be5760203660031901126101be57610140610c5a565b6101486113d7565b6001600160a01b031680156101a8576001600160a01b03610167611406565b5416610171611406565b80546001600160a01b031916831790557f8be0079c531659141344cd1fd0a4f28419497f9722a3daafe3b4186f6b6457e0600080a3005b631e4fbdf760e01b600052600060045260246000fd5b600080fd5b346101be5760403660031901126101be5760206101ef6101e1610c5a565b6101e9610c70565b906114b2565b6040519015158152f35b346101be5760203660031901126101be5761022c61021860043561143f565b604051918291602083526020830190610c1b565b0390f35b346101be5760203660031901126101be57610249610c5a565b60ff604051602081017ff158cb8b47a14bda3b2c4affcc0d960e9ed23f5a516e4779510b08a6e823c025815260208252610284604083610cc0565b82199151902016541661056457604051906102c06102a28184610cc0565b601583526020830190601f190136823782511561054e57634b94a7f560e11b905281516001101561054e5763c87b56dd60e01b604083015281516002101561054e576318160ddd60e01b606083015281516003101561054e576301ffc9a760e01b608083015281516004101561054e576370a0823160e01b60a083015281516005101561054e576331a9108f60e11b60c083015281516006101561054e5763095ea7b360e01b60e083015281516007101561054e5763020604bf60e21b61010083015281516008101561054e5763a22cb46560e01b61012083015281516009101561054e5763e985e9c560e01b6101408301528151600a101561054e576323b872dd60e01b6101608301528151600b101561054e57632142170760e11b6101808301528151600c101561054e57635c46a7ef60e11b6101a08301528151600d101561054e576306fdde0360e01b6101c08301528151600e101561054e576395d89b4160e01b6101e08301528151600f101561054e57634f6ccce760e01b61020083015281516010101561054e57632f745c5960e01b61022083015281516011101561054e57635de6dc5560e01b61024083015281516012101561054e57635b42a7cb60e11b61026083015281516013101561054e57634d787ea960e01b61028083015281516014101561054e57634b94a7f560e11b6102a08301526001600160a01b03169060005b8151811015610526576001600160e01b03196104c6828461137b565b511690833b156101be5760405191630815f6fd60e01b8352600483015230602483015260008260448183885af191821561051a57600192610509575b50016104aa565b600061051491610cc0565b84610502565b6040513d6000823e3d90fd5b337f171a7dc80b6dc11005bc264b86aca451619865e5e8dad90855002dd8814b3362600080a2005b634e487b7160e01b600052603260045260246000fd5b62dc149f60e41b60005260046000fd5b346101be5760803660031901126101be5761058d610c5a565b610595610c70565b6064359167ffffffffffffffff83116101be57366023840112156101be578260040135916105c283610cf8565b926105d06040519485610cc0565b80845236602482870101116101be5760208160009260246105fd9801838801378501015260443591611164565b005b346101be5760203660031901126101be577f74308730007d8ee5b3c18fad784efa3555f62695e36960f803f475eeb663d10e60206004356003610640611406565b018160005282526040600020600160ff19825416179055604051908152a1005b346101be5760403660031901126101be57610679610c5a565b602435908115158092036101be576001600160a01b03169081156106fd5760056106a16112b2565b0160018060a01b033316600052602052604060002082600052602052604060002060ff1981541660ff83161790556040519081527f17307eab39ab6107e8899845ad3d59bd9653f200f220920489ca2b5937696c3160203392a3005b50630b61174360e31b60005260045260246000fd5b346101be5760203660031901126101be57600461072d611406565b016004356000526020526020604060002054604051908152f35b346101be5760003660031901126101be5761022c61021860016107686112b2565b01610d14565b346101be5760003660031901126101be5760206001600160a01b03610791611406565b5416604051908152f35b346101be5760003660031901126101be576107b46113d7565b60006001600160a01b036107c6611406565b54166107d0611406565b80546001600160a01b03191690557f8be0079c531659141344cd1fd0a4f28419497f9722a3daafe3b4186f6b6457e08280a3005b346101be5760203660031901126101be576020610827610822610c5a565b61138f565b604051908152f35b346101be5760203660031901126101be57602061084d6004356112f6565b6040516001600160a01b039091168152f35b346101be5760203660031901126101be57610878610c5a565b6108818161138f565b9061088b82611363565b916108996040519384610cc0565b8083526108a581611363565b602084019290601f190136843760005b8281106109015783856040519182916020830190602084525180915260408301919060005b8181106108e8575050500390f35b82518452859450602093840193909201916001016108da565b8061090e6001928461152f565b610918828861137b565b52016108b5565b346101be5760203660031901126101be57600435600261093d6114f6565b015481101561096b5761095c60209160026109566114f6565b0161134b565b90549060031b1c604051908152f35b63295f44f760e21b600052600060045260245260446000fd5b346101be5760203660031901126101be577fdad54db74d8c1152c7cb496a900d181b8e9b69b70e55db2362bd100897a4f7a1602060043560036109c5611406565b01816000528252604060002060ff198154169055604051908152a1005b346101be576105fd6109f336610c86565b9060405192610a03602085610cc0565b60008452611164565b346101be5760403660031901126101be576020610827610a2a610c5a565b6024359061152f565b346101be576105fd610a4436610c86565b91610de4565b346101be5760003660031901126101be5760206002610a676114f6565b0154604051908152f35b346101be5760403660031901126101be57610a8a610c5a565b602435610a96816112f6565b33151580610b39575b80610b28575b610b135781906001600160a01b0384811691167f8c5be1e5ebec7d5bd14f71427d1e84f3dd0314c0f7b2291e5b200ac8c7c3b925600080a46004610ae76112b2565b6000928352016020526040902080546001600160a01b0319166001600160a01b03909216919091179055005b63a9fbf51f60e01b6000523360045260246000fd5b50610b3333826114b2565b15610aa5565b506001600160a01b038116331415610a9f565b346101be5760203660031901126101be57602061084d600435610b6e816112f6565b50611327565b346101be5760003660031901126101be5761022c610218610b936112b2565b610d14565b346101be5760203660031901126101be576004359063ffffffff60e01b82168092036101be576020916380ac58cd60e01b8114908115610c0a575b8115610bf9575b8115610be8575b5015158152f35b632483248360e11b14905083610be1565b63780e9d6360e01b81149150610bda565b635b5e139f60e01b81149150610bd3565b919082518082526020808301940160005b828110610c4a575050600081602094950152601f8019910116010190565b8181015186820152602001610c2c565b600435906001600160a01b03821682036101be57565b602435906001600160a01b03821682036101be57565b60609060031901126101be576004356001600160a01b03811681036101be57906024356001600160a01b03811681036101be579060443590565b90601f8019910116810190811067ffffffffffffffff821117610ce257604052565b634e487b7160e01b600052604160045260246000fd5b67ffffffffffffffff8111610ce257601f01601f191660200190565b906040519160008154918260011c92600181168015610dda575b602085108114610dc657848752869392918115610da45750600114610d5d575b50610d5b92500383610cc0565b565b90506000929192526020600020906000915b818310610d88575050906020610d5b9282010138610d4e565b6020919350806001915483858901015201910190918492610d6f565b905060209250610d5b94915060ff191682840152151560051b82010138610d4e565b634e487b7160e01b84526022600452602484fd5b93607f1693610d2e565b90916001600160a01b03831691821561114e576004610e01611406565b018260005260205242604060002055610e19826114ec565b92331515806110bf575b506001600160a01b038416938415801561106f575b6003610e426112b2565b01836000526020526040600020600181540190556002610e606112b2565b01856000526020526040600020836bffffffffffffffffffffffff60a01b8254161790558483877fddf252ad1be2c89b69c2b068fc378daa952ba7f163c4a11628f55a4df523b3ef600080a415610fba57506002610ebc6114f6565b01546003610ec86114f6565b01846000526020526040600020556002610ee06114f6565b01805468010000000000000000811015610ce257610f039160018201815561134b565b81549060031b9085821b91600019901b19161790555b600094818503610f55575b50506001600160a01b0316808303610f3c5750505050565b6364283d7b60e01b845260045260245260445260649150fd5b610f5e9061138f565b600019810191908211610fa657610f736114f6565b908652602052604085208186526020528260408620556001610f936114f6565b0183865260205260408520553880610f24565b634e487b7160e01b86526011600452602486fd5b818503610fc8575b50610f19565b610fd19061138f565b6001610fdb6114f6565b0184600052602052604060002054906040610ff46114f6565b6000908882526020522091818103611034575b5060016110126114f6565b0185600052602052600060408120556000526020526000604081205538610fc2565b8160005282602052604060002054816000528360205280604060002055600161105b6114f6565b019060005260205260406000205538611007565b60046110796112b2565b018560005260205260406000206bffffffffffffffffffffffff60a01b815416905560036110a56112b2565b018660005260205260406000206000198154019055610e38565b8061110b575b156110d05738610e23565b826001600160a01b0385166110f357637e27328960e01b60005260045260246000fd5b63177e802f60e01b6000523360045260245260446000fd5b506001600160a01b0384163314801561113e575b806110c55750336001600160a01b0361113785611327565b16146110c5565b5061114933856114b2565b61111f565b633250574960e11b600052600060045260246000fd5b9291611171818386610de4565b813b61117e575b50505050565b604051630a85bd0160e11b81523360048201526001600160a01b03948516602482015260448101919091526080606482015292169190602090829081906111c9906084830190610c1b565b03816000865af18091600091611268575b509061123357503d1561122c573d6111f181610cf8565b906111ff6040519283610cc0565b81523d6000602083013e5b805190816112275782633250574960e11b60005260045260246000fd5b602001fd5b606061120a565b6001600160e01b03191663757a42ff60e11b01611254575038808080611178565b633250574960e11b60005260045260246000fd5b6020813d6020116112aa575b8161128160209383610cc0565b810103126112a65751906001600160e01b0319821682036112a35750386111da565b80fd5b5080fd5b3d9150611274565b604051602081017fb7b8777dfce3c027b9b4ab96baa886d0c5d5e8c8632429d2b4be0ba869cd905f8152602082526112eb604083610cc0565b9051902060ff191690565b6112ff816114ec565b906001600160a01b03821615611313575090565b637e27328960e01b60005260045260246000fd5b60046113316112b2565b60009283520160205260409020546001600160a01b031690565b805482101561054e5760005260206000200190600090565b67ffffffffffffffff8111610ce25760051b60200190565b805182101561054e5760209160051b010190565b6001600160a01b038116156113c15760036113a86112b2565b019060018060a01b031660005260205260406000205490565b6322718ad960e21b600052600060045260246000fd5b6001600160a01b036113e7611406565b541633036113f157565b63118cdaa760e01b6000523360045260246000fd5b604051602081017f0cee7785c9739c2abcb4ce591dada6e864d6d906251746912d12a62bb828bf688152602082526112eb604083610cc0565b611448816112f6565b50604051602081017f83126a7e0b3d5a7bd433798795b790de3287f4b1cb3d1042e8a9e2a4e5391b40815260208252611482604083610cc0565b60ff1991519020169060005260205261149e6040600020610d14565b60006040516114ae602082610cc0565b5290565b60056114bc6112b2565b019060018060a01b031660005260205260406000209060018060a01b031660005260205260ff6040600020541690565b60026113316112b2565b604051602081017f2070bae6b675801f0932481e70ab724699e22000dcf2efe36a44b6070d9ee8f18152602082526112eb604083610cc0565b6115388161138f565b82101561156b576115476114f6565b9060018060a01b031660005260205260406000209060005260205260406000205490565b63295f44f760e21b60005260018060a01b031660045260245260446000fdfea264697066735822122016c10afa6ee58099cf967270ee38c928e693384efa4b5785a7b9ab5e0bcfff7f64736f6c634300081c0033",
  "linkReferences": {},
  "deployedLinkReferences": {}
}