{
  "_format": "hh-sol-artifact-1",
  "contractName": "LETS_JP_LLC_NON_EXE",
  "sourceName": "contracts/sc/Services/LETS/functions/extentions/LETS_JP_LLC/LETS_JP_LLC_NON_EXE.sol",
  "abi": [
    {
      "inputs": [],
      "name": "AlreadyInitialized",
      "type": "error"
    },
    {
      "inputs": [
        {
          "internalType": "address",
          "name": "sender",
          "type": "address"
        },
        {
          "internalType": "uint256",
          "name": "tokenId",
          "type": "uint256"
        },
        {
          "internalType": "address",
          "name": "owner",
          "type": "address"
        }
      ],
      "name": "ERC721IncorrectOwner",
      "type": "error"
    },
    {
      "inputs": [
        {
          "internalType": "address",
          "name": "operator",
          "type": "address"
        },
        {
          "internalType": "uint256",
          "name": "tokenId",
          "type": "uint256"
        }
      ],
      "name": "ERC721InsufficientApproval",
      "type": "error"
    },
    {
      "inputs": [
        {
          "internalType": "address",
          "name": "approver",
          "type": "address"
        }
      ],
      "name": "ERC721InvalidApprover",
      "type": "error"
    },
    {
      "inputs": [
        {
          "internalType": "address",
          "name": "operator",
          "type": "address"
        }
      ],
      "name": "ERC721InvalidOperator",
      "type": "error"
    },
    {
      "inputs": [
        {
          "internalType": "address",
          "name": "owner",
          "type": "address"
        }
      ],
      "name": "ERC721InvalidOwner",
      "type": "error"
    },
    {
      "inputs": [
        {
          "internalType": "address",
          "name": "receiver",
          "type": "address"
        }
      ],
      "name": "ERC721InvalidReceiver",
      "type": "error"
    },
    {
      "inputs": [
        {
          "internalType": "address",
          "name": "sender",
          "type": "address"
        }
      ],
      "name": "ERC721InvalidSender",
      "type": "error"
    },
    {
      "inputs": [
        {
          "internalType": "uint256",
          "name": "tokenId",
          "type": "uint256"
        }
      ],
      "name": "ERC721NonexistentToken",
      "type": "error"
    },
    {
      "inputs": [
        {
          "internalType": "address",
          "name": "owner",
          "type": "address"
        },
        {
          "internalType": "uint256",
          "name": "index",
          "type": "uint256"
        }
      ],
      "name": "ERC721OutOfBoundsIndex",
      "type": "error"
    },
    {
      "inputs": [
        {
          "internalType": "address",
          "name": "caller",
          "type": "address"
        }
      ],
      "name": "NotGovernance",
      "type": "error"
    },
    {
      "inputs": [
        {
          "internalType": "address",
          "name": "caller",
          "type": "address"
        }
      ],
      "name": "NotLetsSale",
      "type": "error"
    },
    {
      "inputs": [],
      "name": "NotTransferable",
      "type": "error"
    },
    {
      "inputs": [
        {
          "internalType": "address",
          "name": "owner",
          "type": "address"
        }
      ],
      "name": "OwnableInvalidOwner",
      "type": "error"
    },
    {
      "inputs": [
        {
          "internalType": "address",
          "name": "account",
          "type": "address"
        }
      ],
      "name": "OwnableUnauthorizedAccount",
      "type": "error"
    },
    {
      "anonymous": false,
      "inputs": [
        {
          "indexed": true,
          "internalType": "address",
          "name": "owner",
          "type": "address"
        },
        {
          "indexed": true,
          "internalType": "address",
          "name": "approved",
          "type": "address"
        },
        {
          "indexed": true,
          "internalType": "uint256",
          "name": "tokenId",
          "type": "uint256"
        }
      ],
      "name": "Approval",
      "type": "event"
    },
    {
      "anonymous": false,
      "inputs": [
        {
          "indexed": true,
          "internalType": "address",
          "name": "owner",
          "type": "address"
        },
        {
          "indexed": true,
          "internalType": "address",
          "name": "operator",
          "type": "address"
        },
        {
          "indexed": false,
          "internalType": "bool",
          "name": "approved",
          "type": "bool"
        }
      ],
      "name": "ApprovalForAll",
      "type": "event"
    },
    {
      "anonymous": false,
      "inputs": [
        {
          "indexed": false,
          "internalType": "uint256",
          "name": "_fromTokenId",
          "type": "uint256"
        },
        {
          "indexed": false,
          "internalType": "uint256",
          "name": "_toTokenId",
          "type": "uint256"
        }
      ],
      "name": "BatchMetadataUpdate",
      "type": "event"
    },
    {
      "anonymous": false,
      "inputs": [
        {
          "indexed": true,
          "internalType": "address",
          "name": "initializer",
          "type": "address"
        }
      ],
      "name": "LETSBaseInitialized",
      "type": "event"
    },
    {
      "anonymous": false,
      "inputs": [
        {
          "indexed": false,
          "internalType": "uint256",
          "name": "_tokenId",
          "type": "uint256"
        }
      ],
      "name": "MetadataUpdate",
      "type": "event"
    },
    {
      "anonymous": false,
      "inputs": [
        {
          "indexed": true,
          "internalType": "address",
          "name": "previousOwner",
          "type": "address"
        },
        {
          "indexed": true,
          "internalType": "address",
          "name": "newOwner",
          "type": "address"
        }
      ],
      "name": "OwnershipTransferred",
      "type": "event"
    },
    {
      "anonymous": false,
      "inputs": [
        {
          "indexed": false,
          "internalType": "uint256",
          "name": "tokenId",
          "type": "uint256"
        }
      ],
      "name": "TokenFrozen",
      "type": "event"
    },
    {
      "anonymous": false,
      "inputs": [
        {
          "indexed": false,
          "internalType": "uint256",
          "name": "tokenId",
          "type": "uint256"
        }
      ],
      "name": "TokenUnfrozen",
      "type": "event"
    },
    {
      "anonymous": false,
      "inputs": [
        {
          "indexed": true,
          "internalType": "address",
          "name": "from",
          "type": "address"
        },
        {
          "indexed": true,
          "internalType": "address",
          "name": "to",
          "type": "address"
        },
        {
          "indexed": true,
          "internalType": "uint256",
          "name": "tokenId",
          "type": "uint256"
        }
      ],
      "name": "Transfer",
      "type": "event"
    },
    {
      "inputs": [
        {
          "internalType": "address",
          "name": "to",
          "type": "address"
        },
        {
          "internalType": "uint256",
          "name": "tokenId",
          "type": "uint256"
        }
      ],
      "name": "approve",
      "outputs": [],
      "stateMutability": "nonpayable",
      "type": "function"
    },
    {
      "inputs": [
        {
          "internalType": "address",
          "name": "owner",
          "type": "address"
        }
      ],
      "name": "balanceOf",
      "outputs": [
        {
          "internalType": "uint256",
          "name": "",
          "type": "uint256"
        }
      ],
      "stateMutability": "view",
      "type": "function"
    },
    {
      "inputs": [
        {
          "internalType": "uint256",
          "name": "tokenId",
          "type": "uint256"
        }
      ],
      "name": "freezeToken",
      "outputs": [],
      "stateMutability": "nonpayable",
      "type": "function"
    },
    {
      "inputs": [
        {
          "internalType": "uint256",
          "name": "tokenId",
          "type": "uint256"
        }
      ],
      "name": "getApproved",
      "outputs": [
        {
          "internalType": "address",
          "name": "",
          "type": "address"
        }
      ],
      "stateMutability": "view",
      "type": "function"
    },
    {
      "inputs": [
        {
          "internalType": "address",
          "name": "owner",
          "type": "address"
        }
      ],
      "name": "getTokensOfOwner",
      "outputs": [
        {
          "internalType": "uint256[]",
          "name": "",
          "type": "uint256[]"
        }
      ],
      "stateMutability": "view",
      "type": "function"
    },
    {
      "inputs": [
        {
          "internalType": "uint256",
          "name": "tokenId",
          "type": "uint256"
        }
      ],
      "name": "getUpdatedToken",
      "outputs": [
        {
          "internalType": "uint256",
          "name": "",
          "type": "uint256"
        }
      ],
      "stateMutability": "view",
      "type": "function"
    },
    {
      "inputs": [
        {
          "internalType": "address",
          "name": "dictionary",
          "type": "address"
        }
      ],
      "name": "initialize",
      "outputs": [],
      "stateMutability": "nonpayable",
      "type": "function"
    },
    {
      "inputs": [
        {
          "internalType": "address",
          "name": "owner",
          "type": "address"
        },
        {
          "internalType": "address",
          "name": "operator",
          "type": "address"
        }
      ],
      "name": "isApprovedForAll",
      "outputs": [
        {
          "internalType": "bool",
          "name": "",
          "type": "bool"
        }
      ],
      "stateMutability": "view",
      "type": "function"
    },
    {
      "inputs": [
        {
          "internalType": "address",
          "name": "to",
          "type": "address"
        }
      ],
      "name": "mint",
      "outputs": [
        {
          "internalType": "uint256",
          "name": "tokenId",
          "type": "uint256"
        }
      ],
      "stateMutability": "nonpayable",
      "type": "function"
    },
    {
      "inputs": [],
      "name": "name",
      "outputs": [
        {
          "internalType": "string",
          "name": "",
          "type": "string"
        }
      ],
      "stateMutability": "view",
      "type": "function"
    },
    {
      "inputs": [],
      "name": "owner",
      "outputs": [
        {
          "internalType": "address",
          "name": "",
          "type": "address"
        }
      ],
      "stateMutability": "view",
      "type": "function"
    },
    {
      "inputs": [
        {
          "internalType": "uint256",
          "name": "tokenId",
          "type": "uint256"
        }
      ],
      "name": "ownerOf",
      "outputs": [
        {
          "internalType": "address",
          "name": "",
          "type": "address"
        }
      ],
      "stateMutability": "view",
      "type": "function"
    },
    {
      "inputs": [],
      "name": "renounceOwnership",
      "outputs": [],
      "stateMutability": "nonpayable",
      "type": "function"
    },
    {
      "inputs": [
        {
          "internalType": "address",
          "name": "from",
          "type": "address"
        },
        {
          "internalType": "address",
          "name": "to",
          "type": "address"
        },
        {
          "internalType": "uint256",
          "name": "tokenId",
          "type": "uint256"
        }
      ],
      "name": "safeTransferFrom",
      "outputs": [],
      "stateMutability": "nonpayable",
      "type": "function"
    },
    {
      "inputs": [
        {
          "internalType": "address",
          "name": "from",
          "type": "address"
        },
        {
          "internalType": "address",
          "name": "to",
          "type": "address"
        },
        {
          "internalType": "uint256",
          "name": "tokenId",
          "type": "uint256"
        },
        {
          "internalType": "bytes",
          "name": "data",
          "type": "bytes"
        }
      ],
      "name": "safeTransferFrom",
      "outputs": [],
      "stateMutability": "nonpayable",
      "type": "function"
    },
    {
      "inputs": [
        {
          "internalType": "address",
          "name": "operator",
          "type": "address"
        },
        {
          "internalType": "bool",
          "name": "approved",
          "type": "bool"
        }
      ],
      "name": "setApprovalForAll",
      "outputs": [],
      "stateMutability": "nonpayable",
      "type": "function"
    },
    {
      "inputs": [
        {
          "internalType": "bytes4",
          "name": "interfaceId",
          "type": "bytes4"
        }
      ],
      "name": "supportsInterface",
      "outputs": [
        {
          "internalType": "bool",
          "name": "",
          "type": "bool"
        }
      ],
      "stateMutability": "pure",
      "type": "function"
    },
    {
      "inputs": [],
      "name": "symbol",
      "outputs": [
        {
          "internalType": "string",
          "name": "",
          "type": "string"
        }
      ],
      "stateMutability": "view",
      "type": "function"
    },
    {
      "inputs": [
        {
          "internalType": "uint256",
          "name": "index",
          "type": "uint256"
        }
      ],
      "name": "tokenByIndex",
      "outputs": [
        {
          "internalType": "uint256",
          "name": "",
          "type": "uint256"
        }
      ],
      "stateMutability": "view",
      "type": "function"
    },
    {
      "inputs": [
        {
          "internalType": "address",
          "name": "owner",
          "type": "address"
        },
        {
          "internalType": "uint256",
          "name": "index",
          "type": "uint256"
        }
      ],
      "name": "tokenOfOwnerByIndex",
      "outputs": [
        {
          "internalType": "uint256",
          "name": "",
          "type": "uint256"
        }
      ],
      "stateMutability": "view",
      "type": "function"
    },
    {
      "inputs": [
        {
          "internalType": "uint256",
          "name": "tokenId",
          "type": "uint256"
        }
      ],
      "name": "tokenURI",
      "outputs": [
        {
          "internalType": "string",
          "name": "",
          "type": "string"
        }
      ],
      "stateMutability": "view",
      "type": "function"
    },
    {
      "inputs": [],
      "name": "totalSupply",
      "outputs": [
        {
          "internalType": "uint256",
          "name": "",
          "type": "uint256"
        }
      ],
      "stateMutability": "view",
      "type": "function"
    },
    {
      "inputs": [
        {
          "internalType": "address",
          "name": "from",
          "type": "address"
        },
        {
          "internalType": "address",
          "name": "to",
          "type": "address"
        },
        {
          "internalType": "uint256",
          "name": "tokenId",
          "type": "uint256"
        }
      ],
      "name": "transferFrom",
      "outputs": [],
      "stateMutability": "nonpayable",
      "type": "function"
    },
    {
      "inputs": [
        {
          "internalType": "address",
          "name": "newOwner",
          "type": "address"
        }
      ],
      "name": "transferOwnership",
      "outputs": [],
      "stateMutability": "nonpayable",
      "type": "function"
    },
    {
      "inputs": [
        {
          "internalType": "uint256",
          "name": "tokenId",
          "type": "uint256"
        }
      ],
      "name": "unfreezeToken",
      "outputs": [],
      "stateMutability": "nonpayable",
      "type": "function"
    }
  ],
  "bytecode": "0x6080806040523460155761197b908161001b8239f35b600080fdfe608080604052600436101561001357600080fd5b60003560e01c90816301ffc9a714610fbe5750806306fdde0314610f9a578063081812fc14610f72578063095ea7b314610e9757806318160ddd14610e7057806323b872dd14610e595780632f745c5914610e3257806342842e0e14610e085780634d787ea914610daa5780634f6ccce714610d455780635de6dc5514610c855780636352211e14610c555780636a6278421461085257806370a0823114610827578063715018a6146107be5780638da5cb5b1461079157806395d89b411461076a57806397294fea14610735578063a22cb46514610683578063b6854f9614610622578063b88d4fde14610597578063c4d66de81461023b578063c87b56dd14610204578063e985e9c5146101ce5763f2fde38b1461013257600080fd5b346101c95760203660031901126101c95761014b611080565b61015361176b565b6001600160a01b031680156101b3576001600160a01b0361017261179a565b541661017c61179a565b80546001600160a01b031916831790557f8be0079c531659141344cd1fd0a4f28419497f9722a3daafe3b4186f6b6457e0600080a3005b631e4fbdf760e01b600052600060045260246000fd5b600080fd5b346101c95760403660031901126101c95760206101fa6101ec611080565b6101f4611096565b90611846565b6040519015158152f35b346101c95760203660031901126101c9576102376102236004356117d3565b604051918291602083526020830190611041565b0390f35b346101c95760203660031901126101c957610254611080565b60ff604051602081017ff158cb8b47a14bda3b2c4affcc0d960e9ed23f5a516e4779510b08a6e823c02581526020825261028f6040836110e6565b82199151902016541661058757604051906102e06102ad81846110e6565b601683526020830190601f190136823782511561057157634b94a7f560e11b90528151600110156105715763c87b56dd60e01b6040830152815160021015610571576318160ddd60e01b6060830152815160031015610571576301ffc9a760e01b6080830152815160041015610571576370a0823160e01b60a0830152815160051015610571576331a9108f60e11b60c08301528151600610156105715763095ea7b360e01b60e08301528151600710156105715763020604bf60e21b6101008301528151600810156105715763a22cb46560e01b6101208301528151600910156105715763e985e9c560e01b6101408301528151600a1015610571576323b872dd60e01b6101608301528151600b101561057157632142170760e11b6101808301528151600c101561057157635c46a7ef60e11b6101a08301528151600d1015610571576306fdde0360e01b6101c08301528151600e1015610571576395d89b4160e01b6101e08301528151600f101561057157634f6ccce760e01b61020083015281516010101561057157632f745c5960e01b61022083015281516011101561057157635de6dc5560e01b610240830152815160121015610571576335313c2160e11b61026083015281516013101561057157635b42a7cb60e11b61028083015281516014101561057157634d787ea960e01b6102a083015281516015101561057157634b94a7f560e11b6102c08301526001600160a01b03169060005b8151811015610549576001600160e01b03196104e9828461170f565b511690833b156101c95760405191630815f6fd60e01b8352600483015230602483015260008260448183885af191821561053d5760019261052c575b50016104cd565b6000610537916110e6565b84610525565b6040513d6000823e3d90fd5b337f171a7dc80b6dc11005bc264b86aca451619865e5e8dad90855002dd8814b3362600080a2005b634e487b7160e01b600052603260045260246000fd5b62dc149f60e41b60005260046000fd5b346101c95760803660031901126101c9576105b0611080565b6105b8611096565b6064359167ffffffffffffffff83116101c957366023840112156101c9578260040135916105e58361111e565b926105f360405194856110e6565b80845236602482870101116101c95760208160009260246106209801838801378501015260443591611513565b005b346101c95760203660031901126101c9577f74308730007d8ee5b3c18fad784efa3555f62695e36960f803f475eeb663d10e6020600435600361066361179a565b018160005282526040600020600160ff19825416179055604051908152a1005b346101c95760403660031901126101c95761069c611080565b602435908115158092036101c9576001600160a01b03169081156107205760056106c4611646565b0160018060a01b033316600052602052604060002082600052602052604060002060ff1981541660ff83161790556040519081527f17307eab39ab6107e8899845ad3d59bd9653f200f220920489ca2b5937696c3160203392a3005b50630b61174360e31b60005260045260246000fd5b346101c95760203660031901126101c957600461075061179a565b016004356000526020526020604060002054604051908152f35b346101c95760003660031901126101c957610237610223600161078b611646565b0161113a565b346101c95760003660031901126101c95760206001600160a01b036107b461179a565b5416604051908152f35b346101c95760003660031901126101c9576107d761176b565b60006001600160a01b036107e961179a565b54166107f361179a565b80546001600160a01b03191690557f8be0079c531659141344cd1fd0a4f28419497f9722a3daafe3b4186f6b6457e08280a3005b346101c95760203660031901126101c957602061084a610845611080565b611723565b604051908152f35b346101c95760203660031901126101c95761086b611080565b61087361179a565b80546000198114610c3f5760010180915560209060405161089483826110e6565b600081526001600160a01b038416938415610c295760006108b484611880565b6001600160a01b03811680158015939190899085610bff575b60036108d7611646565b018285528a52604084206001815401905560026108f2611646565b8a8652018a526040842080546001600160a01b031916831790558882847fddf252ad1be2c89b69c2b068fc378daa952ba7f163c4a11628f55a4df523b3ef8780a415610b66575060026109436118b1565b0154600361094f6118b1565b018884528952604083205560026109646118b1565b01805490600160401b821015610b52578861098a836109a39360018f97960181556116df565b90919082549060031b91821b91600019901b1916179055565b03610af3575b5050610add573b6109be575b50604051908152f35b826109f89160405180938192630a85bd0160e11b835233600484015260006024840152866044840152608060648401526084830190611041565b03816000885af18091600091610a98575b5090610a605750503d15610a59573d610a218161111e565b90610a2f60405192836110e6565b81523d60008383013e5b80519182610a565783633250574960e11b60005260045260246000fd5b01fd5b6060610a39565b919290916001600160e01b03191663757a42ff60e11b01610a8457508190836109b5565b633250574960e11b60005260045260246000fd5b8481813d8311610ad6575b610aad81836110e6565b81010312610ad25751906001600160e01b031982168203610acf575085610a09565b80fd5b5080fd5b503d610aa3565b6339e3563760e11b600052600060045260246000fd5b610afc84611723565b600019810191908211610b3e57604090610b146118b1565b8a82528952818120838252895287828220556001610b306118b1565b0188825289522055876109a9565b634e487b7160e01b81526011600452602490fd5b634e487b7160e01b84526041600452602484fd5b908082146109a357610b7784611723565b6001610b816118b1565b018985528a52604084205490610b956118b1565b8386528b526040852091818103610bcd575b506001610bb26118b1565b018a86528b52846040812055845289528260408120556109a3565b818652828c526040862054818752838d528060408820556001610bee6118b1565b019087528c5260408620558c610ba7565b610c088961188a565b6003610c12611646565b848652018a526040842080546000190190556108cd565b633250574960e11b600052600060045260246000fd5b634e487b7160e01b600052601160045260246000fd5b346101c95760203660031901126101c9576020610c7360043561168a565b6040516001600160a01b039091168152f35b346101c95760203660031901126101c957610c9e611080565b610ca781611723565b90610cb1826116f7565b91610cbf60405193846110e6565b808352610ccb816116f7565b602084019290601f190136843760005b828110610d275783856040519182916020830190602084525180915260408301919060005b818110610d0e575050500390f35b8251845285945060209384019390920191600101610d00565b80610d34600192846118ea565b610d3e828861170f565b5201610cdb565b346101c95760203660031901126101c9576004356002610d636118b1565b0154811015610d9157610d826020916002610d7c6118b1565b016116df565b90549060031b1c604051908152f35b63295f44f760e21b600052600060045260245260446000fd5b346101c95760203660031901126101c9577fdad54db74d8c1152c7cb496a900d181b8e9b69b70e55db2362bd100897a4f7a160206004356003610deb61179a565b01816000528252604060002060ff198154169055604051908152a1005b346101c957610620610e19366110ac565b9060405192610e296020856110e6565b60008452611513565b346101c95760403660031901126101c957602061084a610e50611080565b602435906118ea565b346101c957610620610e6a366110ac565b9161120a565b346101c95760003660031901126101c95760206002610e8d6118b1565b0154604051908152f35b346101c95760403660031901126101c957610eb0611080565b602435610ebc8161168a565b33151580610f5f575b80610f4e575b610f395781906001600160a01b0384811691167f8c5be1e5ebec7d5bd14f71427d1e84f3dd0314c0f7b2291e5b200ac8c7c3b925600080a46004610f0d611646565b6000928352016020526040902080546001600160a01b0319166001600160a01b03909216919091179055005b63a9fbf51f60e01b6000523360045260246000fd5b50610f593382611846565b15610ecb565b506001600160a01b038116331415610ec5565b346101c95760203660031901126101c9576020610c73600435610f948161168a565b506116bb565b346101c95760003660031901126101c957610237610223610fb9611646565b61113a565b346101c95760203660031901126101c9576004359063ffffffff60e01b82168092036101c9576020916380ac58cd60e01b8114908115611030575b811561101f575b811561100e575b5015158152f35b632483248360e11b14905083611007565b63780e9d6360e01b81149150611000565b635b5e139f60e01b81149150610ff9565b919082518082526020808301940160005b828110611070575050600081602094950152601f8019910116010190565b8181015186820152602001611052565b600435906001600160a01b03821682036101c957565b602435906001600160a01b03821682036101c957565b60609060031901126101c9576004356001600160a01b03811681036101c957906024356001600160a01b03811681036101c9579060443590565b90601f8019910116810190811067ffffffffffffffff82111761110857604052565b634e487b7160e01b600052604160045260246000fd5b67ffffffffffffffff811161110857601f01601f191660200190565b906040519160008154918260011c92600181168015611200575b6020851081146111ec578487528693929181156111ca5750600114611183575b50611181925003836110e6565b565b90506000929192526020600020906000915b8183106111ae5750509060206111819282010138611174565b6020919350806001915483858901015201910190918492611195565b90506020925061118194915060ff191682840152151560051b82010138611174565b634e487b7160e01b84526022600452602484fd5b93607f1693611154565b9091906001600160a01b0383168015610c2957600461122761179a565b01836000526020524260406000205560009061124284611880565b9133151580611487575b506001600160a01b038316958615801561145c575b600361126b611646565b0184845260205260408320600181540190556002611287611646565b888552016020526040832080546001600160a01b031916851790558684897fddf252ad1be2c89b69c2b068fc378daa952ba7f163c4a11628f55a4df523b3ef8680a4156113bd5760026112d86118b1565b015460036112e46118b1565b01878452602052604083205560026112fa6118b1565b01805490600160401b821015610b525761098a828992600161131e950181556116df565b828703611358575b5050505060018060a01b031680830361133e57505050565b6364283d7b60e01b60005260045260245260445260646000fd5b61136190611723565b6000198101929083116113a9579060409161137a6118b1565b908252602052818120838252602052858282205560016113986118b1565b018682526020522055388080611326565b634e487b7160e01b82526011600452602482fd5b86831461131e576113cd84611723565b60016113d76118b1565b018784526020526040832054906113ec6118b1565b8985526020526040842091818103611427575b50600161140a6118b1565b01888552602052836040812055835260205281604081205561131e565b81855282602052604085205481865283602052806040872055600161144a6118b1565b019086526020526040852055386113ff565b6114658761188a565b600361146f611646565b89855201602052604083208054600019019055611261565b806114d0575b15611498573861124c565b9250506001600160a01b03166114ba57602491637e27328960e01b8252600452fd5b60449163177e802f60e01b825233600452602452fd5b506001600160a01b03831633148015611503575b8061148d5750336001600160a01b036114fc876116bb565b161461148d565b5061150e3384611846565b6114e4565b929161152081838661120a565b813b61152d575b50505050565b604051630a85bd0160e11b81523360048201526001600160a01b0394851660248201526044810191909152608060648201529216919060209082908190611578906084830190611041565b03816000865af18091600091611603575b50906115e257503d156115db573d6115a08161111e565b906115ae60405192836110e6565b81523d6000602083013e5b805190816115d65782633250574960e11b60005260045260246000fd5b602001fd5b60606115b9565b6001600160e01b03191663757a42ff60e11b01610a84575038808080611527565b6020813d60201161163e575b8161161c602093836110e6565b81010312610ad25751906001600160e01b031982168203610acf575038611589565b3d915061160f565b604051602081017fb7b8777dfce3c027b9b4ab96baa886d0c5d5e8c8632429d2b4be0ba869cd905f81526020825261167f6040836110e6565b9051902060ff191690565b61169381611880565b906001600160a01b038216156116a7575090565b637e27328960e01b60005260045260246000fd5b60046116c5611646565b60009283520160205260409020546001600160a01b031690565b80548210156105715760005260206000200190600090565b67ffffffffffffffff81116111085760051b60200190565b80518210156105715760209160051b010190565b6001600160a01b0381161561175557600361173c611646565b019060018060a01b031660005260205260406000205490565b6322718ad960e21b600052600060045260246000fd5b6001600160a01b0361177b61179a565b5416330361178557565b63118cdaa760e01b6000523360045260246000fd5b604051602081017f0cee7785c9739c2abcb4ce591dada6e864d6d906251746912d12a62bb828bf6881526020825261167f6040836110e6565b6117dc8161168a565b50604051602081017f83126a7e0b3d5a7bd433798795b790de3287f4b1cb3d1042e8a9e2a4e5391b408152602082526118166040836110e6565b60ff19915190201690600052602052611832604060002061113a565b60006040516118426020826110e6565b5290565b6005611850611646565b019060018060a01b031660005260205260406000209060018060a01b031660005260205260ff6040600020541690565b60026116c5611646565b6004611894611646565b6000928352016020526040902080546001600160a01b0319169055565b604051602081017f2070bae6b675801f0932481e70ab724699e22000dcf2efe36a44b6070d9ee8f181526020825261167f6040836110e6565b6118f381611723565b821015611926576119026118b1565b9060018060a01b031660005260205260406000209060005260205260406000205490565b63295f44f760e21b60005260018060a01b031660045260245260446000fdfea26469706673582212205f44d60f3bf57600e6dbee52fb639b737aa3e42f84c06cc35b649b477070670064736f6c634300081c0033",
  "linkReferences": {},
  "deployedLinkReferences": {}
}