{
  "_format": "hh-sol-artifact-1",
  "contractName": "LETS_JP_LLC_SALE",
  "sourceName": "contracts/Services/LETS/extentions/LETS_JP_LLC/LETS_JP_LLC_SALE.sol",
  "abi": [
    {
      "inputs": [],
      "stateMutability": "nonpayable",
      "type": "constructor"
    },
    {
      "inputs": [
        {
          "internalType": "address",
          "name": "caller",
          "type": "address"
        }
      ],
      "name": "AlreadyPurchased",
      "type": "error"
    },
    {
      "inputs": [
        {
          "internalType": "uint256",
          "name": "minPrice",
          "type": "uint256"
        },
        {
          "internalType": "uint256",
          "name": "maxPrice",
          "type": "uint256"
        },
        {
          "internalType": "uint256",
          "name": "sendValue",
          "type": "uint256"
        }
      ],
      "name": "InsufficientFunds",
      "type": "error"
    },
    {
      "inputs": [],
      "name": "InvalidInitialization",
      "type": "error"
    },
    {
      "inputs": [],
      "name": "InvalidSalePeriod",
      "type": "error"
    },
    {
      "inputs": [],
      "name": "NotInitializing",
      "type": "error"
    },
    {
      "inputs": [
        {
          "internalType": "address",
          "name": "caller",
          "type": "address"
        }
      ],
      "name": "NotLetsSaleDeployer",
      "type": "error"
    },
    {
      "inputs": [
        {
          "internalType": "address",
          "name": "sender",
          "type": "address"
        }
      ],
      "name": "NotSCR",
      "type": "error"
    },
    {
      "inputs": [
        {
          "internalType": "uint256",
          "name": "saleStart",
          "type": "uint256"
        },
        {
          "internalType": "uint256",
          "name": "saleEnd",
          "type": "uint256"
        }
      ],
      "name": "NotSaleActive",
      "type": "error"
    },
    {
      "inputs": [
        {
          "internalType": "address",
          "name": "sender",
          "type": "address"
        }
      ],
      "name": "NotTreasuryRole",
      "type": "error"
    },
    {
      "anonymous": false,
      "inputs": [
        {
          "indexed": false,
          "internalType": "uint64",
          "name": "version",
          "type": "uint64"
        }
      ],
      "name": "Initialized",
      "type": "event"
    },
    {
      "anonymous": false,
      "inputs": [
        {
          "indexed": false,
          "internalType": "uint256",
          "name": "tokenId",
          "type": "uint256"
        },
        {
          "indexed": false,
          "internalType": "address",
          "name": "to",
          "type": "address"
        },
        {
          "indexed": false,
          "internalType": "uint256",
          "name": "price",
          "type": "uint256"
        }
      ],
      "name": "TokenPurchased",
      "type": "event"
    },
    {
      "inputs": [
        {
          "internalType": "address",
          "name": "owner",
          "type": "address"
        },
        {
          "internalType": "address",
          "name": "sc",
          "type": "address"
        },
        {
          "internalType": "bytes",
          "name": "params",
          "type": "bytes"
        }
      ],
      "name": "initialize",
      "outputs": [],
      "stateMutability": "nonpayable",
      "type": "function"
    },
    {
      "inputs": [
        {
          "internalType": "address",
          "name": "to",
          "type": "address"
        }
      ],
      "name": "offerToken",
      "outputs": [],
      "stateMutability": "payable",
      "type": "function"
    },
    {
      "inputs": [
        {
          "internalType": "bool",
          "name": "hasSalePeriod",
          "type": "bool"
        }
      ],
      "name": "updateHasSalePeriod",
      "outputs": [],
      "stateMutability": "nonpayable",
      "type": "function"
    },
    {
      "inputs": [
        {
          "internalType": "bool",
          "name": "isPriceRange",
          "type": "bool"
        }
      ],
      "name": "updateIsPriceRange",
      "outputs": [],
      "stateMutability": "nonpayable",
      "type": "function"
    },
    {
      "inputs": [
        {
          "internalType": "address",
          "name": "lets",
          "type": "address"
        }
      ],
      "name": "updateLets",
      "outputs": [],
      "stateMutability": "nonpayable",
      "type": "function"
    },
    {
      "inputs": [
        {
          "internalType": "uint256",
          "name": "fixedPrice",
          "type": "uint256"
        },
        {
          "internalType": "uint256",
          "name": "minPrice",
          "type": "uint256"
        },
        {
          "internalType": "uint256",
          "name": "maxPrice",
          "type": "uint256"
        }
      ],
      "name": "updatePrice",
      "outputs": [],
      "stateMutability": "nonpayable",
      "type": "function"
    },
    {
      "inputs": [
        {
          "internalType": "uint256",
          "name": "saleStart",
          "type": "uint256"
        },
        {
          "internalType": "uint256",
          "name": "saleEnd",
          "type": "uint256"
        }
      ],
      "name": "updateSalePeriod",
      "outputs": [],
      "stateMutability": "nonpayable",
      "type": "function"
    },
    {
      "inputs": [],
      "name": "withdraw",
      "outputs": [],
      "stateMutability": "nonpayable",
      "type": "function"
    }
  ],
  "bytecode": "0x608060405234602357600e6028565b60146028565b604051610baf90816100e58239f35b600080fd5b7ff0c57e16840df040f15088dc2f81fe391c3923bec73e23a9662efc9c229c6a005460ff8160401c1660d3576002600160401b03196001600160401b03821601606e5750565b6001600160401b0319166001600160401b039081177ff0c57e16840df040f15088dc2f81fe391c3923bec73e23a9662efc9c229c6a00556040519081527fc7f505b2f371ae2175ee4913f4499e1f2633a7b5936321eed1cdaeb6115181d290602090a1565b63f92ee8a960e01b60005260046000fdfe608080604052600436101561001357600080fd5b60003560e01c9081630bf4a1821461096f575080630f436129146108a15780633ccfd60b146107a75780637bef1c35146105d0578063cf7a1d7714610304578063d6eadf11146102a2578063f797ca43146101a95763fc7da9a91461007757600080fd5b346101a45760403660031901126101a45760015460405163c806aead60e01b815260243591600480359291602091839182906001600160a01b03165afa90811561016b57604491602091600091610177575b50604051632474521560e21b8152600080516020610b3a833981519152600482015233602482015292839182906001600160a01b03165afa801561016b5761011b9160009161013c575b503390610abc565b8082111561012b57600255600355005b631d18ab0b60e11b60005260046000fd5b61015e915060203d602011610164575b6101568183610a63565b810190610aa4565b38610113565b503d61014c565b6040513d6000823e3d90fd5b6101979150823d841161019d575b61018f8183610a63565b810190610a85565b386100c9565b503d610185565b600080fd5b346101a45760203660031901126101a4576004358015158091036101a45760015460405163c806aead60e01b815290602090829060049082906001600160a01b03165afa90811561016b57604491602091600091610285575b50604051632474521560e21b8152600080516020610b3a833981519152600482015233602482015292839182906001600160a01b03165afa801561016b576102539160009161026657503390610abc565b60ff801960075416911617600755600080f35b61027f915060203d602011610164576101568183610a63565b83610113565b61029c9150823d841161019d5761018f8183610a63565b84610202565b346101a45760203660031901126101a4576102bb610a4d565b6000546001600160a01b031633036102ef57600180546001600160a01b0319166001600160a01b0392909216919091179055005b633a9f0c2b60e21b6000523360045260246000fd5b346101a45760603660031901126101a45761031d610a4d565b506024356001600160a01b038116908190036101a45760443567ffffffffffffffff81116101a457366023820112156101a45780600401359067ffffffffffffffff82116105ba576040519161037d601f8201601f191660200184610a63565b80835236602482840101116101a4576000928160246020940184830137010152600080516020610b5a833981519152549067ffffffffffffffff60ff8360401c16159216801590816105b2575b60011490816105a8575b15908161059f575b5061054157816103ea610b09565b61056d575b600080516020610b5a833981519152549067ffffffffffffffff60ff8360401c1615921680159081610565575b600114908161055b575b159081610552575b50610541578161043c610b09565b61050f575b6bffffffffffffffffffffffff60a01b60005416176000556104b8575b61046457005b60ff60401b19600080516020610b5a8339815191525416600080516020610b5a833981519152557fc7f505b2f371ae2175ee4913f4499e1f2633a7b5936321eed1cdaeb6115181d2602060405160018152a1005b60ff60401b19600080516020610b5a8339815191525416600080516020610b5a833981519152557fc7f505b2f371ae2175ee4913f4499e1f2633a7b5936321eed1cdaeb6115181d2602060405160018152a161045e565b600160401b60ff60401b19600080516020610b5a833981519152541617600080516020610b5a83398151915255610441565b63f92ee8a960e01b60005260046000fd5b9050158461042e565b303b159150610426565b83915061041c565b600160401b60ff60401b19600080516020610b5a833981519152541617600080516020610b5a833981519152556103ef565b905015836103dc565b303b1591506103d4565b8391506103ca565b634e487b7160e01b600052604160045260246000fd5b60203660031901126101a4576105e4610a4d565b60075460ff8116610765575b6001546040516370a0823160e01b81526001600160a01b03938416600482018190529190931692602081602481875afa90811561016b57600091610733575b5061071f57600060208460ff8560081c1683146107035761066160055480341015806106f7575b349160065491610ae5565b6024604051809481936335313c2160e11b83523360048401525af190811561016b576000916106c4575b7f1cb6dd09e77cf64c9d88c8e0cf8555ebff062045f2068f22efcbc60905730e71606083604051908152336020820152346040820152a1005b90506020813d6020116106ef575b816106df60209383610a63565b810103126101a45751606061068b565b3d91506106d2565b50600654341115610656565b61071a600454341460055490349160065491610ae5565b610661565b6367e667af60e11b60005260045260246000fd5b90506020813d60201161075d575b8161074e60209383610a63565b810103126101a457518461062f565b3d9150610741565b60025480421015908161079a575b60035491156107835750506105f0565b6306e70a4760e51b60005260045260245260446000fd5b6003544211159150610773565b346101a45760003660031901126101a45760015460405163c806aead60e01b815290602090829060049082906001600160a01b03165afa90811561016b57604491602091600091610884575b50604051632474521560e21b8152600080516020610b3a833981519152600482015233602482015292839182906001600160a01b03165afa801561016b576108449160009161086557503390610abc565b60008080804781811561085c575b3390f11561016b57005b506108fc610852565b61087e915060203d602011610164576101568183610a63565b82610113565b61089b9150823d841161019d5761018f8183610a63565b836107f3565b346101a45760603660031901126101a45760015460405163c806aead60e01b815290602090829060049082906001600160a01b03165afa90811561016b57604491602091600091610952575b50604051632474521560e21b8152600080516020610b3a833981519152600482015233602482015292839182906001600160a01b03165afa801561016b5761093e9160009161086557503390610abc565b600480359055602435600555604435600655005b6109699150823d841161019d5761018f8183610a63565b836108ed565b346101a45760203660031901126101a457600435908115158092036101a45760015463c806aead60e01b8252602090829060049082906001600160a01b03165afa90811561016b57604491602091600091610a30575b50604051632474521560e21b8152600080516020610b3a833981519152600482015233602482015292839182906001600160a01b03165afa801561016b57610a169160009161026657503390610abc565b61ff006007549160081b169061ff00191617600755600080f35b610a479150823d841161019d5761018f8183610a63565b846109c5565b600435906001600160a01b03821682036101a457565b90601f8019910116810190811067ffffffffffffffff8211176105ba57604052565b908160209103126101a457516001600160a01b03811681036101a45790565b908160209103126101a4575180151581036101a45790565b15610ac45750565b638289154b60e01b60009081526001600160a01b0391909116600452602490fd5b15610aef57505050565b637ab11db960e11b60005260045260245260445260646000fd5b600167ffffffffffffffff19600080516020610b5a833981519152541617600080516020610b5a8339815191525556fee1dcbdb91df27212a29bc27177c840cf2f819ecf2187432e1fac86c2dd5dfca9f0c57e16840df040f15088dc2f81fe391c3923bec73e23a9662efc9c229c6a00a2646970667358221220c095dec141104babf3f452bd2d6cee9a537254a22437a10de75ff788502ae19664736f6c634300081c0033",
  "linkReferences": {},
  "deployedLinkReferences": {}
}