{
  "_format": "hh-sol-artifact-1",
  "contractName": "Dictionary",
  "sourceName": "contracts/core/Dictionary/functions/Dictionary.sol",
  "abi": [
    {
      "inputs": [
        {
          "internalType": "address",
          "name": "owner_",
          "type": "address"
        }
      ],
      "stateMutability": "nonpayable",
      "type": "constructor"
    },
    {
      "inputs": [
        {
          "internalType": "bytes4",
          "name": "selector",
          "type": "bytes4"
        }
      ],
      "name": "ImplementationNotFound",
      "type": "error"
    },
    {
      "inputs": [
        {
          "internalType": "uint256",
          "name": "selectors",
          "type": "uint256"
        },
        {
          "internalType": "uint256",
          "name": "implementations",
          "type": "uint256"
        }
      ],
      "name": "InvalidBulkLength",
      "type": "error"
    },
    {
      "inputs": [
        {
          "internalType": "address",
          "name": "implementation",
          "type": "address"
        }
      ],
      "name": "InvalidImplementation",
      "type": "error"
    },
    {
      "inputs": [
        {
          "internalType": "address",
          "name": "account",
          "type": "address"
        },
        {
          "internalType": "address",
          "name": "implementation",
          "type": "address"
        }
      ],
      "name": "NotOwnerOrInitialized",
      "type": "error"
    },
    {
      "inputs": [
        {
          "internalType": "address",
          "name": "owner",
          "type": "address"
        }
      ],
      "name": "OwnableInvalidOwner",
      "type": "error"
    },
    {
      "inputs": [
        {
          "internalType": "address",
          "name": "account",
          "type": "address"
        }
      ],
      "name": "OwnableUnauthorizedAccount",
      "type": "error"
    },
    {
      "anonymous": false,
      "inputs": [
        {
          "indexed": false,
          "internalType": "address",
          "name": "newFacade",
          "type": "address"
        }
      ],
      "name": "FacadeUpgraded",
      "type": "event"
    },
    {
      "anonymous": false,
      "inputs": [
        {
          "indexed": false,
          "internalType": "bytes4",
          "name": "selector",
          "type": "bytes4"
        }
      ],
      "name": "ImplementationDeleted",
      "type": "event"
    },
    {
      "anonymous": false,
      "inputs": [
        {
          "indexed": false,
          "internalType": "bytes4",
          "name": "selector",
          "type": "bytes4"
        },
        {
          "indexed": false,
          "internalType": "address",
          "name": "newImplementation",
          "type": "address"
        }
      ],
      "name": "ImplementationUpgraded",
      "type": "event"
    },
    {
      "anonymous": false,
      "inputs": [
        {
          "indexed": false,
          "internalType": "bytes4",
          "name": "newSelector",
          "type": "bytes4"
        }
      ],
      "name": "NewFunctionSelectorAdded",
      "type": "event"
    },
    {
      "anonymous": false,
      "inputs": [
        {
          "indexed": true,
          "internalType": "address",
          "name": "previousOwner",
          "type": "address"
        },
        {
          "indexed": true,
          "internalType": "address",
          "name": "newOwner",
          "type": "address"
        }
      ],
      "name": "OwnershipTransferred",
      "type": "event"
    },
    {
      "inputs": [
        {
          "internalType": "bytes4[]",
          "name": "selectors",
          "type": "bytes4[]"
        },
        {
          "internalType": "address",
          "name": "implementation_",
          "type": "address"
        }
      ],
      "name": "bulkSetImplementation",
      "outputs": [],
      "stateMutability": "nonpayable",
      "type": "function"
    },
    {
      "inputs": [
        {
          "internalType": "bytes4[]",
          "name": "selectors",
          "type": "bytes4[]"
        },
        {
          "internalType": "address[]",
          "name": "implementations",
          "type": "address[]"
        }
      ],
      "name": "bulkSetImplementation",
      "outputs": [],
      "stateMutability": "nonpayable",
      "type": "function"
    },
    {
      "inputs": [],
      "name": "getFacade",
      "outputs": [
        {
          "internalType": "address",
          "name": "",
          "type": "address"
        }
      ],
      "stateMutability": "view",
      "type": "function"
    },
    {
      "inputs": [
        {
          "internalType": "bytes4",
          "name": "selector",
          "type": "bytes4"
        }
      ],
      "name": "getImplementation",
      "outputs": [
        {
          "internalType": "address",
          "name": "",
          "type": "address"
        }
      ],
      "stateMutability": "view",
      "type": "function"
    },
    {
      "inputs": [],
      "name": "implementation",
      "outputs": [
        {
          "internalType": "address",
          "name": "",
          "type": "address"
        }
      ],
      "stateMutability": "view",
      "type": "function"
    },
    {
      "inputs": [
        {
          "internalType": "address",
          "name": "owner_",
          "type": "address"
        }
      ],
      "name": "initialize",
      "outputs": [],
      "stateMutability": "nonpayable",
      "type": "function"
    },
    {
      "inputs": [],
      "name": "owner",
      "outputs": [
        {
          "internalType": "address",
          "name": "",
          "type": "address"
        }
      ],
      "stateMutability": "view",
      "type": "function"
    },
    {
      "inputs": [],
      "name": "renounceOwnership",
      "outputs": [],
      "stateMutability": "nonpayable",
      "type": "function"
    },
    {
      "inputs": [
        {
          "internalType": "bytes4",
          "name": "selector",
          "type": "bytes4"
        },
        {
          "internalType": "address",
          "name": "implementation_",
          "type": "address"
        }
      ],
      "name": "setImplementation",
      "outputs": [],
      "stateMutability": "nonpayable",
      "type": "function"
    },
    {
      "inputs": [
        {
          "internalType": "address",
          "name": "account",
          "type": "address"
        },
        {
          "internalType": "address",
          "name": "implementation_",
          "type": "address"
        }
      ],
      "name": "setOnceInitialized",
      "outputs": [],
      "stateMutability": "nonpayable",
      "type": "function"
    },
    {
      "inputs": [
        {
          "internalType": "bytes4",
          "name": "interfaceId",
          "type": "bytes4"
        }
      ],
      "name": "supportsInterface",
      "outputs": [
        {
          "internalType": "bool",
          "name": "",
          "type": "bool"
        }
      ],
      "stateMutability": "view",
      "type": "function"
    },
    {
      "inputs": [],
      "name": "supportsInterfaces",
      "outputs": [
        {
          "internalType": "bytes4[]",
          "name": "",
          "type": "bytes4[]"
        }
      ],
      "stateMutability": "view",
      "type": "function"
    },
    {
      "inputs": [
        {
          "internalType": "address",
          "name": "newOwner",
          "type": "address"
        }
      ],
      "name": "transferOwnership",
      "outputs": [],
      "stateMutability": "nonpayable",
      "type": "function"
    },
    {
      "inputs": [
        {
          "internalType": "address",
          "name": "newFacade",
          "type": "address"
        }
      ],
      "name": "upgradeFacade",
      "outputs": [],
      "stateMutability": "nonpayable",
      "type": "function"
    }
  ],
  "bytecode": "0x6080806040523460b157602081610ede8038038091601c828560b6565b83398101031260b157516001600160a01b0381169081900360b1578015609b57604051602081017f0cee7785c9739c2abcb4ce591dada6e864d6d906251746912d12a62bb828bf68815260208252607360408360b6565b9051902060ff191680546001600160a01b0319169091179055604051610def90816100ef8239f35b631e4fbdf760e01b600052600060045260246000fd5b600080fd5b601f909101601f19168101906001600160401b0382119082101760d857604052565b634e487b7160e01b600052604160045260246000fdfe6080604052600436101561001257600080fd5b60003560e01c806301ffc9a7146108615780630815f6fd146107605780630fb95533146106c357806323c45f67146106f35780635c60da1b146106c3578063651dc03d1461064e578063715018a6146105e557806386ec366f146104ec5780638da5cb5b146104bf578063a5954dd71461024e578063c4d66de8146101e9578063dc9cc645146101b4578063f2fde38b1461011f5763f6d81789146100b657600080fd5b3461011a57604036600319011261011a576100cf6108d9565b6100d76108c3565b906100e0610a1c565b6100e86109ae565b6001600160a01b039182166000908152602091825260408082209490931681529290529020805460ff19166001179055005b600080fd5b3461011a57602036600319011261011a576101386108d9565b610140610a1c565b6001600160a01b031680156101a0576001600160a01b0361015f610a4b565b5416610169610a4b565b80546001600160a01b031916831790557f8be0079c531659141344cd1fd0a4f28419497f9722a3daafe3b4186f6b6457e0600080a3005b631e4fbdf760e01b60005260045260246000fd5b3461011a57602036600319011261011a5760206101d76101d26108ac565b610c3e565b6040516001600160a01b039091168152f35b3461011a57602036600319011261011a576102026108d9565b6001600160a01b0381161561023857610219610a4b565b80546001600160a01b0319166001600160a01b03909216919091179055005b631e4fbdf760e01b600052600060045260246000fd5b3461011a57600036600319011261011a576001610269610c05565b0160405190818260208354928381520180936000526020600020926000905b80600783011061041a576102e19454918181106103fb575b8181106103dc575b8181106103bd575b81811061039e575b81811061037f575b818110610360575b818110610343575b1061032e575b5093929303826108ef565b6040519182916020830190602084525180915260408301919060005b81811061030b575050500390f35b82516001600160e01b0319168452859450602093840193909201916001016102fd565b6001600160e01b0319168152602001856102d6565b602083811b6001600160e01b0319168552909301926001016102d0565b604083901b6001600160e01b03191684526020909301926001016102c8565b606083901b6001600160e01b03191684526020909301926001016102c0565b608083901b6001600160e01b03191684526020909301926001016102b8565b60a083901b6001600160e01b03191684526020909301926001016102b0565b60c083901b6001600160e01b03191684526020909301926001016102a8565b60e083901b6001600160e01b03191684526020909301926001016102a0565b916008919350610100600191865463ffffffff60e01b8160e01b16825263ffffffff60e01b8160c01b16602083015263ffffffff60e01b8160a01b16604083015263ffffffff60e01b8160801b16606083015263ffffffff60e01b8160601b16608083015263ffffffff60e01b8160401b1660a083015263ffffffff60e01b8160201b1660c083015263ffffffff60e01b1660e0820152019401920185929391610288565b3461011a57600036600319011261011a5760206001600160a01b036104e2610a4b565b5416604051908152f35b3461011a57604036600319011261011a5760043567ffffffffffffffff811161011a5761051d90369060040161093f565b6024359067ffffffffffffffff821161011a573660238301121561011a57816004013561054981610927565b9261055760405194856108ef565b8184526024602085019260051b8201019036821161011a57602401915b8183106105c55750505060005b81518110156105c3576001906105bd6001600160e01b03196105a383866109f2565b5116838060a01b036105b584886109f2565b511690610a84565b01610581565b005b82356001600160a01b038116810361011a57815260209283019201610574565b3461011a57600036600319011261011a576105fe610a1c565b60006001600160a01b03610610610a4b565b541661061a610a4b565b80546001600160a01b03191690557f8be0079c531659141344cd1fd0a4f28419497f9722a3daafe3b4186f6b6457e08280a3005b3461011a57602036600319011261011a577f159f10d3da077d18f228d52be447d552e7d1892d10f7af8f615658160e374729602061068a6108d9565b610692610a1c565b600261069c610c05565b0180546001600160a01b0319166001600160a01b03929092169182179055604051908152a1005b3461011a57600036600319011261011a5760206001600160a01b0360026106e8610c05565b015416604051908152f35b3461011a57604036600319011261011a5760043567ffffffffffffffff811161011a5761072490369060040161093f565b61072c6108c3565b9060005b81518110156105c35760019061075a846001600160e01b031961075384876109f2565b5116610a84565b01610730565b3461011a57604036600319011261011a576107796108ac565b6107816108c3565b9061078a6109ae565b90826001600160a01b0361079c610a4b565b541633148015610833575b1561080e576107b591610a84565b336000908152602082815260408083206001600160a01b038616845290915290205460ff16156107e157005b336000908152602091825260408082206001600160a01b039490941682529290915220805460ff19169055005b63a2b2cbaf60e01b6000908152336004526001600160a01b0391909116602452604490fd5b5050336000908152602083815260408083206001600160a01b0387168452909152902054839060ff166107a7565b3461011a57602036600319011261011a5761087a6108ac565b610882610c05565b9063ffffffff60e01b16600052602052602060018060a01b03604060002054161515604051908152f35b600435906001600160e01b03198216820361011a57565b602435906001600160a01b038216820361011a57565b600435906001600160a01b038216820361011a57565b90601f8019910116810190811067ffffffffffffffff82111761091157604052565b634e487b7160e01b600052604160045260246000fd5b67ffffffffffffffff81116109115760051b60200190565b9080601f8301121561011a5781359061095782610927565b9261096560405194856108ef565b82845260208085019360051b82010191821161011a57602001915b81831061098d5750505090565b82356001600160e01b03198116810361011a57815260209283019201610980565b604051602081017fdcd0993deeb3fbb63d75e5df88fd1b28cd94ac0a3560282557061bd7043d114e8152602082526109e76040836108ef565b9051902060ff191690565b8051821015610a065760209160051b010190565b634e487b7160e01b600052603260045260246000fd5b6001600160a01b03610a2c610a4b565b54163303610a3657565b63118cdaa760e01b6000523360045260246000fd5b604051602081017f0cee7785c9739c2abcb4ce591dada6e864d6d906251746912d12a62bb828bf688152602082526109e76040836108ef565b906001600160a01b038116908115610b1b57610a9f83610ccf565b3b15610b07577fda3c8142b3c1d27633026f55bfcb4eeb0b5b8db0daa0a3e10c2213a441722ad191604091610ad2610c05565b6001600160e01b03199092166000818152602093845284902080546001600160a01b03191683179055835190815291820152a1565b630c76093760e01b60005260045260246000fd5b505090610b26610c05565b60018101929091906001600160e01b03191660005b8454811015610bd85781610b4f8287610cac565b63ffffffff60e01b91549060031b1c60e01b1614610b6f57600101610b3b565b92610b9e7fb0f2f3a9229724df0b95683e95488b72aed817bc1a5bd6fe1d2e7504e92871cb9460209496610cac565b63ffffffff82549160031b1b191690555b81600052825260406000206bffffffffffffffffffffffff60a01b8154169055604051908152a1565b5060209193507fb0f2f3a9229724df0b95683e95488b72aed817bc1a5bd6fe1d2e7504e92871cb92610baf565b604051602081017fa030e04cfe3971837ad2d38f5251663dd284497751e652a503f7cd11d1d9d3e98152602082526109e76040836108ef565b90610c47610c05565b6001600160e01b03199092166000818152602084905260409020549092906001600160a01b031680610ca757506000805260205260018060a01b036040600020541680610ca3578263404ceef760e11b60005260045260246000fd5b9150565b925050565b9190918054831015610a0657600052601c60206000208360031c019260021b1690565b610cd881610d5d565b610d5a576001610ce6610c05565b01908154906801000000000000000082101561091157610d2f827fbe533f538959a17d76f1b09e966e741ee3b1183099682f96216c93d21feaecba946001602095018155610cac565b81549060031b9063ffffffff8460e01c831b921b19161790556040519063ffffffff60e01b168152a1565b50565b610d65610c05565b6001018054919060005b838110610d7f5750505050600090565b610d898183610cac565b90546001600160e01b031960039290921b1c60e01b811690841614610db057600101610d6f565b5050505060019056fea2646970667358221220ce8cb6778e37ba18b2dcc76af0dc4c9e385dc10488e27a45435bc089ba4ba12864736f6c634300081c0033",
  "linkReferences": {},
  "deployedLinkReferences": {}
}