{
  "_format": "hh-sol-artifact-1",
  "contractName": "Dictionary",
  "sourceName": "contracts/core/Dictionary/Dictionary.sol",
  "abi": [
    {
      "inputs": [
        {
          "internalType": "address",
          "name": "owner",
          "type": "address"
        }
      ],
      "stateMutability": "nonpayable",
      "type": "constructor"
    },
    {
      "inputs": [
        {
          "internalType": "bytes4",
          "name": "selector",
          "type": "bytes4"
        }
      ],
      "name": "ImplementationNotFound",
      "type": "error"
    },
    {
      "inputs": [
        {
          "internalType": "uint256",
          "name": "selectors",
          "type": "uint256"
        },
        {
          "internalType": "uint256",
          "name": "implementations",
          "type": "uint256"
        }
      ],
      "name": "InvalidBulkLength",
      "type": "error"
    },
    {
      "inputs": [
        {
          "internalType": "address",
          "name": "implementation",
          "type": "address"
        }
      ],
      "name": "InvalidImplementation",
      "type": "error"
    },
    {
      "inputs": [
        {
          "internalType": "address",
          "name": "account",
          "type": "address"
        },
        {
          "internalType": "address",
          "name": "implementation",
          "type": "address"
        }
      ],
      "name": "NotOwnerOrInitialized",
      "type": "error"
    },
    {
      "inputs": [
        {
          "internalType": "address",
          "name": "owner",
          "type": "address"
        }
      ],
      "name": "OwnableInvalidOwner",
      "type": "error"
    },
    {
      "inputs": [
        {
          "internalType": "address",
          "name": "account",
          "type": "address"
        }
      ],
      "name": "OwnableUnauthorizedAccount",
      "type": "error"
    },
    {
      "anonymous": false,
      "inputs": [
        {
          "indexed": false,
          "internalType": "address",
          "name": "newFacade",
          "type": "address"
        }
      ],
      "name": "FacadeUpgraded",
      "type": "event"
    },
    {
      "anonymous": false,
      "inputs": [
        {
          "indexed": false,
          "internalType": "bytes4",
          "name": "selector",
          "type": "bytes4"
        }
      ],
      "name": "ImplementationDeleted",
      "type": "event"
    },
    {
      "anonymous": false,
      "inputs": [
        {
          "indexed": false,
          "internalType": "bytes4",
          "name": "selector",
          "type": "bytes4"
        },
        {
          "indexed": false,
          "internalType": "address",
          "name": "newImplementation",
          "type": "address"
        }
      ],
      "name": "ImplementationUpgraded",
      "type": "event"
    },
    {
      "anonymous": false,
      "inputs": [
        {
          "indexed": false,
          "internalType": "bytes4",
          "name": "newSelector",
          "type": "bytes4"
        }
      ],
      "name": "NewFunctionSelectorAdded",
      "type": "event"
    },
    {
      "anonymous": false,
      "inputs": [
        {
          "indexed": true,
          "internalType": "address",
          "name": "previousOwner",
          "type": "address"
        },
        {
          "indexed": true,
          "internalType": "address",
          "name": "newOwner",
          "type": "address"
        }
      ],
      "name": "OwnershipTransferred",
      "type": "event"
    },
    {
      "inputs": [
        {
          "internalType": "bytes4[]",
          "name": "selectors",
          "type": "bytes4[]"
        },
        {
          "internalType": "address[]",
          "name": "implementations",
          "type": "address[]"
        }
      ],
      "name": "bulkSetImplementation",
      "outputs": [],
      "stateMutability": "nonpayable",
      "type": "function"
    },
    {
      "inputs": [],
      "name": "getFacade",
      "outputs": [
        {
          "internalType": "address",
          "name": "",
          "type": "address"
        }
      ],
      "stateMutability": "view",
      "type": "function"
    },
    {
      "inputs": [
        {
          "internalType": "bytes4",
          "name": "selector",
          "type": "bytes4"
        }
      ],
      "name": "getImplementation",
      "outputs": [
        {
          "internalType": "address",
          "name": "",
          "type": "address"
        }
      ],
      "stateMutability": "view",
      "type": "function"
    },
    {
      "inputs": [],
      "name": "implementation",
      "outputs": [
        {
          "internalType": "address",
          "name": "",
          "type": "address"
        }
      ],
      "stateMutability": "view",
      "type": "function"
    },
    {
      "inputs": [],
      "name": "owner",
      "outputs": [
        {
          "internalType": "address",
          "name": "",
          "type": "address"
        }
      ],
      "stateMutability": "view",
      "type": "function"
    },
    {
      "inputs": [],
      "name": "renounceOwnership",
      "outputs": [],
      "stateMutability": "nonpayable",
      "type": "function"
    },
    {
      "inputs": [
        {
          "internalType": "bytes4",
          "name": "selector",
          "type": "bytes4"
        },
        {
          "internalType": "address",
          "name": "implementation",
          "type": "address"
        }
      ],
      "name": "setImplementation",
      "outputs": [],
      "stateMutability": "nonpayable",
      "type": "function"
    },
    {
      "inputs": [
        {
          "internalType": "address",
          "name": "account",
          "type": "address"
        },
        {
          "internalType": "address",
          "name": "implementation",
          "type": "address"
        }
      ],
      "name": "setOnceInitialized",
      "outputs": [],
      "stateMutability": "nonpayable",
      "type": "function"
    },
    {
      "inputs": [
        {
          "internalType": "bytes4",
          "name": "interfaceId",
          "type": "bytes4"
        }
      ],
      "name": "supportsInterface",
      "outputs": [
        {
          "internalType": "bool",
          "name": "",
          "type": "bool"
        }
      ],
      "stateMutability": "view",
      "type": "function"
    },
    {
      "inputs": [],
      "name": "supportsInterfaces",
      "outputs": [
        {
          "internalType": "bytes4[]",
          "name": "",
          "type": "bytes4[]"
        }
      ],
      "stateMutability": "view",
      "type": "function"
    },
    {
      "inputs": [
        {
          "internalType": "address",
          "name": "newOwner",
          "type": "address"
        }
      ],
      "name": "transferOwnership",
      "outputs": [],
      "stateMutability": "nonpayable",
      "type": "function"
    },
    {
      "inputs": [
        {
          "internalType": "address",
          "name": "newFacade",
          "type": "address"
        }
      ],
      "name": "upgradeFacade",
      "outputs": [],
      "stateMutability": "nonpayable",
      "type": "function"
    }
  ],
  "bytecode": "0x608080604052346101ac57602081610f70803803809161001f82856101b1565b8339810103126101ac57516001600160a01b038116908190036101ac57801561019657600380546001600160a01b031981168317909155600091829161015e916101729181906001600160a01b03167f8be0079c531659141344cd1fd0a4f28419497f9722a3daafe3b4186f6b6457e08680a383806100f66101046040516100a86040826101b1565b601681527f44696374696f6e61727920636f6e7374727563746f7200000000000000000000602082015260405192839163104c13eb60e21b60208401526020602484015260448301906101ea565b03601f1981018352826101b1565b6020815191016a636f6e736f6c652e6c6f675afa50604051906101286040836101b1565b600582526437bbb732b960d91b602083015260405193849263319af33360e01b60208501526040602485015260648401906101ea565b90604483015203601f1981018352826101b1565b6020815191016a636f6e736f6c652e6c6f675afa50604051610d44908161022c8239f35b631e4fbdf760e01b600052600060045260246000fd5b600080fd5b601f909101601f19168101906001600160401b038211908210176101d457604052565b634e487b7160e01b600052604160045260246000fd5b919082519283825260005b848110610216575050826000602080949584010152601f8019910116010190565b806020809284010151828286010152016101f556fe608080604052600436101561001357600080fd5b60003560e01c90816301ffc9a714610831575080630815f6fd146106de5780630fb95533146106d95780635c60da1b146106d9578063651dc03d1461066d578063715018a61461061057806386ec366f146104735780638da5cb5b1461044a578063a5954dd7146101c6578063dc9cc64514610191578063f2fde38b146101075763f6d81789146100a357600080fd5b34610102576040366003190112610102576100bc6108a0565b6100c461088a565b906100cd610b57565b6001600160a01b039081166000908152600460209081526040808320949093168252929092529020805460ff19166001179055005b600080fd5b34610102576020366003190112610102576101206108a0565b610128610b57565b6001600160a01b0316801561017b57600380546001600160a01b0319811683179091556001600160a01b03167f8be0079c531659141344cd1fd0a4f28419497f9722a3daafe3b4186f6b6457e0600080a3005b631e4fbdf760e01b600052600060045260246000fd5b346101025760203660031901126101025760206101b46101af610873565b610b80565b6040516001600160a01b039091168152f35b3461010257600036600319011261010257604051806020600154918281520190828260016000527fb10e2d527612073b26eecdfd717e6a320cf44b4afac2b0732d9fcbe2b7fa0cf6926000905b8060078301106103a55761026c945491818110610386575b818110610367575b818110610348575b818110610329575b81811061030a575b8181106102eb575b8181106102ce575b106102b9575b5093929303826108df565b6040519182916020830190602084525180915260408301919060005b818110610296575050500390f35b82516001600160e01b031916845285945060209384019390920191600101610288565b6001600160e01b031916815260200185610261565b602083811b6001600160e01b03191685529093019260010161025b565b604083901b6001600160e01b0319168452602090930192600101610253565b606083901b6001600160e01b031916845260209093019260010161024b565b608083901b6001600160e01b0319168452602090930192600101610243565b60a083901b6001600160e01b031916845260209093019260010161023b565b60c083901b6001600160e01b0319168452602090930192600101610233565b60e083901b6001600160e01b031916845260209093019260010161022b565b916008919350610100600191865463ffffffff60e01b8160e01b16825263ffffffff60e01b8160c01b16602083015263ffffffff60e01b8160a01b16604083015263ffffffff60e01b8160801b16606083015263ffffffff60e01b8160601b16608083015263ffffffff60e01b8160401b1660a083015263ffffffff60e01b8160201b1660c083015263ffffffff60e01b1660e0820152019401920185929391610213565b34610102576000366003190112610102576003546040516001600160a01b039091168152602090f35b346101025760403660031901126101025760043567ffffffffffffffff811161010257366023820112156101025780600401356104af81610917565b916104bd60405193846108df565b8183526024602084019260051b8201019036821161010257602401915b8183106105ef576024358467ffffffffffffffff8211610102573660238301121561010257816004013561050d81610917565b9261051b60405194856108df565b8184526024602085019260051b8201019036821161010257602401915b8183106105cf575050508051825190818114806105c6575b806105bb575b156105a457505060005b81518110156105a25760019061059c6001600160e01b0319610582838661092f565b5116838060a01b03610594848861092f565b5116906109eb565b01610560565b005b635e30c5f960e01b60005260045260245260446000fd5b506064821115610556565b50801515610550565b82356001600160a01b038116810361010257815260209283019201610538565b82356001600160e01b031981168103610102578152602092830192016104da565b3461010257600036600319011261010257610629610b57565b600380546001600160a01b031981169091556000906001600160a01b03167f8be0079c531659141344cd1fd0a4f28419497f9722a3daafe3b4186f6b6457e08280a3005b34610102576020366003190112610102577f159f10d3da077d18f228d52be447d552e7d1892d10f7af8f615658160e37472960206106a96108a0565b6106b1610b57565b600280546001600160a01b0319166001600160a01b03929092169182179055604051908152a1005b6108b6565b34610102576040366003190112610102576106f7610873565b6106ff61088a565b9061072f6040516107116040826108df565b600a81526936b9b39739b2b73232b960b11b60208201523390610959565b610761826040516107416040826108df565b600e81526d34b6b83632b6b2b73a30ba34b7b760911b6020820152610959565b8160018060a01b036003541633148015610803575b156107de57610784916109eb565b336000526004602052604060002060018060a01b03821660005260205260ff60406000205416156107b157005b3360009081526004602090815260408083206001600160a01b03909416835292905220805460ff19169055005b63a2b2cbaf60e01b6000908152336004526001600160a01b0391909116602452604490fd5b5050336000526004602052604060002060018060a01b0383166000526020528160ff60406000205416610776565b34610102576020366003190112610102576020906001600160e01b0319610856610873565b16600090815280835260409020546001600160a01b031615158152f35b600435906001600160e01b03198216820361010257565b602435906001600160a01b038216820361010257565b600435906001600160a01b038216820361010257565b34610102576000366003190112610102576002546040516001600160a01b039091168152602090f35b90601f8019910116810190811067ffffffffffffffff82111761090157604052565b634e487b7160e01b600052604160045260246000fd5b67ffffffffffffffff81116109015760051b60200190565b80518210156109435760209160051b010190565b634e487b7160e01b600052603260045260246000fd5b60405190602082019263319af33360e01b84526040602484015281519182606485015260005b8381106109d5575050916109c2608482846000979596888481998501015260018060a01b03166044830152601f801991011681010301601f1981018352826108df565b51906a636f6e736f6c652e6c6f675afa50565b806020809284010151608482880101520161097f565b6001600160a01b038216918215610a8057610a0582610c3d565b3b15610a6b577fda3c8142b3c1d27633026f55bfcb4eeb0b5b8db0daa0a3e10c2213a441722ad19160409163ffffffff60e01b169081600052600060205282600020816bffffffffffffffffffffffff60a01b82541617905582519182526020820152a1565b50630c76093760e01b60005260045260246000fd5b506001600160e01b031916905060005b600154811015610b2d5781610aa482610bfc565b63ffffffff60e01b91549060031b1c60e01b1614610ac457600101610a90565b7fb0f2f3a9229724df0b95683e95488b72aed817bc1a5bd6fe1d2e7504e92871cb91610af1602092610bfc565b63ffffffff82549160031b1b191690555b806000526000825260406000206bffffffffffffffffffffffff60a01b8154169055604051908152a1565b5060207fb0f2f3a9229724df0b95683e95488b72aed817bc1a5bd6fe1d2e7504e92871cb91610b02565b6003546001600160a01b03163303610b6b57565b63118cdaa760e01b6000523360045260246000fd5b6001600160e01b0319166000818152602081905260409020549091906001600160a01b031680610bf8575060008080526020527fad3228b676f7d3cd4284a5443f17f1962b36e491b30a40b2405849e597ba5fb5546001600160a01b031680610bf8578263404ceef760e11b60005260045260246000fd5b9150565b90600154821015610943576001600052600382901c7fb10e2d527612073b26eecdfd717e6a320cf44b4afac2b0732d9fcbe2b7fa0cf6019160021b601c1690565b610c4681610cc0565b610cbd5760015468010000000000000000811015610901577fbe533f538959a17d76f1b09e966e741ee3b1183099682f96216c93d21feaecba91610c9282600160209401600155610bfc565b81549060031b9063ffffffff8460e01c831b921b19161790556040519063ffffffff60e01b168152a1565b50565b6001549060005b828110610cd657505050600090565b610cdf81610bfc565b90546001600160e01b031960039290921b1c60e01b811690831614610d0657600101610cc7565b50505060019056fea26469706673582212200af309e5002a59c4dea05249dbb25807e4514ee77f3427c6ddbeecbe0bbf92e264736f6c634300081c0033",
  "linkReferences": {},
  "deployedLinkReferences": {}
}