{
  "_format": "hh-sol-artifact-1",
  "contractName": "Dictionary",
  "sourceName": "contracts/dictionary/Dictionary.sol",
  "abi": [
    {
      "inputs": [
        {
          "internalType": "address",
          "name": "owner",
          "type": "address"
        }
      ],
      "stateMutability": "nonpayable",
      "type": "constructor"
    },
    {
      "inputs": [
        {
          "internalType": "bytes4",
          "name": "selector",
          "type": "bytes4"
        }
      ],
      "name": "ImplementationNotFound",
      "type": "error"
    },
    {
      "inputs": [
        {
          "internalType": "address",
          "name": "implementation",
          "type": "address"
        }
      ],
      "name": "InvalidImplementation",
      "type": "error"
    },
    {
      "inputs": [
        {
          "internalType": "address",
          "name": "owner",
          "type": "address"
        }
      ],
      "name": "OwnableInvalidOwner",
      "type": "error"
    },
    {
      "inputs": [
        {
          "internalType": "address",
          "name": "account",
          "type": "address"
        }
      ],
      "name": "OwnableUnauthorizedAccount",
      "type": "error"
    },
    {
      "anonymous": false,
      "inputs": [
        {
          "indexed": false,
          "internalType": "address",
          "name": "newFacade",
          "type": "address"
        }
      ],
      "name": "FacadeUpgraded",
      "type": "event"
    },
    {
      "anonymous": false,
      "inputs": [
        {
          "indexed": false,
          "internalType": "bytes4",
          "name": "selector",
          "type": "bytes4"
        }
      ],
      "name": "ImplementationDeleted",
      "type": "event"
    },
    {
      "anonymous": false,
      "inputs": [
        {
          "indexed": false,
          "internalType": "bytes4",
          "name": "selector",
          "type": "bytes4"
        },
        {
          "indexed": false,
          "internalType": "address",
          "name": "implementation",
          "type": "address"
        }
      ],
      "name": "ImplementationUpgraded",
      "type": "event"
    },
    {
      "anonymous": false,
      "inputs": [
        {
          "indexed": false,
          "internalType": "bytes4",
          "name": "newSelector",
          "type": "bytes4"
        }
      ],
      "name": "NewFunctionSelectorAdded",
      "type": "event"
    },
    {
      "anonymous": false,
      "inputs": [
        {
          "indexed": true,
          "internalType": "address",
          "name": "previousOwner",
          "type": "address"
        },
        {
          "indexed": true,
          "internalType": "address",
          "name": "newOwner",
          "type": "address"
        }
      ],
      "name": "OwnershipTransferred",
      "type": "event"
    },
    {
      "inputs": [],
      "name": "getFacade",
      "outputs": [
        {
          "internalType": "address",
          "name": "",
          "type": "address"
        }
      ],
      "stateMutability": "view",
      "type": "function"
    },
    {
      "inputs": [
        {
          "internalType": "bytes4",
          "name": "selector",
          "type": "bytes4"
        }
      ],
      "name": "getImplementation",
      "outputs": [
        {
          "internalType": "address",
          "name": "",
          "type": "address"
        }
      ],
      "stateMutability": "view",
      "type": "function"
    },
    {
      "inputs": [],
      "name": "implementation",
      "outputs": [
        {
          "internalType": "address",
          "name": "",
          "type": "address"
        }
      ],
      "stateMutability": "view",
      "type": "function"
    },
    {
      "inputs": [],
      "name": "owner",
      "outputs": [
        {
          "internalType": "address",
          "name": "",
          "type": "address"
        }
      ],
      "stateMutability": "view",
      "type": "function"
    },
    {
      "inputs": [],
      "name": "renounceOwnership",
      "outputs": [],
      "stateMutability": "nonpayable",
      "type": "function"
    },
    {
      "inputs": [
        {
          "internalType": "bytes4",
          "name": "selector",
          "type": "bytes4"
        },
        {
          "internalType": "address",
          "name": "implementation",
          "type": "address"
        }
      ],
      "name": "setImplementation",
      "outputs": [],
      "stateMutability": "nonpayable",
      "type": "function"
    },
    {
      "inputs": [
        {
          "internalType": "bytes4",
          "name": "interfaceId",
          "type": "bytes4"
        }
      ],
      "name": "supportsInterface",
      "outputs": [
        {
          "internalType": "bool",
          "name": "",
          "type": "bool"
        }
      ],
      "stateMutability": "view",
      "type": "function"
    },
    {
      "inputs": [],
      "name": "supportsInterfaces",
      "outputs": [
        {
          "internalType": "bytes4[]",
          "name": "",
          "type": "bytes4[]"
        }
      ],
      "stateMutability": "view",
      "type": "function"
    },
    {
      "inputs": [
        {
          "internalType": "address",
          "name": "newOwner",
          "type": "address"
        }
      ],
      "name": "transferOwnership",
      "outputs": [],
      "stateMutability": "nonpayable",
      "type": "function"
    },
    {
      "inputs": [
        {
          "internalType": "address",
          "name": "newFacade",
          "type": "address"
        }
      ],
      "name": "upgradeFacade",
      "outputs": [],
      "stateMutability": "nonpayable",
      "type": "function"
    }
  ],
  "bytecode": "0x60803460bb57601f610a0838819003918201601f19168301916001600160401b0383118484101760c05780849260209460405283398101031260bb57516001600160a01b0381169081900360bb57801560a557600380546001600160a01b03198116831790915560405191906001600160a01b03167f8be0079c531659141344cd1fd0a4f28419497f9722a3daafe3b4186f6b6457e0600080a361093190816100d78239f35b631e4fbdf760e01b600052600060045260246000fd5b600080fd5b634e487b7160e01b600052604160045260246000fdfe608080604052600436101561001357600080fd5b60003560e01c90816301ffc9a71461052a575080630815f6fd146104eb5780630fb95533146104e65780635c60da1b146104e6578063651dc03d1461047a578063715018a61461041d5780638da5cb5b146103f4578063a5954dd714610151578063dc9cc6451461011c5763f2fde38b1461008d57600080fd5b34610117576020366003190112610117576100a6610583565b6100ae6105c2565b6001600160a01b0316801561010157600380546001600160a01b0319811683179091556001600160a01b03167f8be0079c531659141344cd1fd0a4f28419497f9722a3daafe3b4186f6b6457e0600080a3005b631e4fbdf760e01b600052600060045260246000fd5b600080fd5b3461011757602036600319011261011757602061013f61013a61056c565b610757565b6040516001600160a01b039091168152f35b3461011757600036600319011261011757604051600180548083526000918252602083019182917fb10e2d527612073b26eecdfd717e6a320cf44b4afac2b0732d9fcbe2b7fa0cf65b816007840110610355575491818110610336575b818110610317575b8181106102f8575b8181106102d9575b8181106102ba575b81811061029b575b81811061027e575b10610269575b50829003601f01601f191682019167ffffffffffffffff83118184101761025357908291826040526020830190602084525180915260408301919060005b818110610230575050500390f35b82516001600160e01b031916845285945060209384019390920191600101610222565b634e487b7160e01b600052604160045260246000fd5b6001600160e01b0319168152602001836101e4565b602083811b6001600160e01b0319168552909301926001016101de565b604083901b6001600160e01b03191684526020909301926001016101d6565b606083901b6001600160e01b03191684526020909301926001016101ce565b608083901b6001600160e01b03191684526020909301926001016101c6565b60a083901b6001600160e01b03191684526020909301926001016101be565b60c083901b6001600160e01b03191684526020909301926001016101b6565b60e083901b6001600160e01b03191684526020909301926001016101ae565b926001610100600892865463ffffffff60e01b8160e01b16825263ffffffff60e01b8160c01b16602083015263ffffffff60e01b8160a01b16604083015263ffffffff60e01b8160801b16606083015263ffffffff60e01b8160601b16608083015263ffffffff60e01b8160401b1660a083015263ffffffff60e01b8160201b1660c083015263ffffffff60e01b1660e082015201940192019161019a565b34610117576000366003190112610117576003546040516001600160a01b039091168152602090f35b34610117576000366003190112610117576104366105c2565b600380546001600160a01b031981169091556000906001600160a01b03167f8be0079c531659141344cd1fd0a4f28419497f9722a3daafe3b4186f6b6457e08280a3005b34610117576020366003190112610117577f159f10d3da077d18f228d52be447d552e7d1892d10f7af8f615658160e37472960206104b6610583565b6104be6105c2565b600280546001600160a01b0319166001600160a01b03929092169182179055604051908152a1005b610599565b346101175760403660031901126101175761050461056c565b6024356001600160a01b038116810361011757610528916105236105c2565b6105eb565b005b34610117576020366003190112610117576020906001600160e01b031961054f61056c565b16600090815280835260409020546001600160a01b031615158152f35b600435906001600160e01b03198216820361011757565b600435906001600160a01b038216820361011757565b34610117576000366003190112610117576002546040516001600160a01b039091168152602090f35b6003546001600160a01b031633036105d657565b63118cdaa760e01b6000523360045260246000fd5b6001600160a01b038216918215610680576106058261082a565b3b1561066b577fda3c8142b3c1d27633026f55bfcb4eeb0b5b8db0daa0a3e10c2213a441722ad19160409163ffffffff60e01b169081600052600060205282600020816bffffffffffffffffffffffff60a01b82541617905582519182526020820152a1565b50630c76093760e01b60005260045260246000fd5b506001600160e01b031916905060005b60015481101561072d57816106a4826107d3565b63ffffffff60e01b91549060031b1c60e01b16146106c457600101610690565b7fb0f2f3a9229724df0b95683e95488b72aed817bc1a5bd6fe1d2e7504e92871cb916106f16020926107d3565b63ffffffff82549160031b1b191690555b806000526000825260406000206bffffffffffffffffffffffff60a01b8154169055604051908152a1565b5060207fb0f2f3a9229724df0b95683e95488b72aed817bc1a5bd6fe1d2e7504e92871cb91610702565b6001600160e01b0319166000818152602081905260409020549091906001600160a01b0316806107cf575060008080526020527fad3228b676f7d3cd4284a5443f17f1962b36e491b30a40b2405849e597ba5fb5546001600160a01b0316806107cf578263404ceef760e11b60005260045260246000fd5b9150565b90600154821015610814576001600052600382901c7fb10e2d527612073b26eecdfd717e6a320cf44b4afac2b0732d9fcbe2b7fa0cf6019160021b601c1690565b634e487b7160e01b600052603260045260246000fd5b610833816108ad565b6108aa5760015468010000000000000000811015610253577fbe533f538959a17d76f1b09e966e741ee3b1183099682f96216c93d21feaecba9161087f826001602094016001556107d3565b81549060031b9063ffffffff8460e01c831b921b19161790556040519063ffffffff60e01b168152a1565b50565b6001549060005b8281106108c357505050600090565b6108cc816107d3565b90546001600160e01b031960039290921b1c60e01b8116908316146108f3576001016108b4565b50505060019056fea2646970667358221220afdf5b7b65cb7dae44316b7298acbeb58ad47d720abede18dbccd73e5687279664736f6c634300081c0033",
  "linkReferences": {},
  "deployedLinkReferences": {}
}