{
  "_format": "hh-sol-artifact-1",
  "contractName": "Governance_JP_LLC",
  "sourceName": "contracts/Services/Governance/extentions/Governance_JP_LLC.sol",
  "abi": [
    {
      "inputs": [
        {
          "internalType": "address",
          "name": "executor",
          "type": "address"
        },
        {
          "internalType": "uint256",
          "name": "transactionId",
          "type": "uint256"
        }
      ],
      "name": "AlreadyApproved",
      "type": "error"
    },
    {
      "inputs": [
        {
          "internalType": "uint256",
          "name": "transactionId",
          "type": "uint256"
        }
      ],
      "name": "ExecuteFailed",
      "type": "error"
    },
    {
      "inputs": [],
      "name": "InvalidInitialization",
      "type": "error"
    },
    {
      "inputs": [
        {
          "internalType": "uint256",
          "name": "numerator",
          "type": "uint256"
        },
        {
          "internalType": "uint256",
          "name": "denominator",
          "type": "uint256"
        }
      ],
      "name": "InvalidNumeratorOrDenominator",
      "type": "error"
    },
    {
      "inputs": [
        {
          "internalType": "enum IGovernanceService.ProposalLevel",
          "name": "proposalLevel",
          "type": "uint8"
        }
      ],
      "name": "InvalidProposalLevel",
      "type": "error"
    },
    {
      "inputs": [
        {
          "internalType": "address",
          "name": "executor",
          "type": "address"
        }
      ],
      "name": "NotExecutionMember",
      "type": "error"
    },
    {
      "inputs": [
        {
          "internalType": "address",
          "name": "executor",
          "type": "address"
        },
        {
          "internalType": "uint256",
          "name": "transactionId",
          "type": "uint256"
        }
      ],
      "name": "NotExecutor",
      "type": "error"
    },
    {
      "inputs": [
        {
          "internalType": "address",
          "name": "caller",
          "type": "address"
        }
      ],
      "name": "NotGovernanceContract",
      "type": "error"
    },
    {
      "inputs": [
        {
          "internalType": "uint256",
          "name": "transactionId",
          "type": "uint256"
        }
      ],
      "name": "NotInVotePeriod",
      "type": "error"
    },
    {
      "inputs": [],
      "name": "NotInitializing",
      "type": "error"
    },
    {
      "inputs": [
        {
          "internalType": "address",
          "name": "executor",
          "type": "address"
        }
      ],
      "name": "NotSCorLETS",
      "type": "error"
    },
    {
      "inputs": [
        {
          "internalType": "address",
          "name": "sender",
          "type": "address"
        }
      ],
      "name": "NotTokenHolder",
      "type": "error"
    },
    {
      "inputs": [
        {
          "internalType": "address",
          "name": "owner",
          "type": "address"
        }
      ],
      "name": "OwnableInvalidOwner",
      "type": "error"
    },
    {
      "inputs": [
        {
          "internalType": "address",
          "name": "account",
          "type": "address"
        }
      ],
      "name": "OwnableUnauthorizedAccount",
      "type": "error"
    },
    {
      "inputs": [
        {
          "internalType": "uint256",
          "name": "transactionId",
          "type": "uint256"
        }
      ],
      "name": "ThresholdNotReached",
      "type": "error"
    },
    {
      "anonymous": false,
      "inputs": [
        {
          "indexed": false,
          "internalType": "uint64",
          "name": "version",
          "type": "uint64"
        }
      ],
      "name": "Initialized",
      "type": "event"
    },
    {
      "anonymous": false,
      "inputs": [
        {
          "indexed": true,
          "internalType": "address",
          "name": "previousOwner",
          "type": "address"
        },
        {
          "indexed": true,
          "internalType": "address",
          "name": "newOwner",
          "type": "address"
        }
      ],
      "name": "OwnershipTransferred",
      "type": "event"
    },
    {
      "anonymous": false,
      "inputs": [
        {
          "indexed": false,
          "internalType": "uint256",
          "name": "transactionId",
          "type": "uint256"
        },
        {
          "indexed": false,
          "internalType": "address",
          "name": "executor",
          "type": "address"
        }
      ],
      "name": "TransactionApproved",
      "type": "event"
    },
    {
      "anonymous": false,
      "inputs": [
        {
          "indexed": false,
          "internalType": "uint256",
          "name": "transactionId",
          "type": "uint256"
        }
      ],
      "name": "TransactionCancelled",
      "type": "event"
    },
    {
      "anonymous": false,
      "inputs": [
        {
          "indexed": false,
          "internalType": "uint256",
          "name": "transactionId",
          "type": "uint256"
        }
      ],
      "name": "TransactionCreated",
      "type": "event"
    },
    {
      "anonymous": false,
      "inputs": [
        {
          "indexed": false,
          "internalType": "uint256",
          "name": "transactionId",
          "type": "uint256"
        }
      ],
      "name": "TransactionExecuted",
      "type": "event"
    },
    {
      "inputs": [
        {
          "internalType": "uint256",
          "name": "transactionId",
          "type": "uint256"
        }
      ],
      "name": "approveTransaction",
      "outputs": [],
      "stateMutability": "nonpayable",
      "type": "function"
    },
    {
      "inputs": [
        {
          "internalType": "uint256",
          "name": "transactionId_",
          "type": "uint256"
        }
      ],
      "name": "cancelTransaction",
      "outputs": [],
      "stateMutability": "nonpayable",
      "type": "function"
    },
    {
      "inputs": [
        {
          "internalType": "uint256",
          "name": "transactionId",
          "type": "uint256"
        }
      ],
      "name": "execute",
      "outputs": [],
      "stateMutability": "nonpayable",
      "type": "function"
    },
    {
      "inputs": [
        {
          "internalType": "address",
          "name": "owner",
          "type": "address"
        },
        {
          "internalType": "address",
          "name": "sc",
          "type": "address"
        },
        {
          "internalType": "bytes",
          "name": "extraParams",
          "type": "bytes"
        }
      ],
      "name": "initialize",
      "outputs": [],
      "stateMutability": "nonpayable",
      "type": "function"
    },
    {
      "inputs": [],
      "name": "owner",
      "outputs": [
        {
          "internalType": "address",
          "name": "",
          "type": "address"
        }
      ],
      "stateMutability": "view",
      "type": "function"
    },
    {
      "inputs": [
        {
          "internalType": "uint256",
          "name": "value",
          "type": "uint256"
        },
        {
          "internalType": "bytes",
          "name": "data",
          "type": "bytes"
        },
        {
          "internalType": "address",
          "name": "to",
          "type": "address"
        },
        {
          "internalType": "address",
          "name": "executor",
          "type": "address"
        },
        {
          "internalType": "enum IGovernanceService.ProposalLevel",
          "name": "proposalLevel",
          "type": "uint8"
        },
        {
          "internalType": "uint256",
          "name": "voteStart",
          "type": "uint256"
        },
        {
          "internalType": "uint256",
          "name": "voteEnd",
          "type": "uint256"
        },
        {
          "internalType": "address[]",
          "name": "proposalMemberContracts",
          "type": "address[]"
        }
      ],
      "name": "registerTransaction",
      "outputs": [],
      "stateMutability": "nonpayable",
      "type": "function"
    },
    {
      "inputs": [
        {
          "internalType": "uint256",
          "name": "value",
          "type": "uint256"
        },
        {
          "internalType": "bytes",
          "name": "data",
          "type": "bytes"
        },
        {
          "internalType": "address",
          "name": "to",
          "type": "address"
        },
        {
          "internalType": "address",
          "name": "executor",
          "type": "address"
        },
        {
          "internalType": "enum IGovernanceService.ProposalLevel",
          "name": "proposalLevel",
          "type": "uint8"
        },
        {
          "internalType": "uint256",
          "name": "numerator",
          "type": "uint256"
        },
        {
          "internalType": "uint256",
          "name": "denominator",
          "type": "uint256"
        },
        {
          "internalType": "uint256",
          "name": "voteStart",
          "type": "uint256"
        },
        {
          "internalType": "uint256",
          "name": "voteEnd",
          "type": "uint256"
        },
        {
          "internalType": "address[]",
          "name": "proposalMemberContracts",
          "type": "address[]"
        }
      ],
      "name": "registerTransactionWithCustomThreshold",
      "outputs": [],
      "stateMutability": "nonpayable",
      "type": "function"
    },
    {
      "inputs": [],
      "name": "renounceOwnership",
      "outputs": [],
      "stateMutability": "nonpayable",
      "type": "function"
    },
    {
      "inputs": [
        {
          "internalType": "address",
          "name": "newOwner",
          "type": "address"
        }
      ],
      "name": "transferOwnership",
      "outputs": [],
      "stateMutability": "nonpayable",
      "type": "function"
    }
  ],
  "bytecode": "0x6080806040523460d2577ff0c57e16840df040f15088dc2f81fe391c3923bec73e23a9662efc9c229c6a005460ff8160401c1660c1576002600160401b03196001600160401b03821601605c575b60405161180190816100d88239f35b6001600160401b0319166001600160401b039081177ff0c57e16840df040f15088dc2f81fe391c3923bec73e23a9662efc9c229c6a005581527fc7f505b2f371ae2175ee4913f4499e1f2633a7b5936321eed1cdaeb6115181d290602090a13880604d565b63f92ee8a960e01b60005260046000fd5b600080fdfe6080604052600436101561001257600080fd5b60003560e01c8063242232d114610c7f5780633380c0d814610bff578063715018a614610b9557806374d8c2fe14610a155780638da5cb5b146109df5780639b0595b81461081c578063cf7a1d771461059e578063f2fde38b146105735763fe0d94c11461007f57600080fd5b3461056e57602036600319011261056e576004356000818152600260205260409020600301546001600160a01b031633036105565780600052600260205260406000206040516100ce816110e9565b8154815260018201604051908160008254926100e984611280565b808452936001811690811561053457506001146104ed575b5061010e92500382611136565b602082015260018060a01b03600283015416604082015260ff600383015460018060a01b0381166060840152818160a01c161515608084015260a81c16151560a082015260048201549160c08201928352600581015460e08301908152600682015461010084015260078201546101208401526008820154610140840152604051809361019a8261111b565b60098401548252600c600a85015494602084019586526101c460ff600b83015416604086016112ba565b0160405190816020825491828152019160005260206000209060005b8181106104cb57505050906101fb8161016094930382611136565b6060840152015251925191519051918181029181830414901517156104b557811561049f57041161048b578060005260026020526040600020604051610240816110e9565b8154815260018201916040519283600082549261025c84611280565b80845293600181169081156104695750600114610422575b5061028192500384611136565b6020820192835260018060a01b03600282015416906040830191825260ff600382015460018060a01b0381166060860152818160a01c161515608086015260a81c16151560a0840152600481015460c0840152600581015460e0840152600681015461010084015260078101546101208401526008810154610140840152600c6040519161030e8361111b565b60098101548352600a810154602084015261033360ff600b83015416604085016112ba565b0160405190816020825491828152019160005260206000209060005b81811061040357896000808b8b8b8b8b61036b818d0382611136565b606082015261016083015251905191518051926020909101916001600160a01b03165af13d156103fe573d61039f81611157565b906103ad6040519283611136565b8152600060203d92013e5b156103ea5760207f15ed165a284872ea7017f03df402a0cadfbfab588320ffaf83f160c2f82781c791604051908152a1005b63367573d160e21b60005260045260246000fd5b6103b8565b82546001600160a01b031684526020909301926001928301920161034f565b90506000929192526020600020906000915b81831061044d5750509060206102819282010138610274565b6020919350806001915483858a01015201910190918592610434565b90506020925061028194915060ff191682840152151560051b82010138610274565b63b67ad30160e01b60005260045260246000fd5b634e487b7160e01b600052601260045260246000fd5b634e487b7160e01b600052601160045260246000fd5b82546001600160a01b03168452899650602090930192600192830192016101e0565b90506000929192526020600020906000915b81831061051857505090602061010e9282010138610101565b60209193508060019154838588010152019101909183926104ff565b90506020925061010e94915060ff191682840152151560051b82010138610101565b6301841ad560e11b6000523360045260245260446000fd5b600080fd5b3461056e57602036600319011261056e5761059c61058f6111e5565b6105976113e7565b611371565b005b3461056e57606036600319011261056e576105b76111e5565b6024356001600160a01b038116919082900361056e576044356001600160401b03811161056e576105ec903690600401611172565b506000805160206117ac83398151915254916001600160401b0360ff8460401c1615931680159081610814575b600114908161080a575b159081610801575b506107a35782610639611342565b6107cf575b6000805160206117ac83398151915254916001600160401b0360ff8460401c16159316801590816107c7575b60011490816107bd575b1590816107b4575b506107a3576106a3908361068e611342565b610771575b61069b61175d565b61059761175d565b6bffffffffffffffffffffffff60a01b600054161760005561071a575b6106c657005b60ff60401b196000805160206117ac83398151915254166000805160206117ac833981519152557fc7f505b2f371ae2175ee4913f4499e1f2633a7b5936321eed1cdaeb6115181d2602060405160018152a1005b60ff60401b196000805160206117ac83398151915254166000805160206117ac833981519152557fc7f505b2f371ae2175ee4913f4499e1f2633a7b5936321eed1cdaeb6115181d2602060405160018152a16106c0565b600160401b60ff60401b196000805160206117ac8339815191525416176000805160206117ac83398151915255610693565b63f92ee8a960e01b60005260046000fd5b9050158561067c565b303b159150610674565b84915061066a565b600160401b60ff60401b196000805160206117ac8339815191525416176000805160206117ac8339815191525561063e565b9050158461062b565b303b159150610623565b849150610619565b3461056e5761010036600319011261056e576024356001600160401b03811161056e5761084d903690600401611172565b6108556111b9565b9061085e6111cf565b9160843590600382101561056e5760e4356001600160401b03811161056e5761088b903690600401611212565b6000549093906001600160a01b0383811691168181149190821561095e575b50506108b79033906112f4565b821594600086858115610952575b6108ce9161131d565b61093c57610925948615610931576109106002955b600098156109285760ff60035b81604051996108fe8b61111b565b168952166020880152604087016112ba565b606085015260c4359260a43592600435611434565b80f35b60ff60026108f0565b6109106001956108e3565b634e487b7160e01b600052602160045260246000fd5b505060018514856108c5565b6040516336266ac760e11b8152600360048201529250602090839060249082905afa80156109d3576108b7926000916109a4575b506001600160a01b03161490876108aa565b6109c6915060203d6020116109cc575b6109be8183611136565b8101906112d5565b88610992565b503d6109b4565b6040513d6000823e3d90fd5b3461056e57600036600319011261056e5760008051602061178c833981519152546040516001600160a01b039091168152602090f35b3461056e5761014036600319011261056e576024356001600160401b03811161056e57610a46903690600401611172565b610a4e6111b9565b610a566111cf565b9160843591600383101561056e5760a4359160c43594610124356001600160401b03811161056e57610a8c903690600401611212565b6000546001600160a01b03858116911681811491908215610b30575b5050610ab59033906112f4565b600095610ac681600281101561131d565b85151580610b27575b15610b1057610afa90610925979860405197610aea8961111b565b88526020880152604087016112ba565b6060850152610104359260e43592600435611434565b60448789886302d5328360e01b8352600452602452fd5b50871515610acf565b6040516336266ac760e11b8152600360048201529250602090839060249082905afa80156109d357610ab592600091610b76575b506001600160a01b0316149089610aa8565b610b8f915060203d6020116109cc576109be8183611136565b8a610b64565b3461056e57600036600319011261056e57610bae6113e7565b60008051602061178c83398151915280546001600160a01b031981169091556000906001600160a01b03167f8be0079c531659141344cd1fd0a4f28419497f9722a3daafe3b4186f6b6457e08280a3005b3461056e57602036600319011261056e57600435303303610c6a57600081815260026020908152604091829020600301805460ff60a81b1916600160a81b17905590519182527f956fb32199d8b882b2039a14e1be35ab14f7a80b9089fc223f14b43937173e6091a1005b631a1c5b0360e11b6000523360045260246000fd5b3461056e57602036600319011261056e57600435600081815260036020908152604080832033845290915290205460ff166110d157806000526002602052604060002060405190610ccf826110e9565b805482526001810160405190816000825492610cea84611280565b80845293600181169081156110af5750600114611068575b50610d0f92500382611136565b602083015260018060a01b03600282015416604083015260ff600382015460018060a01b0381166060850152818160a01c161515608085015260a81c16151560a0830152600481015460c0830152600581015460e0830152600681015490610100830191825260078101549261012081019384526008820154610140820152600c60405192610d9d8461111b565b60098101548452600a8101546020850152610dc260ff600b83015416604086016112ba565b0160405190816020825491828152019160005260206000209060005b8181106110495750505090610df98161016094930382611136565b6060840152015251421015908161103d575b50156110295760008054604051635de6dc5560e01b8152336004820152906001600160a01b03168282602481845afa91821561101e578392610f80575b50825b8251811015610f7857600060208260051b8501015160405190634b94a7f560e11b82526004820152602081602481875afa918215610f6c578092610f35575b5050421015610e9b57600101610e4b565b5050505060015b15610f20576040817f924813d717e221b5f46dcd8a56da1679e4612584ab3237d55e5faabf6f6a30799260005260036020528160002060018060a01b03331660005260205281600020600160ff1982541617905580600052600260205260058260002001610f1081546112c6565b90558151908152336020820152a1005b635b9d0f5f60e01b6000523360045260246000fd5b9091506020823d8211610f64575b81610f5060209383611136565b81010312610f615750518680610e8a565b80fd5b3d9150610f43565b604051903d90823e3d90fd5b505050610ea2565b9091503d8084833e610f928183611136565b810190602081830312611016578051906001600160401b03821161101a57019080601f83011215611016578151610fc8816111fb565b92610fd66040519485611136565b81845260208085019260051b82010192831161101257602001905b828210611002575050509084610e48565b8151815260209182019101610ff1565b8580fd5b8380fd5b8480fd5b6040513d85823e3d90fd5b6343296c1960e11b60005260045260246000fd5b90505142111582610e0b565b82546001600160a01b0316845260209093019260019283019201610dde565b90506000929192526020600020906000915b818310611093575050906020610d0f9282010187610d02565b602091935080600191548385880101520191019091839261107a565b905060209250610d0f94915060ff191682840152151560051b82010187610d02565b633799aba760e01b6000523360045260245260446000fd5b61018081019081106001600160401b0382111761110557604052565b634e487b7160e01b600052604160045260246000fd5b608081019081106001600160401b0382111761110557604052565b90601f801991011681019081106001600160401b0382111761110557604052565b6001600160401b03811161110557601f01601f191660200190565b81601f8201121561056e5780359061118982611157565b926111976040519485611136565b8284526020838301011161056e57816000926020809301838601378301015290565b604435906001600160a01b038216820361056e57565b606435906001600160a01b038216820361056e57565b600435906001600160a01b038216820361056e57565b6001600160401b0381116111055760051b60200190565b9080601f8301121561056e5781359061122a826111fb565b926112386040519485611136565b82845260208085019360051b82010191821161056e57602001915b8183106112605750505090565b82356001600160a01b038116810361056e57815260209283019201611253565b90600182811c921680156112b0575b602083101461129a57565b634e487b7160e01b600052602260045260246000fd5b91607f169161128f565b600382101561093c5752565b60001981146104b55760010190565b9081602091031261056e57516001600160a01b038116810361056e5790565b156112fc5750565b631ef2139760e01b60009081526001600160a01b0391909116600452602490fd5b156113255750565b63adad481b60e01b600052600381101561093c5760045260246000fd5b60016001600160401b03196000805160206117ac8339815191525416176000805160206117ac83398151915255565b6001600160a01b031680156113d15760008051602061178c83398151915280546001600160a01b0319811683179091556001600160a01b03167f8be0079c531659141344cd1fd0a4f28419497f9722a3daafe3b4186f6b6457e0600080a3565b631e4fbdf760e01b600052600060045260246000fd5b60008051602061178c833981519152546001600160a01b0316330361140857565b63118cdaa760e01b6000523360045260246000fd5b818110611428575050565b6000815560010161141d565b9491959390929560015496611448886112c6565b600155606086015151906040519761145f896110e9565b885260208801958652604088019260018060a01b03168352606088019060018060a01b03168152608088016000815260a08901906000825260c08a0193845260e08a0194600086526101008b019687526101208b019788526101408b0198428a526101608c019a8b528c600052600260205260406000209b518c5560018c0190518051906001600160401b0382116111055781906114fd8454611280565b601f8111611720575b50602090601f83116001146116bb576000926116b0575b50508160011b916000199060031b1c19161790555b5160028b0180546001600160a01b0319166001600160a01b0392831617905592516003808c018054935194516001600160b01b0319909416929095169190911792151560a01b60ff60a01b169290921790151560a81b60ff60a81b161790915590516004880155905160058701559051600686015590516007850155905160088401559051805160098401556020810151600a8401556040810151929091600b82019084101561093c57606091600c9160009560ff8019835416911617905501910151918251926001600160401b03841161169c57600160401b841161169c576020908354858555808610611682575b500191815260208120905b838110611665575050505060207f20249019acac6e99959366f842671611cd943aa8071804678030725f38bc787e91604051908152a1565b82516001600160a01b03168183015560209092019160010161162d565b84845282842061169691810190870161141d565b38611622565b634e487b7160e01b82526041600452602482fd5b01519050388061151d565b60008581528281209350601f198516905b81811061170857509084600195949392106116ef575b505050811b019055611532565b015160001960f88460031b161c191690553880806116e2565b929360206001819287860151815501950193016116cc565b61174d90856000526020600020601f850160051c81019160208610611753575b601f0160051c019061141d565b38611506565b9091508190611740565b60ff6000805160206117ac8339815191525460401c161561177a57565b631afcd79f60e31b60005260046000fdfe9016d09d72d40fdae2fd8ceac6b6234c7706214fd39c1cd1e609a0528c199300f0c57e16840df040f15088dc2f81fe391c3923bec73e23a9662efc9c229c6a00a26469706673582212209be5ead1f0dabccdc954b54dbdc422cd1d5a084096923e6f9a919986405c8f7764736f6c634300081c0033",
  "linkReferences": {},
  "deployedLinkReferences": {}
}