{
  "_format": "hh-sol-artifact-1",
  "contractName": "Governance_JP_LLC",
  "sourceName": "contracts/sc/Services/Governance/functions/extensions/Governance_JP_LLC.sol",
  "abi": [
    {
      "inputs": [
        {
          "internalType": "address",
          "name": "executor",
          "type": "address"
        },
        {
          "internalType": "uint256",
          "name": "transactionId",
          "type": "uint256"
        }
      ],
      "name": "AlreadyApproved",
      "type": "error"
    },
    {
      "inputs": [],
      "name": "AlreadyInitialized",
      "type": "error"
    },
    {
      "inputs": [
        {
          "internalType": "address",
          "name": "owner",
          "type": "address"
        }
      ],
      "name": "ERC721InvalidOwner",
      "type": "error"
    },
    {
      "inputs": [
        {
          "internalType": "address",
          "name": "owner",
          "type": "address"
        },
        {
          "internalType": "uint256",
          "name": "index",
          "type": "uint256"
        }
      ],
      "name": "ERC721OutOfBoundsIndex",
      "type": "error"
    },
    {
      "inputs": [
        {
          "internalType": "uint256",
          "name": "transactionId",
          "type": "uint256"
        }
      ],
      "name": "ExecuteFailed",
      "type": "error"
    },
    {
      "inputs": [
        {
          "internalType": "uint256",
          "name": "numerator",
          "type": "uint256"
        },
        {
          "internalType": "uint256",
          "name": "denominator",
          "type": "uint256"
        }
      ],
      "name": "InvalidNumeratorOrDenominator",
      "type": "error"
    },
    {
      "inputs": [
        {
          "internalType": "enum IGovernanceServiceStructs.ProposalLevel",
          "name": "proposalLevel",
          "type": "uint8"
        }
      ],
      "name": "InvalidProposalLevel",
      "type": "error"
    },
    {
      "inputs": [
        {
          "internalType": "address",
          "name": "executor",
          "type": "address"
        }
      ],
      "name": "NotExecutionMember",
      "type": "error"
    },
    {
      "inputs": [
        {
          "internalType": "address",
          "name": "executor",
          "type": "address"
        },
        {
          "internalType": "uint256",
          "name": "transactionId",
          "type": "uint256"
        }
      ],
      "name": "NotExecutor",
      "type": "error"
    },
    {
      "inputs": [
        {
          "internalType": "address",
          "name": "caller",
          "type": "address"
        }
      ],
      "name": "NotGovernanceContract",
      "type": "error"
    },
    {
      "inputs": [
        {
          "internalType": "uint256",
          "name": "transactionId",
          "type": "uint256"
        }
      ],
      "name": "NotInVotePeriod",
      "type": "error"
    },
    {
      "inputs": [
        {
          "internalType": "address",
          "name": "executor",
          "type": "address"
        }
      ],
      "name": "NotSCorLETS",
      "type": "error"
    },
    {
      "inputs": [
        {
          "internalType": "address",
          "name": "sender",
          "type": "address"
        }
      ],
      "name": "NotTokenHolder",
      "type": "error"
    },
    {
      "inputs": [
        {
          "internalType": "uint256",
          "name": "transactionId",
          "type": "uint256"
        }
      ],
      "name": "ThresholdNotReached",
      "type": "error"
    },
    {
      "anonymous": false,
      "inputs": [
        {
          "indexed": true,
          "internalType": "address",
          "name": "initializer",
          "type": "address"
        }
      ],
      "name": "GovernanceInitialized",
      "type": "event"
    },
    {
      "anonymous": false,
      "inputs": [
        {
          "indexed": false,
          "internalType": "uint256",
          "name": "transactionId",
          "type": "uint256"
        },
        {
          "indexed": false,
          "internalType": "address",
          "name": "executor",
          "type": "address"
        }
      ],
      "name": "TransactionApproved",
      "type": "event"
    },
    {
      "anonymous": false,
      "inputs": [
        {
          "indexed": false,
          "internalType": "uint256",
          "name": "transactionId",
          "type": "uint256"
        }
      ],
      "name": "TransactionCancelled",
      "type": "event"
    },
    {
      "anonymous": false,
      "inputs": [
        {
          "indexed": false,
          "internalType": "uint256",
          "name": "transactionId",
          "type": "uint256"
        }
      ],
      "name": "TransactionCreated",
      "type": "event"
    },
    {
      "anonymous": false,
      "inputs": [
        {
          "indexed": false,
          "internalType": "uint256",
          "name": "transactionId",
          "type": "uint256"
        }
      ],
      "name": "TransactionExecuted",
      "type": "event"
    },
    {
      "inputs": [
        {
          "internalType": "uint256",
          "name": "transactionId",
          "type": "uint256"
        }
      ],
      "name": "approveTransaction",
      "outputs": [],
      "stateMutability": "nonpayable",
      "type": "function"
    },
    {
      "inputs": [
        {
          "internalType": "uint256",
          "name": "transactionId_",
          "type": "uint256"
        }
      ],
      "name": "cancelTransaction",
      "outputs": [],
      "stateMutability": "nonpayable",
      "type": "function"
    },
    {
      "inputs": [
        {
          "internalType": "uint256",
          "name": "transactionId",
          "type": "uint256"
        }
      ],
      "name": "execute",
      "outputs": [],
      "stateMutability": "nonpayable",
      "type": "function"
    },
    {
      "inputs": [
        {
          "internalType": "address",
          "name": "dictionary",
          "type": "address"
        }
      ],
      "name": "initialize",
      "outputs": [],
      "stateMutability": "nonpayable",
      "type": "function"
    },
    {
      "inputs": [
        {
          "internalType": "uint256",
          "name": "value",
          "type": "uint256"
        },
        {
          "internalType": "bytes",
          "name": "data",
          "type": "bytes"
        },
        {
          "internalType": "address",
          "name": "to",
          "type": "address"
        },
        {
          "internalType": "address",
          "name": "executor",
          "type": "address"
        },
        {
          "internalType": "enum IGovernanceServiceStructs.ProposalLevel",
          "name": "proposalLevel",
          "type": "uint8"
        },
        {
          "internalType": "uint256",
          "name": "voteStart",
          "type": "uint256"
        },
        {
          "internalType": "uint256",
          "name": "voteEnd",
          "type": "uint256"
        },
        {
          "internalType": "address[]",
          "name": "proposalMemberContracts",
          "type": "address[]"
        }
      ],
      "name": "registerTransaction",
      "outputs": [],
      "stateMutability": "nonpayable",
      "type": "function"
    },
    {
      "inputs": [
        {
          "internalType": "uint256",
          "name": "value",
          "type": "uint256"
        },
        {
          "internalType": "bytes",
          "name": "data",
          "type": "bytes"
        },
        {
          "internalType": "address",
          "name": "to",
          "type": "address"
        },
        {
          "internalType": "address",
          "name": "executor",
          "type": "address"
        },
        {
          "internalType": "enum IGovernanceServiceStructs.ProposalLevel",
          "name": "proposalLevel",
          "type": "uint8"
        },
        {
          "internalType": "uint256",
          "name": "numerator",
          "type": "uint256"
        },
        {
          "internalType": "uint256",
          "name": "denominator",
          "type": "uint256"
        },
        {
          "internalType": "uint256",
          "name": "voteStart",
          "type": "uint256"
        },
        {
          "internalType": "uint256",
          "name": "voteEnd",
          "type": "uint256"
        },
        {
          "internalType": "address[]",
          "name": "proposalMemberContracts",
          "type": "address[]"
        }
      ],
      "name": "registerTransactionWithCustomThreshold",
      "outputs": [],
      "stateMutability": "nonpayable",
      "type": "function"
    }
  ],
  "bytecode": "0x6080806040523460155761146b908161001b8239f35b600080fdfe6080604052600436101561001257600080fd5b60003560e01c8063242232d1146109aa5780633380c0d81461093f57806374d8c2fe1461084b5780639b0595b814610731578063c4d66de81461056e5763fe0d94c11461005e57600080fd5b3461056957602036600319011261056957600435600161007c61101a565b6000838152910160205260409020600301546001600160a01b031633036105515760016100a761101a565b018160005260205260406000206040516100c081610e06565b8154815260018201604051908160008254926100db84610f8c565b808452936001811690811561052f57506001146104e8575b5061010092500382610e55565b602082015260018060a01b03600283015416604082015260ff600383015460018060a01b0381166060840152818160a01c161515608084015260a81c16151560a082015260048201549160c08201928352600581015460e08301908152600682015461010084015260078201546101208401526008820154610140840152604051809361018c82610e39565b60098401548252600c600a85015494602084019586526101b660ff600b8301541660408601610fc6565b0160405190816020825491828152019160005260206000209060005b8181106104c657505050906101ed8161016094930382610e55565b6060840152015251925191519051918181029181830414901517156104b057811561049a57041161048657600161022261101a565b0181600052602052604060002060405161023b81610e06565b8154815260018201916040519283600082549261025784610f8c565b8084529360018116908115610464575060011461041d575b5061027c92500384610e55565b6020820192835260018060a01b03600282015416906040830191825260ff600382015460018060a01b0381166060860152818160a01c161515608086015260a81c16151560a0840152600481015460c0840152600581015460e0840152600681015461010084015260078101546101208401526008810154610140840152600c6040519161030983610e39565b60098101548352600a810154602084015261032e60ff600b8301541660408501610fc6565b0160405190816020825491828152019160005260206000209060005b8181106103fe57896000808b8b8b8b8b610366818d0382610e55565b606082015261016083015251905191518051926020909101916001600160a01b03165af13d156103f9573d61039a81610e77565b906103a86040519283610e55565b8152600060203d92013e5b156103e55760207f15ed165a284872ea7017f03df402a0cadfbfab588320ffaf83f160c2f82781c791604051908152a1005b63367573d160e21b60005260045260246000fd5b6103b3565b82546001600160a01b031684526020909301926001928301920161034a565b90506000929192526020600020906000915b81831061044857505090602061027c928201013861026f565b6020919350806001915483858a0101520191019091859261042f565b90506020925061027c94915060ff191682840152151560051b8201013861026f565b63b67ad30160e01b60005260045260246000fd5b634e487b7160e01b600052601260045260246000fd5b634e487b7160e01b600052601160045260246000fd5b82546001600160a01b03168452899650602090930192600192830192016101d2565b90506000929192526020600020906000915b81831061051357505090602061010092820101386100f3565b60209193508060019154838588010152019101909183926104fa565b90506020925061010094915060ff191682840152151560051b820101386100f3565b6301841ad560e11b6000523360045260245260446000fd5b600080fd5b34610569576020366003190112610569576004356001600160a01b038116908190036105695760ff604051602081017ff158cb8b47a14bda3b2c4affcc0d960e9ed23f5a516e4779510b08a6e823c0258152602082526105cf604083610e55565b821991519020165416610721576040516105ea60c082610e55565b600581526020810160a036823781511561070b5763fe0d94c160e01b905280516001101561070b5763242232d160e01b604082015280516002101561070b57631360b2b760e31b606082015280516003101561070b57633a6c617f60e11b608082015280516004101561070b57630670181b60e31b60a082015260005b81518110156106e3576001600160e01b03196106838284610fd2565b511690833b156105695760405191630815f6fd60e01b8352600483015230602483015260008260448183885af19182156106d7576001926106c6575b5001610667565b60006106d191610e55565b846106bf565b6040513d6000823e3d90fd5b337f0fddcb2d6b432d88fa1341d93d6de07ba96f9158932179c2086e052f13ef6152600080a2005b634e487b7160e01b600052603260045260246000fd5b62dc149f60e41b60005260046000fd5b34610569576101003660031901126105695760243567ffffffffffffffff811161056957610763903690600401610e93565b61076b610eda565b90610774610ef0565b916084359060038210156105695760e43567ffffffffffffffff8111610569576107a2903690600401610f1e565b926000948315958685811561083f575b6107bb91610ff5565b6108295761081294861561081e576107fd6002955b600098156108155760ff60035b81604051996107eb8b610e39565b16895216602088015260408701610fc6565b606085015260c4359260a43592600435611075565b80f35b60ff60026107dd565b6107fd6001956107d0565b634e487b7160e01b600052602160045260246000fd5b505060018514856107b2565b34610569576101403660031901126105695760243567ffffffffffffffff81116105695761087d903690600401610e93565b610885610eda565b61088d610ef0565b916084359160038310156105695760a4359160c435946101243567ffffffffffffffff8111610569576108c4903690600401610f1e565b6000956108d5816002811015610ff5565b85151580610936575b1561091f57610909906108129798604051976108f989610e39565b8852602088015260408701610fc6565b6060850152610104359260e43592600435611075565b60448789886302d5328360e01b8352600452602452fd5b508715156108de565b34610569576020366003190112610569577f956fb32199d8b882b2039a14e1be35ab14f7a80b9089fc223f14b43937173e606020600435600161098061101a565b600083815291018352604090819020600301805460ff60a81b1916600160a81b17905551908152a1005b346105695760203660031901126105695760043560026109c861101a565b600083815291016020908152604080832033845290915290205460ff16610dee5760016109f361101a565b0181600052602052604060002060405190610a0d82610e06565b805482526001810160405190816000825492610a2884610f8c565b8084529360018116908115610dcc5750600114610d85575b50610a4d92500382610e55565b602083015260018060a01b03600282015416604083015260ff600382015460018060a01b0381166060850152818160a01c161515608085015260a81c16151560a0830152600481015460c0830152600581015460e0830152600681015490610100830191825260078101549261012081019384526008820154610140820152600c60405192610adb84610e39565b60098101548452600a8101546020850152610b0060ff600b8301541660408601610fc6565b0160405190816020825491828152019160005260206000209060005b818110610d665750505090610b378161016094930382610e55565b60608401520152514210159081610d5a575b5015610d46576000610b5a336113b4565b610b6381610f06565b610b706040519182610e55565b818152601f19610b7f83610f06565b013660208301373391835b818110610cb6575050825b8151811015610cae57610ba88183610fd2565b516005604051602081017f0cee7785c9739c2abcb4ce591dada6e864d6d906251746912d12a62bb828bf68815260208252610be4604083610e55565b60ff1991519020160190600052602052426040600020541115610c0957600101610b95565b5050905060015b15610c99577f924813d717e221b5f46dcd8a56da1679e4612584ab3237d55e5faabf6f6a3079916040916002610c4461101a565b0182600052602052826000209060005260205281600020600160ff198254161790556001610c7061101a565b018160005260205260058260002001610c898154610fe6565b90558151908152336020820152a1005b635b9d0f5f60e01b6000523360045260246000fd5b505090610c10565b610cbf336113b4565b811015610d3057600190604051602081017f2070bae6b675801f0932481e70ab724699e22000dcf2efe36a44b6070d9ee8f1815260208252610d02604083610e55565b60ff199151902016858752602052604086208187526020526040862054610d298286610fd2565b5201610b8a565b63295f44f760e21b855233600452602452604484fd5b6343296c1960e11b60005260045260246000fd5b90505142111582610b49565b82546001600160a01b0316845260209093019260019283019201610b1c565b90506000929192526020600020906000915b818310610db0575050906020610a4d9282010187610a40565b6020919350806001915483858801015201910190918392610d97565b905060209250610a4d94915060ff191682840152151560051b82010187610a40565b633799aba760e01b6000523360045260245260446000fd5b610180810190811067ffffffffffffffff821117610e2357604052565b634e487b7160e01b600052604160045260246000fd5b6080810190811067ffffffffffffffff821117610e2357604052565b90601f8019910116810190811067ffffffffffffffff821117610e2357604052565b67ffffffffffffffff8111610e2357601f01601f191660200190565b81601f8201121561056957803590610eaa82610e77565b92610eb86040519485610e55565b8284526020838301011161056957816000926020809301838601378301015290565b604435906001600160a01b038216820361056957565b606435906001600160a01b038216820361056957565b67ffffffffffffffff8111610e235760051b60200190565b9080601f8301121561056957813590610f3682610f06565b92610f446040519485610e55565b82845260208085019360051b82010191821161056957602001915b818310610f6c5750505090565b82356001600160a01b038116810361056957815260209283019201610f5f565b90600182811c92168015610fbc575b6020831014610fa657565b634e487b7160e01b600052602260045260246000fd5b91607f1691610f9b565b60038210156108295752565b805182101561070b5760209160051b010190565b60001981146104b05760010190565b15610ffd5750565b63adad481b60e01b60005260038110156108295760045260246000fd5b604051602081017f75369ef0670b5a975ee687632c3532201fdd029ec7a2dbdd1dd2b7b823d908c3815260208252611053604083610e55565b9051902060ff191690565b818110611069575050565b6000815560010161105e565b9491959390929561108461101a565b9687549761109189610fe6565b905560608601515190604051976110a789610e06565b8852602088019586526001600160a01b039283166040890190815292166060880190815260006080890181815260a08a0182815260c08b0194855260e08b019283526101008b019687526101208b01978852426101408c019081526101608c019a8b529892959092600161111961101a565b018d60005260205260406000209b518c5560018c01905180519067ffffffffffffffff8211610e2357819061114e8454610f8c565b601f8111611377575b50602090601f831160011461131257600092611307575b50508160011b916000199060031b1c19161790555b5160028b0180546001600160a01b0319166001600160a01b0392831617905592516003808c018054935194516001600160b01b0319909416929095169190911792151560a01b60ff60a01b169290921790151560a81b60ff60a81b161790915590516004880155905160058701559051600686015590516007850155905160088401559051805160098401556020810151600a8401556040810151929091600b82019084101561082957606091600c9160009560ff80198354169116179055019101519182519267ffffffffffffffff84116112f3576801000000000000000084116112f35760209083548585558086106112d9575b500191815260208120905b8381106112bc575050505060207f20249019acac6e99959366f842671611cd943aa8071804678030725f38bc787e91604051908152a1565b82516001600160a01b031681830155602090920191600101611284565b8484528284206112ed91810190870161105e565b38611279565b634e487b7160e01b82526041600452602482fd5b01519050388061116e565b60008581528281209350601f198516905b81811061135f5750908460019594939210611346575b505050811b019055611183565b015160001960f88460031b161c19169055388080611339565b92936020600181928786015181550195019301611323565b6113a490856000526020600020601f850160051c810191602086106113aa575b601f0160051c019061105e565b38611157565b9091508190611397565b6001600160a01b0381161561141f576003604051602081017fb7b8777dfce3c027b9b4ab96baa886d0c5d5e8c8632429d2b4be0ba869cd905f8152602082526113fe604083610e55565b60ff199151902016019060018060a01b031660005260205260406000205490565b6322718ad960e21b600052600060045260246000fdfea264697066735822122055540ab8377d872ee44674613662179a4ae54cce2f4c8578cf76c2490a47c04664736f6c634300081c0033",
  "linkReferences": {},
  "deployedLinkReferences": {}
}