{
  "_format": "hh-sol-artifact-1",
  "contractName": "LETS_JP_LLC_EXE",
  "sourceName": "contracts/sc/Services/LETS/functions/extensions/LETS_JP_LLC/LETS_JP_LLC_EXE.sol",
  "abi": [
    {
      "inputs": [
        {
          "internalType": "address",
          "name": "account",
          "type": "address"
        },
        {
          "internalType": "bytes32",
          "name": "neededRole",
          "type": "bytes32"
        }
      ],
      "name": "AccessControlUnauthorizedAccount",
      "type": "error"
    },
    {
      "inputs": [],
      "name": "AlreadyInitialized",
      "type": "error"
    },
    {
      "inputs": [
        {
          "internalType": "address",
          "name": "sender",
          "type": "address"
        },
        {
          "internalType": "uint256",
          "name": "tokenId",
          "type": "uint256"
        },
        {
          "internalType": "address",
          "name": "owner",
          "type": "address"
        }
      ],
      "name": "ERC721IncorrectOwner",
      "type": "error"
    },
    {
      "inputs": [
        {
          "internalType": "address",
          "name": "operator",
          "type": "address"
        },
        {
          "internalType": "uint256",
          "name": "tokenId",
          "type": "uint256"
        }
      ],
      "name": "ERC721InsufficientApproval",
      "type": "error"
    },
    {
      "inputs": [
        {
          "internalType": "address",
          "name": "approver",
          "type": "address"
        }
      ],
      "name": "ERC721InvalidApprover",
      "type": "error"
    },
    {
      "inputs": [
        {
          "internalType": "address",
          "name": "operator",
          "type": "address"
        }
      ],
      "name": "ERC721InvalidOperator",
      "type": "error"
    },
    {
      "inputs": [
        {
          "internalType": "address",
          "name": "owner",
          "type": "address"
        }
      ],
      "name": "ERC721InvalidOwner",
      "type": "error"
    },
    {
      "inputs": [
        {
          "internalType": "address",
          "name": "receiver",
          "type": "address"
        }
      ],
      "name": "ERC721InvalidReceiver",
      "type": "error"
    },
    {
      "inputs": [
        {
          "internalType": "address",
          "name": "sender",
          "type": "address"
        }
      ],
      "name": "ERC721InvalidSender",
      "type": "error"
    },
    {
      "inputs": [
        {
          "internalType": "uint256",
          "name": "tokenId",
          "type": "uint256"
        }
      ],
      "name": "ERC721NonexistentToken",
      "type": "error"
    },
    {
      "inputs": [
        {
          "internalType": "address",
          "name": "owner",
          "type": "address"
        },
        {
          "internalType": "uint256",
          "name": "index",
          "type": "uint256"
        }
      ],
      "name": "ERC721OutOfBoundsIndex",
      "type": "error"
    },
    {
      "inputs": [
        {
          "internalType": "bytes32",
          "name": "param",
          "type": "bytes32"
        }
      ],
      "name": "InvalidParam",
      "type": "error"
    },
    {
      "inputs": [],
      "name": "MaxSupplyReached",
      "type": "error"
    },
    {
      "inputs": [
        {
          "internalType": "address",
          "name": "sender",
          "type": "address"
        }
      ],
      "name": "NotFounder",
      "type": "error"
    },
    {
      "inputs": [
        {
          "internalType": "address",
          "name": "caller",
          "type": "address"
        }
      ],
      "name": "NotGovernance",
      "type": "error"
    },
    {
      "inputs": [
        {
          "internalType": "address",
          "name": "caller",
          "type": "address"
        }
      ],
      "name": "NotLetsSale",
      "type": "error"
    },
    {
      "inputs": [],
      "name": "NotTransferable",
      "type": "error"
    },
    {
      "inputs": [
        {
          "internalType": "address",
          "name": "owner",
          "type": "address"
        }
      ],
      "name": "OwnableInvalidOwner",
      "type": "error"
    },
    {
      "inputs": [
        {
          "internalType": "address",
          "name": "account",
          "type": "address"
        }
      ],
      "name": "OwnableUnauthorizedAccount",
      "type": "error"
    },
    {
      "anonymous": false,
      "inputs": [
        {
          "indexed": true,
          "internalType": "address",
          "name": "owner",
          "type": "address"
        },
        {
          "indexed": true,
          "internalType": "address",
          "name": "approved",
          "type": "address"
        },
        {
          "indexed": true,
          "internalType": "uint256",
          "name": "tokenId",
          "type": "uint256"
        }
      ],
      "name": "Approval",
      "type": "event"
    },
    {
      "anonymous": false,
      "inputs": [
        {
          "indexed": true,
          "internalType": "address",
          "name": "owner",
          "type": "address"
        },
        {
          "indexed": true,
          "internalType": "address",
          "name": "operator",
          "type": "address"
        },
        {
          "indexed": false,
          "internalType": "bool",
          "name": "approved",
          "type": "bool"
        }
      ],
      "name": "ApprovalForAll",
      "type": "event"
    },
    {
      "anonymous": false,
      "inputs": [
        {
          "indexed": false,
          "internalType": "uint256",
          "name": "_fromTokenId",
          "type": "uint256"
        },
        {
          "indexed": false,
          "internalType": "uint256",
          "name": "_toTokenId",
          "type": "uint256"
        }
      ],
      "name": "BatchMetadataUpdate",
      "type": "event"
    },
    {
      "anonymous": false,
      "inputs": [
        {
          "indexed": true,
          "internalType": "address",
          "name": "scr",
          "type": "address"
        },
        {
          "indexed": false,
          "internalType": "address[]",
          "name": "tos",
          "type": "address[]"
        }
      ],
      "name": "InitialMint",
      "type": "event"
    },
    {
      "anonymous": false,
      "inputs": [
        {
          "indexed": true,
          "internalType": "address",
          "name": "initializer",
          "type": "address"
        }
      ],
      "name": "LETSBaseInitialized",
      "type": "event"
    },
    {
      "anonymous": false,
      "inputs": [
        {
          "indexed": true,
          "internalType": "address",
          "name": "initializer",
          "type": "address"
        }
      ],
      "name": "LETS_JP_LLC_EXEInitialized",
      "type": "event"
    },
    {
      "anonymous": false,
      "inputs": [
        {
          "indexed": false,
          "internalType": "uint256",
          "name": "_tokenId",
          "type": "uint256"
        }
      ],
      "name": "MetadataUpdate",
      "type": "event"
    },
    {
      "anonymous": false,
      "inputs": [
        {
          "indexed": true,
          "internalType": "address",
          "name": "previousOwner",
          "type": "address"
        },
        {
          "indexed": true,
          "internalType": "address",
          "name": "newOwner",
          "type": "address"
        }
      ],
      "name": "OwnershipTransferred",
      "type": "event"
    },
    {
      "anonymous": false,
      "inputs": [
        {
          "indexed": false,
          "internalType": "uint256",
          "name": "tokenId",
          "type": "uint256"
        }
      ],
      "name": "TokenFrozen",
      "type": "event"
    },
    {
      "anonymous": false,
      "inputs": [
        {
          "indexed": false,
          "internalType": "uint256",
          "name": "tokenId",
          "type": "uint256"
        }
      ],
      "name": "TokenUnfrozen",
      "type": "event"
    },
    {
      "anonymous": false,
      "inputs": [
        {
          "indexed": true,
          "internalType": "address",
          "name": "from",
          "type": "address"
        },
        {
          "indexed": true,
          "internalType": "address",
          "name": "to",
          "type": "address"
        },
        {
          "indexed": true,
          "internalType": "uint256",
          "name": "tokenId",
          "type": "uint256"
        }
      ],
      "name": "Transfer",
      "type": "event"
    },
    {
      "inputs": [
        {
          "internalType": "address",
          "name": "to",
          "type": "address"
        },
        {
          "internalType": "uint256",
          "name": "tokenId",
          "type": "uint256"
        }
      ],
      "name": "approve",
      "outputs": [],
      "stateMutability": "nonpayable",
      "type": "function"
    },
    {
      "inputs": [
        {
          "internalType": "address",
          "name": "owner",
          "type": "address"
        }
      ],
      "name": "balanceOf",
      "outputs": [
        {
          "internalType": "uint256",
          "name": "",
          "type": "uint256"
        }
      ],
      "stateMutability": "view",
      "type": "function"
    },
    {
      "inputs": [
        {
          "internalType": "uint256",
          "name": "tokenId",
          "type": "uint256"
        }
      ],
      "name": "freezeToken",
      "outputs": [],
      "stateMutability": "nonpayable",
      "type": "function"
    },
    {
      "inputs": [
        {
          "internalType": "uint256",
          "name": "tokenId",
          "type": "uint256"
        }
      ],
      "name": "getApproved",
      "outputs": [
        {
          "internalType": "address",
          "name": "",
          "type": "address"
        }
      ],
      "stateMutability": "view",
      "type": "function"
    },
    {
      "inputs": [],
      "name": "getInitialMintExecuteMemberCompleted",
      "outputs": [
        {
          "internalType": "bool",
          "name": "initialMintExecuteMemberCompleted",
          "type": "bool"
        }
      ],
      "stateMutability": "view",
      "type": "function"
    },
    {
      "inputs": [
        {
          "internalType": "address",
          "name": "owner",
          "type": "address"
        }
      ],
      "name": "getTokensOfOwner",
      "outputs": [
        {
          "internalType": "uint256[]",
          "name": "",
          "type": "uint256[]"
        }
      ],
      "stateMutability": "view",
      "type": "function"
    },
    {
      "inputs": [
        {
          "internalType": "uint256",
          "name": "tokenId",
          "type": "uint256"
        }
      ],
      "name": "getUpdatedToken",
      "outputs": [
        {
          "internalType": "uint256",
          "name": "",
          "type": "uint256"
        }
      ],
      "stateMutability": "view",
      "type": "function"
    },
    {
      "inputs": [
        {
          "internalType": "address[]",
          "name": "tos",
          "type": "address[]"
        }
      ],
      "name": "initialMint",
      "outputs": [],
      "stateMutability": "nonpayable",
      "type": "function"
    },
    {
      "inputs": [
        {
          "internalType": "address",
          "name": "dictionary",
          "type": "address"
        },
        {
          "internalType": "address",
          "name": "implementation",
          "type": "address"
        },
        {
          "internalType": "address",
          "name": "sc",
          "type": "address"
        },
        {
          "internalType": "bytes",
          "name": "params",
          "type": "bytes"
        }
      ],
      "name": "initialize",
      "outputs": [
        {
          "internalType": "bytes4[]",
          "name": "selectors",
          "type": "bytes4[]"
        }
      ],
      "stateMutability": "nonpayable",
      "type": "function"
    },
    {
      "inputs": [
        {
          "internalType": "address",
          "name": "owner_",
          "type": "address"
        }
      ],
      "name": "initialize",
      "outputs": [],
      "stateMutability": "nonpayable",
      "type": "function"
    },
    {
      "inputs": [
        {
          "internalType": "address",
          "name": "owner",
          "type": "address"
        },
        {
          "internalType": "address",
          "name": "operator",
          "type": "address"
        }
      ],
      "name": "isApprovedForAll",
      "outputs": [
        {
          "internalType": "bool",
          "name": "",
          "type": "bool"
        }
      ],
      "stateMutability": "view",
      "type": "function"
    },
    {
      "inputs": [
        {
          "internalType": "address",
          "name": "to",
          "type": "address"
        }
      ],
      "name": "mint",
      "outputs": [],
      "stateMutability": "nonpayable",
      "type": "function"
    },
    {
      "inputs": [],
      "name": "name",
      "outputs": [
        {
          "internalType": "string",
          "name": "",
          "type": "string"
        }
      ],
      "stateMutability": "view",
      "type": "function"
    },
    {
      "inputs": [],
      "name": "owner",
      "outputs": [
        {
          "internalType": "address",
          "name": "",
          "type": "address"
        }
      ],
      "stateMutability": "view",
      "type": "function"
    },
    {
      "inputs": [
        {
          "internalType": "uint256",
          "name": "tokenId",
          "type": "uint256"
        }
      ],
      "name": "ownerOf",
      "outputs": [
        {
          "internalType": "address",
          "name": "",
          "type": "address"
        }
      ],
      "stateMutability": "view",
      "type": "function"
    },
    {
      "inputs": [],
      "name": "renounceOwnership",
      "outputs": [],
      "stateMutability": "nonpayable",
      "type": "function"
    },
    {
      "inputs": [
        {
          "internalType": "address",
          "name": "from",
          "type": "address"
        },
        {
          "internalType": "address",
          "name": "to",
          "type": "address"
        },
        {
          "internalType": "uint256",
          "name": "tokenId",
          "type": "uint256"
        }
      ],
      "name": "safeTransferFrom",
      "outputs": [],
      "stateMutability": "nonpayable",
      "type": "function"
    },
    {
      "inputs": [
        {
          "internalType": "address",
          "name": "from",
          "type": "address"
        },
        {
          "internalType": "address",
          "name": "to",
          "type": "address"
        },
        {
          "internalType": "uint256",
          "name": "tokenId",
          "type": "uint256"
        },
        {
          "internalType": "bytes",
          "name": "data",
          "type": "bytes"
        }
      ],
      "name": "safeTransferFrom",
      "outputs": [],
      "stateMutability": "nonpayable",
      "type": "function"
    },
    {
      "inputs": [
        {
          "internalType": "address",
          "name": "operator",
          "type": "address"
        },
        {
          "internalType": "bool",
          "name": "approved",
          "type": "bool"
        }
      ],
      "name": "setApprovalForAll",
      "outputs": [],
      "stateMutability": "nonpayable",
      "type": "function"
    },
    {
      "inputs": [
        {
          "internalType": "bytes4",
          "name": "interfaceId",
          "type": "bytes4"
        }
      ],
      "name": "supportsInterface",
      "outputs": [
        {
          "internalType": "bool",
          "name": "",
          "type": "bool"
        }
      ],
      "stateMutability": "pure",
      "type": "function"
    },
    {
      "inputs": [],
      "name": "symbol",
      "outputs": [
        {
          "internalType": "string",
          "name": "",
          "type": "string"
        }
      ],
      "stateMutability": "view",
      "type": "function"
    },
    {
      "inputs": [
        {
          "internalType": "uint256",
          "name": "index",
          "type": "uint256"
        }
      ],
      "name": "tokenByIndex",
      "outputs": [
        {
          "internalType": "uint256",
          "name": "",
          "type": "uint256"
        }
      ],
      "stateMutability": "view",
      "type": "function"
    },
    {
      "inputs": [
        {
          "internalType": "address",
          "name": "owner",
          "type": "address"
        },
        {
          "internalType": "uint256",
          "name": "index",
          "type": "uint256"
        }
      ],
      "name": "tokenOfOwnerByIndex",
      "outputs": [
        {
          "internalType": "uint256",
          "name": "",
          "type": "uint256"
        }
      ],
      "stateMutability": "view",
      "type": "function"
    },
    {
      "inputs": [
        {
          "internalType": "uint256",
          "name": "tokenId",
          "type": "uint256"
        }
      ],
      "name": "tokenURI",
      "outputs": [
        {
          "internalType": "string",
          "name": "",
          "type": "string"
        }
      ],
      "stateMutability": "view",
      "type": "function"
    },
    {
      "inputs": [],
      "name": "totalSupply",
      "outputs": [
        {
          "internalType": "uint256",
          "name": "",
          "type": "uint256"
        }
      ],
      "stateMutability": "view",
      "type": "function"
    },
    {
      "inputs": [
        {
          "internalType": "address",
          "name": "from",
          "type": "address"
        },
        {
          "internalType": "address",
          "name": "to",
          "type": "address"
        },
        {
          "internalType": "uint256",
          "name": "tokenId",
          "type": "uint256"
        }
      ],
      "name": "transferFrom",
      "outputs": [],
      "stateMutability": "nonpayable",
      "type": "function"
    },
    {
      "inputs": [
        {
          "internalType": "address",
          "name": "newOwner",
          "type": "address"
        }
      ],
      "name": "transferOwnership",
      "outputs": [],
      "stateMutability": "nonpayable",
      "type": "function"
    },
    {
      "inputs": [
        {
          "internalType": "uint256",
          "name": "tokenId",
          "type": "uint256"
        }
      ],
      "name": "unfreezeToken",
      "outputs": [],
      "stateMutability": "nonpayable",
      "type": "function"
    }
  ],
  "bytecode": "0x60808060405234601557612658908161001b8239f35b600080fdfe608080604052600436101561001357600080fd5b600090813560e01c90816301ffc9a7146117485750806306fdde0314611724578063081812fc146116fb578063095ea7b31461162357806318160ddd146115fc57806323b872dd146115e4578063246581f714610b235780632f745c5914610afb57806342842e0e14610ad15780634d787ea914610a745780634f6ccce714610a105780635de6dc55146109515780636352211e146109205780636a627842146107ba57806370a082311461078e578063715018a6146107255780638da5cb5b146106f857806395d89b41146106d157806397294fea1461069e578063a22cb465146105eb578063b6854f961461058b578063b88d4fde14610524578063c3b0ce3b14610342578063c4d66de8146102dd578063c87b56dd14610244578063e12a8b7c14610222578063e985e9c5146101eb5763f2fde38b1461015557600080fd5b346101e85760203660031901126101e85761016e61180c565b61017661242a565b6001600160a01b031680156101d6576001600160a01b0361019561200e565b541661019f61200e565b80546001600160a01b031916831790557f8be0079c531659141344cd1fd0a4f28419497f9722a3daafe3b4186f6b6457e08380a380f35b631e4fbdf760e01b8252600452602490fd5b80fd5b50346101e85760403660031901126101e857602061021861020a61180c565b610212611822565b90612459565b6040519015158152f35b50346101e857806003193601126101e85760ff60209154166040519015158152f35b50346101e85760203660031901126101e85760ff61026061200e565b5460a01c161590506102ca576102c661029e6102b2600361027f61200e565b016102a4600461028d61200e565b016040519485936020850190611eae565b90611eae565b03601f1981018352826118b0565b6040519182916020835260208301906117cd565b0390f35b6102c66102d86004356125af565b6102b2565b50346101e85760203660031901126101e8576102f761180c565b6001600160a01b0381161561032e5761030e61200e565b80546001600160a01b0319166001600160a01b0390921691909117905580f35b631e4fbdf760e01b82526004829052602482fd5b50346101e85760203660031901126101e8576004356001600160401b0381116105205736602382011215610520578060040135906001600160401b03821161051c573660248360051b8301011161051c57604460206001600160a01b036103a761200e565b541660405192838092632474521560e21b82527f7ed687a8f2955bd2ba7ca08227e1e364d132be747f42fb733165f923021b022560048301523360248301525afa9081156105115784916104e2575b50156104cf57825b8281101561043857600581901b820160240135906001600160a01b03821682036104345761042d600192612047565b50016103fe565b8480fd5b5090600160ff19845416178355604051908060208301602084525260246040830193019084905b80821061049457505050807f1a011b8e3ac2481c2b87e374ace0f8bb1128f6a80697d6b4fd0817d950d4837b9130930390a280f35b91939091908435906001600160a01b03821682036104ca576001600160a01b03909116815260209081019401916001019061045f565b600080fd5b639c2f8ac360e01b835233600452602483fd5b610504915060203d60201161050a575b6104fc81836118b0565b810190611d4f565b386103f6565b503d6104f2565b6040513d86823e3d90fd5b8280fd5b5080fd5b50346101e85760803660031901126101e85761053e61180c565b610546611822565b606435916001600160401b03831161058757366023840112156105875761057a610584933690602481600401359101611902565b9160443591611d67565b80f35b8380fd5b50346101e85760203660031901126101e8577f74308730007d8ee5b3c18fad784efa3555f62695e36960f803f475eeb663d10e602060043560056105cd61200e565b8286520182526040808520805460ff1916600117905551908152a180f35b50346101e85760403660031901126101e85761060561180c565b6024359081151580920361051c576001600160a01b031690811561068a57600561062d611f1c565b0160018060a01b033316600052602052604060002082600052602052604060002060ff1981541660ff83161790556040519081527f17307eab39ab6107e8899845ad3d59bd9653f200f220920489ca2b5937696c3160203392a380f35b630b61174360e31b83526004829052602483fd5b50346101e85760203660031901126101e857604060209160066106bf61200e565b01600435825283522054604051908152f35b50346101e857806003193601126101e8576102c66102b260016106f2611f1c565b01611973565b50346101e857806003193601126101e85760206001600160a01b0361071b61200e565b5416604051908152f35b50346101e857806003193601126101e85761073e61242a565b806001600160a01b0361074f61200e565b541661075961200e565b80546001600160a01b03191690557f8be0079c531659141344cd1fd0a4f28419497f9722a3daafe3b4186f6b6457e08280a380f35b50346101e85760203660031901126101e85760206107b26107ad61180c565b6123e2565b604051908152f35b50346101e85760203660031901126101e8576107d461180c565b600460206001600160a01b036107e861200e565b541660405192838092631ba82e6360e31b82525afa9081156108d25783916108dd575b50604051632474521560e21b81527f9f2df0fed2c77648de5860a4cc508cd0818c85b8b8a1ab4ceeef8d981c8956a6600482015233602482015290602090829060449082906001600160a01b03165afa9081156108d25783916108b3575b501561087c5761087890612047565b5080f35b63e2517d3f60e01b8252336004527f9f2df0fed2c77648de5860a4cc508cd0818c85b8b8a1ab4ceeef8d981c8956a6602452604482fd5b6108cc915060203d60201161050a576104fc81836118b0565b38610869565b6040513d85823e3d90fd5b90506020813d602011610918575b816108f8602093836118b0565b8101031261051c57516001600160a01b038116810361051c57602061080b565b3d91506108eb565b50346101e85760203660031901126101e857602061093f600435611f60565b6040516001600160a01b039091168152f35b50346101e85760203660031901126101e85761096b61180c565b610974816123e2565b61097d81611fb5565b9061098b60405192836118b0565b80825261099781611fb5565b602083019390601f1901368537845b8281106109f25750505090604051928392602084019060208552518091526040840192915b8181106109d9575050500390f35b82518452859450602093840193909201916001016109cb565b806109ff60019284612554565b610a098287611fcc565b52016109a6565b50346101e85760203660031901126101e857600435906002610a306124c4565b0154821015610a5e576020610a4f836002610a496124c4565b01611ff6565b90549060031b1c604051908152f35b60449163295f44f760e21b825281600452602452fd5b50346101e85760203660031901126101e8577fdad54db74d8c1152c7cb496a900d181b8e9b69b70e55db2362bd100897a4f7a160206004356005610ab661200e565b8286520182526040808520805460ff1916905551908152a180f35b50346101e857610584610ae336611838565b9060405192610af36020856118b0565b858452611d67565b50346101e85760403660031901126101e85760206107b2610b1a61180c565b60243590612554565b50346101e85760803660031901126101e857610b3d61180c565b610b45611822565b6044356001600160a01b0381168103610587576064356001600160401b03811161043457366023820112156104345780600401356001600160401b0381116115e0578082019060248201913683116115d85760c090849003126115dc576024830135916001600160401b0383116115d857610bc5816024858701016124fd565b9460448501356001600160401b0381116115d457826024610be8928801016124fd565b60648601356001600160401b0381116115d057836024610c0a928901016124fd565b926084870135906001600160401b0382116115cc576024610c2d928901016124fd565b9360a4870135958615158097036115cc578851151590816115c1575b816115b6575b816115ab575b809260208110611594575b5050156115825750610c70611f1c565b96610c7961200e565b9781516001600160401b03811161156e57610c948254611939565b8d601f8211611525575b90505060208d601f83116001146114be5790600194836114b3575b5050600019600383901b1c191690831b1781555b01908051906001600160401b03821161149f578190610cec8454611939565b601f811161144c575b506020908d601f84116001146113e957926113de575b50508160011b916000199060031b1c19161790555b85546001600160a01b0319166001600160a01b0391909116178555805160038601916001600160401b0382116113ca578190610d5c8454611939565b601f811161137a575b50602090601f8311600114611317578b9261130c575b50508160011b916000199060031b1c19161790555b805160048501916001600160401b0382116112f857610daf8354611939565b601f81116112b3575b50602090601f8311600114611249579180600296949260c496948c9261123e575b50508160011b916000199060031b1c19161790555b845460ff60a01b191660a09190911b60ff60a01b16178455013591015560ff610e1561251b565b541661123057604051926102e0610e2c81866118b0565b601685526020850190601f190136823784511561121c57634b94a7f560e11b90528351600110156112085763c87b56dd60e01b6040850152835160021015611208576318160ddd60e01b6060850152835160031015611208576301ffc9a760e01b6080850152835160041015611208576370a0823160e01b60a0850152835160051015611208576331a9108f60e11b60c08501528351600610156112085763095ea7b360e01b60e08501528351600710156112085763020604bf60e21b6101008501528351600810156112085763a22cb46560e01b6101208501528351600910156112085763e985e9c560e01b6101408501528351600a1015611208576323b872dd60e01b6101608501528351600b101561120857632142170760e11b6101808501528351600c101561120857635c46a7ef60e11b6101a08501528351600d1015611208576306fdde0360e01b6101c08501528351600e1015611208576395d89b4160e01b6101e08501528351600f101561120857634f6ccce760e01b61020085015283516010101561120857632f745c5960e01b61022085015283516011101561120857635de6dc5560e01b610240850152835160121015611208576335313c2160e11b61026085015283516013101561120857635b42a7cb60e11b61028085015283516014101561120857634d787ea960e01b6102a085015283516015101561120857634b94a7f560e11b6102c0850152337f171a7dc80b6dc11005bc264b86aca451619865e5e8dad90855002dd8814b33628280a260ff61106e61251b565b54166111fa57835191600283018093116111e65761108b83611fb5565b9261109960405194856118b0565b8084526110a8601f1991611fb5565b01366020850137815b85518110156110e3576001906001600160e01b03196110d08289611fcc565b51166110dc8287611fcc565b52016110b1565b5091909263c3b0ce3b60e01b6110fa865184611fcc565b528451600181018091116111d25763384aa2df60e21b9061111b9084611fcc565b526001600160a01b031690813b1561058757839161115891836040518096819582946323c45f6760e01b8452604060048501526044840190611872565b6001600160a01b03909116602483015203925af180156111c75782906111b7575b50506102c66040519283927f4d551d3011ebaf67f0b8c2bbe6537867817f628b28ad415422702ada789affc7339180a2602083526020830190611872565b6111c0916118b0565b3881611179565b6040513d84823e3d90fd5b634e487b7160e01b85526011600452602485fd5b634e487b7160e01b82526011600452602482fd5b62dc149f60e41b8152600490fd5b634e487b7160e01b81526032600452602490fd5b634e487b7160e01b82526032600452602482fd5b62dc149f60e41b8352600483fd5b015190503880610dd9565b838a52818a209190601f1984168b5b81811061129b575092600192859260c4989660029a989610611282575b505050811b019055610dee565b015160001960f88460031b161c19169055388080611275565b92936020600181928786015181550195019301611258565b838a5260208a20601f840160051c810191602085106112ee575b601f0160051c01905b8181106112e35750610db8565b8a81556001016112d6565b90915081906112cd565b634e487b7160e01b89526041600452602489fd5b015190503880610d7b565b848c52818c209250601f1984168c5b8181106113625750908460019594939210611349575b505050811b019055610d90565b015160001960f88460031b161c1916905538808061133c565b92936020600181928786015181550195019301611326565b909150838b5260208b20601f840160051c810191602085106113c0575b90601f859493920160051c01905b8181106113b25750610d65565b8c81558493506001016113a5565b9091508190611397565b634e487b7160e01b8a52604160045260248afd5b015190503880610d0b565b8581528281209350601f198516905b818110611434575090846001959493921061141b575b505050811b019055610d20565b015160001960f88460031b161c1916905538808061140e565b929360206001819287860151815501950193016113f8565b909150838d5260208d20601f840160051c81019160208510611495575b849392918f91601f0160051c0191905b828210611487575050610cf5565b81558493506001018e611479565b9091508190611469565b634e487b7160e01b8c52604160045260248cfd5b015190503880610cb9565b919293601f198416858452828420935b81811061150d57509160019594929183879593106114f4575b505050811b018155610ccd565b015160001960f88460031b161c191690553880806114e7565b929360206001819287860151815501950193016114ce565b80846020925220601f830160051c81019160208410611564575b601f0160051c01908e905b8281106115575750610c9e565b6001918155018e9061154a565b909150819061153f565b634e487b7160e01b8d52604160045260248dfd5b6308d49be960e31b8b5260045260248afd5b60001960209190910360031b1b1691503880610c60565b865115159150610c55565b855115159150610c4f565b835115159150610c49565b8b80fd5b8a80fd5b8980fd5b8780fd5b8680fd5b8580fd5b50346101e8576105846115f636611838565b91611a17565b50346101e857806003193601126101e857602060026116196124c4565b0154604051908152f35b50346101e85760403660031901126101e85761163d61180c565b60243561164981611f60565b331515806116e8575b806116d7575b6116c45781906001600160a01b0384811691167f8c5be1e5ebec7d5bd14f71427d1e84f3dd0314c0f7b2291e5b200ac8c7c3b9258680a46004611699611f1c565b918452016020526040822080546001600160a01b0319166001600160a01b0390921691909117905580f35b63a9fbf51f60e01b845233600452602484fd5b506116e23382612459565b15611658565b506001600160a01b038116331415611652565b50346101e85760203660031901126101e857602061093f60043561171e81611f60565b50611f91565b50346101e857806003193601126101e8576102c66102b2611743611f1c565b611973565b9050346105205760203660031901126105205760043563ffffffff60e01b811680910361051c5760209250635de6dc5560e01b81149081156117bc575b81156117ab575b811561179a575b5015158152f35b632483248360e11b14905038611793565b63780e9d6360e01b8114915061178c565b635b5e139f60e01b81149150611785565b919082518082526020808301940160005b8281106117fc575050600081602094950152601f8019910116010190565b81810151868201526020016117de565b600435906001600160a01b03821682036104ca57565b602435906001600160a01b03821682036104ca57565b60609060031901126104ca576004356001600160a01b03811681036104ca57906024356001600160a01b03811681036104ca579060443590565b906020808351928381520192019060005b8181106118905750505090565b82516001600160e01b031916845260209384019390920191600101611883565b90601f801991011681019081106001600160401b038211176118d157604052565b634e487b7160e01b600052604160045260246000fd5b6001600160401b0381116118d157601f01601f191660200190565b92919261190e826118e7565b9161191c60405193846118b0565b8294818452818301116104ca578281602093846000960137010152565b90600182811c92168015611969575b602083101461195357565b634e487b7160e01b600052602260045260246000fd5b91607f1691611948565b906040519182600082549261198784611939565b80845293600181169081156119f557506001146119ae575b506119ac925003836118b0565b565b90506000929192526020600020906000915b8183106119d95750509060206119ac928201013861199f565b60209193508060019154838589010152019101909184926119c0565b9050602092506119ac94915060ff191682840152151560051b8201013861199f565b9091906001600160a01b0383168015611d39576006611a3461200e565b018360005260205242604060002055600090611a4f84612493565b9133151580611cad575b506001600160a01b0383169586158015611c82575b6003611a78611f1c565b0184845260205260408320600181540190556002611a94611f1c565b888552016020526040832080546001600160a01b031916851790558684897fddf252ad1be2c89b69c2b068fc378daa952ba7f163c4a11628f55a4df523b3ef8680a415611be3576002611ae56124c4565b01546003611af16124c4565b0187845260205260408320556002611b076124c4565b01805490600160401b821015611bcf57611b2b8289926001611b4495018155611ff6565b90919082549060031b91821b91600019901b1916179055565b828703611b7e575b5050505060018060a01b0316808303611b6457505050565b6364283d7b60e01b60005260045260245260445260646000fd5b611b87906123e2565b6000198101929083116111e65790604091611ba06124c4565b90825260205281812083825260205285828220556001611bbe6124c4565b018682526020522055388080611b4c565b634e487b7160e01b84526041600452602484fd5b868314611b4457611bf3846123e2565b6001611bfd6124c4565b01878452602052604083205490611c126124c4565b8985526020526040842091818103611c4d575b506001611c306124c4565b018885526020528360408120558352602052816040812055611b44565b818552826020526040852054818652836020528060408720556001611c706124c4565b01908652602052604085205538611c25565b611c8b8761249d565b6003611c95611f1c565b89855201602052604083208054600019019055611a6e565b80611cf6575b15611cbe5738611a59565b9250506001600160a01b0316611ce057602491637e27328960e01b8252600452fd5b60449163177e802f60e01b825233600452602452fd5b506001600160a01b03831633148015611d29575b80611cb35750336001600160a01b03611d2287611f91565b1614611cb3565b50611d343384612459565b611d0a565b633250574960e11b600052600060045260246000fd5b908160209103126104ca575180151581036104ca5790565b9291611d74818386611a17565b813b611d81575b50505050565b604051630a85bd0160e11b81523360048201526001600160a01b0394851660248201526044810191909152608060648201529216919060209082908190611dcc9060848301906117cd565b03816000865af18091600091611e6b575b5090611e3657503d15611e2f573d611df4816118e7565b90611e0260405192836118b0565b81523d6000602083013e5b80519081611e2a5782633250574960e11b60005260045260246000fd5b602001fd5b6060611e0d565b6001600160e01b03191663757a42ff60e11b01611e57575038808080611d7b565b633250574960e11b60005260045260246000fd5b6020813d602011611ea6575b81611e84602093836118b0565b810103126105205751906001600160e01b0319821682036101e8575038611ddd565b3d9150611e77565b60009291815491611ebe83611939565b9260018116908115611f095750600114611ed757505050565b909192935060005260206000206000905b838210611ef55750500190565b600181602092548486015201910190611ee8565b60ff191683525050811515909102019150565b604051602081017fb7b8777dfce3c027b9b4ab96baa886d0c5d5e8c8632429d2b4be0ba869cd905f815260208252611f556040836118b0565b9051902060ff191690565b611f6981612493565b906001600160a01b03821615611f7d575090565b637e27328960e01b60005260045260246000fd5b6004611f9b611f1c565b60009283520160205260409020546001600160a01b031690565b6001600160401b0381116118d15760051b60200190565b8051821015611fe05760209160051b010190565b634e487b7160e01b600052603260045260246000fd5b8054821015611fe05760005260206000200190600090565b604051602081017f0cee7785c9739c2abcb4ce591dada6e864d6d906251746912d12a62bb828bf68815260208252611f556040836118b0565b90600161205261200e565b0191825460001981146123cc57600101809355826020906040519061207783836118b0565b600082526001600160a01b038416938415611d3957600061209783612493565b6001600160a01b038116801580159391908990856123a2575b60036120ba611f1c565b018285528a52604084206001815401905560026120d5611f1c565b898652018a526040842080546001600160a01b031916831790558782847fddf252ad1be2c89b69c2b068fc378daa952ba7f163c4a11628f55a4df523b3ef8780a415612309575060026121266124c4565b015460036121326124c4565b018784528952604083205560026121476124c4565b01805490600160401b821015611bcf5787611b2b8361216d9360018f9796018155611ff6565b036122aa575b5050612294573b6121845750505050565b916121c4918195936040979597519384928392630a85bd0160e11b84523360048501526000602485015260448401526080606484015260848301906117cd565b03816000895af18091600091612256575b509061222f575050503d600014612228573d6121f0816118e7565b906121fe60405192836118b0565b81523d60008383013e5b805191826122255783633250574960e11b60005260045260246000fd5b01fd5b6060612208565b9193909250906001600160e01b03191663757a42ff60e11b01611e57575038808080611d7b565b8581813d831161228d575b61226b81836118b0565b810103126105205751906001600160e01b0319821682036101e85750386121d5565b503d612261565b6339e3563760e11b600052600060045260246000fd5b6122b3846123e2565b6000198101919082116122f5576040906122cb6124c4565b8a825289528181208382528952868282205560016122e76124c4565b018782528952205538612173565b634e487b7160e01b81526011600452602490fd5b9080821461216d5761231a846123e2565b60016123246124c4565b018885528a526040842054906123386124c4565b8386528b526040852091818103612370575b5060016123556124c4565b018986528b528460408120558452895282604081205561216d565b818652828c526040862054818752838d5280604088205560016123916124c4565b019087528c5260408620553861234a565b6123ab8861249d565b60036123b5611f1c565b848652018a526040842080546000190190556120b0565b634e487b7160e01b600052601160045260246000fd5b6001600160a01b038116156124145760036123fb611f1c565b019060018060a01b031660005260205260406000205490565b6322718ad960e21b600052600060045260246000fd5b6001600160a01b0361243a61200e565b5416330361244457565b63118cdaa760e01b6000523360045260246000fd5b6005612463611f1c565b019060018060a01b031660005260205260406000209060018060a01b031660005260205260ff6040600020541690565b6002611f9b611f1c565b60046124a7611f1c565b6000928352016020526040902080546001600160a01b0319169055565b604051602081017f2070bae6b675801f0932481e70ab724699e22000dcf2efe36a44b6070d9ee8f1815260208252611f556040836118b0565b9080601f830112156104ca5781602061251893359101611902565b90565b604051602081017ff158cb8b47a14bda3b2c4affcc0d960e9ed23f5a516e4779510b08a6e823c025815260208252611f556040836118b0565b61255d816123e2565b8210156125905761256c6124c4565b9060018060a01b031660005260205260406000209060005260205260406000205490565b63295f44f760e21b60005260018060a01b031660045260245260446000fd5b6125b881611f60565b50604051602081017f83126a7e0b3d5a7bd433798795b790de3287f4b1cb3d1042e8a9e2a4e5391b408152602082526125f26040836118b0565b60ff1991519020169060005260205261260e6040600020611973565b600060405161261e6020826118b0565b529056fea26469706673582212205e5469bdee36c704a416b7f2d7ac6e3544baf0f502bb0dcbf748d6aa02b25f8864736f6c634300081c0033",
  "linkReferences": {},
  "deployedLinkReferences": {}
}