{
  "_format": "hh-sol-artifact-1",
  "contractName": "LETS_JP_LLC_NON_EXE",
  "sourceName": "contracts/sc/Services/LETS/functions/extensions/LETS_JP_LLC/LETS_JP_LLC_NON_EXE.sol",
  "abi": [
    {
      "inputs": [
        {
          "internalType": "address",
          "name": "account",
          "type": "address"
        },
        {
          "internalType": "bytes32",
          "name": "neededRole",
          "type": "bytes32"
        }
      ],
      "name": "AccessControlUnauthorizedAccount",
      "type": "error"
    },
    {
      "inputs": [],
      "name": "AlreadyInitialized",
      "type": "error"
    },
    {
      "inputs": [
        {
          "internalType": "address",
          "name": "sender",
          "type": "address"
        },
        {
          "internalType": "uint256",
          "name": "tokenId",
          "type": "uint256"
        },
        {
          "internalType": "address",
          "name": "owner",
          "type": "address"
        }
      ],
      "name": "ERC721IncorrectOwner",
      "type": "error"
    },
    {
      "inputs": [
        {
          "internalType": "address",
          "name": "operator",
          "type": "address"
        },
        {
          "internalType": "uint256",
          "name": "tokenId",
          "type": "uint256"
        }
      ],
      "name": "ERC721InsufficientApproval",
      "type": "error"
    },
    {
      "inputs": [
        {
          "internalType": "address",
          "name": "approver",
          "type": "address"
        }
      ],
      "name": "ERC721InvalidApprover",
      "type": "error"
    },
    {
      "inputs": [
        {
          "internalType": "address",
          "name": "operator",
          "type": "address"
        }
      ],
      "name": "ERC721InvalidOperator",
      "type": "error"
    },
    {
      "inputs": [
        {
          "internalType": "address",
          "name": "owner",
          "type": "address"
        }
      ],
      "name": "ERC721InvalidOwner",
      "type": "error"
    },
    {
      "inputs": [
        {
          "internalType": "address",
          "name": "receiver",
          "type": "address"
        }
      ],
      "name": "ERC721InvalidReceiver",
      "type": "error"
    },
    {
      "inputs": [
        {
          "internalType": "address",
          "name": "sender",
          "type": "address"
        }
      ],
      "name": "ERC721InvalidSender",
      "type": "error"
    },
    {
      "inputs": [
        {
          "internalType": "uint256",
          "name": "tokenId",
          "type": "uint256"
        }
      ],
      "name": "ERC721NonexistentToken",
      "type": "error"
    },
    {
      "inputs": [
        {
          "internalType": "address",
          "name": "owner",
          "type": "address"
        },
        {
          "internalType": "uint256",
          "name": "index",
          "type": "uint256"
        }
      ],
      "name": "ERC721OutOfBoundsIndex",
      "type": "error"
    },
    {
      "inputs": [
        {
          "internalType": "bytes32",
          "name": "param",
          "type": "bytes32"
        }
      ],
      "name": "InvalidParam",
      "type": "error"
    },
    {
      "inputs": [],
      "name": "MaxSupplyReached",
      "type": "error"
    },
    {
      "inputs": [
        {
          "internalType": "address",
          "name": "caller",
          "type": "address"
        }
      ],
      "name": "NotGovernance",
      "type": "error"
    },
    {
      "inputs": [
        {
          "internalType": "address",
          "name": "caller",
          "type": "address"
        }
      ],
      "name": "NotLetsSale",
      "type": "error"
    },
    {
      "inputs": [],
      "name": "NotTransferable",
      "type": "error"
    },
    {
      "inputs": [
        {
          "internalType": "address",
          "name": "owner",
          "type": "address"
        }
      ],
      "name": "OwnableInvalidOwner",
      "type": "error"
    },
    {
      "inputs": [
        {
          "internalType": "address",
          "name": "account",
          "type": "address"
        }
      ],
      "name": "OwnableUnauthorizedAccount",
      "type": "error"
    },
    {
      "anonymous": false,
      "inputs": [
        {
          "indexed": true,
          "internalType": "address",
          "name": "owner",
          "type": "address"
        },
        {
          "indexed": true,
          "internalType": "address",
          "name": "approved",
          "type": "address"
        },
        {
          "indexed": true,
          "internalType": "uint256",
          "name": "tokenId",
          "type": "uint256"
        }
      ],
      "name": "Approval",
      "type": "event"
    },
    {
      "anonymous": false,
      "inputs": [
        {
          "indexed": true,
          "internalType": "address",
          "name": "owner",
          "type": "address"
        },
        {
          "indexed": true,
          "internalType": "address",
          "name": "operator",
          "type": "address"
        },
        {
          "indexed": false,
          "internalType": "bool",
          "name": "approved",
          "type": "bool"
        }
      ],
      "name": "ApprovalForAll",
      "type": "event"
    },
    {
      "anonymous": false,
      "inputs": [
        {
          "indexed": false,
          "internalType": "uint256",
          "name": "_fromTokenId",
          "type": "uint256"
        },
        {
          "indexed": false,
          "internalType": "uint256",
          "name": "_toTokenId",
          "type": "uint256"
        }
      ],
      "name": "BatchMetadataUpdate",
      "type": "event"
    },
    {
      "anonymous": false,
      "inputs": [
        {
          "indexed": true,
          "internalType": "address",
          "name": "initializer",
          "type": "address"
        }
      ],
      "name": "LETSBaseInitialized",
      "type": "event"
    },
    {
      "anonymous": false,
      "inputs": [
        {
          "indexed": true,
          "internalType": "address",
          "name": "initializer",
          "type": "address"
        }
      ],
      "name": "LETS_JP_LLC_NON_EXEInitialized",
      "type": "event"
    },
    {
      "anonymous": false,
      "inputs": [
        {
          "indexed": false,
          "internalType": "uint256",
          "name": "_tokenId",
          "type": "uint256"
        }
      ],
      "name": "MetadataUpdate",
      "type": "event"
    },
    {
      "anonymous": false,
      "inputs": [
        {
          "indexed": true,
          "internalType": "address",
          "name": "previousOwner",
          "type": "address"
        },
        {
          "indexed": true,
          "internalType": "address",
          "name": "newOwner",
          "type": "address"
        }
      ],
      "name": "OwnershipTransferred",
      "type": "event"
    },
    {
      "anonymous": false,
      "inputs": [
        {
          "indexed": false,
          "internalType": "uint256",
          "name": "tokenId",
          "type": "uint256"
        }
      ],
      "name": "TokenFrozen",
      "type": "event"
    },
    {
      "anonymous": false,
      "inputs": [
        {
          "indexed": false,
          "internalType": "uint256",
          "name": "tokenId",
          "type": "uint256"
        }
      ],
      "name": "TokenUnfrozen",
      "type": "event"
    },
    {
      "anonymous": false,
      "inputs": [
        {
          "indexed": true,
          "internalType": "address",
          "name": "from",
          "type": "address"
        },
        {
          "indexed": true,
          "internalType": "address",
          "name": "to",
          "type": "address"
        },
        {
          "indexed": true,
          "internalType": "uint256",
          "name": "tokenId",
          "type": "uint256"
        }
      ],
      "name": "Transfer",
      "type": "event"
    },
    {
      "inputs": [
        {
          "internalType": "address",
          "name": "to",
          "type": "address"
        },
        {
          "internalType": "uint256",
          "name": "tokenId",
          "type": "uint256"
        }
      ],
      "name": "approve",
      "outputs": [],
      "stateMutability": "nonpayable",
      "type": "function"
    },
    {
      "inputs": [
        {
          "internalType": "address",
          "name": "owner",
          "type": "address"
        }
      ],
      "name": "balanceOf",
      "outputs": [
        {
          "internalType": "uint256",
          "name": "",
          "type": "uint256"
        }
      ],
      "stateMutability": "view",
      "type": "function"
    },
    {
      "inputs": [
        {
          "internalType": "uint256",
          "name": "tokenId",
          "type": "uint256"
        }
      ],
      "name": "freezeToken",
      "outputs": [],
      "stateMutability": "nonpayable",
      "type": "function"
    },
    {
      "inputs": [
        {
          "internalType": "uint256",
          "name": "tokenId",
          "type": "uint256"
        }
      ],
      "name": "getApproved",
      "outputs": [
        {
          "internalType": "address",
          "name": "",
          "type": "address"
        }
      ],
      "stateMutability": "view",
      "type": "function"
    },
    {
      "inputs": [
        {
          "internalType": "address",
          "name": "owner",
          "type": "address"
        }
      ],
      "name": "getTokensOfOwner",
      "outputs": [
        {
          "internalType": "uint256[]",
          "name": "",
          "type": "uint256[]"
        }
      ],
      "stateMutability": "view",
      "type": "function"
    },
    {
      "inputs": [
        {
          "internalType": "uint256",
          "name": "tokenId",
          "type": "uint256"
        }
      ],
      "name": "getUpdatedToken",
      "outputs": [
        {
          "internalType": "uint256",
          "name": "",
          "type": "uint256"
        }
      ],
      "stateMutability": "view",
      "type": "function"
    },
    {
      "inputs": [
        {
          "internalType": "address",
          "name": "dictionary",
          "type": "address"
        },
        {
          "internalType": "address",
          "name": "implementation",
          "type": "address"
        },
        {
          "internalType": "address",
          "name": "sc",
          "type": "address"
        },
        {
          "internalType": "bytes",
          "name": "params",
          "type": "bytes"
        }
      ],
      "name": "initialize",
      "outputs": [
        {
          "internalType": "bytes4[]",
          "name": "selectors",
          "type": "bytes4[]"
        }
      ],
      "stateMutability": "nonpayable",
      "type": "function"
    },
    {
      "inputs": [
        {
          "internalType": "address",
          "name": "owner_",
          "type": "address"
        }
      ],
      "name": "initialize",
      "outputs": [],
      "stateMutability": "nonpayable",
      "type": "function"
    },
    {
      "inputs": [
        {
          "internalType": "address",
          "name": "owner",
          "type": "address"
        },
        {
          "internalType": "address",
          "name": "operator",
          "type": "address"
        }
      ],
      "name": "isApprovedForAll",
      "outputs": [
        {
          "internalType": "bool",
          "name": "",
          "type": "bool"
        }
      ],
      "stateMutability": "view",
      "type": "function"
    },
    {
      "inputs": [
        {
          "internalType": "address",
          "name": "to",
          "type": "address"
        }
      ],
      "name": "mint",
      "outputs": [],
      "stateMutability": "nonpayable",
      "type": "function"
    },
    {
      "inputs": [],
      "name": "name",
      "outputs": [
        {
          "internalType": "string",
          "name": "",
          "type": "string"
        }
      ],
      "stateMutability": "view",
      "type": "function"
    },
    {
      "inputs": [],
      "name": "owner",
      "outputs": [
        {
          "internalType": "address",
          "name": "",
          "type": "address"
        }
      ],
      "stateMutability": "view",
      "type": "function"
    },
    {
      "inputs": [
        {
          "internalType": "uint256",
          "name": "tokenId",
          "type": "uint256"
        }
      ],
      "name": "ownerOf",
      "outputs": [
        {
          "internalType": "address",
          "name": "",
          "type": "address"
        }
      ],
      "stateMutability": "view",
      "type": "function"
    },
    {
      "inputs": [],
      "name": "renounceOwnership",
      "outputs": [],
      "stateMutability": "nonpayable",
      "type": "function"
    },
    {
      "inputs": [
        {
          "internalType": "address",
          "name": "from",
          "type": "address"
        },
        {
          "internalType": "address",
          "name": "to",
          "type": "address"
        },
        {
          "internalType": "uint256",
          "name": "tokenId",
          "type": "uint256"
        }
      ],
      "name": "safeTransferFrom",
      "outputs": [],
      "stateMutability": "nonpayable",
      "type": "function"
    },
    {
      "inputs": [
        {
          "internalType": "address",
          "name": "from",
          "type": "address"
        },
        {
          "internalType": "address",
          "name": "to",
          "type": "address"
        },
        {
          "internalType": "uint256",
          "name": "tokenId",
          "type": "uint256"
        },
        {
          "internalType": "bytes",
          "name": "data",
          "type": "bytes"
        }
      ],
      "name": "safeTransferFrom",
      "outputs": [],
      "stateMutability": "nonpayable",
      "type": "function"
    },
    {
      "inputs": [
        {
          "internalType": "address",
          "name": "operator",
          "type": "address"
        },
        {
          "internalType": "bool",
          "name": "approved",
          "type": "bool"
        }
      ],
      "name": "setApprovalForAll",
      "outputs": [],
      "stateMutability": "nonpayable",
      "type": "function"
    },
    {
      "inputs": [
        {
          "internalType": "bytes4",
          "name": "interfaceId",
          "type": "bytes4"
        }
      ],
      "name": "supportsInterface",
      "outputs": [
        {
          "internalType": "bool",
          "name": "",
          "type": "bool"
        }
      ],
      "stateMutability": "pure",
      "type": "function"
    },
    {
      "inputs": [],
      "name": "symbol",
      "outputs": [
        {
          "internalType": "string",
          "name": "",
          "type": "string"
        }
      ],
      "stateMutability": "view",
      "type": "function"
    },
    {
      "inputs": [
        {
          "internalType": "uint256",
          "name": "index",
          "type": "uint256"
        }
      ],
      "name": "tokenByIndex",
      "outputs": [
        {
          "internalType": "uint256",
          "name": "",
          "type": "uint256"
        }
      ],
      "stateMutability": "view",
      "type": "function"
    },
    {
      "inputs": [
        {
          "internalType": "address",
          "name": "owner",
          "type": "address"
        },
        {
          "internalType": "uint256",
          "name": "index",
          "type": "uint256"
        }
      ],
      "name": "tokenOfOwnerByIndex",
      "outputs": [
        {
          "internalType": "uint256",
          "name": "",
          "type": "uint256"
        }
      ],
      "stateMutability": "view",
      "type": "function"
    },
    {
      "inputs": [
        {
          "internalType": "uint256",
          "name": "tokenId",
          "type": "uint256"
        }
      ],
      "name": "tokenURI",
      "outputs": [
        {
          "internalType": "string",
          "name": "",
          "type": "string"
        }
      ],
      "stateMutability": "view",
      "type": "function"
    },
    {
      "inputs": [],
      "name": "totalSupply",
      "outputs": [
        {
          "internalType": "uint256",
          "name": "",
          "type": "uint256"
        }
      ],
      "stateMutability": "view",
      "type": "function"
    },
    {
      "inputs": [
        {
          "internalType": "address",
          "name": "from",
          "type": "address"
        },
        {
          "internalType": "address",
          "name": "to",
          "type": "address"
        },
        {
          "internalType": "uint256",
          "name": "tokenId",
          "type": "uint256"
        }
      ],
      "name": "transferFrom",
      "outputs": [],
      "stateMutability": "nonpayable",
      "type": "function"
    },
    {
      "inputs": [
        {
          "internalType": "address",
          "name": "newOwner",
          "type": "address"
        }
      ],
      "name": "transferOwnership",
      "outputs": [],
      "stateMutability": "nonpayable",
      "type": "function"
    },
    {
      "inputs": [
        {
          "internalType": "uint256",
          "name": "tokenId",
          "type": "uint256"
        }
      ],
      "name": "unfreezeToken",
      "outputs": [],
      "stateMutability": "nonpayable",
      "type": "function"
    }
  ],
  "bytecode": "0x60808060405234601557612707908161001b8239f35b600080fdfe608080604052600436101561001357600080fd5b600090813560e01c90816301ffc9a714611b1e5750806306fdde0314611afa578063081812fc14611ad1578063095ea7b3146119f957806318160ddd146119d257806323b872dd146119ba578063246581f714610d055780632f745c5914610cdd57806342842e0e14610cb35780634d787ea914610c565780634f6ccce714610bf25780635de6dc5514610b335780636352211e14610b025780636a627842146105a457806370a0823114610578578063715018a61461050f5780638da5cb5b146104e257806395d89b41146104bb57806397294fea14610488578063a22cb465146103d1578063b6854f9614610371578063b88d4fde1461030a578063c4d66de8146102a5578063c87b56dd1461020c578063e985e9c5146101d55763f2fde38b1461013f57600080fd5b346101d25760203660031901126101d257610158611be2565b61016061244d565b6001600160a01b031680156101c0576001600160a01b0361017f6123cc565b54166101896123cc565b80546001600160a01b031916831790557f8be0079c531659141344cd1fd0a4f28419497f9722a3daafe3b4186f6b6457e08380a380f35b631e4fbdf760e01b8252600452602490fd5b80fd5b50346101d25760403660031901126101d25760206102026101f4611be2565b6101fc611bfd565b9061247c565b6040519015158152f35b50346101d25760203660031901126101d25760ff6102286123cc565b5460a01c161590506102925761028e61026661027a60036102476123cc565b0161026c60046102556123cc565b01604051948593602085019061226c565b9061226c565b03601f198101835282611c8b565b604051918291602083526020830190611ba3565b0390f35b61028e6102a060043561265e565b61027a565b50346101d25760203660031901126101d2576102bf611be2565b6001600160a01b038116156102f6576102d66123cc565b80546001600160a01b0319166001600160a01b0390921691909117905580f35b631e4fbdf760e01b82526004829052602482fd5b50346101d25760803660031901126101d257610324611be2565b61032c611bfd565b606435916001600160401b03831161036d573660238401121561036d5761036061036a933690602481600401359101611cdd565b9160443591612125565b80f35b8380fd5b50346101d25760203660031901126101d2577f74308730007d8ee5b3c18fad784efa3555f62695e36960f803f475eeb663d10e602060043560056103b36123cc565b8286520182526040808520805460ff1916600117905551908152a180f35b50346101d25760403660031901126101d2576103eb611be2565b60243590811515809203610484576001600160a01b03169081156104705760056104136122da565b0160018060a01b033316600052602052604060002082600052602052604060002060ff1981541660ff83161790556040519081527f17307eab39ab6107e8899845ad3d59bd9653f200f220920489ca2b5937696c3160203392a380f35b630b61174360e31b83526004829052602483fd5b8280fd5b50346101d25760203660031901126101d257604060209160066104a96123cc565b01600435825283522054604051908152f35b50346101d257806003193601126101d25761028e61027a60016104dc6122da565b01611d4e565b50346101d257806003193601126101d25760206001600160a01b036105056123cc565b5416604051908152f35b50346101d257806003193601126101d25761052861244d565b806001600160a01b036105396123cc565b54166105436123cc565b80546001600160a01b03191690557f8be0079c531659141344cd1fd0a4f28419497f9722a3daafe3b4186f6b6457e08280a380f35b50346101d25760203660031901126101d257602061059c610597611be2565b612405565b604051908152f35b50346101d25760203660031901126101d2576105be611be2565b90600460206001600160a01b036105d36123cc565b541660405192838092631ba82e6360e31b82525afa908115610ab4578291610abf575b50604051632474521560e21b81527f9f2df0fed2c77648de5860a4cc508cd0818c85b8b8a1ab4ceeef8d981c8956a6600482015233602482015290602090829060449082906001600160a01b03165afa908115610ab4578291610a75575b5015610a3e5760016106646123cc565b019182546000198114610a2a57600101809355602092604051906106888583611c8b565b8382526001600160a01b038316928315610a16576106a5826124b6565b6001600160a01b038116801580159291908790846109ea575b60036106c86122da565b01826000528b5260406000206001815401905560026106e56122da565b888c52018b5260408a2080546001600160a01b031916831790558682847fddf252ad1be2c89b69c2b068fc378daa952ba7f163c4a11628f55a4df523b3ef8d80a415610947575060026107366124e7565b015460036107426124e7565b01868a528a52604089205560026107576124e7565b01805490600160401b821015610933578661077d836107969360018d97960181556123b4565b90919082549060031b91821b91600019901b1916179055565b036108d2575b506108be573b6107aa578380f35b6107e49185916040519384928392630a85bd0160e11b84523360048501528860248501526044840152608060648401526084830190611ba3565b038186865af183918161087e575b5061084857503d15610841573d61080881611cc2565b906108166040519283611c8b565b81523d838583013e5b8051938461083b57633250574960e11b84526004839052602484fd5b84925001fd5b606061081f565b919250906001600160e01b03191663757a42ff60e11b0161086c5750803880808380f35b633250574960e11b8252600452602490fd5b9091508481813d83116108b7575b6108968183611c8b565b8101031261036d57516001600160e01b03198116810361036d5790386107f2565b503d61088c565b6339e3563760e11b85526004859052602485fd5b6108db83612405565b600019810190811161091f576108ef6124e7565b87600052895260406000208189528952846040892055600161090f6124e7565b018589528952604088205561079c565b634e487b7160e01b88526011600452602488fd5b634e487b7160e01b8a52604160045260248afd5b908082146107965761095883612405565b60016109626124e7565b01878b528b5260408a20549060408c6109796124e7565b600091868352522091828d8d8484036109b6575b50505050600161099b6124e7565b01888c528c528a60408120558a528a52886040812055610796565b8085604092528383528181205493849386835252205560016109d66124e7565b01908d528d5260408c205538828d8d61098d565b6109f3876124c0565b60036109fd6122da565b01836000528b52604060002060001981540190556106be565b633250574960e11b85526004859052602485fd5b634e487b7160e01b83526011600452602483fd5b63e2517d3f60e01b8152336004527f9f2df0fed2c77648de5860a4cc508cd0818c85b8b8a1ab4ceeef8d981c8956a6602452604490fd5b90506020813d602011610aac575b81610a9060209383611c8b565b81010312610aa857518015158103610aa85738610654565b5080fd5b3d9150610a83565b6040513d84823e3d90fd5b90506020813d602011610afa575b81610ada60209383611c8b565b81010312610aa857516001600160a01b0381168103610aa85760206105f6565b3d9150610acd565b50346101d25760203660031901126101d2576020610b2160043561231e565b6040516001600160a01b039091168152f35b50346101d25760203660031901126101d257610b4d611be2565b610b5681612405565b610b5f81612373565b90610b6d6040519283611c8b565b808252610b7981612373565b602083019390601f1901368537845b828110610bd45750505090604051928392602084019060208552518091526040840192915b818110610bbb575050500390f35b8251845285945060209384019390920191600101610bad565b80610be160019284612603565b610beb828761238a565b5201610b88565b50346101d25760203660031901126101d257600435906002610c126124e7565b0154821015610c40576020610c31836002610c2b6124e7565b016123b4565b90549060031b1c604051908152f35b60449163295f44f760e21b825281600452602452fd5b50346101d25760203660031901126101d2577fdad54db74d8c1152c7cb496a900d181b8e9b69b70e55db2362bd100897a4f7a160206004356005610c986123cc565b8286520182526040808520805460ff1916905551908152a180f35b50346101d25761036a610cc536611c13565b9060405192610cd5602085611c8b565b858452612125565b50346101d25760403660031901126101d257602061059c610cfc611be2565b60243590612603565b50346101d25760803660031901126101d257610d1f611be2565b610d27611bfd565b6044356001600160a01b038116810361036d576064356001600160401b0381116115e057366023820112156115e05780600401356001600160401b0381116119b6578082019060248201913683116119ae5760c090849003126119b2576024830135916001600160401b0383116119ae57610da781602485870101612520565b9460448501356001600160401b0381116119aa57826024610dca92880101612520565b60648601356001600160401b0381116119a657836024610dec92890101612520565b926084870135906001600160401b0382116119a2576024610e0f92890101612520565b9360a4870135958615158097036119a257885115159081611997575b8161198c575b81611981575b80926020811061196a575b5050156119585750610e526122da565b96610e5b6123cc565b9781516001600160401b03811161194457610e768254611d14565b8d601f82116118fb575b90505060208d601f8311600114611894579060019483611889575b5050600019600383901b1c191690831b1781555b01908051906001600160401b038211611875578190610ece8454611d14565b601f8111611822575b506020908d601f84116001146117bf57926117b4575b50508160011b916000199060031b1c19161790555b85546001600160a01b0319166001600160a01b0391909116178555805160038601916001600160401b038211610933578190610f3e8454611d14565b601f8111611764575b50602090601f8311600114611701578b926116f6575b50508160011b916000199060031b1c19161790555b805160048501916001600160401b0382116116e257610f918354611d14565b601f811161169d575b50602090601f8311600114611633579180600296949260c496948c92611628575b50508160011b916000199060031b1c19161790555b845460ff60a01b191660a09190911b60ff60a01b16178455013591015560ff610ff76125ca565b541661161a57604051926102e061100e8186611c8b565b601685526020850190601f190136823784511561160657634b94a7f560e11b90528351600110156115f25763c87b56dd60e01b60408501528351600210156115f2576318160ddd60e01b60608501528351600310156115f2576301ffc9a760e01b60808501528351600410156115f2576370a0823160e01b60a08501528351600510156115f2576331a9108f60e11b60c08501528351600610156115f25763095ea7b360e01b60e08501528351600710156115f25763020604bf60e21b6101008501528351600810156115f25763a22cb46560e01b6101208501528351600910156115f25763e985e9c560e01b6101408501528351600a10156115f2576323b872dd60e01b6101608501528351600b10156115f257632142170760e11b6101808501528351600c10156115f257635c46a7ef60e11b6101a08501528351600d10156115f2576306fdde0360e01b6101c08501528351600e10156115f2576395d89b4160e01b6101e08501528351600f10156115f257634f6ccce760e01b6102008501528351601010156115f257632f745c5960e01b6102208501528351601110156115f257635de6dc5560e01b6102408501528351601210156115f2576335313c2160e11b6102608501528351601310156115f257635b42a7cb60e11b6102808501528351601410156115f257634d787ea960e01b6102a08501528351601510156115f257634b94a7f560e11b6102c0850152337f171a7dc80b6dc11005bc264b86aca451619865e5e8dad90855002dd8814b33628280a26040818061026c6112a0845161125c8682611c8b565b601481527313115514d0985cd9481a5b9a5d1a585b1a5e995960621b6020820152855192839163104c13eb60e21b6020840152602060248401526044830190611ba3565b6020815191016a636f6e736f6c652e6c6f675afa50818061130d6113216001600160a01b036112cd6123cc565b54168551906112dc8783611c8b565b6002825261736360f01b6020830152865193849263319af33360e01b60208501528860248501526064840190611ba3565b90604483015203601f198101835282611c8b565b6020815191016a636f6e736f6c652e6c6f675afa5061137360036113436123cc565b0161136d8351916113548584611c8b565b60078352666261736555524960c81b6020840152611d4e565b9061253e565b6113ac60046113806123cc565b0161136d8351916113918584611c8b565b600983526832bc3a32b739b4b7b760b91b6020840152611d4e565b818061140e61142460ff6113be6123cc565b5460a01c168551906113d08783611c8b565b600f82526e1a5cd3595d1859185d18519a5e1959608a1b6020830152865193849263c3b5563560e01b60208501528860248501526064840190611ba3565b901515604483015203601f198101835282611c8b565b6020815191016a636f6e736f6c652e6c6f675afa5061146f60026114466123cc565b015482516114548482611c8b565b60098152686d6178537570706c7960b81b602082015261259a565b6114a7600161147c6123cc565b0154825161148a8482611c8b565b600b81526a1b995e1d151bdad95b925960aa1b602082015261259a565b60ff6114b16125ca565b54166115e45784519260028401809411610a2a576114ce84612373565b936114db83519586611c8b565b8085526114ea601f1991612373565b01366020860137825b8651811015611525576001906001600160e01b0319611512828a61238a565b511661151e828861238a565b52016114f3565b5085936001600160a01b03861690813b156115e0578491611563918386518096819582946323c45f6760e01b84528a60048501526044840190611c4d565b6001600160a01b03909116602483015203925af180156115d4576115be575b5061028e90519283927f6620a457773671eb18e81617c051212b22210907655af4934f9e4915ceb5e2dd339180a2602083526020830190611c4d565b916115cd8161028e9394611c8b565b9190611582565b505051903d90823e3d90fd5b8480fd5b62dc149f60e41b8252600482fd5b634e487b7160e01b81526032600452602490fd5b634e487b7160e01b82526032600452602482fd5b62dc149f60e41b8352600483fd5b015190503880610fbb565b838a52818a209190601f1984168b5b818110611685575092600192859260c4989660029a98961061166c575b505050811b019055610fd0565b015160001960f88460031b161c1916905538808061165f565b92936020600181928786015181550195019301611642565b838a5260208a20601f840160051c810191602085106116d8575b601f0160051c01905b8181106116cd5750610f9a565b8a81556001016116c0565b90915081906116b7565b634e487b7160e01b89526041600452602489fd5b015190503880610f5d565b848c52818c209250601f1984168c5b81811061174c5750908460019594939210611733575b505050811b019055610f72565b015160001960f88460031b161c19169055388080611726565b92936020600181928786015181550195019301611710565b909150838b5260208b20601f840160051c810191602085106117aa575b90601f859493920160051c01905b81811061179c5750610f47565b8c815584935060010161178f565b9091508190611781565b015190503880610eed565b8581528281209350601f198516905b81811061180a57509084600195949392106117f1575b505050811b019055610f02565b015160001960f88460031b161c191690553880806117e4565b929360206001819287860151815501950193016117ce565b909150838d5260208d20601f840160051c8101916020851061186b575b849392918f91601f0160051c0191905b82821061185d575050610ed7565b81558493506001018e61184f565b909150819061183f565b634e487b7160e01b8c52604160045260248cfd5b015190503880610e9b565b919293601f198416858452828420935b8181106118e357509160019594929183879593106118ca575b505050811b018155610eaf565b015160001960f88460031b161c191690553880806118bd565b929360206001819287860151815501950193016118a4565b80846020925220601f830160051c8101916020841061193a575b601f0160051c01908e905b82811061192d5750610e80565b6001918155018e90611920565b9091508190611915565b634e487b7160e01b8d52604160045260248dfd5b6308d49be960e31b8b5260045260248afd5b60001960209190910360031b1b1691503880610e42565b865115159150610e37565b855115159150610e31565b835115159150610e2b565b8b80fd5b8a80fd5b8980fd5b8780fd5b8680fd5b8580fd5b50346101d25761036a6119cc36611c13565b91611df2565b50346101d257806003193601126101d257602060026119ef6124e7565b0154604051908152f35b50346101d25760403660031901126101d257611a13611be2565b602435611a1f8161231e565b33151580611abe575b80611aad575b611a9a5781906001600160a01b0384811691167f8c5be1e5ebec7d5bd14f71427d1e84f3dd0314c0f7b2291e5b200ac8c7c3b9258680a46004611a6f6122da565b918452016020526040822080546001600160a01b0319166001600160a01b0390921691909117905580f35b63a9fbf51f60e01b845233600452602484fd5b50611ab8338261247c565b15611a2e565b506001600160a01b038116331415611a28565b50346101d25760203660031901126101d2576020610b21600435611af48161231e565b5061234f565b50346101d257806003193601126101d25761028e61027a611b196122da565b611d4e565b905034610aa8576020366003190112610aa85760043563ffffffff60e01b81168091036104845760209250635de6dc5560e01b8114908115611b92575b8115611b81575b8115611b70575b5015158152f35b632483248360e11b14905038611b69565b63780e9d6360e01b81149150611b62565b635b5e139f60e01b81149150611b5b565b919082518082526020808301940160005b828110611bd2575050600081602094950152601f8019910116010190565b8181015186820152602001611bb4565b600435906001600160a01b0382168203611bf857565b600080fd5b602435906001600160a01b0382168203611bf857565b6060906003190112611bf8576004356001600160a01b0381168103611bf857906024356001600160a01b0381168103611bf8579060443590565b906020808351928381520192019060005b818110611c6b5750505090565b82516001600160e01b031916845260209384019390920191600101611c5e565b90601f801991011681019081106001600160401b03821117611cac57604052565b634e487b7160e01b600052604160045260246000fd5b6001600160401b038111611cac57601f01601f191660200190565b929192611ce982611cc2565b91611cf76040519384611c8b565b829481845281830111611bf8578281602093846000960137010152565b90600182811c92168015611d44575b6020831014611d2e57565b634e487b7160e01b600052602260045260246000fd5b91607f1691611d23565b9060405191826000825492611d6284611d14565b8084529360018116908115611dd05750600114611d89575b50611d8792500383611c8b565b565b90506000929192526020600020906000915b818310611db4575050906020611d879282010138611d7a565b6020919350806001915483858901015201910190918492611d9b565b905060209250611d8794915060ff191682840152151560051b82010138611d7a565b9091906001600160a01b038316801561210f576006611e0f6123cc565b018360005260205242604060002055600090611e2a846124b6565b9133151580612083575b506001600160a01b0383169586158015612058575b6003611e536122da565b0184845260205260408320600181540190556002611e6f6122da565b888552016020526040832080546001600160a01b031916851790558684897fddf252ad1be2c89b69c2b068fc378daa952ba7f163c4a11628f55a4df523b3ef8680a415611fb9576002611ec06124e7565b01546003611ecc6124e7565b0187845260205260408320556002611ee26124e7565b01805490600160401b821015611fa55761077d8289926001611f06950181556123b4565b828703611f40575b5050505060018060a01b0316808303611f2657505050565b6364283d7b60e01b60005260045260245260445260646000fd5b611f4990612405565b600019810192908311611f915790604091611f626124e7565b90825260205281812083825260205285828220556001611f806124e7565b018682526020522055388080611f0e565b634e487b7160e01b82526011600452602482fd5b634e487b7160e01b84526041600452602484fd5b868314611f0657611fc984612405565b6001611fd36124e7565b01878452602052604083205490611fe86124e7565b8985526020526040842091818103612023575b5060016120066124e7565b018885526020528360408120558352602052816040812055611f06565b8185528260205260408520548186528360205280604087205560016120466124e7565b01908652602052604085205538611ffb565b612061876124c0565b600361206b6122da565b89855201602052604083208054600019019055611e49565b806120cc575b156120945738611e34565b9250506001600160a01b03166120b657602491637e27328960e01b8252600452fd5b60449163177e802f60e01b825233600452602452fd5b506001600160a01b038316331480156120ff575b806120895750336001600160a01b036120f88761234f565b1614612089565b5061210a338461247c565b6120e0565b633250574960e11b600052600060045260246000fd5b9291612132818386611df2565b813b61213f575b50505050565b604051630a85bd0160e11b81523360048201526001600160a01b039485166024820152604481019190915260806064820152921691906020908290819061218a906084830190611ba3565b03816000865af18091600091612229575b50906121f457503d156121ed573d6121b281611cc2565b906121c06040519283611c8b565b81523d6000602083013e5b805190816121e85782633250574960e11b60005260045260246000fd5b602001fd5b60606121cb565b6001600160e01b03191663757a42ff60e11b01612215575038808080612139565b633250574960e11b60005260045260246000fd5b6020813d602011612264575b8161224260209383611c8b565b81010312610aa85751906001600160e01b0319821682036101d257503861219b565b3d9150612235565b6000929181549161227c83611d14565b92600181169081156122c7575060011461229557505050565b909192935060005260206000206000905b8382106122b35750500190565b6001816020925484860152019101906122a6565b60ff191683525050811515909102019150565b604051602081017fb7b8777dfce3c027b9b4ab96baa886d0c5d5e8c8632429d2b4be0ba869cd905f815260208252612313604083611c8b565b9051902060ff191690565b612327816124b6565b906001600160a01b0382161561233b575090565b637e27328960e01b60005260045260246000fd5b60046123596122da565b60009283520160205260409020546001600160a01b031690565b6001600160401b038111611cac5760051b60200190565b805182101561239e5760209160051b010190565b634e487b7160e01b600052603260045260246000fd5b805482101561239e5760005260206000200190600090565b604051602081017f0cee7785c9739c2abcb4ce591dada6e864d6d906251746912d12a62bb828bf68815260208252612313604083611c8b565b6001600160a01b0381161561243757600361241e6122da565b019060018060a01b031660005260205260406000205490565b6322718ad960e21b600052600060045260246000fd5b6001600160a01b0361245d6123cc565b5416330361246757565b63118cdaa760e01b6000523360045260246000fd5b60056124866122da565b019060018060a01b031660005260205260406000209060018060a01b031660005260205260ff6040600020541690565b60026123596122da565b60046124ca6122da565b6000928352016020526040902080546001600160a01b0319169055565b604051602081017f2070bae6b675801f0932481e70ab724699e22000dcf2efe36a44b6070d9ee8f1815260208252612313604083611c8b565b9080601f83011215611bf85781602061253b93359101611cdd565b90565b6125716125836000939261026c8594604051948593634b5c427760e01b6020860152604060248601526064850190611ba3565b83810360231901604485015290611ba3565b6020815191016a636f6e736f6c652e6c6f675afa50565b61130d612583600093928493604051938492632d839cb360e21b6020850152604060248501526064840190611ba3565b604051602081017ff158cb8b47a14bda3b2c4affcc0d960e9ed23f5a516e4779510b08a6e823c025815260208252612313604083611c8b565b61260c81612405565b82101561263f5761261b6124e7565b9060018060a01b031660005260205260406000209060005260205260406000205490565b63295f44f760e21b60005260018060a01b031660045260245260446000fd5b6126678161231e565b50604051602081017f83126a7e0b3d5a7bd433798795b790de3287f4b1cb3d1042e8a9e2a4e5391b408152602082526126a1604083611c8b565b60ff199151902016906000526020526126bd6040600020611d4e565b60006040516126cd602082611c8b565b529056fea264697066735822122059d07ecc48b7703ff29efa093313113ee81bd14f0b5d6b6e699398fe012cc4a564736f6c634300081c0033",
  "linkReferences": {},
  "deployedLinkReferences": {}
}