{
  "_format": "hh-sol-artifact-1",
  "contractName": "AddressManager",
  "sourceName": "contracts/AddressManager/functions/AddressManager.sol",
  "abi": [
    {
      "inputs": [
        {
          "internalType": "enum ContractType",
          "name": "contractType",
          "type": "uint8"
        }
      ],
      "name": "InvalidContractType",
      "type": "error"
    },
    {
      "anonymous": false,
      "inputs": [
        {
          "indexed": false,
          "internalType": "enum ContractType",
          "name": "contractType",
          "type": "uint8"
        },
        {
          "indexed": false,
          "internalType": "address",
          "name": "addr",
          "type": "address"
        }
      ],
      "name": "SetContractAddress",
      "type": "event"
    },
    {
      "inputs": [
        {
          "internalType": "enum ContractType",
          "name": "contractType",
          "type": "uint8"
        },
        {
          "internalType": "address",
          "name": "addr",
          "type": "address"
        }
      ],
      "name": "setContractAddress",
      "outputs": [],
      "stateMutability": "nonpayable",
      "type": "function"
    }
  ],
  "bytecode": "0x608080604052346015576101b9908161001b8239f35b600080fdfe6080604052600436101561001257600080fd5b60003560e01c63c413e5be1461002757600080fd5b346101155760403660031901126101155760043560028110908115610115576024356001600160a01b03811692908390036101155782156101005761006a61011a565b60009083825260205260408120846bffffffffffffffffffffffff60a01b825416179055600161009861011a565b0184825260205260408120905060ff1981541660ff841617905560405190156100ea577f952b999a4ccc2a85dcee639fdf8b0f10a9d84ef99f94dcebf121366ee4fd8c199260409282526020820152a1005b634e487b7160e01b600052602160045260246000fd5b60248262da15db60e51b600052600090600452fd5b600080fd5b604051602081017f512a95b1106067f83427a081fbbbf8e3ae5a3b04d228e5109a3fc2a98d7ec7118152602082526040820182811067ffffffffffffffff82111761016d576040529051902060ff191690565b634e487b7160e01b600052604160045260246000fdfea2646970667358221220da84753257515dd5ab8803e141552c0f5018ace1173295db157907d898bafa5b64736f6c634300081c0033",
  "linkReferences": {},
  "deployedLinkReferences": {}
}