{
  "_format": "hh-sol-artifact-1",
  "contractName": "LETS_JP_LLC_EXE",
  "sourceName": "contracts/sc/Services/LETS/functions/extensions/LETS_JP_LLC/LETS_JP_LLC_EXE.sol",
  "abi": [
    {
      "inputs": [
        {
          "internalType": "address",
          "name": "account",
          "type": "address"
        },
        {
          "internalType": "bytes32",
          "name": "neededRole",
          "type": "bytes32"
        }
      ],
      "name": "AccessControlUnauthorizedAccount",
      "type": "error"
    },
    {
      "inputs": [],
      "name": "AlreadyInitialized",
      "type": "error"
    },
    {
      "inputs": [
        {
          "internalType": "address",
          "name": "sender",
          "type": "address"
        },
        {
          "internalType": "uint256",
          "name": "tokenId",
          "type": "uint256"
        },
        {
          "internalType": "address",
          "name": "owner",
          "type": "address"
        }
      ],
      "name": "ERC721IncorrectOwner",
      "type": "error"
    },
    {
      "inputs": [
        {
          "internalType": "address",
          "name": "operator",
          "type": "address"
        },
        {
          "internalType": "uint256",
          "name": "tokenId",
          "type": "uint256"
        }
      ],
      "name": "ERC721InsufficientApproval",
      "type": "error"
    },
    {
      "inputs": [
        {
          "internalType": "address",
          "name": "approver",
          "type": "address"
        }
      ],
      "name": "ERC721InvalidApprover",
      "type": "error"
    },
    {
      "inputs": [
        {
          "internalType": "address",
          "name": "operator",
          "type": "address"
        }
      ],
      "name": "ERC721InvalidOperator",
      "type": "error"
    },
    {
      "inputs": [
        {
          "internalType": "address",
          "name": "owner",
          "type": "address"
        }
      ],
      "name": "ERC721InvalidOwner",
      "type": "error"
    },
    {
      "inputs": [
        {
          "internalType": "address",
          "name": "receiver",
          "type": "address"
        }
      ],
      "name": "ERC721InvalidReceiver",
      "type": "error"
    },
    {
      "inputs": [
        {
          "internalType": "address",
          "name": "sender",
          "type": "address"
        }
      ],
      "name": "ERC721InvalidSender",
      "type": "error"
    },
    {
      "inputs": [
        {
          "internalType": "uint256",
          "name": "tokenId",
          "type": "uint256"
        }
      ],
      "name": "ERC721NonexistentToken",
      "type": "error"
    },
    {
      "inputs": [
        {
          "internalType": "address",
          "name": "owner",
          "type": "address"
        },
        {
          "internalType": "uint256",
          "name": "index",
          "type": "uint256"
        }
      ],
      "name": "ERC721OutOfBoundsIndex",
      "type": "error"
    },
    {
      "inputs": [
        {
          "internalType": "bytes32",
          "name": "param",
          "type": "bytes32"
        }
      ],
      "name": "InvalidParam",
      "type": "error"
    },
    {
      "inputs": [
        {
          "internalType": "address",
          "name": "sender",
          "type": "address"
        }
      ],
      "name": "NotFounder",
      "type": "error"
    },
    {
      "inputs": [
        {
          "internalType": "address",
          "name": "caller",
          "type": "address"
        }
      ],
      "name": "NotGovernance",
      "type": "error"
    },
    {
      "inputs": [
        {
          "internalType": "address",
          "name": "caller",
          "type": "address"
        }
      ],
      "name": "NotLetsSale",
      "type": "error"
    },
    {
      "inputs": [],
      "name": "NotTransferable",
      "type": "error"
    },
    {
      "inputs": [
        {
          "internalType": "address",
          "name": "owner",
          "type": "address"
        }
      ],
      "name": "OwnableInvalidOwner",
      "type": "error"
    },
    {
      "inputs": [
        {
          "internalType": "address",
          "name": "account",
          "type": "address"
        }
      ],
      "name": "OwnableUnauthorizedAccount",
      "type": "error"
    },
    {
      "anonymous": false,
      "inputs": [
        {
          "indexed": true,
          "internalType": "address",
          "name": "owner",
          "type": "address"
        },
        {
          "indexed": true,
          "internalType": "address",
          "name": "approved",
          "type": "address"
        },
        {
          "indexed": true,
          "internalType": "uint256",
          "name": "tokenId",
          "type": "uint256"
        }
      ],
      "name": "Approval",
      "type": "event"
    },
    {
      "anonymous": false,
      "inputs": [
        {
          "indexed": true,
          "internalType": "address",
          "name": "owner",
          "type": "address"
        },
        {
          "indexed": true,
          "internalType": "address",
          "name": "operator",
          "type": "address"
        },
        {
          "indexed": false,
          "internalType": "bool",
          "name": "approved",
          "type": "bool"
        }
      ],
      "name": "ApprovalForAll",
      "type": "event"
    },
    {
      "anonymous": false,
      "inputs": [
        {
          "indexed": false,
          "internalType": "uint256",
          "name": "_fromTokenId",
          "type": "uint256"
        },
        {
          "indexed": false,
          "internalType": "uint256",
          "name": "_toTokenId",
          "type": "uint256"
        }
      ],
      "name": "BatchMetadataUpdate",
      "type": "event"
    },
    {
      "anonymous": false,
      "inputs": [
        {
          "indexed": true,
          "internalType": "address",
          "name": "scr",
          "type": "address"
        },
        {
          "indexed": false,
          "internalType": "address[]",
          "name": "tos",
          "type": "address[]"
        }
      ],
      "name": "InitialMint",
      "type": "event"
    },
    {
      "anonymous": false,
      "inputs": [
        {
          "indexed": true,
          "internalType": "address",
          "name": "initializer",
          "type": "address"
        }
      ],
      "name": "LETSBaseInitialized",
      "type": "event"
    },
    {
      "anonymous": false,
      "inputs": [
        {
          "indexed": true,
          "internalType": "address",
          "name": "initializer",
          "type": "address"
        }
      ],
      "name": "LETS_JP_LLC_EXEInitialized",
      "type": "event"
    },
    {
      "anonymous": false,
      "inputs": [
        {
          "indexed": false,
          "internalType": "uint256",
          "name": "_tokenId",
          "type": "uint256"
        }
      ],
      "name": "MetadataUpdate",
      "type": "event"
    },
    {
      "anonymous": false,
      "inputs": [
        {
          "indexed": true,
          "internalType": "address",
          "name": "previousOwner",
          "type": "address"
        },
        {
          "indexed": true,
          "internalType": "address",
          "name": "newOwner",
          "type": "address"
        }
      ],
      "name": "OwnershipTransferred",
      "type": "event"
    },
    {
      "anonymous": false,
      "inputs": [
        {
          "indexed": false,
          "internalType": "uint256",
          "name": "tokenId",
          "type": "uint256"
        }
      ],
      "name": "TokenFrozen",
      "type": "event"
    },
    {
      "anonymous": false,
      "inputs": [
        {
          "indexed": false,
          "internalType": "uint256",
          "name": "tokenId",
          "type": "uint256"
        }
      ],
      "name": "TokenUnfrozen",
      "type": "event"
    },
    {
      "anonymous": false,
      "inputs": [
        {
          "indexed": true,
          "internalType": "address",
          "name": "from",
          "type": "address"
        },
        {
          "indexed": true,
          "internalType": "address",
          "name": "to",
          "type": "address"
        },
        {
          "indexed": true,
          "internalType": "uint256",
          "name": "tokenId",
          "type": "uint256"
        }
      ],
      "name": "Transfer",
      "type": "event"
    },
    {
      "inputs": [
        {
          "internalType": "address",
          "name": "to",
          "type": "address"
        },
        {
          "internalType": "uint256",
          "name": "tokenId",
          "type": "uint256"
        }
      ],
      "name": "approve",
      "outputs": [],
      "stateMutability": "nonpayable",
      "type": "function"
    },
    {
      "inputs": [
        {
          "internalType": "address",
          "name": "owner",
          "type": "address"
        }
      ],
      "name": "balanceOf",
      "outputs": [
        {
          "internalType": "uint256",
          "name": "",
          "type": "uint256"
        }
      ],
      "stateMutability": "view",
      "type": "function"
    },
    {
      "inputs": [
        {
          "internalType": "uint256",
          "name": "tokenId",
          "type": "uint256"
        }
      ],
      "name": "freezeToken",
      "outputs": [],
      "stateMutability": "nonpayable",
      "type": "function"
    },
    {
      "inputs": [
        {
          "internalType": "uint256",
          "name": "tokenId",
          "type": "uint256"
        }
      ],
      "name": "getApproved",
      "outputs": [
        {
          "internalType": "address",
          "name": "",
          "type": "address"
        }
      ],
      "stateMutability": "view",
      "type": "function"
    },
    {
      "inputs": [],
      "name": "getInitialMintExecuteMemberCompleted",
      "outputs": [
        {
          "internalType": "bool",
          "name": "initialMintExecuteMemberCompleted",
          "type": "bool"
        }
      ],
      "stateMutability": "view",
      "type": "function"
    },
    {
      "inputs": [
        {
          "internalType": "address",
          "name": "owner",
          "type": "address"
        }
      ],
      "name": "getTokensOfOwner",
      "outputs": [
        {
          "internalType": "uint256[]",
          "name": "",
          "type": "uint256[]"
        }
      ],
      "stateMutability": "view",
      "type": "function"
    },
    {
      "inputs": [
        {
          "internalType": "uint256",
          "name": "tokenId",
          "type": "uint256"
        }
      ],
      "name": "getUpdatedToken",
      "outputs": [
        {
          "internalType": "uint256",
          "name": "",
          "type": "uint256"
        }
      ],
      "stateMutability": "view",
      "type": "function"
    },
    {
      "inputs": [
        {
          "internalType": "address[]",
          "name": "tos",
          "type": "address[]"
        }
      ],
      "name": "initialMint",
      "outputs": [],
      "stateMutability": "nonpayable",
      "type": "function"
    },
    {
      "inputs": [
        {
          "internalType": "address",
          "name": "dictionary",
          "type": "address"
        },
        {
          "internalType": "address",
          "name": "implementation",
          "type": "address"
        },
        {
          "internalType": "address",
          "name": "sc",
          "type": "address"
        },
        {
          "internalType": "bytes",
          "name": "params",
          "type": "bytes"
        }
      ],
      "name": "initialize",
      "outputs": [
        {
          "internalType": "bytes4[]",
          "name": "selectors",
          "type": "bytes4[]"
        }
      ],
      "stateMutability": "nonpayable",
      "type": "function"
    },
    {
      "inputs": [
        {
          "internalType": "address",
          "name": "owner_",
          "type": "address"
        }
      ],
      "name": "initialize",
      "outputs": [],
      "stateMutability": "nonpayable",
      "type": "function"
    },
    {
      "inputs": [
        {
          "internalType": "address",
          "name": "owner",
          "type": "address"
        },
        {
          "internalType": "address",
          "name": "operator",
          "type": "address"
        }
      ],
      "name": "isApprovedForAll",
      "outputs": [
        {
          "internalType": "bool",
          "name": "",
          "type": "bool"
        }
      ],
      "stateMutability": "view",
      "type": "function"
    },
    {
      "inputs": [
        {
          "internalType": "address",
          "name": "to",
          "type": "address"
        }
      ],
      "name": "mint",
      "outputs": [],
      "stateMutability": "nonpayable",
      "type": "function"
    },
    {
      "inputs": [],
      "name": "name",
      "outputs": [
        {
          "internalType": "string",
          "name": "",
          "type": "string"
        }
      ],
      "stateMutability": "view",
      "type": "function"
    },
    {
      "inputs": [],
      "name": "owner",
      "outputs": [
        {
          "internalType": "address",
          "name": "",
          "type": "address"
        }
      ],
      "stateMutability": "view",
      "type": "function"
    },
    {
      "inputs": [
        {
          "internalType": "uint256",
          "name": "tokenId",
          "type": "uint256"
        }
      ],
      "name": "ownerOf",
      "outputs": [
        {
          "internalType": "address",
          "name": "",
          "type": "address"
        }
      ],
      "stateMutability": "view",
      "type": "function"
    },
    {
      "inputs": [],
      "name": "renounceOwnership",
      "outputs": [],
      "stateMutability": "nonpayable",
      "type": "function"
    },
    {
      "inputs": [
        {
          "internalType": "address",
          "name": "from",
          "type": "address"
        },
        {
          "internalType": "address",
          "name": "to",
          "type": "address"
        },
        {
          "internalType": "uint256",
          "name": "tokenId",
          "type": "uint256"
        }
      ],
      "name": "safeTransferFrom",
      "outputs": [],
      "stateMutability": "nonpayable",
      "type": "function"
    },
    {
      "inputs": [
        {
          "internalType": "address",
          "name": "from",
          "type": "address"
        },
        {
          "internalType": "address",
          "name": "to",
          "type": "address"
        },
        {
          "internalType": "uint256",
          "name": "tokenId",
          "type": "uint256"
        },
        {
          "internalType": "bytes",
          "name": "data",
          "type": "bytes"
        }
      ],
      "name": "safeTransferFrom",
      "outputs": [],
      "stateMutability": "nonpayable",
      "type": "function"
    },
    {
      "inputs": [
        {
          "internalType": "address",
          "name": "operator",
          "type": "address"
        },
        {
          "internalType": "bool",
          "name": "approved",
          "type": "bool"
        }
      ],
      "name": "setApprovalForAll",
      "outputs": [],
      "stateMutability": "nonpayable",
      "type": "function"
    },
    {
      "inputs": [
        {
          "internalType": "bytes4",
          "name": "interfaceId",
          "type": "bytes4"
        }
      ],
      "name": "supportsInterface",
      "outputs": [
        {
          "internalType": "bool",
          "name": "",
          "type": "bool"
        }
      ],
      "stateMutability": "pure",
      "type": "function"
    },
    {
      "inputs": [],
      "name": "symbol",
      "outputs": [
        {
          "internalType": "string",
          "name": "",
          "type": "string"
        }
      ],
      "stateMutability": "view",
      "type": "function"
    },
    {
      "inputs": [
        {
          "internalType": "uint256",
          "name": "index",
          "type": "uint256"
        }
      ],
      "name": "tokenByIndex",
      "outputs": [
        {
          "internalType": "uint256",
          "name": "",
          "type": "uint256"
        }
      ],
      "stateMutability": "view",
      "type": "function"
    },
    {
      "inputs": [
        {
          "internalType": "address",
          "name": "owner",
          "type": "address"
        },
        {
          "internalType": "uint256",
          "name": "index",
          "type": "uint256"
        }
      ],
      "name": "tokenOfOwnerByIndex",
      "outputs": [
        {
          "internalType": "uint256",
          "name": "",
          "type": "uint256"
        }
      ],
      "stateMutability": "view",
      "type": "function"
    },
    {
      "inputs": [
        {
          "internalType": "uint256",
          "name": "tokenId",
          "type": "uint256"
        }
      ],
      "name": "tokenURI",
      "outputs": [
        {
          "internalType": "string",
          "name": "",
          "type": "string"
        }
      ],
      "stateMutability": "view",
      "type": "function"
    },
    {
      "inputs": [],
      "name": "totalSupply",
      "outputs": [
        {
          "internalType": "uint256",
          "name": "",
          "type": "uint256"
        }
      ],
      "stateMutability": "view",
      "type": "function"
    },
    {
      "inputs": [
        {
          "internalType": "address",
          "name": "from",
          "type": "address"
        },
        {
          "internalType": "address",
          "name": "to",
          "type": "address"
        },
        {
          "internalType": "uint256",
          "name": "tokenId",
          "type": "uint256"
        }
      ],
      "name": "transferFrom",
      "outputs": [],
      "stateMutability": "nonpayable",
      "type": "function"
    },
    {
      "inputs": [
        {
          "internalType": "address",
          "name": "newOwner",
          "type": "address"
        }
      ],
      "name": "transferOwnership",
      "outputs": [],
      "stateMutability": "nonpayable",
      "type": "function"
    },
    {
      "inputs": [
        {
          "internalType": "uint256",
          "name": "tokenId",
          "type": "uint256"
        }
      ],
      "name": "unfreezeToken",
      "outputs": [],
      "stateMutability": "nonpayable",
      "type": "function"
    }
  ],
  "bytecode": "0x60808060405234601557612539908161001b8239f35b600080fdfe608080604052600436101561001357600080fd5b600090813560e01c90816301ffc9a7146116975750806306fdde0314611673578063081812fc1461164a578063095ea7b31461157257806318160ddd1461154b57806323b872dd14611533578063246581f714610ab05780632f745c5914610a8857806342842e0e14610a5e5780634d787ea914610a015780634f6ccce71461099d5780635de6dc55146108de5780636352211e146108ad5780636a6278421461074757806370a082311461071b578063715018a6146106b25780638da5cb5b1461068557806395d89b411461065e57806397294fea1461062b578063a22cb46514610578578063b6854f9614610518578063b88d4fde146104b1578063c3b0ce3b146102cf578063c4d66de81461027e578063c87b56dd14610246578063e12a8b7c14610224578063e985e9c5146101ed5763f2fde38b1461015557600080fd5b346101ea5760203660031901126101ea5761016e61175b565b61017661230b565b6001600160a01b031680156101d6576001600160a01b03610195611eef565b541661019f611eef565b80546001600160a01b031916831790557f8be0079c531659141344cd1fd0a4f28419497f9722a3daafe3b4186f6b6457e08380a380f35b631e4fbdf760e01b82526004829052602482fd5b80fd5b50346101ea5760403660031901126101ea57602061021a61020c61175b565b610214611771565b906123ad565b6040519015158152f35b50346101ea57806003193601126101ea5760ff60209154166040519015158152f35b50346101ea5760203660031901126101ea5761027a61026660043561233a565b60405191829160208352602083019061171c565b0390f35b50346101ea5760203660031901126101ea5761029861175b565b6001600160a01b038116156101d6576102af611eef565b80546001600160a01b0319166001600160a01b0390921691909117905580f35b50346101ea5760203660031901126101ea576004356001600160401b0381116104ad57366023820112156104ad578060040135906001600160401b0382116104a9573660248360051b830101116104a957604460206001600160a01b03610334611eef565b541660405192838092632474521560e21b82527f7ed687a8f2955bd2ba7ca08227e1e364d132be747f42fb733165f923021b022560048301523360248301525afa90811561049e57849161046f575b501561045c57825b828110156103c557600581901b820160240135906001600160a01b03821682036103c1576103ba600192611f28565b500161038b565b8480fd5b5090600160ff19845416178355604051908060208301602084525260246040830193019084905b80821061042157505050807f1a011b8e3ac2481c2b87e374ace0f8bb1128f6a80697d6b4fd0817d950d4837b9130930390a280f35b91939091908435906001600160a01b0382168203610457576001600160a01b0390911681526020908101940191600101906103ec565b600080fd5b639c2f8ac360e01b835233600452602483fd5b610491915060203d602011610497575b61048981836117ff565b810190611c9e565b38610383565b503d61047f565b6040513d86823e3d90fd5b8280fd5b5080fd5b50346101ea5760803660031901126101ea576104cb61175b565b6104d3611771565b606435916001600160401b038311610514573660238401121561051457610507610511933690602481600401359101611851565b9160443591611cb6565b80f35b8380fd5b50346101ea5760203660031901126101ea577f74308730007d8ee5b3c18fad784efa3555f62695e36960f803f475eeb663d10e6020600435600461055a611eef565b8286520182526040808520805460ff1916600117905551908152a180f35b50346101ea5760403660031901126101ea5761059261175b565b602435908115158092036104a9576001600160a01b03169081156106175760056105ba611dfd565b0160018060a01b033316600052602052604060002082600052602052604060002060ff1981541660ff83161790556040519081527f17307eab39ab6107e8899845ad3d59bd9653f200f220920489ca2b5937696c3160203392a380f35b630b61174360e31b83526004829052602483fd5b50346101ea5760203660031901126101ea576040602091600561064c611eef565b01600435825283522054604051908152f35b50346101ea57806003193601126101ea5761027a610266600161067f611dfd565b016118c2565b50346101ea57806003193601126101ea5760206001600160a01b036106a8611eef565b5416604051908152f35b50346101ea57806003193601126101ea576106cb61230b565b806001600160a01b036106dc611eef565b54166106e6611eef565b80546001600160a01b03191690557f8be0079c531659141344cd1fd0a4f28419497f9722a3daafe3b4186f6b6457e08280a380f35b50346101ea5760203660031901126101ea57602061073f61073a61175b565b6122c3565b604051908152f35b50346101ea5760203660031901126101ea5761076161175b565b600460206001600160a01b03610775611eef565b541660405192838092631ba82e6360e31b82525afa90811561085f57839161086a575b50604051632474521560e21b81527f9f2df0fed2c77648de5860a4cc508cd0818c85b8b8a1ab4ceeef8d981c8956a6600482015233602482015290602090829060449082906001600160a01b03165afa90811561085f578391610840575b50156108095761080590611f28565b5080f35b63e2517d3f60e01b8252336004527f9f2df0fed2c77648de5860a4cc508cd0818c85b8b8a1ab4ceeef8d981c8956a6602452604482fd5b610859915060203d6020116104975761048981836117ff565b386107f6565b6040513d85823e3d90fd5b90506020813d6020116108a5575b81610885602093836117ff565b810103126104a957516001600160a01b03811681036104a9576020610798565b3d9150610878565b50346101ea5760203660031901126101ea5760206108cc600435611e41565b6040516001600160a01b039091168152f35b50346101ea5760203660031901126101ea576108f861175b565b610901816122c3565b61090a81611e96565b9061091860405192836117ff565b80825261092481611e96565b602083019390601f1901368537845b82811061097f5750505090604051928392602084019060208552518091526040840192915b818110610966575050500390f35b8251845285945060209384019390920191600101610958565b8061098c600192846124a8565b6109968287611ead565b5201610933565b50346101ea5760203660031901126101ea576004359060026109bd612418565b01548210156109eb5760206109dc8360026109d6612418565b01611ed7565b90549060031b1c604051908152f35b60449163295f44f760e21b825281600452602452fd5b50346101ea5760203660031901126101ea577fdad54db74d8c1152c7cb496a900d181b8e9b69b70e55db2362bd100897a4f7a160206004356004610a43611eef565b8286520182526040808520805460ff1916905551908152a180f35b50346101ea57610511610a7036611787565b9060405192610a806020856117ff565b858452611cb6565b50346101ea5760403660031901126101ea57602061073f610aa761175b565b602435906124a8565b50346101ea5760803660031901126101ea57610aca61175b565b610ad2611771565b6044356001600160a01b038116810361051457606435906001600160401b0382116103c157366023830112156103c1578160040135906001600160401b03821161152f57818301906024820191368311611527576080908590031261152b576024840135936001600160401b03851161152757610b5483602487840101612451565b9360448201356001600160401b03811161152357846024610b7792850101612451565b9160648101356001600160401b03811161151f57856024610b9a92840101612451565b946084820135916001600160401b03831161151b57610bbc9201602401612451565b95855115159081611510575b81611505575b816114fa575b8092602081106114e3575b5050156114d15750610bef611dfd565b610bf7611eef565b948051906001600160401b0382116114bd57610c138354611888565b601f8111611478575b50602090601f83116001146114125760019392918c9183611407575b5050600019600383901b1c191690831b1781555b01908051906001600160401b0382116113f3578190610c6b8454611888565b601f81116113a3575b50602090601f8311600114611340578b92611335575b50508160011b916000199060031b1c19161790555b82546001600160a01b0319166001600160a01b0391909116178255805160028301916001600160401b03821161132157610cd98354611888565b601f81116112dc575b50602090601f83116001146112765760039493929189918361126b575b50508160011b9160001990861b1c19161790555b01908051906001600160401b038211611257578190610d328454611888565b601f8111611207575b50602090601f83116001146111a4578792611199575b50508160011b916000199060031b1c19161790555b60ff610d7061246f565b541661118b57604051926102e0610d8781866117ff565b601685526020850190601f190136823784511561117757634b94a7f560e11b90528351600110156111635763c87b56dd60e01b6040850152835160021015611163576318160ddd60e01b6060850152835160031015611163576301ffc9a760e01b6080850152835160041015611163576370a0823160e01b60a0850152835160051015611163576331a9108f60e11b60c08501528351600610156111635763095ea7b360e01b60e08501528351600710156111635763020604bf60e21b6101008501528351600810156111635763a22cb46560e01b6101208501528351600910156111635763e985e9c560e01b6101408501528351600a1015611163576323b872dd60e01b6101608501528351600b101561116357632142170760e11b6101808501528351600c101561116357635c46a7ef60e11b6101a08501528351600d1015611163576306fdde0360e01b6101c08501528351600e1015611163576395d89b4160e01b6101e08501528351600f101561116357634f6ccce760e01b61020085015283516010101561116357632f745c5960e01b61022085015283516011101561116357635de6dc5560e01b610240850152835160121015611163576335313c2160e11b61026085015283516013101561116357635b42a7cb60e11b61028085015283516014101561116357634d787ea960e01b6102a085015283516015101561116357634b94a7f560e11b6102c0850152337f171a7dc80b6dc11005bc264b86aca451619865e5e8dad90855002dd8814b33628280a260ff610fc961246f565b5416611155578351916002830180931161114157610fe683611e96565b92610ff460405194856117ff565b808452611003601f1991611e96565b01366020850137815b855181101561103e576001906001600160e01b031961102b8289611ead565b51166110378287611ead565b520161100c565b5091909263c3b0ce3b60e01b611055865184611ead565b5284516001810180911161112d5763384aa2df60e21b906110769084611ead565b526001600160a01b031690813b156105145783916110b391836040518096819582946323c45f6760e01b84526040600485015260448401906117c1565b6001600160a01b03909116602483015203925af18015611122578290611112575b505061027a6040519283927f4d551d3011ebaf67f0b8c2bbe6537867817f628b28ad415422702ada789affc7339180a26020835260208301906117c1565b61111b916117ff565b38816110d4565b6040513d84823e3d90fd5b634e487b7160e01b85526011600452602485fd5b634e487b7160e01b82526011600452602482fd5b62dc149f60e41b8152600490fd5b634e487b7160e01b81526032600452602490fd5b634e487b7160e01b82526032600452602482fd5b62dc149f60e41b8352600483fd5b015190503880610d51565b8488528188209250601f198416885b8181106111ef57509084600195949392106111d6575b505050811b019055610d66565b015160001960f88460031b161c191690553880806111c9565b929360206001819287860151815501950193016111b3565b90915083875260208720601f840160051c8101916020851061124d575b90601f859493920160051c01905b81811061123f5750610d3b565b888155849350600101611232565b9091508190611224565b634e487b7160e01b86526041600452602486fd5b015190503880610cff565b8389528189209190601f1984168a5b8181106112c45750916001939185600398979694106112ac575b505050811b019055610d13565b015160001983881b60f8161c1916905538808061129f565b92936020600181928786015181550195019301611285565b83895260208920601f840160051c81019160208510611317575b601f0160051c01905b81811061130c5750610ce2565b8981556001016112ff565b90915081906112f6565b634e487b7160e01b88526041600452602488fd5b015190503880610c8a565b848c52818c209250601f1984168c5b81811061138b5750908460019594939210611372575b505050811b019055610c9f565b015160001960f88460031b161c19169055388080611365565b9293602060018192878601518155019501930161134f565b909150838b5260208b20601f840160051c810191602085106113e9575b90601f859493920160051c01905b8181106113db5750610c74565b8c81558493506001016113ce565b90915081906113c0565b634e487b7160e01b8a52604160045260248afd5b015190503880610c38565b838c52818c209190601f1984168d5b8181106114605750916001959492918387959310611447575b505050811b018155610c4c565b015160001960f88460031b161c1916905538808061143a565b92936020600181928786015181550195019301611421565b838c5260208c20601f840160051c810191602085106114b3575b601f0160051c01905b8181106114a85750610c1c565b8c815560010161149b565b9091508190611492565b634e487b7160e01b8b52604160045260248bfd5b6308d49be960e31b8952600452602488fd5b60001960209190910360031b1b1691503880610bdf565b875115159150610bd4565b855115159150610bce565b835115159150610bc8565b8b80fd5b8a80fd5b8980fd5b8780fd5b8680fd5b8580fd5b50346101ea5761051161154536611787565b91611966565b50346101ea57806003193601126101ea5760206002611568612418565b0154604051908152f35b50346101ea5760403660031901126101ea5761158c61175b565b60243561159881611e41565b33151580611637575b80611626575b6116135781906001600160a01b0384811691167f8c5be1e5ebec7d5bd14f71427d1e84f3dd0314c0f7b2291e5b200ac8c7c3b9258680a460046115e8611dfd565b918452016020526040822080546001600160a01b0319166001600160a01b0390921691909117905580f35b63a9fbf51f60e01b845233600452602484fd5b5061163133826123ad565b156115a7565b506001600160a01b0381163314156115a1565b50346101ea5760203660031901126101ea5760206108cc60043561166d81611e41565b50611e72565b50346101ea57806003193601126101ea5761027a610266611692611dfd565b6118c2565b9050346104ad5760203660031901126104ad5760043563ffffffff60e01b81168091036104a95760209250635de6dc5560e01b811490811561170b575b81156116fa575b81156116e9575b5015158152f35b632483248360e11b149050386116e2565b63780e9d6360e01b811491506116db565b635b5e139f60e01b811491506116d4565b919082518082526020808301940160005b82811061174b575050600081602094950152601f8019910116010190565b818101518682015260200161172d565b600435906001600160a01b038216820361045757565b602435906001600160a01b038216820361045757565b6060906003190112610457576004356001600160a01b038116810361045757906024356001600160a01b0381168103610457579060443590565b906020808351928381520192019060005b8181106117df5750505090565b82516001600160e01b0319168452602093840193909201916001016117d2565b90601f801991011681019081106001600160401b0382111761182057604052565b634e487b7160e01b600052604160045260246000fd5b6001600160401b03811161182057601f01601f191660200190565b92919261185d82611836565b9161186b60405193846117ff565b829481845281830111610457578281602093846000960137010152565b90600182811c921680156118b8575b60208310146118a257565b634e487b7160e01b600052602260045260246000fd5b91607f1691611897565b90604051918260008254926118d684611888565b808452936001811690811561194457506001146118fd575b506118fb925003836117ff565b565b90506000929192526020600020906000915b8183106119285750509060206118fb92820101386118ee565b602091935080600191548385890101520191019091849261190f565b9050602092506118fb94915060ff191682840152151560051b820101386118ee565b9091906001600160a01b0383168015611c88576005611983611eef565b01836000526020524260406000205560009061199e846123e7565b9133151580611bfc575b506001600160a01b0383169586158015611bd1575b60036119c7611dfd565b01848452602052604083206001815401905560026119e3611dfd565b888552016020526040832080546001600160a01b031916851790558684897fddf252ad1be2c89b69c2b068fc378daa952ba7f163c4a11628f55a4df523b3ef8680a415611b32576002611a34612418565b01546003611a40612418565b0187845260205260408320556002611a56612418565b01805490600160401b821015611b1e57611a7a8289926001611a9395018155611ed7565b90919082549060031b91821b91600019901b1916179055565b828703611acd575b5050505060018060a01b0316808303611ab357505050565b6364283d7b60e01b60005260045260245260445260646000fd5b611ad6906122c3565b6000198101929083116111415790604091611aef612418565b90825260205281812083825260205285828220556001611b0d612418565b018682526020522055388080611a9b565b634e487b7160e01b84526041600452602484fd5b868314611a9357611b42846122c3565b6001611b4c612418565b01878452602052604083205490611b61612418565b8985526020526040842091818103611b9c575b506001611b7f612418565b018885526020528360408120558352602052816040812055611a93565b818552826020526040852054818652836020528060408720556001611bbf612418565b01908652602052604085205538611b74565b611bda876123f1565b6003611be4611dfd565b898552016020526040832080546000190190556119bd565b80611c45575b15611c0d57386119a8565b9250506001600160a01b0316611c2f57602491637e27328960e01b8252600452fd5b60449163177e802f60e01b825233600452602452fd5b506001600160a01b03831633148015611c78575b80611c025750336001600160a01b03611c7187611e72565b1614611c02565b50611c8333846123ad565b611c59565b633250574960e11b600052600060045260246000fd5b90816020910312610457575180151581036104575790565b9291611cc3818386611966565b813b611cd0575b50505050565b604051630a85bd0160e11b81523360048201526001600160a01b0394851660248201526044810191909152608060648201529216919060209082908190611d1b90608483019061171c565b03816000865af18091600091611dba575b5090611d8557503d15611d7e573d611d4381611836565b90611d5160405192836117ff565b81523d6000602083013e5b80519081611d795782633250574960e11b60005260045260246000fd5b602001fd5b6060611d5c565b6001600160e01b03191663757a42ff60e11b01611da6575038808080611cca565b633250574960e11b60005260045260246000fd5b6020813d602011611df5575b81611dd3602093836117ff565b810103126104ad5751906001600160e01b0319821682036101ea575038611d2c565b3d9150611dc6565b604051602081017fb7b8777dfce3c027b9b4ab96baa886d0c5d5e8c8632429d2b4be0ba869cd905f815260208252611e366040836117ff565b9051902060ff191690565b611e4a816123e7565b906001600160a01b03821615611e5e575090565b637e27328960e01b60005260045260246000fd5b6004611e7c611dfd565b60009283520160205260409020546001600160a01b031690565b6001600160401b0381116118205760051b60200190565b8051821015611ec15760209160051b010190565b634e487b7160e01b600052603260045260246000fd5b8054821015611ec15760005260206000200190600090565b604051602081017f0cee7785c9739c2abcb4ce591dada6e864d6d906251746912d12a62bb828bf68815260208252611e366040836117ff565b906001611f33611eef565b0191825460001981146122ad576001018093558260209060405190611f5883836117ff565b600082526001600160a01b038416938415611c88576000611f78836123e7565b6001600160a01b03811680158015939190899085612283575b6003611f9b611dfd565b018285528a5260408420600181540190556002611fb6611dfd565b898652018a526040842080546001600160a01b031916831790558782847fddf252ad1be2c89b69c2b068fc378daa952ba7f163c4a11628f55a4df523b3ef8780a4156121ea57506002612007612418565b01546003612013612418565b01878452895260408320556002612028612418565b01805490600160401b821015611b1e5787611a7a8361204e9360018f9796018155611ed7565b0361218b575b5050612175573b6120655750505050565b916120a5918195936040979597519384928392630a85bd0160e11b845233600485015260006024850152604484015260806064840152608483019061171c565b03816000895af18091600091612137575b5090612110575050503d600014612109573d6120d181611836565b906120df60405192836117ff565b81523d60008383013e5b805191826121065783633250574960e11b60005260045260246000fd5b01fd5b60606120e9565b9193909250906001600160e01b03191663757a42ff60e11b01611da6575038808080611cca565b8581813d831161216e575b61214c81836117ff565b810103126104ad5751906001600160e01b0319821682036101ea5750386120b6565b503d612142565b6339e3563760e11b600052600060045260246000fd5b612194846122c3565b6000198101919082116121d6576040906121ac612418565b8a825289528181208382528952868282205560016121c8612418565b018782528952205538612054565b634e487b7160e01b81526011600452602490fd5b9080821461204e576121fb846122c3565b6001612205612418565b018885528a52604084205490612219612418565b8386528b526040852091818103612251575b506001612236612418565b018986528b528460408120558452895282604081205561204e565b818652828c526040862054818752838d528060408820556001612272612418565b019087528c5260408620553861222b565b61228c886123f1565b6003612296611dfd565b848652018a52604084208054600019019055611f91565b634e487b7160e01b600052601160045260246000fd5b6001600160a01b038116156122f55760036122dc611dfd565b019060018060a01b031660005260205260406000205490565b6322718ad960e21b600052600060045260246000fd5b6001600160a01b0361231b611eef565b5416330361232557565b63118cdaa760e01b6000523360045260246000fd5b61234381611e41565b50604051602081017f83126a7e0b3d5a7bd433798795b790de3287f4b1cb3d1042e8a9e2a4e5391b4081526020825261237d6040836117ff565b60ff1991519020169060005260205261239960406000206118c2565b60006040516123a96020826117ff565b5290565b60056123b7611dfd565b019060018060a01b031660005260205260406000209060018060a01b031660005260205260ff6040600020541690565b6002611e7c611dfd565b60046123fb611dfd565b6000928352016020526040902080546001600160a01b0319169055565b604051602081017f2070bae6b675801f0932481e70ab724699e22000dcf2efe36a44b6070d9ee8f1815260208252611e366040836117ff565b9080601f830112156104575781602061246c93359101611851565b90565b604051602081017ff158cb8b47a14bda3b2c4affcc0d960e9ed23f5a516e4779510b08a6e823c025815260208252611e366040836117ff565b6124b1816122c3565b8210156124e4576124c0612418565b9060018060a01b031660005260205260406000209060005260205260406000205490565b63295f44f760e21b60005260018060a01b031660045260245260446000fdfea2646970667358221220c0b8723fb10ed14bafceb8dc3886ee34bb00770411ba4f3eb215833b11baa35064736f6c634300081c0033",
  "linkReferences": {},
  "deployedLinkReferences": {}
}