{
  "_format": "hh-sol-artifact-1",
  "contractName": "SC_JP_DAOLLC",
  "sourceName": "contracts/SCT/functions/extentions/SC_JP_DAOLLC.sol",
  "abi": [
    {
      "inputs": [],
      "name": "AccessControlBadConfirmation",
      "type": "error"
    },
    {
      "inputs": [
        {
          "internalType": "address",
          "name": "account",
          "type": "address"
        },
        {
          "internalType": "bytes32",
          "name": "neededRole",
          "type": "bytes32"
        }
      ],
      "name": "AccessControlUnauthorizedAccount",
      "type": "error"
    },
    {
      "inputs": [
        {
          "internalType": "address",
          "name": "account",
          "type": "address"
        }
      ],
      "name": "InvalidAddress",
      "type": "error"
    },
    {
      "inputs": [],
      "name": "InvalidInitialization",
      "type": "error"
    },
    {
      "inputs": [
        {
          "internalType": "address",
          "name": "account",
          "type": "address"
        }
      ],
      "name": "InvalidRegister",
      "type": "error"
    },
    {
      "inputs": [
        {
          "internalType": "address",
          "name": "account",
          "type": "address"
        }
      ],
      "name": "NotFounderOrSCR",
      "type": "error"
    },
    {
      "inputs": [
        {
          "internalType": "address",
          "name": "account",
          "type": "address"
        }
      ],
      "name": "NotGovernanceOrFounder",
      "type": "error"
    },
    {
      "inputs": [],
      "name": "NotInitializing",
      "type": "error"
    },
    {
      "anonymous": false,
      "inputs": [
        {
          "indexed": false,
          "internalType": "uint64",
          "name": "version",
          "type": "uint64"
        }
      ],
      "name": "Initialized",
      "type": "event"
    },
    {
      "anonymous": false,
      "inputs": [
        {
          "indexed": true,
          "internalType": "address",
          "name": "company",
          "type": "address"
        },
        {
          "indexed": false,
          "internalType": "enum ServiceType[]",
          "name": "serviceTypes",
          "type": "uint8[]"
        },
        {
          "indexed": false,
          "internalType": "address[]",
          "name": "services",
          "type": "address[]"
        }
      ],
      "name": "RegisterService",
      "type": "event"
    },
    {
      "anonymous": false,
      "inputs": [
        {
          "indexed": true,
          "internalType": "bytes32",
          "name": "role",
          "type": "bytes32"
        },
        {
          "indexed": true,
          "internalType": "bytes32",
          "name": "previousAdminRole",
          "type": "bytes32"
        },
        {
          "indexed": true,
          "internalType": "bytes32",
          "name": "newAdminRole",
          "type": "bytes32"
        }
      ],
      "name": "RoleAdminChanged",
      "type": "event"
    },
    {
      "anonymous": false,
      "inputs": [
        {
          "indexed": true,
          "internalType": "bytes32",
          "name": "role",
          "type": "bytes32"
        },
        {
          "indexed": true,
          "internalType": "address",
          "name": "account",
          "type": "address"
        },
        {
          "indexed": true,
          "internalType": "address",
          "name": "sender",
          "type": "address"
        }
      ],
      "name": "RoleGranted",
      "type": "event"
    },
    {
      "anonymous": false,
      "inputs": [
        {
          "indexed": true,
          "internalType": "bytes32",
          "name": "role",
          "type": "bytes32"
        },
        {
          "indexed": true,
          "internalType": "address",
          "name": "account",
          "type": "address"
        },
        {
          "indexed": true,
          "internalType": "address",
          "name": "sender",
          "type": "address"
        }
      ],
      "name": "RoleRevoked",
      "type": "event"
    },
    {
      "inputs": [],
      "name": "DEFAULT_ADMIN_ROLE",
      "outputs": [
        {
          "internalType": "bytes32",
          "name": "",
          "type": "bytes32"
        }
      ],
      "stateMutability": "view",
      "type": "function"
    },
    {
      "inputs": [
        {
          "internalType": "address",
          "name": "account",
          "type": "address"
        }
      ],
      "name": "getInvestmentAmount",
      "outputs": [
        {
          "internalType": "uint256",
          "name": "investmentAmount",
          "type": "uint256"
        }
      ],
      "stateMutability": "view",
      "type": "function"
    },
    {
      "inputs": [
        {
          "internalType": "bytes32",
          "name": "role",
          "type": "bytes32"
        }
      ],
      "name": "getRoleAdmin",
      "outputs": [
        {
          "internalType": "bytes32",
          "name": "",
          "type": "bytes32"
        }
      ],
      "stateMutability": "view",
      "type": "function"
    },
    {
      "inputs": [
        {
          "internalType": "bytes32",
          "name": "role",
          "type": "bytes32"
        },
        {
          "internalType": "uint256",
          "name": "index",
          "type": "uint256"
        }
      ],
      "name": "getRoleMember",
      "outputs": [
        {
          "internalType": "address",
          "name": "",
          "type": "address"
        }
      ],
      "stateMutability": "view",
      "type": "function"
    },
    {
      "inputs": [
        {
          "internalType": "bytes32",
          "name": "role",
          "type": "bytes32"
        }
      ],
      "name": "getRoleMemberCount",
      "outputs": [
        {
          "internalType": "uint256",
          "name": "",
          "type": "uint256"
        }
      ],
      "stateMutability": "view",
      "type": "function"
    },
    {
      "inputs": [
        {
          "internalType": "bytes32",
          "name": "role",
          "type": "bytes32"
        }
      ],
      "name": "getRoleMembers",
      "outputs": [
        {
          "internalType": "address[]",
          "name": "",
          "type": "address[]"
        }
      ],
      "stateMutability": "view",
      "type": "function"
    },
    {
      "inputs": [],
      "name": "getSCR",
      "outputs": [
        {
          "internalType": "address",
          "name": "scr",
          "type": "address"
        }
      ],
      "stateMutability": "view",
      "type": "function"
    },
    {
      "inputs": [
        {
          "internalType": "enum ServiceType",
          "name": "serviceType",
          "type": "uint8"
        }
      ],
      "name": "getService",
      "outputs": [
        {
          "internalType": "address",
          "name": "service",
          "type": "address"
        }
      ],
      "stateMutability": "view",
      "type": "function"
    },
    {
      "inputs": [
        {
          "internalType": "bytes32",
          "name": "role",
          "type": "bytes32"
        },
        {
          "internalType": "address",
          "name": "account",
          "type": "address"
        }
      ],
      "name": "grantRole",
      "outputs": [],
      "stateMutability": "nonpayable",
      "type": "function"
    },
    {
      "inputs": [
        {
          "internalType": "bytes32",
          "name": "role",
          "type": "bytes32"
        },
        {
          "internalType": "address",
          "name": "account",
          "type": "address"
        }
      ],
      "name": "hasRole",
      "outputs": [
        {
          "internalType": "bool",
          "name": "",
          "type": "bool"
        }
      ],
      "stateMutability": "view",
      "type": "function"
    },
    {
      "inputs": [
        {
          "internalType": "address",
          "name": "founder",
          "type": "address"
        },
        {
          "internalType": "address",
          "name": "scr",
          "type": "address"
        },
        {
          "internalType": "bytes",
          "name": "",
          "type": "bytes"
        }
      ],
      "name": "initialize",
      "outputs": [],
      "stateMutability": "nonpayable",
      "type": "function"
    },
    {
      "inputs": [
        {
          "internalType": "enum ServiceType[]",
          "name": "serviceTypes",
          "type": "uint8[]"
        },
        {
          "internalType": "address[]",
          "name": "services",
          "type": "address[]"
        }
      ],
      "name": "registerService",
      "outputs": [
        {
          "internalType": "bool",
          "name": "completed",
          "type": "bool"
        }
      ],
      "stateMutability": "nonpayable",
      "type": "function"
    },
    {
      "inputs": [
        {
          "internalType": "bytes32",
          "name": "role",
          "type": "bytes32"
        },
        {
          "internalType": "address",
          "name": "callerConfirmation",
          "type": "address"
        }
      ],
      "name": "renounceRole",
      "outputs": [],
      "stateMutability": "nonpayable",
      "type": "function"
    },
    {
      "inputs": [
        {
          "internalType": "bytes32",
          "name": "role",
          "type": "bytes32"
        },
        {
          "internalType": "address",
          "name": "account",
          "type": "address"
        }
      ],
      "name": "revokeRole",
      "outputs": [],
      "stateMutability": "nonpayable",
      "type": "function"
    },
    {
      "inputs": [
        {
          "internalType": "address",
          "name": "account",
          "type": "address"
        },
        {
          "internalType": "uint256",
          "name": "investmentAmount",
          "type": "uint256"
        }
      ],
      "name": "setInvestmentAmount",
      "outputs": [],
      "stateMutability": "nonpayable",
      "type": "function"
    },
    {
      "inputs": [
        {
          "internalType": "bytes4",
          "name": "interfaceId",
          "type": "bytes4"
        }
      ],
      "name": "supportsInterface",
      "outputs": [
        {
          "internalType": "bool",
          "name": "",
          "type": "bool"
        }
      ],
      "stateMutability": "view",
      "type": "function"
    }
  ],
  "bytecode": "0x6080806040523460d2577ff0c57e16840df040f15088dc2f81fe391c3923bec73e23a9662efc9c229c6a005460ff8160401c1660c1576002600160401b03196001600160401b03821601605c575b60405161128790816100d88239f35b6001600160401b0319166001600160401b039081177ff0c57e16840df040f15088dc2f81fe391c3923bec73e23a9662efc9c229c6a005581527fc7f505b2f371ae2175ee4913f4499e1f2633a7b5936321eed1cdaeb6115181d290602090a13880604d565b63f92ee8a960e01b60005260046000fd5b600080fdfe608080604052600436101561001357600080fd5b60003560e01c90816301ffc9a714610b6257508063248a9ca314610b265780632d6fa4b214610aec5780632f2ff15d14610a1757806336568abe146109d15780633dbaac63146107c75780634035c372146107205780636c4cd58e146106e45780639010d07c1461069057806391d1485414610636578063a217fddf1461061a578063a3246ad314610558578063ca15c8731461051f578063cf7a1d77146101d4578063d547741f146100fd5763dd417318146100cf57600080fd5b346100f85760003660031901126100f8576000546040516001600160a01b039091168152602090f35b600080fd5b346100f85760403660031901126100f85761015e610119610be5565b600260005260016020526000805160206111f2833981519152546001600160a01b03161515806101a9575b8015610160575b610156903390610c5b565b600435610d9e565b005b50610169610d12565b7f7ed687a8f2955bd2ba7ca08227e1e364d132be747f42fb733165f923021b0225600090815260209182526040808220338352909252205460ff1661014b565b50600260005260016020526000805160206111f2833981519152546001600160a01b03163314610144565b346100f85760603660031901126100f8576101ed610bcf565b6101f5610be5565b60443567ffffffffffffffff81116100f857366023820112156100f857806004013567ffffffffffffffff81116100f857369101602401116100f857600080516020611232833981519152549167ffffffffffffffff60ff8460401c1615931680159081610517575b600114908161050d575b159081610504575b506104a6578261027e610caa565b6104d2575b6102b5604051610294604082610cda565b600f81526e63616c6c20696e697469616c697a6560881b6020820152610de2565b600080516020611232833981519152549167ffffffffffffffff60ff8460401c16159316801590816104ca575b60011490816104c0575b1590816104b7575b506104a65782610302610caa565b610474575b61033f604051610318604082610cda565b601581527463616c6c205f5f5343545f696e697469616c697a6560581b6020820152610de2565b60018060a01b03166bffffffffffffffffffffffff60a01b600054161760005561036881610e64565b610424575b506103cd575b61037957005b60ff60401b196000805160206112328339815191525416600080516020611232833981519152557fc7f505b2f371ae2175ee4913f4499e1f2633a7b5936321eed1cdaeb6115181d2602060405160018152a1005b60ff60401b196000805160206112328339815191525416600080516020611232833981519152557fc7f505b2f371ae2175ee4913f4499e1f2633a7b5936321eed1cdaeb6115181d2602060405160018152a1610373565b600080526000805160206111d283398151915260205261046d906001600160a01b03167f615f0f9e84155bea8cc509fe18befeb1baf65611e38a6ba60964480fb29dfd44611077565b508261036d565b600160401b60ff60401b1960008051602061123283398151915254161760008051602061123283398151915255610307565b63f92ee8a960e01b60005260046000fd5b905015856102f4565b303b1591506102ec565b8491506102e2565b600160401b60ff60401b1960008051602061123283398151915254161760008051602061123283398151915255610283565b90501584610270565b303b159150610268565b84915061025e565b346100f85760203660031901126100f8576004356000526000805160206111d28339815191526020526020604060002054604051908152f35b346100f85760203660031901126100f8576004356000526000805160206111d283398151915260205260406000206040518060208354918281520190819360005260206000209060005b81811061060457505050816105b8910382610cda565b6040519182916020830190602084525180915260408301919060005b8181106105e2575050500390f35b82516001600160a01b03168452859450602093840193909201916001016105d4565b82548452602090930192600192830192016105a2565b346100f85760003660031901126100f857602060405160008152f35b346100f85760403660031901126100f85761064f610be5565b60043560005260008051602061121283398151915260205260406000209060018060a01b0316600052602052602060ff604060002054166040519015158152f35b346100f85760403660031901126100f8576004356000526000805160206111d283398151915260205260206106cb602435604060002061105f565b905460405160039290921b1c6001600160a01b03168152f35b346100f85760203660031901126100f85760043560078110156100f8576020906001600160a01b039061071690610c2c565b5416604051908152f35b346100f85760403660031901126100f857610739610bcf565b3360009081527f1069ffe2b90bfd470f40f3bf820141bb4d4b475d03084db5dcfb8152047badf7602052604090205460ff161561078e576001600160a01b031660009081526002602052604090206024359055005b63e2517d3f60e01b600052336004527fe1dcbdb91df27212a29bc27177c840cf2f819ecf2187432e1fac86c2dd5dfca960245260446000fd5b346100f85760403660031901126100f85760043567ffffffffffffffff81116100f8576107f8903690600401610bfb565b60243567ffffffffffffffff81116100f857610818903690600401610bfb565b9092610822610d12565b7f7ed687a8f2955bd2ba7ca08227e1e364d132be747f42fb733165f923021b0225600090815260209182526040808220338352909252205460ff1680156109bd575b156109a8579160005b818110610930575060405192816040850160408652526060840190916000905b80821061090e57505060209150838103828501528281520192906000905b8082106108e457307f13157260a4148ffc4980f3238bd78ae2b3ed7c5847f3b750cf243a424ff9d5ec85870386a2602060405160018152f35b90919384359060018060a01b0382168092036100f8576020816001938293520195019201906108ab565b909183359060078210156100f85790815260209384019301916001019061088d565b61093e818487969496610c84565b356001600160a01b03811691908290036100f857811561099357610963818685610c84565b359160078310156100f857610979600193610c2c565b80546001600160a01b03191690911790559193910161086d565b50634726455360e11b60005260045260246000fd5b6359f6722160e01b6000523360045260246000fd5b506000546001600160a01b03163314610864565b346100f85760403660031901126100f8576109ea610be5565b336001600160a01b03821603610a065761015e90600435610d9e565b63334bd91960e11b60005260046000fd5b346100f85760403660031901126100f85761015e610a33610be5565b600260005260016020526000805160206111f2833981519152546001600160a01b0316151580610ac1575b8015610a78575b610a70903390610c5b565b600435610d56565b50610a81610d12565b7f7ed687a8f2955bd2ba7ca08227e1e364d132be747f42fb733165f923021b0225600090815260209182526040808220338352909252205460ff16610a65565b50600260005260016020526000805160206111f2833981519152546001600160a01b03163314610a5e565b346100f85760203660031901126100f8576001600160a01b03610b0d610bcf565b1660005260026020526020604060002054604051908152f35b346100f85760203660031901126100f8576004356000526000805160206112128339815191526020526020600160406000200154604051908152f35b346100f85760203660031901126100f8576004359063ffffffff60e01b82168092036100f857602091635a05180f60e01b8114908115610ba4575b5015158152f35b637965db0b60e01b811491508115610bbe575b5083610b9d565b6301ffc9a760e01b14905083610bb7565b600435906001600160a01b03821682036100f857565b602435906001600160a01b03821682036100f857565b9181601f840112156100f85782359167ffffffffffffffff83116100f8576020808501948460051b0101116100f857565b6007811015610c45576000526001602052604060002090565b634e487b7160e01b600052602160045260246000fd5b15610c635750565b632f3809d360e21b60009081526001600160a01b0391909116600452602490fd5b9190811015610c945760051b0190565b634e487b7160e01b600052603260045260246000fd5b600167ffffffffffffffff1960008051602061123283398151915254161760008051602061123283398151915255565b90601f8019910116810190811067ffffffffffffffff821117610cfc57604052565b634e487b7160e01b600052604160045260246000fd5b604051602081017fcf377bf0da9cb35454543c63ad54bf2c5a0466b629ac7517e61f8857cae0fa25815260208252610d4b604083610cda565b9051902060ff191690565b610d608282610f16565b9182610d6b57505090565b60009182526000805160206111d28339815191526020526040909120610d9a916001600160a01b031690611077565b5090565b610da88282610fbf565b9182610db357505090565b60009182526000805160206111d28339815191526020526040909120610d9a916001600160a01b0316906110e8565b604051602081019163104c13eb60e21b83526020602483015280519081604484015260005b828110610e4e5750509181610e3b6064828660008381998299010152601f801991011681010301601f198101835282610cda565b51906a636f6e736f6c652e6c6f675afa50565b8060208092840101516064828701015201610e07565b6001600160a01b03811660009081527fb7db2dd08fcb62d0c9e08c51941cae53c267786a0b75803fb7960902fc8ef97d602052604090205460ff16610f10576001600160a01b031660008181527fb7db2dd08fcb62d0c9e08c51941cae53c267786a0b75803fb7960902fc8ef97d60205260408120805460ff191660011790553391907f2f8788117e7eff1d82e926ec794901d17c78024a50270940304540a733656f0d8180a4600190565b50600090565b6000818152600080516020611212833981519152602090815260408083206001600160a01b038616845290915290205460ff16610fb8576000818152600080516020611212833981519152602090815260408083206001600160a01b0395909516808452949091528120805460ff19166001179055339291907f2f8788117e7eff1d82e926ec794901d17c78024a50270940304540a733656f0d9080a4600190565b5050600090565b6000818152600080516020611212833981519152602090815260408083206001600160a01b038616845290915290205460ff1615610fb8576000818152600080516020611212833981519152602090815260408083206001600160a01b0395909516808452949091528120805460ff19169055339291907ff6391f5c32d9c69d2a47ea670b442974b53935d1edc7fd64eb21e047a839171b9080a4600190565b8054821015610c945760005260206000200190600090565b60018101908260005281602052604060002054156000146110e0578054600160401b811015610cfc576110cb6110b482600187940185558461105f565b819391549060031b91821b91600019901b19161790565b90555491600052602052604060002055600190565b505050600090565b90600182019181600052826020526040600020548015156000146111c85760001981018181116111b25782546000198101919082116111b25781810361117b575b50505080548015611165576000190190611143828261105f565b8154906000199060031b1b191690555560005260205260006040812055600190565b634e487b7160e01b600052603160045260246000fd5b61119b61118b6110b4938661105f565b90549060031b1c9283928661105f565b905560005283602052604060002055388080611129565b634e487b7160e01b600052601160045260246000fd5b5050505060009056fec1f6fe24621ce81ec5827caf0253cadb74709b061630e6b55e82371705932000d9d16d34ffb15ba3a3d852f0d403e2ce1d691fb54de27ac87cd2f993f3ec330f02dd7bc7dec4dceedda775e58dd541e08a116c6c53815c0bd028192f7b626800f0c57e16840df040f15088dc2f81fe391c3923bec73e23a9662efc9c229c6a00a2646970667358221220fc8d46bd07c80a84925ce65c804edc90a6ae93bcd1446afdad4ac5c0e59fde9964736f6c634300081c0033",
  "linkReferences": {},
  "deployedLinkReferences": {}
}