{
  "_format": "hh-sol-artifact-1",
  "contractName": "Governance_JP_LLC",
  "sourceName": "contracts/sc/Services/Governance/functions/extensions/Governance_JP_LLC.sol",
  "abi": [
    {
      "inputs": [
        {
          "internalType": "address",
          "name": "executor",
          "type": "address"
        },
        {
          "internalType": "uint256",
          "name": "transactionId",
          "type": "uint256"
        }
      ],
      "name": "AlreadyApproved",
      "type": "error"
    },
    {
      "inputs": [],
      "name": "AlreadyInitialized",
      "type": "error"
    },
    {
      "inputs": [
        {
          "internalType": "uint256",
          "name": "transactionId",
          "type": "uint256"
        }
      ],
      "name": "ExecuteFailed",
      "type": "error"
    },
    {
      "inputs": [
        {
          "internalType": "uint256",
          "name": "numerator",
          "type": "uint256"
        },
        {
          "internalType": "uint256",
          "name": "denominator",
          "type": "uint256"
        }
      ],
      "name": "InvalidNumeratorOrDenominator",
      "type": "error"
    },
    {
      "inputs": [
        {
          "internalType": "enum IGovernanceServiceStructs.ProposalLevel",
          "name": "proposalLevel",
          "type": "uint8"
        }
      ],
      "name": "InvalidProposalLevel",
      "type": "error"
    },
    {
      "inputs": [
        {
          "internalType": "address",
          "name": "executor",
          "type": "address"
        }
      ],
      "name": "NotExecutionMember",
      "type": "error"
    },
    {
      "inputs": [
        {
          "internalType": "address",
          "name": "executor",
          "type": "address"
        },
        {
          "internalType": "uint256",
          "name": "transactionId",
          "type": "uint256"
        }
      ],
      "name": "NotExecutor",
      "type": "error"
    },
    {
      "inputs": [
        {
          "internalType": "address",
          "name": "caller",
          "type": "address"
        }
      ],
      "name": "NotGovernanceContract",
      "type": "error"
    },
    {
      "inputs": [
        {
          "internalType": "uint256",
          "name": "transactionId",
          "type": "uint256"
        }
      ],
      "name": "NotInVotePeriod",
      "type": "error"
    },
    {
      "inputs": [
        {
          "internalType": "address",
          "name": "executor",
          "type": "address"
        }
      ],
      "name": "NotSCorLETS",
      "type": "error"
    },
    {
      "inputs": [
        {
          "internalType": "address",
          "name": "sender",
          "type": "address"
        }
      ],
      "name": "NotTokenHolder",
      "type": "error"
    },
    {
      "inputs": [
        {
          "internalType": "uint256",
          "name": "transactionId",
          "type": "uint256"
        }
      ],
      "name": "ThresholdNotReached",
      "type": "error"
    },
    {
      "anonymous": false,
      "inputs": [
        {
          "indexed": true,
          "internalType": "address",
          "name": "initializer",
          "type": "address"
        }
      ],
      "name": "GovernanceInitialized",
      "type": "event"
    },
    {
      "anonymous": false,
      "inputs": [
        {
          "indexed": false,
          "internalType": "uint256",
          "name": "transactionId",
          "type": "uint256"
        },
        {
          "indexed": false,
          "internalType": "address",
          "name": "executor",
          "type": "address"
        }
      ],
      "name": "TransactionApproved",
      "type": "event"
    },
    {
      "anonymous": false,
      "inputs": [
        {
          "indexed": false,
          "internalType": "uint256",
          "name": "transactionId",
          "type": "uint256"
        }
      ],
      "name": "TransactionCancelled",
      "type": "event"
    },
    {
      "anonymous": false,
      "inputs": [
        {
          "indexed": false,
          "internalType": "uint256",
          "name": "transactionId",
          "type": "uint256"
        }
      ],
      "name": "TransactionCreated",
      "type": "event"
    },
    {
      "anonymous": false,
      "inputs": [
        {
          "indexed": false,
          "internalType": "uint256",
          "name": "transactionId",
          "type": "uint256"
        }
      ],
      "name": "TransactionExecuted",
      "type": "event"
    },
    {
      "inputs": [
        {
          "internalType": "uint256",
          "name": "transactionId",
          "type": "uint256"
        }
      ],
      "name": "approveTransaction",
      "outputs": [],
      "stateMutability": "nonpayable",
      "type": "function"
    },
    {
      "inputs": [
        {
          "internalType": "uint256",
          "name": "transactionId_",
          "type": "uint256"
        }
      ],
      "name": "cancelTransaction",
      "outputs": [],
      "stateMutability": "nonpayable",
      "type": "function"
    },
    {
      "inputs": [
        {
          "internalType": "uint256",
          "name": "transactionId",
          "type": "uint256"
        }
      ],
      "name": "execute",
      "outputs": [],
      "stateMutability": "nonpayable",
      "type": "function"
    },
    {
      "inputs": [
        {
          "internalType": "uint256",
          "name": "transactionId",
          "type": "uint256"
        }
      ],
      "name": "getTransaction",
      "outputs": [
        {
          "components": [
            {
              "internalType": "uint256",
              "name": "value",
              "type": "uint256"
            },
            {
              "internalType": "bytes",
              "name": "data",
              "type": "bytes"
            },
            {
              "internalType": "address",
              "name": "to",
              "type": "address"
            },
            {
              "internalType": "address",
              "name": "executor",
              "type": "address"
            },
            {
              "internalType": "bool",
              "name": "executed",
              "type": "bool"
            },
            {
              "internalType": "bool",
              "name": "cancelled",
              "type": "bool"
            },
            {
              "internalType": "uint256",
              "name": "totalMember",
              "type": "uint256"
            },
            {
              "internalType": "uint256",
              "name": "approvalCount",
              "type": "uint256"
            },
            {
              "internalType": "uint256",
              "name": "voteStart",
              "type": "uint256"
            },
            {
              "internalType": "uint256",
              "name": "voteEnd",
              "type": "uint256"
            },
            {
              "internalType": "uint256",
              "name": "createdAt",
              "type": "uint256"
            },
            {
              "components": [
                {
                  "internalType": "uint256",
                  "name": "numerator",
                  "type": "uint256"
                },
                {
                  "internalType": "uint256",
                  "name": "denominator",
                  "type": "uint256"
                },
                {
                  "internalType": "enum IGovernanceServiceStructs.ProposalLevel",
                  "name": "proposalLevel",
                  "type": "uint8"
                },
                {
                  "internalType": "address[]",
                  "name": "proposalMemberContracts",
                  "type": "address[]"
                }
              ],
              "internalType": "struct IGovernanceServiceStructs.ProposalInfo",
              "name": "proposalInfo",
              "type": "tuple"
            }
          ],
          "internalType": "struct IGovernanceServiceStructs.Transaction",
          "name": "",
          "type": "tuple"
        }
      ],
      "stateMutability": "view",
      "type": "function"
    },
    {
      "inputs": [
        {
          "internalType": "address",
          "name": "dictionary",
          "type": "address"
        }
      ],
      "name": "initialize",
      "outputs": [],
      "stateMutability": "nonpayable",
      "type": "function"
    },
    {
      "inputs": [
        {
          "internalType": "uint256",
          "name": "value",
          "type": "uint256"
        },
        {
          "internalType": "bytes",
          "name": "data",
          "type": "bytes"
        },
        {
          "internalType": "address",
          "name": "to",
          "type": "address"
        },
        {
          "internalType": "address",
          "name": "executor",
          "type": "address"
        },
        {
          "internalType": "enum IGovernanceServiceStructs.ProposalLevel",
          "name": "proposalLevel",
          "type": "uint8"
        },
        {
          "internalType": "uint256",
          "name": "voteStart",
          "type": "uint256"
        },
        {
          "internalType": "uint256",
          "name": "voteEnd",
          "type": "uint256"
        },
        {
          "internalType": "address[]",
          "name": "proposalMemberContracts",
          "type": "address[]"
        }
      ],
      "name": "registerTransaction",
      "outputs": [],
      "stateMutability": "nonpayable",
      "type": "function"
    },
    {
      "inputs": [
        {
          "internalType": "uint256",
          "name": "value",
          "type": "uint256"
        },
        {
          "internalType": "bytes",
          "name": "data",
          "type": "bytes"
        },
        {
          "internalType": "address",
          "name": "to",
          "type": "address"
        },
        {
          "internalType": "address",
          "name": "executor",
          "type": "address"
        },
        {
          "internalType": "enum IGovernanceServiceStructs.ProposalLevel",
          "name": "proposalLevel",
          "type": "uint8"
        },
        {
          "internalType": "uint256",
          "name": "numerator",
          "type": "uint256"
        },
        {
          "internalType": "uint256",
          "name": "denominator",
          "type": "uint256"
        },
        {
          "internalType": "uint256",
          "name": "voteStart",
          "type": "uint256"
        },
        {
          "internalType": "uint256",
          "name": "voteEnd",
          "type": "uint256"
        },
        {
          "internalType": "address[]",
          "name": "proposalMemberContracts",
          "type": "address[]"
        }
      ],
      "name": "registerTransactionWithCustomThreshold",
      "outputs": [],
      "stateMutability": "nonpayable",
      "type": "function"
    }
  ],
  "bytecode": "0x60808060405234601557611814908161001b8239f35b600080fdfe6080604052600436101561001257600080fd5b6000803560e01c8063242232d114610b8e5780633380c0d814610b2557806333ea3dc81461075957806374d8c2fe146106615780639b0595b814610544578063c4d66de8146103485763fe0d94c11461006a57600080fd5b3461034557602036600319011261034557600435600161008861143d565b8284520160205260408220600301546001600160a01b0316330361032f5760016100b061143d565b01818352602052604082206040516100c7816111ee565b81548152600182016040519081868254926100e18461136d565b808452936001811690811561030d57506001146102cc575b506101069250038261123d565b602082015260018060a01b03600283015416604082015260ff600383015460018060a01b0381166060840152818160a01c161515608084015260a81c16151560a082015260048201549160c08201928352600581015460e08301908152600682015461010084015260078201546101208401526008820154610140840152604051809361019282611221565b60098401548252600c600a85015494602084019586526101bc60ff600b83015416604086016113a7565b016040519081602082549182815201918b5260208b20908b5b8181106102aa57505050906101f0816101609493038261123d565b6060840152015251925191519051918181029181830414901517156102965781156102825704116102705760207f15ed165a284872ea7017f03df402a0cadfbfab588320ffaf83f160c2f82781c791600161024961143d565b8286520182526040808520600301805460ff60a01b1916600160a01b17905551908152a180f35b63b67ad30160e01b8252600452602490fd5b634e487b7160e01b85526012600452602485fd5b634e487b7160e01b85526011600452602485fd5b82546001600160a01b03168452899650602090930192600192830192016101d5565b88525060208720909187915b8183106102f157505090602061010692820101386100f9565b60209193508060019154838588010152019101909183926102d8565b90506020925061010694915060ff191682840152151560051b820101386100f9565b6301841ad560e11b825233600452602452604490fd5b80fd5b5034610345576020366003190112610345576004356001600160a01b038116908190036105405760ff604051602081017ff158cb8b47a14bda3b2c4affcc0d960e9ed23f5a516e4779510b08a6e823c0258152602082526103aa60408361123d565b82199151902016541661053257604051906103c660e08361123d565b600682526020820160c036823782511561051e5763fe0d94c160e01b815282516001101561051e5763242232d160e01b604084015282516002101561051e57631360b2b760e31b606084015282516003101561051e57633a6c617f60e11b608084015282516004101561051e57630670181b60e31b60a084015282516005101561051e5763067d47b960e31b60c0840152813b1561051a57918380936040519384916323c45f6760e01b835260448301946040600485015251809552606483019094845b8181106104f45750508380955083809230602483015203925af180156104e7576104d7575b337f0fddcb2d6b432d88fa1341d93d6de07ba96f9158932179c2086e052f13ef61528280a280f35b6104e09161123d565b81816104af565b50604051903d90823e3d90fd5b86516001600160e01b03191683526020968701968996508895509092019160010161048a565b8380fd5b634e487b7160e01b84526032600452602484fd5b62dc149f60e41b8252600482fd5b5080fd5b5034610345576101003660031901126103455760243567ffffffffffffffff81116105405761057790369060040161125f565b906105806112bb565b6105886112d1565b9060843593600385101561051a5760e43567ffffffffffffffff811161065d576105b69036906004016112ff565b85159390858588811561064e575b6105cd91611418565b61063a576106118697610626975086600014610632576002965b156106295760ff60035b81604051996105ff8b611221565b168952166020880152604087016113a7565b606085015260c4359260a43592600435611498565b80f35b60ff60026105f1565b6001966105e7565b634e487b7160e01b86526021600452602486fd5b508791505060018814886105c4565b8480fd5b5034610345576101403660031901126103455760243567ffffffffffffffff81116105405761069490369060040161125f565b9061069d6112bb565b6106a56112d1565b9060843593600385101561051a5760a4359260c435956101243567ffffffffffffffff8111610755576106dc9036906004016112ff565b906106eb816002811015611418565b8515158061074c575b156107355761071f9061062697986040519761070f89611221565b88526020880152604087016113a7565b6060850152610104359260e43592600435611498565b60448789886302d5328360e01b8352600452602452fd5b508715156106f4565b8680fd5b503461034557602036600319011261034557604051610777816111ee565b818152606060208201528160408201528160608201528160808201528160a08201528160c08201528160e0820152816101008201528161012082015281610140820152610160604051916107ca83611221565b838352836020840152836040840152606080840152015260016107eb61143d565b016004358252602052604081209060405190610806826111ee565b8254825260018301926040519384838254926108218461136d565b8084529360018116908115610b035750600114610ac2575b506108469250038561123d565b6020830193845260018060a01b0360028201541692604081019384526003820154606082019060018060a01b0381168252608083019060ff8160a01c161515825260ff60a085019160a81c1615158152600485015460c0850190815260058601549160e08601928352600687015493610100870194855260078801549561012088019687526008890154976101408101988952600c6040519a6108e88c611221565b60098101548c52600a81015460208d015261090e8c604060ff600b8501541691016113a7565b018b6040518092839160208254918281520191845260208420935b818110610aa057505061093e9250038261123d565b60608b01526101608101998a526040519c8d91602083525160208301525161018060408301528b815183816101a081960152825b828110610a8257506101c0929350010152601f80199101168c019a60018060a01b0390511660608d015260018060a01b0390511660808c015251151560a08b015251151560c08a01525160e0890152516101008801525161012087015251610140860152516101608501525190601f196101c0858503010161018085015261024083019180516101c085015260208101516101e085015260408101516003811015610a6e5761026060608695936020936102008a99015201519460806102208201528551809452019301915b818110610a4c575050500390f35b82516001600160a01b0316845285945060209384019390920191600101610a3e565b634e487b7160e01b83526021600452602483fd5b9150602092506101c0828481870101519201015201828f8e92610972565b84546001600160a01b0316835260019485019486945060209093019201610929565b85525060208420909184915b818310610ae75750509060206108469282010138610839565b6020919350806001915483858b01015201910190918692610ace565b90506020925061084694915060ff191682840152151560051b82010138610839565b5034610345576020366003190112610345577f956fb32199d8b882b2039a14e1be35ab14f7a80b9089fc223f14b43937173e6060206004356001610b6761143d565b8286520182526040808520600301805460ff60a81b1916600160a81b17905551908152a180f35b5034610345576020366003190112610345576004356002610bad61143d565b828452016020908152604080842033855290915282205460ff166111d8576001610bd561143d565b018183526020526040822060405190610bed826111ee565b8054825260018101604051908186825492610c078461136d565b80845293600181169081156111b65750600114611175575b50610c2c9250038261123d565b602083015260018060a01b03600282015416604083015260ff600382015460018060a01b0381166060850152818160a01c161515608085015260a81c16151560a0830152600481015460c0830152600581015460e0830152600681015490610100830191825260078101549261012081019384526008820154610140820152600c60405192610cba84611221565b60098101548452600a8101546020850152610cdf60ff600b83015416604086016113a7565b0160405190816020825491828152019189526020892090895b8181106111565750505090610d13816101609493038261123d565b6060840152015251421015908161114a575b50156111385781906001610d3761143d565b018184526020526040832060405190610d4f826111ee565b8054825260018101604051908187825492610d698461136d565b808452936001811690811561111657506001146110d5575b50610d8e9250038261123d565b602083015260018060a01b03600282015416604083015260ff600382015460018060a01b0381166060850152818160a01c161515608085015260a81c16151560a0830152600481015460c0830152600581015460e0830152600681015461010083015260078101546101208301526008810154610140830152600c60405191610e1683611221565b60098101548352600a8101546020840152610e3b60ff600b83015416604085016113a7565b0191604051809384916020825491828152019189526020892090895b8181106110b3575050506101609291610e7191038561123d565b606083019384520152519083915b80518310156110aa57602490856001600160a01b03610e9e86846113c9565b511660405193848092635de6dc5560e01b82523360048301525afa91821561109f578692611004575b50855b86868451831015610ff8575050610ee181846113c9565b516006604051602081017f0cee7785c9739c2abcb4ce591dada6e864d6d906251746912d12a62bb828bf68815260208252610f1d60408361123d565b60ff199151902016019088526020524260408820541115610f4057600101610eca565b509293505083600193845b610f5a57600101929050610e7f565b50509190505b15610fe55760407f924813d717e221b5f46dcd8a56da1679e4612584ab3237d55e5faabf6f6a3079916002610f9361143d565b8286520160209081528285203386529052818420805460ff19166001908117909155610fbd61143d565b01818552602052600582852001610fd481546113f3565b90558151908152336020820152a180f35b635b9d0f5f60e01b825233600452602482fd5b91509250939093610f4b565b9091503d8087833e611016818361123d565b8101906020818303126107555780519067ffffffffffffffff821161109b57019080601f8301121561075557815161104d816112e7565b9261105b604051948561123d565b81845260208085019260051b82010192831161109757602001905b828210611087575050509038610ec7565b8151815260209182019101611076565b8880fd5b8780fd5b6040513d88823e3d90fd5b50919050610f60565b82546001600160a01b0316845287945060209093019260019283019201610e57565b89525060208820909188915b8183106110fa575050906020610d8e9282010138610d81565b60209193508060019154838588010152019101909183926110e1565b905060209250610d8e94915060ff191682840152151560051b82010138610d81565b6343296c1960e11b8252600452602490fd5b90505142111538610d25565b82546001600160a01b0316845260209093019260019283019201610cf8565b88525060208720909187915b81831061119a575050906020610c2c9282010138610c1f565b6020919350806001915483858801015201910190918392611181565b905060209250610c2c94915060ff191682840152151560051b82010138610c1f565b633799aba760e01b825233600452602452604490fd5b610180810190811067ffffffffffffffff82111761120b57604052565b634e487b7160e01b600052604160045260246000fd5b6080810190811067ffffffffffffffff82111761120b57604052565b90601f8019910116810190811067ffffffffffffffff82111761120b57604052565b81601f820112156112b65780359067ffffffffffffffff821161120b5760405192611294601f8401601f19166020018561123d565b828452602083830101116112b657816000926020809301838601378301015290565b600080fd5b604435906001600160a01b03821682036112b657565b606435906001600160a01b03821682036112b657565b67ffffffffffffffff811161120b5760051b60200190565b9080601f830112156112b657813590611317826112e7565b92611325604051948561123d565b82845260208085019360051b8201019182116112b657602001915b81831061134d5750505090565b82356001600160a01b03811681036112b657815260209283019201611340565b90600182811c9216801561139d575b602083101461138757565b634e487b7160e01b600052602260045260246000fd5b91607f169161137c565b60038210156113b35752565b634e487b7160e01b600052602160045260246000fd5b80518210156113dd5760209160051b010190565b634e487b7160e01b600052603260045260246000fd5b60001981146114025760010190565b634e487b7160e01b600052601160045260246000fd5b156114205750565b63adad481b60e01b60005260038110156113b35760045260246000fd5b604051602081017f75369ef0670b5a975ee687632c3532201fdd029ec7a2dbdd1dd2b7b823d908c381526020825261147660408361123d565b9051902060ff191690565b81811061148c575050565b60008155600101611481565b949195939092956114a761143d565b6114b181546113f3565b90556114bb61143d565b549660608601515190604051976114d1896111ee565b8852602088019586526001600160a01b039283166040890190815292166060880190815260006080890181815260a08a0182815260c08b0194855260e08b019283526101008b019687526101208b01978852426101408c019081526101608c019a8b529892959092600161154361143d565b018d60005260205260406000209b518c5560018c01905180519067ffffffffffffffff821161120b578190611578845461136d565b601f81116117a1575b50602090601f831160011461173c57600092611731575b50508160011b916000199060031b1c19161790555b5160028b0180546001600160a01b0319166001600160a01b0392831617905592516003808c018054935194516001600160b01b0319909416929095169190911792151560a01b60ff60a01b169290921790151560a81b60ff60a81b161790915590516004880155905160058701559051600686015590516007850155905160088401559051805160098401556020810151600a8401556040810151929091600b8201908410156113b357606091600c9160009560ff80198354169116179055019101519182519267ffffffffffffffff841161171d5768010000000000000000841161171d576020908354858555808610611703575b500191815260208120905b8381106116e6575050505060207f20249019acac6e99959366f842671611cd943aa8071804678030725f38bc787e91604051908152a1565b82516001600160a01b0316818301556020909201916001016116ae565b848452828420611717918101908701611481565b386116a3565b634e487b7160e01b82526041600452602482fd5b015190503880611598565b60008581528281209350601f198516905b8181106117895750908460019594939210611770575b505050811b0190556115ad565b015160001960f88460031b161c19169055388080611763565b9293602060018192878601518155019501930161174d565b6117ce90856000526020600020601f850160051c810191602086106117d4575b601f0160051c0190611481565b38611581565b90915081906117c156fea2646970667358221220c950e5013c18c1b4407afa0beffbc9fbf695d8f2256fcf860d49a46b7aba908164736f6c634300081c0033",
  "linkReferences": {},
  "deployedLinkReferences": {}
}