{
  "_format": "hh-sol-artifact-1",
  "contractName": "LETS_JP_LLC_SALE",
  "sourceName": "contracts/sc/Services/LETS/functions/extentions/LETS_JP_LLC/LETS_JP_LLC_SALE.sol",
  "abi": [
    {
      "inputs": [],
      "name": "AlreadyInitialized",
      "type": "error"
    },
    {
      "inputs": [
        {
          "internalType": "address",
          "name": "caller",
          "type": "address"
        }
      ],
      "name": "AlreadyPurchased",
      "type": "error"
    },
    {
      "inputs": [
        {
          "internalType": "address",
          "name": "operator",
          "type": "address"
        },
        {
          "internalType": "uint256",
          "name": "tokenId",
          "type": "uint256"
        }
      ],
      "name": "ERC721InsufficientApproval",
      "type": "error"
    },
    {
      "inputs": [
        {
          "internalType": "address",
          "name": "approver",
          "type": "address"
        }
      ],
      "name": "ERC721InvalidApprover",
      "type": "error"
    },
    {
      "inputs": [
        {
          "internalType": "address",
          "name": "owner",
          "type": "address"
        }
      ],
      "name": "ERC721InvalidOwner",
      "type": "error"
    },
    {
      "inputs": [
        {
          "internalType": "address",
          "name": "receiver",
          "type": "address"
        }
      ],
      "name": "ERC721InvalidReceiver",
      "type": "error"
    },
    {
      "inputs": [
        {
          "internalType": "address",
          "name": "sender",
          "type": "address"
        }
      ],
      "name": "ERC721InvalidSender",
      "type": "error"
    },
    {
      "inputs": [
        {
          "internalType": "uint256",
          "name": "tokenId",
          "type": "uint256"
        }
      ],
      "name": "ERC721NonexistentToken",
      "type": "error"
    },
    {
      "inputs": [
        {
          "internalType": "uint256",
          "name": "minPrice",
          "type": "uint256"
        },
        {
          "internalType": "uint256",
          "name": "maxPrice",
          "type": "uint256"
        },
        {
          "internalType": "uint256",
          "name": "sendValue",
          "type": "uint256"
        }
      ],
      "name": "InsufficientFunds",
      "type": "error"
    },
    {
      "inputs": [],
      "name": "InvalidSalePeriod",
      "type": "error"
    },
    {
      "inputs": [
        {
          "internalType": "address",
          "name": "caller",
          "type": "address"
        }
      ],
      "name": "NotLetsSaleDeployer",
      "type": "error"
    },
    {
      "inputs": [
        {
          "internalType": "uint256",
          "name": "saleStart",
          "type": "uint256"
        },
        {
          "internalType": "uint256",
          "name": "saleEnd",
          "type": "uint256"
        }
      ],
      "name": "NotSaleActive",
      "type": "error"
    },
    {
      "inputs": [
        {
          "internalType": "address",
          "name": "sender",
          "type": "address"
        }
      ],
      "name": "NotTreasuryRole",
      "type": "error"
    },
    {
      "anonymous": false,
      "inputs": [
        {
          "indexed": true,
          "internalType": "address",
          "name": "owner",
          "type": "address"
        },
        {
          "indexed": true,
          "internalType": "address",
          "name": "approved",
          "type": "address"
        },
        {
          "indexed": true,
          "internalType": "uint256",
          "name": "tokenId",
          "type": "uint256"
        }
      ],
      "name": "Approval",
      "type": "event"
    },
    {
      "anonymous": false,
      "inputs": [
        {
          "indexed": true,
          "internalType": "address",
          "name": "initializer",
          "type": "address"
        }
      ],
      "name": "LETSSaleBaseInitialized",
      "type": "event"
    },
    {
      "anonymous": false,
      "inputs": [
        {
          "indexed": false,
          "internalType": "uint256",
          "name": "tokenId",
          "type": "uint256"
        },
        {
          "indexed": false,
          "internalType": "address",
          "name": "to",
          "type": "address"
        },
        {
          "indexed": false,
          "internalType": "uint256",
          "name": "price",
          "type": "uint256"
        }
      ],
      "name": "TokenPurchased",
      "type": "event"
    },
    {
      "anonymous": false,
      "inputs": [
        {
          "indexed": true,
          "internalType": "address",
          "name": "from",
          "type": "address"
        },
        {
          "indexed": true,
          "internalType": "address",
          "name": "to",
          "type": "address"
        },
        {
          "indexed": true,
          "internalType": "uint256",
          "name": "tokenId",
          "type": "uint256"
        }
      ],
      "name": "Transfer",
      "type": "event"
    },
    {
      "inputs": [
        {
          "internalType": "address",
          "name": "dictionary",
          "type": "address"
        }
      ],
      "name": "initialize",
      "outputs": [],
      "stateMutability": "nonpayable",
      "type": "function"
    },
    {
      "inputs": [
        {
          "internalType": "address",
          "name": "to",
          "type": "address"
        }
      ],
      "name": "offerToken",
      "outputs": [],
      "stateMutability": "payable",
      "type": "function"
    },
    {
      "inputs": [
        {
          "internalType": "bool",
          "name": "hasSalePeriod",
          "type": "bool"
        }
      ],
      "name": "updateHasSalePeriod",
      "outputs": [],
      "stateMutability": "nonpayable",
      "type": "function"
    },
    {
      "inputs": [
        {
          "internalType": "bool",
          "name": "isPriceRange",
          "type": "bool"
        }
      ],
      "name": "updateIsPriceRange",
      "outputs": [],
      "stateMutability": "nonpayable",
      "type": "function"
    },
    {
      "inputs": [
        {
          "internalType": "uint256",
          "name": "fixedPrice",
          "type": "uint256"
        },
        {
          "internalType": "uint256",
          "name": "minPrice",
          "type": "uint256"
        },
        {
          "internalType": "uint256",
          "name": "maxPrice",
          "type": "uint256"
        }
      ],
      "name": "updatePrice",
      "outputs": [],
      "stateMutability": "nonpayable",
      "type": "function"
    },
    {
      "inputs": [
        {
          "internalType": "uint256",
          "name": "saleStart",
          "type": "uint256"
        },
        {
          "internalType": "uint256",
          "name": "saleEnd",
          "type": "uint256"
        }
      ],
      "name": "updateSalePeriod",
      "outputs": [],
      "stateMutability": "nonpayable",
      "type": "function"
    },
    {
      "inputs": [],
      "name": "withdraw",
      "outputs": [],
      "stateMutability": "nonpayable",
      "type": "function"
    }
  ],
  "bytecode": "0x60808060405234601557610d54908161001b8239f35b600080fdfe608080604052600436101561001357600080fd5b60003560e01c9081630bf4a18214610ac6575080630f43612914610a255780633ccfd60b146109885780637bef1c35146103c5578063c4d66de8146101cb578063f797ca43146101255763fc7da9a91461006c57600080fd5b34610120576040366003190112610120576004356024359060405160208101600080516020610cff8339815191528152602082526100ab604083610bbe565b60ff199151902016600080516020610cdf833981519152600052602052604060002060018060a01b0333166000526020526100ef604060002060ff33915416610b71565b8082111561010f57600290610102610be0565b9060018201550155600080f35b631d18ab0b60e11b60005260046000fd5b600080fd5b34610120576020366003190112610120576004358015158091036101205760405160208101600080516020610cff83398151915281526020825261016a604083610bbe565b60ff199151902016600080516020610cdf833981519152600052602052604060002060018060a01b0333166000526020526101ae604060002060ff33915416610b71565b60066101b8610be0565b019060ff80198354169116179055600080f35b34610120576020366003190112610120576004356001600160a01b038116908190036101205760ff604051602081017ff158cb8b47a14bda3b2c4affcc0d960e9ed23f5a516e4779510b08a6e823c02581526020825261022c604083610bbe565b8219915190201654166103b55760405161024760e082610bbe565b600681526020810160c036823781511561039f57637bef1c3560e01b905280516001101561039f57633ccfd60b60e01b604082015280516002101561039f5763fc7da9a960e01b606082015280516003101561039f5763f797ca4360e01b608082015280516004101561039f57630f43612960e01b60a082015280516005101561039f576305fa50c160e11b60c082015260005b815181101561037757600082518210156103635750600581901b8201602001516001600160e01b03191690833b156101205760405191630815f6fd60e01b8352600483015230602483015260008260448183885af191821561035757600192610346575b50016102db565b600061035191610bbe565b8461033f565b6040513d6000823e3d90fd5b634e487b7160e01b81526032600452602490fd5b337fe001193f99c23bcf1352f0922ecb0692a3aa86a64d1a51b6922361820821ddd9600080a2005b634e487b7160e01b600052603260045260246000fd5b62dc149f60e41b60005260046000fd5b6020366003190112610120576004356001600160a01b038116808203610120576103ed610be0565b60ff600682015416610942575b5061040c610406610be0565b92610c24565b61092e5750600681015460081c60ff161561091657806004610441920154803410159081610907575b60053493015491610b9a565b610449610be0565b805460001981146108f1576001018091556020906040519061046b8383610bbe565b6000825233156108db5760006002610481610c6c565b83835201845260409020546001600160a01b031691821580159081610882575b60036104ab610c6c565b33600090815291018752604090208054600101905560026104ca610c6c565b018460005286526040600020336bffffffffffffffffffffffff60a01b8254161790558333867fddf252ad1be2c89b69c2b068fc378daa952ba7f163c4a11628f55a4df523b3ef600080a4156107d2576002610524610ca5565b01546003610530610ca5565b018460005286526040600020556002610547610ca5565b01805490680100000000000000008210156107bc5760018201815560009080548310156107a8578152869020018390555b6000933303610749575b61073557333b6105c8575b5060607f1cb6dd09e77cf64c9d88c8e0cf8555ebff062045f2068f22efcbc60905730e7191846040519182523390820152346040820152a180f35b836040518092630a85bd0160e11b82523360048301528560248301528460448301526080606483015280519081608484015283875b83811061071d5750505081818760a4809484010152601f8019910116810103018186335af18391816106d9575b506106a25750503d1561069b573d67ffffffffffffffff8111610687576040519061065e601f8201601f1916850183610bbe565b81523d828483013e5b8051928361068257633250574960e11b835233600452602483fd5b019050fd5b634e487b7160e01b82526041600452602482fd5b6060610667565b919290916001600160e01b03191663757a42ff60e11b016106c6579190606061058d565b633250574960e11b835233600452602483fd5b9091508481813d8311610716575b6106f18183610bbe565b8101031261071257516001600160e01b03198116810361071257908561062a565b8380fd5b503d6106e7565b82810182015187820160a401528694508591016105fd565b6339e3563760e11b83526004839052602483fd5b61075233610c24565b600019810190811161079457610766610ca5565b33865286526040808620828752875285208490556001610784610ca5565b0184865286526040852055610582565b634e487b7160e01b85526011600452602485fd5b634e487b7160e01b82526032600452602482fd5b634e487b7160e01b600052604160045260246000fd5b338414610578576107e284610c24565b60016107ec610ca5565b01846000528652604060002054906040610804610ca5565b6001600160a01b0388166000908152908952209181810361084a575b50600161082b610ca5565b0185600052875260006040812055600052855260006040812055610578565b816000528288526040600020548160005283895280604060002055600161086f610ca5565b0190600052885260406000205587610820565b600461088c610c6c565b0184600052865260406000206bffffffffffffffffffffffff60a01b815416905560036108b7610c6c565b6001600160a01b0387166000908152910187526040902080546000190190556104a1565b633250574960e11b600052600060045260246000fd5b634e487b7160e01b600052601160045260246000fd5b60058301543411159150610435565b6003610929910154349080803414610b9a565b610441565b6367e667af60e11b60005260045260246000fd5b6001810154804210159182610979575b60020154911561096257506103fa565b6306e70a4760e51b60005260045260245260446000fd5b60028101544211159250610952565b346101205760003660031901126101205760405160208101600080516020610cff8339815191528152602082526109c0604083610bbe565b60ff199151902016600080516020610cdf833981519152600052602052604060002060018060a01b033316600052602052610a04604060002060ff33915416610b71565b600080808047818115610a1c575b3390f11561035757005b506108fc610a12565b346101205760603660031901126101205760405160208101600080516020610cff833981519152815260208252610a5d604083610bbe565b60ff199151902016600080516020610cdf833981519152600052602052604060002060018060a01b033316600052602052610aa1604060002060ff33915416610b71565b610aa9610be0565b600435600382015560243560048201556005604435910155600080f35b3461012057602036600319011261012057600435908115158092036101205760208101600080516020610cff833981519152815260208252610b09604083610bbe565b60ff199151902016600080516020610cdf833981519152600052602052604060002060018060a01b033316600052602052610b4d604060002060ff33915416610b71565b6006610b57610be0565b019061ff0082549160081b169061ff001916179055600080f35b15610b795750565b638289154b60e01b60009081526001600160a01b0391909116600452602490fd5b15610ba457505050565b637ab11db960e11b60005260045260245260445260646000fd5b90601f8019910116810190811067ffffffffffffffff8211176107bc57604052565b604051602081017f0cee7785c9739c2abcb4ce591dada6e864d6d906251746912d12a62bb828bf68815260208252610c19604083610bbe565b9051902060ff191690565b6001600160a01b03811615610c56576003610c3d610c6c565b019060018060a01b031660005260205260406000205490565b6322718ad960e21b600052600060045260246000fd5b604051602081017fb7b8777dfce3c027b9b4ab96baa886d0c5d5e8c8632429d2b4be0ba869cd905f815260208252610c19604083610bbe565b604051602081017f2070bae6b675801f0932481e70ab724699e22000dcf2efe36a44b6070d9ee8f1815260208252610c19604083610bbe56fee1dcbdb91df27212a29bc27177c840cf2f819ecf2187432e1fac86c2dd5dfca9cf377bf0da9cb35454543c63ad54bf2c5a0466b629ac7517e61f8857cae0fa25a264697066735822122021a78b4e49f64620ea95295fa2a16645be28fed2e13437975f5ade4493bf5caf64736f6c634300081c0033",
  "linkReferences": {},
  "deployedLinkReferences": {}
}