{
  "_format": "hh-sol-artifact-1",
  "contractName": "SCRBeaconUpgradeable",
  "sourceName": "contracts/scr/BeaconUpgradeableBase/functions/SCRBeaconUpgradeable.sol",
  "abi": [
    {
      "inputs": [
        {
          "internalType": "address",
          "name": "beacon",
          "type": "address"
        }
      ],
      "name": "BeaconAlreadyOnlineOrOffline",
      "type": "error"
    },
    {
      "inputs": [
        {
          "internalType": "string",
          "name": "str",
          "type": "string"
        }
      ],
      "name": "EmptyString",
      "type": "error"
    },
    {
      "inputs": [
        {
          "internalType": "address",
          "name": "beacon",
          "type": "address"
        }
      ],
      "name": "InvalidBeacon",
      "type": "error"
    },
    {
      "anonymous": false,
      "inputs": [
        {
          "indexed": true,
          "internalType": "address",
          "name": "beacon",
          "type": "address"
        },
        {
          "indexed": false,
          "internalType": "string",
          "name": "name",
          "type": "string"
        }
      ],
      "name": "BeaconNameUpdated",
      "type": "event"
    },
    {
      "anonymous": false,
      "inputs": [
        {
          "indexed": true,
          "internalType": "address",
          "name": "beacon",
          "type": "address"
        }
      ],
      "name": "BeaconOffline",
      "type": "event"
    },
    {
      "anonymous": false,
      "inputs": [
        {
          "indexed": true,
          "internalType": "address",
          "name": "beacon",
          "type": "address"
        }
      ],
      "name": "BeaconOnline",
      "type": "event"
    },
    {
      "inputs": [
        {
          "internalType": "address",
          "name": "beacon",
          "type": "address"
        },
        {
          "internalType": "bool",
          "name": "isOnline",
          "type": "bool"
        }
      ],
      "name": "changeSCRBeaconOnline",
      "outputs": [],
      "stateMutability": "nonpayable",
      "type": "function"
    },
    {
      "inputs": [
        {
          "internalType": "address",
          "name": "beacon",
          "type": "address"
        }
      ],
      "name": "getSCRBeacon",
      "outputs": [
        {
          "components": [
            {
              "internalType": "string",
              "name": "name",
              "type": "string"
            },
            {
              "internalType": "address",
              "name": "implementation",
              "type": "address"
            },
            {
              "internalType": "bool",
              "name": "isOnline",
              "type": "bool"
            },
            {
              "internalType": "uint256",
              "name": "proxyCount",
              "type": "uint256"
            }
          ],
          "internalType": "struct IBeaconUpgradeableBaseStructs.Beacon",
          "name": "",
          "type": "tuple"
        }
      ],
      "stateMutability": "view",
      "type": "function"
    },
    {
      "inputs": [
        {
          "internalType": "address",
          "name": "proxy",
          "type": "address"
        }
      ],
      "name": "getSCRProxy",
      "outputs": [
        {
          "components": [
            {
              "internalType": "string",
              "name": "name",
              "type": "string"
            },
            {
              "internalType": "address",
              "name": "beacon",
              "type": "address"
            }
          ],
          "internalType": "struct IBeaconUpgradeableBaseStructs.Proxy",
          "name": "",
          "type": "tuple"
        }
      ],
      "stateMutability": "view",
      "type": "function"
    },
    {
      "inputs": [
        {
          "internalType": "address",
          "name": "beacon",
          "type": "address"
        },
        {
          "internalType": "string",
          "name": "name",
          "type": "string"
        }
      ],
      "name": "updateSCRBeaconName",
      "outputs": [
        {
          "components": [
            {
              "internalType": "string",
              "name": "name",
              "type": "string"
            },
            {
              "internalType": "address",
              "name": "implementation",
              "type": "address"
            },
            {
              "internalType": "bool",
              "name": "isOnline",
              "type": "bool"
            },
            {
              "internalType": "uint256",
              "name": "proxyCount",
              "type": "uint256"
            }
          ],
          "internalType": "struct IBeaconUpgradeableBaseStructs.Beacon",
          "name": "beacon_",
          "type": "tuple"
        }
      ],
      "stateMutability": "nonpayable",
      "type": "function"
    }
  ],
  "bytecode": "0x60808060405234601557610753908161001b8239f35b600080fdfe6080604052600436101561001257600080fd5b60003560e01c8063620ffe26146102a257806363840149146102115780637621b79f146100fa5763b20ad2601461004857600080fd5b346100f55760203660031901126100f557610061610490565b600060206040516100718161055f565b60608152015260016100816106d9565b019060018060a01b03166000526020526100e16040600020604051906100a68261055f565b6100af81610609565b8252600101546001600160a01b03166020808301918252604080518281529351918401529192839260608401906104a6565b90516001600160a01b031660408301520390f35b600080fd5b346100f55760403660031901126100f557610113610490565b6024358015158082036100f5576101286106d9565b60018060a01b0384166000526020528060ff60016040600020015460a01c161515146101f2576101566106d9565b6001600160a01b038416600090815260209190915260409020600101805460ff60a01b191660a09290921b60ff60a01b16919091179055156101c2576001600160a01b03167fc085499009b58c89a48a9136db5d685566f394e1463fdb6a68fb67bff7d51bbe600080a2005b6001600160a01b03167ffe2ff875f46191e3457a6fecc67d4614b610e6618e35bd6fbd0693ebc0c4800d600080a2005b6306a8b29360e11b60009081526001600160a01b038416600452602490fd5b346100f55760203660031901126100f55761029e604061022f610490565b61023761059d565b506102406106d9565b60009160018060a01b03168252602052206002604051916102608361052d565b61026981610609565b835260ff600182015460018060a01b038116602086015260a01c161515604084015201546060820152604051918291826104e7565b0390f35b346100f55760403660031901126100f5576102bb610490565b60243567ffffffffffffffff81116100f557366023820112156100f55780600401359167ffffffffffffffff83116100f557602482019160248436920101116100f55761030661059d565b5061030f6106d9565b6001600160a01b0390911690811515908161046a575b5015610456576103363684846105c2565b6020906000604051610348848261057b565b528051828201207fc5d2460186f7233c927e7db2dcc703c0e500b653ca82273b7bfad8045d85a4701461042f57508360407f88a60344e42b24d91cf44b213631613b7d33652bffd66e209d48838c9dc5508b928261029e97836103a96106d9565b6000908982528552209760028551996103c18b61052d565b6103ca81610609565b8b5260018101546001600160a01b038116878d015260a01c60ff161515878c0152015460608a01526103fd3683836105c2565b89528451958487958652850152848401376000828201840152601f01601f19168101030190a2604051918291826104e7565b906104526040519283926318a996bb60e21b8452600484015260248301906104a6565b0390fd5b638ebc912f60e01b60005260045260246000fd5b600083815260209190915260409020600101546001600160a01b03161515905084610325565b600435906001600160a01b03821682036100f557565b919082519283825260005b8481106104d2575050826000602080949584010152601f8019910116010190565b806020809284010151828286010152016104b1565b6020815260806060610504845183602086015260a08501906104a6565b60208501516001600160a01b031660408581019190915285015115158285015293015191015290565b6080810190811067ffffffffffffffff82111761054957604052565b634e487b7160e01b600052604160045260246000fd5b6040810190811067ffffffffffffffff82111761054957604052565b90601f8019910116810190811067ffffffffffffffff82111761054957604052565b604051906105aa8261052d565b60006060838181528260208201528260408201520152565b92919267ffffffffffffffff821161054957604051916105ec601f8201601f19166020018461057b565b8294818452818301116100f5578281602093846000960137010152565b906040519160008154918260011c926001811680156106cf575b6020851081146106bb578487528693929181156106995750600114610652575b506106509250038361057b565b565b90506000929192526020600020906000915b81831061067d5750509060206106509282010138610643565b6020919350806001915483858901015201910190918492610664565b90506020925061065094915060ff191682840152151560051b82010138610643565b634e487b7160e01b84526022600452602484fd5b93607f1693610623565b604051602081017f806dfdd21cc5ccb4cb5e43c3351fdcb03baa9f74fc17c0e74f0826e07b93739b81526020825261071260408361057b565b9051902060ff19169056fea2646970667358221220aadbf98435801a6b11e93c910ef653a43bf85857d415665cdeb7543a6682f68d64736f6c634300081c0033",
  "linkReferences": {},
  "deployedLinkReferences": {}
}