{
  "_format": "hh-sol-artifact-1",
  "contractName": "LETS_JP_LLC_NON_EXE",
  "sourceName": "contracts/sc/Services/LETS/functions/extensions/LETS_JP_LLC/LETS_JP_LLC_NON_EXE.sol",
  "abi": [
    {
      "inputs": [
        {
          "internalType": "address",
          "name": "account",
          "type": "address"
        },
        {
          "internalType": "bytes32",
          "name": "neededRole",
          "type": "bytes32"
        }
      ],
      "name": "AccessControlUnauthorizedAccount",
      "type": "error"
    },
    {
      "inputs": [],
      "name": "AlreadyInitialized",
      "type": "error"
    },
    {
      "inputs": [
        {
          "internalType": "address",
          "name": "sender",
          "type": "address"
        },
        {
          "internalType": "uint256",
          "name": "tokenId",
          "type": "uint256"
        },
        {
          "internalType": "address",
          "name": "owner",
          "type": "address"
        }
      ],
      "name": "ERC721IncorrectOwner",
      "type": "error"
    },
    {
      "inputs": [
        {
          "internalType": "address",
          "name": "operator",
          "type": "address"
        },
        {
          "internalType": "uint256",
          "name": "tokenId",
          "type": "uint256"
        }
      ],
      "name": "ERC721InsufficientApproval",
      "type": "error"
    },
    {
      "inputs": [
        {
          "internalType": "address",
          "name": "approver",
          "type": "address"
        }
      ],
      "name": "ERC721InvalidApprover",
      "type": "error"
    },
    {
      "inputs": [
        {
          "internalType": "address",
          "name": "operator",
          "type": "address"
        }
      ],
      "name": "ERC721InvalidOperator",
      "type": "error"
    },
    {
      "inputs": [
        {
          "internalType": "address",
          "name": "owner",
          "type": "address"
        }
      ],
      "name": "ERC721InvalidOwner",
      "type": "error"
    },
    {
      "inputs": [
        {
          "internalType": "address",
          "name": "receiver",
          "type": "address"
        }
      ],
      "name": "ERC721InvalidReceiver",
      "type": "error"
    },
    {
      "inputs": [
        {
          "internalType": "address",
          "name": "sender",
          "type": "address"
        }
      ],
      "name": "ERC721InvalidSender",
      "type": "error"
    },
    {
      "inputs": [
        {
          "internalType": "uint256",
          "name": "tokenId",
          "type": "uint256"
        }
      ],
      "name": "ERC721NonexistentToken",
      "type": "error"
    },
    {
      "inputs": [
        {
          "internalType": "address",
          "name": "owner",
          "type": "address"
        },
        {
          "internalType": "uint256",
          "name": "index",
          "type": "uint256"
        }
      ],
      "name": "ERC721OutOfBoundsIndex",
      "type": "error"
    },
    {
      "inputs": [
        {
          "internalType": "bytes32",
          "name": "param",
          "type": "bytes32"
        }
      ],
      "name": "InvalidParam",
      "type": "error"
    },
    {
      "inputs": [],
      "name": "MaxSupplyReached",
      "type": "error"
    },
    {
      "inputs": [
        {
          "internalType": "address",
          "name": "caller",
          "type": "address"
        }
      ],
      "name": "NotGovernance",
      "type": "error"
    },
    {
      "inputs": [
        {
          "internalType": "address",
          "name": "caller",
          "type": "address"
        }
      ],
      "name": "NotLetsSale",
      "type": "error"
    },
    {
      "inputs": [],
      "name": "NotTransferable",
      "type": "error"
    },
    {
      "inputs": [
        {
          "internalType": "address",
          "name": "owner",
          "type": "address"
        }
      ],
      "name": "OwnableInvalidOwner",
      "type": "error"
    },
    {
      "inputs": [
        {
          "internalType": "address",
          "name": "account",
          "type": "address"
        }
      ],
      "name": "OwnableUnauthorizedAccount",
      "type": "error"
    },
    {
      "anonymous": false,
      "inputs": [
        {
          "indexed": true,
          "internalType": "address",
          "name": "owner",
          "type": "address"
        },
        {
          "indexed": true,
          "internalType": "address",
          "name": "approved",
          "type": "address"
        },
        {
          "indexed": true,
          "internalType": "uint256",
          "name": "tokenId",
          "type": "uint256"
        }
      ],
      "name": "Approval",
      "type": "event"
    },
    {
      "anonymous": false,
      "inputs": [
        {
          "indexed": true,
          "internalType": "address",
          "name": "owner",
          "type": "address"
        },
        {
          "indexed": true,
          "internalType": "address",
          "name": "operator",
          "type": "address"
        },
        {
          "indexed": false,
          "internalType": "bool",
          "name": "approved",
          "type": "bool"
        }
      ],
      "name": "ApprovalForAll",
      "type": "event"
    },
    {
      "anonymous": false,
      "inputs": [
        {
          "indexed": false,
          "internalType": "uint256",
          "name": "_fromTokenId",
          "type": "uint256"
        },
        {
          "indexed": false,
          "internalType": "uint256",
          "name": "_toTokenId",
          "type": "uint256"
        }
      ],
      "name": "BatchMetadataUpdate",
      "type": "event"
    },
    {
      "anonymous": false,
      "inputs": [
        {
          "indexed": true,
          "internalType": "address",
          "name": "initializer",
          "type": "address"
        }
      ],
      "name": "LETSBaseInitialized",
      "type": "event"
    },
    {
      "anonymous": false,
      "inputs": [
        {
          "indexed": true,
          "internalType": "address",
          "name": "initializer",
          "type": "address"
        }
      ],
      "name": "LETS_JP_LLC_NON_EXEInitialized",
      "type": "event"
    },
    {
      "anonymous": false,
      "inputs": [
        {
          "indexed": false,
          "internalType": "uint256",
          "name": "_tokenId",
          "type": "uint256"
        }
      ],
      "name": "MetadataUpdate",
      "type": "event"
    },
    {
      "anonymous": false,
      "inputs": [
        {
          "indexed": true,
          "internalType": "address",
          "name": "previousOwner",
          "type": "address"
        },
        {
          "indexed": true,
          "internalType": "address",
          "name": "newOwner",
          "type": "address"
        }
      ],
      "name": "OwnershipTransferred",
      "type": "event"
    },
    {
      "anonymous": false,
      "inputs": [
        {
          "indexed": false,
          "internalType": "uint256",
          "name": "tokenId",
          "type": "uint256"
        }
      ],
      "name": "TokenFrozen",
      "type": "event"
    },
    {
      "anonymous": false,
      "inputs": [
        {
          "indexed": false,
          "internalType": "uint256",
          "name": "tokenId",
          "type": "uint256"
        }
      ],
      "name": "TokenUnfrozen",
      "type": "event"
    },
    {
      "anonymous": false,
      "inputs": [
        {
          "indexed": true,
          "internalType": "address",
          "name": "from",
          "type": "address"
        },
        {
          "indexed": true,
          "internalType": "address",
          "name": "to",
          "type": "address"
        },
        {
          "indexed": true,
          "internalType": "uint256",
          "name": "tokenId",
          "type": "uint256"
        }
      ],
      "name": "Transfer",
      "type": "event"
    },
    {
      "inputs": [
        {
          "internalType": "address",
          "name": "to",
          "type": "address"
        },
        {
          "internalType": "uint256",
          "name": "tokenId",
          "type": "uint256"
        }
      ],
      "name": "approve",
      "outputs": [],
      "stateMutability": "nonpayable",
      "type": "function"
    },
    {
      "inputs": [
        {
          "internalType": "address",
          "name": "owner",
          "type": "address"
        }
      ],
      "name": "balanceOf",
      "outputs": [
        {
          "internalType": "uint256",
          "name": "",
          "type": "uint256"
        }
      ],
      "stateMutability": "view",
      "type": "function"
    },
    {
      "inputs": [
        {
          "internalType": "uint256",
          "name": "tokenId",
          "type": "uint256"
        }
      ],
      "name": "freezeToken",
      "outputs": [],
      "stateMutability": "nonpayable",
      "type": "function"
    },
    {
      "inputs": [
        {
          "internalType": "uint256",
          "name": "tokenId",
          "type": "uint256"
        }
      ],
      "name": "getApproved",
      "outputs": [
        {
          "internalType": "address",
          "name": "",
          "type": "address"
        }
      ],
      "stateMutability": "view",
      "type": "function"
    },
    {
      "inputs": [
        {
          "internalType": "address",
          "name": "owner",
          "type": "address"
        }
      ],
      "name": "getTokensOfOwner",
      "outputs": [
        {
          "internalType": "uint256[]",
          "name": "",
          "type": "uint256[]"
        }
      ],
      "stateMutability": "view",
      "type": "function"
    },
    {
      "inputs": [
        {
          "internalType": "uint256",
          "name": "tokenId",
          "type": "uint256"
        }
      ],
      "name": "getUpdatedToken",
      "outputs": [
        {
          "internalType": "uint256",
          "name": "",
          "type": "uint256"
        }
      ],
      "stateMutability": "view",
      "type": "function"
    },
    {
      "inputs": [
        {
          "internalType": "address",
          "name": "dictionary",
          "type": "address"
        },
        {
          "internalType": "address",
          "name": "implementation",
          "type": "address"
        },
        {
          "internalType": "address",
          "name": "sc",
          "type": "address"
        },
        {
          "internalType": "bytes",
          "name": "params",
          "type": "bytes"
        }
      ],
      "name": "initialize",
      "outputs": [
        {
          "internalType": "bytes4[]",
          "name": "selectors",
          "type": "bytes4[]"
        }
      ],
      "stateMutability": "nonpayable",
      "type": "function"
    },
    {
      "inputs": [
        {
          "internalType": "address",
          "name": "owner_",
          "type": "address"
        }
      ],
      "name": "initialize",
      "outputs": [],
      "stateMutability": "nonpayable",
      "type": "function"
    },
    {
      "inputs": [
        {
          "internalType": "address",
          "name": "owner",
          "type": "address"
        },
        {
          "internalType": "address",
          "name": "operator",
          "type": "address"
        }
      ],
      "name": "isApprovedForAll",
      "outputs": [
        {
          "internalType": "bool",
          "name": "",
          "type": "bool"
        }
      ],
      "stateMutability": "view",
      "type": "function"
    },
    {
      "inputs": [
        {
          "internalType": "address",
          "name": "to",
          "type": "address"
        }
      ],
      "name": "mint",
      "outputs": [],
      "stateMutability": "nonpayable",
      "type": "function"
    },
    {
      "inputs": [],
      "name": "name",
      "outputs": [
        {
          "internalType": "string",
          "name": "",
          "type": "string"
        }
      ],
      "stateMutability": "view",
      "type": "function"
    },
    {
      "inputs": [],
      "name": "owner",
      "outputs": [
        {
          "internalType": "address",
          "name": "",
          "type": "address"
        }
      ],
      "stateMutability": "view",
      "type": "function"
    },
    {
      "inputs": [
        {
          "internalType": "uint256",
          "name": "tokenId",
          "type": "uint256"
        }
      ],
      "name": "ownerOf",
      "outputs": [
        {
          "internalType": "address",
          "name": "",
          "type": "address"
        }
      ],
      "stateMutability": "view",
      "type": "function"
    },
    {
      "inputs": [],
      "name": "renounceOwnership",
      "outputs": [],
      "stateMutability": "nonpayable",
      "type": "function"
    },
    {
      "inputs": [
        {
          "internalType": "address",
          "name": "from",
          "type": "address"
        },
        {
          "internalType": "address",
          "name": "to",
          "type": "address"
        },
        {
          "internalType": "uint256",
          "name": "tokenId",
          "type": "uint256"
        }
      ],
      "name": "safeTransferFrom",
      "outputs": [],
      "stateMutability": "nonpayable",
      "type": "function"
    },
    {
      "inputs": [
        {
          "internalType": "address",
          "name": "from",
          "type": "address"
        },
        {
          "internalType": "address",
          "name": "to",
          "type": "address"
        },
        {
          "internalType": "uint256",
          "name": "tokenId",
          "type": "uint256"
        },
        {
          "internalType": "bytes",
          "name": "data",
          "type": "bytes"
        }
      ],
      "name": "safeTransferFrom",
      "outputs": [],
      "stateMutability": "nonpayable",
      "type": "function"
    },
    {
      "inputs": [
        {
          "internalType": "address",
          "name": "operator",
          "type": "address"
        },
        {
          "internalType": "bool",
          "name": "approved",
          "type": "bool"
        }
      ],
      "name": "setApprovalForAll",
      "outputs": [],
      "stateMutability": "nonpayable",
      "type": "function"
    },
    {
      "inputs": [
        {
          "internalType": "bytes4",
          "name": "interfaceId",
          "type": "bytes4"
        }
      ],
      "name": "supportsInterface",
      "outputs": [
        {
          "internalType": "bool",
          "name": "",
          "type": "bool"
        }
      ],
      "stateMutability": "pure",
      "type": "function"
    },
    {
      "inputs": [],
      "name": "symbol",
      "outputs": [
        {
          "internalType": "string",
          "name": "",
          "type": "string"
        }
      ],
      "stateMutability": "view",
      "type": "function"
    },
    {
      "inputs": [
        {
          "internalType": "uint256",
          "name": "index",
          "type": "uint256"
        }
      ],
      "name": "tokenByIndex",
      "outputs": [
        {
          "internalType": "uint256",
          "name": "",
          "type": "uint256"
        }
      ],
      "stateMutability": "view",
      "type": "function"
    },
    {
      "inputs": [
        {
          "internalType": "address",
          "name": "owner",
          "type": "address"
        },
        {
          "internalType": "uint256",
          "name": "index",
          "type": "uint256"
        }
      ],
      "name": "tokenOfOwnerByIndex",
      "outputs": [
        {
          "internalType": "uint256",
          "name": "",
          "type": "uint256"
        }
      ],
      "stateMutability": "view",
      "type": "function"
    },
    {
      "inputs": [
        {
          "internalType": "uint256",
          "name": "tokenId",
          "type": "uint256"
        }
      ],
      "name": "tokenURI",
      "outputs": [
        {
          "internalType": "string",
          "name": "",
          "type": "string"
        }
      ],
      "stateMutability": "view",
      "type": "function"
    },
    {
      "inputs": [],
      "name": "totalSupply",
      "outputs": [
        {
          "internalType": "uint256",
          "name": "",
          "type": "uint256"
        }
      ],
      "stateMutability": "view",
      "type": "function"
    },
    {
      "inputs": [
        {
          "internalType": "address",
          "name": "from",
          "type": "address"
        },
        {
          "internalType": "address",
          "name": "to",
          "type": "address"
        },
        {
          "internalType": "uint256",
          "name": "tokenId",
          "type": "uint256"
        }
      ],
      "name": "transferFrom",
      "outputs": [],
      "stateMutability": "nonpayable",
      "type": "function"
    },
    {
      "inputs": [
        {
          "internalType": "address",
          "name": "newOwner",
          "type": "address"
        }
      ],
      "name": "transferOwnership",
      "outputs": [],
      "stateMutability": "nonpayable",
      "type": "function"
    },
    {
      "inputs": [
        {
          "internalType": "uint256",
          "name": "tokenId",
          "type": "uint256"
        }
      ],
      "name": "unfreezeToken",
      "outputs": [],
      "stateMutability": "nonpayable",
      "type": "function"
    }
  ],
  "bytecode": "0x608080604052346015576123c9908161001b8239f35b600080fdfe608080604052600436101561001357600080fd5b600090813560e01c90816301ffc9a7146118335750806306fdde031461180f578063081812fc146117e6578063095ea7b31461170e57806318160ddd146116e757806323b872dd146116cf578063246581f714610d0f5780632f745c5914610ce757806342842e0e14610cbd5780634d787ea914610c605780634f6ccce714610bfc5780635de6dc5514610b215780636352211e14610af05780636a6278421461059357806370a0823114610567578063715018a6146104fe5780638da5cb5b146104d157806395d89b41146104aa57806397294fea14610477578063a22cb465146103c0578063b6854f9614610360578063b88d4fde1461030a578063c4d66de8146102a5578063c87b56dd1461020c578063e985e9c5146101d55763f2fde38b1461013f57600080fd5b346101d25760203660031901126101d257610158611900565b610160612174565b6001600160a01b031680156101c0576001600160a01b0361017f6120f3565b54166101896120f3565b80546001600160a01b031916831790557f8be0079c531659141344cd1fd0a4f28419497f9722a3daafe3b4186f6b6457e08380a380f35b631e4fbdf760e01b8252600452602490fd5b80fd5b50346101d25760403660031901126101d25760206102026101f4611900565b6101fc61191b565b906121a3565b6040519015158152f35b50346101d25760203660031901126101d25760ff6102286120f3565b5460a01c161590506102925761028e61026661027a60036102476120f3565b0161026c60046102556120f3565b016040519485936020850190611fa7565b90611fa7565b03601f19810183528261196b565b6040519182916020835260208301906118db565b0390f35b61028e6102a0600435612320565b61027a565b50346101d25760203660031901126101d2576102bf611900565b6001600160a01b038116156102f6576102d66120f3565b80546001600160a01b0319166001600160a01b0390921691909117905580f35b631e4fbdf760e01b82526004829052602482fd5b50346101d25760803660031901126101d257610324611900565b61032c61191b565b606435916001600160401b03831161035c5761034f6103599336906004016119bd565b9160443591611e60565b80f35b8380fd5b50346101d25760203660031901126101d2577f74308730007d8ee5b3c18fad784efa3555f62695e36960f803f475eeb663d10e602060043560056103a26120f3565b8286520182526040808520805460ff1916600117905551908152a180f35b50346101d25760403660031901126101d2576103da611900565b60243590811515809203610473576001600160a01b031690811561045f576005610402612015565b0160018060a01b033316600052602052604060002082600052602052604060002060ff1981541660ff83161790556040519081527f17307eab39ab6107e8899845ad3d59bd9653f200f220920489ca2b5937696c3160203392a380f35b630b61174360e31b83526004829052602483fd5b8280fd5b50346101d25760203660031901126101d257604060209160066104986120f3565b01600435825283522054604051908152f35b50346101d257806003193601126101d25761028e61027a60016104cb612015565b01611a7c565b50346101d257806003193601126101d25760206001600160a01b036104f46120f3565b5416604051908152f35b50346101d257806003193601126101d257610517612174565b806001600160a01b036105286120f3565b54166105326120f3565b80546001600160a01b03191690557f8be0079c531659141344cd1fd0a4f28419497f9722a3daafe3b4186f6b6457e08280a380f35b50346101d25760203660031901126101d257602061058b610586611900565b61212c565b604051908152f35b50346101d25760203660031901126101d2576105ad611900565b90600460206001600160a01b036105c26120f3565b541660405192838092631ba82e6360e31b82525afa908115610aa2578291610aad575b50604051632474521560e21b81527f9f2df0fed2c77648de5860a4cc508cd0818c85b8b8a1ab4ceeef8d981c8956a6600482015233602482015290602090829060449082906001600160a01b03165afa908115610aa2578291610a64575b5015610a2d5760016106536120f3565b019182546000198114610a195760010180935560209260405190610677858361196b565b8382526001600160a01b038316928315610a0557610694826121dd565b6001600160a01b038116801580159291908790846109d9575b60036106b7612015565b01826000528b5260406000206001815401905560026106d4612015565b888c52018b5260408a2080546001600160a01b031916831790558682847fddf252ad1be2c89b69c2b068fc378daa952ba7f163c4a11628f55a4df523b3ef8d80a4156109365750600261072561220e565b0154600361073161220e565b01868a528a526040892055600261074661220e565b01805490600160401b821015610922578661076c836107859360018d97960181556120ae565b90919082549060031b91821b91600019901b1916179055565b036108c1575b506108ad573b610799578380f35b6107d39185916040519384928392630a85bd0160e11b845233600485015288602485015260448401526080606484015260848301906118db565b038186865af183918161086d575b5061083757503d15610830573d6107f7816119a2565b90610805604051928361196b565b81523d838583013e5b8051938461082a57633250574960e11b84526004839052602484fd5b84925001fd5b606061080e565b919250906001600160e01b03191663757a42ff60e11b0161085b5750803880808380f35b633250574960e11b8252600452602490fd5b9091508481813d83116108a6575b610885818361196b565b8101031261035c57516001600160e01b03198116810361035c5790386107e1565b503d61087b565b6339e3563760e11b85526004859052602485fd5b6108ca8361212c565b600019810190811161090e576108de61220e565b8760005289526040600020818952895284604089205560016108fe61220e565b018589528952604088205561078b565b634e487b7160e01b88526011600452602488fd5b634e487b7160e01b8a52604160045260248afd5b90808214610785576109478361212c565b600161095161220e565b01878b528b5260408a20549060408c61096861220e565b600091868352522091828d8d8484036109a5575b50505050600161098a61220e565b01888c528c528a60408120558a528a52886040812055610785565b8085604092528383528181205493849386835252205560016109c561220e565b01908d528d5260408c205538828d8d61097c565b6109e2876121e7565b60036109ec612015565b01836000528b52604060002060001981540190556106ad565b633250574960e11b85526004859052602485fd5b634e487b7160e01b83526011600452602483fd5b63e2517d3f60e01b8152336004527f9f2df0fed2c77648de5860a4cc508cd0818c85b8b8a1ab4ceeef8d981c8956a6602452604490fd5b90506020813d602011610a9a575b81610a7f6020938361196b565b81010312610a9657610a9090611e53565b38610643565b5080fd5b3d9150610a72565b6040513d84823e3d90fd5b90506020813d602011610ae8575b81610ac86020938361196b565b81010312610a9657516001600160a01b0381168103610a965760206105e5565b3d9150610abb565b50346101d25760203660031901126101d2576020610b0f600435612059565b6040516001600160a01b039091168152f35b50346101d25760203660031901126101d257610b3b611900565b610b448161212c565b610b4d816120dc565b90610b5b604051928361196b565b808252610b67816120dc565b602083019390601f1901368537845b828110610bc25750505090604051928392602084019060208552518091526040840192915b818110610ba9575050500390f35b8251845285945060209384019390920191600101610b9b565b610bcc81836122c5565b8451821015610be857600582901b850160200152600101610b76565b634e487b7160e01b87526032600452602487fd5b50346101d25760203660031901126101d257600435906002610c1c61220e565b0154821015610c4a576020610c3b836002610c3561220e565b016120ae565b90549060031b1c604051908152f35b60449163295f44f760e21b825281600452602452fd5b50346101d25760203660031901126101d2577fdad54db74d8c1152c7cb496a900d181b8e9b69b70e55db2362bd100897a4f7a160206004356005610ca26120f3565b8286520182526040808520805460ff1916905551908152a180f35b50346101d257610359610ccf36611931565b9060405192610cdf60208561196b565b858452611e60565b50346101d25760403660031901126101d257602061058b610d06611900565b602435906122c5565b50346101d25760803660031901126101d257610d29611900565b90610d3261191b565b6044356001600160a01b0381168103610473576064356001600160401b03811161035c57610d649036906004016119bd565b90815191602081019281019160c082602085019403126116cb5783516001600160401b0381116116c757836020610d9d92850101612247565b9260408301516001600160401b0381116116c357816020610dc092860101612247565b9160608401516001600160401b0381116116bf57826020610de392870101612247565b9160808501516001600160401b0381116116bb57906020610e0692870101612247565b92610e1360a08601611e53565b9460c0810151978751151591826116b0575b826116a5575b8261169a575b5190519060208110611688575b5090156116765750610e4e612015565b95610e576120f3565b9681516001600160401b03811161166257610e728254611a42565b601f8111611618575b5060208c601f83116001146115b15790600194836115a6575b5050600019600383901b1c191690831b1781555b01908051906001600160401b038211611592578190610ec78454611a42565b601f8111611542575b50602090601f83116001146114df578c926114d4575b50508160011b916000199060031b1c19161790555b84546001600160a01b0319166001600160a01b0391909116178455805160038501916001600160401b0382116114c0578190610f378454611a42565b601f8111611470575b50602090601f831160011461140d578a92611402575b50508160011b916000199060031b1c19161790555b805160048401916001600160401b0382116113ee57610f8a8354611a42565b601f81116113a9575b50602090601f83116001146113415760029594939291899183611336575b50508160011b916000199060031b1c19161790555b815460ff60a01b191690151560a01b60ff60a01b16178155015560ff610fea61228c565b541661132857604051926102e0611001818661196b565b601685526020850190601f190136823784511561131457634b94a7f560e11b90528351600110156113005763c87b56dd60e01b6040850152835160021015611300576318160ddd60e01b6060850152835160031015611300576301ffc9a760e01b6080850152835160041015611300576370a0823160e01b60a0850152835160051015611300576331a9108f60e11b60c08501528351600610156113005763095ea7b360e01b60e08501528351600710156113005763020604bf60e21b6101008501528351600810156113005763a22cb46560e01b6101208501528351600910156113005763e985e9c560e01b6101408501528351600a1015611300576323b872dd60e01b6101608501528351600b101561130057632142170760e11b6101808501528351600c101561130057635c46a7ef60e11b6101a08501528351600d1015611300576306fdde0360e01b6101c08501528351600e1015611300576395d89b4160e01b6101e08501528351600f101561130057634f6ccce760e01b61020085015283516010101561130057632f745c5960e01b61022085015283516011101561130057635de6dc5560e01b610240850152835160121015611300576335313c2160e11b61026085015283516013101561130057635b42a7cb60e11b61028085015283516014101561130057634d787ea960e01b6102a085015283516015101561130057634b94a7f560e11b6102c0850152337f171a7dc80b6dc11005bc264b86aca451619865e5e8dad90855002dd8814b33628480a260ff61124361228c565b54166112f2576001600160a01b0316803b15610473578291829160405180948180946323c45f6760e01b825260406004830152611283604483018b611a04565b6001600160a01b03909116602483015203925af18015610aa25782906112e2575b505061028e6040519283927f6620a457773671eb18e81617c051212b22210907655af4934f9e4915ceb5e2dd339180a2602083526020830190611a04565b6112eb9161196b565b38816112a4565b62dc149f60e41b8352600483fd5b634e487b7160e01b83526032600452602483fd5b634e487b7160e01b84526032600452602484fd5b62dc149f60e41b8252600482fd5b015190503880610fb1565b8389528189209190601f1984168a5b81811061139157509160019391856002999897969410611378575b505050811b019055610fc6565b015160001960f88460031b161c1916905538808061136b565b92936020600181928786015181550195019301611350565b83895260208920601f840160051c810191602085106113e4575b601f0160051c01905b8181106113d95750610f93565b8981556001016113cc565b90915081906113c3565b634e487b7160e01b88526041600452602488fd5b015190503880610f56565b848b52818b209250601f1984168b5b818110611458575090846001959493921061143f575b505050811b019055610f6b565b015160001960f88460031b161c19169055388080611432565b9293602060018192878601518155019501930161141c565b909150838a5260208a20601f840160051c810191602085106114b6575b90601f859493920160051c01905b8181106114a85750610f40565b8b815584935060010161149b565b909150819061148d565b634e487b7160e01b89526041600452602489fd5b015190503880610ee6565b848d52818d209250601f1984168d5b81811061152a5750908460019594939210611511575b505050811b019055610efb565b015160001960f88460031b161c19169055388080611504565b929360206001819287860151815501950193016114ee565b909150838c5260208c20601f840160051c81019160208510611588575b90601f859493920160051c01905b81811061157a5750610ed0565b8d815584935060010161156d565b909150819061155f565b634e487b7160e01b8b52604160045260248bfd5b015190503880610e94565b919293601f198416858452828420935b81811061160057509160019594929183879593106115e7575b505050811b018155610ea8565b015160001960f88460031b161c191690553880806115da565b929360206001819287860151815501950193016115c1565b828d5260208d20601f830160051c81019160208410611658575b601f0160051c01908d905b82811061164b575050610e7b565b6001918155018d9061163d565b9091508190611632565b634e487b7160e01b8c52604160045260248cfd5b6308d49be960e31b8a52600452602489fd5b6000199060200360031b1b1638610e3e565b865115159250610e31565b855115159250610e2b565b835115159250610e25565b8980fd5b8880fd5b8780fd5b8680fd5b8580fd5b50346101d2576103596116e136611931565b91611b20565b50346101d257806003193601126101d2576020600261170461220e565b0154604051908152f35b50346101d25760403660031901126101d257611728611900565b60243561173481612059565b331515806117d3575b806117c2575b6117af5781906001600160a01b0384811691167f8c5be1e5ebec7d5bd14f71427d1e84f3dd0314c0f7b2291e5b200ac8c7c3b9258680a46004611784612015565b918452016020526040822080546001600160a01b0319166001600160a01b0390921691909117905580f35b63a9fbf51f60e01b845233600452602484fd5b506117cd33826121a3565b15611743565b506001600160a01b03811633141561173d565b50346101d25760203660031901126101d2576020610b0f60043561180981612059565b5061208a565b50346101d257806003193601126101d25761028e61027a61182e612015565b611a7c565b905034610a96576020366003190112610a965760043563ffffffff60e01b81168091036104735760209250635de6dc5560e01b81149081156118a7575b8115611896575b8115611885575b5015158152f35b632483248360e11b1490503861187e565b63780e9d6360e01b81149150611877565b635b5e139f60e01b81149150611870565b60005b8381106118cb5750506000910152565b81810151838201526020016118bb565b906020916118f4815180928185528580860191016118b8565b601f01601f1916010190565b600435906001600160a01b038216820361191657565b600080fd5b602435906001600160a01b038216820361191657565b6060906003190112611916576004356001600160a01b038116810361191657906024356001600160a01b0381168103611916579060443590565b90601f801991011681019081106001600160401b0382111761198c57604052565b634e487b7160e01b600052604160045260246000fd5b6001600160401b03811161198c57601f01601f191660200190565b81601f82011215611916578035906119d4826119a2565b926119e2604051948561196b565b8284526020838301011161191657816000926020809301838601378301015290565b906020808351928381520192019060005b818110611a225750505090565b82516001600160e01b031916845260209384019390920191600101611a15565b90600182811c92168015611a72575b6020831014611a5c57565b634e487b7160e01b600052602260045260246000fd5b91607f1691611a51565b9060405191826000825492611a9084611a42565b8084529360018116908115611afe5750600114611ab7575b50611ab59250038361196b565b565b90506000929192526020600020906000915b818310611ae2575050906020611ab59282010138611aa8565b6020919350806001915483858901015201910190918492611ac9565b905060209250611ab594915060ff191682840152151560051b82010138611aa8565b9091906001600160a01b0383168015611e3d576006611b3d6120f3565b018360005260205242604060002055600090611b58846121dd565b9133151580611db1575b506001600160a01b0383169586158015611d86575b6003611b81612015565b0184845260205260408320600181540190556002611b9d612015565b888552016020526040832080546001600160a01b031916851790558684897fddf252ad1be2c89b69c2b068fc378daa952ba7f163c4a11628f55a4df523b3ef8680a415611ce7576002611bee61220e565b01546003611bfa61220e565b0187845260205260408320556002611c1061220e565b01805490600160401b821015611cd35761076c8289926001611c34950181556120ae565b828703611c6e575b5050505060018060a01b0316808303611c5457505050565b6364283d7b60e01b60005260045260245260445260646000fd5b611c779061212c565b600019810192908311611cbf5790604091611c9061220e565b90825260205281812083825260205285828220556001611cae61220e565b018682526020522055388080611c3c565b634e487b7160e01b82526011600452602482fd5b634e487b7160e01b84526041600452602484fd5b868314611c3457611cf78461212c565b6001611d0161220e565b01878452602052604083205490611d1661220e565b8985526020526040842091818103611d51575b506001611d3461220e565b018885526020528360408120558352602052816040812055611c34565b818552826020526040852054818652836020528060408720556001611d7461220e565b01908652602052604085205538611d29565b611d8f876121e7565b6003611d99612015565b89855201602052604083208054600019019055611b77565b80611dfa575b15611dc25738611b62565b9250506001600160a01b0316611de457602491637e27328960e01b8252600452fd5b60449163177e802f60e01b825233600452602452fd5b506001600160a01b03831633148015611e2d575b80611db75750336001600160a01b03611e268761208a565b1614611db7565b50611e3833846121a3565b611e0e565b633250574960e11b600052600060045260246000fd5b5190811515820361191657565b9291611e6d818386611b20565b813b611e7a575b50505050565b604051630a85bd0160e11b81523360048201526001600160a01b0394851660248201526044810191909152608060648201529216919060209082908190611ec59060848301906118db565b03816000865af18091600091611f64575b5090611f2f57503d15611f28573d611eed816119a2565b90611efb604051928361196b565b81523d6000602083013e5b80519081611f235782633250574960e11b60005260045260246000fd5b602001fd5b6060611f06565b6001600160e01b03191663757a42ff60e11b01611f50575038808080611e74565b633250574960e11b60005260045260246000fd5b6020813d602011611f9f575b81611f7d6020938361196b565b81010312610a965751906001600160e01b0319821682036101d2575038611ed6565b3d9150611f70565b60009291815491611fb783611a42565b92600181169081156120025750600114611fd057505050565b909192935060005260206000206000905b838210611fee5750500190565b600181602092548486015201910190611fe1565b60ff191683525050811515909102019150565b604051602081017fb7b8777dfce3c027b9b4ab96baa886d0c5d5e8c8632429d2b4be0ba869cd905f81526020825261204e60408361196b565b9051902060ff191690565b612062816121dd565b906001600160a01b03821615612076575090565b637e27328960e01b60005260045260246000fd5b6004612094612015565b60009283520160205260409020546001600160a01b031690565b80548210156120c65760005260206000200190600090565b634e487b7160e01b600052603260045260246000fd5b6001600160401b03811161198c5760051b60200190565b604051602081017f0cee7785c9739c2abcb4ce591dada6e864d6d906251746912d12a62bb828bf6881526020825261204e60408361196b565b6001600160a01b0381161561215e576003612145612015565b019060018060a01b031660005260205260406000205490565b6322718ad960e21b600052600060045260246000fd5b6001600160a01b036121846120f3565b5416330361218e57565b63118cdaa760e01b6000523360045260246000fd5b60056121ad612015565b019060018060a01b031660005260205260406000209060018060a01b031660005260205260ff6040600020541690565b6002612094612015565b60046121f1612015565b6000928352016020526040902080546001600160a01b0319169055565b604051602081017f2070bae6b675801f0932481e70ab724699e22000dcf2efe36a44b6070d9ee8f181526020825261204e60408361196b565b81601f8201121561191657805161225d816119a2565b9261226b604051948561196b565b818452602082840101116119165761228991602080850191016118b8565b90565b604051602081017ff158cb8b47a14bda3b2c4affcc0d960e9ed23f5a516e4779510b08a6e823c02581526020825261204e60408361196b565b6122ce8161212c565b821015612301576122dd61220e565b9060018060a01b031660005260205260406000209060005260205260406000205490565b63295f44f760e21b60005260018060a01b031660045260245260446000fd5b61232981612059565b50604051602081017f83126a7e0b3d5a7bd433798795b790de3287f4b1cb3d1042e8a9e2a4e5391b4081526020825261236360408361196b565b60ff1991519020169060005260205261237f6040600020611a7c565b600060405161238f60208261196b565b529056fea26469706673582212203fd9c3d0bd98463af3c5abae1168a7bb943338393a8b77bf0c4f227cc99b9a7064736f6c634300081c0033",
  "linkReferences": {},
  "deployedLinkReferences": {}
}