{
  "_format": "hh-sol-artifact-1",
  "contractName": "BorderlessAccessControl",
  "sourceName": "contracts/core/BorderlessAccessControl/functions/BorderlessAccessControl.sol",
  "abi": [
    {
      "inputs": [],
      "name": "AccessControlBadConfirmation",
      "type": "error"
    },
    {
      "inputs": [
        {
          "internalType": "address",
          "name": "account",
          "type": "address"
        },
        {
          "internalType": "bytes32",
          "name": "neededRole",
          "type": "bytes32"
        }
      ],
      "name": "AccessControlUnauthorizedAccount",
      "type": "error"
    },
    {
      "inputs": [],
      "name": "AlreadyInitialized",
      "type": "error"
    },
    {
      "anonymous": false,
      "inputs": [
        {
          "indexed": true,
          "internalType": "address",
          "name": "initializer",
          "type": "address"
        }
      ],
      "name": "BorderlessAccessControlInitialized",
      "type": "event"
    },
    {
      "anonymous": false,
      "inputs": [
        {
          "indexed": true,
          "internalType": "bytes32",
          "name": "role",
          "type": "bytes32"
        },
        {
          "indexed": true,
          "internalType": "bytes32",
          "name": "previousAdminRole",
          "type": "bytes32"
        },
        {
          "indexed": true,
          "internalType": "bytes32",
          "name": "newAdminRole",
          "type": "bytes32"
        }
      ],
      "name": "RoleAdminChanged",
      "type": "event"
    },
    {
      "anonymous": false,
      "inputs": [
        {
          "indexed": true,
          "internalType": "bytes32",
          "name": "role",
          "type": "bytes32"
        },
        {
          "indexed": true,
          "internalType": "address",
          "name": "account",
          "type": "address"
        },
        {
          "indexed": true,
          "internalType": "address",
          "name": "sender",
          "type": "address"
        }
      ],
      "name": "RoleGranted",
      "type": "event"
    },
    {
      "anonymous": false,
      "inputs": [
        {
          "indexed": true,
          "internalType": "bytes32",
          "name": "role",
          "type": "bytes32"
        },
        {
          "indexed": true,
          "internalType": "address",
          "name": "account",
          "type": "address"
        },
        {
          "indexed": true,
          "internalType": "address",
          "name": "sender",
          "type": "address"
        }
      ],
      "name": "RoleRevoked",
      "type": "event"
    },
    {
      "inputs": [
        {
          "internalType": "bytes32",
          "name": "role",
          "type": "bytes32"
        }
      ],
      "name": "getRoleAdmin",
      "outputs": [
        {
          "internalType": "bytes32",
          "name": "",
          "type": "bytes32"
        }
      ],
      "stateMutability": "view",
      "type": "function"
    },
    {
      "inputs": [
        {
          "internalType": "bytes32",
          "name": "role",
          "type": "bytes32"
        },
        {
          "internalType": "address",
          "name": "account",
          "type": "address"
        }
      ],
      "name": "grantRole",
      "outputs": [],
      "stateMutability": "nonpayable",
      "type": "function"
    },
    {
      "inputs": [
        {
          "internalType": "bytes32",
          "name": "role",
          "type": "bytes32"
        },
        {
          "internalType": "address",
          "name": "account",
          "type": "address"
        }
      ],
      "name": "hasRole",
      "outputs": [
        {
          "internalType": "bool",
          "name": "",
          "type": "bool"
        }
      ],
      "stateMutability": "view",
      "type": "function"
    },
    {
      "inputs": [
        {
          "internalType": "address",
          "name": "dictionary",
          "type": "address"
        }
      ],
      "name": "initialize",
      "outputs": [],
      "stateMutability": "nonpayable",
      "type": "function"
    },
    {
      "inputs": [
        {
          "internalType": "bytes32",
          "name": "role",
          "type": "bytes32"
        },
        {
          "internalType": "address",
          "name": "callerConfirmation",
          "type": "address"
        }
      ],
      "name": "renounceRole",
      "outputs": [],
      "stateMutability": "nonpayable",
      "type": "function"
    },
    {
      "inputs": [
        {
          "internalType": "bytes32",
          "name": "role",
          "type": "bytes32"
        },
        {
          "internalType": "address",
          "name": "account",
          "type": "address"
        }
      ],
      "name": "revokeRole",
      "outputs": [],
      "stateMutability": "nonpayable",
      "type": "function"
    },
    {
      "inputs": [
        {
          "internalType": "bytes4",
          "name": "interfaceId",
          "type": "bytes4"
        }
      ],
      "name": "supportsInterface",
      "outputs": [
        {
          "internalType": "bool",
          "name": "",
          "type": "bool"
        }
      ],
      "stateMutability": "view",
      "type": "function"
    }
  ],
  "bytecode": "0x60808060405234601557610656908161001b8239f35b600080fdfe608080604052600436101561001357600080fd5b60003560e01c90816301ffc9a7146103f357508063248a9ca3146103cd5780632f2ff15d1461037657806336568abe1461033057806391d14854146102dd578063c4d66de8146100e35763d547741f1461006c57600080fd5b346100de5760403660031901126100de57600435610088610446565b6100918261045c565b9161009a6105dc565b600084815260209182526040808220338352909252205460ff16156100c5576100c39250610512565b005b8263e2517d3f60e01b6000523360045260245260446000fd5b600080fd5b346100de5760203660031901126100de576004356001600160a01b038116908190036100de5760ff604051602081017ff158cb8b47a14bda3b2c4affcc0d960e9ed23f5a516e4779510b08a6e823c0258152602082526101446040836105a4565b8219915190201654166102cd5760405161015f60e0826105a4565b600681526020810160c03682378151156102b7576301ffc9a760e01b90528051600110156102b757632f2ff15d60e01b60408201528051600210156102b75763d547741f60e01b60608201528051600310156102b757631b2b455f60e11b60808201528051600410156102b75763248a9ca360e01b60a08201528051600510156102b757632474521560e21b60c082015260005b815181101561028f576000825182101561027b5750600581901b8201602001516001600160e01b03191690833b156100de5760405191630815f6fd60e01b8352600483015230602483015260008260448183885af191821561026f5760019261025e575b50016101f3565b6000610269916105a4565b84610257565b6040513d6000823e3d90fd5b634e487b7160e01b81526032600452602490fd5b337f766a6be0db21517b2b423a513c14e61451e05bf62e25a0fe2ed3e444d19d9aa9600080a2005b634e487b7160e01b600052603260045260246000fd5b62dc149f60e41b60005260046000fd5b346100de5760403660031901126100de576102f6610446565b6102fe6105dc565b60043560005260205260406000209060018060a01b0316600052602052602060ff604060002054166040519015158152f35b346100de5760403660031901126100de57610349610446565b336001600160a01b03821603610365576100c390600435610512565b63334bd91960e11b60005260046000fd5b346100de5760403660031901126100de57600435610392610446565b61039b8261045c565b916103a46105dc565b600084815260209182526040808220338352909252205460ff16156100c5576100c39250610477565b346100de5760203660031901126100de5760206103eb60043561045c565b604051908152f35b346100de5760203660031901126100de576004359063ffffffff60e01b82168092036100de57602091637965db0b60e01b8114908115610435575b5015158152f35b6301ffc9a760e01b1490508361042e565b602435906001600160a01b03821682036100de57565b6104646105dc565b9060005260205260016040600020015490565b61047f6105dc565b6000828152602091825260408082206001600160a01b0386168352909252205460ff1661050b576104ae6105dc565b6000828152602091825260408082206001600160a01b039590951680835294909252908120805460ff19166001179055339291907f2f8788117e7eff1d82e926ec794901d17c78024a50270940304540a733656f0d9080a4600190565b5050600090565b61051a6105dc565b6000828152602091825260408082206001600160a01b0386168352909252205460ff161561050b5761054a6105dc565b6000828152602091825260408082206001600160a01b039590951680835294909252908120805460ff19169055339291907ff6391f5c32d9c69d2a47ea670b442974b53935d1edc7fd64eb21e047a839171b9080a4600190565b90601f8019910116810190811067ffffffffffffffff8211176105c657604052565b634e487b7160e01b600052604160045260246000fd5b604051602081017fcf377bf0da9cb35454543c63ad54bf2c5a0466b629ac7517e61f8857cae0fa258152602082526106156040836105a4565b9051902060ff19169056fea2646970667358221220f23e6cfa16e5d1358df0602c550e015432722869fb51b4a09e58a22c768e2d0964736f6c634300081c0033",
  "linkReferences": {},
  "deployedLinkReferences": {}
}