{
  "_format": "hh-sol-artifact-1",
  "contractName": "LETS_JP_LLC_NON_EXE",
  "sourceName": "contracts/Services/LETS/extentions/LETS_JP_LLC/LETS_JP_LLC_NON_EXE.sol",
  "abi": [
    {
      "inputs": [],
      "stateMutability": "nonpayable",
      "type": "constructor"
    },
    {
      "inputs": [],
      "name": "ERC721EnumerableForbiddenBatchMint",
      "type": "error"
    },
    {
      "inputs": [
        {
          "internalType": "address",
          "name": "sender",
          "type": "address"
        },
        {
          "internalType": "uint256",
          "name": "tokenId",
          "type": "uint256"
        },
        {
          "internalType": "address",
          "name": "owner",
          "type": "address"
        }
      ],
      "name": "ERC721IncorrectOwner",
      "type": "error"
    },
    {
      "inputs": [
        {
          "internalType": "address",
          "name": "operator",
          "type": "address"
        },
        {
          "internalType": "uint256",
          "name": "tokenId",
          "type": "uint256"
        }
      ],
      "name": "ERC721InsufficientApproval",
      "type": "error"
    },
    {
      "inputs": [
        {
          "internalType": "address",
          "name": "approver",
          "type": "address"
        }
      ],
      "name": "ERC721InvalidApprover",
      "type": "error"
    },
    {
      "inputs": [
        {
          "internalType": "address",
          "name": "operator",
          "type": "address"
        }
      ],
      "name": "ERC721InvalidOperator",
      "type": "error"
    },
    {
      "inputs": [
        {
          "internalType": "address",
          "name": "owner",
          "type": "address"
        }
      ],
      "name": "ERC721InvalidOwner",
      "type": "error"
    },
    {
      "inputs": [
        {
          "internalType": "address",
          "name": "receiver",
          "type": "address"
        }
      ],
      "name": "ERC721InvalidReceiver",
      "type": "error"
    },
    {
      "inputs": [
        {
          "internalType": "address",
          "name": "sender",
          "type": "address"
        }
      ],
      "name": "ERC721InvalidSender",
      "type": "error"
    },
    {
      "inputs": [
        {
          "internalType": "uint256",
          "name": "tokenId",
          "type": "uint256"
        }
      ],
      "name": "ERC721NonexistentToken",
      "type": "error"
    },
    {
      "inputs": [
        {
          "internalType": "address",
          "name": "owner",
          "type": "address"
        },
        {
          "internalType": "uint256",
          "name": "index",
          "type": "uint256"
        }
      ],
      "name": "ERC721OutOfBoundsIndex",
      "type": "error"
    },
    {
      "inputs": [],
      "name": "InvalidInitialization",
      "type": "error"
    },
    {
      "inputs": [
        {
          "internalType": "bytes32",
          "name": "param",
          "type": "bytes32"
        }
      ],
      "name": "InvalidParam",
      "type": "error"
    },
    {
      "inputs": [
        {
          "internalType": "address",
          "name": "caller",
          "type": "address"
        }
      ],
      "name": "NotGovernance",
      "type": "error"
    },
    {
      "inputs": [],
      "name": "NotInitializing",
      "type": "error"
    },
    {
      "inputs": [
        {
          "internalType": "address",
          "name": "caller",
          "type": "address"
        }
      ],
      "name": "NotLetsNonExeSale",
      "type": "error"
    },
    {
      "inputs": [
        {
          "internalType": "address",
          "name": "caller",
          "type": "address"
        }
      ],
      "name": "NotLetsSale",
      "type": "error"
    },
    {
      "inputs": [],
      "name": "NotTransferable",
      "type": "error"
    },
    {
      "inputs": [
        {
          "internalType": "address",
          "name": "owner",
          "type": "address"
        }
      ],
      "name": "OwnableInvalidOwner",
      "type": "error"
    },
    {
      "inputs": [
        {
          "internalType": "address",
          "name": "account",
          "type": "address"
        }
      ],
      "name": "OwnableUnauthorizedAccount",
      "type": "error"
    },
    {
      "anonymous": false,
      "inputs": [
        {
          "indexed": true,
          "internalType": "address",
          "name": "owner",
          "type": "address"
        },
        {
          "indexed": true,
          "internalType": "address",
          "name": "approved",
          "type": "address"
        },
        {
          "indexed": true,
          "internalType": "uint256",
          "name": "tokenId",
          "type": "uint256"
        }
      ],
      "name": "Approval",
      "type": "event"
    },
    {
      "anonymous": false,
      "inputs": [
        {
          "indexed": true,
          "internalType": "address",
          "name": "owner",
          "type": "address"
        },
        {
          "indexed": true,
          "internalType": "address",
          "name": "operator",
          "type": "address"
        },
        {
          "indexed": false,
          "internalType": "bool",
          "name": "approved",
          "type": "bool"
        }
      ],
      "name": "ApprovalForAll",
      "type": "event"
    },
    {
      "anonymous": false,
      "inputs": [
        {
          "indexed": false,
          "internalType": "uint256",
          "name": "_fromTokenId",
          "type": "uint256"
        },
        {
          "indexed": false,
          "internalType": "uint256",
          "name": "_toTokenId",
          "type": "uint256"
        }
      ],
      "name": "BatchMetadataUpdate",
      "type": "event"
    },
    {
      "anonymous": false,
      "inputs": [
        {
          "indexed": false,
          "internalType": "uint64",
          "name": "version",
          "type": "uint64"
        }
      ],
      "name": "Initialized",
      "type": "event"
    },
    {
      "anonymous": false,
      "inputs": [
        {
          "indexed": false,
          "internalType": "uint256",
          "name": "_tokenId",
          "type": "uint256"
        }
      ],
      "name": "MetadataUpdate",
      "type": "event"
    },
    {
      "anonymous": false,
      "inputs": [
        {
          "indexed": true,
          "internalType": "address",
          "name": "previousOwner",
          "type": "address"
        },
        {
          "indexed": true,
          "internalType": "address",
          "name": "newOwner",
          "type": "address"
        }
      ],
      "name": "OwnershipTransferred",
      "type": "event"
    },
    {
      "anonymous": false,
      "inputs": [
        {
          "indexed": false,
          "internalType": "uint256",
          "name": "tokenId",
          "type": "uint256"
        }
      ],
      "name": "TokenFrozen",
      "type": "event"
    },
    {
      "anonymous": false,
      "inputs": [
        {
          "indexed": false,
          "internalType": "uint256",
          "name": "tokenId",
          "type": "uint256"
        }
      ],
      "name": "TokenUnfrozen",
      "type": "event"
    },
    {
      "anonymous": false,
      "inputs": [
        {
          "indexed": true,
          "internalType": "address",
          "name": "from",
          "type": "address"
        },
        {
          "indexed": true,
          "internalType": "address",
          "name": "to",
          "type": "address"
        },
        {
          "indexed": true,
          "internalType": "uint256",
          "name": "tokenId",
          "type": "uint256"
        }
      ],
      "name": "Transfer",
      "type": "event"
    },
    {
      "inputs": [
        {
          "internalType": "address",
          "name": "to",
          "type": "address"
        },
        {
          "internalType": "uint256",
          "name": "tokenId",
          "type": "uint256"
        }
      ],
      "name": "approve",
      "outputs": [],
      "stateMutability": "nonpayable",
      "type": "function"
    },
    {
      "inputs": [
        {
          "internalType": "address",
          "name": "owner",
          "type": "address"
        }
      ],
      "name": "balanceOf",
      "outputs": [
        {
          "internalType": "uint256",
          "name": "",
          "type": "uint256"
        }
      ],
      "stateMutability": "view",
      "type": "function"
    },
    {
      "inputs": [],
      "name": "baseURI",
      "outputs": [
        {
          "internalType": "string",
          "name": "",
          "type": "string"
        }
      ],
      "stateMutability": "view",
      "type": "function"
    },
    {
      "inputs": [],
      "name": "extension",
      "outputs": [
        {
          "internalType": "string",
          "name": "",
          "type": "string"
        }
      ],
      "stateMutability": "view",
      "type": "function"
    },
    {
      "inputs": [
        {
          "internalType": "uint256",
          "name": "tokenId",
          "type": "uint256"
        }
      ],
      "name": "freezeToken",
      "outputs": [],
      "stateMutability": "nonpayable",
      "type": "function"
    },
    {
      "inputs": [
        {
          "internalType": "uint256",
          "name": "tokenId",
          "type": "uint256"
        }
      ],
      "name": "getApproved",
      "outputs": [
        {
          "internalType": "address",
          "name": "",
          "type": "address"
        }
      ],
      "stateMutability": "view",
      "type": "function"
    },
    {
      "inputs": [],
      "name": "getLetsSale",
      "outputs": [
        {
          "internalType": "address",
          "name": "",
          "type": "address"
        }
      ],
      "stateMutability": "view",
      "type": "function"
    },
    {
      "inputs": [],
      "name": "getSC",
      "outputs": [
        {
          "internalType": "address",
          "name": "",
          "type": "address"
        }
      ],
      "stateMutability": "view",
      "type": "function"
    },
    {
      "inputs": [
        {
          "internalType": "address",
          "name": "owner",
          "type": "address"
        }
      ],
      "name": "getTokensOfOwner",
      "outputs": [
        {
          "internalType": "uint256[]",
          "name": "",
          "type": "uint256[]"
        }
      ],
      "stateMutability": "view",
      "type": "function"
    },
    {
      "inputs": [
        {
          "internalType": "uint256",
          "name": "tokenId",
          "type": "uint256"
        }
      ],
      "name": "getUpdatedToken",
      "outputs": [
        {
          "internalType": "uint256",
          "name": "",
          "type": "uint256"
        }
      ],
      "stateMutability": "view",
      "type": "function"
    },
    {
      "inputs": [
        {
          "internalType": "address",
          "name": "owner",
          "type": "address"
        },
        {
          "internalType": "address",
          "name": "sc",
          "type": "address"
        },
        {
          "internalType": "bytes",
          "name": "params",
          "type": "bytes"
        }
      ],
      "name": "initialize",
      "outputs": [],
      "stateMutability": "nonpayable",
      "type": "function"
    },
    {
      "inputs": [
        {
          "internalType": "address",
          "name": "owner",
          "type": "address"
        },
        {
          "internalType": "address",
          "name": "operator",
          "type": "address"
        }
      ],
      "name": "isApprovedForAll",
      "outputs": [
        {
          "internalType": "bool",
          "name": "",
          "type": "bool"
        }
      ],
      "stateMutability": "view",
      "type": "function"
    },
    {
      "inputs": [
        {
          "internalType": "address",
          "name": "to",
          "type": "address"
        },
        {
          "internalType": "uint256",
          "name": "tokenId",
          "type": "uint256"
        }
      ],
      "name": "mint",
      "outputs": [],
      "stateMutability": "nonpayable",
      "type": "function"
    },
    {
      "inputs": [
        {
          "internalType": "address",
          "name": "to",
          "type": "address"
        }
      ],
      "name": "mint",
      "outputs": [
        {
          "internalType": "uint256",
          "name": "tokenId",
          "type": "uint256"
        }
      ],
      "stateMutability": "nonpayable",
      "type": "function"
    },
    {
      "inputs": [],
      "name": "name",
      "outputs": [
        {
          "internalType": "string",
          "name": "",
          "type": "string"
        }
      ],
      "stateMutability": "view",
      "type": "function"
    },
    {
      "inputs": [],
      "name": "owner",
      "outputs": [
        {
          "internalType": "address",
          "name": "",
          "type": "address"
        }
      ],
      "stateMutability": "view",
      "type": "function"
    },
    {
      "inputs": [
        {
          "internalType": "uint256",
          "name": "tokenId",
          "type": "uint256"
        }
      ],
      "name": "ownerOf",
      "outputs": [
        {
          "internalType": "address",
          "name": "",
          "type": "address"
        }
      ],
      "stateMutability": "view",
      "type": "function"
    },
    {
      "inputs": [],
      "name": "renounceOwnership",
      "outputs": [],
      "stateMutability": "nonpayable",
      "type": "function"
    },
    {
      "inputs": [
        {
          "internalType": "address",
          "name": "from",
          "type": "address"
        },
        {
          "internalType": "address",
          "name": "to",
          "type": "address"
        },
        {
          "internalType": "uint256",
          "name": "tokenId",
          "type": "uint256"
        }
      ],
      "name": "safeTransferFrom",
      "outputs": [],
      "stateMutability": "nonpayable",
      "type": "function"
    },
    {
      "inputs": [
        {
          "internalType": "address",
          "name": "from",
          "type": "address"
        },
        {
          "internalType": "address",
          "name": "to",
          "type": "address"
        },
        {
          "internalType": "uint256",
          "name": "tokenId",
          "type": "uint256"
        },
        {
          "internalType": "bytes",
          "name": "data",
          "type": "bytes"
        }
      ],
      "name": "safeTransferFrom",
      "outputs": [],
      "stateMutability": "nonpayable",
      "type": "function"
    },
    {
      "inputs": [
        {
          "internalType": "address",
          "name": "operator",
          "type": "address"
        },
        {
          "internalType": "bool",
          "name": "approved",
          "type": "bool"
        }
      ],
      "name": "setApprovalForAll",
      "outputs": [],
      "stateMutability": "nonpayable",
      "type": "function"
    },
    {
      "inputs": [
        {
          "internalType": "bytes4",
          "name": "interfaceId",
          "type": "bytes4"
        }
      ],
      "name": "supportsInterface",
      "outputs": [
        {
          "internalType": "bool",
          "name": "",
          "type": "bool"
        }
      ],
      "stateMutability": "view",
      "type": "function"
    },
    {
      "inputs": [],
      "name": "symbol",
      "outputs": [
        {
          "internalType": "string",
          "name": "",
          "type": "string"
        }
      ],
      "stateMutability": "view",
      "type": "function"
    },
    {
      "inputs": [
        {
          "internalType": "uint256",
          "name": "index",
          "type": "uint256"
        }
      ],
      "name": "tokenByIndex",
      "outputs": [
        {
          "internalType": "uint256",
          "name": "",
          "type": "uint256"
        }
      ],
      "stateMutability": "view",
      "type": "function"
    },
    {
      "inputs": [
        {
          "internalType": "address",
          "name": "owner",
          "type": "address"
        },
        {
          "internalType": "uint256",
          "name": "index",
          "type": "uint256"
        }
      ],
      "name": "tokenOfOwnerByIndex",
      "outputs": [
        {
          "internalType": "uint256",
          "name": "",
          "type": "uint256"
        }
      ],
      "stateMutability": "view",
      "type": "function"
    },
    {
      "inputs": [
        {
          "internalType": "uint256",
          "name": "tokenId",
          "type": "uint256"
        }
      ],
      "name": "tokenURI",
      "outputs": [
        {
          "internalType": "string",
          "name": "",
          "type": "string"
        }
      ],
      "stateMutability": "view",
      "type": "function"
    },
    {
      "inputs": [],
      "name": "totalSupply",
      "outputs": [
        {
          "internalType": "uint256",
          "name": "",
          "type": "uint256"
        }
      ],
      "stateMutability": "view",
      "type": "function"
    },
    {
      "inputs": [
        {
          "internalType": "address",
          "name": "from",
          "type": "address"
        },
        {
          "internalType": "address",
          "name": "to",
          "type": "address"
        },
        {
          "internalType": "uint256",
          "name": "tokenId",
          "type": "uint256"
        }
      ],
      "name": "transferFrom",
      "outputs": [],
      "stateMutability": "nonpayable",
      "type": "function"
    },
    {
      "inputs": [
        {
          "internalType": "address",
          "name": "newOwner",
          "type": "address"
        }
      ],
      "name": "transferOwnership",
      "outputs": [],
      "stateMutability": "nonpayable",
      "type": "function"
    },
    {
      "inputs": [
        {
          "internalType": "uint256",
          "name": "tokenId",
          "type": "uint256"
        }
      ],
      "name": "unfreezeToken",
      "outputs": [],
      "stateMutability": "nonpayable",
      "type": "function"
    }
  ],
  "bytecode": "0x608060405234602357600e6028565b60146028565b60405161261d90816100e58239f35b600080fd5b7ff0c57e16840df040f15088dc2f81fe391c3923bec73e23a9662efc9c229c6a005460ff8160401c1660d3576002600160401b03196001600160401b03821601606e5750565b6001600160401b0319166001600160401b039081177ff0c57e16840df040f15088dc2f81fe391c3923bec73e23a9662efc9c229c6a00556040519081527fc7f505b2f371ae2175ee4913f4499e1f2633a7b5936321eed1cdaeb6115181d290602090a1565b63f92ee8a960e01b60005260046000fdfe608080604052600436101561001357600080fd5b60003560e01c90816301ffc9a714611db55750806306fdde0314611d05578063081812fc14611ca8578063095ea7b314611bad57806318160ddd14611b7057806323b872dd14611b495780632d5537b014611ab35780632f745c5914611a8c57806340c10f19146117b457806342842e0e146117845780634d787ea9146117185780634df61a43146116ef5780634f6ccce7146116475780635de6dc55146115685780636352211e146115385780636a6278421461123a5780636c0360eb146111a457806370a0823114611179578063715018a61461110f5780638da5cb5b146110d957806395d89b4114610ff257806397294fea14610fc6578063a22cb46514610f2a578063b6854f9614610ebb578063b88d4fde14610e49578063c806aead14610e20578063c87b56dd14610de9578063cf7a1d77146101e7578063e985e9c5146101995763f2fde38b1461016957600080fd5b3461019457602036600319011261019457610192610185611e9c565b61018d612278565b61214d565b005b600080fd5b34610194576040366003190112610194576101b2611e9c565b6101c36101bd611eb2565b91611fbf565b9060018060a01b0316600052602052602060ff604060002054166040519015158152f35b3461019457606036600319011261019457610200611e9c565b610208611eb2565b6044356001600160401b03811161019457610227903690600401611f78565b9060008051602061258883398151915254916001600160401b0360ff8460401c1615931680159081610de1575b6001149081610dd7575b159081610dce575b50610d70578261027461211e565b610d9c575b60008051602061258883398151915254916001600160401b0360ff8460401c1615931680159081610d94575b6001149081610d8a575b159081610d81575b50610d7057826102c561211e565b610d3e575b61031460409561030487516102df8982611f3c565b60138152724c4554534261736520696e697469616c697a6560681b60208201526123f2565b61030c6124d9565b61018d6124d9565b61031c6124d9565b60018060a01b03166001600160601b0360a01b600054161760005580516020820190820160c083602083019203126101945781516001600160401b0381116101945781602061036d92860101612399565b90868401516001600160401b0381116101945781602061038f92870101612399565b60608501516001600160401b038111610194578260206103b192880101612399565b916080860151906001600160401b0382116101945760206103d492880101612399565b926103e160a087016123de565b956103ee60c082016123de565b8a516001600160a01b039889169890911696906104369061040f8d82611f3c565b601581527404c4554534261736520696e697469616c697a65203605c1b60208201526123f2565b61045d838c61044781519182611f3c565b60048152636e616d6560e01b6020820152612445565b610486848c61046e81519182611f3c565b60068152651cde5b589bdb60d21b6020820152612445565b6104b0858c61049781519182611f3c565b60078152666261736555524960c81b6020820152612445565b6104dc868c6104c181519182611f3c565b600981526832bc3a32b739b4b7b760b91b6020820152612445565b610507878c6104ed81519182611f3c565b60088152676c65747353616c6560c01b602082015261248a565b610534888c61051881519182611f3c565b600a815269676f7665726e616e636560b01b602082015261248a565b825115159182610d33575b82610d28575b82610d1d575b82610d13575b82610d09575b5190519060208110610cf7575b509015610ce357506105a2895161057b8b82611f3c565b60158152744c4554534261736520696e697469616c697a65203160581b60208201526123f2565b6105aa6124d9565b6105b26124d9565b8051906001600160401b0382116109b05781906105dd60008051602061252883398151915254611f02565b601f8111610c5f575b50602090601f8311600114610bd157600092610bc6575b50508160011b916000199060031b1c191617600080516020612528833981519152555b8051906001600160401b0382116109b057819061064b6000805160206125a883398151915254611f02565b601f8111610b49575b50602090601f8311600114610ac757600092610abc575b50508160011b916000199060031b1c1916176000805160206125a8833981519152555b6106c4875161069d8982611f3c565b60158152742622aa29a130b9b29034b734ba34b0b634bd32901960591b60208201526123f2565b8051906001600160401b0382116109b05781906106e2600454611f02565b601f8111610a45575b50602090601f83116001146109d1576000926109c6575b50508160011b916000199060031b1c1916176004555b8051906001600160401b0382116109b0578190610736600554611f02565b601f8111610939575b50602090601f83116001146108c5576000926108ba575b50508160011b916000199060031b1c1916176005555b6001600160601b0360a01b60015416176001556001600160601b0360a01b60025416176002556107c883516107a18582611f3c565b60158152744c4554534261736520696e697469616c697a65203360581b60208201526123f2565b61080683516107d78582611f3c565b601881527f4c4554534261736520696e697469616c697a6520646f6e65000000000000000060208201526123f2565b610864575b61081157005b60207fc7f505b2f371ae2175ee4913f4499e1f2633a7b5936321eed1cdaeb6115181d29160ff60401b196000805160206125888339815191525416600080516020612588833981519152555160018152a1005b60ff60401b196000805160206125888339815191525416600080516020612588833981519152557fc7f505b2f371ae2175ee4913f4499e1f2633a7b5936321eed1cdaeb6115181d26020835160018152a161080b565b015190508780610756565b600560009081526000805160206125088339815191529350601f198516905b8181106109215750908460019594939210610908575b505050811b0160055561076c565b015160001960f88460031b161c191690558780806108fa565b929360206001819287860151815501950193016108e4565b9091506005600052601f830160051c60008051602061250883398151915201906020841061099a575b90601f8493920160051c60008051602061250883398151915201905b81811061098b575061073f565b6000815584935060010161097e565b6000805160206125088339815191529150610962565b634e487b7160e01b600052604160045260246000fd5b015190508880610702565b600460009081526000805160206125688339815191529350601f198516905b818110610a2d5750908460019594939210610a14575b505050811b01600455610718565b015160001960f88460031b161c19169055888080610a06565b929360206001819287860151815501950193016109f0565b9091506004600052601f830160051c600080516020612568833981519152019060208410610aa6575b90601f8493920160051c60008051602061256883398151915201905b818110610a9757506106eb565b60008155849350600101610a8a565b6000805160206125688339815191529150610a6e565b01519050898061066b565b6000805160206125a883398151915260009081528281209350601f198516905b818110610b315750908460019594939210610b18575b505050811b016000805160206125a88339815191525561068e565b015160001960f88460031b161c19169055898080610afd565b92936020600181928786015181550195019301610ae7565b6000805160206125a88339815191526000529091507ff4bad0a69248f59680a4f2b3000328cec71a413447c96781cfe5996daa8c456e601f840160051c81019160208510610bbc575b90601f859493920160051c01905b818110610bad5750610654565b60008155849350600101610ba0565b9091508190610b92565b015190508a806105fd565b60008051602061252883398151915260009081526000805160206125c88339815191529350601f198516905b818110610c475750908460019594939210610c2e575b505050811b0160008051602061252883398151915255610620565b015160001960f88460031b161c191690558a8080610c13565b92936020600181928786015181550195019301610bfd565b909150600080516020612528833981519152600052601f830160051c6000805160206125c8833981519152019060208410610ccd575b90601f8493920160051c6000805160206125c883398151915201905b818110610cbe57506105e6565b60008155849350600101610cb1565b6000805160206125c88339815191529150610c95565b6308d49be960e31b60005260045260246000fd5b6000199060200360031b1b168b610564565b8815159250610557565b8715159250610551565b86511515925061054b565b855115159250610545565b84511515925061053f565b600160401b60ff60401b19600080516020612588833981519152541617600080516020612588833981519152556102ca565b63f92ee8a960e01b60005260046000fd5b905015866102b7565b303b1591506102af565b8491506102a5565b600160401b60ff60401b1960008051602061258883398151915254161760008051602061258883398151915255610279565b90501585610266565b303b15915061025e565b849150610254565b3461019457602036600319011261019457610e1c610e086004356122ae565b604051918291602083526020830190611e77565b0390f35b34610194576000366003190112610194576000546040516001600160a01b039091168152602090f35b3461019457608036600319011261019457610e62611e9c565b50610e6b611eb2565b6064356001600160401b03811161019457610e8a903690600401611f78565b506001600160a01b03811615610ea557339060443590612219565b633250574960e11b600052600060045260246000fd5b34610194576020366003190112610194577f74308730007d8ee5b3c18fad784efa3555f62695e36960f803f475eeb663d10e6020600435610f0960018060a01b03600254163390331461206b565b80600052600682526040600020600160ff19825416179055604051908152a1005b3461019457604036600319011261019457610f43611e9c565b60243590811515809203610194576001600160a01b0316908115610fb157610f6a33611fbf565b82600052602052604060002060ff1981541660ff83161790556040519081527f17307eab39ab6107e8899845ad3d59bd9653f200f220920489ca2b5937696c3160203392a3005b50630b61174360e31b60005260045260246000fd5b346101945760203660031901126101945760043560005260076020526020604060002054604051908152f35b346101945760003660031901126101945760405160006000805160206125a88339815191525461102181611f02565b80845290600181169081156110b55750600114611049575b610e1c83610e0881850382611f3c565b6000805160206125a883398151915260009081527ff4bad0a69248f59680a4f2b3000328cec71a413447c96781cfe5996daa8c456e939250905b80821061109b57509091508101602001610e08611039565b919260018160209254838588010152019101909291611083565b60ff191660208086019190915291151560051b84019091019150610e089050611039565b3461019457600036600319011261019457600080516020612548833981519152546040516001600160a01b039091168152602090f35b3461019457600036600319011261019457611128612278565b60008051602061254883398151915280546001600160a01b031981169091556000906001600160a01b03167f8be0079c531659141344cd1fd0a4f28419497f9722a3daafe3b4186f6b6457e08280a3005b3461019457602036600319011261019457602061119c611197611e9c565b6120c9565b604051908152f35b346101945760003660031901126101945760405160006004546111c681611f02565b80845290600181169081156110b557506001146111ed57610e1c83610e0881850382611f3c565b60046000908152600080516020612568833981519152939250905b80821061122057509091508101602001610e08611039565b919260018160209254838588010152019101909291611208565b3461019457602036600319011261019457611253611e9c565b6001546001600160a01b0316330361152357600354600019811461150d576001019081600355600061128481611f5d565b6112916040519182611f3c565b5260405191608083019260a0810160405260008452600a82945b60001901946030828206018653049384156112c857600a906112ab565b809450608091036112ea82820180601f19880152604051966020880190611e54565b840101836000600554926112fd84611f02565b93600181169081156114ef57506001146114a1575b50611326925003601f198101855284611f3c565b806000527f0542a41881ee128a365a727b282c86fa859579490b9bb45aab8503648c8e7900602052604060002083516001600160401b0381116109b05761136d8254611f02565b601f8111611459575b50602094601f82116001146113f4579481929394956000926113e9575b50508160011b916000199060031b1c19161790555b7ff8e1a15aba9398e019f0b49df1a4fde98ee17ae345cb5f6b5e2c27f5033e8ce76020604051838152a16001600160a01b03821615610ea557600091612219565b015190508580611393565b601f1982169583600052806000209160005b88811061144157508360019596979810611428575b505050811b0190556113a8565b015160001960f88460031b161c1916905585808061141b565b91926020600181928685015181550194019201611406565b826000526020600020601f830160051c81019160208410611497575b601f0160051c01905b81811061148b5750611376565b6000815560010161147e565b9091508190611475565b905060056000526000805160206125088339815191526000905b8482106114d357505061132692602091010186611312565b60209192935080600191548385870101520191018692916114bb565b6020935061132695915060ff19168383015280151502010186611312565b634e487b7160e01b600052601160045260246000fd5b63da76f27d60e01b6000523360045260246000fd5b346101945760203660031901126101945760206115566004356121c3565b6040516001600160a01b039091168152f35b3461019457602036600319011261019457611581611e9c565b61158a816120c9565b90611594826120b2565b916115a26040519384611f3c565b8083526115ae816120b2565b602084019290601f190136843760005b82811061160a5783856040519182916020830190602084525180915260408301919060005b8181106115f1575050500390f35b82518452859450602093840193909201916001016115e3565b6116148183611ff8565b9085518110156116315760019160208260051b88010152016115be565b634e487b7160e01b600052603260045260246000fd5b34610194576020366003190112610194576004357f645e039705490088daad89bae25049a34f4a9072d398537b1ab2425f24cbed02548110156116d6577f645e039705490088daad89bae25049a34f4a9072d398537b1ab2425f24cbed026000527fa42f15e5d656f8155fd7419d740a6073999f19cd6e061449ce4a257150545bf20154604051908152602090f35b63295f44f760e21b600052600060045260245260446000fd5b34610194576000366003190112610194576001546040516001600160a01b039091168152602090f35b34610194576020366003190112610194577fdad54db74d8c1152c7cb496a900d181b8e9b69b70e55db2362bd100897a4f7a1602060043561176660018060a01b03600254163390331461206b565b8060005260068252604060002060ff198154169055604051908152a1005b346101945761179236611ec8565b90915061179d612094565b506001600160a01b03821615610ea5573391612219565b34610194576040366003190112610194576117cd611e9c565b600254602435906117ea9033906001600160a01b0316811461206b565b602060006040516117fb8382611f3c565b52604051608081019060a0810160405260008252600a84925b600019019260308282060184530491821561183157600a90611814565b809250608091030190601f19019081526040519061185781518092858086019101611e54565b81018160006005549261186984611f02565b9386600182169182600014611a6f575050600114611a30575b50611896925003601f198101835282611f3c565b826000527f0542a41881ee128a365a727b282c86fa859579490b9bb45aab8503648c8e790082526040600020908051906001600160401b0382116109b0576118de8354611f02565b601f81116119ea575b508390601f8311600114611961577ff8e1a15aba9398e019f0b49df1a4fde98ee17ae345cb5f6b5e2c27f5033e8ce79493929160009183611956575b50508160011b916000199060031b1c19161790555b604051838152a16001600160a01b03821615610ea557600091612219565b015190508780611923565b90601f1983169184600052856000209260005b8181106119d357509160019391857ff8e1a15aba9398e019f0b49df1a4fde98ee17ae345cb5f6b5e2c27f5033e8ce798979694106119ba575b505050811b019055611938565b015160001960f88460031b161c191690558780806119ad565b929387600181928786015181550195019301611974565b8360005284600020601f840160051c810191868510611a26575b601f0160051c01905b818110611a1a57506118e7565b60008155600101611a0d565b9091508190611a04565b8591506005600052816000206000905b858210611a565750509261189693010187611882565b8054838301850152869450879390910190600101611a40565b90935061189695915060ff19168383015280151502010187611882565b3461019457604036600319011261019457602061119c611aaa611e9c565b60243590611ff8565b34610194576000366003190112610194576040516000600554611ad581611f02565b80845290600181169081156110b55750600114611afc57610e1c83610e0881850382611f3c565b60056000908152600080516020612508833981519152939250905b808210611b2f57509091508101602001610e08611039565b919260018160209254838588010152019101909291611b17565b3461019457611b5736611ec8565b9091506001600160a01b03821615610ea5573391612219565b346101945760003660031901126101945760207f645e039705490088daad89bae25049a34f4a9072d398537b1ab2425f24cbed0254604051908152f35b3461019457604036600319011261019457611bc6611e9c565b602435611bd2816121c3565b9133151580611c95575b80611c71575b611c5c576001600160a01b039081169282918491167f8c5be1e5ebec7d5bd14f71427d1e84f3dd0314c0f7b2291e5b200ac8c7c3b925600080a460009081527f80bb2b638cc20bc4d0a60d66940f3ab4a00c1d7b313497ca82fb0b4ab00793046020526040902080546001600160a01b0319169091179055005b63a9fbf51f60e01b6000523360045260246000fd5b50611c7b83611fbf565b336000908152602091909152604090205460ff1615611be2565b506001600160a01b038316331415611bdc565b3461019457602036600319011261019457600435611cc5816121c3565b506000527f80bb2b638cc20bc4d0a60d66940f3ab4a00c1d7b313497ca82fb0b4ab0079304602052602060018060a01b0360406000205416604051908152f35b3461019457600036600319011261019457604051600060008051602061252883398151915254611d3481611f02565b80845290600181169081156110b55750600114611d5b57610e1c83610e0881850382611f3c565b60008051602061252883398151915260009081526000805160206125c8833981519152939250905b808210611d9b57509091508101602001610e08611039565b919260018160209254838588010152019101909291611d83565b34610194576020366003190112610194576004359063ffffffff60e01b82168092036101945760209163780e9d6360e01b8114908115611df7575b5015158152f35b632483248360e11b811491508115611e11575b5083611df0565b6380ac58cd60e01b811491508115611e43575b8115611e32575b5083611e0a565b6301ffc9a760e01b14905083611e2b565b635b5e139f60e01b81149150611e24565b60005b838110611e675750506000910152565b8181015183820152602001611e57565b90602091611e9081518092818552858086019101611e54565b601f01601f1916010190565b600435906001600160a01b038216820361019457565b602435906001600160a01b038216820361019457565b6060906003190112610194576004356001600160a01b038116810361019457906024356001600160a01b0381168103610194579060443590565b90600182811c92168015611f32575b6020831014611f1c57565b634e487b7160e01b600052602260045260246000fd5b91607f1691611f11565b90601f801991011681019081106001600160401b038211176109b057604052565b6001600160401b0381116109b057601f01601f191660200190565b81601f8201121561019457803590611f8f82611f5d565b92611f9d6040519485611f3c565b8284526020838301011161019457816000926020809301838601378301015290565b6001600160a01b031660009081527f80bb2b638cc20bc4d0a60d66940f3ab4a00c1d7b313497ca82fb0b4ab00793056020526040902090565b612001816120c9565b82101561204c5760018060a01b03166000527f645e039705490088daad89bae25049a34f4a9072d398537b1ab2425f24cbed0060205260406000209060005260205260406000205490565b63295f44f760e21b60005260018060a01b031660045260245260446000fd5b156120735750565b63988d1f0360e01b60009081526001600160a01b0391909116600452602490fd5b61209e6000611f5d565b906120ac6040519283611f3c565b60008252565b6001600160401b0381116109b05760051b60200190565b6001600160a01b03168015612108576000527f80bb2b638cc20bc4d0a60d66940f3ab4a00c1d7b313497ca82fb0b4ab007930360205260406000205490565b6322718ad960e21b600052600060045260246000fd5b60016001600160401b031960008051602061258883398151915254161760008051602061258883398151915255565b6001600160a01b031680156121ad5760008051602061254883398151915280546001600160a01b0319811683179091556001600160a01b03167f8be0079c531659141344cd1fd0a4f28419497f9722a3daafe3b4186f6b6457e0600080a3565b631e4fbdf760e01b600052600060045260246000fd5b60008181527f80bb2b638cc20bc4d0a60d66940f3ab4a00c1d7b313497ca82fb0b4ab007930260205260409020546001600160a01b0316908115612205575090565b637e27328960e01b60005260045260246000fd5b60008281527f80bb2b638cc20bc4d0a60d66940f3ab4a00c1d7b313497ca82fb0b4ab007930260205260409020546001600160a01b031615612219576002546001600160a01b031633146122195763dc8d8db760e01b60005260046000fd5b600080516020612548833981519152546001600160a01b0316330361229957565b63118cdaa760e01b6000523360045260246000fd5b6122b7816121c3565b506000527f0542a41881ee128a365a727b282c86fa859579490b9bb45aab8503648c8e79006020526040600020604051908160008254926122f784611f02565b80845293600181169081156123775750600114612330575b5061231c92500382611f3c565b600060405161232c602082611f3c565b5290565b90506000929192526020600020906000915b81831061235b57505090602061231c928201013861230f565b6020919350806001915483858801015201910190918392612342565b90506020925061231c94915060ff191682840152151560051b8201013861230f565b81601f820112156101945780516123af81611f5d565b926123bd6040519485611f3c565b81845260208284010111610194576123db9160208085019101611e54565b90565b51906001600160a01b038216820361019457565b600061242061242e829360405192839163104c13eb60e21b6020840152602060248401526044830190611e77565b03601f198101835282611f3c565b6020815191016a636f6e736f6c652e6c6f675afa50565b61247861242e600093926124208594604051948593634b5c427760e01b6020860152604060248601526064850190611e77565b83810360231901604485015290611e77565b6124ba61242e60009392849360405193849263319af33360e01b6020850152604060248501526064840190611e77565b6001600160a01b0391909116604483015203601f198101835282611f3c565b60ff6000805160206125888339815191525460401c16156124f657565b631afcd79f60e31b60005260046000fdfe036b6384b5eca791c62761152d0c79bb0604c104a5fb6f4eb0703f3154bb3db080bb2b638cc20bc4d0a60d66940f3ab4a00c1d7b313497ca82fb0b4ab00793009016d09d72d40fdae2fd8ceac6b6234c7706214fd39c1cd1e609a0528c1993008a35acfbc15ff81a39ae7d344fd709f28e8600b4aa8c65c6b64bfe7fe36bd19bf0c57e16840df040f15088dc2f81fe391c3923bec73e23a9662efc9c229c6a0080bb2b638cc20bc4d0a60d66940f3ab4a00c1d7b313497ca82fb0b4ab007930137c58c799b6609234b945e882912ee9ad34948a1dfaa20a97485e1a7752bbf81a26469706673582212202493c87b7ae00608ac80f94c6029ac8b54df39aaeecfff1d43a46d14254e7b2764736f6c634300081c0033",
  "linkReferences": {},
  "deployedLinkReferences": {}
}