{
  "_format": "hh-sol-artifact-1",
  "contractName": "SCT",
  "sourceName": "contracts/sc/SCT/functions/SCT.sol",
  "abi": [
    {
      "inputs": [
        {
          "internalType": "address",
          "name": "account",
          "type": "address"
        },
        {
          "internalType": "bytes32",
          "name": "neededRole",
          "type": "bytes32"
        }
      ],
      "name": "AccessControlUnauthorizedAccount",
      "type": "error"
    },
    {
      "inputs": [],
      "name": "AlreadyInitialized",
      "type": "error"
    },
    {
      "inputs": [
        {
          "internalType": "address",
          "name": "account",
          "type": "address"
        }
      ],
      "name": "InvalidAddress",
      "type": "error"
    },
    {
      "inputs": [
        {
          "internalType": "address",
          "name": "account",
          "type": "address"
        }
      ],
      "name": "InvalidRegister",
      "type": "error"
    },
    {
      "inputs": [
        {
          "internalType": "address",
          "name": "account",
          "type": "address"
        }
      ],
      "name": "NotFounderOrSCR",
      "type": "error"
    },
    {
      "inputs": [
        {
          "internalType": "address",
          "name": "account",
          "type": "address"
        }
      ],
      "name": "NotGovernanceOrFounder",
      "type": "error"
    },
    {
      "anonymous": false,
      "inputs": [
        {
          "indexed": true,
          "internalType": "address",
          "name": "company",
          "type": "address"
        },
        {
          "indexed": false,
          "internalType": "enum ServiceType[]",
          "name": "serviceTypes",
          "type": "uint8[]"
        },
        {
          "indexed": false,
          "internalType": "address[]",
          "name": "services",
          "type": "address[]"
        }
      ],
      "name": "RegisterService",
      "type": "event"
    },
    {
      "inputs": [
        {
          "internalType": "address",
          "name": "account",
          "type": "address"
        }
      ],
      "name": "getInvestmentAmount",
      "outputs": [
        {
          "internalType": "uint256",
          "name": "",
          "type": "uint256"
        }
      ],
      "stateMutability": "view",
      "type": "function"
    },
    {
      "inputs": [],
      "name": "getSCR",
      "outputs": [
        {
          "internalType": "address",
          "name": "scr",
          "type": "address"
        }
      ],
      "stateMutability": "view",
      "type": "function"
    },
    {
      "inputs": [
        {
          "internalType": "enum ServiceType",
          "name": "serviceType",
          "type": "uint8"
        }
      ],
      "name": "getService",
      "outputs": [
        {
          "internalType": "address",
          "name": "",
          "type": "address"
        }
      ],
      "stateMutability": "view",
      "type": "function"
    },
    {
      "inputs": [
        {
          "internalType": "address",
          "name": "founder",
          "type": "address"
        },
        {
          "internalType": "address",
          "name": "scr",
          "type": "address"
        }
      ],
      "name": "initialize",
      "outputs": [],
      "stateMutability": "nonpayable",
      "type": "function"
    },
    {
      "inputs": [
        {
          "internalType": "enum ServiceType[]",
          "name": "serviceTypes",
          "type": "uint8[]"
        },
        {
          "internalType": "address[]",
          "name": "services",
          "type": "address[]"
        }
      ],
      "name": "registerService",
      "outputs": [
        {
          "internalType": "bool",
          "name": "completed",
          "type": "bool"
        }
      ],
      "stateMutability": "nonpayable",
      "type": "function"
    },
    {
      "inputs": [
        {
          "internalType": "address",
          "name": "account",
          "type": "address"
        },
        {
          "internalType": "uint256",
          "name": "investmentAmount",
          "type": "uint256"
        }
      ],
      "name": "setInvestmentAmount",
      "outputs": [],
      "stateMutability": "nonpayable",
      "type": "function"
    }
  ],
  "bytecode": "0x6080806040523460155761089c908161001b8239f35b600080fdfe6080604052600436101561001257600080fd5b60003560e01c80632d6fa4b21461063f5780633dbaac63146102ce5780634035c3721461020a578063485cc955146100cd5780636c4cd58e146100905763dd4173181461005e57600080fd5b3461008b57600036600319011261008b5760206001600160a01b03610081610755565b5416604051908152f35b600080fd5b3461008b57602036600319011261008b57600435600781101561008b576020906001600160a01b03906100819060016100c7610755565b01610727565b3461008b57604036600319011261008b576100e6610682565b602435906001600160a01b038216820361008b57604051602081017ff158cb8b47a14bda3b2c4affcc0d960e9ed23f5a516e4779510b08a6e823c0258152602082526101336040836106c9565b9051902060ff1916805460ff81166101fa5760ff1916600117905561015661082d565b6000808052602091825260408082206001600160a01b038516835290925220805460ff1916600117905561018861082d565b7f7ed687a8f2955bd2ba7ca08227e1e364d132be747f42fb733165f923021b022560005260205260406000209060018060a01b03166000526020526040600020600160ff198254161790556101db610755565b80546001600160a01b0319166001600160a01b03909216919091179055005b62dc149f60e41b60005260046000fd5b3461008b57604036600319011261008b57610223610682565b61022b61082d565b7fe1dcbdb91df27212a29bc27177c840cf2f819ecf2187432e1fac86c2dd5dfca9600090815260209182526040808220338352909252205460ff1615610295576002610275610755565b6001600160a01b0390921660009081529101602052604090206024359055005b63e2517d3f60e01b600052336004527fe1dcbdb91df27212a29bc27177c840cf2f819ecf2187432e1fac86c2dd5dfca960245260446000fd5b3461008b57604036600319011261008b5760043567ffffffffffffffff811161008b576102ff903690600401610698565b60243567ffffffffffffffff811161008b5761031f903690600401610698565b90926103536040516103326040826106c9565b600f81526e72656769737465725365727669636560881b60208201526107da565b6000806103a56103b960405161036a6040826106c9565b600a81526936b9b39739b2b73232b960b11b602082015260405192839163319af33360e01b6020840152604060248401526064830190610799565b33604483015203601f1981018352826106c9565b6020815191016a636f6e736f6c652e6c6f675afa506103d661082d565b7f7ed687a8f2955bd2ba7ca08227e1e364d132be747f42fb733165f923021b0225600090815260209182526040808220338352909252205460ff168015610625575b15610610579161045560405161042f6040826106c9565b601481527331b432b1b5903337bab73232b91037b91039b1b960611b60208201526107da565b60005b81811061055357506104986040516104716040826106c9565b6015815274736574207365727669636520636f6e74726163747360581b60208201526107da565b60405192816040850160408652526060840190916000905b80821061053157505060209150838103828501528281520192906000905b80821061050757307f13157260a4148ffc4980f3238bd78ae2b3ed7c5847f3b750cf243a424ff9d5ec85870386a2602060405160018152f35b90919384359060018060a01b03821680920361008b576020816001938293520195019201906104ce565b9091833590600782101561008b579081526020938401930191600101906104b0565b610561818487969496610701565b356001600160a01b038116919082900361008b5781156105fb576105b360405161058c6040826106c9565b6015815274636865636b20696e76616c6964206164647265737360581b60208201526107da565b60016105bd610755565b01916105ca828786610701565b3592600784101561008b576001936105e191610727565b80546001600160a01b031916909117905591939101610458565b50634726455360e11b60005260045260246000fd5b6359f6722160e01b6000523360045260246000fd5b506001600160a01b03610636610755565b54163314610418565b3461008b57602036600319011261008b57610658610682565b6002610662610755565b019060018060a01b03166000526020526020604060002054604051908152f35b600435906001600160a01b038216820361008b57565b9181601f8401121561008b5782359167ffffffffffffffff831161008b576020808501948460051b01011161008b57565b90601f8019910116810190811067ffffffffffffffff8211176106eb57604052565b634e487b7160e01b600052604160045260246000fd5b91908110156107115760051b0190565b634e487b7160e01b600052603260045260246000fd5b90600781101561073f57600052602052604060002090565b634e487b7160e01b600052602160045260246000fd5b604051602081017fbc3d2aa592e762b6b9818deeb47ae607a065ca9ca1c655beb8de14401655721a81526020825261078e6040836106c9565b9051902060ff191690565b919082519283825260005b8481106107c5575050826000602080949584010152601f8019910116010190565b806020809284010151828286010152016107a4565b6000610808610816829360405192839163104c13eb60e21b6020840152602060248401526044830190610799565b03601f1981018352826106c9565b6020815191016a636f6e736f6c652e6c6f675afa50565b604051602081017fcf377bf0da9cb35454543c63ad54bf2c5a0466b629ac7517e61f8857cae0fa2581526020825261078e6040836106c956fea264697066735822122055df1999aff0cbcf9ced81c3da5881936e7934f24df090f2068484140095dacf64736f6c634300081c0033",
  "linkReferences": {},
  "deployedLinkReferences": {}
}