{
  "_format": "hh-sol-artifact-1",
  "contractName": "SCT",
  "sourceName": "contracts/sc/SCT/functions/SCT.sol",
  "abi": [
    {
      "inputs": [
        {
          "internalType": "address",
          "name": "account",
          "type": "address"
        },
        {
          "internalType": "bytes32",
          "name": "neededRole",
          "type": "bytes32"
        }
      ],
      "name": "AccessControlUnauthorizedAccount",
      "type": "error"
    },
    {
      "inputs": [
        {
          "internalType": "address",
          "name": "account",
          "type": "address"
        }
      ],
      "name": "InvalidAddress",
      "type": "error"
    },
    {
      "inputs": [
        {
          "internalType": "address",
          "name": "account",
          "type": "address"
        }
      ],
      "name": "InvalidRegister",
      "type": "error"
    },
    {
      "inputs": [
        {
          "internalType": "address",
          "name": "account",
          "type": "address"
        }
      ],
      "name": "NotFounderOrSCR",
      "type": "error"
    },
    {
      "inputs": [
        {
          "internalType": "address",
          "name": "account",
          "type": "address"
        }
      ],
      "name": "NotGovernanceOrFounder",
      "type": "error"
    },
    {
      "anonymous": false,
      "inputs": [
        {
          "indexed": true,
          "internalType": "address",
          "name": "company",
          "type": "address"
        },
        {
          "indexed": false,
          "internalType": "enum ServiceType[]",
          "name": "serviceTypes",
          "type": "uint8[]"
        },
        {
          "indexed": false,
          "internalType": "address[]",
          "name": "services",
          "type": "address[]"
        }
      ],
      "name": "RegisterService",
      "type": "event"
    },
    {
      "inputs": [
        {
          "internalType": "address",
          "name": "account",
          "type": "address"
        }
      ],
      "name": "getInvestmentAmount",
      "outputs": [
        {
          "internalType": "uint256",
          "name": "",
          "type": "uint256"
        }
      ],
      "stateMutability": "view",
      "type": "function"
    },
    {
      "inputs": [],
      "name": "getSCR",
      "outputs": [
        {
          "internalType": "address",
          "name": "scr",
          "type": "address"
        }
      ],
      "stateMutability": "view",
      "type": "function"
    },
    {
      "inputs": [
        {
          "internalType": "enum ServiceType",
          "name": "serviceType",
          "type": "uint8"
        }
      ],
      "name": "getService",
      "outputs": [
        {
          "internalType": "address",
          "name": "",
          "type": "address"
        }
      ],
      "stateMutability": "view",
      "type": "function"
    },
    {
      "inputs": [
        {
          "internalType": "enum ServiceType[]",
          "name": "serviceTypes",
          "type": "uint8[]"
        },
        {
          "internalType": "address[]",
          "name": "services",
          "type": "address[]"
        }
      ],
      "name": "registerService",
      "outputs": [
        {
          "internalType": "bool",
          "name": "completed",
          "type": "bool"
        }
      ],
      "stateMutability": "nonpayable",
      "type": "function"
    },
    {
      "inputs": [
        {
          "internalType": "address",
          "name": "account",
          "type": "address"
        },
        {
          "internalType": "uint256",
          "name": "investmentAmount",
          "type": "uint256"
        }
      ],
      "name": "setInvestmentAmount",
      "outputs": [],
      "stateMutability": "nonpayable",
      "type": "function"
    }
  ],
  "bytecode": "0x6080806040523460155761056c908161001b8239f35b600080fdfe6080604052600436101561001257600080fd5b60003560e01c80632d6fa4b2146103a35780633dbaac63146101865780634035c372146100c25780636c4cd58e146100855763dd4173181461005357600080fd5b346100805760003660031901126100805760206001600160a01b036100766104b9565b5416604051908152f35b600080fd5b34610080576020366003190112610080576004356007811015610080576020906001600160a01b03906100769060016100bc6104b9565b01610453565b34610080576040366003190112610080576100db6103e6565b6100e36104fd565b7fe1dcbdb91df27212a29bc27177c840cf2f819ecf2187432e1fac86c2dd5dfca9600090815260209182526040808220338352909252205460ff161561014d57600261012d6104b9565b6001600160a01b0390921660009081529101602052604090206024359055005b63e2517d3f60e01b600052336004527fe1dcbdb91df27212a29bc27177c840cf2f819ecf2187432e1fac86c2dd5dfca960245260446000fd5b346100805760403660031901126100805760043567ffffffffffffffff8111610080576101b79036906004016103fc565b60243567ffffffffffffffff8111610080576101d79036906004016103fc565b90926101e16104fd565b7f7ed687a8f2955bd2ba7ca08227e1e364d132be747f42fb733165f923021b0225600090815260209182526040808220338352909252205460ff168015610389575b15610374579160005b8181106102ef575060405192816040850160408652526060840190916000905b8082106102cd57505060209150838103828501528281520192906000905b8082106102a357307f13157260a4148ffc4980f3238bd78ae2b3ed7c5847f3b750cf243a424ff9d5ec85870386a2602060405160018152f35b90919384359060018060a01b0382168092036100805760208160019382935201950192019061026a565b909183359060078210156100805790815260209384019301916001019061024c565b6102fd81848796949661042d565b356001600160a01b038116919082900361008057811561035f5760016103216104b9565b019161032e82878661042d565b359260078410156100805760019361034591610453565b80546001600160a01b03191690911790559193910161022c565b50634726455360e11b60005260045260246000fd5b6359f6722160e01b6000523360045260246000fd5b506001600160a01b0361039a6104b9565b54163314610223565b34610080576020366003190112610080576103bc6103e6565b60026103c66104b9565b019060018060a01b03166000526020526020604060002054604051908152f35b600435906001600160a01b038216820361008057565b9181601f840112156100805782359167ffffffffffffffff8311610080576020808501948460051b01011161008057565b919081101561043d5760051b0190565b634e487b7160e01b600052603260045260246000fd5b90600781101561046b57600052602052604060002090565b634e487b7160e01b600052602160045260246000fd5b90601f8019910116810190811067ffffffffffffffff8211176104a357604052565b634e487b7160e01b600052604160045260246000fd5b604051602081017fbc3d2aa592e762b6b9818deeb47ae607a065ca9ca1c655beb8de14401655721a8152602082526104f2604083610481565b9051902060ff191690565b604051602081017fcf377bf0da9cb35454543c63ad54bf2c5a0466b629ac7517e61f8857cae0fa258152602082526104f260408361048156fea26469706673582212206c9bf23dd3b47c587ce2e11a2fcdd5124216e8c7d4049f2ca8fe0e8e30f8f64f64736f6c634300081c0033",
  "linkReferences": {},
  "deployedLinkReferences": {}
}