{
  "_format": "hh-sol-artifact-1",
  "contractName": "SCR",
  "sourceName": "contracts/scr/SCR/functions/SCR.sol",
  "abi": [
    {
      "inputs": [
        {
          "internalType": "address",
          "name": "account",
          "type": "address"
        },
        {
          "internalType": "bytes32",
          "name": "neededRole",
          "type": "bytes32"
        }
      ],
      "name": "AccessControlUnauthorizedAccount",
      "type": "error"
    },
    {
      "inputs": [
        {
          "internalType": "address",
          "name": "founder",
          "type": "address"
        },
        {
          "internalType": "string",
          "name": "scid",
          "type": "string"
        }
      ],
      "name": "AlreadyEstablish",
      "type": "error"
    },
    {
      "inputs": [
        {
          "internalType": "string",
          "name": "scid",
          "type": "string"
        }
      ],
      "name": "AlreadyRegisteredScid",
      "type": "error"
    },
    {
      "inputs": [
        {
          "internalType": "string",
          "name": "str",
          "type": "string"
        }
      ],
      "name": "EmptyString",
      "type": "error"
    },
    {
      "inputs": [
        {
          "internalType": "address",
          "name": "account",
          "type": "address"
        },
        {
          "internalType": "address",
          "name": "company",
          "type": "address"
        },
        {
          "internalType": "address",
          "name": "beacon",
          "type": "address"
        }
      ],
      "name": "FailDeployService",
      "type": "error"
    },
    {
      "inputs": [
        {
          "internalType": "string",
          "name": "scid",
          "type": "string"
        }
      ],
      "name": "FailedDeploySmartCompany",
      "type": "error"
    },
    {
      "inputs": [
        {
          "internalType": "address",
          "name": "beacon",
          "type": "address"
        }
      ],
      "name": "InvalidBeacon",
      "type": "error"
    },
    {
      "inputs": [],
      "name": "InvalidCompanyInfo",
      "type": "error"
    },
    {
      "inputs": [
        {
          "internalType": "uint256",
          "name": "expected",
          "type": "uint256"
        },
        {
          "internalType": "uint256",
          "name": "length",
          "type": "uint256"
        }
      ],
      "name": "InvalidCompanyInfoLength",
      "type": "error"
    },
    {
      "inputs": [
        {
          "internalType": "address",
          "name": "founder",
          "type": "address"
        }
      ],
      "name": "InvalidFounder",
      "type": "error"
    },
    {
      "inputs": [
        {
          "internalType": "uint256",
          "name": "length",
          "type": "uint256"
        },
        {
          "internalType": "uint256",
          "name": "expected",
          "type": "uint256"
        }
      ],
      "name": "InvalidLength",
      "type": "error"
    },
    {
      "inputs": [
        {
          "internalType": "address",
          "name": "account",
          "type": "address"
        },
        {
          "internalType": "address",
          "name": "company",
          "type": "address"
        },
        {
          "internalType": "address",
          "name": "service",
          "type": "address"
        }
      ],
      "name": "NotActivateService",
      "type": "error"
    },
    {
      "inputs": [
        {
          "internalType": "address",
          "name": "beacon",
          "type": "address"
        }
      ],
      "name": "SmartCompanyNotOnline",
      "type": "error"
    },
    {
      "anonymous": false,
      "inputs": [
        {
          "indexed": true,
          "internalType": "address",
          "name": "beacon",
          "type": "address"
        },
        {
          "indexed": true,
          "internalType": "address",
          "name": "service",
          "type": "address"
        }
      ],
      "name": "ActivateService",
      "type": "event"
    },
    {
      "anonymous": false,
      "inputs": [
        {
          "indexed": true,
          "internalType": "address",
          "name": "account",
          "type": "address"
        },
        {
          "indexed": false,
          "internalType": "string",
          "name": "legalEntityCode",
          "type": "string"
        },
        {
          "indexed": false,
          "internalType": "string",
          "name": "field",
          "type": "string"
        }
      ],
      "name": "AddCompanyInfoField",
      "type": "event"
    },
    {
      "anonymous": false,
      "inputs": [
        {
          "indexed": true,
          "internalType": "address",
          "name": "implementation",
          "type": "address"
        },
        {
          "indexed": true,
          "internalType": "address",
          "name": "newImplementation",
          "type": "address"
        }
      ],
      "name": "BeaconUpgraded",
      "type": "event"
    },
    {
      "anonymous": false,
      "inputs": [
        {
          "indexed": true,
          "internalType": "address",
          "name": "account",
          "type": "address"
        },
        {
          "indexed": true,
          "internalType": "uint256",
          "name": "fieldIndex",
          "type": "uint256"
        },
        {
          "indexed": false,
          "internalType": "string",
          "name": "legalEntityCode",
          "type": "string"
        },
        {
          "indexed": false,
          "internalType": "string",
          "name": "field",
          "type": "string"
        }
      ],
      "name": "DeleteCompanyInfoField",
      "type": "event"
    },
    {
      "anonymous": false,
      "inputs": [
        {
          "indexed": true,
          "internalType": "address",
          "name": "beacon",
          "type": "address"
        },
        {
          "indexed": false,
          "internalType": "string",
          "name": "name",
          "type": "string"
        }
      ],
      "name": "DeployBeaconProxy",
      "type": "event"
    },
    {
      "anonymous": false,
      "inputs": [
        {
          "indexed": true,
          "internalType": "address",
          "name": "proxy",
          "type": "address"
        },
        {
          "indexed": false,
          "internalType": "string",
          "name": "name",
          "type": "string"
        }
      ],
      "name": "DeployProxy",
      "type": "event"
    },
    {
      "anonymous": false,
      "inputs": [
        {
          "indexed": true,
          "internalType": "address",
          "name": "founder",
          "type": "address"
        },
        {
          "indexed": true,
          "internalType": "address",
          "name": "company",
          "type": "address"
        },
        {
          "indexed": false,
          "internalType": "string",
          "name": "scid",
          "type": "string"
        },
        {
          "indexed": false,
          "internalType": "address[]",
          "name": "services",
          "type": "address[]"
        },
        {
          "indexed": false,
          "internalType": "enum ServiceType[]",
          "name": "serviceTypes",
          "type": "uint8[]"
        }
      ],
      "name": "DeploySmartCompany",
      "type": "event"
    },
    {
      "anonymous": false,
      "inputs": [
        {
          "indexed": true,
          "internalType": "address",
          "name": "founder",
          "type": "address"
        },
        {
          "indexed": false,
          "internalType": "string",
          "name": "scid",
          "type": "string"
        },
        {
          "indexed": false,
          "internalType": "string",
          "name": "companyInfoField",
          "type": "string"
        },
        {
          "indexed": false,
          "internalType": "string",
          "name": "value",
          "type": "string"
        }
      ],
      "name": "UpdateCompanyInfo",
      "type": "event"
    },
    {
      "anonymous": false,
      "inputs": [
        {
          "indexed": true,
          "internalType": "address",
          "name": "account",
          "type": "address"
        },
        {
          "indexed": true,
          "internalType": "uint256",
          "name": "fieldIndex",
          "type": "uint256"
        },
        {
          "indexed": false,
          "internalType": "string",
          "name": "legalEntityCode",
          "type": "string"
        },
        {
          "indexed": false,
          "internalType": "string",
          "name": "field",
          "type": "string"
        }
      ],
      "name": "UpdateCompanyInfoField",
      "type": "event"
    },
    {
      "inputs": [
        {
          "internalType": "string",
          "name": "legalEntityCode",
          "type": "string"
        },
        {
          "internalType": "string",
          "name": "field",
          "type": "string"
        }
      ],
      "name": "addCompanyInfoFields",
      "outputs": [],
      "stateMutability": "nonpayable",
      "type": "function"
    },
    {
      "inputs": [
        {
          "internalType": "string",
          "name": "scid",
          "type": "string"
        },
        {
          "internalType": "address",
          "name": "beacon",
          "type": "address"
        },
        {
          "internalType": "string",
          "name": "legalEntityCode",
          "type": "string"
        },
        {
          "internalType": "string",
          "name": "companyName",
          "type": "string"
        },
        {
          "internalType": "string",
          "name": "establishmentDate",
          "type": "string"
        },
        {
          "internalType": "string",
          "name": "jurisdiction",
          "type": "string"
        },
        {
          "internalType": "string",
          "name": "entityType",
          "type": "string"
        },
        {
          "internalType": "bytes",
          "name": "scDeployParam",
          "type": "bytes"
        },
        {
          "internalType": "string[]",
          "name": "companyInfo",
          "type": "string[]"
        },
        {
          "internalType": "address[]",
          "name": "scsBeaconProxy",
          "type": "address[]"
        },
        {
          "internalType": "bytes[]",
          "name": "scsDeployParams",
          "type": "bytes[]"
        }
      ],
      "name": "createSmartCompany",
      "outputs": [
        {
          "internalType": "address",
          "name": "company",
          "type": "address"
        },
        {
          "internalType": "address[]",
          "name": "services",
          "type": "address[]"
        },
        {
          "internalType": "enum ServiceType[]",
          "name": "serviceTypes",
          "type": "uint8[]"
        }
      ],
      "stateMutability": "nonpayable",
      "type": "function"
    },
    {
      "inputs": [
        {
          "internalType": "string",
          "name": "legalEntityCode",
          "type": "string"
        },
        {
          "internalType": "uint256",
          "name": "fieldIndex",
          "type": "uint256"
        }
      ],
      "name": "deleteCompanyInfoFields",
      "outputs": [],
      "stateMutability": "nonpayable",
      "type": "function"
    },
    {
      "inputs": [
        {
          "internalType": "string",
          "name": "scid",
          "type": "string"
        },
        {
          "internalType": "string",
          "name": "companyInfoField",
          "type": "string"
        }
      ],
      "name": "getCompanyField",
      "outputs": [
        {
          "internalType": "string",
          "name": "",
          "type": "string"
        }
      ],
      "stateMutability": "view",
      "type": "function"
    },
    {
      "inputs": [
        {
          "internalType": "string",
          "name": "scid",
          "type": "string"
        }
      ],
      "name": "getCompanyInfo",
      "outputs": [
        {
          "components": [
            {
              "internalType": "string",
              "name": "companyName",
              "type": "string"
            },
            {
              "internalType": "address",
              "name": "companyAddress",
              "type": "address"
            },
            {
              "internalType": "address",
              "name": "founder",
              "type": "address"
            },
            {
              "internalType": "string",
              "name": "establishmentDate",
              "type": "string"
            },
            {
              "internalType": "string",
              "name": "jurisdiction",
              "type": "string"
            },
            {
              "internalType": "string",
              "name": "entityType",
              "type": "string"
            },
            {
              "internalType": "uint256",
              "name": "createAt",
              "type": "uint256"
            },
            {
              "internalType": "uint256",
              "name": "updateAt",
              "type": "uint256"
            }
          ],
          "internalType": "struct ICompanyInfoStructs.CompanyInfo",
          "name": "companyInfo",
          "type": "tuple"
        }
      ],
      "stateMutability": "view",
      "type": "function"
    },
    {
      "inputs": [
        {
          "internalType": "string",
          "name": "legalEntityCode",
          "type": "string"
        }
      ],
      "name": "getCompanyInfoFields",
      "outputs": [
        {
          "internalType": "string[]",
          "name": "fields",
          "type": "string[]"
        }
      ],
      "stateMutability": "view",
      "type": "function"
    },
    {
      "inputs": [
        {
          "internalType": "address",
          "name": "founder",
          "type": "address"
        }
      ],
      "name": "getSmartCompany",
      "outputs": [
        {
          "internalType": "string",
          "name": "",
          "type": "string"
        }
      ],
      "stateMutability": "view",
      "type": "function"
    },
    {
      "inputs": [
        {
          "internalType": "string",
          "name": "scid",
          "type": "string"
        },
        {
          "internalType": "string",
          "name": "companyInfoField",
          "type": "string"
        },
        {
          "internalType": "string",
          "name": "value",
          "type": "string"
        }
      ],
      "name": "setCompanyInfo",
      "outputs": [],
      "stateMutability": "nonpayable",
      "type": "function"
    },
    {
      "inputs": [
        {
          "internalType": "address",
          "name": "scImplementation",
          "type": "address"
        },
        {
          "internalType": "string",
          "name": "scName",
          "type": "string"
        }
      ],
      "name": "setSCContract",
      "outputs": [
        {
          "internalType": "address",
          "name": "beacon",
          "type": "address"
        }
      ],
      "stateMutability": "nonpayable",
      "type": "function"
    },
    {
      "inputs": [
        {
          "internalType": "string",
          "name": "legalEntityCode",
          "type": "string"
        },
        {
          "internalType": "uint256",
          "name": "fieldIndex",
          "type": "uint256"
        },
        {
          "internalType": "string",
          "name": "field",
          "type": "string"
        }
      ],
      "name": "updateCompanyInfoFields",
      "outputs": [],
      "stateMutability": "nonpayable",
      "type": "function"
    },
    {
      "inputs": [
        {
          "internalType": "address",
          "name": "scBeacon",
          "type": "address"
        },
        {
          "internalType": "address",
          "name": "newSCImplementation",
          "type": "address"
        }
      ],
      "name": "updateSCContract",
      "outputs": [],
      "stateMutability": "nonpayable",
      "type": "function"
    }
  ],
  "bytecode": "0x60808060405234601557615766908161001b8239f35b600080fdfe6102e0604052600436101561001357600080fd5b600061028052610280513560e01c80630863633c14611ec55780633a60f2b214610b86578063518fd6c114610a4a57806363c26fdd146107cd57806385a59bef1461050b57806395896280146104d75780639d123f6b146103985780639eb3e6fd1461033d578063a05aa489146102a2578063e150812c146101a85763e54d64f91461009e57600080fd5b346101a15760203660031901126101a1576004356001600160401b0381116101a1576100d16100df913690600401611faf565b6100d9612629565b91612337565b8054906100eb826126fb565b916100f960405193846121d2565b80835260208301809261028051526020610280512061028051915b83831061018457848660405191829160208301906020845251809152604083019060408160051b850101929161028051905b82821061015557505050500390f35b919360019193955060206101748192603f198a82030186528851612004565b9601920192018594939192610146565b6001602081926101938561249f565b815201920192019190610114565b6102805180fd5b346101a15760603660031901126101a1576004356001600160401b0381116101a1576101d8903690600401611faf565b602435916044356001600160401b0381116101a1576101fb903690600401611faf565b926102053361266d565b610217610210612629565b8285612337565b5480861015610285575061027b8461026d7fc145ce168143e73cee68794acea64e5ff230bc3ac32bb4141c8cb5e81d3997789596856102678a61026261025b612629565b898d612337565b612487565b90612541565b604051938493339785612567565b0390a36102805180f35b8590632db9197d60e11b6102805152600452602452604461028051fd5b346101a1576102b03661211a565b916102ba3361266d565b6102cc6102c5612629565b8286612337565b805493680100000000000000008510156103235761026d8185610267886103199660017f45035ab0925e5e79aef11d550965adf21579ff030764617f88d8edc17d4d73ca9b018155612487565b0390a26102805180f35b634e487b7160e01b61028051526041600452602461028051fd5b346101a15760203660031901126101a15761035661203f565b6003610360612629565b019060018060a01b0316600052602052610394610380604060002061249f565b604051918291602083526020830190612004565b0390f35b346101a15760403660031901126101a1576103b161203f565b6103b9612029565b6103c23361266d565b6103ca6127e9565b916001600160a01b031690811515806104b4575b1561049b576001600160a01b031691813b156101a157604051631b2ce7f360e11b815260048101849052610280518160248183875af1801561048d57610472575b50816000526020526001604060002001826001600160601b0360a01b8254161790557fc945ae30494f6ee00b9e4bf1fec5653ced7244b559666f44f9a88ea732e957b06102805161028051a36102805180f35b6102805161047f916121d2565b610280516101a1578361041f565b6040513d61028051823e3d90fd5b50638ebc912f60e01b6102805152600452602461028051fd5b506000828152602084905260409020600101546001600160a01b031615156103de565b346101a1576103946103806105066100d96104f13661211a565b9290939160016104ff612629565b0191612337565b61249f565b346101a15760403660031901126101a15761052461203f565b6024356001600160401b0381116101a157610546610561913690600401611faf565b91906105513361266d565b6105596127e9565b92369161228e565b9160209260405161057285826121d2565b610280519052610280516102805120815185830120146107a6576040516103da808201908282106001600160401b038311176103235782916105cb91612f0e84396001600160a01b038616815233602082015260400190565b039061028051f0801561048d57604051906105e58261216a565b8282526001600160a01b039384168683019081526001604080850191825261028051606086019081529390961660008181529789529590962092518051959690956001600160401b03811161032357879661064a826106448854612233565b8861237b565b89906001601f84111461070b57926106a8837f03bf13c3738edb996db276d73747b443c443972ca33da1e26dba5ae491c64ac69997946106f59997946002976102805192610700575b50508160011b916000199060031b1c19161790565b85555b9051600185018054925160ff60a01b90151560a01b166001600160a01b039092166001600160a81b0319909316929092171790555191015560405186815291829187830190612004565b0390a2604051908152f35b015190508e80610693565b90601f198316918761028051528b610280512092610280515b8d82821061078d575050936106f598969360029693600193837f03bf13c3738edb996db276d73747b443c443972ca33da1e26dba5ae491c64ac69d9b9810610774575b505050811b0185556106ab565b015160001960f88460031b161c191690558d8080610767565b8484015186558d9c506001909501949384019301610724565b836107c96040519283926318a996bb60e21b845260048401526024830190612004565b0390fd5b346101a15760403660031901126101a1576004356001600160401b0381116101a1576107fd903690600401611faf565b6024356108093361266d565b6108286108228261026261081b612629565b8688612337565b5061249f565b61083a610833612629565b8486612337565b9384549384841015610a0f5760001985019485119484865b6108b257818110156108cc57600181018082116108b2576108739089612487565b509061087f818a612487565b6108965760019261088f91612712565b0186610852565b634e487b7160e01b610280515261028051600452602461028051fd5b634e487b7160e01b61028051526011600452602461028051fd5b505085805480156109f55760001901906108e68282612487565b610896576108f48154612233565b806109a0575b5050818155602061090a836126fb565b61091760405191826121d2565b838152019061028051526020610280512061028051915b8383106109835787877f63fd410897d008ced8daf697dac0588fcb2d31ca9bb6879468925619a143ae65888861027b61097460405193849360408552604085019161226d565b82810360208401523395612004565b6001602081926109928561249f565b81520192019201919061092e565b601f81116001146109ba57506102805190555b86806108fa565b6109dd908261028051526001601f60206102805120920160051c82019101612364565b610280805182905251602081209181905590556109b3565b634e487b7160e01b61028051526031600452602461028051fd5b60405162461bcd60e51b8152602060048201526013602482015272496e646578206f7574206f6620626f756e647360681b6044820152606490fd5b346101a15760603660031901126101a1576004356001600160401b0381116101a157610a7a903690600401611faf565b906024356001600160401b0381116101a157610a9a903690600401611faf565b9190926044356001600160401b0381116101a157610abc903690600401611faf565b9094906001600160a01b036002610add81610ad5612629565b018688612337565b0154163303610b6d57610b5d610319927f6c21561ca7a463791bbf491f8d7109550f1613622dfef281ae40712963c658d296610b38848a610b33610b2c6001610b24612629565b018b8d612337565b8587612337565b6123c2565b610b4f60405197889760608952606089019161226d565b91868303602088015261226d565b908382036040850152339661226d565b637c983fd560e11b610280515233600452602461028051fd5b346101a1576101603660031901126101a1576004356001600160401b0381116101a157610bb7903690600401611faf565b6101a05261022052610bc7612029565b610200526044356001600160401b0381116101a157610bea903690600401611faf565b6064356001600160401b0381116101a157610c09903690600401611faf565b9061024052916084356001600160401b0381116101a157610c2e903690600401611faf565b906102c0529160a4356001600160401b0381116101a157610c53903690600401611faf565b9060c4356001600160401b0381116101a157610c73903690600401611faf565b91909260e4356001600160401b0381116101a157610c95903690600401611faf565b5050610104356001600160401b0381116101a157610cb7903690600401612055565b979098610124356001600160401b0381116101a157610cda903690600401612055565b6102a052610260526001600160401b0361014435116101a157610d033661014435600401612055565b6101e0526101c0526003610d15612629565b61028080513390529101602052516040902054610d3190612233565b611e9657604051602081017fcf377bf0da9cb35454543c63ad54bf2c5a0466b629ac7517e61f8857cae0fa25815260208252610d6e6040836121d2565b9051902061028080517f7ed687a8f2955bd2ba7ca08227e1e364d132be747f42fb733165f923021b0225905260ff199091166020908152815160408082203390925291529051205460ff1615611e59576101a051151580611e50575b80611e47575b80611e3e575b15611e295760018060a01b036040610df46101a05161022051612591565b015116611e0057610e0d610e06612629565b888a612337565b8054610e18816126fb565b91610e2660405193846121d2565b818352602083019061028051526020610280512061028051915b838310611de35750505050518914610e60610e59612629565b898b612337565b8054610e6b816126fb565b91610e7960405193846121d2565b818352602083019061028051526020610280512061028051915b838310611dc65750505050519015611da9575092610f0b9492610eed610efc93610ed4610f2d9b9a9997610ec56121f3565b6101805236906102405161228e565b610180515233604061018051015236906102c05161228e565b6060610180510152369161228e565b6080610180510152369161228e565b60a06101805101524260c06101805101524260e06101805101526100d9612629565b918254610f39816126fb565b93610f4760405195866121d2565b818552602085019061028051526020610280512061028051915b838310611d8c5750505050610280515b828110611d3657610f806127e9565b610280515060018060a01b036102005116610280515260205260406102805120604051610fac8161216a565b610fb58261249f565b815260018201546001600160a01b038116602083015260a01c60ff16158015604083015260029290920154606090910152611d1157610ff330612822565b610140526040516106988082018281106001600160401b038211176103235782916140538339039061028051f0801561048d576001600160a01b031661106161103a6127e9565b6020610120819052604051919061105190836121d2565b61028051825261020051906128be565b906040516104048082018281106001600160401b03821117610323578291614b988339039061028051f0801561048d576110b36040516110a461012051826121d2565b61028051815261014051612b26565b6101008190526001600160a01b0316151580611d08575b80611cf3575b15611cc857610140516001600160a01b03163b156101a15760405163f6d8178960e01b8152610280516001600160a01b03841660048301819052602483015281806044810103816102805160018060a01b0361014051165af1801561048d57611cb5575b50610140516001600160a01b03163b156101a157604051630815f6fd60e01b8152637c643b2f60e11b60048201526001600160a01b039182166024820152610280516101405191929091839160449183918591165af1801561048d57611c9a575b50803b156101a15760405163189acdbd60e31b8152610140516001600160a01b031660048201526102805190918290602490829084905af1801561048d57611c7f575b506101805160400151610100516001600160a01b0391821691163b156101a157604051637c643b2f60e11b8152610140516001600160a01b03908116600483015292831660248201526044810191909152306064820152610280516101005191929091839160849183918591165af1801561048d57611c64575b50604060e0819052805160009182916112be916112cc919061127490826121d2565b6012815271646f6e6520736320696e697469616c697a6560701b6101205182015260e0515192839163104c13eb60e21b610120518401526101205160248401526044830190612004565b03601f1981018352826121d2565b80519061012051016a636f6e736f6c652e6c6f675afa50600161130060026112f2612629565b016101a05161022051612337565b0160018060a01b0361010051166001600160601b0360a01b8254161790556003611328612629565b61018051604001516001600160a01b031660009081526101205191909201905260e05190206101a0516102205161135e926123c2565b610180516040015160e051516001600160a01b039091169061137f8161219b565b6060815290610280516101605260e051516113998161219b565b6060815261016052610280516080819052905b6102a0516080511061162d5782516101605151908151916113cc836126fb565b926113db60e0515194856121d2565b8084526113ea601f19916126fb565b013661012051850137610280515b81518110156114445761140b8183612350565b5190600782101561142a576001916114238287612350565b52016113f8565b634e487b7160e01b61028051526021600452602461028051fd5b505060e0805151633dbaac6360e01b81529051600482015261146960448201846120c2565b6003198282030160248301528180611485610120519386612085565b03816102805160018060a01b0361010051165af180156115e4576115f3575b506101805160400151610140516001600160a01b0391821691163b156101a15760e0515163f2fde38b60e01b8152600481019190915261028051610140518290602490829084906001600160a01b03165af180156115e4576115c9575b506103946115ba9260018060a01b0360406101805101511660e0515190606082527ff49792fe7e4fa826b448d5fa25ccce7093d9b67305eec477b2c43c06b045bfc861156a61155a606085016101a0516102205161226d565b8481036101205186015287612085565b60e05184820390850152610100516001600160a01b03169390819061158f90876120c2565b0390a360e0515193849360018060a01b03610100511685526060610120518601526060850190612085565b9083820360e0518501526120c2565b610280516115d6916121d2565b610280516101a15782611501565b60e051513d61028051823e3d90fd5b610120513d8111611626575b61160981836121d2565b816101205191810103126101a15751801515036101a157826114a4565b503d6115ff565b909161165b6101405161165161164c6080516102a05161026051612b6b565b612b7b565b6101005185612ba7565b9181600784101560a05260a05161142a57600384148015611c53575b6116b7575b509061168791612e12565b9260a05161142a5761169f6116a89261016051612e34565b61016052612899565b600160805101608052906113ac565b9491506116c330612822565b60c0526116e860e051516116da61012051826121d2565b61028051815260c051612b26565b9460e05151806102ae8101106001600160401b036102ae83011117610323576102ae6154838239806102ae8101039061028051f09081156115e45760c0516001600160a01b03163b156101a15760e0515163f6d8178960e01b8152610280516001600160a01b03808a1660048401528316602483015281806044810103816102805160018060a01b0360c051165af180156115e457611c38575b5060c0516001600160a01b03163b156101a15760e0515163f6d8178960e01b8152610280516001600160a01b03841660048301819052602483015281806044810103816102805160018060a01b0360c051165af180156115e457611c1d575b5060c0516001600160a01b03163b156101a15760e05151630815f6fd60e01b815263246581f760e01b60048201526001600160a01b0382811660248301526102805160c0519091839160449183918591165af180156115e457611c02575b506118a7906118576080516101e0516101c0516122d4565b60e0515163246581f760e01b815260c0516001600160a01b03908116600483015293841660248201526101005190931660448401526080606484015261028051929384928392608484019161226d565b03816102805160018060a01b038c165af180156115e457611b3a575b506001600160a01b0381163b156101a15760e0515163189acdbd60e31b8152600481018690526102805190918290602490829084906001600160a01b03165af180156115e457611b1f575b5061193b83600161191d612dd9565b0160009060018060a01b0388168252610120515260e0519020612b8f565b80546001600160a01b0319166001600160a01b03871617905560e051805160009182916119b5916119d491908a9061197390836121d2565b600b82526a03632ba39a83937bc3c9d160ad1b6101205183015260e0515193849263319af33360e01b6101205185015260e05160248501526064840190612004565b6001600160a01b0391909116604483015203601f1981018352826121d2565b80519061012051016a636f6e736f6c652e6c6f675afa5060a05161142a5760008060e0515163f82c50f160e01b6101205182015285602482015260248152611a1d6044826121d2565b80519061012051016a636f6e736f6c652e6c6f675afa50611a92611a8c6002611a44612dd9565b01611a5b61164c6080516102a05161026051612b6b565b6001600160a01b039081166000908152610120519290925260e05190912060c0519054610100519192169088612ba7565b92612e12565b91600782101561142a5761169f611aac9261016051612e34565b60c0519094906001600160a01b03163b156101a15760e0515163f2fde38b60e01b8152600481018590526102805160c0518290602490829084906001600160a01b03165af180156115e457611b04575b91909161167c565b61028051611b11916121d2565b610280516101a15785611afc565b61028051611b2c916121d2565b610280516101a1578561190e565b3d8061028051833e611b4c81836121d2565b810161012051828203126101a1578151906001600160401b0382116101a15780601f8385010112156101a15781830151611b85816126fb565b93611b9460e0515195866121d2565b81855261012051850192610120518360051b8684010101116101a1576101205184820101925b610120518360051b86840101018410611bd75750505050506118c3565b8351999b98996001600160e01b0319811681036101a157815261012051989b99989384019301611bba565b61028051611c0f916121d2565b610280516101a1578761183f565b61028051611c2a916121d2565b610280516101a157876117e1565b61028051611c45916121d2565b610280516101a15787611782565b506102805160a05260048414611677565b61028051611c71916121d2565b610280516101a15780611252565b61028051611c8c916121d2565b610280516101a157816111d8565b61028051611ca7916121d2565b610280516101a15782611195565b61028051611cc2916121d2565b83611134565b6040516330b05d4560e21b8152610120516004820152806107c9602482016101a0516102205161226d565b50610140516001600160a01b031615156110d0565b508115156110ca565b6102808051630e288be560e01b9052610200516001600160a01b031660045251602490fd5b80611d86611d4760019386866122d4565b90611d786020611d59876112f2612629565b611d63878c612350565b51908260405194838680955193849201611fe1565b8201908152030190206123c2565b01610f71565b600160208192611d9b8561249f565b815201920192019190610f61565b8990630c48d2d360e41b6102805152600452602452604461028051fd5b600160208192611dd58561249f565b815201920192019190610e93565b600160208192611df28561249f565b815201920192019190610e40565b6040516316e7f23360e11b815260206004820152806107c9602482016101a0516102205161226d565b6359a1bf5f60e01b6102805152600461028051fd5b50841515610dd6565b50821515610dd0565b50811515610dca565b63e2517d3f60e01b6102805152336004527f7ed687a8f2955bd2ba7ca08227e1e364d132be747f42fb733165f923021b0225602452604461028051fd5b604051637da4654d60e11b815233600482015260406024820152806107c9604482016101a0516102205161226d565b346101a15760203660031901126101a1576004356001600160401b0381116101a157611ef8611f07913690600401611faf565b90611f016121f3565b50612591565b60405180916020825260e0611f99611f83611f6d611f3385516101006020890152610120880190612004565b60208601516001600160a01b0390811660408981019190915287015116606080890191909152860151878203601f19016080890152612004565b6080850151868203601f190160a0880152612004565b60a0840151858203601f190160c0870152612004565b9160c08101518285015201516101008301520390f35b9181601f84011215611fdc578235916001600160401b038311611fdc5760208381860195010111611fdc57565b600080fd5b60005b838110611ff45750506000910152565b8181015183820152602001611fe4565b9060209161201d81518092818552858086019101611fe1565b601f01601f1916010190565b602435906001600160a01b0382168203611fdc57565b600435906001600160a01b0382168203611fdc57565b9181601f84011215611fdc578235916001600160401b038311611fdc576020808501948460051b010111611fdc57565b906020808351928381520192019060005b8181106120a35750505090565b82516001600160a01b0316845260209384019390920191600101612096565b90602080835192838152019201906000905b8082106120e15750505090565b9091928351906007821015612104576020816001938293520194019201906120d4565b634e487b7160e01b600052602160045260246000fd5b6040600319820112611fdc576004356001600160401b038111611fdc578161214491600401611faf565b92909291602435906001600160401b038211611fdc5761216691600401611faf565b9091565b608081019081106001600160401b0382111761218557604052565b634e487b7160e01b600052604160045260246000fd5b602081019081106001600160401b0382111761218557604052565b61010081019081106001600160401b0382111761218557604052565b90601f801991011681019081106001600160401b0382111761218557604052565b60405190612200826121b6565b600060e0836060815282602082015282604082015260608082015260606080820152606060a08201528260c08201520152565b90600182811c92168015612263575b602083101461224d57565b634e487b7160e01b600052602260045260246000fd5b91607f1691612242565b908060209392818452848401376000828201840152601f01601f1916010190565b9291926001600160401b03821161218557604051916122b7601f8201601f1916602001846121d2565b829481845281830111611fdc578281602093846000960137010152565b909291928310156123215760009260051b81013590601e198136030182121561231d57018035926001600160401b03841161231a57506020018236038113611fdc579190565b80fd5b8380fd5b634e487b7160e01b600052603260045260246000fd5b6020919283604051948593843782019081520301902090565b80518210156123215760209160051b010190565b81811061236f575050565b60008155600101612364565b9190601f811161238a57505050565b6123b6926000526020600020906020601f840160051c830193106123b8575b601f0160051c0190612364565b565b90915081906123a9565b9092916001600160401b038111612185576123e7816123e18454612233565b8461237b565b6000601f821160011461242757819061241893949560009261241c5750508160011b916000199060031b1c19161790565b9055565b013590503880610693565b601f198216948382526020822091805b87811061246f575083600195969710612455575b505050811b019055565b0135600019600384901b60f8161c1916905538808061244b565b90926020600181928686013581550194019101612437565b80548210156123215760005260206000200190600090565b90604051918260008254926124b384612233565b808452936001811690811561251f57506001146124d8575b506123b6925003836121d2565b90506000929192526020600020906000915b8183106125035750509060206123b692820101386124cb565b60209193508060019154838589010152019101909184926124ea565b9050602092506123b694915060ff191682840152151560051b820101386124cb565b929190612551576123b6926123c2565b634e487b7160e01b600052600060045260246000fd5b92906125809061258e959360408652604086019161226d565b92602081850391015261226d565b90565b6125a89161259d6121f3565b5060026104ff612629565b6007604051916125b7836121b6565b6125c08161249f565b835260018101546001600160a01b03908116602085015260028201541660408401526125ee6003820161249f565b60608401526125ff6004820161249f565b60808401526126106005820161249f565b60a0840152600681015460c0840152015460e082015290565b604051602081017f0c15d248601496993b91775e26d65c75239afd51668be07fb67f76a382bff9b88152602082526126626040836121d2565b9051902060ff191690565b604051602081017fcf377bf0da9cb35454543c63ad54bf2c5a0466b629ac7517e61f8857cae0fa258152602082526126a66040836121d2565b60ff19915190201660008052602052604060002060018060a01b03821660005260205260ff60406000205416156126da5750565b63e2517d3f60e01b60005260018060a01b0316600452600060245260446000fd5b6001600160401b0381116121855760051b60200190565b9190918281146127e4576127268354612233565b6001600160401b03811161218557612742816123e18454612233565b600093601f821160011461277f5761241892939482916000926127745750508160011b916000199060031b1c19161790565b015490503880610693565b845260208085208386529085209094601f198316815b8181106127cc575095836001959697106127b357505050811b019055565b015460001960f88460031b161c1916905538808061244b565b9192600180602092868b015481550194019201612795565b509050565b604051602081017f806dfdd21cc5ccb4cb5e43c3351fdcb03baa9f74fc17c0e74f0826e07b93739b8152602082526126626040836121d2565b60405190610d6b8083018381106001600160401b038211176121855760209284926132e884396001600160a01b031681520301906000f0801561286b576001600160a01b031690565b6040513d6000823e3d90fd5b6001600160a01b03909116815260406020820181905261258e92910190612004565b60001981146128a85760010190565b634e487b7160e01b600052601160045260246000fd5b9291604051906104ad90818301908382106001600160401b0383111761218557846128ef9285946146eb8639612877565b03906000f0801561286b5760018060a01b03169260018060a01b0382166000528060205260026040600020016129258154612899565b90556040600060018060a01b0384168152826020522090604051916129498361216a565b60026129548261249f565b9182855260ff600182015460018060a01b038116602088015260a01c1615156040860152015460608401526040519160408301918383106001600160401b038411176121855760409283528352602083019460018060a01b031685526001600091818060a01b0389168352016020522090519283516001600160401b0381116121855786946129ed826129e78654612233565b8661237b565b602090601f8311600114612a945792612a4783612a8496946001947fd35bad9fb6a1774ae85e46aea4e094db8d9dc30eaaf8e17514312d5b9ccdee099997600092612a895750508160011b916000199060031b1c19161790565b83555b818060a01b0390511691019060018060a01b03166001600160601b0360a01b82541617905551604051918291602083526020830190612004565b0390a2565b015190503880610693565b90601f1983169185600052816000209260005b818110612b0b5750936001937fd35bad9fb6a1774ae85e46aea4e094db8d9dc30eaaf8e17514312d5b9ccdee09989693859383612a849a9810612af2575b505050811b018355612a4a565b015160001960f88460031b161c19169055388080612ae5565b8284015185558b995060019094019360209384019301612aa7565b604051916104e790818401928484106001600160401b03851117612185578493612b5493614f9c8639612877565b03906000f0801561286b576001600160a01b031690565b91908110156123215760051b0190565b356001600160a01b0381168103611fdc5790565b90600781101561210457600052602052604060002090565b90939193600091612bb6612dd9565b60018060a01b038716845260205260ff60408420541695612c29604051602081017f2810609b04caf5f85bb4aaecfb9d3c44224335fe412d57bd4016590897095aa4815260208252612c096040836121d2565b60ff1991519020168260405191612c216020846121d2565b8783526128be565b6001600160a01b038116939092908415612db357509083916001612c4b612dd9565b6001600160a01b0390921687520160205260408520612c6b908990612b8f565b80546001600160a01b031916831790556001600160a01b03167f6e4794bbcdcbb6f8f64ec9a4edaa9ad91971f595599912c29ea5a393c034a74f8580a3859481966007811015612d9f5760038114159081612d93575b50612ccd575b50505050565b6001600160a01b031690813b1561231d5760405163f6d8178960e01b81526001600160a01b0391909116600482018190526024820152838160448183865af18015612d8857612d74575b50813b15612d7057829160248392604051948593849263189acdbd60e31b845260048401525af18015612d6557612d50575b8080612cc7565b612d5b8280926121d2565b61231a5780612d49565b6040513d84823e3d90fd5b8280fd5b83612d81919492946121d2565b9138612d17565b6040513d86823e3d90fd5b60049150141538612cc1565b634e487b7160e01b85526021600452602485fd5b630edceaad60e01b8652336004526001600160a01b039081166024528216604452606485fd5b604051602081017fa982c9e6e17d452331d25729e1841144b75518b90727406c625995fda7cfcb3f8152602082526126626040836121d2565b61258e91604051612e228161219b565b606081526040526001600160a01b0316905b919091604051612e438161219b565b6060815260405280928151906001825101928360051b90601f19840151661d174b32e2c55380820615910402908183109183811781019080159082661d174b32e2c553029415612e99575b505050505082015252565b60209088949596980101604051181715612ef0579060409392918451926020840195869285010160405252855b8181015183820160200152601f1901908115612ee25790612ec6565b505052913880808080612e8e565b90949260209250601f198601528401016040523880808080612e8e56fe60803461013a57601f6103da38819003918201601f19168301916001600160401b0383118484101761013f57808492604094855283398101031261013a5761004681610155565b906001600160a01b039061005c90602001610155565b1690811561012457600080546001600160a01b031981168417825560405193916001600160a01b03909116907f8be0079c531659141344cd1fd0a4f28419497f9722a3daafe3b4186f6b6457e09080a3803b1561010357600180546001600160a01b0319166001600160a01b039290921691821790557fbc7cd75a20ee27fd9adebab32041f755214dbc6bffa90cc0225b39da2e5c2d3b600080a2610270908161016a8239f35b63211eb15960e21b60009081526001600160a01b0391909116600452602490fd5b631e4fbdf760e01b600052600060045260246000fd5b600080fd5b634e487b7160e01b600052604160045260246000fd5b51906001600160a01b038216820361013a5756fe6080604052600436101561001257600080fd5b60003560e01c80633659cfe6146101905780635c60da1b14610167578063715018a61461010e5780638da5cb5b146100e55763f2fde38b1461005357600080fd5b346100e05760203660031901126100e0576004356001600160a01b038116908190036100e057610081610211565b80156100ca57600080546001600160a01b03198116831782556001600160a01b0316907f8be0079c531659141344cd1fd0a4f28419497f9722a3daafe3b4186f6b6457e09080a3005b631e4fbdf760e01b600052600060045260246000fd5b600080fd5b346100e05760003660031901126100e0576000546040516001600160a01b039091168152602090f35b346100e05760003660031901126100e057610127610211565b600080546001600160a01b0319811682556001600160a01b03167f8be0079c531659141344cd1fd0a4f28419497f9722a3daafe3b4186f6b6457e08280a3005b346100e05760003660031901126100e0576001546040516001600160a01b039091168152602090f35b346100e05760203660031901126100e0576004356001600160a01b038116908181036100e0576101be610211565b3b156101fd57600180546001600160a01b031916821790557fbc7cd75a20ee27fd9adebab32041f755214dbc6bffa90cc0225b39da2e5c2d3b600080a2005b63211eb15960e21b60005260045260246000fd5b6000546001600160a01b0316330361022557565b63118cdaa760e01b6000523360045260246000fdfea264697066735822122064ee34d8aac134cd71c99b18254a6e6b157733d4b5d90a10613c087479a049aa64736f6c634300081c003360803460bb57601f610d6b38819003918201601f19168301916001600160401b0383118484101760c05780849260209460405283398101031260bb57516001600160a01b0381169081900360bb57801560a557600380546001600160a01b03198116831790915560405191906001600160a01b03167f8be0079c531659141344cd1fd0a4f28419497f9722a3daafe3b4186f6b6457e0600080a3610c9490816100d78239f35b631e4fbdf760e01b600052600060045260246000fd5b600080fd5b634e487b7160e01b600052604160045260246000fdfe608080604052600436101561001357600080fd5b60003560e01c90816301ffc9a7146107a4575080630815f6fd146106b25780630fb955331461064057806323c45f67146106455780635c60da1b14610640578063651dc03d146105d4578063715018a61461057757806386ec366f1461047e5780638da5cb5b14610455578063a5954dd7146101d1578063dc9cc6451461019c578063f2fde38b146101125763f6d81789146100ae57600080fd5b3461010d57604036600319011261010d576100c7610813565b6100cf6107fd565b906100d8610aa7565b6001600160a01b039081166000908152600460209081526040808320949093168252929092529020805460ff19166001179055005b600080fd5b3461010d57602036600319011261010d5761012b610813565b610133610aa7565b6001600160a01b0316801561018657600380546001600160a01b0319811683179091556001600160a01b03167f8be0079c531659141344cd1fd0a4f28419497f9722a3daafe3b4186f6b6457e0600080a3005b631e4fbdf760e01b600052600060045260246000fd5b3461010d57602036600319011261010d5760206101bf6101ba6107e6565b610ad0565b6040516001600160a01b039091168152f35b3461010d57600036600319011261010d57604051806020600154918281520190828260016000527fb10e2d527612073b26eecdfd717e6a320cf44b4afac2b0732d9fcbe2b7fa0cf6926000905b8060078301106103b057610277945491818110610391575b818110610372575b818110610353575b818110610334575b818110610315575b8181106102f6575b8181106102d9575b106102c4575b509392930382610852565b6040519182916020830190602084525180915260408301919060005b8181106102a1575050500390f35b82516001600160e01b031916845285945060209384019390920191600101610293565b6001600160e01b03191681526020018561026c565b602083811b6001600160e01b031916855290930192600101610266565b604083901b6001600160e01b031916845260209093019260010161025e565b606083901b6001600160e01b0319168452602090930192600101610256565b608083901b6001600160e01b031916845260209093019260010161024e565b60a083901b6001600160e01b0319168452602090930192600101610246565b60c083901b6001600160e01b031916845260209093019260010161023e565b60e083901b6001600160e01b0319168452602090930192600101610236565b916008919350610100600191865463ffffffff60e01b8160e01b16825263ffffffff60e01b8160c01b16602083015263ffffffff60e01b8160a01b16604083015263ffffffff60e01b8160801b16606083015263ffffffff60e01b8160601b16608083015263ffffffff60e01b8160401b1660a083015263ffffffff60e01b8160201b1660c083015263ffffffff60e01b1660e082015201940192018592939161021e565b3461010d57600036600319011261010d576003546040516001600160a01b039091168152602090f35b3461010d57604036600319011261010d5760043567ffffffffffffffff811161010d576104af9036906004016108a2565b6024359067ffffffffffffffff821161010d573660238301121561010d5781600401356104db8161088a565b926104e96040519485610852565b8184526024602085019260051b8201019036821161010d57602401915b8183106105575750505060005b81518110156105555760019061054f6001600160e01b03196105358386610911565b5116838060a01b036105478488610911565b51169061093b565b01610513565b005b82356001600160a01b038116810361010d57815260209283019201610506565b3461010d57600036600319011261010d57610590610aa7565b600380546001600160a01b031981169091556000906001600160a01b03167f8be0079c531659141344cd1fd0a4f28419497f9722a3daafe3b4186f6b6457e08280a3005b3461010d57602036600319011261010d577f159f10d3da077d18f228d52be447d552e7d1892d10f7af8f615658160e3747296020610610610813565b610618610aa7565b600280546001600160a01b0319166001600160a01b03929092169182179055604051908152a1005b610829565b3461010d57604036600319011261010d5760043567ffffffffffffffff811161010d576106769036906004016108a2565b61067e6107fd565b9060005b8151811015610555576001906106ac846001600160e01b03196106a58487610911565b511661093b565b01610682565b3461010d57604036600319011261010d576106cb6107e6565b6106d36107fd565b908160018060a01b036003541633148015610776575b15610751576106f79161093b565b336000526004602052604060002060018060a01b03821660005260205260ff604060002054161561072457005b3360009081526004602090815260408083206001600160a01b03909416835292905220805460ff19169055005b63a2b2cbaf60e01b6000908152336004526001600160a01b0391909116602452604490fd5b5050336000526004602052604060002060018060a01b0383166000526020528160ff604060002054166106e9565b3461010d57602036600319011261010d576020906001600160e01b03196107c96107e6565b16600090815280835260409020546001600160a01b031615158152f35b600435906001600160e01b03198216820361010d57565b602435906001600160a01b038216820361010d57565b600435906001600160a01b038216820361010d57565b3461010d57600036600319011261010d576002546040516001600160a01b039091168152602090f35b90601f8019910116810190811067ffffffffffffffff82111761087457604052565b634e487b7160e01b600052604160045260246000fd5b67ffffffffffffffff81116108745760051b60200190565b9080601f8301121561010d578135906108ba8261088a565b926108c86040519485610852565b82845260208085019360051b82010191821161010d57602001915b8183106108f05750505090565b82356001600160e01b03198116810361010d578152602092830192016108e3565b80518210156109255760209160051b010190565b634e487b7160e01b600052603260045260246000fd5b6001600160a01b0382169182156109d05761095582610b8d565b3b156109bb577fda3c8142b3c1d27633026f55bfcb4eeb0b5b8db0daa0a3e10c2213a441722ad19160409163ffffffff60e01b169081600052600060205282600020816bffffffffffffffffffffffff60a01b82541617905582519182526020820152a1565b50630c76093760e01b60005260045260246000fd5b506001600160e01b031916905060005b600154811015610a7d57816109f482610b4c565b63ffffffff60e01b91549060031b1c60e01b1614610a14576001016109e0565b7fb0f2f3a9229724df0b95683e95488b72aed817bc1a5bd6fe1d2e7504e92871cb91610a41602092610b4c565b63ffffffff82549160031b1b191690555b806000526000825260406000206bffffffffffffffffffffffff60a01b8154169055604051908152a1565b5060207fb0f2f3a9229724df0b95683e95488b72aed817bc1a5bd6fe1d2e7504e92871cb91610a52565b6003546001600160a01b03163303610abb57565b63118cdaa760e01b6000523360045260246000fd5b6001600160e01b0319166000818152602081905260409020549091906001600160a01b031680610b48575060008080526020527fad3228b676f7d3cd4284a5443f17f1962b36e491b30a40b2405849e597ba5fb5546001600160a01b031680610b48578263404ceef760e11b60005260045260246000fd5b9150565b90600154821015610925576001600052600382901c7fb10e2d527612073b26eecdfd717e6a320cf44b4afac2b0732d9fcbe2b7fa0cf6019160021b601c1690565b610b9681610c10565b610c0d5760015468010000000000000000811015610874577fbe533f538959a17d76f1b09e966e741ee3b1183099682f96216c93d21feaecba91610be282600160209401600155610b4c565b81549060031b9063ffffffff8460e01c831b921b19161790556040519063ffffffff60e01b168152a1565b50565b6001549060005b828110610c2657505050600090565b610c2f81610b4c565b90546001600160e01b031960039290921b1c60e01b811690831614610c5657600101610c17565b50505060019056fea264697066735822122066df9acb1bfa9ba82393ef26488f2dcb89843ce1f250fbe1136b27fce9255ea864736f6c634300081c00336080806040523460155761067d908161001b8239f35b600080fdfe608080604052600436101561001357600080fd5b60003560e01c90816301ffc9a71461041a57508063248a9ca3146103f45780632f2ff15d1461039d57806336568abe1461035757806391d1485414610304578063a217fddf146102e8578063c4d66de8146100ee5763d547741f1461007757600080fd5b346100e95760403660031901126100e95760043561009361046d565b61009c82610483565b916100a5610603565b600084815260209182526040808220338352909252205460ff16156100d0576100ce9250610539565b005b8263e2517d3f60e01b6000523360045260245260446000fd5b600080fd5b346100e95760203660031901126100e9576004356001600160a01b038116908190036100e95760ff604051602081017ff158cb8b47a14bda3b2c4affcc0d960e9ed23f5a516e4779510b08a6e823c02581526020825261014f6040836105cb565b8219915190201654166102d85760405161016a60e0826105cb565b600681526020810160c03682378151156102c2576301ffc9a760e01b90528051600110156102c257632f2ff15d60e01b60408201528051600210156102c25763d547741f60e01b60608201528051600310156102c257631b2b455f60e11b60808201528051600410156102c25763248a9ca360e01b60a08201528051600510156102c257632474521560e21b60c082015260005b815181101561029a57600082518210156102865750600581901b8201602001516001600160e01b03191690833b156100e95760405191630815f6fd60e01b8352600483015230602483015260008260448183885af191821561027a57600192610269575b50016101fe565b6000610274916105cb565b84610262565b6040513d6000823e3d90fd5b634e487b7160e01b81526032600452602490fd5b337f766a6be0db21517b2b423a513c14e61451e05bf62e25a0fe2ed3e444d19d9aa9600080a2005b634e487b7160e01b600052603260045260246000fd5b62dc149f60e41b60005260046000fd5b346100e95760003660031901126100e957602060405160008152f35b346100e95760403660031901126100e95761031d61046d565b610325610603565b60043560005260205260406000209060018060a01b0316600052602052602060ff604060002054166040519015158152f35b346100e95760403660031901126100e95761037061046d565b336001600160a01b0382160361038c576100ce90600435610539565b63334bd91960e11b60005260046000fd5b346100e95760403660031901126100e9576004356103b961046d565b6103c282610483565b916103cb610603565b600084815260209182526040808220338352909252205460ff16156100d0576100ce925061049e565b346100e95760203660031901126100e9576020610412600435610483565b604051908152f35b346100e95760203660031901126100e9576004359063ffffffff60e01b82168092036100e957602091637965db0b60e01b811490811561045c575b5015158152f35b6301ffc9a760e01b14905083610455565b602435906001600160a01b03821682036100e957565b61048b610603565b9060005260205260016040600020015490565b6104a6610603565b6000828152602091825260408082206001600160a01b0386168352909252205460ff16610532576104d5610603565b6000828152602091825260408082206001600160a01b039590951680835294909252908120805460ff19166001179055339291907f2f8788117e7eff1d82e926ec794901d17c78024a50270940304540a733656f0d9080a4600190565b5050600090565b610541610603565b6000828152602091825260408082206001600160a01b0386168352909252205460ff161561053257610571610603565b6000828152602091825260408082206001600160a01b039590951680835294909252908120805460ff19169055339291907ff6391f5c32d9c69d2a47ea670b442974b53935d1edc7fd64eb21e047a839171b9080a4600190565b90601f8019910116810190811067ffffffffffffffff8211176105ed57604052565b634e487b7160e01b600052604160045260246000fd5b604051602081017fcf377bf0da9cb35454543c63ad54bf2c5a0466b629ac7517e61f8857cae0fa2581526020825261063c6040836105cb565b9051902060ff19169056fea26469706673582212204c20638f6e5fdb3988e098732df650e0d87d3e216a4d62d51f7671cf907e8f3d64736f6c634300081c003360a0806040526104ad803803809161001782856102b7565b833981016040828203126101f35761002e826102f0565b602083015190926001600160401b0382116101f3570181601f820112156101f35780519061005b82610304565b9261006960405194856102b7565b828452602083830101116101f35760005b8281106102a2575050602060009183010152813b15610280577fa3f0ad74e5423aebfd80d3ef4346578335a9a72aeaee59ff6cb3582b35133d5080546001600160a01b0319166001600160a01b038416908117909155604051635c60da1b60e01b8152909190602081600481865afa90811561020057600091610246575b50803b156102255750817f1cf3b03a6cf19fa2baba4df148e9dcabedea7f8a5c07840e207e5c089be95d3e600080a280511561020c57602060049260405193848092635c60da1b60e01b82525afa918215610200576000926101b9575b509060008083602061019595519101845af43d156101b1573d9161017883610304565b9261018660405194856102b7565b83523d6000602085013e61031f565b505b60805260405161012c908161038182396080518160180152f35b60609161031f565b91506020823d6020116101f8575b816101d4602093836102b7565b810103126101f3576000806101eb610195946102f0565b935050610155565b600080fd5b3d91506101c7565b6040513d6000823e3d90fd5b505034156101975763b398979f60e01b60005260046000fd5b634c9c8ce360e01b60009081526001600160a01b0391909116600452602490fd5b90506020813d602011610278575b81610261602093836102b7565b810103126101f357610272906102f0565b386100f8565b3d9150610254565b50631933b43b60e21b60009081526001600160a01b0391909116600452602490fd5b8060208092840101518282870101520161007a565b601f909101601f19168101906001600160401b038211908210176102da57604052565b634e487b7160e01b600052604160045260246000fd5b51906001600160a01b03821682036101f357565b6001600160401b0381116102da57601f01601f191660200190565b90610345575080511561033457805190602001fd5b63d6bda27560e01b60005260046000fd5b81511580610377575b610356575090565b639996b31560e01b60009081526001600160a01b0391909116600452602490fd5b50803b1561034e56fe60806040819052635c60da1b60e01b81526020906004817f00000000000000000000000000000000000000000000000000000000000000006001600160a01b03165afa801560a5576000901560d6575060203d602011609f575b601f19601f820116608001906080821067ffffffffffffffff83111760895760859160405260800160b1565b60d6565b634e487b7160e01b600052604160045260246000fd5b503d6059565b6040513d6000823e3d90fd5b602090607f19011260d1576080516001600160a01b038116810360d15790565b600080fd5b60008091368280378136915af43d6000803e1560f1573d6000f35b3d6000fdfea264697066735822122022314cbcedd0a79de2098b56e439a94b65e63387b9795a0c06594490f6c519be64736f6c634300081c0033608080604052346015576103e9908161001b8239f35b600080fdfe608080604052600436101561001357600080fd5b6000803560e01c63f8c8765e1461002957600080fd5b34610334576080366003190112610334576004356001600160a01b03811690819003610332576024356001600160a01b038116919082900361032e576044356001600160a01b038116949085900361032a576064356001600160a01b038116919082900361030457602081017ff158cb8b47a14bda3b2c4affcc0d960e9ed23f5a516e4779510b08a6e823c0258152602082526100c7604083610337565b9051902060ff1916805460ff811661031c5760ff191660011790556100ea61036f565b8480526020526040842085855260205260408420600160ff1982541617905561011161036f565b7f7ed687a8f2955bd2ba7ca08227e1e364d132be747f42fb733165f923021b022585526020526040842085855260205260408420600160ff19825416179055604051602081017fbc3d2aa592e762b6b9818deeb47ae607a065ca9ca1c655beb8de14401655721a815260208252610189604083610337565b9051902060ff191680546001600160a01b0319169091179055604051916101b160e084610337565b60068352602083019060c036833783511561030857633dbaac6360e01b82528351600110156103085763201ae1b960e11b604085015283516002101561030857631ba82e6360e31b606085015283516003101561030857630946bcc360e41b6080850152835160041015610308576336266ac760e11b60a0850152835160051015610308576316b7d25960e11b60c0850152823b156103045792909184926040519485936323c45f6760e01b855260448501906040600487015251809152606485019290865b8181106102de575050508380928692602483015203925af180156102d3576102c3575b50907f36e9a2290af62c469d8613e574c5d2032ca1e5b32254ec5e33fb50dc821ed1fd8280a280f35b816102cd91610337565b3861029a565b6040513d84823e3d90fd5b82516001600160e01b031916855289975088965060209485019490920191600101610277565b8480fd5b634e487b7160e01b85526032600452602485fd5b62dc149f60e41b8652600486fd5b8380fd5b8280fd5b505b80fd5b90601f8019910116810190811067ffffffffffffffff82111761035957604052565b634e487b7160e01b600052604160045260246000fd5b604051602081017fcf377bf0da9cb35454543c63ad54bf2c5a0466b629ac7517e61f8857cae0fa258152602082526103a8604083610337565b9051902060ff19169056fea2646970667358221220ab96adcd0ce3c68bfb551d339db6c38a1ae4702ad1ed8360c50e8c5ad616c16864736f6c634300081c00336080806040526104e7803803809161001782856102b2565b83398101906040818303126102175761002f816102eb565b602082015190916001600160401b03821161021757019082601f8301121561021757815161005c816102ff565b9261006a60405194856102b2565b8184526020840194602083830101116102175760005b82811061029d575050602060009184010152803b156102695760018060a01b0316918260018060a01b03196000805160206104c78339815191525416176000805160206104c7833981519152557fa657f2ad315cf3bb35cf1964158da75c3f334481df05a4a1644b2376b17a59b26020604051858152a181511561025057815181516001600160e01b0319811692919060048210610230575b505060405163dc9cc64560e01b81526001600160e01b03199092166004830152602082602481875afa918215610224576000926101d9575b506000809161018d945190845af43d156101d1573d91610170836102ff565b9261017e60405194856102b2565b83523d6000602085013e61031a565b505b7fa3f0ad74e5423aebfd80d3ef4346578335a9a72aeaee59ff6cb3582b35133d5080546001600160a01b03191691909117905560405161014b908161037c8239f35b60609161031a565b9291506020833d60201161021c575b816101f5602093836102b2565b81010312610217576000809161020d61018d956102eb565b9394509150610151565b600080fd5b3d91506101e8565b6040513d6000823e3d90fd5b6001600160e01b031960049290920360031b82901b161691503880610119565b5050341561018f5763b398979f60e01b60005260046000fd5b60405162461bcd60e51b815260206004820152600c60248201526b1393d397d0d3d395149050d560a21b6044820152606490fd5b80602080928401015182828801015201610080565b601f909101601f19168101906001600160401b038211908210176102d557604052565b634e487b7160e01b600052604160045260246000fd5b51906001600160a01b038216820361021757565b6001600160401b0381116102d557601f01601f191660200190565b90610340575080511561032f57805190602001fd5b63d6bda27560e01b60005260046000fd5b81511580610372575b610351575090565b639996b31560e01b60009081526001600160a01b0391909116600452602490fd5b50803b1561034956fe608060408190527f267691be3525af8a813d30db0c9e2bad08f63baecf6dceb85e2cf3676cff56f45463dc9cc64560e01b82526000356001600160e01b0319166084526020919060249082906001600160a01b03165afa80156100c157600090156100f4575060203d6020116100ba575b601f19601f820116608001906080821067ffffffffffffffff8311176100a45761009f916040526080016100cd565b6100f4565b634e487b7160e01b600052604160045260246000fd5b503d610070565b6040513d6000823e3d90fd5b602090607f1901126100ef576080516001600160a01b03811681036100ef5790565b600080fd5b60008091368280378136915af43d6000803e15610110573d6000f35b3d6000fdfea26469706673582212206227112ad2075e6a6789c148d397b5e9130e4e6dc18fab7faec5515be68c6e3964736f6c634300081c0033267691be3525af8a813d30db0c9e2bad08f63baecf6dceb85e2cf3676cff56f460808060405234601557610293908161001b8239f35b600080fdfe6080604052600436101561001257600080fd5b60003560e01c8063715018a61461015c5780638da5cb5b1461012f578063c4d66de8146100e85763f2fde38b1461004857600080fd5b346100e35760203660031901126100e3576004356001600160a01b038116908190036100e3576100766101c5565b80156100cd576001600160a01b0361008c6101f4565b54166100966101f4565b80546001600160a01b031916831790557f8be0079c531659141344cd1fd0a4f28419497f9722a3daafe3b4186f6b6457e0600080a3005b631e4fbdf760e01b600052600060045260246000fd5b600080fd5b346100e35760203660031901126100e3576004356001600160a01b038116908190036100e35780156100cd5761011c6101f4565b80546001600160a01b0319169091179055005b346100e35760003660031901126100e35760206001600160a01b036101526101f4565b5416604051908152f35b346100e35760003660031901126100e3576101756101c5565b60006001600160a01b036101876101f4565b54166101916101f4565b80546001600160a01b03191690557f8be0079c531659141344cd1fd0a4f28419497f9722a3daafe3b4186f6b6457e08280a3005b6001600160a01b036101d56101f4565b541633036101df57565b63118cdaa760e01b6000523360045260246000fd5b604051602081017f0cee7785c9739c2abcb4ce591dada6e864d6d906251746912d12a62bb828bf688152602082526040820182811067ffffffffffffffff821117610247576040529051902060ff191690565b634e487b7160e01b600052604160045260246000fdfea264697066735822122047969adfb68a2154d9383bc15f4420296edff9a462394ca5a9c4e5c3a63c052764736f6c634300081c0033a26469706673582212201f37371536f14471ae3cd2e951d67ae1f732a67d60df5c0caf660181f4537d9764736f6c634300081c0033",
  "linkReferences": {},
  "deployedLinkReferences": {}
}