{
  "_format": "hh-sol-artifact-1",
  "contractName": "ServiceFactory",
  "sourceName": "contracts/Factory/functions/ServiceFactory.sol",
  "abi": [
    {
      "inputs": [],
      "stateMutability": "nonpayable",
      "type": "constructor"
    },
    {
      "inputs": [
        {
          "internalType": "address",
          "name": "account",
          "type": "address"
        },
        {
          "internalType": "bytes32",
          "name": "neededRole",
          "type": "bytes32"
        }
      ],
      "name": "AccessControlUnauthorizedAccount",
      "type": "error"
    },
    {
      "inputs": [
        {
          "internalType": "address",
          "name": "founder",
          "type": "address"
        },
        {
          "internalType": "address",
          "name": "beacon",
          "type": "address"
        },
        {
          "internalType": "enum ServiceType",
          "name": "serviceType",
          "type": "uint8"
        }
      ],
      "name": "AlreadyDeployedService",
      "type": "error"
    },
    {
      "inputs": [
        {
          "internalType": "string",
          "name": "str",
          "type": "string"
        }
      ],
      "name": "EmptyString",
      "type": "error"
    },
    {
      "inputs": [
        {
          "internalType": "address",
          "name": "account",
          "type": "address"
        },
        {
          "internalType": "address",
          "name": "company",
          "type": "address"
        },
        {
          "internalType": "address",
          "name": "beacon",
          "type": "address"
        }
      ],
      "name": "FailDeployService",
      "type": "error"
    },
    {
      "inputs": [],
      "name": "InvalidInitialization",
      "type": "error"
    },
    {
      "inputs": [
        {
          "internalType": "address",
          "name": "beacon",
          "type": "address"
        }
      ],
      "name": "NotGovernanceService",
      "type": "error"
    },
    {
      "inputs": [],
      "name": "NotInitializing",
      "type": "error"
    },
    {
      "inputs": [
        {
          "internalType": "address",
          "name": "beacon",
          "type": "address"
        }
      ],
      "name": "ServiceNotOnline",
      "type": "error"
    },
    {
      "anonymous": false,
      "inputs": [
        {
          "indexed": true,
          "internalType": "address",
          "name": "beacon",
          "type": "address"
        },
        {
          "indexed": true,
          "internalType": "address",
          "name": "service",
          "type": "address"
        }
      ],
      "name": "ActivateService",
      "type": "event"
    },
    {
      "anonymous": false,
      "inputs": [
        {
          "indexed": true,
          "internalType": "address",
          "name": "beacon",
          "type": "address"
        },
        {
          "indexed": false,
          "internalType": "string",
          "name": "name",
          "type": "string"
        }
      ],
      "name": "DeployBeaconProxy",
      "type": "event"
    },
    {
      "anonymous": false,
      "inputs": [
        {
          "indexed": false,
          "internalType": "uint64",
          "name": "version",
          "type": "uint64"
        }
      ],
      "name": "Initialized",
      "type": "event"
    },
    {
      "inputs": [
        {
          "internalType": "address",
          "name": "founder",
          "type": "address"
        },
        {
          "internalType": "enum ServiceType",
          "name": "serviceType",
          "type": "uint8"
        }
      ],
      "name": "getFounderService",
      "outputs": [
        {
          "internalType": "address",
          "name": "",
          "type": "address"
        }
      ],
      "stateMutability": "view",
      "type": "function"
    },
    {
      "inputs": [
        {
          "internalType": "address",
          "name": "beacon",
          "type": "address"
        }
      ],
      "name": "getServiceType",
      "outputs": [
        {
          "internalType": "enum ServiceType",
          "name": "",
          "type": "uint8"
        }
      ],
      "stateMutability": "view",
      "type": "function"
    },
    {
      "inputs": [],
      "name": "initialize",
      "outputs": [],
      "stateMutability": "nonpayable",
      "type": "function"
    },
    {
      "inputs": [
        {
          "internalType": "address",
          "name": "implementation",
          "type": "address"
        },
        {
          "internalType": "string",
          "name": "name",
          "type": "string"
        },
        {
          "internalType": "enum ServiceType",
          "name": "serviceType",
          "type": "uint8"
        }
      ],
      "name": "setService",
      "outputs": [
        {
          "internalType": "address",
          "name": "beacon",
          "type": "address"
        }
      ],
      "stateMutability": "nonpayable",
      "type": "function"
    }
  ],
  "bytecode": "0x6080806040523460d2577ff0c57e16840df040f15088dc2f81fe391c3923bec73e23a9662efc9c229c6a005460ff8160401c1660c1576002600160401b03196001600160401b03821601605c575b604051610bd890816100d88239f35b6001600160401b0319166001600160401b039081177ff0c57e16840df040f15088dc2f81fe391c3923bec73e23a9662efc9c229c6a005581527fc7f505b2f371ae2175ee4913f4499e1f2633a7b5936321eed1cdaeb6115181d290602090a13880604d565b63f92ee8a960e01b60005260046000fd5b600080fdfe6080604052600436101561001257600080fd5b60003560e01c80630e8ac815146106695780633a5b89f0146101e25780638129fc1c146100af5763db0cf0ea1461004857600080fd5b346100aa5760203660031901126100aa576100616106cd565b610069610764565b9060018060a01b031660005260205260ff604060002054166040516007821015610094576020918152f35b634e487b7160e01b600052602160045260246000fd5b600080fd5b346100aa5760003660031901126100aa57600080516020610b838339815191525460ff8160401c16159067ffffffffffffffff8116801590816101da575b60011490816101d0575b1590816101c7575b506101b65767ffffffffffffffff198116600117600080516020610b838339815191525581610189575b5061013057005b68ff000000000000000019600080516020610b838339815191525416600080516020610b83833981519152557fc7f505b2f371ae2175ee4913f4499e1f2633a7b5936321eed1cdaeb6115181d2602060405160018152a1005b68ffffffffffffffffff19166801000000000000000117600080516020610b838339815191525581610129565b63f92ee8a960e01b60005260046000fd5b905015836100ff565b303b1591506100f7565b8391506100ed565b346100aa5760603660031901126100aa576101fb6106cd565b60243567ffffffffffffffff81116100aa57366023820112156100aa5780600401359067ffffffffffffffff82116100aa5736602483830101116100aa5760443560078110156100aa57604051602081017fcf377bf0da9cb35454543c63ad54bf2c5a0466b629ac7517e61f8857cae0fa2581526020825261027e6040836106e3565b60ff19915190201660008052602052604060002060018060a01b03331660005260205260ff604060002054161561064f57602490604051602081017f2810609b04caf5f85bb4aaecfb9d3c44224335fe412d57bd4016590897095aa48152602082526102eb6040836106e3565b9051902060405160ff199091169361030d6020601f19601f89011601836106e3565b858252602080830196806000968794018937830101526020948360405161033488826106e3565b5283802090825190201461062e576040516103da968782019782891067ffffffffffffffff8a111761060f5760409183916107a983396001600160a01b0316808a5233898b01529803019084f0801561062357604051906080820182811067ffffffffffffffff82111761060f5760409081528383528783019889526001838201908152606084018781526001600160a01b03909316808852978952908620925180519099919067ffffffffffffffff81116105fb5784549a60018c811c9c1680156105f1575b8b8d10146105dd578b601f8b9c9d9b999a9b11610583575b508b908a601f84116001146104ee5792806104b1989693600296937f03bf13c3738edb996db276d73747b443c443972ca33da1e26dba5ae491c64ac69b9996926104e3575b50508160011b916000199060031b1c19161785555b600185019160018060a01b0390511682549160ff60a01b9051151560a01b16916affffffffffffffffffffff60a81b1617179055519101556040519182918261071b565b0390a26104bc610764565b60018060a01b0384168352845260408220915060ff80198354169116179055604051908152f35b015190508f80610458565b50868b528c8b209190601f1984168c8f5b828210610567575050936104b198969360029693600193837f03bf13c3738edb996db276d73747b443c443972ca33da1e26dba5ae491c64ac69d9b981061054e575b505050811b01855561046d565b015160001960f88460031b161c191690558f8080610541565b8484015186558f9c5060019095019493840193908101906104ff565b909192939495809798508a528b8a20601f840160051c8101918d85106105d3575b90601f8d9a99989796959493920160051c01905b8181106105c55750610413565b8b81558c99506001016105b8565b90915081906105a4565b634e487b7160e01b89526022600452602489fd5b9b607f169b6103fb565b634e487b7160e01b88526041600452602488fd5b634e487b7160e01b86526041600452602486fd5b6040513d85823e3d90fd5b6040516318a996bb60e21b815290819061064b906004830161071b565b0390fd5b63e2517d3f60e01b60005233600452600060245260446000fd5b346100aa5760403660031901126100aa576106826106cd565b6024359060078210156100aa576001610699610764565b019060018060a01b0316600052602052604060002090600052602052602060018060a01b0360406000205416604051908152f35b600435906001600160a01b03821682036100aa57565b90601f8019910116810190811067ffffffffffffffff82111761070557604052565b634e487b7160e01b600052604160045260246000fd5b91909160208152825180602083015260005b81811061074e575060409293506000838284010152601f8019910116010190565b806020809287010151604082860101520161072d565b604051602081017fa982c9e6e17d452331d25729e1841144b75518b90727406c625995fda7cfcb3f81526020825261079d6040836106e3565b9051902060ff19169056fe60803461013a57601f6103da38819003918201601f19168301916001600160401b0383118484101761013f57808492604094855283398101031261013a5761004681610155565b906001600160a01b039061005c90602001610155565b1690811561012457600080546001600160a01b031981168417825560405193916001600160a01b03909116907f8be0079c531659141344cd1fd0a4f28419497f9722a3daafe3b4186f6b6457e09080a3803b1561010357600180546001600160a01b0319166001600160a01b039290921691821790557fbc7cd75a20ee27fd9adebab32041f755214dbc6bffa90cc0225b39da2e5c2d3b600080a2610270908161016a8239f35b63211eb15960e21b60009081526001600160a01b0391909116600452602490fd5b631e4fbdf760e01b600052600060045260246000fd5b600080fd5b634e487b7160e01b600052604160045260246000fd5b51906001600160a01b038216820361013a5756fe6080604052600436101561001257600080fd5b60003560e01c80633659cfe6146101905780635c60da1b14610167578063715018a61461010e5780638da5cb5b146100e55763f2fde38b1461005357600080fd5b346100e05760203660031901126100e0576004356001600160a01b038116908190036100e057610081610211565b80156100ca57600080546001600160a01b03198116831782556001600160a01b0316907f8be0079c531659141344cd1fd0a4f28419497f9722a3daafe3b4186f6b6457e09080a3005b631e4fbdf760e01b600052600060045260246000fd5b600080fd5b346100e05760003660031901126100e0576000546040516001600160a01b039091168152602090f35b346100e05760003660031901126100e057610127610211565b600080546001600160a01b0319811682556001600160a01b03167f8be0079c531659141344cd1fd0a4f28419497f9722a3daafe3b4186f6b6457e08280a3005b346100e05760003660031901126100e0576001546040516001600160a01b039091168152602090f35b346100e05760203660031901126100e0576004356001600160a01b038116908181036100e0576101be610211565b3b156101fd57600180546001600160a01b031916821790557fbc7cd75a20ee27fd9adebab32041f755214dbc6bffa90cc0225b39da2e5c2d3b600080a2005b63211eb15960e21b60005260045260246000fd5b6000546001600160a01b0316330361022557565b63118cdaa760e01b6000523360045260246000fdfea264697066735822122064ee34d8aac134cd71c99b18254a6e6b157733d4b5d90a10613c087479a049aa64736f6c634300081c0033f0c57e16840df040f15088dc2f81fe391c3923bec73e23a9662efc9c229c6a00a2646970667358221220c15965da8dc47d6126a965d9a0b4df74ece61cd10ab89f29e3f8a41a229d727164736f6c634300081c0033",
  "linkReferences": {},
  "deployedLinkReferences": {}
}