{
  "_format": "hh-sol-artifact-1",
  "contractName": "SCR",
  "sourceName": "contracts/SCR/functions/SCR.sol",
  "abi": [
    {
      "inputs": [],
      "stateMutability": "nonpayable",
      "type": "constructor"
    },
    {
      "inputs": [
        {
          "internalType": "address",
          "name": "account",
          "type": "address"
        },
        {
          "internalType": "bytes32",
          "name": "neededRole",
          "type": "bytes32"
        }
      ],
      "name": "AccessControlUnauthorizedAccount",
      "type": "error"
    },
    {
      "inputs": [
        {
          "internalType": "address",
          "name": "founder",
          "type": "address"
        },
        {
          "internalType": "address",
          "name": "beacon",
          "type": "address"
        },
        {
          "internalType": "enum ServiceType",
          "name": "serviceType",
          "type": "uint8"
        }
      ],
      "name": "AlreadyDeployedService",
      "type": "error"
    },
    {
      "inputs": [
        {
          "internalType": "address",
          "name": "founder",
          "type": "address"
        },
        {
          "internalType": "string",
          "name": "scid",
          "type": "string"
        }
      ],
      "name": "AlreadyEstablish",
      "type": "error"
    },
    {
      "inputs": [
        {
          "internalType": "string",
          "name": "scid",
          "type": "string"
        }
      ],
      "name": "AlreadyRegisteredScid",
      "type": "error"
    },
    {
      "inputs": [
        {
          "internalType": "string",
          "name": "str",
          "type": "string"
        }
      ],
      "name": "EmptyString",
      "type": "error"
    },
    {
      "inputs": [
        {
          "internalType": "address",
          "name": "account",
          "type": "address"
        },
        {
          "internalType": "address",
          "name": "company",
          "type": "address"
        },
        {
          "internalType": "address",
          "name": "beacon",
          "type": "address"
        }
      ],
      "name": "FailDeployService",
      "type": "error"
    },
    {
      "inputs": [
        {
          "internalType": "string",
          "name": "scid",
          "type": "string"
        }
      ],
      "name": "FailedDeploySmartCompany",
      "type": "error"
    },
    {
      "inputs": [
        {
          "internalType": "address",
          "name": "beacon",
          "type": "address"
        }
      ],
      "name": "InvalidBeacon",
      "type": "error"
    },
    {
      "inputs": [],
      "name": "InvalidCompanyInfo",
      "type": "error"
    },
    {
      "inputs": [
        {
          "internalType": "uint256",
          "name": "expected",
          "type": "uint256"
        },
        {
          "internalType": "uint256",
          "name": "length",
          "type": "uint256"
        }
      ],
      "name": "InvalidCompanyInfoLength",
      "type": "error"
    },
    {
      "inputs": [
        {
          "internalType": "address",
          "name": "founder",
          "type": "address"
        }
      ],
      "name": "InvalidFounder",
      "type": "error"
    },
    {
      "inputs": [],
      "name": "InvalidInitialization",
      "type": "error"
    },
    {
      "inputs": [
        {
          "internalType": "uint256",
          "name": "length",
          "type": "uint256"
        },
        {
          "internalType": "uint256",
          "name": "expected",
          "type": "uint256"
        }
      ],
      "name": "InvalidLength",
      "type": "error"
    },
    {
      "inputs": [
        {
          "internalType": "address",
          "name": "account",
          "type": "address"
        },
        {
          "internalType": "address",
          "name": "company",
          "type": "address"
        },
        {
          "internalType": "address",
          "name": "service",
          "type": "address"
        }
      ],
      "name": "NotActivateService",
      "type": "error"
    },
    {
      "inputs": [],
      "name": "NotInitializing",
      "type": "error"
    },
    {
      "inputs": [
        {
          "internalType": "address",
          "name": "beacon",
          "type": "address"
        }
      ],
      "name": "SmartCompanyNotOnline",
      "type": "error"
    },
    {
      "anonymous": false,
      "inputs": [
        {
          "indexed": true,
          "internalType": "address",
          "name": "beacon",
          "type": "address"
        },
        {
          "indexed": true,
          "internalType": "address",
          "name": "service",
          "type": "address"
        }
      ],
      "name": "ActivateService",
      "type": "event"
    },
    {
      "anonymous": false,
      "inputs": [
        {
          "indexed": true,
          "internalType": "address",
          "name": "account",
          "type": "address"
        },
        {
          "indexed": false,
          "internalType": "string",
          "name": "legalEntityCode",
          "type": "string"
        },
        {
          "indexed": false,
          "internalType": "string",
          "name": "field",
          "type": "string"
        }
      ],
      "name": "AddCompanyInfoField",
      "type": "event"
    },
    {
      "anonymous": false,
      "inputs": [
        {
          "indexed": true,
          "internalType": "address",
          "name": "implementation",
          "type": "address"
        },
        {
          "indexed": true,
          "internalType": "address",
          "name": "newImplementation",
          "type": "address"
        }
      ],
      "name": "BeaconUpgraded",
      "type": "event"
    },
    {
      "anonymous": false,
      "inputs": [
        {
          "indexed": true,
          "internalType": "address",
          "name": "account",
          "type": "address"
        },
        {
          "indexed": true,
          "internalType": "uint256",
          "name": "fieldIndex",
          "type": "uint256"
        },
        {
          "indexed": false,
          "internalType": "string",
          "name": "legalEntityCode",
          "type": "string"
        },
        {
          "indexed": false,
          "internalType": "string",
          "name": "field",
          "type": "string"
        }
      ],
      "name": "DeleteCompanyInfoField",
      "type": "event"
    },
    {
      "anonymous": false,
      "inputs": [
        {
          "indexed": true,
          "internalType": "address",
          "name": "beacon",
          "type": "address"
        },
        {
          "indexed": false,
          "internalType": "string",
          "name": "name",
          "type": "string"
        }
      ],
      "name": "DeployBeaconProxy",
      "type": "event"
    },
    {
      "anonymous": false,
      "inputs": [
        {
          "indexed": true,
          "internalType": "address",
          "name": "proxy",
          "type": "address"
        },
        {
          "indexed": false,
          "internalType": "string",
          "name": "name",
          "type": "string"
        }
      ],
      "name": "DeployProxy",
      "type": "event"
    },
    {
      "anonymous": false,
      "inputs": [
        {
          "indexed": true,
          "internalType": "address",
          "name": "founder",
          "type": "address"
        },
        {
          "indexed": true,
          "internalType": "address",
          "name": "company",
          "type": "address"
        },
        {
          "indexed": false,
          "internalType": "string",
          "name": "scid",
          "type": "string"
        }
      ],
      "name": "DeploySmartCompany",
      "type": "event"
    },
    {
      "anonymous": false,
      "inputs": [
        {
          "indexed": false,
          "internalType": "uint64",
          "name": "version",
          "type": "uint64"
        }
      ],
      "name": "Initialized",
      "type": "event"
    },
    {
      "anonymous": false,
      "inputs": [
        {
          "indexed": true,
          "internalType": "address",
          "name": "founder",
          "type": "address"
        },
        {
          "indexed": false,
          "internalType": "string",
          "name": "scid",
          "type": "string"
        },
        {
          "indexed": false,
          "internalType": "string",
          "name": "companyInfoField",
          "type": "string"
        },
        {
          "indexed": false,
          "internalType": "string",
          "name": "value",
          "type": "string"
        }
      ],
      "name": "UpdateCompanyInfo",
      "type": "event"
    },
    {
      "anonymous": false,
      "inputs": [
        {
          "indexed": true,
          "internalType": "address",
          "name": "account",
          "type": "address"
        },
        {
          "indexed": true,
          "internalType": "uint256",
          "name": "fieldIndex",
          "type": "uint256"
        },
        {
          "indexed": false,
          "internalType": "string",
          "name": "legalEntityCode",
          "type": "string"
        },
        {
          "indexed": false,
          "internalType": "string",
          "name": "field",
          "type": "string"
        }
      ],
      "name": "UpdateCompanyInfoField",
      "type": "event"
    },
    {
      "inputs": [
        {
          "internalType": "string",
          "name": "legalEntityCode",
          "type": "string"
        },
        {
          "internalType": "string",
          "name": "field",
          "type": "string"
        }
      ],
      "name": "addCompanyInfoFields",
      "outputs": [],
      "stateMutability": "nonpayable",
      "type": "function"
    },
    {
      "inputs": [
        {
          "internalType": "string",
          "name": "scid",
          "type": "string"
        },
        {
          "internalType": "address",
          "name": "beacon",
          "type": "address"
        },
        {
          "internalType": "string",
          "name": "legalEntityCode",
          "type": "string"
        },
        {
          "internalType": "string",
          "name": "companyName",
          "type": "string"
        },
        {
          "internalType": "string",
          "name": "establishmentDate",
          "type": "string"
        },
        {
          "internalType": "string",
          "name": "jurisdiction",
          "type": "string"
        },
        {
          "internalType": "string",
          "name": "entityType",
          "type": "string"
        },
        {
          "internalType": "bytes",
          "name": "scDeployParam",
          "type": "bytes"
        },
        {
          "internalType": "string[]",
          "name": "companyInfo",
          "type": "string[]"
        },
        {
          "internalType": "address[]",
          "name": "scsBeaconProxy",
          "type": "address[]"
        },
        {
          "internalType": "bytes[]",
          "name": "scsDeployParams",
          "type": "bytes[]"
        }
      ],
      "name": "createSmartCompany",
      "outputs": [
        {
          "internalType": "address",
          "name": "company",
          "type": "address"
        },
        {
          "internalType": "address[]",
          "name": "services",
          "type": "address[]"
        }
      ],
      "stateMutability": "nonpayable",
      "type": "function"
    },
    {
      "inputs": [
        {
          "internalType": "string",
          "name": "legalEntityCode",
          "type": "string"
        },
        {
          "internalType": "uint256",
          "name": "fieldIndex",
          "type": "uint256"
        }
      ],
      "name": "deleteCompanyInfoFields",
      "outputs": [],
      "stateMutability": "nonpayable",
      "type": "function"
    },
    {
      "inputs": [
        {
          "internalType": "string",
          "name": "scid",
          "type": "string"
        },
        {
          "internalType": "string",
          "name": "companyInfoField",
          "type": "string"
        }
      ],
      "name": "getCompanyField",
      "outputs": [
        {
          "internalType": "string",
          "name": "",
          "type": "string"
        }
      ],
      "stateMutability": "view",
      "type": "function"
    },
    {
      "inputs": [
        {
          "internalType": "string",
          "name": "scid",
          "type": "string"
        }
      ],
      "name": "getCompanyInfo",
      "outputs": [
        {
          "components": [
            {
              "internalType": "string",
              "name": "companyName",
              "type": "string"
            },
            {
              "internalType": "address",
              "name": "companyAddress",
              "type": "address"
            },
            {
              "internalType": "address",
              "name": "founder",
              "type": "address"
            },
            {
              "internalType": "string",
              "name": "establishmentDate",
              "type": "string"
            },
            {
              "internalType": "string",
              "name": "jurisdiction",
              "type": "string"
            },
            {
              "internalType": "string",
              "name": "entityType",
              "type": "string"
            },
            {
              "internalType": "uint256",
              "name": "createAt",
              "type": "uint256"
            },
            {
              "internalType": "uint256",
              "name": "updateAt",
              "type": "uint256"
            }
          ],
          "internalType": "struct ISCRStructs.CompanyInfo",
          "name": "companyInfo",
          "type": "tuple"
        }
      ],
      "stateMutability": "view",
      "type": "function"
    },
    {
      "inputs": [
        {
          "internalType": "string",
          "name": "legalEntityCode",
          "type": "string"
        }
      ],
      "name": "getCompanyInfoFields",
      "outputs": [
        {
          "internalType": "string[]",
          "name": "fields",
          "type": "string[]"
        }
      ],
      "stateMutability": "view",
      "type": "function"
    },
    {
      "inputs": [
        {
          "internalType": "address",
          "name": "founder",
          "type": "address"
        }
      ],
      "name": "getFounderCompanies",
      "outputs": [
        {
          "internalType": "string",
          "name": "",
          "type": "string"
        }
      ],
      "stateMutability": "view",
      "type": "function"
    },
    {
      "inputs": [],
      "name": "initialize",
      "outputs": [],
      "stateMutability": "nonpayable",
      "type": "function"
    },
    {
      "inputs": [
        {
          "internalType": "string",
          "name": "scid",
          "type": "string"
        },
        {
          "internalType": "string",
          "name": "companyInfoField",
          "type": "string"
        },
        {
          "internalType": "string",
          "name": "value",
          "type": "string"
        }
      ],
      "name": "setCompanyInfo",
      "outputs": [],
      "stateMutability": "nonpayable",
      "type": "function"
    },
    {
      "inputs": [
        {
          "internalType": "address",
          "name": "scImplementation",
          "type": "address"
        },
        {
          "internalType": "string",
          "name": "scName",
          "type": "string"
        }
      ],
      "name": "setSCContract",
      "outputs": [
        {
          "internalType": "address",
          "name": "beacon",
          "type": "address"
        }
      ],
      "stateMutability": "nonpayable",
      "type": "function"
    },
    {
      "inputs": [
        {
          "internalType": "string",
          "name": "legalEntityCode",
          "type": "string"
        },
        {
          "internalType": "uint256",
          "name": "fieldIndex",
          "type": "uint256"
        },
        {
          "internalType": "string",
          "name": "field",
          "type": "string"
        }
      ],
      "name": "updateCompanyInfoFields",
      "outputs": [],
      "stateMutability": "nonpayable",
      "type": "function"
    },
    {
      "inputs": [
        {
          "internalType": "address",
          "name": "scBeacon",
          "type": "address"
        },
        {
          "internalType": "address",
          "name": "newSCImplementation",
          "type": "address"
        }
      ],
      "name": "updateSCContract",
      "outputs": [],
      "stateMutability": "nonpayable",
      "type": "function"
    }
  ],
  "bytecode": "0x6080806040523460d2577ff0c57e16840df040f15088dc2f81fe391c3923bec73e23a9662efc9c229c6a005460ff8160401c1660c1576002600160401b03196001600160401b03821601605c575b60405161326a90816100d88239f35b6001600160401b0319166001600160401b039081177ff0c57e16840df040f15088dc2f81fe391c3923bec73e23a9662efc9c229c6a005581527fc7f505b2f371ae2175ee4913f4499e1f2633a7b5936321eed1cdaeb6115181d290602090a13880604d565b63f92ee8a960e01b60005260046000fd5b600080fdfe610260604052600436101561001357600080fd5b600061022052610220513560e01c80630863633c14611c125780633a60f2b214610cd85780634e5f4d4014610c95578063518fd6c114610b5957806363c26fdd146108da5780638129fc1c1461079957806385a59bef146104e057806395896280146104945780639d123f6b14610353578063a05aa489146102b6578063e150812c146101b35763e54d64f9146100a957600080fd5b346101ac5760203660031901126101ac576004356001600160401b0381116101ac576100dc6100ea913690600401611cfc565b6100e4612303565b91612011565b8054906100f6826123cc565b916101046040519384611eac565b80835260208301809261022051526020610220512061022051915b83831061018f57848660405191829160208301906020845251809152604083019060408160051b850101929161022051905b82821061016057505050500390f35b9193600191939550602061017f8192603f198a82030186528851611d51565b9601920192018594939192610151565b60016020819261019e85612179565b81520192019201919061011f565b6102205180fd5b346101ac5760603660031901126101ac576004356001600160401b0381116101ac576101e3903690600401611cfc565b602435916044356001600160401b0381116101ac57610206903690600401611cfc565b92610219610212612347565b3390612380565b61022b610224612303565b8285612011565b5480861015610299575061028f846102817fc145ce168143e73cee68794acea64e5ff230bc3ac32bb4141c8cb5e81d39977895968561027b8a61027661026f612303565b898d612011565b612161565b9061221b565b604051938493339785612241565b0390a36102205180f35b8590632db9197d60e11b6102205152600452602452604461022051fd5b346101ac576102c436611e0f565b916102d0610212612347565b6102e26102db612303565b8286612011565b8054936801000000000000000085101561033957610281818561027b8861032f9660017f45035ab0925e5e79aef11d550965adf21579ff030764617f88d8edc17d4d73ca9b018155612161565b0390a26102205180f35b634e487b7160e01b61022051526041600452602461022051fd5b346101ac5760403660031901126101ac5761036c611d8c565b610374611d76565b61037f610212612347565b6103876124ff565b916001600160a01b03169081151580610471575b15610458576001600160a01b031691813b156101ac57604051631b2ce7f360e11b815260048101849052610220518160248183875af1801561044a5761042f575b50816000526020526001604060002001826001600160601b0360a01b8254161790557fc945ae30494f6ee00b9e4bf1fec5653ced7244b559666f44f9a88ea732e957b06102205161022051a36102205180f35b6102205161043c91611eac565b610220516101ac57836103dc565b6040513d61022051823e3d90fd5b50638ebc912f60e01b6102205152600452602461022051fd5b506000828152602084905260409020600101546001600160a01b0316151561039b565b346101ac576104dc6104c86104c36100e46104ae36611e0f565b9290939160016104bc612303565b0191612011565b612179565b604051918291602083526020830190611d51565b0390f35b346101ac5760403660031901126101ac576104f9611d8c565b6024356001600160401b0381116101ac5761051b610538913690600401611cfc565b9190610528610212612347565b6105306124ff565b923691611f68565b604051602093919061054a8582611eac565b61022051905261022051610220512081518583012014610772576040516103da92838201938285106001600160401b0386111761033957604091839161298e833960018060a01b031694858152338882015203019061022051f0801561044a57604051906105b782611e5f565b8282528582019384526001604080840191825261022051606085019081526001600160a01b039093166000818152978952962092518051909591906001600160401b038111610339578796610616826106108854611f0d565b88612055565b89906001601f8411146106d75792610674837f03bf13c3738edb996db276d73747b443c443972ca33da1e26dba5ae491c64ac69997946106c199979460029761022051926106cc575b50508160011b916000199060031b1c19161790565b85555b9051600185018054925160ff60a01b90151560a01b166001600160a01b039092166001600160a81b0319909316929092171790555191015560405186815291829187830190611d51565b0390a2604051908152f35b015190508e8061065f565b90601f198316918761022051528b610220512092610220515b8d828210610759575050936106c198969360029693600193837f03bf13c3738edb996db276d73747b443c443972ca33da1e26dba5ae491c64ac69d9b9810610740575b505050811b018555610677565b015160001960f88460031b161c191690558d8080610733565b8484015186558d9c5060019095019493840193016106f0565b836107956040519283926318a996bb60e21b845260048401526024830190611d51565b0390fd5b346101ac57610220513660031901126101ac576000805160206132158339815191525460ff8160401c1615906001600160401b038116801590816108d2575b60011490816108c8575b1590816108bf575b506108aa5767ffffffffffffffff198116600117600080516020613215833981519152558161087d575b50610821575b6102205180f35b68ff0000000000000000196000805160206132158339815191525416600080516020613215833981519152557fc7f505b2f371ae2175ee4913f4499e1f2633a7b5936321eed1cdaeb6115181d2602060405160018152a161081a565b68ffffffffffffffffff191668010000000000000001176000805160206132158339815191525581610814565b63f92ee8a960e01b6102205152600461022051fd5b905015836107ea565b303b1591506107e2565b8391506107d8565b346101ac5760403660031901126101ac576004356001600160401b0381116101ac5761090a903690600401611cfc565b602435610918610212612347565b6109376109318261027661092a612303565b8688612011565b50612179565b610949610942612303565b8486612011565b9384549384841015610b1e5760001985019485119484865b6109c157818110156109db57600181018082116109c1576109829089612161565b509061098e818a612161565b6109a55760019261099e91612428565b0186610961565b634e487b7160e01b610220515261022051600452602461022051fd5b634e487b7160e01b61022051526011600452602461022051fd5b50508580548015610b045760001901906109f58282612161565b6109a557610a038154611f0d565b80610aaf575b50508181556020610a19836123cc565b610a266040519182611eac565b838152019061022051526020610220512061022051915b838310610a925787877f63fd410897d008ced8daf697dac0588fcb2d31ca9bb6879468925619a143ae65888861028f610a83604051938493604085526040850191611f47565b82810360208401523395611d51565b600160208192610aa185612179565b815201920192019190610a3d565b601f8111600114610ac957506102205190555b8680610a09565b610aec908261022051526001601f60206102205120920160051c8201910161203e565b61022080518290525160208120918190559055610ac2565b634e487b7160e01b61022051526031600452602461022051fd5b60405162461bcd60e51b8152602060048201526013602482015272496e646578206f7574206f6620626f756e647360681b6044820152606490fd5b346101ac5760603660031901126101ac576004356001600160401b0381116101ac57610b89903690600401611cfc565b906024356001600160401b0381116101ac57610ba9903690600401611cfc565b9190926044356001600160401b0381116101ac57610bcb903690600401611cfc565b9094906001600160a01b036002610bec81610be4612303565b018688612011565b0154163303610c7c57610c6c61032f927f6c21561ca7a463791bbf491f8d7109550f1613622dfef281ae40712963c658d296610c47848a610c42610c3b6001610c33612303565b018b8d612011565b8587612011565b61209c565b610c5e604051978897606089526060890191611f47565b918683036020880152611f47565b9083820360408501523396611f47565b637c983fd560e11b610220515233600452602461022051fd5b346101ac5760203660031901126101ac57610cae611d8c565b6003610cb8612303565b019060018060a01b03166000526020526104dc6104c86040600020612179565b346101ac576101603660031901126101ac576004356001600160401b0381116101ac57610d09903690600401611cfc565b610200526101e052610d19611d76565b60e0526044356001600160401b0381116101ac57610d3b903690600401611cfc565b6064356001600160401b0381116101ac57610d5a903690600401611cfc565b9061016052916084356001600160401b0381116101ac57610d7f903690600401611cfc565b610240529160a4356001600160401b0381116101ac57610da3903690600401611cfc565b9060c4356001600160401b0381116101ac57610dc3903690600401611cfc565b91909260e4356001600160401b0381116101ac57610de5903690600401611cfc565b610100526101c052610104356001600160401b0381116101ac57610e0d903690600401611da2565b979098610124356001600160401b0381116101ac57610e30903690600401611da2565b61012052610140526001600160401b0361014435116101ac57610e593661014435600401611da2565b6101a052610180526003610e6b612303565b61022080513390529101602052516040902054610e8790611f0d565b611be357610e93612347565b61022080517f7ed687a8f2955bd2ba7ca08227e1e364d132be747f42fb733165f923021b0225905260209182528051604080822033909252925251205460ff1615611ba65761020051151580611b9a575b80611b91575b80611b88575b15611b735760018060a01b036040610f0e610200516101e05161226b565b015116611b4a57610f27610f20612303565b888a612011565b8054610f32816123cc565b91610f406040519384611eac565b818352602083019061022051526020610220512061022051915b838310611b2d5750505050518914610f7a610f73612303565b898b612011565b8054610f85816123cc565b91610f936040519384611eac565b818352602083019061022051526020610220512061022051915b838310611b105750505050519015611af3575092611021949261100561101393610fed61103f9b9a9997610fdf611ecd565b60c052369061016051611f68565b60c0515233604060c051015236906102405190611f68565b606060c05101523691611f68565b608060c05101523691611f68565b60a060c05101524260c0805101524260e060c05101526100e4612303565b91825461104b816123cc565b936110596040519586611eac565b818552602085019061022051526020610220512061022051915b838310611ad65750505050610220515b828110611a8057604060a081905280516110d0916110a19082611eac565b601781527f63616c6c20637265617465536d617274436f6d70616e7900000000000000000060208201526123e3565b6110d86124ff565b610220515060018060a01b0360e05116610220515260205260a051610220512061130460a051519161110983611e5f565b61111281612179565b835260018101546001600160a01b0381166020850190815260a0805192811c60ff16151592860183815260029094015460608701908152905180519496919461128d946112ad946112369390926111b7926111cb926111719083611eac565b6013825272626561636f6e496e666f2e69734f6e6c696e6560681b602083015260a0515193849263c3b5563560e01b602085015260a05160248501526064840190611d51565b90604483015203601f198101835282611eac565b610220519061022051906020815191016a636f6e736f6c652e6c6f675afa505160a05180516001600160a01b0390921691906112079082611eac565b601981527f626561636f6e496e666f2e696d706c656d656e746174696f6e000000000000006020820152612538565b5160a05180519161129f9161124b9084611eac565b600f83526e626561636f6e496e666f2e6e616d6560881b602084015260a05151948593634b5c427760e01b602086015260a05160248601526064850190611d51565b83810360231901604485015290611d51565b03601f198101835282611eac565b610220519061022051906020815191016a636f6e736f6c652e6c6f675afa505160a0518051906112dd9082611eac565b601581527418995858dbdb925b999bcb9c1c9bde1e50dbdd5b9d605a1b6020820152612587565b5115611a5c5761139e60018060a01b03604060c05101511660a051519063cf7a1d7760e01b60208301526024820152306044820152606060648201526113588161129f60848201610100516101c051611f47565b60a051805161138e9161136b9082611eac565b60118152707072657061726520696e6974206461746160781b60208201526123e3565b60e0516113996124ff565b6125b7565b60805260a05180516113d1916113b49082611eac565b600b81526a63726561746550726f787960a81b60208201526123e3565b6080516001600160a01b031615611a325760a0518051611412916113f59082611eac565b6007815266636f6d70616e7960c81b602082015260805190612538565b600161142f6002611421612303565b01610200516101e051612011565b0160018060a01b03608051166001600160601b0360a01b8254161790556003611456612303565b60c0516040015161022080516001600160a01b03909216909152910160205260a051905120610200516101e05161148c9261209c565b60018060a01b03604060c0510151166114a7610120516123cc565b906114b660a051519283611eac565b6101205182526114c8610120516123cc565b601f19013660208401376114de610120516123cc565b906114ed60a051519283611eac565b610120518252601f19611502610120516123cc565b0136602084013761022051905b6101205182106116f857505060a05180516115529161152e9082611eac565b6012815271646f6e65207365747570207365727669636560701b60208201526123e3565b6080516001600160a01b03163b156101ac5760a0515191633dbaac6360e01b83526044830160a0516004850152815180915260206064850192019061022051905b8082106116bb5750505060031983820301602484015282806115b9610220519385611dd2565b03816102205160018060a01b03608051165af19182156116ac576104dc92611699575b5061161560a051516115f060a05182611eac565b600f81526e72656769737465725365727669636560881b602082015260805190612538565b60018060a01b03604060c05101511660a0515190602082527f2010c3c0906cc229f739633f84aa83f1b74fd6b9c085c14edce8fe040827181d60018060a01b0360805116928061166f60208201610200516101e051611f47565b0390a360a0515191829160018060a01b0360805116835260a051602084015260a051830190611dd2565b610220516116a691611eac565b826115dc565b60a051513d61022051823e3d90fd5b90919283519060078210156116de57602081600193829352019401920190611593565b634e487b7160e01b61022051526021600452602461022051fd5b9092916117268460a0515161170f60a05182611eac565b60058152640d2dcc8caf60db1b6020820152612587565b61173f61173a8561012051610140516128c9565b6128d9565b9361175b611754826101a05161018051611fae565b3691611f68565b61176361291b565b610220515060018060a01b038716610220515260205260a05161022051206060600260a051519261179384611e5f565b61179c81612179565b845260018101546001600160a01b038116602086015260a0805191901c60ff1615159085015201549101526117cf612954565b61022080516001600160a01b038916905260209190915260a0519051205460ff169060078210156116de57600582036119c8575b60a0515163cf7a1d7760e01b6020820152602481018690526080516001600160a01b03166044820152606060648201526118549161184b90829061129f906084830190611d51565b8761139961291b565b906001600160a01b038216156119995760019394959684611873612954565b016102205150858060a01b038816610220515260205261189a8260a05161022051206128ed565b80546001600160a01b03191660a087901b879003858116918217909255610220519092909116907f6e4794bbcdcbb6f8f64ec9a4edaa9ad91971f595599912c29ea5a393c034a74f9080a361191b8260a051516118f960a05182611eac565b601081526f6163746976617465644164647265737360801b6020820152612538565b61192f61173a8461012051610140516128c9565b5060a0518051611972916119439082611eac565b601d81527f73617665207365727669636520636f6e7472616374206164647265737300000060208201526123e3565b61197c838861202a565b5260a083901b83900316611990828561202a565b5201909161150f565b6102208051630edceaad60e01b9052336004526080516001600160a01b03908116602452881660445251606490fd5b60016119d2612954565b61022080516001600160a01b038981169091529290910160205260a0519051206119fd9084906128ed565b5416156118035750610220805163c2d5441960e01b905260048590526001600160a01b03871660245251604491909152606490fd5b60a051516330b05d4560e21b8152602060048201528061079560248201610200516101e051611f47565b6102208051630e288be560e01b905260e0516001600160a01b031660045251602490fd5b80611ad0611a916001938686611fae565b90611ac26020611aa387611421612303565b611aad878c61202a565b51908260405194838680955193849201611d2e565b82019081520301902061209c565b01611083565b600160208192611ae585612179565b815201920192019190611073565b8990630c48d2d360e41b6102205152600452602452604461022051fd5b600160208192611b1f85612179565b815201920192019190610fad565b600160208192611b3c85612179565b815201920192019190610f5a565b6040516316e7f23360e11b8152602060048201528061079560248201610200516101e051611f47565b6359a1bf5f60e01b6102205152600461022051fd5b50841515610ef0565b50821515610eea565b50610240511515610ee4565b63e2517d3f60e01b6102205152336004527f7ed687a8f2955bd2ba7ca08227e1e364d132be747f42fb733165f923021b0225602452604461022051fd5b604051637da4654d60e11b8152336004820152604060248201528061079560448201610200516101e051611f47565b346101ac5760203660031901126101ac576004356001600160401b0381116101ac57611c45611c54913690600401611cfc565b90611c4e611ecd565b5061226b565b60405180916020825260e0611ce6611cd0611cba611c8085516101006020890152610120880190611d51565b60208601516001600160a01b0390811660408981019190915287015116606080890191909152860151878203601f19016080890152611d51565b6080850151868203601f190160a0880152611d51565b60a0840151858203601f190160c0870152611d51565b9160c08101518285015201516101008301520390f35b9181601f84011215611d29578235916001600160401b038311611d295760208381860195010111611d2957565b600080fd5b60005b838110611d415750506000910152565b8181015183820152602001611d31565b90602091611d6a81518092818552858086019101611d2e565b601f01601f1916010190565b602435906001600160a01b0382168203611d2957565b600435906001600160a01b0382168203611d2957565b9181601f84011215611d29578235916001600160401b038311611d29576020808501948460051b010111611d2957565b906020808351928381520192019060005b818110611df05750505090565b82516001600160a01b0316845260209384019390920191600101611de3565b6040600319820112611d29576004356001600160401b038111611d295781611e3991600401611cfc565b92909291602435906001600160401b038211611d2957611e5b91600401611cfc565b9091565b608081019081106001600160401b03821117611e7a57604052565b634e487b7160e01b600052604160045260246000fd5b61010081019081106001600160401b03821117611e7a57604052565b90601f801991011681019081106001600160401b03821117611e7a57604052565b60405190611eda82611e90565b600060e0836060815282602082015282604082015260608082015260606080820152606060a08201528260c08201520152565b90600182811c92168015611f3d575b6020831014611f2757565b634e487b7160e01b600052602260045260246000fd5b91607f1691611f1c565b908060209392818452848401376000828201840152601f01601f1916010190565b9291926001600160401b038211611e7a5760405191611f91601f8201601f191660200184611eac565b829481845281830111611d29578281602093846000960137010152565b90929192831015611ffb5760009260051b81013590601e1981360301821215611ff757018035926001600160401b038411611ff457506020018236038113611d29579190565b80fd5b8380fd5b634e487b7160e01b600052603260045260246000fd5b6020919283604051948593843782019081520301902090565b8051821015611ffb5760209160051b010190565b818110612049575050565b6000815560010161203e565b9190601f811161206457505050565b612090926000526020600020906020601f840160051c83019310612092575b601f0160051c019061203e565b565b9091508190612083565b9092916001600160401b038111611e7a576120c1816120bb8454611f0d565b84612055565b6000601f82116001146121015781906120f29394956000926120f65750508160011b916000199060031b1c19161790565b9055565b01359050388061065f565b601f198216948382526020822091805b87811061214957508360019596971061212f575b505050811b019055565b0135600019600384901b60f8161c19169055388080612125565b90926020600181928686013581550194019101612111565b8054821015611ffb5760005260206000200190600090565b906040519182600082549261218d84611f0d565b80845293600181169081156121f957506001146121b2575b5061209092500383611eac565b90506000929192526020600020906000915b8183106121dd57505090602061209092820101386121a5565b60209193508060019154838589010152019101909184926121c4565b90506020925061209094915060ff191682840152151560051b820101386121a5565b92919061222b576120909261209c565b634e487b7160e01b600052600060045260246000fd5b929061225a906122689593604086526040860191611f47565b926020818503910152611f47565b90565b61228291612277611ecd565b5060026104bc612303565b60076040519161229183611e90565b61229a81612179565b835260018101546001600160a01b03908116602085015260028201541660408401526122c860038201612179565b60608401526122d960048201612179565b60808401526122ea60058201612179565b60a0840152600681015460c0840152015460e082015290565b604051602081017f0c15d248601496993b91775e26d65c75239afd51668be07fb67f76a382bff9b881526020825261233c604083611eac565b9051902060ff191690565b604051602081017fcf377bf0da9cb35454543c63ad54bf2c5a0466b629ac7517e61f8857cae0fa2581526020825261233c604083611eac565b6000808052602091825260408082206001600160a01b0385168352909252205460ff16156123ab5750565b63e2517d3f60e01b60005260018060a01b0316600452600060245260446000fd5b6001600160401b038111611e7a5760051b60200190565b600061129f612411829360405192839163104c13eb60e21b6020840152602060248401526044830190611d51565b6020815191016a636f6e736f6c652e6c6f675afa50565b9190918281146124fa5761243c8354611f0d565b6001600160401b038111611e7a57612458816120bb8454611f0d565b600093601f8211600114612495576120f2929394829160009261248a5750508160011b916000199060031b1c19161790565b01549050388061065f565b845260208085208386529085209094601f198316815b8181106124e2575095836001959697106124c957505050811b019055565b015460001960f88460031b161c19169055388080612125565b9192600180602092868b0154815501940192016124ab565b509050565b604051602081017f806dfdd21cc5ccb4cb5e43c3351fdcb03baa9f74fc17c0e74f0826e07b93739b81526020825261233c604083611eac565b61256861241160009392849360405193849263319af33360e01b6020850152604060248501526064840190611d51565b6001600160a01b0391909116604483015203601f198101835282611eac565b6111b7612411600093928493604051938492632d839cb360e21b6020850152604060248501526064840190611d51565b9291906040906125ef8183516125cd8582611eac565b601081526f63616c6c2063726561746550726f787960801b6020820152612538565b8151906104ad90818301948386106001600160401b03871117611e7a5784612633928594612d6886396001600160a01b031680885260208801829052960190611d51565b03906000f080156128be5761266e825161264d8482611eac565b600f81526e6e657720426561636f6e50726f787960881b60208201526123e3565b60018060a01b03169361269e8583516126878582611eac565b600581526470726f787960d81b6020820152612538565b826000528060205260028260002001805460001981146128a85760010190558160008481528260205220908251916126d583611e5f565b60026126e082612179565b80855260018301546001600160a01b038116602087015260a01c60ff161515868601529101546060840152835191828501916001600160401b03831184841017611e7a57859283528352602083019586526001600091818060a01b038a168352016020522090519384516001600160401b038111611e7a57879561276e826127688654611f0d565b86612055565b602090601f831160011461281557926127c9837fd35bad9fb6a1774ae85e46aea4e094db8d9dc30eaaf8e17514312d5b9ccdee09989694600194612805999760009261280a5750508160011b916000199060031b1c19161790565b83555b818060a01b0390511691019060018060a01b03166001600160601b0360a01b825416179055519051918291602083526020830190611d51565b0390a2565b01519050388061065f565b90601f1983169185600052816000209260005b81811061288d5750936001936128059896938593837fd35bad9fb6a1774ae85e46aea4e094db8d9dc30eaaf8e17514312d5b9ccdee099c9a9810612874575b505050811b0183556127cc565b015160001960f88460031b161c19169055388080612867565b8284015185558c9a5060019094019360209384019301612828565b634e487b7160e01b600052601160045260246000fd5b50513d6000823e3d90fd5b9190811015611ffb5760051b0190565b356001600160a01b0381168103611d295790565b90600781101561290557600052602052604060002090565b634e487b7160e01b600052602160045260246000fd5b604051602081017f2810609b04caf5f85bb4aaecfb9d3c44224335fe412d57bd4016590897095aa481526020825261233c604083611eac565b604051602081017fa982c9e6e17d452331d25729e1841144b75518b90727406c625995fda7cfcb3f81526020825261233c604083611eac56fe60803461013a57601f6103da38819003918201601f19168301916001600160401b0383118484101761013f57808492604094855283398101031261013a5761004681610155565b906001600160a01b039061005c90602001610155565b1690811561012457600080546001600160a01b031981168417825560405193916001600160a01b03909116907f8be0079c531659141344cd1fd0a4f28419497f9722a3daafe3b4186f6b6457e09080a3803b1561010357600180546001600160a01b0319166001600160a01b039290921691821790557fbc7cd75a20ee27fd9adebab32041f755214dbc6bffa90cc0225b39da2e5c2d3b600080a2610270908161016a8239f35b63211eb15960e21b60009081526001600160a01b0391909116600452602490fd5b631e4fbdf760e01b600052600060045260246000fd5b600080fd5b634e487b7160e01b600052604160045260246000fd5b51906001600160a01b038216820361013a5756fe6080604052600436101561001257600080fd5b60003560e01c80633659cfe6146101905780635c60da1b14610167578063715018a61461010e5780638da5cb5b146100e55763f2fde38b1461005357600080fd5b346100e05760203660031901126100e0576004356001600160a01b038116908190036100e057610081610211565b80156100ca57600080546001600160a01b03198116831782556001600160a01b0316907f8be0079c531659141344cd1fd0a4f28419497f9722a3daafe3b4186f6b6457e09080a3005b631e4fbdf760e01b600052600060045260246000fd5b600080fd5b346100e05760003660031901126100e0576000546040516001600160a01b039091168152602090f35b346100e05760003660031901126100e057610127610211565b600080546001600160a01b0319811682556001600160a01b03167f8be0079c531659141344cd1fd0a4f28419497f9722a3daafe3b4186f6b6457e08280a3005b346100e05760003660031901126100e0576001546040516001600160a01b039091168152602090f35b346100e05760203660031901126100e0576004356001600160a01b038116908181036100e0576101be610211565b3b156101fd57600180546001600160a01b031916821790557fbc7cd75a20ee27fd9adebab32041f755214dbc6bffa90cc0225b39da2e5c2d3b600080a2005b63211eb15960e21b60005260045260246000fd5b6000546001600160a01b0316330361022557565b63118cdaa760e01b6000523360045260246000fdfea264697066735822122064ee34d8aac134cd71c99b18254a6e6b157733d4b5d90a10613c087479a049aa64736f6c634300081c003360a0806040526104ad803803809161001782856102b7565b833981016040828203126101f35761002e826102f0565b602083015190926001600160401b0382116101f3570181601f820112156101f35780519061005b82610304565b9261006960405194856102b7565b828452602083830101116101f35760005b8281106102a2575050602060009183010152813b15610280577fa3f0ad74e5423aebfd80d3ef4346578335a9a72aeaee59ff6cb3582b35133d5080546001600160a01b0319166001600160a01b038416908117909155604051635c60da1b60e01b8152909190602081600481865afa90811561020057600091610246575b50803b156102255750817f1cf3b03a6cf19fa2baba4df148e9dcabedea7f8a5c07840e207e5c089be95d3e600080a280511561020c57602060049260405193848092635c60da1b60e01b82525afa918215610200576000926101b9575b509060008083602061019595519101845af43d156101b1573d9161017883610304565b9261018660405194856102b7565b83523d6000602085013e61031f565b505b60805260405161012c908161038182396080518160180152f35b60609161031f565b91506020823d6020116101f8575b816101d4602093836102b7565b810103126101f3576000806101eb610195946102f0565b935050610155565b600080fd5b3d91506101c7565b6040513d6000823e3d90fd5b505034156101975763b398979f60e01b60005260046000fd5b634c9c8ce360e01b60009081526001600160a01b0391909116600452602490fd5b90506020813d602011610278575b81610261602093836102b7565b810103126101f357610272906102f0565b386100f8565b3d9150610254565b50631933b43b60e21b60009081526001600160a01b0391909116600452602490fd5b8060208092840101518282870101520161007a565b601f909101601f19168101906001600160401b038211908210176102da57604052565b634e487b7160e01b600052604160045260246000fd5b51906001600160a01b03821682036101f357565b6001600160401b0381116102da57601f01601f191660200190565b90610345575080511561033457805190602001fd5b63d6bda27560e01b60005260046000fd5b81511580610377575b610356575090565b639996b31560e01b60009081526001600160a01b0391909116600452602490fd5b50803b1561034e56fe60806040819052635c60da1b60e01b81526020906004817f00000000000000000000000000000000000000000000000000000000000000006001600160a01b03165afa801560a5576000901560d6575060203d602011609f575b601f19601f820116608001906080821067ffffffffffffffff83111760895760859160405260800160b1565b60d6565b634e487b7160e01b600052604160045260246000fd5b503d6059565b6040513d6000823e3d90fd5b602090607f19011260d1576080516001600160a01b038116810360d15790565b600080fd5b60008091368280378136915af43d6000803e1560f1573d6000f35b3d6000fdfea264697066735822122022314cbcedd0a79de2098b56e439a94b65e63387b9795a0c06594490f6c519be64736f6c634300081c0033f0c57e16840df040f15088dc2f81fe391c3923bec73e23a9662efc9c229c6a00a2646970667358221220c26e273fc90cb386abb376a2da6b1bdc48c3781b835dc5aad1c108b4747fed7864736f6c634300081c0033",
  "linkReferences": {},
  "deployedLinkReferences": {}
}