{"abi":[{"type":"function","name":"assignmentRole","inputs":[{"name":"account_","type":"address","internalType":"address"},{"name":"isAdmin_","type":"bool","internalType":"bool"}],"outputs":[{"name":"assigned_","type":"bool","internalType":"bool"}],"stateMutability":"nonpayable"},{"type":"function","name":"getService","inputs":[{"name":"index_","type":"uint256","internalType":"uint256"}],"outputs":[{"name":"service_","type":"address","internalType":"address"}],"stateMutability":"view"},{"type":"function","name":"initialService","inputs":[{"name":"services_","type":"address[]","internalType":"address[]"}],"outputs":[{"name":"completed_","type":"bool","internalType":"bool"}],"stateMutability":"nonpayable"},{"type":"function","name":"initialize","inputs":[{"name":"admin_","type":"address","internalType":"address"},{"name":"register_","type":"address","internalType":"address"}],"outputs":[],"stateMutability":"nonpayable"},{"type":"function","name":"releaseRole","inputs":[{"name":"account_","type":"address","internalType":"address"},{"name":"isAdmin_","type":"bool","internalType":"bool"}],"outputs":[{"name":"released_","type":"bool","internalType":"bool"}],"stateMutability":"nonpayable"},{"type":"event","name":"AssignmentRoleAdmin","inputs":[{"name":"admin_","type":"address","indexed":true,"internalType":"address"},{"name":"assigned_","type":"bool","indexed":false,"internalType":"bool"}],"anonymous":false},{"type":"event","name":"AssignmentRoleMember","inputs":[{"name":"member_","type":"address","indexed":true,"internalType":"address"},{"name":"assigned_","type":"bool","indexed":false,"internalType":"bool"}],"anonymous":false},{"type":"event","name":"InitialService","inputs":[{"name":"company_","type":"address","indexed":true,"internalType":"address"},{"name":"governance_","type":"address","indexed":false,"internalType":"address"},{"name":"treasury_","type":"address","indexed":false,"internalType":"address"},{"name":"token_","type":"address","indexed":false,"internalType":"address"}],"anonymous":false},{"type":"event","name":"Initialized","inputs":[{"name":"version","type":"uint64","indexed":false,"internalType":"uint64"}],"anonymous":false},{"type":"event","name":"ReleaseRoleAdmin","inputs":[{"name":"admin_","type":"address","indexed":true,"internalType":"address"},{"name":"released_","type":"bool","indexed":false,"internalType":"bool"}],"anonymous":false},{"type":"event","name":"ReleaseRoleMember","inputs":[{"name":"member_","type":"address","indexed":true,"internalType":"address"},{"name":"released_","type":"bool","indexed":false,"internalType":"bool"}],"anonymous":false},{"type":"error","name":"AlreadyAssignmentRole","inputs":[{"name":"account_","type":"address","internalType":"address"}]},{"type":"error","name":"AlreadyInitialService","inputs":[{"name":"account_","type":"address","internalType":"address"}]},{"type":"error","name":"AlreadyReleaseRole","inputs":[{"name":"account_","type":"address","internalType":"address"}]},{"type":"error","name":"InvalidAddress","inputs":[{"name":"account_","type":"address","internalType":"address"}]},{"type":"error","name":"InvalidIndex","inputs":[{"name":"index_","type":"uint256","internalType":"uint256"}]},{"type":"error","name":"InvalidInitialization","inputs":[]},{"type":"error","name":"NotInitializing","inputs":[]}],"bytecode":{"object":"0x6080604052348015600f57600080fd5b50610b408061001f6000396000f3fe608060405234801561001057600080fd5b50600436106100575760003560e01c806313b0dfb41461005c5780633827be0914610084578063485cc95514610097578063659e10e4146100ac578063ef0e239b146100bf575b600080fd5b61006f61006a366004610955565b6100ea565b60405190151581526020015b60405180910390f35b61006f610092366004610955565b61017b565b6100aa6100a5366004610991565b6101f3565b005b61006f6100ba3660046109c4565b610336565b6100d26100cd366004610a3b565b61041d565b6040516001600160a01b03909116815260200161007b565b3360009081526001602052604081205460ff166101225760405162461bcd60e51b815260040161011990610a54565b60405180910390fd5b6001600160a01b03831661015457604051634726455360e11b81526001600160a01b0384166004820152602401610119565b8161016957610162836104c5565b9050610175565b6101728361058a565b90505b92915050565b3360009081526001602052604081205460ff166101aa5760405162461bcd60e51b815260040161011990610a54565b6001600160a01b0383166101dc57604051634726455360e11b81526001600160a01b0384166004820152602401610119565b816101ea5761016283610642565b6101728361070c565b7ff0c57e16840df040f15088dc2f81fe391c3923bec73e23a9662efc9c229c6a008054600160401b810460ff16159067ffffffffffffffff166000811580156102395750825b905060008267ffffffffffffffff1660011480156102565750303b155b905081158015610264575080155b156102825760405163f92ee8a960e01b815260040160405180910390fd5b845467ffffffffffffffff1916600117855583156102ac57845460ff60401b1916600160401b1785555b6001600160a01b0387811660009081526001602081905260408220805460ff1916909117905580546001600160a01b031916918816919091179055831561032d57845460ff60401b19168555604051600181527fc7f505b2f371ae2175ee4913f4499e1f2633a7b5936321eed1cdaeb6115181d29060200160405180910390a15b50505050505050565b600080546001600160a01b031633146103a05760405162461bcd60e51b815260206004820152602660248201527f4572726f723a20426f726465726c657373436f6d70616e792f4f6e6c792d526560448201526533b4b9ba32b960d11b6064820152608401610119565b60006103ac60016107c6565b6001600160a01b03161415806103d5575060006103c960026107c6565b6001600160a01b031614155b806103f3575060006103e760036107c6565b6001600160a01b031614155b156104135760405163a10c5fef60e01b8152336004820152602401610119565b61017283836107e1565b3360009081526001602052604081205460ff1661044c5760405162461bcd60e51b815260040161011990610a54565b6000610457836107c6565b6001600160a01b0316036104bc5760405162461bcd60e51b815260206004820152602660248201527f4572726f723a20426f726465726c657373436f6d61706e792f496e76616c696460448201526505a92dcc8caf60d31b6064820152608401610119565b610175826107c6565b6001600160a01b03811660009081526002602052604081205460ff1661050957604051630da7873360e21b81526001600160a01b0383166004820152602401610119565b6001600160a01b0382166000818152600260209081526040808320805460ff19169055600182529182902054915160ff9092161582527fa0c359c0b9755c8b7773dcd88b62ff382d7d937f5fba598b8d191d138a69a505910160405180910390a2506001600160a01b031660009081526002602052604090205460ff161590565b6001600160a01b03811660009081526001602052604081205460ff166105ce57604051630da7873360e21b81526001600160a01b0383166004820152602401610119565b6001600160a01b038216600081815260016020818152604092839020805460ff1916905591519081527f8fc2cb9055791a469d80e512ee0a62907e5b4df0733e8dd4a9fccfb42b6eb7dc910160405180910390a2506001600160a01b031660009081526001602052604090205460ff161590565b6001600160a01b03811660009081526002602052604081205460ff16156106875760405163060998f560e51b81526001600160a01b0383166004820152602401610119565b6001600160a01b0382166000818152600260209081526040808320805460ff1916600190811790915582529182902054915160ff909216151582527fa8eecd1747f0992785d3219cccb1ec5d5bcd57280901c090e9e44581766b1bb6910160405180910390a2506001600160a01b031660009081526002602052604090205460ff1690565b6001600160a01b03811660009081526001602052604081205460ff16156107515760405163060998f560e51b81526001600160a01b0383166004820152602401610119565b6001600160a01b038216600081815260016020818152604092839020805460ff19168317905591519081527fd34124bc8e7b6a494fb6cec007bcad287cafddf6019a229af4ab99acb783c3b3910160405180910390a2506001600160a01b031660009081526001602052604090205460ff1690565b6000908152600360205260409020546001600160a01b031690565b600060015b8281116108c557600084846107fc600185610aad565b81811061080b5761080b610ac0565b90506020020160208101906108209190610ad6565b90508160010361085257600082815260036020526040902080546001600160a01b0319166001600160a01b0383161790555b8160020361088257600082815260036020526040902080546001600160a01b0319166001600160a01b0383161790555b816003036108b257600082815260036020526040902080546001600160a01b0319166001600160a01b0383161790555b50806108bd81610af1565b9150506107e6565b50307f8bdf501592807aafa8abc69cb36b82c112b63e876639df7e5d56d916870bfc696108f260016107c6565b6108fc60026107c6565b61090660036107c6565b604080516001600160a01b039485168152928416602084015292168183015290519081900360600190a250600192915050565b80356001600160a01b038116811461095057600080fd5b919050565b6000806040838503121561096857600080fd5b61097183610939565b91506020830135801515811461098657600080fd5b809150509250929050565b600080604083850312156109a457600080fd5b6109ad83610939565b91506109bb60208401610939565b90509250929050565b600080602083850312156109d757600080fd5b823567ffffffffffffffff8111156109ee57600080fd5b8301601f810185136109ff57600080fd5b803567ffffffffffffffff811115610a1657600080fd5b8560208260051b8401011115610a2b57600080fd5b6020919091019590945092505050565b600060208284031215610a4d57600080fd5b5035919050565b60208082526023908201527f4572726f723a20426f726465726c657373436f6d70616e792f4f6e6c792d416460408201526236b4b760e91b606082015260800190565b634e487b7160e01b600052601160045260246000fd5b8181038181111561017557610175610a97565b634e487b7160e01b600052603260045260246000fd5b600060208284031215610ae857600080fd5b61017282610939565b600060018201610b0357610b03610a97565b506001019056fea2646970667358221220ba9d3c9d4b3518bc93830efc4ae71065a066b60cd7c3f59974f101540b01f3ce64736f6c634300081b0033","linkReferences":{}},"methodIdentifiers":{"assignmentRole(address,bool)":"3827be09","getService(uint256)":"ef0e239b","initialService(address[])":"659e10e4","initialize(address,address)":"485cc955","releaseRole(address,bool)":"13b0dfb4"},"storageLayout":{"storage":[{"astId":19,"contract":"contracts/BorderlessCompany.sol:BorderlessCompany","label":"_register","offset":0,"slot":"0","type":"t_address"},{"astId":23,"contract":"contracts/BorderlessCompany.sol:BorderlessCompany","label":"_admins","offset":0,"slot":"1","type":"t_mapping(t_address,t_bool)"},{"astId":27,"contract":"contracts/BorderlessCompany.sol:BorderlessCompany","label":"_members","offset":0,"slot":"2","type":"t_mapping(t_address,t_bool)"},{"astId":31,"contract":"contracts/BorderlessCompany.sol:BorderlessCompany","label":"_services","offset":0,"slot":"3","type":"t_mapping(t_uint256,t_address)"}],"types":{"t_address":{"encoding":"inplace","label":"address","numberOfBytes":"20"},"t_bool":{"encoding":"inplace","label":"bool","numberOfBytes":"1"},"t_mapping(t_address,t_bool)":{"encoding":"mapping","key":"t_address","label":"mapping(address => bool)","numberOfBytes":"32","value":"t_bool"},"t_mapping(t_uint256,t_address)":{"encoding":"mapping","key":"t_uint256","label":"mapping(uint256 => address)","numberOfBytes":"32","value":"t_address"},"t_uint256":{"encoding":"inplace","label":"uint256","numberOfBytes":"32"}}},"id":0}