{
  "_format": "hh-sol-artifact-1",
  "contractName": "SCRBeaconUpgradeable",
  "sourceName": "contracts/scr/BeaconUpgradeableBase/functions/SCRBeaconUpgradeable.sol",
  "abi": [
    {
      "inputs": [
        {
          "internalType": "address",
          "name": "account",
          "type": "address"
        },
        {
          "internalType": "bytes32",
          "name": "neededRole",
          "type": "bytes32"
        }
      ],
      "name": "AccessControlUnauthorizedAccount",
      "type": "error"
    },
    {
      "inputs": [
        {
          "internalType": "address",
          "name": "beacon",
          "type": "address"
        }
      ],
      "name": "BeaconAlreadyOnlineOrOffline",
      "type": "error"
    },
    {
      "inputs": [
        {
          "internalType": "string",
          "name": "str",
          "type": "string"
        }
      ],
      "name": "EmptyString",
      "type": "error"
    },
    {
      "inputs": [
        {
          "internalType": "address",
          "name": "beacon",
          "type": "address"
        },
        {
          "internalType": "address",
          "name": "implementation",
          "type": "address"
        }
      ],
      "name": "InvalidBeacon",
      "type": "error"
    },
    {
      "anonymous": false,
      "inputs": [
        {
          "indexed": true,
          "internalType": "address",
          "name": "beacon",
          "type": "address"
        },
        {
          "indexed": false,
          "internalType": "string",
          "name": "name",
          "type": "string"
        }
      ],
      "name": "BeaconNameUpdated",
      "type": "event"
    },
    {
      "anonymous": false,
      "inputs": [
        {
          "indexed": true,
          "internalType": "address",
          "name": "beacon",
          "type": "address"
        }
      ],
      "name": "BeaconOffline",
      "type": "event"
    },
    {
      "anonymous": false,
      "inputs": [
        {
          "indexed": true,
          "internalType": "address",
          "name": "beacon",
          "type": "address"
        }
      ],
      "name": "BeaconOnline",
      "type": "event"
    },
    {
      "inputs": [
        {
          "internalType": "address",
          "name": "beacon",
          "type": "address"
        },
        {
          "internalType": "bool",
          "name": "isOnline",
          "type": "bool"
        }
      ],
      "name": "changeSCRBeaconOnline",
      "outputs": [],
      "stateMutability": "nonpayable",
      "type": "function"
    },
    {
      "inputs": [
        {
          "internalType": "address",
          "name": "beacon",
          "type": "address"
        }
      ],
      "name": "getSCRBeacon",
      "outputs": [
        {
          "components": [
            {
              "internalType": "string",
              "name": "name",
              "type": "string"
            },
            {
              "internalType": "address",
              "name": "implementation",
              "type": "address"
            },
            {
              "internalType": "bool",
              "name": "isOnline",
              "type": "bool"
            },
            {
              "internalType": "uint256",
              "name": "proxyCount",
              "type": "uint256"
            }
          ],
          "internalType": "struct IBeaconUpgradeableBaseStructs.Beacon",
          "name": "",
          "type": "tuple"
        }
      ],
      "stateMutability": "view",
      "type": "function"
    },
    {
      "inputs": [
        {
          "internalType": "address",
          "name": "proxy",
          "type": "address"
        }
      ],
      "name": "getSCRProxy",
      "outputs": [
        {
          "components": [
            {
              "internalType": "string",
              "name": "name",
              "type": "string"
            },
            {
              "internalType": "address",
              "name": "beacon",
              "type": "address"
            }
          ],
          "internalType": "struct IBeaconUpgradeableBaseStructs.Proxy",
          "name": "",
          "type": "tuple"
        }
      ],
      "stateMutability": "view",
      "type": "function"
    },
    {
      "inputs": [
        {
          "internalType": "address",
          "name": "beacon",
          "type": "address"
        },
        {
          "internalType": "string",
          "name": "name",
          "type": "string"
        }
      ],
      "name": "updateSCRBeaconName",
      "outputs": [
        {
          "components": [
            {
              "internalType": "string",
              "name": "name",
              "type": "string"
            },
            {
              "internalType": "address",
              "name": "implementation",
              "type": "address"
            },
            {
              "internalType": "bool",
              "name": "isOnline",
              "type": "bool"
            },
            {
              "internalType": "uint256",
              "name": "proxyCount",
              "type": "uint256"
            }
          ],
          "internalType": "struct IBeaconUpgradeableBaseStructs.Beacon",
          "name": "beacon_",
          "type": "tuple"
        }
      ],
      "stateMutability": "nonpayable",
      "type": "function"
    }
  ],
  "bytecode": "0x6080806040523460155761094f908161001b8239f35b600080fdfe6080604052600436101561001257600080fd5b60003560e01c8063620ffe26146102b0578063638401491461021f5780637621b79f146100fa5763b20ad2601461004857600080fd5b346100f55760203660031901126100f5576100616105c5565b6000602060405161007181610694565b60608152015260016100816107d5565b019060018060a01b03166000526020526100e16040600020604051906100a682610694565b6100af81610731565b8252600101546001600160a01b03166020808301918252604080518281529351918401529192839260608401906105db565b90516001600160a01b031660408301520390f35b600080fd5b346100f55760403660031901126100f5576101136105c5565b6024358015158082036100f5576101286107d5565b610130610819565b61013a848261089f565b6001600160a01b03841660009081526020829052604090206001015460a01c60ff1615158214610200576001600160a01b038416600090815260209190915260409020600101805460ff60a01b191660a09290921b60ff60a01b16919091179055156101d0576001600160a01b03167fc085499009b58c89a48a9136db5d685566f394e1463fdb6a68fb67bff7d51bbe600080a2005b6001600160a01b03167ffe2ff875f46191e3457a6fecc67d4614b610e6618e35bd6fbd0693ebc0c4800d600080a2005b6306a8b29360e11b60009081526001600160a01b038516600452602490fd5b346100f55760203660031901126100f5576102ac604061023d6105c5565b6102456106d2565b5061024e6107d5565b60009160018060a01b031682526020522060026040519161026e83610662565b61027781610731565b835260ff600182015460018060a01b038116602086015260a01c1615156040840152015460608201526040519182918261061c565b0390f35b346100f55760403660031901126100f5576102c96105c5565b60243567ffffffffffffffff81116100f557366023820112156100f55780600401359167ffffffffffffffff83116100f557602482019160248436920101116100f5576103146106d2565b5061031d6107d5565b604051601f8501601f19169391929161033960208601836106b0565b85825260208201936000928783873783602089830101526103586106d2565b50610361610819565b61036b858361089f565b6020958460405161037c89826106b0565b5284802090825190201461059e576001600160a01b0385168452818652604084208151909167ffffffffffffffff821161058a576103ba83546106f7565b601f8111610547575b508790601f83116001146104b05799806040966104449b9a967f88a60344e42b24d91cf44b213631613b7d33652bffd66e209d48838c9dc5508b9a96866102ac9f978b978d99879e926104a5575b50508160011b916000199060031b1c19161790555b6001600160a01b0387168652875283852084519c600291908e610662565b8d61044e82610731565b90528d8660ff600184015460018060a01b0381168d85015260a01c161515910152015460608d0152835198878a98895288015283870137840101526001600160a01b0316948101030190a26040519182918261061c565b015190503880610411565b8387528887209190601f198416885b8181106105305750966104449b9a967f88a60344e42b24d91cf44b213631613b7d33652bffd66e209d48838c9dc5508b9a9660016102ac9f9b9760409b978d978897838f9b10610517575b505050811b019055610426565b015160001960f88460031b161c1916905538808061050a565b92938b6001819287860151815501950193016104bf565b838752888720601f840160051c8101918a8510610580575b601f0160051c01905b81811061057557506103c3565b878155600101610568565b909150819061055f565b634e487b7160e01b86526041600452602486fd5b856105c16040519283926318a996bb60e21b8452600484015260248301906105db565b0390fd5b600435906001600160a01b03821682036100f557565b919082519283825260005b848110610607575050826000602080949584010152601f8019910116010190565b806020809284010151828286010152016105e6565b6020815260806060610639845183602086015260a08501906105db565b60208501516001600160a01b031660408581019190915285015115158285015293015191015290565b6080810190811067ffffffffffffffff82111761067e57604052565b634e487b7160e01b600052604160045260246000fd5b6040810190811067ffffffffffffffff82111761067e57604052565b90601f8019910116810190811067ffffffffffffffff82111761067e57604052565b604051906106df82610662565b60006060838181528260208201528260408201520152565b90600182811c92168015610727575b602083101461071157565b634e487b7160e01b600052602260045260246000fd5b91607f1691610706565b9060405191826000825492610745846106f7565b80845293600181169081156107b3575060011461076c575b5061076a925003836106b0565b565b90506000929192526020600020906000915b81831061079757505090602061076a928201013861075d565b602091935080600191548385890101520191019091849261077e565b90506020925061076a94915060ff191682840152151560051b8201013861075d565b604051602081017f806dfdd21cc5ccb4cb5e43c3351fdcb03baa9f74fc17c0e74f0826e07b93739b81526020825261080e6040836106b0565b9051902060ff191690565b604051602081017fcf377bf0da9cb35454543c63ad54bf2c5a0466b629ac7517e61f8857cae0fa258152602082526108526040836106b0565b60ff19915190201660008052602052604060002060018060a01b03331660005260205260ff604060002054161561088557565b63e2517d3f60e01b60005233600452600060245260446000fd5b6000916001600160a01b031680151591826108f2575b600082815260209190915260409020600101546001600160a01b031691156108dc57505050565b637b242bb760e11b835260045260245260449150fd5b6000828152602082905260408120600101549094506001600160a01b0316151592506108b556fea2646970667358221220a45ec7caa9ccd171e80b6cc74ef30121b2055388035a15b405252b336a9ad63064736f6c634300081c0033",
  "linkReferences": {},
  "deployedLinkReferences": {}
}