{
  "_format": "hh-sol-artifact-1",
  "contractName": "DictionaryInitialize",
  "sourceName": "contracts/core/Dictionary/functions/initialize/DictionaryInitialize.sol",
  "abi": [
    {
      "anonymous": false,
      "inputs": [
        {
          "indexed": true,
          "internalType": "address",
          "name": "founder",
          "type": "address"
        }
      ],
      "name": "InitializeDictionary",
      "type": "event"
    },
    {
      "inputs": [
        {
          "internalType": "address",
          "name": "dictionary",
          "type": "address"
        }
      ],
      "name": "initialize",
      "outputs": [],
      "stateMutability": "nonpayable",
      "type": "function"
    }
  ],
  "bytecode": "0x6080806040523460155761030a908161001b8239f35b600080fdfe608080604052600436101561001357600080fd5b600090813560e01c63c4d66de81461002a57600080fd5b34610298576020366003190112610298576004356001600160a01b038116919082900361029457602081017ff158cb8b47a14bda3b2c4affcc0d960e9ed23f5a516e4779510b08a6e823c02581526020825261008760408361029c565b9051902060ff1916805460ff81166102595760ff19166001179055604051906101606100b3818461029c565b600a83526020830190601f190136823782511561024557630815f6fd60e01b8152825160011015610245576323c45f6760e01b6040840152825160021015610245576386ec366f60e01b60608401528251600310156102455763651dc03d60e01b60808401528251600410156102455763f6d8178960e01b60a084015282516005101561024557630fb9553360e01b60c08401528251600610156102455763dc9cc64560e01b60e084015282516007101561024557635c60da1b60e01b610100840152825160081015610245576301ffc9a760e01b6101208401528251600910156102455763a5954dd760e01b610140840152813b1561024157918380936040519384916323c45f6760e01b835260448301946040600485015251809552606483019094845b81811061021b5750508380955083809284602483015203925af1801561020e576102005780f35b6102099161029c565b818180f35b50604051903d90823e3d90fd5b86516001600160e01b0319168352602096870196899650889550909201916001016101d9565b8380fd5b634e487b7160e01b84526032600452602484fd5b60405162461bcd60e51b8152602060048201526013602482015272105b1c9958591e481a5b9a5d1a585b1a5e9959606a1b6044820152606490fd5b8280fd5b5080fd5b90601f8019910116810190811067ffffffffffffffff8211176102be57604052565b634e487b7160e01b600052604160045260246000fdfea2646970667358221220aaf216f820524f2120e5dd949cda6b62549ef22cb5486779989ee3fc4412ec5264736f6c634300081c0033",
  "linkReferences": {},
  "deployedLinkReferences": {}
}