{
  "_format": "hh-sol-artifact-1",
  "contractName": "Dictionary",
  "sourceName": "contracts/core/Dictionary/Dictionary.sol",
  "abi": [
    {
      "inputs": [
        {
          "internalType": "address",
          "name": "owner",
          "type": "address"
        }
      ],
      "stateMutability": "nonpayable",
      "type": "constructor"
    },
    {
      "inputs": [
        {
          "internalType": "bytes4",
          "name": "selector",
          "type": "bytes4"
        }
      ],
      "name": "ImplementationNotFound",
      "type": "error"
    },
    {
      "inputs": [
        {
          "internalType": "uint256",
          "name": "selectors",
          "type": "uint256"
        },
        {
          "internalType": "uint256",
          "name": "implementations",
          "type": "uint256"
        }
      ],
      "name": "InvalidBulkLength",
      "type": "error"
    },
    {
      "inputs": [
        {
          "internalType": "address",
          "name": "implementation",
          "type": "address"
        }
      ],
      "name": "InvalidImplementation",
      "type": "error"
    },
    {
      "inputs": [
        {
          "internalType": "address",
          "name": "account",
          "type": "address"
        },
        {
          "internalType": "address",
          "name": "implementation",
          "type": "address"
        }
      ],
      "name": "NotOwnerOrInitialized",
      "type": "error"
    },
    {
      "inputs": [
        {
          "internalType": "address",
          "name": "owner",
          "type": "address"
        }
      ],
      "name": "OwnableInvalidOwner",
      "type": "error"
    },
    {
      "inputs": [
        {
          "internalType": "address",
          "name": "account",
          "type": "address"
        }
      ],
      "name": "OwnableUnauthorizedAccount",
      "type": "error"
    },
    {
      "anonymous": false,
      "inputs": [
        {
          "indexed": false,
          "internalType": "address",
          "name": "newFacade",
          "type": "address"
        }
      ],
      "name": "FacadeUpgraded",
      "type": "event"
    },
    {
      "anonymous": false,
      "inputs": [
        {
          "indexed": false,
          "internalType": "bytes4",
          "name": "selector",
          "type": "bytes4"
        }
      ],
      "name": "ImplementationDeleted",
      "type": "event"
    },
    {
      "anonymous": false,
      "inputs": [
        {
          "indexed": false,
          "internalType": "bytes4",
          "name": "selector",
          "type": "bytes4"
        },
        {
          "indexed": false,
          "internalType": "address",
          "name": "newImplementation",
          "type": "address"
        }
      ],
      "name": "ImplementationUpgraded",
      "type": "event"
    },
    {
      "anonymous": false,
      "inputs": [
        {
          "indexed": false,
          "internalType": "bytes4",
          "name": "newSelector",
          "type": "bytes4"
        }
      ],
      "name": "NewFunctionSelectorAdded",
      "type": "event"
    },
    {
      "anonymous": false,
      "inputs": [
        {
          "indexed": true,
          "internalType": "address",
          "name": "previousOwner",
          "type": "address"
        },
        {
          "indexed": true,
          "internalType": "address",
          "name": "newOwner",
          "type": "address"
        }
      ],
      "name": "OwnershipTransferred",
      "type": "event"
    },
    {
      "inputs": [
        {
          "internalType": "bytes4[]",
          "name": "selectors",
          "type": "bytes4[]"
        },
        {
          "internalType": "address",
          "name": "implementation",
          "type": "address"
        }
      ],
      "name": "bulkSetImplementation",
      "outputs": [],
      "stateMutability": "nonpayable",
      "type": "function"
    },
    {
      "inputs": [
        {
          "internalType": "bytes4[]",
          "name": "selectors",
          "type": "bytes4[]"
        },
        {
          "internalType": "address[]",
          "name": "implementations",
          "type": "address[]"
        }
      ],
      "name": "bulkSetImplementation",
      "outputs": [],
      "stateMutability": "nonpayable",
      "type": "function"
    },
    {
      "inputs": [],
      "name": "getFacade",
      "outputs": [
        {
          "internalType": "address",
          "name": "",
          "type": "address"
        }
      ],
      "stateMutability": "view",
      "type": "function"
    },
    {
      "inputs": [
        {
          "internalType": "bytes4",
          "name": "selector",
          "type": "bytes4"
        }
      ],
      "name": "getImplementation",
      "outputs": [
        {
          "internalType": "address",
          "name": "",
          "type": "address"
        }
      ],
      "stateMutability": "view",
      "type": "function"
    },
    {
      "inputs": [],
      "name": "implementation",
      "outputs": [
        {
          "internalType": "address",
          "name": "",
          "type": "address"
        }
      ],
      "stateMutability": "view",
      "type": "function"
    },
    {
      "inputs": [],
      "name": "owner",
      "outputs": [
        {
          "internalType": "address",
          "name": "",
          "type": "address"
        }
      ],
      "stateMutability": "view",
      "type": "function"
    },
    {
      "inputs": [],
      "name": "renounceOwnership",
      "outputs": [],
      "stateMutability": "nonpayable",
      "type": "function"
    },
    {
      "inputs": [
        {
          "internalType": "bytes4",
          "name": "selector",
          "type": "bytes4"
        },
        {
          "internalType": "address",
          "name": "implementation",
          "type": "address"
        }
      ],
      "name": "setImplementation",
      "outputs": [],
      "stateMutability": "nonpayable",
      "type": "function"
    },
    {
      "inputs": [
        {
          "internalType": "address",
          "name": "account",
          "type": "address"
        },
        {
          "internalType": "address",
          "name": "implementation",
          "type": "address"
        }
      ],
      "name": "setOnceInitialized",
      "outputs": [],
      "stateMutability": "nonpayable",
      "type": "function"
    },
    {
      "inputs": [
        {
          "internalType": "bytes4",
          "name": "interfaceId",
          "type": "bytes4"
        }
      ],
      "name": "supportsInterface",
      "outputs": [
        {
          "internalType": "bool",
          "name": "",
          "type": "bool"
        }
      ],
      "stateMutability": "view",
      "type": "function"
    },
    {
      "inputs": [],
      "name": "supportsInterfaces",
      "outputs": [
        {
          "internalType": "bytes4[]",
          "name": "",
          "type": "bytes4[]"
        }
      ],
      "stateMutability": "view",
      "type": "function"
    },
    {
      "inputs": [
        {
          "internalType": "address",
          "name": "newOwner",
          "type": "address"
        }
      ],
      "name": "transferOwnership",
      "outputs": [],
      "stateMutability": "nonpayable",
      "type": "function"
    },
    {
      "inputs": [
        {
          "internalType": "address",
          "name": "newFacade",
          "type": "address"
        }
      ],
      "name": "upgradeFacade",
      "outputs": [],
      "stateMutability": "nonpayable",
      "type": "function"
    }
  ],
  "bytecode": "0x60803460bb57601f610d6b38819003918201601f19168301916001600160401b0383118484101760c05780849260209460405283398101031260bb57516001600160a01b0381169081900360bb57801560a557600380546001600160a01b03198116831790915560405191906001600160a01b03167f8be0079c531659141344cd1fd0a4f28419497f9722a3daafe3b4186f6b6457e0600080a3610c9490816100d78239f35b631e4fbdf760e01b600052600060045260246000fd5b600080fd5b634e487b7160e01b600052604160045260246000fdfe608080604052600436101561001357600080fd5b60003560e01c90816301ffc9a7146107a4575080630815f6fd146106b25780630fb955331461064057806323c45f67146106455780635c60da1b14610640578063651dc03d146105d4578063715018a61461057757806386ec366f1461047e5780638da5cb5b14610455578063a5954dd7146101d1578063dc9cc6451461019c578063f2fde38b146101125763f6d81789146100ae57600080fd5b3461010d57604036600319011261010d576100c7610813565b6100cf6107fd565b906100d8610aa7565b6001600160a01b039081166000908152600460209081526040808320949093168252929092529020805460ff19166001179055005b600080fd5b3461010d57602036600319011261010d5761012b610813565b610133610aa7565b6001600160a01b0316801561018657600380546001600160a01b0319811683179091556001600160a01b03167f8be0079c531659141344cd1fd0a4f28419497f9722a3daafe3b4186f6b6457e0600080a3005b631e4fbdf760e01b600052600060045260246000fd5b3461010d57602036600319011261010d5760206101bf6101ba6107e6565b610ad0565b6040516001600160a01b039091168152f35b3461010d57600036600319011261010d57604051806020600154918281520190828260016000527fb10e2d527612073b26eecdfd717e6a320cf44b4afac2b0732d9fcbe2b7fa0cf6926000905b8060078301106103b057610277945491818110610391575b818110610372575b818110610353575b818110610334575b818110610315575b8181106102f6575b8181106102d9575b106102c4575b509392930382610852565b6040519182916020830190602084525180915260408301919060005b8181106102a1575050500390f35b82516001600160e01b031916845285945060209384019390920191600101610293565b6001600160e01b03191681526020018561026c565b602083811b6001600160e01b031916855290930192600101610266565b604083901b6001600160e01b031916845260209093019260010161025e565b606083901b6001600160e01b0319168452602090930192600101610256565b608083901b6001600160e01b031916845260209093019260010161024e565b60a083901b6001600160e01b0319168452602090930192600101610246565b60c083901b6001600160e01b031916845260209093019260010161023e565b60e083901b6001600160e01b0319168452602090930192600101610236565b916008919350610100600191865463ffffffff60e01b8160e01b16825263ffffffff60e01b8160c01b16602083015263ffffffff60e01b8160a01b16604083015263ffffffff60e01b8160801b16606083015263ffffffff60e01b8160601b16608083015263ffffffff60e01b8160401b1660a083015263ffffffff60e01b8160201b1660c083015263ffffffff60e01b1660e082015201940192018592939161021e565b3461010d57600036600319011261010d576003546040516001600160a01b039091168152602090f35b3461010d57604036600319011261010d5760043567ffffffffffffffff811161010d576104af9036906004016108a2565b6024359067ffffffffffffffff821161010d573660238301121561010d5781600401356104db8161088a565b926104e96040519485610852565b8184526024602085019260051b8201019036821161010d57602401915b8183106105575750505060005b81518110156105555760019061054f6001600160e01b03196105358386610911565b5116838060a01b036105478488610911565b51169061093b565b01610513565b005b82356001600160a01b038116810361010d57815260209283019201610506565b3461010d57600036600319011261010d57610590610aa7565b600380546001600160a01b031981169091556000906001600160a01b03167f8be0079c531659141344cd1fd0a4f28419497f9722a3daafe3b4186f6b6457e08280a3005b3461010d57602036600319011261010d577f159f10d3da077d18f228d52be447d552e7d1892d10f7af8f615658160e3747296020610610610813565b610618610aa7565b600280546001600160a01b0319166001600160a01b03929092169182179055604051908152a1005b610829565b3461010d57604036600319011261010d5760043567ffffffffffffffff811161010d576106769036906004016108a2565b61067e6107fd565b9060005b8151811015610555576001906106ac846001600160e01b03196106a58487610911565b511661093b565b01610682565b3461010d57604036600319011261010d576106cb6107e6565b6106d36107fd565b908160018060a01b036003541633148015610776575b15610751576106f79161093b565b336000526004602052604060002060018060a01b03821660005260205260ff604060002054161561072457005b3360009081526004602090815260408083206001600160a01b03909416835292905220805460ff19169055005b63a2b2cbaf60e01b6000908152336004526001600160a01b0391909116602452604490fd5b5050336000526004602052604060002060018060a01b0383166000526020528160ff604060002054166106e9565b3461010d57602036600319011261010d576020906001600160e01b03196107c96107e6565b16600090815280835260409020546001600160a01b031615158152f35b600435906001600160e01b03198216820361010d57565b602435906001600160a01b038216820361010d57565b600435906001600160a01b038216820361010d57565b3461010d57600036600319011261010d576002546040516001600160a01b039091168152602090f35b90601f8019910116810190811067ffffffffffffffff82111761087457604052565b634e487b7160e01b600052604160045260246000fd5b67ffffffffffffffff81116108745760051b60200190565b9080601f8301121561010d578135906108ba8261088a565b926108c86040519485610852565b82845260208085019360051b82010191821161010d57602001915b8183106108f05750505090565b82356001600160e01b03198116810361010d578152602092830192016108e3565b80518210156109255760209160051b010190565b634e487b7160e01b600052603260045260246000fd5b6001600160a01b0382169182156109d05761095582610b8d565b3b156109bb577fda3c8142b3c1d27633026f55bfcb4eeb0b5b8db0daa0a3e10c2213a441722ad19160409163ffffffff60e01b169081600052600060205282600020816bffffffffffffffffffffffff60a01b82541617905582519182526020820152a1565b50630c76093760e01b60005260045260246000fd5b506001600160e01b031916905060005b600154811015610a7d57816109f482610b4c565b63ffffffff60e01b91549060031b1c60e01b1614610a14576001016109e0565b7fb0f2f3a9229724df0b95683e95488b72aed817bc1a5bd6fe1d2e7504e92871cb91610a41602092610b4c565b63ffffffff82549160031b1b191690555b806000526000825260406000206bffffffffffffffffffffffff60a01b8154169055604051908152a1565b5060207fb0f2f3a9229724df0b95683e95488b72aed817bc1a5bd6fe1d2e7504e92871cb91610a52565b6003546001600160a01b03163303610abb57565b63118cdaa760e01b6000523360045260246000fd5b6001600160e01b0319166000818152602081905260409020549091906001600160a01b031680610b48575060008080526020527fad3228b676f7d3cd4284a5443f17f1962b36e491b30a40b2405849e597ba5fb5546001600160a01b031680610b48578263404ceef760e11b60005260045260246000fd5b9150565b90600154821015610925576001600052600382901c7fb10e2d527612073b26eecdfd717e6a320cf44b4afac2b0732d9fcbe2b7fa0cf6019160021b601c1690565b610b9681610c10565b610c0d5760015468010000000000000000811015610874577fbe533f538959a17d76f1b09e966e741ee3b1183099682f96216c93d21feaecba91610be282600160209401600155610b4c565b81549060031b9063ffffffff8460e01c831b921b19161790556040519063ffffffff60e01b168152a1565b50565b6001549060005b828110610c2657505050600090565b610c2f81610b4c565b90546001600160e01b031960039290921b1c60e01b811690831614610c5657600101610c17565b50505060019056fea264697066735822122066df9acb1bfa9ba82393ef26488f2dcb89843ce1f250fbe1136b27fce9255ea864736f6c634300081c0033",
  "linkReferences": {},
  "deployedLinkReferences": {}
}