{
  "_format": "hh-sol-artifact-1",
  "contractName": "ServiceFactoryBeaconUpgradeable",
  "sourceName": "contracts/scr/BeaconUpgradeableBase/functions/ServiceFactoryBeaconUpgradeable.sol",
  "abi": [
    {
      "inputs": [
        {
          "internalType": "address",
          "name": "account",
          "type": "address"
        },
        {
          "internalType": "bytes32",
          "name": "neededRole",
          "type": "bytes32"
        }
      ],
      "name": "AccessControlUnauthorizedAccount",
      "type": "error"
    },
    {
      "inputs": [
        {
          "internalType": "address",
          "name": "beacon",
          "type": "address"
        }
      ],
      "name": "BeaconAlreadyOnlineOrOffline",
      "type": "error"
    },
    {
      "inputs": [
        {
          "internalType": "string",
          "name": "str",
          "type": "string"
        }
      ],
      "name": "EmptyString",
      "type": "error"
    },
    {
      "inputs": [
        {
          "internalType": "address",
          "name": "beacon",
          "type": "address"
        },
        {
          "internalType": "address",
          "name": "implementation",
          "type": "address"
        }
      ],
      "name": "InvalidBeacon",
      "type": "error"
    },
    {
      "anonymous": false,
      "inputs": [
        {
          "indexed": true,
          "internalType": "address",
          "name": "beacon",
          "type": "address"
        },
        {
          "indexed": false,
          "internalType": "string",
          "name": "name",
          "type": "string"
        }
      ],
      "name": "BeaconNameUpdated",
      "type": "event"
    },
    {
      "anonymous": false,
      "inputs": [
        {
          "indexed": true,
          "internalType": "address",
          "name": "beacon",
          "type": "address"
        }
      ],
      "name": "BeaconOffline",
      "type": "event"
    },
    {
      "anonymous": false,
      "inputs": [
        {
          "indexed": true,
          "internalType": "address",
          "name": "beacon",
          "type": "address"
        }
      ],
      "name": "BeaconOnline",
      "type": "event"
    },
    {
      "inputs": [
        {
          "internalType": "address",
          "name": "beacon",
          "type": "address"
        },
        {
          "internalType": "bool",
          "name": "isOnline",
          "type": "bool"
        }
      ],
      "name": "changeServiceFactoryBeaconOnline",
      "outputs": [],
      "stateMutability": "nonpayable",
      "type": "function"
    },
    {
      "inputs": [
        {
          "internalType": "address",
          "name": "beacon",
          "type": "address"
        }
      ],
      "name": "getServiceFactoryBeacon",
      "outputs": [
        {
          "components": [
            {
              "internalType": "string",
              "name": "name",
              "type": "string"
            },
            {
              "internalType": "address",
              "name": "implementation",
              "type": "address"
            },
            {
              "internalType": "bool",
              "name": "isOnline",
              "type": "bool"
            },
            {
              "internalType": "uint256",
              "name": "proxyCount",
              "type": "uint256"
            }
          ],
          "internalType": "struct IBeaconUpgradeableBaseStructs.Beacon",
          "name": "",
          "type": "tuple"
        }
      ],
      "stateMutability": "view",
      "type": "function"
    },
    {
      "inputs": [
        {
          "internalType": "address",
          "name": "proxy",
          "type": "address"
        }
      ],
      "name": "getServiceFactoryProxy",
      "outputs": [
        {
          "components": [
            {
              "internalType": "string",
              "name": "name",
              "type": "string"
            },
            {
              "internalType": "address",
              "name": "beacon",
              "type": "address"
            }
          ],
          "internalType": "struct IBeaconUpgradeableBaseStructs.Proxy",
          "name": "",
          "type": "tuple"
        }
      ],
      "stateMutability": "view",
      "type": "function"
    },
    {
      "inputs": [
        {
          "internalType": "address",
          "name": "beacon",
          "type": "address"
        },
        {
          "internalType": "string",
          "name": "name",
          "type": "string"
        }
      ],
      "name": "updateServiceFactoryBeaconName",
      "outputs": [
        {
          "components": [
            {
              "internalType": "string",
              "name": "name",
              "type": "string"
            },
            {
              "internalType": "address",
              "name": "implementation",
              "type": "address"
            },
            {
              "internalType": "bool",
              "name": "isOnline",
              "type": "bool"
            },
            {
              "internalType": "uint256",
              "name": "proxyCount",
              "type": "uint256"
            }
          ],
          "internalType": "struct IBeaconUpgradeableBaseStructs.Beacon",
          "name": "beacon_",
          "type": "tuple"
        }
      ],
      "stateMutability": "nonpayable",
      "type": "function"
    }
  ],
  "bytecode": "0x60808060405234601557610950908161001b8239f35b600080fdfe608080604052600436101561001357600080fd5b60003560e01c90816323333f1b1461051b575080633879257a1461020657806378af8785146101755763a0d208fc1461004b57600080fd5b34610170576040366003190112610170576100646105c6565b602435801515808203610170576100796107d6565b61008161081a565b61008b84826108a0565b6001600160a01b03841660009081526020829052604090206001015460a01c60ff1615158214610151576001600160a01b038416600090815260209190915260409020600101805460ff60a01b191660a09290921b60ff60a01b1691909117905515610121576001600160a01b03167fc085499009b58c89a48a9136db5d685566f394e1463fdb6a68fb67bff7d51bbe600080a2005b6001600160a01b03167ffe2ff875f46191e3457a6fecc67d4614b610e6618e35bd6fbd0693ebc0c4800d600080a2005b6306a8b29360e11b60009081526001600160a01b038516600452602490fd5b600080fd5b346101705760203660031901126101705761020260406101936105c6565b61019b6107b1565b506101a46107d6565b60009160018060a01b03168252602052206002604051916101c483610695565b6101cd8161070d565b835260ff600182015460018060a01b038116602086015260a01c1615156040840152015460608201526040519182918261061d565b0390f35b346101705760403660031901126101705761021f6105c6565b60243567ffffffffffffffff811161017057366023820112156101705780600401359167ffffffffffffffff831161017057602482019160248436920101116101705761026a6107b1565b506102736107d6565b604051601f8501601f19169391929161028f60208601836106b1565b85825260208201936000928783873783602089830101526102ae6107b1565b506102b761081a565b6102c185836108a0565b602095846040516102d289826106b1565b528480209082519020146104f4576001600160a01b0385168452818652604084208151909167ffffffffffffffff82116104e05761031083546106d3565b601f811161049d575b508790601f831160011461040657998060409661039a9b9a967f88a60344e42b24d91cf44b213631613b7d33652bffd66e209d48838c9dc5508b9a96866102029f978b978d99879e926103fb575b50508160011b916000199060031b1c19161790555b6001600160a01b0387168652875283852084519c600291908e610695565b8d6103a48261070d565b90528d8660ff600184015460018060a01b0381168d85015260a01c161515910152015460608d0152835198878a98895288015283870137840101526001600160a01b0316948101030190a26040519182918261061d565b015190503880610367565b8387528887209190601f198416885b81811061048657509661039a9b9a967f88a60344e42b24d91cf44b213631613b7d33652bffd66e209d48838c9dc5508b9a9660016102029f9b9760409b978d978897838f9b1061046d575b505050811b01905561037c565b015160001960f88460031b161c19169055388080610460565b92938b600181928786015181550195019301610415565b838752888720601f840160051c8101918a85106104d6575b601f0160051c01905b8181106104cb5750610319565b8781556001016104be565b90915081906104b5565b634e487b7160e01b86526041600452602486fd5b856105176040519283926318a996bb60e21b8452600484015260248301906105dc565b0390fd5b3461017057602036600319011261017057600060206105386105c6565b9261054281610663565b60608152015260016105526107d6565b019060018060a01b03166000526020526105b260406000206040519061057782610663565b6105808161070d565b8252600101546001600160a01b03166020808301918252604080518281529351918401529192839260608401906105dc565b90516001600160a01b031660408301520390f35b600435906001600160a01b038216820361017057565b919082519283825260005b848110610608575050826000602080949584010152601f8019910116010190565b806020809284010151828286010152016105e7565b602081526080606061063a845183602086015260a08501906105dc565b60208501516001600160a01b031660408581019190915285015115158285015293015191015290565b6040810190811067ffffffffffffffff82111761067f57604052565b634e487b7160e01b600052604160045260246000fd5b6080810190811067ffffffffffffffff82111761067f57604052565b90601f8019910116810190811067ffffffffffffffff82111761067f57604052565b90600182811c92168015610703575b60208310146106ed57565b634e487b7160e01b600052602260045260246000fd5b91607f16916106e2565b9060405191826000825492610721846106d3565b808452936001811690811561078f5750600114610748575b50610746925003836106b1565b565b90506000929192526020600020906000915b8183106107735750509060206107469282010138610739565b602091935080600191548385890101520191019091849261075a565b90506020925061074694915060ff191682840152151560051b82010138610739565b604051906107be82610695565b60006060838181528260208201528260408201520152565b604051602081017f2810609b04caf5f85bb4aaecfb9d3c44224335fe412d57bd4016590897095aa481526020825261080f6040836106b1565b9051902060ff191690565b604051602081017fcf377bf0da9cb35454543c63ad54bf2c5a0466b629ac7517e61f8857cae0fa258152602082526108536040836106b1565b60ff19915190201660008052602052604060002060018060a01b03331660005260205260ff604060002054161561088657565b63e2517d3f60e01b60005233600452600060245260446000fd5b6000916001600160a01b031680151591826108f3575b600082815260209190915260409020600101546001600160a01b031691156108dd57505050565b637b242bb760e11b835260045260245260449150fd5b6000828152602082905260408120600101549094506001600160a01b0316151592506108b656fea26469706673582212201af8c7c864f270667d6461383b6940c4de0f1263244b682b4df7fd34d24a514664736f6c634300081c0033",
  "linkReferences": {},
  "deployedLinkReferences": {}
}