{
  "_format": "hh-sol-artifact-1",
  "contractName": "KIBOTCHA_LETS_JP_LLC_NON_EXE",
  "sourceName": "contracts/sc/Services/LETS/functions/extensions/LETS_JP_LLC/extensions/Kibotcha/KIBOTCHA_LETS_JP_LLC_NON_EXE.sol",
  "abi": [
    {
      "inputs": [
        {
          "internalType": "address",
          "name": "account",
          "type": "address"
        },
        {
          "internalType": "bytes32",
          "name": "neededRole",
          "type": "bytes32"
        }
      ],
      "name": "AccessControlUnauthorizedAccount",
      "type": "error"
    },
    {
      "inputs": [],
      "name": "AlreadyInitialized",
      "type": "error"
    },
    {
      "inputs": [
        {
          "internalType": "address",
          "name": "sender",
          "type": "address"
        },
        {
          "internalType": "uint256",
          "name": "tokenId",
          "type": "uint256"
        },
        {
          "internalType": "address",
          "name": "owner",
          "type": "address"
        }
      ],
      "name": "ERC721IncorrectOwner",
      "type": "error"
    },
    {
      "inputs": [
        {
          "internalType": "address",
          "name": "operator",
          "type": "address"
        },
        {
          "internalType": "uint256",
          "name": "tokenId",
          "type": "uint256"
        }
      ],
      "name": "ERC721InsufficientApproval",
      "type": "error"
    },
    {
      "inputs": [
        {
          "internalType": "address",
          "name": "approver",
          "type": "address"
        }
      ],
      "name": "ERC721InvalidApprover",
      "type": "error"
    },
    {
      "inputs": [
        {
          "internalType": "address",
          "name": "operator",
          "type": "address"
        }
      ],
      "name": "ERC721InvalidOperator",
      "type": "error"
    },
    {
      "inputs": [
        {
          "internalType": "address",
          "name": "owner",
          "type": "address"
        }
      ],
      "name": "ERC721InvalidOwner",
      "type": "error"
    },
    {
      "inputs": [
        {
          "internalType": "address",
          "name": "receiver",
          "type": "address"
        }
      ],
      "name": "ERC721InvalidReceiver",
      "type": "error"
    },
    {
      "inputs": [
        {
          "internalType": "address",
          "name": "sender",
          "type": "address"
        }
      ],
      "name": "ERC721InvalidSender",
      "type": "error"
    },
    {
      "inputs": [
        {
          "internalType": "uint256",
          "name": "tokenId",
          "type": "uint256"
        }
      ],
      "name": "ERC721NonexistentToken",
      "type": "error"
    },
    {
      "inputs": [
        {
          "internalType": "address",
          "name": "owner",
          "type": "address"
        },
        {
          "internalType": "uint256",
          "name": "index",
          "type": "uint256"
        }
      ],
      "name": "ERC721OutOfBoundsIndex",
      "type": "error"
    },
    {
      "inputs": [
        {
          "internalType": "bytes32",
          "name": "param",
          "type": "bytes32"
        }
      ],
      "name": "InvalidParam",
      "type": "error"
    },
    {
      "inputs": [
        {
          "internalType": "uint256",
          "name": "tokenId",
          "type": "uint256"
        }
      ],
      "name": "InvalidTokenId",
      "type": "error"
    },
    {
      "inputs": [],
      "name": "MaxSupplyReached",
      "type": "error"
    },
    {
      "inputs": [
        {
          "internalType": "address",
          "name": "sender",
          "type": "address"
        }
      ],
      "name": "NotFounder",
      "type": "error"
    },
    {
      "inputs": [
        {
          "internalType": "address",
          "name": "caller",
          "type": "address"
        }
      ],
      "name": "NotGovernance",
      "type": "error"
    },
    {
      "inputs": [
        {
          "internalType": "address",
          "name": "caller",
          "type": "address"
        }
      ],
      "name": "NotLetsSale",
      "type": "error"
    },
    {
      "inputs": [],
      "name": "NotTransferable",
      "type": "error"
    },
    {
      "inputs": [
        {
          "internalType": "address",
          "name": "owner",
          "type": "address"
        }
      ],
      "name": "OwnableInvalidOwner",
      "type": "error"
    },
    {
      "inputs": [
        {
          "internalType": "address",
          "name": "account",
          "type": "address"
        }
      ],
      "name": "OwnableUnauthorizedAccount",
      "type": "error"
    },
    {
      "anonymous": false,
      "inputs": [
        {
          "indexed": true,
          "internalType": "address",
          "name": "owner",
          "type": "address"
        },
        {
          "indexed": true,
          "internalType": "address",
          "name": "approved",
          "type": "address"
        },
        {
          "indexed": true,
          "internalType": "uint256",
          "name": "tokenId",
          "type": "uint256"
        }
      ],
      "name": "Approval",
      "type": "event"
    },
    {
      "anonymous": false,
      "inputs": [
        {
          "indexed": true,
          "internalType": "address",
          "name": "owner",
          "type": "address"
        },
        {
          "indexed": true,
          "internalType": "address",
          "name": "operator",
          "type": "address"
        },
        {
          "indexed": false,
          "internalType": "bool",
          "name": "approved",
          "type": "bool"
        }
      ],
      "name": "ApprovalForAll",
      "type": "event"
    },
    {
      "anonymous": false,
      "inputs": [
        {
          "indexed": false,
          "internalType": "uint256",
          "name": "_fromTokenId",
          "type": "uint256"
        },
        {
          "indexed": false,
          "internalType": "uint256",
          "name": "_toTokenId",
          "type": "uint256"
        }
      ],
      "name": "BatchMetadataUpdate",
      "type": "event"
    },
    {
      "anonymous": false,
      "inputs": [
        {
          "indexed": true,
          "internalType": "address",
          "name": "initializer",
          "type": "address"
        }
      ],
      "name": "LETSBaseInitialized",
      "type": "event"
    },
    {
      "anonymous": false,
      "inputs": [
        {
          "indexed": true,
          "internalType": "address",
          "name": "initializer",
          "type": "address"
        }
      ],
      "name": "LETS_JP_LLC_NON_EXEInitialized",
      "type": "event"
    },
    {
      "anonymous": false,
      "inputs": [
        {
          "indexed": false,
          "internalType": "uint256",
          "name": "_tokenId",
          "type": "uint256"
        }
      ],
      "name": "MetadataUpdate",
      "type": "event"
    },
    {
      "anonymous": false,
      "inputs": [
        {
          "indexed": true,
          "internalType": "address",
          "name": "previousOwner",
          "type": "address"
        },
        {
          "indexed": true,
          "internalType": "address",
          "name": "newOwner",
          "type": "address"
        }
      ],
      "name": "OwnershipTransferred",
      "type": "event"
    },
    {
      "anonymous": false,
      "inputs": [
        {
          "indexed": false,
          "internalType": "uint256",
          "name": "tokenId",
          "type": "uint256"
        }
      ],
      "name": "TokenFrozen",
      "type": "event"
    },
    {
      "anonymous": false,
      "inputs": [
        {
          "indexed": false,
          "internalType": "uint256",
          "name": "tokenId",
          "type": "uint256"
        }
      ],
      "name": "TokenUnfrozen",
      "type": "event"
    },
    {
      "anonymous": false,
      "inputs": [
        {
          "indexed": true,
          "internalType": "address",
          "name": "from",
          "type": "address"
        },
        {
          "indexed": true,
          "internalType": "address",
          "name": "to",
          "type": "address"
        },
        {
          "indexed": true,
          "internalType": "uint256",
          "name": "tokenId",
          "type": "uint256"
        }
      ],
      "name": "Transfer",
      "type": "event"
    },
    {
      "inputs": [
        {
          "internalType": "address",
          "name": "to",
          "type": "address"
        },
        {
          "internalType": "uint256",
          "name": "tokenId",
          "type": "uint256"
        }
      ],
      "name": "approve",
      "outputs": [],
      "stateMutability": "nonpayable",
      "type": "function"
    },
    {
      "inputs": [
        {
          "internalType": "address",
          "name": "owner",
          "type": "address"
        }
      ],
      "name": "balanceOf",
      "outputs": [
        {
          "internalType": "uint256",
          "name": "",
          "type": "uint256"
        }
      ],
      "stateMutability": "view",
      "type": "function"
    },
    {
      "inputs": [
        {
          "internalType": "uint256",
          "name": "tokenId",
          "type": "uint256"
        }
      ],
      "name": "freezeToken",
      "outputs": [],
      "stateMutability": "nonpayable",
      "type": "function"
    },
    {
      "inputs": [
        {
          "internalType": "uint256",
          "name": "tokenId",
          "type": "uint256"
        }
      ],
      "name": "getApproved",
      "outputs": [
        {
          "internalType": "address",
          "name": "",
          "type": "address"
        }
      ],
      "stateMutability": "view",
      "type": "function"
    },
    {
      "inputs": [
        {
          "internalType": "address",
          "name": "owner",
          "type": "address"
        }
      ],
      "name": "getTokensOfOwner",
      "outputs": [
        {
          "internalType": "uint256[]",
          "name": "",
          "type": "uint256[]"
        }
      ],
      "stateMutability": "view",
      "type": "function"
    },
    {
      "inputs": [
        {
          "internalType": "uint256",
          "name": "tokenId",
          "type": "uint256"
        }
      ],
      "name": "getUpdatedToken",
      "outputs": [
        {
          "internalType": "uint256",
          "name": "",
          "type": "uint256"
        }
      ],
      "stateMutability": "view",
      "type": "function"
    },
    {
      "inputs": [
        {
          "internalType": "address",
          "name": "dictionary",
          "type": "address"
        },
        {
          "internalType": "address",
          "name": "implementation",
          "type": "address"
        },
        {
          "internalType": "address",
          "name": "sc",
          "type": "address"
        },
        {
          "internalType": "bytes",
          "name": "params",
          "type": "bytes"
        }
      ],
      "name": "initialize",
      "outputs": [
        {
          "internalType": "bytes4[]",
          "name": "selectors",
          "type": "bytes4[]"
        }
      ],
      "stateMutability": "nonpayable",
      "type": "function"
    },
    {
      "inputs": [
        {
          "internalType": "address",
          "name": "owner_",
          "type": "address"
        }
      ],
      "name": "initialize",
      "outputs": [],
      "stateMutability": "nonpayable",
      "type": "function"
    },
    {
      "inputs": [
        {
          "internalType": "address",
          "name": "owner",
          "type": "address"
        },
        {
          "internalType": "address",
          "name": "operator",
          "type": "address"
        }
      ],
      "name": "isApprovedForAll",
      "outputs": [
        {
          "internalType": "bool",
          "name": "",
          "type": "bool"
        }
      ],
      "stateMutability": "view",
      "type": "function"
    },
    {
      "inputs": [
        {
          "internalType": "address",
          "name": "to",
          "type": "address"
        }
      ],
      "name": "mint",
      "outputs": [],
      "stateMutability": "nonpayable",
      "type": "function"
    },
    {
      "inputs": [],
      "name": "name",
      "outputs": [
        {
          "internalType": "string",
          "name": "",
          "type": "string"
        }
      ],
      "stateMutability": "view",
      "type": "function"
    },
    {
      "inputs": [],
      "name": "owner",
      "outputs": [
        {
          "internalType": "address",
          "name": "",
          "type": "address"
        }
      ],
      "stateMutability": "view",
      "type": "function"
    },
    {
      "inputs": [
        {
          "internalType": "uint256",
          "name": "tokenId",
          "type": "uint256"
        }
      ],
      "name": "ownerOf",
      "outputs": [
        {
          "internalType": "address",
          "name": "",
          "type": "address"
        }
      ],
      "stateMutability": "view",
      "type": "function"
    },
    {
      "inputs": [],
      "name": "renounceOwnership",
      "outputs": [],
      "stateMutability": "nonpayable",
      "type": "function"
    },
    {
      "inputs": [
        {
          "internalType": "address",
          "name": "to",
          "type": "address"
        },
        {
          "internalType": "uint256",
          "name": "tokenId",
          "type": "uint256"
        }
      ],
      "name": "reserveMint",
      "outputs": [],
      "stateMutability": "nonpayable",
      "type": "function"
    },
    {
      "inputs": [
        {
          "internalType": "address",
          "name": "from",
          "type": "address"
        },
        {
          "internalType": "address",
          "name": "to",
          "type": "address"
        },
        {
          "internalType": "uint256",
          "name": "tokenId",
          "type": "uint256"
        }
      ],
      "name": "safeTransferFrom",
      "outputs": [],
      "stateMutability": "nonpayable",
      "type": "function"
    },
    {
      "inputs": [
        {
          "internalType": "address",
          "name": "from",
          "type": "address"
        },
        {
          "internalType": "address",
          "name": "to",
          "type": "address"
        },
        {
          "internalType": "uint256",
          "name": "tokenId",
          "type": "uint256"
        },
        {
          "internalType": "bytes",
          "name": "data",
          "type": "bytes"
        }
      ],
      "name": "safeTransferFrom",
      "outputs": [],
      "stateMutability": "nonpayable",
      "type": "function"
    },
    {
      "inputs": [
        {
          "internalType": "address",
          "name": "operator",
          "type": "address"
        },
        {
          "internalType": "bool",
          "name": "approved",
          "type": "bool"
        }
      ],
      "name": "setApprovalForAll",
      "outputs": [],
      "stateMutability": "nonpayable",
      "type": "function"
    },
    {
      "inputs": [
        {
          "internalType": "bytes4",
          "name": "interfaceId",
          "type": "bytes4"
        }
      ],
      "name": "supportsInterface",
      "outputs": [
        {
          "internalType": "bool",
          "name": "",
          "type": "bool"
        }
      ],
      "stateMutability": "pure",
      "type": "function"
    },
    {
      "inputs": [],
      "name": "symbol",
      "outputs": [
        {
          "internalType": "string",
          "name": "",
          "type": "string"
        }
      ],
      "stateMutability": "view",
      "type": "function"
    },
    {
      "inputs": [
        {
          "internalType": "uint256",
          "name": "index",
          "type": "uint256"
        }
      ],
      "name": "tokenByIndex",
      "outputs": [
        {
          "internalType": "uint256",
          "name": "",
          "type": "uint256"
        }
      ],
      "stateMutability": "view",
      "type": "function"
    },
    {
      "inputs": [
        {
          "internalType": "address",
          "name": "owner",
          "type": "address"
        },
        {
          "internalType": "uint256",
          "name": "index",
          "type": "uint256"
        }
      ],
      "name": "tokenOfOwnerByIndex",
      "outputs": [
        {
          "internalType": "uint256",
          "name": "",
          "type": "uint256"
        }
      ],
      "stateMutability": "view",
      "type": "function"
    },
    {
      "inputs": [
        {
          "internalType": "uint256",
          "name": "tokenId",
          "type": "uint256"
        }
      ],
      "name": "tokenURI",
      "outputs": [
        {
          "internalType": "string",
          "name": "",
          "type": "string"
        }
      ],
      "stateMutability": "view",
      "type": "function"
    },
    {
      "inputs": [],
      "name": "totalSupply",
      "outputs": [
        {
          "internalType": "uint256",
          "name": "",
          "type": "uint256"
        }
      ],
      "stateMutability": "view",
      "type": "function"
    },
    {
      "inputs": [
        {
          "internalType": "address",
          "name": "from",
          "type": "address"
        },
        {
          "internalType": "address",
          "name": "to",
          "type": "address"
        },
        {
          "internalType": "uint256",
          "name": "tokenId",
          "type": "uint256"
        }
      ],
      "name": "transferFrom",
      "outputs": [],
      "stateMutability": "nonpayable",
      "type": "function"
    },
    {
      "inputs": [
        {
          "internalType": "address",
          "name": "newOwner",
          "type": "address"
        }
      ],
      "name": "transferOwnership",
      "outputs": [],
      "stateMutability": "nonpayable",
      "type": "function"
    },
    {
      "inputs": [
        {
          "internalType": "uint256",
          "name": "tokenId",
          "type": "uint256"
        }
      ],
      "name": "unfreezeToken",
      "outputs": [],
      "stateMutability": "nonpayable",
      "type": "function"
    }
  ],
  "bytecode": "0x608080604052346015576125ec908161001b8239f35b600080fdfe60a080604052600436101561001357600080fd5b60006080526080513560e01c90816301ffc9a7146116d85750806306fdde03146116b3578063081812fc1461168b578063095ea7b3146115a457806318160ddd1461157c57806323b872dd14611565578063246581f714610ab55780632f745c5914610a8e57806342842e0e14610a635780634d787ea9146109ff5780634f6ccce7146109975780635de6dc55146108b25780636352211e146108825780636a627842146106d457806370a08231146106a9578063715018a6146106395780638da5cb5b1461060b57806395d89b41146105e357806397294fea146105ac578063a22cb465146104f4578063b0ea1802146103e4578063b6854f961461037d578063b88d4fde14610329578063c4d66de8146102bd578063c87b56dd14610227578063e985e9c5146101f15763f2fde38b1461014e57600080fd5b346101eb5760203660031901126101eb576101676117a3565b61016f61207c565b6001600160a01b031680156101d5576001600160a01b0361018e611fb6565b5416610198611fb6565b80546001600160a01b031916831790556080517f8be0079c531659141344cd1fd0a4f28419497f9722a3daafe3b4186f6b6457e09080a360805180f35b631e4fbdf760e01b608051526004526024608051fd5b60805180fd5b346101eb5760403660031901126101eb57602061021d61020f6117a3565b6102176117be565b9061240b565b6040519015158152f35b346101eb5760203660031901126101eb5760ff610242611fb6565b5460a01c16156102aa576102a661027e610292600361025f611fb6565b01610284600461026d611fb6565b016040519485936020850190611eaf565b90611eaf565b03601f19810183528261180e565b60405191829160208352602083019061177e565b0390f35b6102a66102b860043561250a565b610292565b346101eb5760203660031901126101eb576102d66117a3565b6001600160a01b03811615610310576102ed611fb6565b80546001600160a01b0319166001600160a01b0390921691909117905560805180f35b631e4fbdf760e01b608051526080516004526024608051fd5b346101eb5760803660031901126101eb576103426117a3565b61034a6117be565b606435916001600160401b0383116101eb5761036d610377933690600401611860565b9160443591611d61565b60805180f35b346101eb5760203660031901126101eb577f74308730007d8ee5b3c18fad784efa3555f62695e36960f803f475eeb663d10e602060043560056103be611fb6565b0181608051528252604060805120600160ff19825416179055604051908152a160805180f35b346101eb5760403660031901126101eb576103fd6117a3565b60243590604460206001600160a01b03610415611fb6565b541660405192838092632474521560e21b82527f7ed687a8f2955bd2ba7ca08227e1e364d132be747f42fb733165f923021b022560048301523360248301525afa9081156104e757608051916104ad575b5015610496576102c4821161047f5790610377916120ab565b5063ed15e6cf60e01b608051526004526024608051fd5b639c2f8ac360e01b60805152336004526024608051fd5b90506020813d6020116104df575b816104c86020938361180e565b810103126101eb576104d990611d54565b83610466565b3d91506104bb565b6040513d608051823e3d90fd5b346101eb5760403660031901126101eb5761050d6117a3565b602435908115158092036101eb576001600160a01b0316908115610595576005610535611f1d565b0160018060a01b033316600052602052604060002082600052602052604060002060ff1981541660ff83161790556040519081527f17307eab39ab6107e8899845ad3d59bd9653f200f220920489ca2b5937696c3160203392a360805180f35b50630b61174360e31b608051526004526024608051fd5b346101eb5760203660031901126101eb5760066105c7611fb6565b0160043560805152602052602060406080512054604051908152f35b346101eb576080513660031901126101eb576102a66102926001610605611f1d565b0161191f565b346101eb576080513660031901126101eb5760206001600160a01b0361062f611fb6565b5416604051908152f35b346101eb576080513660031901126101eb5761065361207c565b6001600160a01b03610663611fb6565b541661066d611fb6565b80546001600160a01b0319169055608051907f8be0079c531659141344cd1fd0a4f28419497f9722a3daafe3b4186f6b6457e08280a360805180f35b346101eb5760203660031901126101eb5760206106cc6106c76117a3565b612034565b604051908152f35b346101eb5760203660031901126101eb576106ed6117a3565b600460206001600160a01b03610701611fb6565b541660405192838092631ba82e6360e31b82525afa9081156104e7576080519161083f575b50604051632474521560e21b81527f9f2df0fed2c77648de5860a4cc508cd0818c85b8b8a1ab4ceeef8d981c8956a6600482015233602482015290602090829060449082906001600160a01b03165afa9081156104e75760805191610805575b50156107ca576001610796611fb6565b0180549160001983146107b257600161037793018092556120ab565b634e487b7160e01b6080515260116004526024608051fd5b63e2517d3f60e01b60805152336004527f9f2df0fed2c77648de5860a4cc508cd0818c85b8b8a1ab4ceeef8d981c8956a66024526044608051fd5b90506020813d602011610837575b816108206020938361180e565b810103126101eb5761083190611d54565b82610786565b3d9150610813565b90506020813d60201161087a575b8161085a6020938361180e565b810103126101eb57516001600160a01b03811681036101eb576020610726565b3d915061084d565b346101eb5760203660031901126101eb5760206108a0600435611f61565b6040516001600160a01b039091168152f35b346101eb5760203660031901126101eb576108cb6117a3565b6108d481612034565b906108de8261201d565b916108ec604051938461180e565b8083526108f88161201d565b602084019290601f19013684376080515b828110610956578385604051918291602083019060208452518091526040830191906080515b81811061093d575050500390f35b825184528594506020938401939092019160010161092f565b61096081836124af565b855190919081101561097f5760019160208260051b8801015201610909565b634e487b7160e01b6080515260326004526024608051fd5b346101eb5760203660031901126101eb5760043560026109b5612476565b01548110156109e3576109d460209160026109ce612476565b01611fef565b90549060031b1c604051908152f35b63295f44f760e21b608051526080516004526024526044608051fd5b346101eb5760203660031901126101eb577fdad54db74d8c1152c7cb496a900d181b8e9b69b70e55db2362bd100897a4f7a160206004356005610a40611fb6565b018160805152825260406080512060ff198154169055604051908152a160805180f35b346101eb57610377610a74366117d4565b9060405192610a8460208561180e565b6080518452611d61565b346101eb5760403660031901126101eb5760206106cc610aac6117a3565b602435906124af565b346101eb5760803660031901126101eb57610ace6117a3565b610ad66117be565b906044356001600160a01b03811681036101eb576064356001600160401b0381116101eb57610b09903690600401611860565b90815182019060e083602084019303126101eb5760208301516001600160401b0381116101eb57826020610b3f92860101611d0f565b9260408101516001600160401b0381116101eb57836020610b6292840101611d0f565b9160608201516001600160401b0381116101eb57846020610b8592850101611d0f565b9060808301516001600160401b0381116101eb5760c0956020610baa92860101611d0f565b90610bb760a08501611d54565b92610be8610c4060e08988015197015199610c22610c0f610bfc604051958694602086019e8f5260e086019061177e565b848103601f1901604086019081529c61177e565b6060840196601f1985830301885261177e565b6080830197601f1984830301895261177e565b60a08201971515885260c0820198895203601f19810183528261180e565b8051810160c082602083019203126101eb5788516001600160401b0381116101eb57816020610c7192850101611d0f565b97516001600160401b0381116101eb57816020610c9092850101611d0f565b92516001600160401b0381116101eb57816020610caf92850101611d0f565b94516001600160401b0381116101eb57610cd7916020610cd192850101611d0f565b95611d54565b95519787511515918261155a575b8261154f575b82611544575b5190519060208110611532575b50901561151c5750610d0e611f1d565b610d16611fb6565b968051906001600160401b0382116112af57610d3283546118e5565b601f81116114d1575b506020906001601f841114611464579180916001949360805192611459575b5050600019600383901b1c191690831b1781555b01908051906001600160401b0382116112af578190610d8d84546118e5565b601f8111611403575b506020906001601f84111461139b5760805192611390575b50508160011b916000199060031b1c19161790555b84546001600160a01b0319166001600160a01b0391909116178455805160038501916001600160401b0382116112af578190610dff84546118e5565b601f811161133a575b506020906001601f8411146112d257608051926112c7575b50508160011b916000199060031b1c19161790555b805160048401916001600160401b0382116112af57610e5483546118e5565b601f8111611264575b506020906001601f8411146111f557918091600296959493608051926111ea575b50508160011b916000199060031b1c19161790555b815460ff60a01b191690151560a01b60ff60a01b16178155015560ff610eb761257d565b54166111d857604051916102e0610ece818561180e565b601684526020840190601f190136823783511561097f57634b94a7f560e11b905282516001101561097f5763c87b56dd60e01b604084015282516002101561097f576318160ddd60e01b606084015282516003101561097f576301ffc9a760e01b608084015282516004101561097f576370a0823160e01b60a084015282516005101561097f576331a9108f60e11b60c084015282516006101561097f5763095ea7b360e01b60e084015282516007101561097f5763020604bf60e21b61010084015282516008101561097f5763a22cb46560e01b61012084015282516009101561097f5763e985e9c560e01b6101408401528251600a101561097f576323b872dd60e01b6101608401528251600b101561097f57632142170760e11b6101808401528251600c101561097f57635c46a7ef60e11b6101a08401528251600d101561097f576306fdde0360e01b6101c08401528251600e101561097f576395d89b4160e01b6101e08401528251600f101561097f57634f6ccce760e01b61020084015282516010101561097f57632f745c5960e01b61022084015282516011101561097f57635de6dc5560e01b61024084015282516012101561097f576335313c2160e11b61026084015282516013101561097f57635b42a7cb60e11b61028084015282516014101561097f57634d787ea960e01b6102a084015282516015101561097f57634b94a7f560e11b6102c084015260805133907f171a7dc80b6dc11005bc264b86aca451619865e5e8dad90855002dd8814b33629080a260ff61111461257d565b54166111d8576001600160a01b031692833b156101eb5760405180946323c45f6760e01b82526040600483015261114e60448301866118a7565b6001600160a01b0390931660248301526080519282900390829084905af19283156104e7576102a6936111c6575b50337f6620a457773671eb18e81617c051212b22210907655af4934f9e4915ceb5e2dd608051608051a260016111b0611fb6565b01556040519182916020835260208301906118a7565b6080516111d29161180e565b8361117c565b62dc149f60e41b608051526004608051fd5b015190508a80610e7e565b90601f1983169184608051528160805120926080515b81811061124c57509160019391856002999897969410611233575b505050811b019055610e93565b015160001960f88460031b161c191690558a8080611226565b9293602060018192878601518155019501930161120b565b8360805152602060805120601f840160051c810191602085106112a5575b601f0160051c01905b8181106112985750610e5d565b608051815560010161128b565b9091508190611282565b634e487b7160e01b6080515260416004526024608051fd5b015190508a80610e20565b60808051869052518281209350601f198516905b8181106113225750908460019594939210611309575b505050811b019055610e35565b015160001960f88460031b161c191690558a80806112fc565b929360206001819287860151815501950193016112e6565b9091508360805152602060805120601f840160051c81019160208510611386575b90601f859493920160051c01905b8181106113765750610e08565b6080518155849350600101611369565b909150819061135b565b015190508c80610dae565b60808051869052518281209350601f198516905b8181106113eb57509084600195949392106113d2575b505050811b019055610dc3565b015160001960f88460031b161c191690558c80806113c5565b929360206001819287860151815501950193016113af565b9091508360805152602060805120601f840160051c8101916020851061144f575b90601f859493920160051c01905b81811061143f5750610d96565b6080518155849350600101611432565b9091508190611424565b015190508e80610d5a565b90601f1983169184608051528160805120926080515b8181106114b957509160019594929183879593106114a0575b505050811b018155610d6e565b015160001960f88460031b161c191690558e8080611493565b9293602060018192878601518155019501930161147a565b8360805152602060805120601f840160051c81019160208510611512575b601f0160051c01905b8181106115055750610d3b565b60805181556001016114f8565b90915081906114ef565b6308d49be960e31b608051526004526024608051fd5b6000199060200360031b1b168c610cfe565b865115159250610cf1565b855115159250610ceb565b835115159250610ce5565b346101eb57610377611576366117d4565b916119c3565b346101eb576080513660031901126101eb576020600261159a612476565b0154604051908152f35b346101eb5760403660031901126101eb576115bd6117a3565b6024356115c981611f61565b33151580611678575b80611667575b6116505760805182916001600160a01b03858116929116907f8c5be1e5ebec7d5bd14f71427d1e84f3dd0314c0f7b2291e5b200ac8c7c3b9259080a4600461161e611f1d565b608080519390935201602052516040812080546001600160a01b0319166001600160a01b039093169290921790915580f35b63a9fbf51f60e01b60805152336004526024608051fd5b50611672338261240b565b156115d8565b506001600160a01b0381163314156115d2565b346101eb5760203660031901126101eb5760206108a06004356116ad81611f61565b50611f92565b346101eb576080513660031901126101eb576102a66102926116d3611f1d565b61191f565b346101eb5760203660031901126101eb576004359063ffffffff60e01b82168092036101eb57602091635de6dc5560e01b811490811561174a575b8115611739575b8115611728575b5015158152f35b632483248360e11b14905083611721565b63780e9d6360e01b8114915061171a565b635b5e139f60e01b81149150611713565b60005b83811061176e5750506000910152565b818101518382015260200161175e565b906020916117978151809281855285808601910161175b565b601f01601f1916010190565b600435906001600160a01b03821682036117b957565b600080fd5b602435906001600160a01b03821682036117b957565b60609060031901126117b9576004356001600160a01b03811681036117b957906024356001600160a01b03811681036117b9579060443590565b90601f801991011681019081106001600160401b0382111761182f57604052565b634e487b7160e01b600052604160045260246000fd5b6001600160401b03811161182f57601f01601f191660200190565b81601f820112156117b95780359061187782611845565b92611885604051948561180e565b828452602083830101116117b957816000926020809301838601378301015290565b906020808351928381520192019060005b8181106118c55750505090565b82516001600160e01b0319168452602093840193909201916001016118b8565b90600182811c92168015611915575b60208310146118ff57565b634e487b7160e01b600052602260045260246000fd5b91607f16916118f4565b9060405191826000825492611933846118e5565b80845293600181169081156119a1575060011461195a575b506119589250038361180e565b565b90506000929192526020600020906000915b818310611985575050906020611958928201013861194b565b602091935080600191548385890101520191019091849261196c565b90506020925061195894915060ff191682840152151560051b8201013861194b565b9091906001600160a01b0383168015611cf95760066119e0611fb6565b0183600052602052426040600020556000906119fb84612445565b9133151580611c6d575b506001600160a01b0383169586158015611c42575b6003611a24611f1d565b0184845260205260408320600181540190556002611a40611f1d565b888552016020526040832080546001600160a01b031916851790558684897fddf252ad1be2c89b69c2b068fc378daa952ba7f163c4a11628f55a4df523b3ef8680a415611ba3576002611a91612476565b01546003611a9d612476565b0187845260205260408320556002611ab3612476565b01805490600160401b821015611b8f57611ad78289926001611af095018155611fef565b90919082549060031b91821b91600019901b1916179055565b828703611b2a575b5050505060018060a01b0316808303611b1057505050565b6364283d7b60e01b60005260045260245260445260646000fd5b611b3390612034565b600019810192908311611b7b5790604091611b4c612476565b90825260205281812083825260205285828220556001611b6a612476565b018682526020522055388080611af8565b634e487b7160e01b82526011600452602482fd5b634e487b7160e01b84526041600452602484fd5b868314611af057611bb384612034565b6001611bbd612476565b01878452602052604083205490611bd2612476565b8985526020526040842091818103611c0d575b506001611bf0612476565b018885526020528360408120558352602052816040812055611af0565b818552826020526040852054818652836020528060408720556001611c30612476565b01908652602052604085205538611be5565b611c4b8761244f565b6003611c55611f1d565b89855201602052604083208054600019019055611a1a565b80611cb6575b15611c7e5738611a05565b9250506001600160a01b0316611ca057602491637e27328960e01b8252600452fd5b60449163177e802f60e01b825233600452602452fd5b506001600160a01b03831633148015611ce9575b80611c735750336001600160a01b03611ce287611f92565b1614611c73565b50611cf4338461240b565b611cca565b633250574960e11b600052600060045260246000fd5b81601f820112156117b9578051611d2581611845565b92611d33604051948561180e565b818452602082840101116117b957611d51916020808501910161175b565b90565b519081151582036117b957565b9291611d6e8183866119c3565b813b611d7b575b50505050565b604051630a85bd0160e11b81523360048201526001600160a01b0394851660248201526044810191909152608060648201529216919060209082908190611dc690608483019061177e565b03816000865af18091600091611e65575b5090611e3057503d15611e29573d611dee81611845565b90611dfc604051928361180e565b81523d6000602083013e5b80519081611e245782633250574960e11b60005260045260246000fd5b602001fd5b6060611e07565b6001600160e01b03191663757a42ff60e11b01611e51575038808080611d75565b633250574960e11b60005260045260246000fd5b6020813d602011611ea7575b81611e7e6020938361180e565b81010312611ea35751906001600160e01b031982168203611ea0575038611dd7565b80fd5b5080fd5b3d9150611e71565b60009291815491611ebf836118e5565b9260018116908115611f0a5750600114611ed857505050565b909192935060005260206000206000905b838210611ef65750500190565b600181602092548486015201910190611ee9565b60ff191683525050811515909102019150565b604051602081017fb7b8777dfce3c027b9b4ab96baa886d0c5d5e8c8632429d2b4be0ba869cd905f815260208252611f5660408361180e565b9051902060ff191690565b611f6a81612445565b906001600160a01b03821615611f7e575090565b637e27328960e01b60005260045260246000fd5b6004611f9c611f1d565b60009283520160205260409020546001600160a01b031690565b604051602081017f0cee7785c9739c2abcb4ce591dada6e864d6d906251746912d12a62bb828bf68815260208252611f5660408361180e565b80548210156120075760005260206000200190600090565b634e487b7160e01b600052603260045260246000fd5b6001600160401b03811161182f5760051b60200190565b6001600160a01b0381161561206657600361204d611f1d565b019060018060a01b031660005260205260406000205490565b6322718ad960e21b600052600060045260246000fd5b6001600160a01b0361208c611fb6565b5416330361209657565b63118cdaa760e01b6000523360045260246000fd5b90602090604051906120bd838361180e565b600082526001600160a01b038416938415611cf95760006120dd83612445565b6001600160a01b038116801580159391908990856123e1575b6003612100611f1d565b018285528a526040842060018154019055600261211b611f1d565b898652018a526040842080546001600160a01b031916831790558782847fddf252ad1be2c89b69c2b068fc378daa952ba7f163c4a11628f55a4df523b3ef8780a4156123485750600261216c612476565b01546003612178612476565b0187845289526040832055600261218d612476565b01805490600160401b821015611b8f5787611ad7836121b39360018f9796018155611fef565b036122e9575b50506122d3573b6121ca5750505050565b9161220891819495936040519384928392630a85bd0160e11b845233600485015260006024850152604484015260806064840152608483019061177e565b03816000885af18091600091612295575b50906122705750503d15612269573d61223181611845565b9061223f604051928361180e565b81523d60008383013e5b805191826122665783633250574960e11b60005260045260246000fd5b01fd5b6060612249565b909291506001600160e01b03191663757a42ff60e11b01611e51575038808080611d75565b8481813d83116122cc575b6122aa818361180e565b81010312611ea35751906001600160e01b031982168203611ea0575038612219565b503d6122a0565b6339e3563760e11b600052600060045260246000fd5b6122f284612034565b6000198101919082116123345760409061230a612476565b8a82528952818120838252895286828220556001612326612476565b0187825289522055386121b9565b634e487b7160e01b81526011600452602490fd5b908082146121b35761235984612034565b6001612363612476565b018885528a52604084205490612377612476565b8386528b5260408520918181036123af575b506001612394612476565b018986528b52846040812055845289528260408120556121b3565b818652828c526040862054818752838d5280604088205560016123d0612476565b019087528c52604086205538612389565b6123ea8861244f565b60036123f4611f1d565b848652018a526040842080546000190190556120f6565b6005612415611f1d565b019060018060a01b031660005260205260406000209060018060a01b031660005260205260ff6040600020541690565b6002611f9c611f1d565b6004612459611f1d565b6000928352016020526040902080546001600160a01b0319169055565b604051602081017f2070bae6b675801f0932481e70ab724699e22000dcf2efe36a44b6070d9ee8f1815260208252611f5660408361180e565b6124b881612034565b8210156124eb576124c7612476565b9060018060a01b031660005260205260406000209060005260205260406000205490565b63295f44f760e21b60005260018060a01b031660045260245260446000fd5b61251381611f61565b50604051602081017f83126a7e0b3d5a7bd433798795b790de3287f4b1cb3d1042e8a9e2a4e5391b4081526020825261254d60408361180e565b60ff19915190201690600052602052612569604060002061191f565b600060405161257960208261180e565b5290565b604051602081017ff158cb8b47a14bda3b2c4affcc0d960e9ed23f5a516e4779510b08a6e823c025815260208252611f5660408361180e56fea264697066735822122042c3ac22c7adcaf19ef7c75ea438398411a1f1509bb184db81e783a9b36a946e64736f6c634300081c0033",
  "linkReferences": {},
  "deployedLinkReferences": {}
}