{
  "_format": "hh-sol-artifact-1",
  "contractName": "ServiceFactory",
  "sourceName": "contracts/scr/Factory/functions/ServiceFactory.sol",
  "abi": [
    {
      "inputs": [
        {
          "internalType": "address",
          "name": "account",
          "type": "address"
        },
        {
          "internalType": "bytes32",
          "name": "neededRole",
          "type": "bytes32"
        }
      ],
      "name": "AccessControlUnauthorizedAccount",
      "type": "error"
    },
    {
      "inputs": [
        {
          "internalType": "address",
          "name": "founder",
          "type": "address"
        },
        {
          "internalType": "address",
          "name": "beacon",
          "type": "address"
        },
        {
          "internalType": "enum ServiceType",
          "name": "serviceType",
          "type": "uint8"
        }
      ],
      "name": "AlreadyDeployedService",
      "type": "error"
    },
    {
      "inputs": [
        {
          "internalType": "string",
          "name": "str",
          "type": "string"
        }
      ],
      "name": "EmptyString",
      "type": "error"
    },
    {
      "inputs": [
        {
          "internalType": "address",
          "name": "account",
          "type": "address"
        },
        {
          "internalType": "address",
          "name": "company",
          "type": "address"
        },
        {
          "internalType": "address",
          "name": "beacon",
          "type": "address"
        }
      ],
      "name": "FailDeployService",
      "type": "error"
    },
    {
      "inputs": [
        {
          "internalType": "address",
          "name": "beacon",
          "type": "address"
        },
        {
          "internalType": "address",
          "name": "implementation",
          "type": "address"
        }
      ],
      "name": "InvalidBeacon",
      "type": "error"
    },
    {
      "inputs": [
        {
          "internalType": "address",
          "name": "beacon",
          "type": "address"
        }
      ],
      "name": "NotGovernanceService",
      "type": "error"
    },
    {
      "inputs": [
        {
          "internalType": "address",
          "name": "beacon",
          "type": "address"
        }
      ],
      "name": "ServiceNotOnline",
      "type": "error"
    },
    {
      "anonymous": false,
      "inputs": [
        {
          "indexed": true,
          "internalType": "address",
          "name": "beacon",
          "type": "address"
        },
        {
          "indexed": true,
          "internalType": "address",
          "name": "service",
          "type": "address"
        }
      ],
      "name": "ActivateService",
      "type": "event"
    },
    {
      "anonymous": false,
      "inputs": [
        {
          "indexed": true,
          "internalType": "address",
          "name": "beacon",
          "type": "address"
        },
        {
          "indexed": false,
          "internalType": "string",
          "name": "name",
          "type": "string"
        }
      ],
      "name": "DeployBeaconProxy",
      "type": "event"
    },
    {
      "inputs": [
        {
          "internalType": "address",
          "name": "founder",
          "type": "address"
        },
        {
          "internalType": "enum ServiceType",
          "name": "serviceType",
          "type": "uint8"
        }
      ],
      "name": "getFounderService",
      "outputs": [
        {
          "internalType": "address",
          "name": "",
          "type": "address"
        }
      ],
      "stateMutability": "view",
      "type": "function"
    },
    {
      "inputs": [
        {
          "internalType": "address",
          "name": "beacon",
          "type": "address"
        }
      ],
      "name": "getServiceType",
      "outputs": [
        {
          "internalType": "enum ServiceType",
          "name": "",
          "type": "uint8"
        }
      ],
      "stateMutability": "view",
      "type": "function"
    },
    {
      "inputs": [
        {
          "internalType": "address",
          "name": "letsBeacon",
          "type": "address"
        },
        {
          "internalType": "address",
          "name": "letsSaleBeacon",
          "type": "address"
        }
      ],
      "name": "setLetsSaleBeacon",
      "outputs": [],
      "stateMutability": "nonpayable",
      "type": "function"
    },
    {
      "inputs": [
        {
          "internalType": "address",
          "name": "implementation",
          "type": "address"
        },
        {
          "internalType": "string",
          "name": "name",
          "type": "string"
        },
        {
          "internalType": "enum ServiceType",
          "name": "serviceType",
          "type": "uint8"
        }
      ],
      "name": "setService",
      "outputs": [
        {
          "internalType": "address",
          "name": "beacon",
          "type": "address"
        }
      ],
      "stateMutability": "nonpayable",
      "type": "function"
    }
  ],
  "bytecode": "0x60808060405234601557610b69908161001b8239f35b600080fdfe6080604052600436101561001257600080fd5b60003560e01c80630e8ac8151461058c5780633a5b89f014610120578063acc7a588146100af5763db0cf0ea1461004857600080fd5b346100aa5760203660031901126100aa576100616105f0565b610069610715565b9060018060a01b031660005260205260ff604060002054166040516007821015610094576020918152f35b634e487b7160e01b600052602160045260246000fd5b600080fd5b346100aa5760403660031901126100aa576100c86105f0565b602435906001600160a01b03821682036100aa576100e53361063e565b60026100ef610715565b6001600160a01b03928316600090815291016020526040902080546001600160a01b03191692909116919091179055005b346100aa5760603660031901126100aa576101396105f0565b6024359067ffffffffffffffff82116100aa57366023830112156100aa5781600401359067ffffffffffffffff82116100aa5736602483850101116100aa5760443560078110156100aa576024906101903361063e565b604051602081017f2810609b04caf5f85bb4aaecfb9d3c44224335fe412d57bd4016590897095aa48152602082526101c9604083610606565b60ff199151902016926020601f19601f87011601956101eb6040519788610606565b858752602080880196806000968794018937880101526001600160a01b0316948515158061056c575b868452602085905260408420600101546001600160a01b031690156105555750602094836040516102458882610606565b52838020908251902014610534576040516103da8082019082821067ffffffffffffffff83111761051557604091839161075a8339898152338982015203019084f0801561052957604051906080820182811067ffffffffffffffff8211176105155760409081528383528783019889526001838201908152606084018781526001600160a01b03909316808852978952908620925180519099919067ffffffffffffffff81116105015784549a60018c811c9c1680156104f7575b8b8d10146104e3578b601f8b9c9d9b999a9b11610489575b508b908a601f84116001146103f45792806103b7989693600296937f03bf13c3738edb996db276d73747b443c443972ca33da1e26dba5ae491c64ac69b9996926103e9575b50508160011b916000199060031b1c19161785555b9051600185018054925160ff60a01b90151560a01b166001600160a01b039092166001600160a81b03199093169290921717905551910155604051918291826106cc565b0390a26103c2610715565b60018060a01b0384168352845260408220915060ff80198354169116179055604051908152f35b015190508f8061035e565b50868b528c8b209190601f1984168c8f5b82821061046d575050936103b798969360029693600193837f03bf13c3738edb996db276d73747b443c443972ca33da1e26dba5ae491c64ac69d9b9810610454575b505050811b018555610373565b015160001960f88460031b161c191690558f8080610447565b8484015186558f9c506001909501949384019390810190610405565b909192939495809798508a528b8a20601f840160051c8101918d85106104d9575b90601f8d9a99989796959493920160051c01905b8181106104cb5750610319565b8b81558c99506001016104be565b90915081906104aa565b634e487b7160e01b89526022600452602489fd5b9b607f169b610301565b634e487b7160e01b88526041600452602488fd5b634e487b7160e01b86526041600452602486fd5b6040513d85823e3d90fd5b6040516318a996bb60e21b815290819061055190600483016106cc565b0390fd5b637b242bb760e11b84526004879052602452604483fd5b50858352602084905260408320600101546001600160a01b031615610214565b346100aa5760403660031901126100aa576105a56105f0565b6024359060078210156100aa5760016105bc610715565b019060018060a01b0316600052602052604060002090600052602052602060018060a01b0360406000205416604051908152f35b600435906001600160a01b03821682036100aa57565b90601f8019910116810190811067ffffffffffffffff82111761062857604052565b634e487b7160e01b600052604160045260246000fd5b604051602081017fcf377bf0da9cb35454543c63ad54bf2c5a0466b629ac7517e61f8857cae0fa25815260208252610677604083610606565b60ff19915190201660008052602052604060002060018060a01b03821660005260205260ff60406000205416156106ab5750565b63e2517d3f60e01b60005260018060a01b0316600452600060245260446000fd5b91909160208152825180602083015260005b8181106106ff575060409293506000838284010152601f8019910116010190565b80602080928701015160408286010152016106de565b604051602081017fa982c9e6e17d452331d25729e1841144b75518b90727406c625995fda7cfcb3f81526020825261074e604083610606565b9051902060ff19169056fe60803461013a57601f6103da38819003918201601f19168301916001600160401b0383118484101761013f57808492604094855283398101031261013a5761004681610155565b906001600160a01b039061005c90602001610155565b1690811561012457600080546001600160a01b031981168417825560405193916001600160a01b03909116907f8be0079c531659141344cd1fd0a4f28419497f9722a3daafe3b4186f6b6457e09080a3803b1561010357600180546001600160a01b0319166001600160a01b039290921691821790557fbc7cd75a20ee27fd9adebab32041f755214dbc6bffa90cc0225b39da2e5c2d3b600080a2610270908161016a8239f35b63211eb15960e21b60009081526001600160a01b0391909116600452602490fd5b631e4fbdf760e01b600052600060045260246000fd5b600080fd5b634e487b7160e01b600052604160045260246000fd5b51906001600160a01b038216820361013a5756fe6080604052600436101561001257600080fd5b60003560e01c80633659cfe6146101905780635c60da1b14610167578063715018a61461010e5780638da5cb5b146100e55763f2fde38b1461005357600080fd5b346100e05760203660031901126100e0576004356001600160a01b038116908190036100e057610081610211565b80156100ca57600080546001600160a01b03198116831782556001600160a01b0316907f8be0079c531659141344cd1fd0a4f28419497f9722a3daafe3b4186f6b6457e09080a3005b631e4fbdf760e01b600052600060045260246000fd5b600080fd5b346100e05760003660031901126100e0576000546040516001600160a01b039091168152602090f35b346100e05760003660031901126100e057610127610211565b600080546001600160a01b0319811682556001600160a01b03167f8be0079c531659141344cd1fd0a4f28419497f9722a3daafe3b4186f6b6457e08280a3005b346100e05760003660031901126100e0576001546040516001600160a01b039091168152602090f35b346100e05760203660031901126100e0576004356001600160a01b038116908181036100e0576101be610211565b3b156101fd57600180546001600160a01b031916821790557fbc7cd75a20ee27fd9adebab32041f755214dbc6bffa90cc0225b39da2e5c2d3b600080a2005b63211eb15960e21b60005260045260246000fd5b6000546001600160a01b0316330361022557565b63118cdaa760e01b6000523360045260246000fdfea264697066735822122064ee34d8aac134cd71c99b18254a6e6b157733d4b5d90a10613c087479a049aa64736f6c634300081c0033a264697066735822122089ed7d895fbd1ab15fd5da08117b9667129bb579635d21ff7b703d26e9ad4b5e64736f6c634300081c0033",
  "linkReferences": {},
  "deployedLinkReferences": {}
}