{"abi":[{"type":"constructor","inputs":[],"stateMutability":"nonpayable"},{"type":"function","name":"callAdmin","inputs":[],"outputs":[{"name":"called_","type":"bool","internalType":"bool"}],"stateMutability":"view"},{"type":"function","name":"initialize","inputs":[{"name":"admin_","type":"address","internalType":"address"},{"name":"company_","type":"address","internalType":"address"}],"outputs":[],"stateMutability":"nonpayable"},{"type":"event","name":"Initialized","inputs":[{"name":"version","type":"uint64","indexed":false,"internalType":"uint64"}],"anonymous":false},{"type":"error","name":"InvalidInitialization","inputs":[]},{"type":"error","name":"NotInitializing","inputs":[]}],"bytecode":{"object":"0x6080604052348015600f57600080fd5b506016601a565b60ca565b7ff0c57e16840df040f15088dc2f81fe391c3923bec73e23a9662efc9c229c6a00805468010000000000000000900460ff161560695760405163f92ee8a960e01b815260040160405180910390fd5b80546001600160401b039081161460c75780546001600160401b0319166001600160401b0390811782556040519081527fc7f505b2f371ae2175ee4913f4499e1f2633a7b5936321eed1cdaeb6115181d29060200160405180910390a15b50565b61029a806100d96000396000f3fe608060405234801561001057600080fd5b50600436106100365760003560e01c8063485cc9551461003b5780636b642e4314610050575b600080fd5b61004e610049366004610231565b61006c565b005b6100586101a4565b604051901515815260200160405180910390f35b7ff0c57e16840df040f15088dc2f81fe391c3923bec73e23a9662efc9c229c6a008054600160401b810460ff16159067ffffffffffffffff166000811580156100b25750825b905060008267ffffffffffffffff1660011480156100cf5750303b155b9050811580156100dd575080155b156100fb5760405163f92ee8a960e01b815260040160405180910390fd5b845467ffffffffffffffff19166001178555831561012557845460ff60401b1916600160401b1785555b600080546001600160a01b03808a166001600160a01b0319928316179092556001805492891692909116919091179055831561019b57845460ff60401b19168555604051600181527fc7f505b2f371ae2175ee4913f4499e1f2633a7b5936321eed1cdaeb6115181d29060200160405180910390a15b50505050505050565b600080546001600160a01b0316331461020f5760405162461bcd60e51b815260206004820152602360248201527f4572726f723a20476f7665726e616e6365536572766963652f4f6e6c792d4f776044820152623732b960e91b606482015260840160405180910390fd5b50600190565b80356001600160a01b038116811461022c57600080fd5b919050565b6000806040838503121561024457600080fd5b61024d83610215565b915061025b60208401610215565b9050925092905056fea2646970667358221220535c9a16a52bd73345ae2b864af9ad4323c89d30ecf54da16e0aa0d4d19ba1e664736f6c634300081b0033","linkReferences":{}},"methodIdentifiers":{"callAdmin()":"6b642e43","initialize(address,address)":"485cc955"},"storageLayout":{"storage":[{"astId":3449,"contract":"contracts/Services/GovernanceService.sol:GovernanceService","label":"_admin","offset":0,"slot":"0","type":"t_address"},{"astId":3451,"contract":"contracts/Services/GovernanceService.sol:GovernanceService","label":"_company","offset":0,"slot":"1","type":"t_address"}],"types":{"t_address":{"encoding":"inplace","label":"address","numberOfBytes":"20"}}},"id":22}