{"abi":[{"type":"function","name":"activate","inputs":[{"name":"admin_","type":"address","internalType":"address"},{"name":"company_","type":"address","internalType":"address"},{"name":"serviceID_","type":"uint256","internalType":"uint256"}],"outputs":[{"name":"service_","type":"address","internalType":"address"}],"stateMutability":"nonpayable"},{"type":"function","name":"beacon","inputs":[],"outputs":[{"name":"","type":"address","internalType":"contract UpgradeableBeacon"}],"stateMutability":"view"},{"type":"function","name":"createProxy","inputs":[{"name":"_proxyId","type":"uint256","internalType":"uint256"},{"name":"_data","type":"bytes","internalType":"bytes"}],"outputs":[{"name":"","type":"address","internalType":"address"}],"stateMutability":"nonpayable"},{"type":"function","name":"getBeacon","inputs":[],"outputs":[{"name":"","type":"address","internalType":"address"}],"stateMutability":"view"},{"type":"function","name":"getImplementation","inputs":[],"outputs":[{"name":"","type":"address","internalType":"address"}],"stateMutability":"view"},{"type":"function","name":"getProxyAddress","inputs":[{"name":"_proxyId","type":"uint256","internalType":"uint256"}],"outputs":[{"name":"","type":"address","internalType":"address"}],"stateMutability":"view"},{"type":"function","name":"initialize","inputs":[{"name":"implementation_","type":"address","internalType":"address"},{"name":"register_","type":"address","internalType":"address"}],"outputs":[],"stateMutability":"nonpayable"},{"type":"function","name":"owner","inputs":[],"outputs":[{"name":"","type":"address","internalType":"address"}],"stateMutability":"view"},{"type":"function","name":"renounceOwnership","inputs":[],"outputs":[],"stateMutability":"nonpayable"},{"type":"function","name":"transferOwnership","inputs":[{"name":"newOwner","type":"address","internalType":"address"}],"outputs":[],"stateMutability":"nonpayable"},{"type":"event","name":"ActivateBorderlessService","inputs":[{"name":"admin_","type":"address","indexed":true,"internalType":"address"},{"name":"service","type":"address","indexed":true,"internalType":"address"},{"name":"serviceID","type":"uint256","indexed":true,"internalType":"uint256"}],"anonymous":false},{"type":"event","name":"Initialized","inputs":[{"name":"version","type":"uint64","indexed":false,"internalType":"uint64"}],"anonymous":false},{"type":"event","name":"OwnershipTransferred","inputs":[{"name":"previousOwner","type":"address","indexed":true,"internalType":"address"},{"name":"newOwner","type":"address","indexed":true,"internalType":"address"}],"anonymous":false},{"type":"event","name":"ProxyCreated","inputs":[{"name":"instanceId","type":"uint256","indexed":true,"internalType":"uint256"},{"name":"proxyAddress","type":"address","indexed":true,"internalType":"address"}],"anonymous":false},{"type":"error","name":"DoNotActivateService","inputs":[{"name":"account_","type":"address","internalType":"address"},{"name":"company_","type":"address","internalType":"address"},{"name":"serviceID_","type":"uint256","internalType":"uint256"}]},{"type":"error","name":"InvalidInitialization","inputs":[]},{"type":"error","name":"NotInitializing","inputs":[]},{"type":"error","name":"OwnableInvalidOwner","inputs":[{"name":"owner","type":"address","internalType":"address"}]},{"type":"error","name":"OwnableUnauthorizedAccount","inputs":[{"name":"account","type":"address","internalType":"address"}]}],"bytecode":{"object":"0x6080604052348015600f57600080fd5b506016601a565b60ca565b7ff0c57e16840df040f15088dc2f81fe391c3923bec73e23a9662efc9c229c6a00805468010000000000000000900460ff161560695760405163f92ee8a960e01b815260040160405180910390fd5b80546001600160401b039081161460c75780546001600160401b0319166001600160401b0390811782556040519081527fc7f505b2f371ae2175ee4913f4499e1f2633a7b5936321eed1cdaeb6115181d29060200160405180910390a15b50565b6115fe806100d96000396000f3fe608060405234801561001057600080fd5b506004361061009e5760003560e01c8063715018a611610066578063715018a614610130578063827cf27f146101385780638da5cb5b1461014b578063aaf10f421461017b578063f2fde38b1461018357600080fd5b80632d6b3a6b146100a3578063384ba7f2146100cc578063485cc955146100f5578063494f683f1461010a57806359659e901461011d575b600080fd5b6000546001600160a01b03165b6040516001600160a01b03909116815260200160405180910390f35b6100b06100da3660046109ac565b6000908152600160205260409020546001600160a01b031690565b6101086101033660046109da565b610196565b005b6100b0610118366004610a13565b6102a9565b6000546100b0906001600160a01b031681565b61010861032a565b6100b0610146366004610a6a565b61033e565b7f9016d09d72d40fdae2fd8ceac6b6234c7706214fd39c1cd1e609a0528c199300546001600160a01b03166100b0565b6100b06103eb565b610108610191366004610b2d565b610468565b7ff0c57e16840df040f15088dc2f81fe391c3923bec73e23a9662efc9c229c6a008054600160401b810460ff16159067ffffffffffffffff166000811580156101dc5750825b905060008267ffffffffffffffff1660011480156101f95750303b155b905081158015610207575080155b156102255760405163f92ee8a960e01b815260040160405180910390fd5b845467ffffffffffffffff19166001178555831561024f57845460ff60401b1916600160401b1785555b61025987876104a6565b83156102a057845460ff60401b19168555604051600181527fc7f505b2f371ae2175ee4913f4499e1f2633a7b5936321eed1cdaeb6115181d2906020015b60405180910390a15b50505050505050565b6002546000906001600160a01b031633146103175760405162461bcd60e51b815260206004820152602360248201527f4572726f723a20466163746f7279536572766963652f4f6e6c792d52656769736044820152623a32b960e91b60648201526084015b60405180910390fd5b6103228484846105c5565b949350505050565b610332610651565b61033c60006106ac565b565b6000610348610651565b600080546040516001600160a01b0390911690849061036690610992565b610371929190610b51565b604051809103906000f08015801561038d573d6000803e3d6000fd5b5060008581526001602052604080822080546001600160a01b0319166001600160a01b03851690811790915590519293509186917ffec3a900452bdfaabaf717e8b9340eb6b9e79ed608718e66bd0f74ebf684e3c091a39392505050565b60008060009054906101000a90046001600160a01b03166001600160a01b0316635c60da1b6040518163ffffffff1660e01b8152600401602060405180830381865afa15801561043f573d6000803e3d6000fd5b505050506040513d601f19601f820116820180604052508101906104639190610bae565b905090565b610470610651565b6001600160a01b03811661049a57604051631e4fbdf760e01b81526000600482015260240161030e565b6104a3816106ac565b50565b7ff0c57e16840df040f15088dc2f81fe391c3923bec73e23a9662efc9c229c6a008054600160401b810460ff16159067ffffffffffffffff166000811580156104ec5750825b905060008267ffffffffffffffff1660011480156105095750303b155b905081158015610517575080155b156105355760405163f92ee8a960e01b815260040160405180910390fd5b845467ffffffffffffffff19166001178555831561055f57845460ff60401b1916600160401b1785555b6105688761071d565b600280546001600160a01b0319166001600160a01b03881617905583156102a057845460ff60401b19168555604051600181527fc7f505b2f371ae2175ee4913f4499e1f2633a7b5936321eed1cdaeb6115181d290602001610297565b60006105d18484610886565b90506001600160a01b03811661061257604051630e23d76960e01b81523360048201526001600160a01b03841660248201526044810183905260640161030e565b60405182906001600160a01b0383169033907f6a37214d4a3ba6864de3084b2271b62d11f6d50f324f1a201653f797b586a27b90600090a49392505050565b336106837f9016d09d72d40fdae2fd8ceac6b6234c7706214fd39c1cd1e609a0528c199300546001600160a01b031690565b6001600160a01b03161461033c5760405163118cdaa760e01b815233600482015260240161030e565b7f9016d09d72d40fdae2fd8ceac6b6234c7706214fd39c1cd1e609a0528c19930080546001600160a01b031981166001600160a01b03848116918217845560405192169182907f8be0079c531659141344cd1fd0a4f28419497f9722a3daafe3b4186f6b6457e090600090a3505050565b7ff0c57e16840df040f15088dc2f81fe391c3923bec73e23a9662efc9c229c6a008054600160401b810460ff16159067ffffffffffffffff166000811580156107635750825b905060008267ffffffffffffffff1660011480156107805750303b155b90508115801561078e575080155b156107ac5760405163f92ee8a960e01b815260040160405180910390fd5b845467ffffffffffffffff1916600117855583156107d657845460ff60401b1916600160401b1785555b85336040516107e49061099f565b6001600160a01b03928316815291166020820152604001604051809103906000f080158015610817573d6000803e3d6000fd5b50600080546001600160a01b0319166001600160a01b0392909216919091179055831561087e57845460ff60401b19168555604051600181527fc7f505b2f371ae2175ee4913f4499e1f2633a7b5936321eed1cdaeb6115181d29060200160405180910390a15b505050505050565b604080516001600160a01b03848116602483015283811660448084019190915283518084039091018152606490920183526020820180516001600160e01b031663485cc95560e01b17905260008054935190938492169083906108e890610992565b6108f3929190610b51565b604051809103906000f08015801561090f573d6000803e3d6000fd5b506040516bffffffffffffffffffffffff19606088811b8216602084015287901b16603482015290915081906001600160a01b0382169060480160408051601f19818403018152908290528051602090910120907ffec3a900452bdfaabaf717e8b9340eb6b9e79ed608718e66bd0f74ebf684e3c090600090a395945050505050565b6105c580610bcc83390190565b6104388061119183390190565b6000602082840312156109be57600080fd5b5035919050565b6001600160a01b03811681146104a357600080fd5b600080604083850312156109ed57600080fd5b82356109f8816109c5565b91506020830135610a08816109c5565b809150509250929050565b600080600060608486031215610a2857600080fd5b8335610a33816109c5565b92506020840135610a43816109c5565b929592945050506040919091013590565b634e487b7160e01b600052604160045260246000fd5b60008060408385031215610a7d57600080fd5b82359150602083013567ffffffffffffffff811115610a9b57600080fd5b8301601f81018513610aac57600080fd5b803567ffffffffffffffff811115610ac657610ac6610a54565b604051601f8201601f19908116603f0116810167ffffffffffffffff81118282101715610af557610af5610a54565b604052818152828201602001871015610b0d57600080fd5b816020840160208301376000602083830101528093505050509250929050565b600060208284031215610b3f57600080fd5b8135610b4a816109c5565b9392505050565b60018060a01b0383168152604060208201526000825180604084015260005b81811015610b8d5760208186018101516060868401015201610b70565b506000606082850101526060601f19601f8301168401019150509392505050565b600060208284031215610bc057600080fd5b8151610b4a816109c556fe60a06040526040516105c53803806105c583398101604081905261002291610387565b61002c828261003e565b506001600160a01b0316608052610484565b610047826100fe565b6040516001600160a01b038316907f1cf3b03a6cf19fa2baba4df148e9dcabedea7f8a5c07840e207e5c089be95d3e90600090a28051156100f2576100ed826001600160a01b0316635c60da1b6040518163ffffffff1660e01b8152600401602060405180830381865afa1580156100c3573d6000803e3d6000fd5b505050506040513d601f19601f820116820180604052508101906100e7919061044d565b82610211565b505050565b6100fa610288565b5050565b806001600160a01b03163b60000361013957604051631933b43b60e21b81526001600160a01b03821660048201526024015b60405180910390fd5b807fa3f0ad74e5423aebfd80d3ef4346578335a9a72aeaee59ff6cb3582b35133d5080546001600160a01b0319166001600160a01b0392831617905560408051635c60da1b60e01b81529051600092841691635c60da1b9160048083019260209291908290030181865afa1580156101b5573d6000803e3d6000fd5b505050506040513d601f19601f820116820180604052508101906101d9919061044d565b9050806001600160a01b03163b6000036100fa57604051634c9c8ce360e01b81526001600160a01b0382166004820152602401610130565b6060600080846001600160a01b03168460405161022e9190610468565b600060405180830381855af49150503d8060008114610269576040519150601f19603f3d011682016040523d82523d6000602084013e61026e565b606091505b50909250905061027f8583836102a9565b95945050505050565b34156102a75760405163b398979f60e01b815260040160405180910390fd5b565b6060826102be576102b982610308565b610301565b81511580156102d557506001600160a01b0384163b155b156102fe57604051639996b31560e01b81526001600160a01b0385166004820152602401610130565b50805b9392505050565b8051156103185780518082602001fd5b60405163d6bda27560e01b815260040160405180910390fd5b80516001600160a01b038116811461034857600080fd5b919050565b634e487b7160e01b600052604160045260246000fd5b60005b8381101561037e578181015183820152602001610366565b50506000910152565b6000806040838503121561039a57600080fd5b6103a383610331565b60208401519092506001600160401b038111156103bf57600080fd5b8301601f810185136103d057600080fd5b80516001600160401b038111156103e9576103e961034d565b604051601f8201601f19908116603f011681016001600160401b03811182821017156104175761041761034d565b60405281815282820160200187101561042f57600080fd5b610440826020830160208601610363565b8093505050509250929050565b60006020828403121561045f57600080fd5b61030182610331565b6000825161047a818460208701610363565b9190910192915050565b60805161012761049e6000396000601e01526101276000f3fe6080604052600a600c565b005b60186014601a565b60a0565b565b60007f00000000000000000000000000000000000000000000000000000000000000006001600160a01b0316635c60da1b6040518163ffffffff1660e01b8152600401602060405180830381865afa1580156079573d6000803e3d6000fd5b505050506040513d601f19601f82011682018060405250810190609b919060c3565b905090565b3660008037600080366000845af43d6000803e80801560be573d6000f35b3d6000fd5b60006020828403121560d457600080fd5b81516001600160a01b038116811460ea57600080fd5b939250505056fea26469706673582212200c24b3d42b010336a9ab011d6a199e2c5cc186c11b02c7de926afdf0b5f30aa664736f6c634300081b0033608060405234801561001057600080fd5b5060405161043838038061043883398101604081905261002f91610165565b806001600160a01b03811661005f57604051631e4fbdf760e01b8152600060048201526024015b60405180910390fd5b61006881610079565b50610072826100c9565b5050610198565b600080546001600160a01b038381166001600160a01b0319831681178455604051919092169283917f8be0079c531659141344cd1fd0a4f28419497f9722a3daafe3b4186f6b6457e09190a35050565b806001600160a01b03163b6000036100ff5760405163211eb15960e21b81526001600160a01b0382166004820152602401610056565b600180546001600160a01b0319166001600160a01b0383169081179091556040517fbc7cd75a20ee27fd9adebab32041f755214dbc6bffa90cc0225b39da2e5c2d3b90600090a250565b80516001600160a01b038116811461016057600080fd5b919050565b6000806040838503121561017857600080fd5b61018183610149565b915061018f60208401610149565b90509250929050565b610291806101a76000396000f3fe608060405234801561001057600080fd5b50600436106100575760003560e01c80633659cfe61461005c5780635c60da1b14610071578063715018a61461009a5780638da5cb5b146100a2578063f2fde38b146100b3575b600080fd5b61006f61006a36600461022b565b6100c6565b005b6001546001600160a01b03165b6040516001600160a01b03909116815260200160405180910390f35b61006f6100da565b6000546001600160a01b031661007e565b61006f6100c136600461022b565b6100ee565b6100ce61012e565b6100d78161015b565b50565b6100e261012e565b6100ec60006101db565b565b6100f661012e565b6001600160a01b03811661012557604051631e4fbdf760e01b8152600060048201526024015b60405180910390fd5b6100d7816101db565b6000546001600160a01b031633146100ec5760405163118cdaa760e01b815233600482015260240161011c565b806001600160a01b03163b6000036101915760405163211eb15960e21b81526001600160a01b038216600482015260240161011c565b600180546001600160a01b0319166001600160a01b0383169081179091556040517fbc7cd75a20ee27fd9adebab32041f755214dbc6bffa90cc0225b39da2e5c2d3b90600090a250565b600080546001600160a01b038381166001600160a01b0319831681178455604051919092169283917f8be0079c531659141344cd1fd0a4f28419497f9722a3daafe3b4186f6b6457e09190a35050565b60006020828403121561023d57600080fd5b81356001600160a01b038116811461025457600080fd5b939250505056fea264697066735822122022a0bee35cf4e4aa481d1e5a9015de955b23dbc541ff67102ab53884f81696fa64736f6c634300081b0033a2646970667358221220741a26938bbb81c218d36d33210d3a49a0b9ed8152e99cd770edca383b563d0464736f6c634300081b0033","linkReferences":{}},"methodIdentifiers":{"activate(address,address,uint256)":"494f683f","beacon()":"59659e90","createProxy(uint256,bytes)":"827cf27f","getBeacon()":"2d6b3a6b","getImplementation()":"aaf10f42","getProxyAddress(uint256)":"384ba7f2","initialize(address,address)":"485cc955","owner()":"8da5cb5b","renounceOwnership()":"715018a6","transferOwnership(address)":"f2fde38b"},"storageLayout":{"storage":[{"astId":4774,"contract":"contracts/FactoryPool/FactoryServices/TreasuryServiceFactory.sol:TreasuryServiceFactory","label":"beacon","offset":0,"slot":"0","type":"t_contract(UpgradeableBeacon)47433"},{"astId":4778,"contract":"contracts/FactoryPool/FactoryServices/TreasuryServiceFactory.sol:TreasuryServiceFactory","label":"proxies","offset":0,"slot":"1","type":"t_mapping(t_uint256,t_address)"},{"astId":1085,"contract":"contracts/FactoryPool/FactoryServices/TreasuryServiceFactory.sol:TreasuryServiceFactory","label":"_register","offset":0,"slot":"2","type":"t_address"}],"types":{"t_address":{"encoding":"inplace","label":"address","numberOfBytes":"20"},"t_contract(UpgradeableBeacon)47433":{"encoding":"inplace","label":"contract UpgradeableBeacon","numberOfBytes":"20"},"t_mapping(t_uint256,t_address)":{"encoding":"mapping","key":"t_uint256","label":"mapping(uint256 => address)","numberOfBytes":"32","value":"t_address"},"t_uint256":{"encoding":"inplace","label":"uint256","numberOfBytes":"32"}}},"id":5}