{"abi":[{"type":"function","name":"addAdmin","inputs":[{"name":"account_","type":"address","internalType":"address"}],"outputs":[{"name":"assigned_","type":"bool","internalType":"bool"}],"stateMutability":"nonpayable"},{"type":"function","name":"getService","inputs":[{"name":"index_","type":"uint256","internalType":"uint256"}],"outputs":[{"name":"service_","type":"address","internalType":"address"},{"name":"online_","type":"bool","internalType":"bool"}],"stateMutability":"view"},{"type":"function","name":"initialize","inputs":[{"name":"register_","type":"address","internalType":"address"}],"outputs":[],"stateMutability":"nonpayable"},{"type":"function","name":"isAdmin","inputs":[{"name":"account_","type":"address","internalType":"address"}],"outputs":[{"name":"assigned_","type":"bool","internalType":"bool"}],"stateMutability":"view"},{"type":"function","name":"removeAdmin","inputs":[{"name":"account_","type":"address","internalType":"address"}],"outputs":[{"name":"assigned_","type":"bool","internalType":"bool"}],"stateMutability":"nonpayable"},{"type":"function","name":"setService","inputs":[{"name":"service_","type":"address","internalType":"address"},{"name":"index_","type":"uint256","internalType":"uint256"}],"outputs":[],"stateMutability":"nonpayable"},{"type":"function","name":"updateService","inputs":[{"name":"service_","type":"address","internalType":"address"},{"name":"index_","type":"uint256","internalType":"uint256"}],"outputs":[],"stateMutability":"nonpayable"},{"type":"function","name":"updateService","inputs":[{"name":"service_","type":"address","internalType":"address"},{"name":"index_","type":"uint256","internalType":"uint256"},{"name":"online_","type":"bool","internalType":"bool"}],"outputs":[],"stateMutability":"nonpayable"},{"type":"event","name":"Initialized","inputs":[{"name":"version","type":"uint64","indexed":false,"internalType":"uint64"}],"anonymous":false},{"type":"event","name":"NewAdmin","inputs":[{"name":"account_","type":"address","indexed":true,"internalType":"address"},{"name":"count_","type":"uint256","indexed":true,"internalType":"uint256"}],"anonymous":false},{"type":"event","name":"NewService","inputs":[{"name":"service_","type":"address","indexed":true,"internalType":"address"},{"name":"index_","type":"uint256","indexed":true,"internalType":"uint256"}],"anonymous":false},{"type":"event","name":"RemoveAdmin","inputs":[{"name":"account_","type":"address","indexed":true,"internalType":"address"},{"name":"count_","type":"uint256","indexed":true,"internalType":"uint256"}],"anonymous":false},{"type":"event","name":"UpdateService","inputs":[{"name":"service_","type":"address","indexed":true,"internalType":"address"},{"name":"index_","type":"uint256","indexed":true,"internalType":"uint256"},{"name":"online_","type":"bool","indexed":false,"internalType":"bool"}],"anonymous":false},{"type":"error","name":"AlreadyAdmin","inputs":[{"name":"account_","type":"address","internalType":"address"}]},{"type":"error","name":"DoNotAddAdmin","inputs":[{"name":"account_","type":"address","internalType":"address"}]},{"type":"error","name":"DoNotRemoveAdmin","inputs":[{"name":"account_","type":"address","internalType":"address"}]},{"type":"error","name":"DoNotSetService","inputs":[{"name":"service_","type":"address","internalType":"address"}]},{"type":"error","name":"InvalidAddress","inputs":[{"name":"account_","type":"address","internalType":"address"}]},{"type":"error","name":"InvalidCaller","inputs":[{"name":"account_","type":"address","internalType":"address"}]},{"type":"error","name":"InvalidInitialization","inputs":[]},{"type":"error","name":"InvalidParam","inputs":[{"name":"service_","type":"address","internalType":"address"},{"name":"index_","type":"uint256","internalType":"uint256"},{"name":"online_","type":"bool","internalType":"bool"}]},{"type":"error","name":"LastAdmin","inputs":[{"name":"account_","type":"address","internalType":"address"}]},{"type":"error","name":"NotAdmin","inputs":[{"name":"account_","type":"address","internalType":"address"}]},{"type":"error","name":"NotInitializing","inputs":[]}],"bytecode":{"object":"0x6080604052348015600f57600080fd5b50610c2b8061001f6000396000f3fe608060405234801561001057600080fd5b50600436106100885760003560e01c8063704802751161005b57806370480275146100f05780637e0deb6014610103578063c4d66de814610116578063ef0e239b1461012957600080fd5b80631785f53c1461008d57806324d7806c146100b55780634388fe28146100c8578063592489d2146100dd575b600080fd5b6100a061009b366004610ae9565b61015b565b60405190151581526020015b60405180910390f35b6100a06100c3366004610ae9565b61022c565b6100db6100d6366004610b04565b610265565b005b6100db6100eb366004610b04565b610317565b6100a06100fe366004610ae9565b610420565b6100db610111366004610b2e565b6104b8565b6100db610124366004610ae9565b6105ff565b61013c610137366004610b73565b61072a565b604080516001600160a01b0390931683529015156020830152016100ac565b6000610166336107d6565b61018a57604051630bd4212160e11b81523360048201526024015b60405180910390fd5b816001600160a01b0381166101bd57604051634726455360e11b81526001600160a01b0382166004820152602401610181565b6101c6836107d6565b6101ee57604051630bd4212160e11b81526001600160a01b0384166004820152602401610181565b60016000541161021c576040516356aae60b60e01b81526001600160a01b0384166004820152602401610181565b610225836107f4565b9392505050565b6000610237336107d6565b61025657604051630bd4212160e11b8152336004820152602401610181565b61025f826107d6565b92915050565b61026e336107d6565b61028d57604051630bd4212160e11b8152336004820152602401610181565b818160006001600160a01b03831615806102a5575081155b156102c957828282604051637fd81cb760e01b815260040161018193929190610b8c565b6000848152600360205260409020546001600160a01b0316156103065784846000604051637fd81cb760e01b815260040161018193929190610b8c565b610310858561089b565b5050505050565b610320336107d6565b61033f57604051630bd4212160e11b8152336004820152602401610181565b818160006001600160a01b0383161580610357575081155b1561037b57828282604051637fd81cb760e01b815260040161018193929190610b8c565b610383610a9a565b50600084815260036020908152604091829020825160808101845281546001600160a01b03808216808452600160a01b90920460ff16151594830194909452600183015494820194909452600290910154606082015291908716036104025785856000604051637fd81cb760e01b815260040161018193929190610b8c565b6001600160a01b03861681526104188186610931565b505050505050565b600061042b336107d6565b61044a57604051630bd4212160e11b8152336004820152602401610181565b816001600160a01b03811661047d57604051634726455360e11b81526001600160a01b0382166004820152602401610181565b610486836107d6565b156104af5760405163089a8b0f60e41b81526001600160a01b0384166004820152602401610181565b610225836109c5565b6104c1336107d6565b6104e057604051630bd4212160e11b8152336004820152602401610181565b8282826001600160a01b03831615806104f7575081155b1561051b57828282604051637fd81cb760e01b815260040161018193929190610b8c565b610523610a9a565b600086815260036020526040902054600160a01b900460ff1615158515150361056557868686604051637fd81cb760e01b815260040161018193929190610b8c565b50600085815260036020908152604091829020825160808101845281546001600160a01b03808216808452600160a01b90920460ff16151594830194909452600183015494820194909452600290910154606082015291908816146105e45786866000604051637fd81cb760e01b815260040161018193929190610b8c565b84151560208201526105f68187610931565b50505050505050565b7ff0c57e16840df040f15088dc2f81fe391c3923bec73e23a9662efc9c229c6a008054600160401b810460ff16159067ffffffffffffffff166000811580156106455750825b905060008267ffffffffffffffff1660011480156106625750303b155b905081158015610670575080155b1561068e5760405163f92ee8a960e01b815260040160405180910390fd5b845467ffffffffffffffff1916600117855583156106b857845460ff60401b1916600160401b1785555b6106c1336109c5565b50600180546001600160a01b0319166001600160a01b038816179055831561041857845460ff60401b19168555604051600181527fc7f505b2f371ae2175ee4913f4499e1f2633a7b5936321eed1cdaeb6115181d29060200160405180910390a1505050505050565b600080610735610a6e565b6107545760405163065ece9760e51b8152336004820152602401610181565b6000831161077c5733836000604051637fd81cb760e01b815260040161018193929190610b8c565b5050600090815260036020908152604091829020825160808101845281546001600160a01b038116808352600160a01b90910460ff1615159382018490526001830154948201949094526002909101546060909101529091565b6001600160a01b031660009081526002602052604090205460ff1690565b6001600160a01b0381166000908152600260205260408120805460ff1916905561081d826107d6565b1561084657604051634f8f39bd60e11b81526001600160a01b0383166004820152602401610181565b60008054908061085583610bc5565b9190505550600054826001600160a01b03167f7b0884b4b6bb4e0c1385ad42168fa556c14d4d799c1bf22f081aff3efff6ea0c60405160405180910390a3506000919050565b6108a3610a9a565b6001600160a01b0380841682524260408084018281526060850192835260008681526003602090815283822087518154928901511515600160a01b026001600160a81b03199093169716968717919091178155915160018301559251600290910155518492917f8edb0ca97cbffa60cfa3b603b49f3011eb4ec68feb55b55db31b072bf7b1687891a3505050565b426060830190815260008281526003602090815260409182902085518154838801516001600160a01b039092166001600160a81b03199091168117600160a01b921515928302178355848801516001840155945160029092019190915591519182528392917fe684404df4dcf60e2c84d101d2e746cebf5ec4dc852ff94494f1c254d72a8a4f910160405180910390a35050565b6001600160a01b0381166000908152600260205260408120805460ff191660011790556109f1826107d6565b610a1957604051635fe9228760e01b81526001600160a01b0383166004820152602401610181565b600080549080610a2883610bdc565b9190505550600054826001600160a01b03167fb9fc27e783df6c8991936fe26ee2fa8498d30034068a61ee9c9d623e077cad0560405160405180910390a3506001919050565b6000610a79336107d6565b80610a8e57506001546001600160a01b031633145b15610a97575060015b90565b604051806080016040528060006001600160a01b0316815260200160001515815260200160008152602001600081525090565b80356001600160a01b0381168114610ae457600080fd5b919050565b600060208284031215610afb57600080fd5b61022582610acd565b60008060408385031215610b1757600080fd5b610b2083610acd565b946020939093013593505050565b600080600060608486031215610b4357600080fd5b610b4c84610acd565b92506020840135915060408401358015158114610b6857600080fd5b809150509250925092565b600060208284031215610b8557600080fd5b5035919050565b6001600160a01b0393909316835260208301919091521515604082015260600190565b634e487b7160e01b600052601160045260246000fd5b600081610bd457610bd4610baf565b506000190190565b600060018201610bee57610bee610baf565b506001019056fea2646970667358221220ab67c53cc09bbbf7b043e91fc2e5e58b4c4135dc01c0f7eff5d737e082a55c2e64736f6c634300081b0033","linkReferences":{}},"methodIdentifiers":{"addAdmin(address)":"70480275","getService(uint256)":"ef0e239b","initialize(address)":"c4d66de8","isAdmin(address)":"24d7806c","removeAdmin(address)":"1785f53c","setService(address,uint256)":"4388fe28","updateService(address,uint256)":"592489d2","updateService(address,uint256,bool)":"7e0deb60"},"storageLayout":{"storage":[{"astId":518,"contract":"contracts/FactoryPool/FactoryPool.sol:FactoryPool","label":"_adminCount","offset":0,"slot":"0","type":"t_uint256"},{"astId":520,"contract":"contracts/FactoryPool/FactoryPool.sol:FactoryPool","label":"_register","offset":0,"slot":"1","type":"t_address"},{"astId":524,"contract":"contracts/FactoryPool/FactoryPool.sol:FactoryPool","label":"_admins","offset":0,"slot":"2","type":"t_mapping(t_address,t_bool)"},{"astId":529,"contract":"contracts/FactoryPool/FactoryPool.sol:FactoryPool","label":"_services","offset":0,"slot":"3","type":"t_mapping(t_uint256,t_struct(ServiceInfo)1649_storage)"}],"types":{"t_address":{"encoding":"inplace","label":"address","numberOfBytes":"20"},"t_bool":{"encoding":"inplace","label":"bool","numberOfBytes":"1"},"t_mapping(t_address,t_bool)":{"encoding":"mapping","key":"t_address","label":"mapping(address => bool)","numberOfBytes":"32","value":"t_bool"},"t_mapping(t_uint256,t_struct(ServiceInfo)1649_storage)":{"encoding":"mapping","key":"t_uint256","label":"mapping(uint256 => struct IFactoryPool.ServiceInfo)","numberOfBytes":"32","value":"t_struct(ServiceInfo)1649_storage"},"t_struct(ServiceInfo)1649_storage":{"encoding":"inplace","label":"struct IFactoryPool.ServiceInfo","numberOfBytes":"96","members":[{"astId":1642,"contract":"contracts/FactoryPool/FactoryPool.sol:FactoryPool","label":"service","offset":0,"slot":"0","type":"t_address"},{"astId":1644,"contract":"contracts/FactoryPool/FactoryPool.sol:FactoryPool","label":"online","offset":20,"slot":"0","type":"t_bool"},{"astId":1646,"contract":"contracts/FactoryPool/FactoryPool.sol:FactoryPool","label":"createAt","offset":0,"slot":"1","type":"t_uint256"},{"astId":1648,"contract":"contracts/FactoryPool/FactoryPool.sol:FactoryPool","label":"updateAt","offset":0,"slot":"2","type":"t_uint256"}]},"t_uint256":{"encoding":"inplace","label":"uint256","numberOfBytes":"32"}}},"id":1}