{"abi":[{"type":"constructor","inputs":[],"stateMutability":"nonpayable"},{"type":"function","name":"addAdmin","inputs":[{"name":"account_","type":"address","internalType":"address"}],"outputs":[{"name":"assigned_","type":"bool","internalType":"bool"}],"stateMutability":"nonpayable"},{"type":"function","name":"cancel","inputs":[{"name":"account_","type":"address","internalType":"address"}],"outputs":[{"name":"listed_","type":"bool","internalType":"bool"}],"stateMutability":"nonpayable"},{"type":"function","name":"initialize","inputs":[],"outputs":[],"stateMutability":"nonpayable"},{"type":"function","name":"isAdmin","inputs":[{"name":"account_","type":"address","internalType":"address"}],"outputs":[{"name":"assigned_","type":"bool","internalType":"bool"}],"stateMutability":"view"},{"type":"function","name":"isWhitelisted","inputs":[{"name":"account_","type":"address","internalType":"address"}],"outputs":[{"name":"listed_","type":"bool","internalType":"bool"}],"stateMutability":"view"},{"type":"function","name":"lastIndexOf","inputs":[],"outputs":[{"name":"index_","type":"uint256","internalType":"uint256"}],"stateMutability":"view"},{"type":"function","name":"removeAdmin","inputs":[{"name":"account_","type":"address","internalType":"address"}],"outputs":[{"name":"assigned_","type":"bool","internalType":"bool"}],"stateMutability":"nonpayable"},{"type":"function","name":"reservation","inputs":[{"name":"account_","type":"address","internalType":"address"}],"outputs":[{"name":"listed_","type":"bool","internalType":"bool"}],"stateMutability":"nonpayable"},{"type":"function","name":"reserverOf","inputs":[{"name":"index_","type":"uint256","internalType":"uint256"}],"outputs":[{"name":"reserver_","type":"address","internalType":"address"}],"stateMutability":"view"},{"type":"function","name":"reserversOf","inputs":[],"outputs":[{"name":"reservers_","type":"address[]","internalType":"address[]"}],"stateMutability":"view"},{"type":"event","name":"CancelReserve","inputs":[{"name":"account_","type":"address","indexed":true,"internalType":"address"},{"name":"index_","type":"uint256","indexed":true,"internalType":"uint256"}],"anonymous":false},{"type":"event","name":"Initialized","inputs":[{"name":"version","type":"uint64","indexed":false,"internalType":"uint64"}],"anonymous":false},{"type":"event","name":"NewAdmin","inputs":[{"name":"account_","type":"address","indexed":true,"internalType":"address"},{"name":"count_","type":"uint256","indexed":true,"internalType":"uint256"}],"anonymous":false},{"type":"event","name":"NewReserver","inputs":[{"name":"account_","type":"address","indexed":true,"internalType":"address"},{"name":"index_","type":"uint256","indexed":true,"internalType":"uint256"}],"anonymous":false},{"type":"event","name":"RemoveAdmin","inputs":[{"name":"account_","type":"address","indexed":true,"internalType":"address"},{"name":"count_","type":"uint256","indexed":true,"internalType":"uint256"}],"anonymous":false},{"type":"error","name":"AlreadyAdmin","inputs":[{"name":"account_","type":"address","internalType":"address"}]},{"type":"error","name":"AlreadyReserve","inputs":[{"name":"account_","type":"address","internalType":"address"}]},{"type":"error","name":"DoNotAddAdmin","inputs":[{"name":"account_","type":"address","internalType":"address"}]},{"type":"error","name":"DoNotRemoveAdmin","inputs":[{"name":"account_","type":"address","internalType":"address"}]},{"type":"error","name":"DoNotToAddWhitelist","inputs":[{"name":"account_","type":"address","internalType":"address"}]},{"type":"error","name":"InvalidAddress","inputs":[{"name":"account_","type":"address","internalType":"address"}]},{"type":"error","name":"InvalidIndex","inputs":[{"name":"index_","type":"uint256","internalType":"uint256"}]},{"type":"error","name":"InvalidInitialization","inputs":[]},{"type":"error","name":"LastAdmin","inputs":[{"name":"account_","type":"address","internalType":"address"}]},{"type":"error","name":"NotAdmin","inputs":[{"name":"account_","type":"address","internalType":"address"}]},{"type":"error","name":"NotInitializing","inputs":[]},{"type":"error","name":"NotyetReserve","inputs":[{"name":"account_","type":"address","internalType":"address"}]}],"bytecode":{"object":"0x6080604052348015600f57600080fd5b506016601a565b60ca565b7ff0c57e16840df040f15088dc2f81fe391c3923bec73e23a9662efc9c229c6a00805468010000000000000000900460ff161560695760405163f92ee8a960e01b815260040160405180910390fd5b80546001600160401b039081161460c75780546001600160401b0319166001600160401b0390811782556040519081527fc7f505b2f371ae2175ee4913f4499e1f2633a7b5936321eed1cdaeb6115181d29060200160405180910390a15b50565b610cc1806100d96000396000f3fe608060405234801561001057600080fd5b506004361061009e5760003560e01c80638129fc1c116100665780638129fc1c1461011757806383cc21d914610121578063d26117fe14610137578063dfa7cd5a1461014c578063ef964f3b1461017757600080fd5b80631785f53c146100a357806324d7806c146100cb5780633af32abf146100de5780634c33fe94146100f15780637048027514610104575b600080fd5b6100b66100b1366004610b3a565b61018a565b60405190151581526020015b60405180910390f35b6100b66100d9366004610b3a565b610259565b6100b66100ec366004610b3a565b610289565b6100b66100ff366004610b3a565b6102c6565b6100b6610112366004610b3a565b6103a1565b61011f610435565b005b610129610545565b6040519081526020016100c2565b61013f610573565b6040516100c29190610b6a565b61015f61015a366004610bb6565b610675565b6040516001600160a01b0390911681526020016100c2565b6100b6610185366004610b3a565b6106e8565b6000610195336107ac565b6101ba5760405162461bcd60e51b81526004016101b190610bcf565b60405180910390fd5b6001600160a01b0382166101ec57604051634726455360e11b81526001600160a01b03831660048201526024016101b1565b6101f5826107ac565b61021d57604051630bd4212160e11b81526001600160a01b03831660048201526024016101b1565b600180541161024a576040516356aae60b60e01b81526001600160a01b03831660048201526024016101b1565b610253826107ca565b92915050565b6000610264336107ac565b6102805760405162461bcd60e51b81526004016101b190610bcf565b610253826107ac565b60006001600160a01b0382166102bd57604051634726455360e11b81526001600160a01b03831660048201526024016101b1565b61025382610873565b60006102d1336107ac565b6102ed5760405162461bcd60e51b81526004016101b190610bcf565b6001600160a01b03821661031f57604051634726455360e11b81526001600160a01b03831660048201526024016101b1565b61032882610873565b61035057604051630c94393360e11b81526001600160a01b03831660048201526024016101b1565b61035982610891565b156103825760405163befe1cd760e01b81526001600160a01b03831660048201526024016101b1565b506001600160a01b031660009081526004602052604090205460ff1690565b60006103ac336107ac565b6103c85760405162461bcd60e51b81526004016101b190610bcf565b6001600160a01b0382166103fa57604051634726455360e11b81526001600160a01b03831660048201526024016101b1565b610403826107ac565b1561042c5760405163089a8b0f60e41b81526001600160a01b03831660048201526024016101b1565b610253826109a9565b7ff0c57e16840df040f15088dc2f81fe391c3923bec73e23a9662efc9c229c6a008054600160401b810460ff16159067ffffffffffffffff1660008115801561047b5750825b905060008267ffffffffffffffff1660011480156104985750303b155b9050811580156104a6575080155b156104c45760405163f92ee8a960e01b815260040160405180910390fd5b845467ffffffffffffffff1916600117855583156104ee57845460ff60401b1916600160401b1785555b6104f7336109a9565b50831561053e57845460ff60401b19168555604051600181527fc7f505b2f371ae2175ee4913f4499e1f2633a7b5936321eed1cdaeb6115181d29060200160405180910390a15b5050505050565b6000610550336107ac565b61056c5760405162461bcd60e51b81526004016101b190610bcf565b5060035490565b606061057e336107ac565b61059a5760405162461bcd60e51b81526004016101b190610bcf565b60035467ffffffffffffffff8111156105b5576105b5610c06565b6040519080825280602002602001820160405280156105de578160200160208202803683370190505b50905060015b6003548111610671576000818152600260205260409020546001600160a01b03161561065f576000818152600260205260409020546001600160a01b03168261062e600184610c32565b8151811061063e5761063e610c45565b60200260200101906001600160a01b031690816001600160a01b0316815250505b8061066981610c5b565b9150506105e4565b5090565b6000610680336107ac565b61069c5760405162461bcd60e51b81526004016101b190610bcf565b8115806106aa575060035482115b156106cb5760405163042a2e7160e11b8152600481018390526024016101b1565b6000828152600260205260409020546001600160a01b0316610253565b60006106f3336107ac565b61070f5760405162461bcd60e51b81526004016101b190610bcf565b6001600160a01b03821661074157604051634726455360e11b81526001600160a01b03831660048201526024016101b1565b61074a82610873565b15610773576040516388eac01360e01b81526001600160a01b03831660048201526024016101b1565b61077c82610a53565b6107a45760405163befe1cd760e01b81526001600160a01b03831660048201526024016101b1565b506001919050565b6001600160a01b031660009081526020819052604090205460ff1690565b6001600160a01b0381166000908152602081905260408120805460ff19169055806107f4836107ac565b9050801561082057604051634f8f39bd60e11b81526001600160a01b03841660048201526024016101b1565b6001805490600061083083610c74565b90915550506001546040516001600160a01b038516907f7b0884b4b6bb4e0c1385ad42168fa556c14d4d799c1bf22f081aff3efff6ea0c90600090a31592915050565b6001600160a01b031660009081526004602052604090205460ff1690565b600060015b6003548111610989576000818152600260205260409020546001600160a01b038481169116036108dd57600081815260026020526040902080546001600160a01b03191690555b6108e683610873565b1561090c576001600160a01b0383166000908152600460205260409020805460ff191690555b6000818152600260205260409020546001600160a01b0316158015610937575061093583610873565b155b156109775760405181906001600160a01b038516907f2d2700f9744abc38db9de19d8a37582c4b4ac79a664013f8a5b2612a427151cc90600090a3610989565b8061098181610c5b565b915050610896565b50506001600160a01b031660009081526004602052604090205460ff1690565b6001600160a01b0381166000908152602081905260408120805460ff19166001179055806109d6836107ac565b905080610a0157604051635fe9228760e01b81526001600160a01b03841660048201526024016101b1565b60018054906000610a1183610c5b565b90915550506001546040516001600160a01b038516907fb9fc27e783df6c8991936fe26ee2fa8498d30034068a61ee9c9d623e077cad0590600090a392915050565b6003805460009182610a6483610c5b565b91905055508160026000610a7760035490565b8152602081019190915260400160002080546001600160a01b039283166001600160a01b03199091161790558216610acc610ab160035490565b6000908152600260205260409020546001600160a01b031690565b6001600160a01b031603610382576003546040516001600160a01b038416907fb3c997aa2b8b8848238a120d1a1c9698ee6162c2d01d9b30091ca85395257e2690600090a3506001600160a01b03166000908152600460205260409020805460ff1916600190811790915590565b600060208284031215610b4c57600080fd5b81356001600160a01b0381168114610b6357600080fd5b9392505050565b602080825282518282018190526000918401906040840190835b81811015610bab5783516001600160a01b0316835260209384019390920191600101610b84565b509095945050505050565b600060208284031215610bc857600080fd5b5035919050565b60208082526019908201527f4572726f723a20526573657276652f4f6e6c792d41646d696e00000000000000604082015260600190565b634e487b7160e01b600052604160045260246000fd5b634e487b7160e01b600052601160045260246000fd5b8181038181111561025357610253610c1c565b634e487b7160e01b600052603260045260246000fd5b600060018201610c6d57610c6d610c1c565b5060010190565b600081610c8357610c83610c1c565b50600019019056fea26469706673582212209a743b01a99c18842a321cafd412ae446fbc15db82a7ab64d0c2d9e6fb69158064736f6c634300081b0033","linkReferences":{}},"methodIdentifiers":{"addAdmin(address)":"70480275","cancel(address)":"4c33fe94","initialize()":"8129fc1c","isAdmin(address)":"24d7806c","isWhitelisted(address)":"3af32abf","lastIndexOf()":"83cc21d9","removeAdmin(address)":"1785f53c","reservation(address)":"ef964f3b","reserverOf(uint256)":"dfa7cd5a","reserversOf()":"d26117fe"},"storageLayout":{"storage":[{"astId":2680,"contract":"contracts/Reserve/Reserve.sol:Reserve","label":"_admins","offset":0,"slot":"0","type":"t_mapping(t_address,t_bool)"},{"astId":2682,"contract":"contracts/Reserve/Reserve.sol:Reserve","label":"_adminCount","offset":0,"slot":"1","type":"t_uint256"},{"astId":2686,"contract":"contracts/Reserve/Reserve.sol:Reserve","label":"_reservers","offset":0,"slot":"2","type":"t_mapping(t_uint256,t_address)"},{"astId":2688,"contract":"contracts/Reserve/Reserve.sol:Reserve","label":"_lastIndex","offset":0,"slot":"3","type":"t_uint256"},{"astId":2692,"contract":"contracts/Reserve/Reserve.sol:Reserve","label":"_whitelist","offset":0,"slot":"4","type":"t_mapping(t_address,t_bool)"}],"types":{"t_address":{"encoding":"inplace","label":"address","numberOfBytes":"20"},"t_bool":{"encoding":"inplace","label":"bool","numberOfBytes":"1"},"t_mapping(t_address,t_bool)":{"encoding":"mapping","key":"t_address","label":"mapping(address => bool)","numberOfBytes":"32","value":"t_bool"},"t_mapping(t_uint256,t_address)":{"encoding":"mapping","key":"t_uint256","label":"mapping(uint256 => address)","numberOfBytes":"32","value":"t_address"},"t_uint256":{"encoding":"inplace","label":"uint256","numberOfBytes":"32"}}},"id":18}